{
	"contracts/LiniarVesting/vesting.sol": {
		"Vesting": {
			"abi": [
				{
					"inputs": [],
					"stateMutability": "nonpayable",
					"type": "constructor"
				},
				{
					"inputs": [],
					"name": "AlreadyInitialized",
					"type": "error"
				},
				{
					"inputs": [],
					"name": "BelowMinClaimAmount",
					"type": "error"
				},
				{
					"inputs": [],
					"name": "ClaimerIsNotBeneficiary",
					"type": "error"
				},
				{
					"inputs": [],
					"name": "CliffNotReached",
					"type": "error"
				},
				{
					"inputs": [],
					"name": "CooldownNotPassed",
					"type": "error"
				},
				{
					"inputs": [],
					"name": "InsufficientTokenBalance",
					"type": "error"
				},
				{
					"inputs": [],
					"name": "InsufficientTokensOnContract",
					"type": "error"
				},
				{
					"inputs": [],
					"name": "InvalidBeneficiaryData",
					"type": "error"
				},
				{
					"inputs": [],
					"name": "InvalidParameters",
					"type": "error"
				},
				{
					"inputs": [],
					"name": "NothingToClaim",
					"type": "error"
				},
				{
					"inputs": [
						{
							"internalType": "address",
							"name": "owner",
							"type": "address"
						}
					],
					"name": "OwnableInvalidOwner",
					"type": "error"
				},
				{
					"inputs": [
						{
							"internalType": "address",
							"name": "account",
							"type": "address"
						}
					],
					"name": "OwnableUnauthorizedAccount",
					"type": "error"
				},
				{
					"inputs": [],
					"name": "TransferFailed",
					"type": "error"
				},
				{
					"inputs": [],
					"name": "VestingAlreadyStarted",
					"type": "error"
				},
				{
					"inputs": [],
					"name": "VestingNotStarted",
					"type": "error"
				},
				{
					"anonymous": false,
					"inputs": [
						{
							"indexed": true,
							"internalType": "address",
							"name": "beneficiary",
							"type": "address"
						},
						{
							"indexed": false,
							"internalType": "uint256",
							"name": "totalAmount",
							"type": "uint256"
						},
						{
							"indexed": false,
							"internalType": "uint256",
							"name": "startTime",
							"type": "uint256"
						},
						{
							"indexed": false,
							"internalType": "uint256",
							"name": "cliff",
							"type": "uint256"
						},
						{
							"indexed": false,
							"internalType": "uint256",
							"name": "duration",
							"type": "uint256"
						}
					],
					"name": "BeneficiaryAdded",
					"type": "event"
				},
				{
					"anonymous": false,
					"inputs": [
						{
							"indexed": true,
							"internalType": "address",
							"name": "beneficiary",
							"type": "address"
						},
						{
							"indexed": false,
							"internalType": "uint256",
							"name": "amount",
							"type": "uint256"
						},
						{
							"indexed": false,
							"internalType": "uint256",
							"name": "timestamp",
							"type": "uint256"
						}
					],
					"name": "Claim",
					"type": "event"
				},
				{
					"anonymous": false,
					"inputs": [
						{
							"indexed": false,
							"internalType": "uint256",
							"name": "newCooldown",
							"type": "uint256"
						},
						{
							"indexed": false,
							"internalType": "uint256",
							"name": "newMinClaimAmount",
							"type": "uint256"
						}
					],
					"name": "ClaimParametersUpdated",
					"type": "event"
				},
				{
					"anonymous": false,
					"inputs": [
						{
							"indexed": true,
							"internalType": "address",
							"name": "token",
							"type": "address"
						},
						{
							"indexed": false,
							"internalType": "uint256",
							"name": "cooldown",
							"type": "uint256"
						},
						{
							"indexed": false,
							"internalType": "uint256",
							"name": "minClaimAmount",
							"type": "uint256"
						}
					],
					"name": "Initialized",
					"type": "event"
				},
				{
					"anonymous": false,
					"inputs": [
						{
							"indexed": true,
							"internalType": "address",
							"name": "previousOwner",
							"type": "address"
						},
						{
							"indexed": true,
							"internalType": "address",
							"name": "newOwner",
							"type": "address"
						}
					],
					"name": "OwnershipTransferred",
					"type": "event"
				},
				{
					"anonymous": false,
					"inputs": [
						{
							"indexed": false,
							"internalType": "address[]",
							"name": "beneficiaries",
							"type": "address[]"
						},
						{
							"indexed": false,
							"internalType": "uint256",
							"name": "totalTokens",
							"type": "uint256"
						}
					],
					"name": "VestingStarted",
					"type": "event"
				},
				{
					"inputs": [
						{
							"internalType": "address",
							"name": "",
							"type": "address"
						}
					],
					"name": "beneficiaries",
					"outputs": [
						{
							"internalType": "uint256",
							"name": "totalAmount",
							"type": "uint256"
						},
						{
							"internalType": "uint256",
							"name": "startTime",
							"type": "uint256"
						},
						{
							"internalType": "uint256",
							"name": "cliff",
							"type": "uint256"
						},
						{
							"internalType": "uint256",
							"name": "duration",
							"type": "uint256"
						},
						{
							"internalType": "uint256",
							"name": "claimed",
							"type": "uint256"
						},
						{
							"internalType": "uint256",
							"name": "lastClaimTime",
							"type": "uint256"
						}
					],
					"stateMutability": "view",
					"type": "function"
				},
				{
					"inputs": [],
					"name": "claim",
					"outputs": [],
					"stateMutability": "nonpayable",
					"type": "function"
				},
				{
					"inputs": [],
					"name": "claimCooldown",
					"outputs": [
						{
							"internalType": "uint256",
							"name": "",
							"type": "uint256"
						}
					],
					"stateMutability": "view",
					"type": "function"
				},
				{
					"inputs": [
						{
							"internalType": "address",
							"name": "_beneficiary",
							"type": "address"
						}
					],
					"name": "claimableAmount",
					"outputs": [
						{
							"internalType": "uint256",
							"name": "",
							"type": "uint256"
						}
					],
					"stateMutability": "view",
					"type": "function"
				},
				{
					"inputs": [
						{
							"internalType": "address",
							"name": "_token",
							"type": "address"
						},
						{
							"internalType": "uint256",
							"name": "_cooldown",
							"type": "uint256"
						},
						{
							"internalType": "uint256",
							"name": "_minClaimAmount",
							"type": "uint256"
						}
					],
					"name": "getInitData",
					"outputs": [
						{
							"internalType": "bytes",
							"name": "",
							"type": "bytes"
						}
					],
					"stateMutability": "pure",
					"type": "function"
				},
				{
					"inputs": [
						{
							"internalType": "address[]",
							"name": "_beneficiaries",
							"type": "address[]"
						},
						{
							"internalType": "uint256[]",
							"name": "_totalAmounts",
							"type": "uint256[]"
						},
						{
							"internalType": "uint256[]",
							"name": "_startTimes",
							"type": "uint256[]"
						},
						{
							"internalType": "uint256[]",
							"name": "_cliffs",
							"type": "uint256[]"
						},
						{
							"internalType": "uint256[]",
							"name": "_durations",
							"type": "uint256[]"
						}
					],
					"name": "getVestingData",
					"outputs": [
						{
							"internalType": "bytes",
							"name": "",
							"type": "bytes"
						}
					],
					"stateMutability": "pure",
					"type": "function"
				},
				{
					"inputs": [
						{
							"internalType": "bytes",
							"name": "_initData",
							"type": "bytes"
						}
					],
					"name": "initialize",
					"outputs": [
						{
							"internalType": "bool",
							"name": "",
							"type": "bool"
						}
					],
					"stateMutability": "nonpayable",
					"type": "function"
				},
				{
					"inputs": [],
					"name": "minClaimAmount",
					"outputs": [
						{
							"internalType": "uint256",
							"name": "",
							"type": "uint256"
						}
					],
					"stateMutability": "view",
					"type": "function"
				},
				{
					"inputs": [],
					"name": "owner",
					"outputs": [
						{
							"internalType": "address",
							"name": "",
							"type": "address"
						}
					],
					"stateMutability": "view",
					"type": "function"
				},
				{
					"inputs": [],
					"name": "renounceOwnership",
					"outputs": [],
					"stateMutability": "nonpayable",
					"type": "function"
				},
				{
					"inputs": [
						{
							"internalType": "uint256",
							"name": "_newCooldown",
							"type": "uint256"
						},
						{
							"internalType": "uint256",
							"name": "_newMinClaimAmount",
							"type": "uint256"
						}
					],
					"name": "setClaimParameters",
					"outputs": [],
					"stateMutability": "nonpayable",
					"type": "function"
				},
				{
					"inputs": [
						{
							"internalType": "bytes",
							"name": "_vestingData",
							"type": "bytes"
						}
					],
					"name": "startVesting",
					"outputs": [],
					"stateMutability": "nonpayable",
					"type": "function"
				},
				{
					"inputs": [],
					"name": "token",
					"outputs": [
						{
							"internalType": "contract IERC20",
							"name": "",
							"type": "address"
						}
					],
					"stateMutability": "view",
					"type": "function"
				},
				{
					"inputs": [
						{
							"internalType": "address",
							"name": "newOwner",
							"type": "address"
						}
					],
					"name": "transferOwnership",
					"outputs": [],
					"stateMutability": "nonpayable",
					"type": "function"
				}
			],
			"devdoc": {
				"errors": {
					"OwnableInvalidOwner(address)": [
						{
							"details": "The owner is not a valid owner account. (eg. `address(0)`)"
						}
					],
					"OwnableUnauthorizedAccount(address)": [
						{
							"details": "The caller account is not authorized to perform an operation."
						}
					]
				},
				"kind": "dev",
				"methods": {
					"owner()": {
						"details": "Returns the address of the current owner."
					},
					"renounceOwnership()": {
						"details": "Leaves the contract without owner. It will not be possible to call `onlyOwner` functions. Can only be called by the current owner. NOTE: Renouncing ownership will leave the contract without an owner, thereby disabling any functionality that is only available to the owner."
					},
					"transferOwnership(address)": {
						"details": "Transfers ownership of the contract to a new account (`newOwner`). Can only be called by the current owner."
					}
				},
				"version": 1
			},
			"evm": {
				"assembly": "    /* \"contracts/LiniarVesting/vesting.sol\":203:6843  contract Vesting is IUtilityContract, Ownable {... */\n  mstore(0x40, 0x80)\n    /* \"contracts/LiniarVesting/vesting.sol\":255:291  constructor() Ownable(msg.sender) {} */\n  callvalue\n  dup1\n  iszero\n  tag_1\n  jumpi\n  revert(0x00, 0x00)\ntag_1:\n  pop\n    /* \"contracts/LiniarVesting/vesting.sol\":277:287  msg.sender */\n  caller\n    /* \"@openzeppelin/contracts/access/Ownable.sol\":1297:1298  0 */\n  0x00\n    /* \"@openzeppelin/contracts/access/Ownable.sol\":1273:1299  initialOwner == address(0) */\n  0xffffffffffffffffffffffffffffffffffffffff\n  and\n    /* \"@openzeppelin/contracts/access/Ownable.sol\":1273:1285  initialOwner */\n  dup2\n    /* \"@openzeppelin/contracts/access/Ownable.sol\":1273:1299  initialOwner == address(0) */\n  0xffffffffffffffffffffffffffffffffffffffff\n  and\n  sub\n    /* \"@openzeppelin/contracts/access/Ownable.sol\":1269:1364  if (initialOwner == address(0)) {... */\n  tag_5\n  jumpi\n    /* \"@openzeppelin/contracts/access/Ownable.sol\":1350:1351  0 */\n  0x00\n    /* \"@openzeppelin/contracts/access/Ownable.sol\":1322:1353  OwnableInvalidOwner(address(0)) */\n  mload(0x40)\n  0x1e4fbdf700000000000000000000000000000000000000000000000000000000\n  dup2\n  mstore\n  0x04\n  add\n  tag_6\n  swap2\n  swap1\n  tag_7\n  jump\t// in\ntag_6:\n  mload(0x40)\n  dup1\n  swap2\n  sub\n  swap1\n  revert\n    /* \"@openzeppelin/contracts/access/Ownable.sol\":1269:1364  if (initialOwner == address(0)) {... */\ntag_5:\n    /* \"@openzeppelin/contracts/access/Ownable.sol\":1373:1405  _transferOwnership(initialOwner) */\n  tag_8\n    /* \"@openzeppelin/contracts/access/Ownable.sol\":1392:1404  initialOwner */\n  dup2\n    /* \"@openzeppelin/contracts/access/Ownable.sol\":1373:1391  _transferOwnership */\n  shl(0x20, tag_9)\n    /* \"@openzeppelin/contracts/access/Ownable.sol\":1373:1405  _transferOwnership(initialOwner) */\n  0x20\n  shr\n  jump\t// in\ntag_8:\n    /* \"@openzeppelin/contracts/access/Ownable.sol\":1225:1412  constructor(address initialOwner) {... */\n  pop\n    /* \"contracts/LiniarVesting/vesting.sol\":203:6843  contract Vesting is IUtilityContract, Ownable {... */\n  jump(tag_11)\n    /* \"@openzeppelin/contracts/access/Ownable.sol\":2912:3099  function _transferOwnership(address newOwner) internal virtual {... */\ntag_9:\n    /* \"@openzeppelin/contracts/access/Ownable.sol\":2985:3001  address oldOwner */\n  0x00\n    /* \"@openzeppelin/contracts/access/Ownable.sol\":3004:3010  _owner */\n  0x00\n  0x00\n  swap1\n  sload\n  swap1\n  0x0100\n  exp\n  swap1\n  div\n  0xffffffffffffffffffffffffffffffffffffffff\n  and\n    /* \"@openzeppelin/contracts/access/Ownable.sol\":2985:3010  address oldOwner = _owner */\n  swap1\n  pop\n    /* \"@openzeppelin/contracts/access/Ownable.sol\":3029:3037  newOwner */\n  dup2\n    /* \"@openzeppelin/contracts/access/Ownable.sol\":3020:3026  _owner */\n  0x00\n  0x00\n    /* \"@openzeppelin/contracts/access/Ownable.sol\":3020:3037  _owner = newOwner */\n  0x0100\n  exp\n  dup2\n  sload\n  dup2\n  0xffffffffffffffffffffffffffffffffffffffff\n  mul\n  not\n  and\n  swap1\n  dup4\n  0xffffffffffffffffffffffffffffffffffffffff\n  and\n  mul\n  or\n  swap1\n  sstore\n  pop\n    /* \"@openzeppelin/contracts/access/Ownable.sol\":3083:3091  newOwner */\n  dup2\n    /* \"@openzeppelin/contracts/access/Ownable.sol\":3052:3092  OwnershipTransferred(oldOwner, newOwner) */\n  0xffffffffffffffffffffffffffffffffffffffff\n  and\n    /* \"@openzeppelin/contracts/access/Ownable.sol\":3073:3081  oldOwner */\n  dup2\n    /* \"@openzeppelin/contracts/access/Ownable.sol\":3052:3092  OwnershipTransferred(oldOwner, newOwner) */\n  0xffffffffffffffffffffffffffffffffffffffff\n  and\n  0x8be0079c531659141344cd1fd0a4f28419497f9722a3daafe3b4186f6b6457e0\n  mload(0x40)\n  mload(0x40)\n  dup1\n  swap2\n  sub\n  swap1\n  log3\n    /* \"@openzeppelin/contracts/access/Ownable.sol\":2975:3099  {... */\n  pop\n    /* \"@openzeppelin/contracts/access/Ownable.sol\":2912:3099  function _transferOwnership(address newOwner) internal virtual {... */\n  pop\n  jump\t// out\n    /* \"#utility.yul\":7:133   */\ntag_13:\n    /* \"#utility.yul\":44:51   */\n  0x00\n    /* \"#utility.yul\":84:126   */\n  0xffffffffffffffffffffffffffffffffffffffff\n    /* \"#utility.yul\":77:82   */\n  dup3\n    /* \"#utility.yul\":73:127   */\n  and\n    /* \"#utility.yul\":62:127   */\n  swap1\n  pop\n    /* \"#utility.yul\":7:133   */\n  swap2\n  swap1\n  pop\n  jump\t// out\n    /* \"#utility.yul\":139:235   */\ntag_14:\n    /* \"#utility.yul\":176:183   */\n  0x00\n    /* \"#utility.yul\":205:229   */\n  tag_19\n    /* \"#utility.yul\":223:228   */\n  dup3\n    /* \"#utility.yul\":205:229   */\n  tag_13\n  jump\t// in\ntag_19:\n    /* \"#utility.yul\":194:229   */\n  swap1\n  pop\n    /* \"#utility.yul\":139:235   */\n  swap2\n  swap1\n  pop\n  jump\t// out\n    /* \"#utility.yul\":241:359   */\ntag_15:\n    /* \"#utility.yul\":328:352   */\n  tag_21\n    /* \"#utility.yul\":346:351   */\n  dup2\n    /* \"#utility.yul\":328:352   */\n  tag_14\n  jump\t// in\ntag_21:\n    /* \"#utility.yul\":323:326   */\n  dup3\n    /* \"#utility.yul\":316:353   */\n  mstore\n    /* \"#utility.yul\":241:359   */\n  pop\n  pop\n  jump\t// out\n    /* \"#utility.yul\":365:587   */\ntag_7:\n    /* \"#utility.yul\":458:462   */\n  0x00\n    /* \"#utility.yul\":496:498   */\n  0x20\n    /* \"#utility.yul\":485:494   */\n  dup3\n    /* \"#utility.yul\":481:499   */\n  add\n    /* \"#utility.yul\":473:499   */\n  swap1\n  pop\n    /* \"#utility.yul\":509:580   */\n  tag_23\n    /* \"#utility.yul\":577:578   */\n  0x00\n    /* \"#utility.yul\":566:575   */\n  dup4\n    /* \"#utility.yul\":562:579   */\n  add\n    /* \"#utility.yul\":553:559   */\n  dup5\n    /* \"#utility.yul\":509:580   */\n  tag_15\n  jump\t// in\ntag_23:\n    /* \"#utility.yul\":365:587   */\n  swap3\n  swap2\n  pop\n  pop\n  jump\t// out\n    /* \"contracts/LiniarVesting/vesting.sol\":203:6843  contract Vesting is IUtilityContract, Ownable {... */\ntag_11:\n  dataSize(sub_0)\n  dup1\n  dataOffset(sub_0)\n  0x00\n  codecopy\n  0x00\n  return\nstop\n\nsub_0: assembly {\n        /* \"contracts/LiniarVesting/vesting.sol\":203:6843  contract Vesting is IUtilityContract, Ownable {... */\n      mstore(0x40, 0x80)\n      callvalue\n      dup1\n      iszero\n      tag_1\n      jumpi\n      revert(0x00, 0x00)\n    tag_1:\n      pop\n      jumpi(tag_2, lt(calldatasize, 0x04))\n      shr(0xe0, calldataload(0x00))\n      dup1\n      0x8da5cb5b\n      gt\n      tag_17\n      jumpi\n      dup1\n      0xadc25bde\n      gt\n      tag_18\n      jumpi\n      dup1\n      0xadc25bde\n      eq\n      tag_13\n      jumpi\n      dup1\n      0xf2fde38b\n      eq\n      tag_14\n      jumpi\n      dup1\n      0xfc0c546a\n      eq\n      tag_15\n      jumpi\n      dup1\n      0xfdea3657\n      eq\n      tag_16\n      jumpi\n      jump(tag_2)\n    tag_18:\n      dup1\n      0x8da5cb5b\n      eq\n      tag_10\n      jumpi\n      dup1\n      0x8e7d947d\n      eq\n      tag_11\n      jumpi\n      dup1\n      0x91dc11fe\n      eq\n      tag_12\n      jumpi\n      jump(tag_2)\n    tag_17:\n      dup1\n      0x439fab91\n      gt\n      tag_19\n      jumpi\n      dup1\n      0x439fab91\n      eq\n      tag_6\n      jumpi\n      dup1\n      0x4e71d92d\n      eq\n      tag_7\n      jumpi\n      dup1\n      0x715018a6\n      eq\n      tag_8\n      jumpi\n      dup1\n      0x89885049\n      eq\n      tag_9\n      jumpi\n      jump(tag_2)\n    tag_19:\n      dup1\n      0xc3e8d1\n      eq\n      tag_3\n      jumpi\n      dup1\n      0x01567739\n      eq\n      tag_4\n      jumpi\n      dup1\n      0x4221338e\n      eq\n      tag_5\n      jumpi\n    tag_2:\n      revert(0x00, 0x00)\n        /* \"contracts/LiniarVesting/vesting.sol\":2366:4338  function startVesting(bytes memory _vestingData) external onlyOwner vestingNotStarted {... */\n    tag_3:\n      tag_20\n      0x04\n      dup1\n      calldatasize\n      sub\n      dup2\n      add\n      swap1\n      tag_21\n      swap2\n      swap1\n      tag_22\n      jump\t// in\n    tag_21:\n      tag_23\n      jump\t// in\n    tag_20:\n      stop\n        /* \"contracts/LiniarVesting/vesting.sol\":652:708  mapping(address => BeneficiaryInfo) public beneficiaries */\n    tag_4:\n      tag_24\n      0x04\n      dup1\n      calldatasize\n      sub\n      dup2\n      add\n      swap1\n      tag_25\n      swap2\n      swap1\n      tag_26\n      jump\t// in\n    tag_25:\n      tag_27\n      jump\t// in\n    tag_24:\n      mload(0x40)\n      tag_28\n      swap7\n      swap6\n      swap5\n      swap4\n      swap3\n      swap2\n      swap1\n      tag_29\n      jump\t// in\n    tag_28:\n      mload(0x40)\n      dup1\n      swap2\n      sub\n      swap1\n      return\n        /* \"contracts/LiniarVesting/vesting.sol\":6485:6841  function getVestingData(... */\n    tag_5:\n      tag_30\n      0x04\n      dup1\n      calldatasize\n      sub\n      dup2\n      add\n      swap1\n      tag_31\n      swap2\n      swap1\n      tag_32\n      jump\t// in\n    tag_31:\n      tag_33\n      jump\t// in\n    tag_30:\n      mload(0x40)\n      tag_34\n      swap2\n      swap1\n      tag_35\n      jump\t// in\n    tag_34:\n      mload(0x40)\n      dup1\n      swap2\n      sub\n      swap1\n      return\n        /* \"contracts/LiniarVesting/vesting.sol\":1817:2359  function initialize(bytes memory _initData) external notInitialized returns (bool) {... */\n    tag_6:\n      tag_36\n      0x04\n      dup1\n      calldatasize\n      sub\n      dup2\n      add\n      swap1\n      tag_37\n      swap2\n      swap1\n      tag_22\n      jump\t// in\n    tag_37:\n      tag_38\n      jump\t// in\n    tag_36:\n      mload(0x40)\n      tag_39\n      swap2\n      swap1\n      tag_40\n      jump\t// in\n    tag_39:\n      mload(0x40)\n      dup1\n      swap2\n      sub\n      swap1\n      return\n        /* \"contracts/LiniarVesting/vesting.sol\":4344:5222  function claim() public {... */\n    tag_7:\n      tag_41\n      tag_42\n      jump\t// in\n    tag_41:\n      stop\n        /* \"@openzeppelin/contracts/access/Ownable.sol\":2293:2394  function renounceOwnership() public virtual onlyOwner {... */\n    tag_8:\n      tag_43\n      tag_44\n      jump\t// in\n    tag_43:\n      stop\n        /* \"contracts/LiniarVesting/vesting.sol\":5687:5991  function claimableAmount(address _beneficiary) public view returns (uint256) {... */\n    tag_9:\n      tag_45\n      0x04\n      dup1\n      calldatasize\n      sub\n      dup2\n      add\n      swap1\n      tag_46\n      swap2\n      swap1\n      tag_26\n      jump\t// in\n    tag_46:\n      tag_47\n      jump\t// in\n    tag_45:\n      mload(0x40)\n      tag_48\n      swap2\n      swap1\n      tag_49\n      jump\t// in\n    tag_48:\n      mload(0x40)\n      dup1\n      swap2\n      sub\n      swap1\n      return\n        /* \"@openzeppelin/contracts/access/Ownable.sol\":1638:1723  function owner() public view virtual returns (address) {... */\n    tag_10:\n      tag_50\n      tag_51\n      jump\t// in\n    tag_50:\n      mload(0x40)\n      tag_52\n      swap2\n      swap1\n      tag_53\n      jump\t// in\n    tag_52:\n      mload(0x40)\n      dup1\n      swap2\n      sub\n      swap1\n      return\n        /* \"contracts/LiniarVesting/vesting.sol\":6261:6479  function getInitData(... */\n    tag_11:\n      tag_54\n      0x04\n      dup1\n      calldatasize\n      sub\n      dup2\n      add\n      swap1\n      tag_55\n      swap2\n      swap1\n      tag_56\n      jump\t// in\n    tag_55:\n      tag_57\n      jump\t// in\n    tag_54:\n      mload(0x40)\n      tag_58\n      swap2\n      swap1\n      tag_35\n      jump\t// in\n    tag_58:\n      mload(0x40)\n      dup1\n      swap2\n      sub\n      swap1\n      return\n        /* \"contracts/LiniarVesting/vesting.sol\":5997:6255  function setClaimParameters(uint256 _newCooldown, uint256 _newMinClaimAmount) external onlyOwner {... */\n    tag_12:\n      tag_59\n      0x04\n      dup1\n      calldatasize\n      sub\n      dup2\n      add\n      swap1\n      tag_60\n      swap2\n      swap1\n      tag_61\n      jump\t// in\n    tag_60:\n      tag_62\n      jump\t// in\n    tag_59:\n      stop\n        /* \"contracts/LiniarVesting/vesting.sol\":419:448  uint256 public minClaimAmount */\n    tag_13:\n      tag_63\n      tag_64\n      jump\t// in\n    tag_63:\n      mload(0x40)\n      tag_65\n      swap2\n      swap1\n      tag_49\n      jump\t// in\n    tag_65:\n      mload(0x40)\n      dup1\n      swap2\n      sub\n      swap1\n      return\n        /* \"@openzeppelin/contracts/access/Ownable.sol\":2543:2758  function transferOwnership(address newOwner) public virtual onlyOwner {... */\n    tag_14:\n      tag_66\n      0x04\n      dup1\n      calldatasize\n      sub\n      dup2\n      add\n      swap1\n      tag_67\n      swap2\n      swap1\n      tag_26\n      jump\t// in\n    tag_67:\n      tag_68\n      jump\t// in\n    tag_66:\n      stop\n        /* \"contracts/LiniarVesting/vesting.sol\":297:316  IERC20 public token */\n    tag_15:\n      tag_69\n      tag_70\n      jump\t// in\n    tag_69:\n      mload(0x40)\n      tag_71\n      swap2\n      swap1\n      tag_72\n      jump\t// in\n    tag_71:\n      mload(0x40)\n      dup1\n      swap2\n      sub\n      swap1\n      return\n        /* \"contracts/LiniarVesting/vesting.sol\":385:413  uint256 public claimCooldown */\n    tag_16:\n      tag_73\n      tag_74\n      jump\t// in\n    tag_73:\n      mload(0x40)\n      tag_75\n      swap2\n      swap1\n      tag_49\n      jump\t// in\n    tag_75:\n      mload(0x40)\n      dup1\n      swap2\n      sub\n      swap1\n      return\n        /* \"contracts/LiniarVesting/vesting.sol\":2366:4338  function startVesting(bytes memory _vestingData) external onlyOwner vestingNotStarted {... */\n    tag_23:\n        /* \"@openzeppelin/contracts/access/Ownable.sol\":1531:1544  _checkOwner() */\n      tag_77\n        /* \"@openzeppelin/contracts/access/Ownable.sol\":1531:1542  _checkOwner */\n      tag_78\n        /* \"@openzeppelin/contracts/access/Ownable.sol\":1531:1544  _checkOwner() */\n      jump\t// in\n    tag_77:\n        /* \"contracts/LiniarVesting/vesting.sol\":1752:1766  vestingStarted */\n      0x01\n      0x15\n      swap1\n      sload\n      swap1\n      0x0100\n      exp\n      swap1\n      div\n      0xff\n      and\n        /* \"contracts/LiniarVesting/vesting.sol\":1751:1766  !vestingStarted */\n      iszero\n        /* \"contracts/LiniarVesting/vesting.sol\":1743:1792  require(!vestingStarted, VestingAlreadyStarted()) */\n      tag_80\n      jumpi\n      mload(0x40)\n      0x72de7acd00000000000000000000000000000000000000000000000000000000\n      dup2\n      mstore\n      0x04\n      add\n      mload(0x40)\n      dup1\n      swap2\n      sub\n      swap1\n      revert\n    tag_80:\n        /* \"contracts/LiniarVesting/vesting.sol\":2476:2507  address[] memory _beneficiaries */\n      0x00\n        /* \"contracts/LiniarVesting/vesting.sol\":2521:2551  uint256[] memory _totalAmounts */\n      0x00\n        /* \"contracts/LiniarVesting/vesting.sol\":2565:2593  uint256[] memory _startTimes */\n      0x00\n        /* \"contracts/LiniarVesting/vesting.sol\":2607:2631  uint256[] memory _cliffs */\n      0x00\n        /* \"contracts/LiniarVesting/vesting.sol\":2645:2672  uint256[] memory _durations */\n      0x00\n        /* \"contracts/LiniarVesting/vesting.sol\":2696:2708  _vestingData */\n      dup6\n        /* \"contracts/LiniarVesting/vesting.sol\":2685:2766  abi.decode(_vestingData, (address[], uint256[], uint256[], uint256[], uint256[])) */\n      dup1\n      0x20\n      add\n      swap1\n      mload\n      dup2\n      add\n      swap1\n      tag_82\n      swap2\n      swap1\n      tag_83\n      jump\t// in\n    tag_82:\n        /* \"contracts/LiniarVesting/vesting.sol\":2462:2766  (... */\n      swap5\n      pop\n      swap5\n      pop\n      swap5\n      pop\n      swap5\n      pop\n      swap5\n      pop\n        /* \"contracts/LiniarVesting/vesting.sol\":2810:2823  _totalAmounts */\n      dup4\n        /* \"contracts/LiniarVesting/vesting.sol\":2810:2830  _totalAmounts.length */\n      mload\n        /* \"contracts/LiniarVesting/vesting.sol\":2785:2799  _beneficiaries */\n      dup6\n        /* \"contracts/LiniarVesting/vesting.sol\":2785:2806  _beneficiaries.length */\n      mload\n        /* \"contracts/LiniarVesting/vesting.sol\":2785:2830  _beneficiaries.length == _totalAmounts.length */\n      eq\n        /* \"contracts/LiniarVesting/vesting.sol\":2785:2893  _beneficiaries.length == _totalAmounts.length &&... */\n      dup1\n      iszero\n      tag_84\n      jumpi\n      pop\n        /* \"contracts/LiniarVesting/vesting.sol\":2875:2886  _startTimes */\n      dup3\n        /* \"contracts/LiniarVesting/vesting.sol\":2875:2893  _startTimes.length */\n      mload\n        /* \"contracts/LiniarVesting/vesting.sol\":2850:2864  _beneficiaries */\n      dup6\n        /* \"contracts/LiniarVesting/vesting.sol\":2850:2871  _beneficiaries.length */\n      mload\n        /* \"contracts/LiniarVesting/vesting.sol\":2850:2893  _beneficiaries.length == _startTimes.length */\n      eq\n        /* \"contracts/LiniarVesting/vesting.sol\":2785:2893  _beneficiaries.length == _totalAmounts.length &&... */\n    tag_84:\n        /* \"contracts/LiniarVesting/vesting.sol\":2785:2952  _beneficiaries.length == _totalAmounts.length &&... */\n      dup1\n      iszero\n      tag_85\n      jumpi\n      pop\n        /* \"contracts/LiniarVesting/vesting.sol\":2938:2945  _cliffs */\n      dup2\n        /* \"contracts/LiniarVesting/vesting.sol\":2938:2952  _cliffs.length */\n      mload\n        /* \"contracts/LiniarVesting/vesting.sol\":2913:2927  _beneficiaries */\n      dup6\n        /* \"contracts/LiniarVesting/vesting.sol\":2913:2934  _beneficiaries.length */\n      mload\n        /* \"contracts/LiniarVesting/vesting.sol\":2913:2952  _beneficiaries.length == _cliffs.length */\n      eq\n        /* \"contracts/LiniarVesting/vesting.sol\":2785:2952  _beneficiaries.length == _totalAmounts.length &&... */\n    tag_85:\n        /* \"contracts/LiniarVesting/vesting.sol\":2785:3014  _beneficiaries.length == _totalAmounts.length &&... */\n      dup1\n      iszero\n      tag_86\n      jumpi\n      pop\n        /* \"contracts/LiniarVesting/vesting.sol\":2997:3007  _durations */\n      dup1\n        /* \"contracts/LiniarVesting/vesting.sol\":2997:3014  _durations.length */\n      mload\n        /* \"contracts/LiniarVesting/vesting.sol\":2972:2986  _beneficiaries */\n      dup6\n        /* \"contracts/LiniarVesting/vesting.sol\":2972:2993  _beneficiaries.length */\n      mload\n        /* \"contracts/LiniarVesting/vesting.sol\":2972:3014  _beneficiaries.length == _durations.length */\n      eq\n        /* \"contracts/LiniarVesting/vesting.sol\":2785:3014  _beneficiaries.length == _totalAmounts.length &&... */\n    tag_86:\n        /* \"contracts/LiniarVesting/vesting.sol\":2777:3040  require(_beneficiaries.length == _totalAmounts.length &&... */\n      tag_87\n      jumpi\n      mload(0x40)\n      0x08c379a000000000000000000000000000000000000000000000000000000000\n      dup2\n      mstore\n      0x04\n      add\n      tag_88\n      swap1\n      tag_89\n      jump\t// in\n    tag_88:\n      mload(0x40)\n      dup1\n      swap2\n      sub\n      swap1\n      revert\n    tag_87:\n        /* \"contracts/LiniarVesting/vesting.sol\":3082:3083  0 */\n      0x00\n        /* \"contracts/LiniarVesting/vesting.sol\":3058:3072  _beneficiaries */\n      dup6\n        /* \"contracts/LiniarVesting/vesting.sol\":3058:3079  _beneficiaries.length */\n      mload\n        /* \"contracts/LiniarVesting/vesting.sol\":3058:3083  _beneficiaries.length > 0 */\n      gt\n        /* \"contracts/LiniarVesting/vesting.sol\":3050:3113  require(_beneficiaries.length > 0, \"No beneficiaries provided\") */\n      tag_90\n      jumpi\n      mload(0x40)\n      0x08c379a000000000000000000000000000000000000000000000000000000000\n      dup2\n      mstore\n      0x04\n      add\n      tag_91\n      swap1\n      tag_92\n      jump\t// in\n    tag_91:\n      mload(0x40)\n      dup1\n      swap2\n      sub\n      swap1\n      revert\n    tag_90:\n        /* \"contracts/LiniarVesting/vesting.sol\":3124:3143  uint256 totalTokens */\n      0x00\n        /* \"contracts/LiniarVesting/vesting.sol\":3146:3147  0 */\n      0x00\n        /* \"contracts/LiniarVesting/vesting.sol\":3124:3147  uint256 totalTokens = 0 */\n      swap1\n      pop\n        /* \"contracts/LiniarVesting/vesting.sol\":3162:3171  uint256 i */\n      0x00\n        /* \"contracts/LiniarVesting/vesting.sol\":3174:3175  0 */\n      0x00\n        /* \"contracts/LiniarVesting/vesting.sol\":3162:3175  uint256 i = 0 */\n      swap1\n      pop\n        /* \"contracts/LiniarVesting/vesting.sol\":3157:3264  for (uint256 i = 0; i < _totalAmounts.length; i++) {... */\n    tag_93:\n        /* \"contracts/LiniarVesting/vesting.sol\":3181:3194  _totalAmounts */\n      dup6\n        /* \"contracts/LiniarVesting/vesting.sol\":3181:3201  _totalAmounts.length */\n      mload\n        /* \"contracts/LiniarVesting/vesting.sol\":3177:3178  i */\n      dup2\n        /* \"contracts/LiniarVesting/vesting.sol\":3177:3201  i < _totalAmounts.length */\n      lt\n        /* \"contracts/LiniarVesting/vesting.sol\":3157:3264  for (uint256 i = 0; i < _totalAmounts.length; i++) {... */\n      iszero\n      tag_94\n      jumpi\n        /* \"contracts/LiniarVesting/vesting.sol\":3237:3250  _totalAmounts */\n      dup6\n        /* \"contracts/LiniarVesting/vesting.sol\":3251:3252  i */\n      dup2\n        /* \"contracts/LiniarVesting/vesting.sol\":3237:3253  _totalAmounts[i] */\n      dup2\n      mload\n      dup2\n      lt\n      tag_96\n      jumpi\n      tag_97\n      tag_98\n      jump\t// in\n    tag_97:\n    tag_96:\n      0x20\n      mul\n      0x20\n      add\n      add\n      mload\n        /* \"contracts/LiniarVesting/vesting.sol\":3222:3253  totalTokens += _totalAmounts[i] */\n      dup3\n      tag_99\n      swap2\n      swap1\n      tag_100\n      jump\t// in\n    tag_99:\n      swap2\n      pop\n        /* \"contracts/LiniarVesting/vesting.sol\":3203:3206  i++ */\n      dup1\n      dup1\n      0x01\n      add\n      swap2\n      pop\n      pop\n        /* \"contracts/LiniarVesting/vesting.sol\":3157:3264  for (uint256 i = 0; i < _totalAmounts.length; i++) {... */\n      jump(tag_93)\n    tag_94:\n      pop\n        /* \"contracts/LiniarVesting/vesting.sol\":3316:3327  totalTokens */\n      dup1\n        /* \"contracts/LiniarVesting/vesting.sol\":3282:3287  token */\n      0x01\n      0x00\n      swap1\n      sload\n      swap1\n      0x0100\n      exp\n      swap1\n      div\n      0xffffffffffffffffffffffffffffffffffffffff\n      and\n        /* \"contracts/LiniarVesting/vesting.sol\":3282:3297  token.balanceOf */\n      0xffffffffffffffffffffffffffffffffffffffff\n      and\n      0x70a08231\n        /* \"contracts/LiniarVesting/vesting.sol\":3306:3310  this */\n      address\n        /* \"contracts/LiniarVesting/vesting.sol\":3282:3312  token.balanceOf(address(this)) */\n      mload(0x40)\n      dup3\n      0xffffffff\n      and\n      0xe0\n      shl\n      dup2\n      mstore\n      0x04\n      add\n      tag_101\n      swap2\n      swap1\n      tag_53\n      jump\t// in\n    tag_101:\n      0x20\n      mload(0x40)\n      dup1\n      dup4\n      sub\n      dup2\n      dup7\n      gas\n      staticcall\n      iszero\n      dup1\n      iszero\n      tag_103\n      jumpi\n      returndatacopy(0x00, 0x00, returndatasize)\n      revert(0x00, returndatasize)\n    tag_103:\n      pop\n      pop\n      pop\n      pop\n      mload(0x40)\n      returndatasize\n      not(0x1f)\n      0x1f\n      dup3\n      add\n      and\n      dup3\n      add\n      dup1\n      0x40\n      mstore\n      pop\n      dup2\n      add\n      swap1\n      tag_104\n      swap2\n      swap1\n      tag_105\n      jump\t// in\n    tag_104:\n        /* \"contracts/LiniarVesting/vesting.sol\":3282:3327  token.balanceOf(address(this)) >= totalTokens */\n      lt\n      iszero\n        /* \"contracts/LiniarVesting/vesting.sol\":3274:3360  require(token.balanceOf(address(this)) >= totalTokens, InsufficientTokensOnContract()) */\n      tag_106\n      jumpi\n      mload(0x40)\n      0x5954b70c00000000000000000000000000000000000000000000000000000000\n      dup2\n      mstore\n      0x04\n      add\n      mload(0x40)\n      dup1\n      swap2\n      sub\n      swap1\n      revert\n    tag_106:\n        /* \"contracts/LiniarVesting/vesting.sol\":3383:3392  uint256 i */\n      0x00\n        /* \"contracts/LiniarVesting/vesting.sol\":3395:3396  0 */\n      0x00\n        /* \"contracts/LiniarVesting/vesting.sol\":3383:3396  uint256 i = 0 */\n      swap1\n      pop\n        /* \"contracts/LiniarVesting/vesting.sol\":3378:4242  for (uint256 i = 0; i < _beneficiaries.length; i++) {... */\n    tag_107:\n        /* \"contracts/LiniarVesting/vesting.sol\":3402:3416  _beneficiaries */\n      dup7\n        /* \"contracts/LiniarVesting/vesting.sol\":3402:3423  _beneficiaries.length */\n      mload\n        /* \"contracts/LiniarVesting/vesting.sol\":3398:3399  i */\n      dup2\n        /* \"contracts/LiniarVesting/vesting.sol\":3398:3423  i < _beneficiaries.length */\n      lt\n        /* \"contracts/LiniarVesting/vesting.sol\":3378:4242  for (uint256 i = 0; i < _beneficiaries.length; i++) {... */\n      iszero\n      tag_108\n      jumpi\n        /* \"contracts/LiniarVesting/vesting.sol\":3481:3482  0 */\n      0x00\n        /* \"contracts/LiniarVesting/vesting.sol\":3452:3483  _beneficiaries[i] != address(0) */\n      0xffffffffffffffffffffffffffffffffffffffff\n      and\n        /* \"contracts/LiniarVesting/vesting.sol\":3452:3466  _beneficiaries */\n      dup8\n        /* \"contracts/LiniarVesting/vesting.sol\":3467:3468  i */\n      dup3\n        /* \"contracts/LiniarVesting/vesting.sol\":3452:3469  _beneficiaries[i] */\n      dup2\n      mload\n      dup2\n      lt\n      tag_110\n      jumpi\n      tag_111\n      tag_98\n      jump\t// in\n    tag_111:\n    tag_110:\n      0x20\n      mul\n      0x20\n      add\n      add\n      mload\n        /* \"contracts/LiniarVesting/vesting.sol\":3452:3483  _beneficiaries[i] != address(0) */\n      0xffffffffffffffffffffffffffffffffffffffff\n      and\n      sub\n        /* \"contracts/LiniarVesting/vesting.sol\":3444:3515  require(_beneficiaries[i] != address(0), \"Invalid beneficiary address\") */\n      tag_112\n      jumpi\n      mload(0x40)\n      0x08c379a000000000000000000000000000000000000000000000000000000000\n      dup2\n      mstore\n      0x04\n      add\n      tag_113\n      swap1\n      tag_114\n      jump\t// in\n    tag_113:\n      mload(0x40)\n      dup1\n      swap2\n      sub\n      swap1\n      revert\n    tag_112:\n        /* \"contracts/LiniarVesting/vesting.sol\":3556:3557  0 */\n      0x00\n        /* \"contracts/LiniarVesting/vesting.sol\":3537:3550  _totalAmounts */\n      dup7\n        /* \"contracts/LiniarVesting/vesting.sol\":3551:3552  i */\n      dup3\n        /* \"contracts/LiniarVesting/vesting.sol\":3537:3553  _totalAmounts[i] */\n      dup2\n      mload\n      dup2\n      lt\n      tag_115\n      jumpi\n      tag_116\n      tag_98\n      jump\t// in\n    tag_116:\n    tag_115:\n      0x20\n      mul\n      0x20\n      add\n      add\n      mload\n        /* \"contracts/LiniarVesting/vesting.sol\":3537:3557  _totalAmounts[i] > 0 */\n      gt\n        /* \"contracts/LiniarVesting/vesting.sol\":3529:3582  require(_totalAmounts[i] > 0, \"Invalid total amount\") */\n      tag_117\n      jumpi\n      mload(0x40)\n      0x08c379a000000000000000000000000000000000000000000000000000000000\n      dup2\n      mstore\n      0x04\n      add\n      tag_118\n      swap1\n      tag_119\n      jump\t// in\n    tag_118:\n      mload(0x40)\n      dup1\n      swap2\n      sub\n      swap1\n      revert\n    tag_117:\n        /* \"contracts/LiniarVesting/vesting.sol\":3620:3621  0 */\n      0x00\n        /* \"contracts/LiniarVesting/vesting.sol\":3604:3614  _durations */\n      dup4\n        /* \"contracts/LiniarVesting/vesting.sol\":3615:3616  i */\n      dup3\n        /* \"contracts/LiniarVesting/vesting.sol\":3604:3617  _durations[i] */\n      dup2\n      mload\n      dup2\n      lt\n      tag_120\n      jumpi\n      tag_121\n      tag_98\n      jump\t// in\n    tag_121:\n    tag_120:\n      0x20\n      mul\n      0x20\n      add\n      add\n      mload\n        /* \"contracts/LiniarVesting/vesting.sol\":3604:3621  _durations[i] > 0 */\n      gt\n        /* \"contracts/LiniarVesting/vesting.sol\":3596:3642  require(_durations[i] > 0, \"Invalid duration\") */\n      tag_122\n      jumpi\n      mload(0x40)\n      0x08c379a000000000000000000000000000000000000000000000000000000000\n      dup2\n      mstore\n      0x04\n      add\n      tag_123\n      swap1\n      tag_124\n      jump\t// in\n    tag_123:\n      mload(0x40)\n      dup1\n      swap2\n      sub\n      swap1\n      revert\n    tag_122:\n        /* \"contracts/LiniarVesting/vesting.sol\":3682:3697  block.timestamp */\n      timestamp\n        /* \"contracts/LiniarVesting/vesting.sol\":3664:3675  _startTimes */\n      dup6\n        /* \"contracts/LiniarVesting/vesting.sol\":3676:3677  i */\n      dup3\n        /* \"contracts/LiniarVesting/vesting.sol\":3664:3678  _startTimes[i] */\n      dup2\n      mload\n      dup2\n      lt\n      tag_125\n      jumpi\n      tag_126\n      tag_98\n      jump\t// in\n    tag_126:\n    tag_125:\n      0x20\n      mul\n      0x20\n      add\n      add\n      mload\n        /* \"contracts/LiniarVesting/vesting.sol\":3664:3697  _startTimes[i] >= block.timestamp */\n      lt\n      iszero\n        /* \"contracts/LiniarVesting/vesting.sol\":3656:3730  require(_startTimes[i] >= block.timestamp, \"Start time must be in future\") */\n      tag_127\n      jumpi\n      mload(0x40)\n      0x08c379a000000000000000000000000000000000000000000000000000000000\n      dup2\n      mstore\n      0x04\n      add\n      tag_128\n      swap1\n      tag_129\n      jump\t// in\n    tag_128:\n      mload(0x40)\n      dup1\n      swap2\n      sub\n      swap1\n      revert\n    tag_127:\n        /* \"contracts/LiniarVesting/vesting.sol\":3766:3776  _durations */\n      dup3\n        /* \"contracts/LiniarVesting/vesting.sol\":3777:3778  i */\n      dup2\n        /* \"contracts/LiniarVesting/vesting.sol\":3766:3779  _durations[i] */\n      dup2\n      mload\n      dup2\n      lt\n      tag_130\n      jumpi\n      tag_131\n      tag_98\n      jump\t// in\n    tag_131:\n    tag_130:\n      0x20\n      mul\n      0x20\n      add\n      add\n      mload\n        /* \"contracts/LiniarVesting/vesting.sol\":3752:3759  _cliffs */\n      dup5\n        /* \"contracts/LiniarVesting/vesting.sol\":3760:3761  i */\n      dup3\n        /* \"contracts/LiniarVesting/vesting.sol\":3752:3762  _cliffs[i] */\n      dup2\n      mload\n      dup2\n      lt\n      tag_132\n      jumpi\n      tag_133\n      tag_98\n      jump\t// in\n    tag_133:\n    tag_132:\n      0x20\n      mul\n      0x20\n      add\n      add\n      mload\n        /* \"contracts/LiniarVesting/vesting.sol\":3752:3779  _cliffs[i] <= _durations[i] */\n      gt\n      iszero\n        /* \"contracts/LiniarVesting/vesting.sol\":3744:3806  require(_cliffs[i] <= _durations[i], \"Cliff exceeds duration\") */\n      tag_134\n      jumpi\n      mload(0x40)\n      0x08c379a000000000000000000000000000000000000000000000000000000000\n      dup2\n      mstore\n      0x04\n      add\n      tag_135\n      swap1\n      tag_136\n      jump\t// in\n    tag_135:\n      mload(0x40)\n      dup1\n      swap2\n      sub\n      swap1\n      revert\n    tag_134:\n        /* \"contracts/LiniarVesting/vesting.sol\":3856:4115  BeneficiaryInfo({... */\n      mload(0x40)\n      dup1\n      0xc0\n      add\n      0x40\n      mstore\n      dup1\n        /* \"contracts/LiniarVesting/vesting.sol\":3903:3916  _totalAmounts */\n      dup8\n        /* \"contracts/LiniarVesting/vesting.sol\":3917:3918  i */\n      dup4\n        /* \"contracts/LiniarVesting/vesting.sol\":3903:3919  _totalAmounts[i] */\n      dup2\n      mload\n      dup2\n      lt\n      tag_137\n      jumpi\n      tag_138\n      tag_98\n      jump\t// in\n    tag_138:\n    tag_137:\n      0x20\n      mul\n      0x20\n      add\n      add\n      mload\n        /* \"contracts/LiniarVesting/vesting.sol\":3856:4115  BeneficiaryInfo({... */\n      dup2\n      mstore\n      0x20\n      add\n        /* \"contracts/LiniarVesting/vesting.sol\":3948:3959  _startTimes */\n      dup7\n        /* \"contracts/LiniarVesting/vesting.sol\":3960:3961  i */\n      dup4\n        /* \"contracts/LiniarVesting/vesting.sol\":3948:3962  _startTimes[i] */\n      dup2\n      mload\n      dup2\n      lt\n      tag_139\n      jumpi\n      tag_140\n      tag_98\n      jump\t// in\n    tag_140:\n    tag_139:\n      0x20\n      mul\n      0x20\n      add\n      add\n      mload\n        /* \"contracts/LiniarVesting/vesting.sol\":3856:4115  BeneficiaryInfo({... */\n      dup2\n      mstore\n      0x20\n      add\n        /* \"contracts/LiniarVesting/vesting.sol\":3987:3994  _cliffs */\n      dup6\n        /* \"contracts/LiniarVesting/vesting.sol\":3995:3996  i */\n      dup4\n        /* \"contracts/LiniarVesting/vesting.sol\":3987:3997  _cliffs[i] */\n      dup2\n      mload\n      dup2\n      lt\n      tag_141\n      jumpi\n      tag_142\n      tag_98\n      jump\t// in\n    tag_142:\n    tag_141:\n      0x20\n      mul\n      0x20\n      add\n      add\n      mload\n        /* \"contracts/LiniarVesting/vesting.sol\":3856:4115  BeneficiaryInfo({... */\n      dup2\n      mstore\n      0x20\n      add\n        /* \"contracts/LiniarVesting/vesting.sol\":4025:4035  _durations */\n      dup5\n        /* \"contracts/LiniarVesting/vesting.sol\":4036:4037  i */\n      dup4\n        /* \"contracts/LiniarVesting/vesting.sol\":4025:4038  _durations[i] */\n      dup2\n      mload\n      dup2\n      lt\n      tag_143\n      jumpi\n      tag_144\n      tag_98\n      jump\t// in\n    tag_144:\n    tag_143:\n      0x20\n      mul\n      0x20\n      add\n      add\n      mload\n        /* \"contracts/LiniarVesting/vesting.sol\":3856:4115  BeneficiaryInfo({... */\n      dup2\n      mstore\n      0x20\n      add\n        /* \"contracts/LiniarVesting/vesting.sol\":4065:4066  0 */\n      0x00\n        /* \"contracts/LiniarVesting/vesting.sol\":3856:4115  BeneficiaryInfo({... */\n      dup2\n      mstore\n      0x20\n      add\n        /* \"contracts/LiniarVesting/vesting.sol\":4099:4100  0 */\n      0x00\n        /* \"contracts/LiniarVesting/vesting.sol\":3856:4115  BeneficiaryInfo({... */\n      dup2\n      mstore\n      pop\n        /* \"contracts/LiniarVesting/vesting.sol\":3821:3834  beneficiaries */\n      0x04\n        /* \"contracts/LiniarVesting/vesting.sol\":3821:3853  beneficiaries[_beneficiaries[i]] */\n      0x00\n        /* \"contracts/LiniarVesting/vesting.sol\":3835:3849  _beneficiaries */\n      dup10\n        /* \"contracts/LiniarVesting/vesting.sol\":3850:3851  i */\n      dup5\n        /* \"contracts/LiniarVesting/vesting.sol\":3835:3852  _beneficiaries[i] */\n      dup2\n      mload\n      dup2\n      lt\n      tag_145\n      jumpi\n      tag_146\n      tag_98\n      jump\t// in\n    tag_146:\n    tag_145:\n      0x20\n      mul\n      0x20\n      add\n      add\n      mload\n        /* \"contracts/LiniarVesting/vesting.sol\":3821:3853  beneficiaries[_beneficiaries[i]] */\n      0xffffffffffffffffffffffffffffffffffffffff\n      and\n      0xffffffffffffffffffffffffffffffffffffffff\n      and\n      dup2\n      mstore\n      0x20\n      add\n      swap1\n      dup2\n      mstore\n      0x20\n      add\n      0x00\n      keccak256\n        /* \"contracts/LiniarVesting/vesting.sol\":3821:4115  beneficiaries[_beneficiaries[i]] = BeneficiaryInfo({... */\n      0x00\n      dup3\n      add\n      mload\n      dup2\n      0x00\n      add\n      sstore\n      0x20\n      dup3\n      add\n      mload\n      dup2\n      0x01\n      add\n      sstore\n      0x40\n      dup3\n      add\n      mload\n      dup2\n      0x02\n      add\n      sstore\n      0x60\n      dup3\n      add\n      mload\n      dup2\n      0x03\n      add\n      sstore\n      0x80\n      dup3\n      add\n      mload\n      dup2\n      0x04\n      add\n      sstore\n      0xa0\n      dup3\n      add\n      mload\n      dup2\n      0x05\n      add\n      sstore\n      swap1\n      pop\n      pop\n        /* \"contracts/LiniarVesting/vesting.sol\":4152:4166  _beneficiaries */\n      dup7\n        /* \"contracts/LiniarVesting/vesting.sol\":4167:4168  i */\n      dup2\n        /* \"contracts/LiniarVesting/vesting.sol\":4152:4169  _beneficiaries[i] */\n      dup2\n      mload\n      dup2\n      lt\n      tag_147\n      jumpi\n      tag_148\n      tag_98\n      jump\t// in\n    tag_148:\n    tag_147:\n      0x20\n      mul\n      0x20\n      add\n      add\n      mload\n        /* \"contracts/LiniarVesting/vesting.sol\":4135:4231  BeneficiaryAdded(_beneficiaries[i], _totalAmounts[i], _startTimes[i], _cliffs[i], _durations[i]) */\n      0xffffffffffffffffffffffffffffffffffffffff\n      and\n      0x1f398278a6852e1859b06353dc838f7fe06b53a47b9cc30937c289c9cc3881a4\n        /* \"contracts/LiniarVesting/vesting.sol\":4171:4184  _totalAmounts */\n      dup8\n        /* \"contracts/LiniarVesting/vesting.sol\":4185:4186  i */\n      dup4\n        /* \"contracts/LiniarVesting/vesting.sol\":4171:4187  _totalAmounts[i] */\n      dup2\n      mload\n      dup2\n      lt\n      tag_149\n      jumpi\n      tag_150\n      tag_98\n      jump\t// in\n    tag_150:\n    tag_149:\n      0x20\n      mul\n      0x20\n      add\n      add\n      mload\n        /* \"contracts/LiniarVesting/vesting.sol\":4189:4200  _startTimes */\n      dup8\n        /* \"contracts/LiniarVesting/vesting.sol\":4201:4202  i */\n      dup5\n        /* \"contracts/LiniarVesting/vesting.sol\":4189:4203  _startTimes[i] */\n      dup2\n      mload\n      dup2\n      lt\n      tag_151\n      jumpi\n      tag_152\n      tag_98\n      jump\t// in\n    tag_152:\n    tag_151:\n      0x20\n      mul\n      0x20\n      add\n      add\n      mload\n        /* \"contracts/LiniarVesting/vesting.sol\":4205:4212  _cliffs */\n      dup8\n        /* \"contracts/LiniarVesting/vesting.sol\":4213:4214  i */\n      dup6\n        /* \"contracts/LiniarVesting/vesting.sol\":4205:4215  _cliffs[i] */\n      dup2\n      mload\n      dup2\n      lt\n      tag_153\n      jumpi\n      tag_154\n      tag_98\n      jump\t// in\n    tag_154:\n    tag_153:\n      0x20\n      mul\n      0x20\n      add\n      add\n      mload\n        /* \"contracts/LiniarVesting/vesting.sol\":4217:4227  _durations */\n      dup8\n        /* \"contracts/LiniarVesting/vesting.sol\":4228:4229  i */\n      dup7\n        /* \"contracts/LiniarVesting/vesting.sol\":4217:4230  _durations[i] */\n      dup2\n      mload\n      dup2\n      lt\n      tag_155\n      jumpi\n      tag_156\n      tag_98\n      jump\t// in\n    tag_156:\n    tag_155:\n      0x20\n      mul\n      0x20\n      add\n      add\n      mload\n        /* \"contracts/LiniarVesting/vesting.sol\":4135:4231  BeneficiaryAdded(_beneficiaries[i], _totalAmounts[i], _startTimes[i], _cliffs[i], _durations[i]) */\n      mload(0x40)\n      tag_157\n      swap5\n      swap4\n      swap3\n      swap2\n      swap1\n      tag_158\n      jump\t// in\n    tag_157:\n      mload(0x40)\n      dup1\n      swap2\n      sub\n      swap1\n      log2\n        /* \"contracts/LiniarVesting/vesting.sol\":3425:3428  i++ */\n      dup1\n      dup1\n      0x01\n      add\n      swap2\n      pop\n      pop\n        /* \"contracts/LiniarVesting/vesting.sol\":3378:4242  for (uint256 i = 0; i < _beneficiaries.length; i++) {... */\n      jump(tag_107)\n    tag_108:\n      pop\n        /* \"contracts/LiniarVesting/vesting.sol\":4269:4273  true */\n      0x01\n        /* \"contracts/LiniarVesting/vesting.sol\":4252:4266  vestingStarted */\n      dup1\n      0x15\n        /* \"contracts/LiniarVesting/vesting.sol\":4252:4273  vestingStarted = true */\n      0x0100\n      exp\n      dup2\n      sload\n      dup2\n      0xff\n      mul\n      not\n      and\n      swap1\n      dup4\n      iszero\n      iszero\n      mul\n      or\n      swap1\n      sstore\n      pop\n        /* \"contracts/LiniarVesting/vesting.sol\":4288:4331  VestingStarted(_beneficiaries, totalTokens) */\n      0x746cdb702729916e6f99ea1897ae19bdb8d0de9b9e9cc2fb4234b19e5bf0d78a\n        /* \"contracts/LiniarVesting/vesting.sol\":4303:4317  _beneficiaries */\n      dup7\n        /* \"contracts/LiniarVesting/vesting.sol\":4319:4330  totalTokens */\n      dup3\n        /* \"contracts/LiniarVesting/vesting.sol\":4288:4331  VestingStarted(_beneficiaries, totalTokens) */\n      mload(0x40)\n      tag_159\n      swap3\n      swap2\n      swap1\n      tag_160\n      jump\t// in\n    tag_159:\n      mload(0x40)\n      dup1\n      swap2\n      sub\n      swap1\n      log1\n        /* \"contracts/LiniarVesting/vesting.sol\":2452:4338  {... */\n      pop\n      pop\n      pop\n      pop\n      pop\n      pop\n        /* \"contracts/LiniarVesting/vesting.sol\":2366:4338  function startVesting(bytes memory _vestingData) external onlyOwner vestingNotStarted {... */\n      pop\n      jump\t// out\n        /* \"contracts/LiniarVesting/vesting.sol\":652:708  mapping(address => BeneficiaryInfo) public beneficiaries */\n    tag_27:\n      mstore(0x20, 0x04)\n      dup1\n      0x00\n      mstore\n      keccak256(0x00, 0x40)\n      0x00\n      swap2\n      pop\n      swap1\n      pop\n      dup1\n      0x00\n      add\n      sload\n      swap1\n      dup1\n      0x01\n      add\n      sload\n      swap1\n      dup1\n      0x02\n      add\n      sload\n      swap1\n      dup1\n      0x03\n      add\n      sload\n      swap1\n      dup1\n      0x04\n      add\n      sload\n      swap1\n      dup1\n      0x05\n      add\n      sload\n      swap1\n      pop\n      dup7\n      jump\t// out\n        /* \"contracts/LiniarVesting/vesting.sol\":6485:6841  function getVestingData(... */\n    tag_33:\n        /* \"contracts/LiniarVesting/vesting.sol\":6728:6740  bytes memory */\n      0x60\n        /* \"contracts/LiniarVesting/vesting.sol\":6770:6784  _beneficiaries */\n      dup6\n        /* \"contracts/LiniarVesting/vesting.sol\":6786:6799  _totalAmounts */\n      dup6\n        /* \"contracts/LiniarVesting/vesting.sol\":6801:6812  _startTimes */\n      dup6\n        /* \"contracts/LiniarVesting/vesting.sol\":6814:6821  _cliffs */\n      dup6\n        /* \"contracts/LiniarVesting/vesting.sol\":6823:6833  _durations */\n      dup6\n        /* \"contracts/LiniarVesting/vesting.sol\":6759:6834  abi.encode(_beneficiaries, _totalAmounts, _startTimes, _cliffs, _durations) */\n      add(0x20, mload(0x40))\n      tag_162\n      swap6\n      swap5\n      swap4\n      swap3\n      swap2\n      swap1\n      tag_163\n      jump\t// in\n    tag_162:\n      mload(0x40)\n      0x20\n      dup2\n      dup4\n      sub\n      sub\n      dup2\n      mstore\n      swap1\n      0x40\n      mstore\n        /* \"contracts/LiniarVesting/vesting.sol\":6752:6834  return abi.encode(_beneficiaries, _totalAmounts, _startTimes, _cliffs, _durations) */\n      swap1\n      pop\n        /* \"contracts/LiniarVesting/vesting.sol\":6485:6841  function getVestingData(... */\n      swap6\n      swap5\n      pop\n      pop\n      pop\n      pop\n      pop\n      jump\t// out\n        /* \"contracts/LiniarVesting/vesting.sol\":1817:2359  function initialize(bytes memory _initData) external notInitialized returns (bool) {... */\n    tag_38:\n        /* \"contracts/LiniarVesting/vesting.sol\":1894:1898  bool */\n      0x00\n        /* \"contracts/LiniarVesting/vesting.sol\":1646:1657  initialized */\n      0x01\n      0x14\n      swap1\n      sload\n      swap1\n      0x0100\n      exp\n      swap1\n      div\n      0xff\n      and\n        /* \"contracts/LiniarVesting/vesting.sol\":1645:1657  !initialized */\n      iszero\n        /* \"contracts/LiniarVesting/vesting.sol\":1637:1680  require(!initialized, AlreadyInitialized()) */\n      tag_165\n      jumpi\n      mload(0x40)\n      0x0dc149f000000000000000000000000000000000000000000000000000000000\n      dup2\n      mstore\n      0x04\n      add\n      mload(0x40)\n      dup1\n      swap2\n      sub\n      swap1\n      revert\n    tag_165:\n        /* \"contracts/LiniarVesting/vesting.sol\":1911:1925  address _token */\n      0x00\n        /* \"contracts/LiniarVesting/vesting.sol\":1927:1944  uint256 _cooldown */\n      0x00\n        /* \"contracts/LiniarVesting/vesting.sol\":1946:1969  uint256 _minClaimAmount */\n      0x00\n        /* \"contracts/LiniarVesting/vesting.sol\":1984:1993  _initData */\n      dup5\n        /* \"contracts/LiniarVesting/vesting.sol\":1973:2023  abi.decode(_initData, (address, uint256, uint256)) */\n      dup1\n      0x20\n      add\n      swap1\n      mload\n      dup2\n      add\n      swap1\n      tag_167\n      swap2\n      swap1\n      tag_168\n      jump\t// in\n    tag_167:\n        /* \"contracts/LiniarVesting/vesting.sol\":1910:2023  (address _token, uint256 _cooldown, uint256 _minClaimAmount) = abi.decode(_initData, (address, uint256, uint256)) */\n      swap3\n      pop\n      swap3\n      pop\n      swap3\n      pop\n        /* \"contracts/LiniarVesting/vesting.sol\":2060:2061  0 */\n      0x00\n        /* \"contracts/LiniarVesting/vesting.sol\":2042:2062  _token != address(0) */\n      0xffffffffffffffffffffffffffffffffffffffff\n      and\n        /* \"contracts/LiniarVesting/vesting.sol\":2042:2048  _token */\n      dup4\n        /* \"contracts/LiniarVesting/vesting.sol\":2042:2062  _token != address(0) */\n      0xffffffffffffffffffffffffffffffffffffffff\n      and\n      sub\n        /* \"contracts/LiniarVesting/vesting.sol\":2034:2088  require(_token != address(0), \"Invalid token address\") */\n      tag_169\n      jumpi\n      mload(0x40)\n      0x08c379a000000000000000000000000000000000000000000000000000000000\n      dup2\n      mstore\n      0x04\n      add\n      tag_170\n      swap1\n      tag_171\n      jump\t// in\n    tag_170:\n      mload(0x40)\n      dup1\n      swap2\n      sub\n      swap1\n      revert\n    tag_169:\n        /* \"contracts/LiniarVesting/vesting.sol\":2114:2120  _token */\n      dup3\n        /* \"contracts/LiniarVesting/vesting.sol\":2099:2104  token */\n      0x01\n      0x00\n        /* \"contracts/LiniarVesting/vesting.sol\":2099:2121  token = IERC20(_token) */\n      0x0100\n      exp\n      dup2\n      sload\n      dup2\n      0xffffffffffffffffffffffffffffffffffffffff\n      mul\n      not\n      and\n      swap1\n      dup4\n      0xffffffffffffffffffffffffffffffffffffffff\n      and\n      mul\n      or\n      swap1\n      sstore\n      pop\n        /* \"contracts/LiniarVesting/vesting.sol\":2147:2156  _cooldown */\n      dup2\n        /* \"contracts/LiniarVesting/vesting.sol\":2131:2144  claimCooldown */\n      0x02\n        /* \"contracts/LiniarVesting/vesting.sol\":2131:2156  claimCooldown = _cooldown */\n      dup2\n      swap1\n      sstore\n      pop\n        /* \"contracts/LiniarVesting/vesting.sol\":2183:2198  _minClaimAmount */\n      dup1\n        /* \"contracts/LiniarVesting/vesting.sol\":2166:2180  minClaimAmount */\n      0x03\n        /* \"contracts/LiniarVesting/vesting.sol\":2166:2198  minClaimAmount = _minClaimAmount */\n      dup2\n      swap1\n      sstore\n      pop\n        /* \"contracts/LiniarVesting/vesting.sol\":2223:2227  true */\n      0x01\n        /* \"contracts/LiniarVesting/vesting.sol\":2209:2220  initialized */\n      dup1\n      0x14\n        /* \"contracts/LiniarVesting/vesting.sol\":2209:2227  initialized = true */\n      0x0100\n      exp\n      dup2\n      sload\n      dup2\n      0xff\n      mul\n      not\n      and\n      swap1\n      dup4\n      iszero\n      iszero\n      mul\n      or\n      swap1\n      sstore\n      pop\n        /* \"contracts/LiniarVesting/vesting.sol\":2254:2260  _token */\n      dup3\n        /* \"contracts/LiniarVesting/vesting.sol\":2242:2289  Initialized(_token, _cooldown, _minClaimAmount) */\n      0xffffffffffffffffffffffffffffffffffffffff\n      and\n      0x0f91882b50d9330af0b1d4998e6af7f2eaee90ce7e77ea54fea089af166d021d\n        /* \"contracts/LiniarVesting/vesting.sol\":2262:2271  _cooldown */\n      dup4\n        /* \"contracts/LiniarVesting/vesting.sol\":2273:2288  _minClaimAmount */\n      dup4\n        /* \"contracts/LiniarVesting/vesting.sol\":2242:2289  Initialized(_token, _cooldown, _minClaimAmount) */\n      mload(0x40)\n      tag_172\n      swap3\n      swap2\n      swap1\n      tag_173\n      jump\t// in\n    tag_172:\n      mload(0x40)\n      dup1\n      swap2\n      sub\n      swap1\n      log2\n        /* \"contracts/LiniarVesting/vesting.sol\":2300:2330  _transferOwnership(msg.sender) */\n      tag_174\n        /* \"contracts/LiniarVesting/vesting.sol\":2319:2329  msg.sender */\n      caller\n        /* \"contracts/LiniarVesting/vesting.sol\":2300:2318  _transferOwnership */\n      tag_175\n        /* \"contracts/LiniarVesting/vesting.sol\":2300:2330  _transferOwnership(msg.sender) */\n      jump\t// in\n    tag_174:\n        /* \"contracts/LiniarVesting/vesting.sol\":2348:2352  true */\n      0x01\n        /* \"contracts/LiniarVesting/vesting.sol\":2341:2352  return true */\n      swap4\n      pop\n      pop\n      pop\n      pop\n        /* \"contracts/LiniarVesting/vesting.sol\":1817:2359  function initialize(bytes memory _initData) external notInitialized returns (bool) {... */\n      swap2\n      swap1\n      pop\n      jump\t// out\n        /* \"contracts/LiniarVesting/vesting.sol\":4344:5222  function claim() public {... */\n    tag_42:\n        /* \"contracts/LiniarVesting/vesting.sol\":4386:4400  vestingStarted */\n      0x01\n      0x15\n      swap1\n      sload\n      swap1\n      0x0100\n      exp\n      swap1\n      div\n      0xff\n      and\n        /* \"contracts/LiniarVesting/vesting.sol\":4378:4422  require(vestingStarted, VestingNotStarted()) */\n      tag_177\n      jumpi\n      mload(0x40)\n      0x35549be800000000000000000000000000000000000000000000000000000000\n      dup2\n      mstore\n      0x04\n      add\n      mload(0x40)\n      dup1\n      swap2\n      sub\n      swap1\n      revert\n    tag_177:\n        /* \"contracts/LiniarVesting/vesting.sol\":4432:4460  BeneficiaryInfo storage info */\n      0x00\n        /* \"contracts/LiniarVesting/vesting.sol\":4463:4476  beneficiaries */\n      0x04\n        /* \"contracts/LiniarVesting/vesting.sol\":4463:4488  beneficiaries[msg.sender] */\n      0x00\n        /* \"contracts/LiniarVesting/vesting.sol\":4477:4487  msg.sender */\n      caller\n        /* \"contracts/LiniarVesting/vesting.sol\":4463:4488  beneficiaries[msg.sender] */\n      0xffffffffffffffffffffffffffffffffffffffff\n      and\n      0xffffffffffffffffffffffffffffffffffffffff\n      and\n      dup2\n      mstore\n      0x20\n      add\n      swap1\n      dup2\n      mstore\n      0x20\n      add\n      0x00\n      keccak256\n        /* \"contracts/LiniarVesting/vesting.sol\":4432:4488  BeneficiaryInfo storage info = beneficiaries[msg.sender] */\n      swap1\n      pop\n        /* \"contracts/LiniarVesting/vesting.sol\":4525:4526  0 */\n      0x00\n        /* \"contracts/LiniarVesting/vesting.sol\":4506:4510  info */\n      dup2\n        /* \"contracts/LiniarVesting/vesting.sol\":4506:4522  info.totalAmount */\n      0x00\n      add\n      sload\n        /* \"contracts/LiniarVesting/vesting.sol\":4506:4526  info.totalAmount > 0 */\n      gt\n        /* \"contracts/LiniarVesting/vesting.sol\":4498:4554  require(info.totalAmount > 0, ClaimerIsNotBeneficiary()) */\n      tag_178\n      jumpi\n      mload(0x40)\n      0x361b195400000000000000000000000000000000000000000000000000000000\n      dup2\n      mstore\n      0x04\n      add\n      mload(0x40)\n      dup1\n      swap2\n      sub\n      swap1\n      revert\n    tag_178:\n        /* \"contracts/LiniarVesting/vesting.sol\":4607:4611  info */\n      dup1\n        /* \"contracts/LiniarVesting/vesting.sol\":4607:4617  info.cliff */\n      0x02\n      add\n      sload\n        /* \"contracts/LiniarVesting/vesting.sol\":4590:4594  info */\n      dup2\n        /* \"contracts/LiniarVesting/vesting.sol\":4590:4604  info.startTime */\n      0x01\n      add\n      sload\n        /* \"contracts/LiniarVesting/vesting.sol\":4590:4617  info.startTime + info.cliff */\n      tag_179\n      swap2\n      swap1\n      tag_100\n      jump\t// in\n    tag_179:\n        /* \"contracts/LiniarVesting/vesting.sol\":4572:4587  block.timestamp */\n      timestamp\n        /* \"contracts/LiniarVesting/vesting.sol\":4572:4617  block.timestamp > info.startTime + info.cliff */\n      gt\n        /* \"contracts/LiniarVesting/vesting.sol\":4564:4637  require(block.timestamp > info.startTime + info.cliff, CliffNotReached()) */\n      tag_180\n      jumpi\n      mload(0x40)\n      0x392a328700000000000000000000000000000000000000000000000000000000\n      dup2\n      mstore\n      0x04\n      add\n      mload(0x40)\n      dup1\n      swap2\n      sub\n      swap1\n      revert\n    tag_180:\n        /* \"contracts/LiniarVesting/vesting.sol\":4695:4708  claimCooldown */\n      sload(0x02)\n        /* \"contracts/LiniarVesting/vesting.sol\":4674:4678  info */\n      dup2\n        /* \"contracts/LiniarVesting/vesting.sol\":4674:4692  info.lastClaimTime */\n      0x05\n      add\n      sload\n        /* \"contracts/LiniarVesting/vesting.sol\":4674:4708  info.lastClaimTime + claimCooldown */\n      tag_181\n      swap2\n      swap1\n      tag_100\n      jump\t// in\n    tag_181:\n        /* \"contracts/LiniarVesting/vesting.sol\":4655:4670  block.timestamp */\n      timestamp\n        /* \"contracts/LiniarVesting/vesting.sol\":4655:4708  block.timestamp >= info.lastClaimTime + claimCooldown */\n      lt\n      iszero\n        /* \"contracts/LiniarVesting/vesting.sol\":4647:4730  require(block.timestamp >= info.lastClaimTime + claimCooldown, CooldownNotPassed()) */\n      tag_182\n      jumpi\n      mload(0x40)\n      0x9e49499400000000000000000000000000000000000000000000000000000000\n      dup2\n      mstore\n      0x04\n      add\n      mload(0x40)\n      dup1\n      swap2\n      sub\n      swap1\n      revert\n    tag_182:\n        /* \"contracts/LiniarVesting/vesting.sol\":4741:4758  uint256 claimable */\n      0x00\n        /* \"contracts/LiniarVesting/vesting.sol\":4761:4788  claimableAmount(msg.sender) */\n      tag_183\n        /* \"contracts/LiniarVesting/vesting.sol\":4777:4787  msg.sender */\n      caller\n        /* \"contracts/LiniarVesting/vesting.sol\":4761:4776  claimableAmount */\n      tag_47\n        /* \"contracts/LiniarVesting/vesting.sol\":4761:4788  claimableAmount(msg.sender) */\n      jump\t// in\n    tag_183:\n        /* \"contracts/LiniarVesting/vesting.sol\":4741:4788  uint256 claimable = claimableAmount(msg.sender) */\n      swap1\n      pop\n        /* \"contracts/LiniarVesting/vesting.sol\":4819:4833  minClaimAmount */\n      sload(0x03)\n        /* \"contracts/LiniarVesting/vesting.sol\":4806:4815  claimable */\n      dup2\n        /* \"contracts/LiniarVesting/vesting.sol\":4806:4833  claimable >= minClaimAmount */\n      lt\n      iszero\n        /* \"contracts/LiniarVesting/vesting.sol\":4798:4857  require(claimable >= minClaimAmount, BelowMinClaimAmount()) */\n      tag_184\n      jumpi\n      mload(0x40)\n      0x95e4b14c00000000000000000000000000000000000000000000000000000000\n      dup2\n      mstore\n      0x04\n      add\n      mload(0x40)\n      dup1\n      swap2\n      sub\n      swap1\n      revert\n    tag_184:\n        /* \"contracts/LiniarVesting/vesting.sol\":4887:4888  0 */\n      0x00\n        /* \"contracts/LiniarVesting/vesting.sol\":4875:4884  claimable */\n      dup2\n        /* \"contracts/LiniarVesting/vesting.sol\":4875:4888  claimable > 0 */\n      gt\n        /* \"contracts/LiniarVesting/vesting.sol\":4867:4907  require(claimable > 0, NothingToClaim()) */\n      tag_185\n      jumpi\n      mload(0x40)\n      0x969bf72800000000000000000000000000000000000000000000000000000000\n      dup2\n      mstore\n      0x04\n      add\n      mload(0x40)\n      dup1\n      swap2\n      sub\n      swap1\n      revert\n    tag_185:\n        /* \"contracts/LiniarVesting/vesting.sol\":4959:4968  claimable */\n      dup1\n        /* \"contracts/LiniarVesting/vesting.sol\":4925:4930  token */\n      0x01\n      0x00\n      swap1\n      sload\n      swap1\n      0x0100\n      exp\n      swap1\n      div\n      0xffffffffffffffffffffffffffffffffffffffff\n      and\n        /* \"contracts/LiniarVesting/vesting.sol\":4925:4940  token.balanceOf */\n      0xffffffffffffffffffffffffffffffffffffffff\n      and\n      0x70a08231\n        /* \"contracts/LiniarVesting/vesting.sol\":4949:4953  this */\n      address\n        /* \"contracts/LiniarVesting/vesting.sol\":4925:4955  token.balanceOf(address(this)) */\n      mload(0x40)\n      dup3\n      0xffffffff\n      and\n      0xe0\n      shl\n      dup2\n      mstore\n      0x04\n      add\n      tag_186\n      swap2\n      swap1\n      tag_53\n      jump\t// in\n    tag_186:\n      0x20\n      mload(0x40)\n      dup1\n      dup4\n      sub\n      dup2\n      dup7\n      gas\n      staticcall\n      iszero\n      dup1\n      iszero\n      tag_188\n      jumpi\n      returndatacopy(0x00, 0x00, returndatasize)\n      revert(0x00, returndatasize)\n    tag_188:\n      pop\n      pop\n      pop\n      pop\n      mload(0x40)\n      returndatasize\n      not(0x1f)\n      0x1f\n      dup3\n      add\n      and\n      dup3\n      add\n      dup1\n      0x40\n      mstore\n      pop\n      dup2\n      add\n      swap1\n      tag_189\n      swap2\n      swap1\n      tag_105\n      jump\t// in\n    tag_189:\n        /* \"contracts/LiniarVesting/vesting.sol\":4925:4968  token.balanceOf(address(this)) >= claimable */\n      lt\n      iszero\n        /* \"contracts/LiniarVesting/vesting.sol\":4917:4997  require(token.balanceOf(address(this)) >= claimable, InsufficientTokenBalance()) */\n      tag_190\n      jumpi\n      mload(0x40)\n      0xe4455cae00000000000000000000000000000000000000000000000000000000\n      dup2\n      mstore\n      0x04\n      add\n      mload(0x40)\n      dup1\n      swap2\n      sub\n      swap1\n      revert\n    tag_190:\n        /* \"contracts/LiniarVesting/vesting.sol\":5024:5033  claimable */\n      dup1\n        /* \"contracts/LiniarVesting/vesting.sol\":5008:5012  info */\n      dup3\n        /* \"contracts/LiniarVesting/vesting.sol\":5008:5020  info.claimed */\n      0x04\n      add\n      0x00\n        /* \"contracts/LiniarVesting/vesting.sol\":5008:5033  info.claimed += claimable */\n      dup3\n      dup3\n      sload\n      tag_191\n      swap2\n      swap1\n      tag_100\n      jump\t// in\n    tag_191:\n      swap3\n      pop\n      pop\n      dup2\n      swap1\n      sstore\n      pop\n        /* \"contracts/LiniarVesting/vesting.sol\":5064:5079  block.timestamp */\n      timestamp\n        /* \"contracts/LiniarVesting/vesting.sol\":5043:5047  info */\n      dup3\n        /* \"contracts/LiniarVesting/vesting.sol\":5043:5061  info.lastClaimTime */\n      0x05\n      add\n        /* \"contracts/LiniarVesting/vesting.sol\":5043:5079  info.lastClaimTime = block.timestamp */\n      dup2\n      swap1\n      sstore\n      pop\n        /* \"contracts/LiniarVesting/vesting.sol\":5098:5103  token */\n      0x01\n      0x00\n      swap1\n      sload\n      swap1\n      0x0100\n      exp\n      swap1\n      div\n      0xffffffffffffffffffffffffffffffffffffffff\n      and\n        /* \"contracts/LiniarVesting/vesting.sol\":5098:5112  token.transfer */\n      0xffffffffffffffffffffffffffffffffffffffff\n      and\n      0xa9059cbb\n        /* \"contracts/LiniarVesting/vesting.sol\":5113:5123  msg.sender */\n      caller\n        /* \"contracts/LiniarVesting/vesting.sol\":5125:5134  claimable */\n      dup4\n        /* \"contracts/LiniarVesting/vesting.sol\":5098:5135  token.transfer(msg.sender, claimable) */\n      mload(0x40)\n      dup4\n      0xffffffff\n      and\n      0xe0\n      shl\n      dup2\n      mstore\n      0x04\n      add\n      tag_192\n      swap3\n      swap2\n      swap1\n      tag_193\n      jump\t// in\n    tag_192:\n      0x20\n      mload(0x40)\n      dup1\n      dup4\n      sub\n      dup2\n      0x00\n      dup8\n      gas\n      call\n      iszero\n      dup1\n      iszero\n      tag_195\n      jumpi\n      returndatacopy(0x00, 0x00, returndatasize)\n      revert(0x00, returndatasize)\n    tag_195:\n      pop\n      pop\n      pop\n      pop\n      mload(0x40)\n      returndatasize\n      not(0x1f)\n      0x1f\n      dup3\n      add\n      and\n      dup3\n      add\n      dup1\n      0x40\n      mstore\n      pop\n      dup2\n      add\n      swap1\n      tag_196\n      swap2\n      swap1\n      tag_197\n      jump\t// in\n    tag_196:\n        /* \"contracts/LiniarVesting/vesting.sol\":5090:5154  require(token.transfer(msg.sender, claimable), TransferFailed()) */\n      tag_198\n      jumpi\n      mload(0x40)\n      0x90b8ec1800000000000000000000000000000000000000000000000000000000\n      dup2\n      mstore\n      0x04\n      add\n      mload(0x40)\n      dup1\n      swap2\n      sub\n      swap1\n      revert\n    tag_198:\n        /* \"contracts/LiniarVesting/vesting.sol\":5176:5186  msg.sender */\n      caller\n        /* \"contracts/LiniarVesting/vesting.sol\":5170:5215  Claim(msg.sender, claimable, block.timestamp) */\n      0xffffffffffffffffffffffffffffffffffffffff\n      and\n      0x34fcbac0073d7c3d388e51312faf357774904998eeb8fca628b9e6f65ee1cbf7\n        /* \"contracts/LiniarVesting/vesting.sol\":5188:5197  claimable */\n      dup3\n        /* \"contracts/LiniarVesting/vesting.sol\":5199:5214  block.timestamp */\n      timestamp\n        /* \"contracts/LiniarVesting/vesting.sol\":5170:5215  Claim(msg.sender, claimable, block.timestamp) */\n      mload(0x40)\n      tag_199\n      swap3\n      swap2\n      swap1\n      tag_173\n      jump\t// in\n    tag_199:\n      mload(0x40)\n      dup1\n      swap2\n      sub\n      swap1\n      log2\n        /* \"contracts/LiniarVesting/vesting.sol\":4368:5222  {... */\n      pop\n      pop\n        /* \"contracts/LiniarVesting/vesting.sol\":4344:5222  function claim() public {... */\n      jump\t// out\n        /* \"@openzeppelin/contracts/access/Ownable.sol\":2293:2394  function renounceOwnership() public virtual onlyOwner {... */\n    tag_44:\n        /* \"@openzeppelin/contracts/access/Ownable.sol\":1531:1544  _checkOwner() */\n      tag_201\n        /* \"@openzeppelin/contracts/access/Ownable.sol\":1531:1542  _checkOwner */\n      tag_78\n        /* \"@openzeppelin/contracts/access/Ownable.sol\":1531:1544  _checkOwner() */\n      jump\t// in\n    tag_201:\n        /* \"@openzeppelin/contracts/access/Ownable.sol\":2357:2387  _transferOwnership(address(0)) */\n      tag_203\n        /* \"@openzeppelin/contracts/access/Ownable.sol\":2384:2385  0 */\n      0x00\n        /* \"@openzeppelin/contracts/access/Ownable.sol\":2357:2375  _transferOwnership */\n      tag_175\n        /* \"@openzeppelin/contracts/access/Ownable.sol\":2357:2387  _transferOwnership(address(0)) */\n      jump\t// in\n    tag_203:\n        /* \"@openzeppelin/contracts/access/Ownable.sol\":2293:2394  function renounceOwnership() public virtual onlyOwner {... */\n      jump\t// out\n        /* \"contracts/LiniarVesting/vesting.sol\":5687:5991  function claimableAmount(address _beneficiary) public view returns (uint256) {... */\n    tag_47:\n        /* \"contracts/LiniarVesting/vesting.sol\":5755:5762  uint256 */\n      0x00\n        /* \"contracts/LiniarVesting/vesting.sol\":5774:5801  BeneficiaryInfo memory info */\n      0x00\n        /* \"contracts/LiniarVesting/vesting.sol\":5804:5817  beneficiaries */\n      0x04\n        /* \"contracts/LiniarVesting/vesting.sol\":5804:5831  beneficiaries[_beneficiary] */\n      0x00\n        /* \"contracts/LiniarVesting/vesting.sol\":5818:5830  _beneficiary */\n      dup5\n        /* \"contracts/LiniarVesting/vesting.sol\":5804:5831  beneficiaries[_beneficiary] */\n      0xffffffffffffffffffffffffffffffffffffffff\n      and\n      0xffffffffffffffffffffffffffffffffffffffff\n      and\n      dup2\n      mstore\n      0x20\n      add\n      swap1\n      dup2\n      mstore\n      0x20\n      add\n      0x00\n      keccak256\n        /* \"contracts/LiniarVesting/vesting.sol\":5774:5831  BeneficiaryInfo memory info = beneficiaries[_beneficiary] */\n      mload(0x40)\n      dup1\n      0xc0\n      add\n      0x40\n      mstore\n      swap1\n      dup2\n      0x00\n      dup3\n      add\n      sload\n      dup2\n      mstore\n      0x20\n      add\n      0x01\n      dup3\n      add\n      sload\n      dup2\n      mstore\n      0x20\n      add\n      0x02\n      dup3\n      add\n      sload\n      dup2\n      mstore\n      0x20\n      add\n      0x03\n      dup3\n      add\n      sload\n      dup2\n      mstore\n      0x20\n      add\n      0x04\n      dup3\n      add\n      sload\n      dup2\n      mstore\n      0x20\n      add\n      0x05\n      dup3\n      add\n      sload\n      dup2\n      mstore\n      pop\n      pop\n      swap1\n      pop\n        /* \"contracts/LiniarVesting/vesting.sol\":5865:5866  0 */\n      0x00\n        /* \"contracts/LiniarVesting/vesting.sol\":5845:5849  info */\n      dup2\n        /* \"contracts/LiniarVesting/vesting.sol\":5845:5861  info.totalAmount */\n      0x00\n      add\n      mload\n        /* \"contracts/LiniarVesting/vesting.sol\":5845:5866  info.totalAmount == 0 */\n      eq\n        /* \"contracts/LiniarVesting/vesting.sol\":5845:5915  info.totalAmount == 0 || block.timestamp < info.startTime + info.cliff */\n      dup1\n      tag_205\n      jumpi\n      pop\n        /* \"contracts/LiniarVesting/vesting.sol\":5905:5909  info */\n      dup1\n        /* \"contracts/LiniarVesting/vesting.sol\":5905:5915  info.cliff */\n      0x40\n      add\n      mload\n        /* \"contracts/LiniarVesting/vesting.sol\":5888:5892  info */\n      dup2\n        /* \"contracts/LiniarVesting/vesting.sol\":5888:5902  info.startTime */\n      0x20\n      add\n      mload\n        /* \"contracts/LiniarVesting/vesting.sol\":5888:5915  info.startTime + info.cliff */\n      tag_206\n      swap2\n      swap1\n      tag_100\n      jump\t// in\n    tag_206:\n        /* \"contracts/LiniarVesting/vesting.sol\":5870:5885  block.timestamp */\n      timestamp\n        /* \"contracts/LiniarVesting/vesting.sol\":5870:5915  block.timestamp < info.startTime + info.cliff */\n      lt\n        /* \"contracts/LiniarVesting/vesting.sol\":5845:5915  info.totalAmount == 0 || block.timestamp < info.startTime + info.cliff */\n    tag_205:\n        /* \"contracts/LiniarVesting/vesting.sol\":5841:5925  if (info.totalAmount == 0 || block.timestamp < info.startTime + info.cliff) return 0 */\n      iszero\n      tag_207\n      jumpi\n        /* \"contracts/LiniarVesting/vesting.sol\":5924:5925  0 */\n      0x00\n        /* \"contracts/LiniarVesting/vesting.sol\":5917:5925  return 0 */\n      swap2\n      pop\n      pop\n      jump(tag_204)\n        /* \"contracts/LiniarVesting/vesting.sol\":5841:5925  if (info.totalAmount == 0 || block.timestamp < info.startTime + info.cliff) return 0 */\n    tag_207:\n        /* \"contracts/LiniarVesting/vesting.sol\":5972:5976  info */\n      dup1\n        /* \"contracts/LiniarVesting/vesting.sol\":5972:5984  info.claimed */\n      0x80\n      add\n      mload\n        /* \"contracts/LiniarVesting/vesting.sol\":5943:5969  vestedAmount(_beneficiary) */\n      tag_208\n        /* \"contracts/LiniarVesting/vesting.sol\":5956:5968  _beneficiary */\n      dup5\n        /* \"contracts/LiniarVesting/vesting.sol\":5943:5955  vestedAmount */\n      tag_209\n        /* \"contracts/LiniarVesting/vesting.sol\":5943:5969  vestedAmount(_beneficiary) */\n      jump\t// in\n    tag_208:\n        /* \"contracts/LiniarVesting/vesting.sol\":5943:5984  vestedAmount(_beneficiary) - info.claimed */\n      tag_210\n      swap2\n      swap1\n      tag_211\n      jump\t// in\n    tag_210:\n        /* \"contracts/LiniarVesting/vesting.sol\":5936:5984  return vestedAmount(_beneficiary) - info.claimed */\n      swap2\n      pop\n      pop\n        /* \"contracts/LiniarVesting/vesting.sol\":5687:5991  function claimableAmount(address _beneficiary) public view returns (uint256) {... */\n    tag_204:\n      swap2\n      swap1\n      pop\n      jump\t// out\n        /* \"@openzeppelin/contracts/access/Ownable.sol\":1638:1723  function owner() public view virtual returns (address) {... */\n    tag_51:\n        /* \"@openzeppelin/contracts/access/Ownable.sol\":1684:1691  address */\n      0x00\n        /* \"@openzeppelin/contracts/access/Ownable.sol\":1710:1716  _owner */\n      0x00\n      0x00\n      swap1\n      sload\n      swap1\n      0x0100\n      exp\n      swap1\n      div\n      0xffffffffffffffffffffffffffffffffffffffff\n      and\n        /* \"@openzeppelin/contracts/access/Ownable.sol\":1703:1716  return _owner */\n      swap1\n      pop\n        /* \"@openzeppelin/contracts/access/Ownable.sol\":1638:1723  function owner() public view virtual returns (address) {... */\n      swap1\n      jump\t// out\n        /* \"contracts/LiniarVesting/vesting.sol\":6261:6479  function getInitData(... */\n    tag_57:\n        /* \"contracts/LiniarVesting/vesting.sol\":6395:6407  bytes memory */\n      0x60\n        /* \"contracts/LiniarVesting/vesting.sol\":6437:6443  _token */\n      dup4\n        /* \"contracts/LiniarVesting/vesting.sol\":6445:6454  _cooldown */\n      dup4\n        /* \"contracts/LiniarVesting/vesting.sol\":6456:6471  _minClaimAmount */\n      dup4\n        /* \"contracts/LiniarVesting/vesting.sol\":6426:6472  abi.encode(_token, _cooldown, _minClaimAmount) */\n      add(0x20, mload(0x40))\n      tag_214\n      swap4\n      swap3\n      swap2\n      swap1\n      tag_215\n      jump\t// in\n    tag_214:\n      mload(0x40)\n      0x20\n      dup2\n      dup4\n      sub\n      sub\n      dup2\n      mstore\n      swap1\n      0x40\n      mstore\n        /* \"contracts/LiniarVesting/vesting.sol\":6419:6472  return abi.encode(_token, _cooldown, _minClaimAmount) */\n      swap1\n      pop\n        /* \"contracts/LiniarVesting/vesting.sol\":6261:6479  function getInitData(... */\n      swap4\n      swap3\n      pop\n      pop\n      pop\n      jump\t// out\n        /* \"contracts/LiniarVesting/vesting.sol\":5997:6255  function setClaimParameters(uint256 _newCooldown, uint256 _newMinClaimAmount) external onlyOwner {... */\n    tag_62:\n        /* \"@openzeppelin/contracts/access/Ownable.sol\":1531:1544  _checkOwner() */\n      tag_217\n        /* \"@openzeppelin/contracts/access/Ownable.sol\":1531:1542  _checkOwner */\n      tag_78\n        /* \"@openzeppelin/contracts/access/Ownable.sol\":1531:1544  _checkOwner() */\n      jump\t// in\n    tag_217:\n        /* \"contracts/LiniarVesting/vesting.sol\":6120:6132  _newCooldown */\n      dup2\n        /* \"contracts/LiniarVesting/vesting.sol\":6104:6117  claimCooldown */\n      0x02\n        /* \"contracts/LiniarVesting/vesting.sol\":6104:6132  claimCooldown = _newCooldown */\n      dup2\n      swap1\n      sstore\n      pop\n        /* \"contracts/LiniarVesting/vesting.sol\":6159:6177  _newMinClaimAmount */\n      dup1\n        /* \"contracts/LiniarVesting/vesting.sol\":6142:6156  minClaimAmount */\n      0x03\n        /* \"contracts/LiniarVesting/vesting.sol\":6142:6177  minClaimAmount = _newMinClaimAmount */\n      dup2\n      swap1\n      sstore\n      pop\n        /* \"contracts/LiniarVesting/vesting.sol\":6192:6248  ClaimParametersUpdated(_newCooldown, _newMinClaimAmount) */\n      0x64df5f7e1804e0833e0de6a22852912960e50c4760c47d96f88138f670975912\n        /* \"contracts/LiniarVesting/vesting.sol\":6215:6227  _newCooldown */\n      dup3\n        /* \"contracts/LiniarVesting/vesting.sol\":6229:6247  _newMinClaimAmount */\n      dup3\n        /* \"contracts/LiniarVesting/vesting.sol\":6192:6248  ClaimParametersUpdated(_newCooldown, _newMinClaimAmount) */\n      mload(0x40)\n      tag_219\n      swap3\n      swap2\n      swap1\n      tag_173\n      jump\t// in\n    tag_219:\n      mload(0x40)\n      dup1\n      swap2\n      sub\n      swap1\n      log1\n        /* \"contracts/LiniarVesting/vesting.sol\":5997:6255  function setClaimParameters(uint256 _newCooldown, uint256 _newMinClaimAmount) external onlyOwner {... */\n      pop\n      pop\n      jump\t// out\n        /* \"contracts/LiniarVesting/vesting.sol\":419:448  uint256 public minClaimAmount */\n    tag_64:\n      sload(0x03)\n      dup2\n      jump\t// out\n        /* \"@openzeppelin/contracts/access/Ownable.sol\":2543:2758  function transferOwnership(address newOwner) public virtual onlyOwner {... */\n    tag_68:\n        /* \"@openzeppelin/contracts/access/Ownable.sol\":1531:1544  _checkOwner() */\n      tag_221\n        /* \"@openzeppelin/contracts/access/Ownable.sol\":1531:1542  _checkOwner */\n      tag_78\n        /* \"@openzeppelin/contracts/access/Ownable.sol\":1531:1544  _checkOwner() */\n      jump\t// in\n    tag_221:\n        /* \"@openzeppelin/contracts/access/Ownable.sol\":2647:2648  0 */\n      0x00\n        /* \"@openzeppelin/contracts/access/Ownable.sol\":2627:2649  newOwner == address(0) */\n      0xffffffffffffffffffffffffffffffffffffffff\n      and\n        /* \"@openzeppelin/contracts/access/Ownable.sol\":2627:2635  newOwner */\n      dup2\n        /* \"@openzeppelin/contracts/access/Ownable.sol\":2627:2649  newOwner == address(0) */\n      0xffffffffffffffffffffffffffffffffffffffff\n      and\n      sub\n        /* \"@openzeppelin/contracts/access/Ownable.sol\":2623:2714  if (newOwner == address(0)) {... */\n      tag_223\n      jumpi\n        /* \"@openzeppelin/contracts/access/Ownable.sol\":2700:2701  0 */\n      0x00\n        /* \"@openzeppelin/contracts/access/Ownable.sol\":2672:2703  OwnableInvalidOwner(address(0)) */\n      mload(0x40)\n      0x1e4fbdf700000000000000000000000000000000000000000000000000000000\n      dup2\n      mstore\n      0x04\n      add\n      tag_224\n      swap2\n      swap1\n      tag_53\n      jump\t// in\n    tag_224:\n      mload(0x40)\n      dup1\n      swap2\n      sub\n      swap1\n      revert\n        /* \"@openzeppelin/contracts/access/Ownable.sol\":2623:2714  if (newOwner == address(0)) {... */\n    tag_223:\n        /* \"@openzeppelin/contracts/access/Ownable.sol\":2723:2751  _transferOwnership(newOwner) */\n      tag_225\n        /* \"@openzeppelin/contracts/access/Ownable.sol\":2742:2750  newOwner */\n      dup2\n        /* \"@openzeppelin/contracts/access/Ownable.sol\":2723:2741  _transferOwnership */\n      tag_175\n        /* \"@openzeppelin/contracts/access/Ownable.sol\":2723:2751  _transferOwnership(newOwner) */\n      jump\t// in\n    tag_225:\n        /* \"@openzeppelin/contracts/access/Ownable.sol\":2543:2758  function transferOwnership(address newOwner) public virtual onlyOwner {... */\n      pop\n      jump\t// out\n        /* \"contracts/LiniarVesting/vesting.sol\":297:316  IERC20 public token */\n    tag_70:\n      0x01\n      0x00\n      swap1\n      sload\n      swap1\n      0x0100\n      exp\n      swap1\n      div\n      0xffffffffffffffffffffffffffffffffffffffff\n      and\n      dup2\n      jump\t// out\n        /* \"contracts/LiniarVesting/vesting.sol\":385:413  uint256 public claimCooldown */\n    tag_74:\n      sload(0x02)\n      dup2\n      jump\t// out\n        /* \"@openzeppelin/contracts/access/Ownable.sol\":1796:1958  function _checkOwner() internal view virtual {... */\n    tag_78:\n        /* \"@openzeppelin/contracts/access/Ownable.sol\":1866:1878  _msgSender() */\n      tag_227\n        /* \"@openzeppelin/contracts/access/Ownable.sol\":1866:1876  _msgSender */\n      tag_228\n        /* \"@openzeppelin/contracts/access/Ownable.sol\":1866:1878  _msgSender() */\n      jump\t// in\n    tag_227:\n        /* \"@openzeppelin/contracts/access/Ownable.sol\":1855:1878  owner() != _msgSender() */\n      0xffffffffffffffffffffffffffffffffffffffff\n      and\n        /* \"@openzeppelin/contracts/access/Ownable.sol\":1855:1862  owner() */\n      tag_229\n        /* \"@openzeppelin/contracts/access/Ownable.sol\":1855:1860  owner */\n      tag_51\n        /* \"@openzeppelin/contracts/access/Ownable.sol\":1855:1862  owner() */\n      jump\t// in\n    tag_229:\n        /* \"@openzeppelin/contracts/access/Ownable.sol\":1855:1878  owner() != _msgSender() */\n      0xffffffffffffffffffffffffffffffffffffffff\n      and\n      eq\n        /* \"@openzeppelin/contracts/access/Ownable.sol\":1851:1952  if (owner() != _msgSender()) {... */\n      tag_230\n      jumpi\n        /* \"@openzeppelin/contracts/access/Ownable.sol\":1928:1940  _msgSender() */\n      tag_231\n        /* \"@openzeppelin/contracts/access/Ownable.sol\":1928:1938  _msgSender */\n      tag_228\n        /* \"@openzeppelin/contracts/access/Ownable.sol\":1928:1940  _msgSender() */\n      jump\t// in\n    tag_231:\n        /* \"@openzeppelin/contracts/access/Ownable.sol\":1901:1941  OwnableUnauthorizedAccount(_msgSender()) */\n      mload(0x40)\n      0x118cdaa700000000000000000000000000000000000000000000000000000000\n      dup2\n      mstore\n      0x04\n      add\n      tag_232\n      swap2\n      swap1\n      tag_53\n      jump\t// in\n    tag_232:\n      mload(0x40)\n      dup1\n      swap2\n      sub\n      swap1\n      revert\n        /* \"@openzeppelin/contracts/access/Ownable.sol\":1851:1952  if (owner() != _msgSender()) {... */\n    tag_230:\n        /* \"@openzeppelin/contracts/access/Ownable.sol\":1796:1958  function _checkOwner() internal view virtual {... */\n      jump\t// out\n        /* \"@openzeppelin/contracts/access/Ownable.sol\":2912:3099  function _transferOwnership(address newOwner) internal virtual {... */\n    tag_175:\n        /* \"@openzeppelin/contracts/access/Ownable.sol\":2985:3001  address oldOwner */\n      0x00\n        /* \"@openzeppelin/contracts/access/Ownable.sol\":3004:3010  _owner */\n      0x00\n      0x00\n      swap1\n      sload\n      swap1\n      0x0100\n      exp\n      swap1\n      div\n      0xffffffffffffffffffffffffffffffffffffffff\n      and\n        /* \"@openzeppelin/contracts/access/Ownable.sol\":2985:3010  address oldOwner = _owner */\n      swap1\n      pop\n        /* \"@openzeppelin/contracts/access/Ownable.sol\":3029:3037  newOwner */\n      dup2\n        /* \"@openzeppelin/contracts/access/Ownable.sol\":3020:3026  _owner */\n      0x00\n      0x00\n        /* \"@openzeppelin/contracts/access/Ownable.sol\":3020:3037  _owner = newOwner */\n      0x0100\n      exp\n      dup2\n      sload\n      dup2\n      0xffffffffffffffffffffffffffffffffffffffff\n      mul\n      not\n      and\n      swap1\n      dup4\n      0xffffffffffffffffffffffffffffffffffffffff\n      and\n      mul\n      or\n      swap1\n      sstore\n      pop\n        /* \"@openzeppelin/contracts/access/Ownable.sol\":3083:3091  newOwner */\n      dup2\n        /* \"@openzeppelin/contracts/access/Ownable.sol\":3052:3092  OwnershipTransferred(oldOwner, newOwner) */\n      0xffffffffffffffffffffffffffffffffffffffff\n      and\n        /* \"@openzeppelin/contracts/access/Ownable.sol\":3073:3081  oldOwner */\n      dup2\n        /* \"@openzeppelin/contracts/access/Ownable.sol\":3052:3092  OwnershipTransferred(oldOwner, newOwner) */\n      0xffffffffffffffffffffffffffffffffffffffff\n      and\n      0x8be0079c531659141344cd1fd0a4f28419497f9722a3daafe3b4186f6b6457e0\n      mload(0x40)\n      mload(0x40)\n      dup1\n      swap2\n      sub\n      swap1\n      log3\n        /* \"@openzeppelin/contracts/access/Ownable.sol\":2975:3099  {... */\n      pop\n        /* \"@openzeppelin/contracts/access/Ownable.sol\":2912:3099  function _transferOwnership(address newOwner) internal virtual {... */\n      pop\n      jump\t// out\n        /* \"contracts/LiniarVesting/vesting.sol\":5228:5681  function vestedAmount(address _beneficiary) internal view returns (uint256) {... */\n    tag_209:\n        /* \"contracts/LiniarVesting/vesting.sol\":5295:5302  uint256 */\n      0x00\n        /* \"contracts/LiniarVesting/vesting.sol\":5314:5341  BeneficiaryInfo memory info */\n      0x00\n        /* \"contracts/LiniarVesting/vesting.sol\":5344:5357  beneficiaries */\n      0x04\n        /* \"contracts/LiniarVesting/vesting.sol\":5344:5371  beneficiaries[_beneficiary] */\n      0x00\n        /* \"contracts/LiniarVesting/vesting.sol\":5358:5370  _beneficiary */\n      dup5\n        /* \"contracts/LiniarVesting/vesting.sol\":5344:5371  beneficiaries[_beneficiary] */\n      0xffffffffffffffffffffffffffffffffffffffff\n      and\n      0xffffffffffffffffffffffffffffffffffffffff\n      and\n      dup2\n      mstore\n      0x20\n      add\n      swap1\n      dup2\n      mstore\n      0x20\n      add\n      0x00\n      keccak256\n        /* \"contracts/LiniarVesting/vesting.sol\":5314:5371  BeneficiaryInfo memory info = beneficiaries[_beneficiary] */\n      mload(0x40)\n      dup1\n      0xc0\n      add\n      0x40\n      mstore\n      swap1\n      dup2\n      0x00\n      dup3\n      add\n      sload\n      dup2\n      mstore\n      0x20\n      add\n      0x01\n      dup3\n      add\n      sload\n      dup2\n      mstore\n      0x20\n      add\n      0x02\n      dup3\n      add\n      sload\n      dup2\n      mstore\n      0x20\n      add\n      0x03\n      dup3\n      add\n      sload\n      dup2\n      mstore\n      0x20\n      add\n      0x04\n      dup3\n      add\n      sload\n      dup2\n      mstore\n      0x20\n      add\n      0x05\n      dup3\n      add\n      sload\n      dup2\n      mstore\n      pop\n      pop\n      swap1\n      pop\n        /* \"contracts/LiniarVesting/vesting.sol\":5405:5406  0 */\n      0x00\n        /* \"contracts/LiniarVesting/vesting.sol\":5385:5389  info */\n      dup2\n        /* \"contracts/LiniarVesting/vesting.sol\":5385:5401  info.totalAmount */\n      0x00\n      add\n      mload\n        /* \"contracts/LiniarVesting/vesting.sol\":5385:5406  info.totalAmount == 0 */\n      eq\n        /* \"contracts/LiniarVesting/vesting.sol\":5385:5455  info.totalAmount == 0 || block.timestamp < info.startTime + info.cliff */\n      dup1\n      tag_235\n      jumpi\n      pop\n        /* \"contracts/LiniarVesting/vesting.sol\":5445:5449  info */\n      dup1\n        /* \"contracts/LiniarVesting/vesting.sol\":5445:5455  info.cliff */\n      0x40\n      add\n      mload\n        /* \"contracts/LiniarVesting/vesting.sol\":5428:5432  info */\n      dup2\n        /* \"contracts/LiniarVesting/vesting.sol\":5428:5442  info.startTime */\n      0x20\n      add\n      mload\n        /* \"contracts/LiniarVesting/vesting.sol\":5428:5455  info.startTime + info.cliff */\n      tag_236\n      swap2\n      swap1\n      tag_100\n      jump\t// in\n    tag_236:\n        /* \"contracts/LiniarVesting/vesting.sol\":5410:5425  block.timestamp */\n      timestamp\n        /* \"contracts/LiniarVesting/vesting.sol\":5410:5455  block.timestamp < info.startTime + info.cliff */\n      lt\n        /* \"contracts/LiniarVesting/vesting.sol\":5385:5455  info.totalAmount == 0 || block.timestamp < info.startTime + info.cliff */\n    tag_235:\n        /* \"contracts/LiniarVesting/vesting.sol\":5381:5465  if (info.totalAmount == 0 || block.timestamp < info.startTime + info.cliff) return 0 */\n      iszero\n      tag_237\n      jumpi\n        /* \"contracts/LiniarVesting/vesting.sol\":5464:5465  0 */\n      0x00\n        /* \"contracts/LiniarVesting/vesting.sol\":5457:5465  return 0 */\n      swap2\n      pop\n      pop\n      jump(tag_234)\n        /* \"contracts/LiniarVesting/vesting.sol\":5381:5465  if (info.totalAmount == 0 || block.timestamp < info.startTime + info.cliff) return 0 */\n    tag_237:\n        /* \"contracts/LiniarVesting/vesting.sol\":5476:5494  uint256 passedTime */\n      0x00\n        /* \"contracts/LiniarVesting/vesting.sol\":5533:5537  info */\n      dup2\n        /* \"contracts/LiniarVesting/vesting.sol\":5533:5543  info.cliff */\n      0x40\n      add\n      mload\n        /* \"contracts/LiniarVesting/vesting.sol\":5516:5520  info */\n      dup3\n        /* \"contracts/LiniarVesting/vesting.sol\":5516:5530  info.startTime */\n      0x20\n      add\n      mload\n        /* \"contracts/LiniarVesting/vesting.sol\":5516:5543  info.startTime + info.cliff */\n      tag_238\n      swap2\n      swap1\n      tag_100\n      jump\t// in\n    tag_238:\n        /* \"contracts/LiniarVesting/vesting.sol\":5497:5512  block.timestamp */\n      timestamp\n        /* \"contracts/LiniarVesting/vesting.sol\":5497:5544  block.timestamp - (info.startTime + info.cliff) */\n      tag_239\n      swap2\n      swap1\n      tag_211\n      jump\t// in\n    tag_239:\n        /* \"contracts/LiniarVesting/vesting.sol\":5476:5544  uint256 passedTime = block.timestamp - (info.startTime + info.cliff) */\n      swap1\n      pop\n        /* \"contracts/LiniarVesting/vesting.sol\":5572:5576  info */\n      dup2\n        /* \"contracts/LiniarVesting/vesting.sol\":5572:5585  info.duration */\n      0x60\n      add\n      mload\n        /* \"contracts/LiniarVesting/vesting.sol\":5558:5568  passedTime */\n      dup2\n        /* \"contracts/LiniarVesting/vesting.sol\":5558:5585  passedTime >= info.duration */\n      lt\n        /* \"contracts/LiniarVesting/vesting.sol\":5554:5610  if (passedTime >= info.duration) return info.totalAmount */\n      tag_240\n      jumpi\n        /* \"contracts/LiniarVesting/vesting.sol\":5594:5598  info */\n      dup2\n        /* \"contracts/LiniarVesting/vesting.sol\":5594:5610  info.totalAmount */\n      0x00\n      add\n      mload\n        /* \"contracts/LiniarVesting/vesting.sol\":5587:5610  return info.totalAmount */\n      swap3\n      pop\n      pop\n      pop\n      jump(tag_234)\n        /* \"contracts/LiniarVesting/vesting.sol\":5554:5610  if (passedTime >= info.duration) return info.totalAmount */\n    tag_240:\n        /* \"contracts/LiniarVesting/vesting.sol\":5661:5665  info */\n      dup2\n        /* \"contracts/LiniarVesting/vesting.sol\":5661:5674  info.duration */\n      0x60\n      add\n      mload\n        /* \"contracts/LiniarVesting/vesting.sol\":5647:5657  passedTime */\n      dup2\n        /* \"contracts/LiniarVesting/vesting.sol\":5628:5632  info */\n      dup4\n        /* \"contracts/LiniarVesting/vesting.sol\":5628:5644  info.totalAmount */\n      0x00\n      add\n      mload\n        /* \"contracts/LiniarVesting/vesting.sol\":5628:5657  info.totalAmount * passedTime */\n      tag_241\n      swap2\n      swap1\n      tag_242\n      jump\t// in\n    tag_241:\n        /* \"contracts/LiniarVesting/vesting.sol\":5627:5674  (info.totalAmount * passedTime) / info.duration */\n      tag_243\n      swap2\n      swap1\n      tag_244\n      jump\t// in\n    tag_243:\n        /* \"contracts/LiniarVesting/vesting.sol\":5620:5674  return (info.totalAmount * passedTime) / info.duration */\n      swap3\n      pop\n      pop\n      pop\n        /* \"contracts/LiniarVesting/vesting.sol\":5228:5681  function vestedAmount(address _beneficiary) internal view returns (uint256) {... */\n    tag_234:\n      swap2\n      swap1\n      pop\n      jump\t// out\n        /* \"@openzeppelin/contracts/utils/Context.sol\":656:752  function _msgSender() internal view virtual returns (address) {... */\n    tag_228:\n        /* \"@openzeppelin/contracts/utils/Context.sol\":709:716  address */\n      0x00\n        /* \"@openzeppelin/contracts/utils/Context.sol\":735:745  msg.sender */\n      caller\n        /* \"@openzeppelin/contracts/utils/Context.sol\":728:745  return msg.sender */\n      swap1\n      pop\n        /* \"@openzeppelin/contracts/utils/Context.sol\":656:752  function _msgSender() internal view virtual returns (address) {... */\n      swap1\n      jump\t// out\n        /* \"#utility.yul\":7:82   */\n    tag_246:\n        /* \"#utility.yul\":40:46   */\n      0x00\n        /* \"#utility.yul\":73:75   */\n      0x40\n        /* \"#utility.yul\":67:76   */\n      mload\n        /* \"#utility.yul\":57:76   */\n      swap1\n      pop\n        /* \"#utility.yul\":7:82   */\n      swap1\n      jump\t// out\n        /* \"#utility.yul\":88:205   */\n    tag_247:\n        /* \"#utility.yul\":197:198   */\n      0x00\n        /* \"#utility.yul\":194:195   */\n      0x00\n        /* \"#utility.yul\":187:199   */\n      revert\n        /* \"#utility.yul\":211:328   */\n    tag_248:\n        /* \"#utility.yul\":320:321   */\n      0x00\n        /* \"#utility.yul\":317:318   */\n      0x00\n        /* \"#utility.yul\":310:322   */\n      revert\n        /* \"#utility.yul\":334:451   */\n    tag_249:\n        /* \"#utility.yul\":443:444   */\n      0x00\n        /* \"#utility.yul\":440:441   */\n      0x00\n        /* \"#utility.yul\":433:445   */\n      revert\n        /* \"#utility.yul\":457:574   */\n    tag_250:\n        /* \"#utility.yul\":566:567   */\n      0x00\n        /* \"#utility.yul\":563:564   */\n      0x00\n        /* \"#utility.yul\":556:568   */\n      revert\n        /* \"#utility.yul\":580:682   */\n    tag_251:\n        /* \"#utility.yul\":621:627   */\n      0x00\n        /* \"#utility.yul\":672:674   */\n      0x1f\n        /* \"#utility.yul\":668:675   */\n      not\n        /* \"#utility.yul\":663:665   */\n      0x1f\n        /* \"#utility.yul\":656:661   */\n      dup4\n        /* \"#utility.yul\":652:666   */\n      add\n        /* \"#utility.yul\":648:676   */\n      and\n        /* \"#utility.yul\":638:676   */\n      swap1\n      pop\n        /* \"#utility.yul\":580:682   */\n      swap2\n      swap1\n      pop\n      jump\t// out\n        /* \"#utility.yul\":688:868   */\n    tag_252:\n        /* \"#utility.yul\":736:813   */\n      0x4e487b7100000000000000000000000000000000000000000000000000000000\n        /* \"#utility.yul\":733:734   */\n      0x00\n        /* \"#utility.yul\":726:814   */\n      mstore\n        /* \"#utility.yul\":833:837   */\n      0x41\n        /* \"#utility.yul\":830:831   */\n      0x04\n        /* \"#utility.yul\":823:838   */\n      mstore\n        /* \"#utility.yul\":857:861   */\n      0x24\n        /* \"#utility.yul\":854:855   */\n      0x00\n        /* \"#utility.yul\":847:862   */\n      revert\n        /* \"#utility.yul\":874:1155   */\n    tag_253:\n        /* \"#utility.yul\":957:984   */\n      tag_339\n        /* \"#utility.yul\":979:983   */\n      dup3\n        /* \"#utility.yul\":957:984   */\n      tag_251\n      jump\t// in\n    tag_339:\n        /* \"#utility.yul\":949:955   */\n      dup2\n        /* \"#utility.yul\":945:985   */\n      add\n        /* \"#utility.yul\":1087:1093   */\n      dup2\n        /* \"#utility.yul\":1075:1085   */\n      dup2\n        /* \"#utility.yul\":1072:1094   */\n      lt\n        /* \"#utility.yul\":1051:1069   */\n      0xffffffffffffffff\n        /* \"#utility.yul\":1039:1049   */\n      dup3\n        /* \"#utility.yul\":1036:1070   */\n      gt\n        /* \"#utility.yul\":1033:1095   */\n      or\n        /* \"#utility.yul\":1030:1118   */\n      iszero\n      tag_340\n      jumpi\n        /* \"#utility.yul\":1098:1116   */\n      tag_341\n      tag_252\n      jump\t// in\n    tag_341:\n        /* \"#utility.yul\":1030:1118   */\n    tag_340:\n        /* \"#utility.yul\":1138:1148   */\n      dup1\n        /* \"#utility.yul\":1134:1136   */\n      0x40\n        /* \"#utility.yul\":1127:1149   */\n      mstore\n        /* \"#utility.yul\":917:1155   */\n      pop\n        /* \"#utility.yul\":874:1155   */\n      pop\n      pop\n      jump\t// out\n        /* \"#utility.yul\":1161:1290   */\n    tag_254:\n        /* \"#utility.yul\":1195:1201   */\n      0x00\n        /* \"#utility.yul\":1222:1242   */\n      tag_343\n      tag_246\n      jump\t// in\n    tag_343:\n        /* \"#utility.yul\":1212:1242   */\n      swap1\n      pop\n        /* \"#utility.yul\":1251:1284   */\n      tag_344\n        /* \"#utility.yul\":1279:1283   */\n      dup3\n        /* \"#utility.yul\":1271:1277   */\n      dup3\n        /* \"#utility.yul\":1251:1284   */\n      tag_253\n      jump\t// in\n    tag_344:\n        /* \"#utility.yul\":1161:1290   */\n      swap2\n      swap1\n      pop\n      jump\t// out\n        /* \"#utility.yul\":1296:1603   */\n    tag_255:\n        /* \"#utility.yul\":1357:1361   */\n      0x00\n        /* \"#utility.yul\":1447:1465   */\n      0xffffffffffffffff\n        /* \"#utility.yul\":1439:1445   */\n      dup3\n        /* \"#utility.yul\":1436:1466   */\n      gt\n        /* \"#utility.yul\":1433:1489   */\n      iszero\n      tag_346\n      jumpi\n        /* \"#utility.yul\":1469:1487   */\n      tag_347\n      tag_252\n      jump\t// in\n    tag_347:\n        /* \"#utility.yul\":1433:1489   */\n    tag_346:\n        /* \"#utility.yul\":1507:1536   */\n      tag_348\n        /* \"#utility.yul\":1529:1535   */\n      dup3\n        /* \"#utility.yul\":1507:1536   */\n      tag_251\n      jump\t// in\n    tag_348:\n        /* \"#utility.yul\":1499:1536   */\n      swap1\n      pop\n        /* \"#utility.yul\":1591:1595   */\n      0x20\n        /* \"#utility.yul\":1585:1589   */\n      dup2\n        /* \"#utility.yul\":1581:1596   */\n      add\n        /* \"#utility.yul\":1573:1596   */\n      swap1\n      pop\n        /* \"#utility.yul\":1296:1603   */\n      swap2\n      swap1\n      pop\n      jump\t// out\n        /* \"#utility.yul\":1609:1757   */\n    tag_256:\n        /* \"#utility.yul\":1707:1713   */\n      dup3\n        /* \"#utility.yul\":1702:1705   */\n      dup2\n        /* \"#utility.yul\":1697:1700   */\n      dup4\n        /* \"#utility.yul\":1684:1714   */\n      calldatacopy\n        /* \"#utility.yul\":1748:1749   */\n      0x00\n        /* \"#utility.yul\":1739:1745   */\n      dup4\n        /* \"#utility.yul\":1734:1737   */\n      dup4\n        /* \"#utility.yul\":1730:1746   */\n      add\n        /* \"#utility.yul\":1723:1750   */\n      mstore\n        /* \"#utility.yul\":1609:1757   */\n      pop\n      pop\n      pop\n      jump\t// out\n        /* \"#utility.yul\":1763:2186   */\n    tag_257:\n        /* \"#utility.yul\":1840:1845   */\n      0x00\n        /* \"#utility.yul\":1865:1930   */\n      tag_351\n        /* \"#utility.yul\":1881:1929   */\n      tag_352\n        /* \"#utility.yul\":1922:1928   */\n      dup5\n        /* \"#utility.yul\":1881:1929   */\n      tag_255\n      jump\t// in\n    tag_352:\n        /* \"#utility.yul\":1865:1930   */\n      tag_254\n      jump\t// in\n    tag_351:\n        /* \"#utility.yul\":1856:1930   */\n      swap1\n      pop\n        /* \"#utility.yul\":1953:1959   */\n      dup3\n        /* \"#utility.yul\":1946:1951   */\n      dup2\n        /* \"#utility.yul\":1939:1960   */\n      mstore\n        /* \"#utility.yul\":1991:1995   */\n      0x20\n        /* \"#utility.yul\":1984:1989   */\n      dup2\n        /* \"#utility.yul\":1980:1996   */\n      add\n        /* \"#utility.yul\":2029:2032   */\n      dup5\n        /* \"#utility.yul\":2020:2026   */\n      dup5\n        /* \"#utility.yul\":2015:2018   */\n      dup5\n        /* \"#utility.yul\":2011:2027   */\n      add\n        /* \"#utility.yul\":2008:2033   */\n      gt\n        /* \"#utility.yul\":2005:2117   */\n      iszero\n      tag_353\n      jumpi\n        /* \"#utility.yul\":2036:2115   */\n      tag_354\n      tag_250\n      jump\t// in\n    tag_354:\n        /* \"#utility.yul\":2005:2117   */\n    tag_353:\n        /* \"#utility.yul\":2126:2180   */\n      tag_355\n        /* \"#utility.yul\":2173:2179   */\n      dup5\n        /* \"#utility.yul\":2168:2171   */\n      dup3\n        /* \"#utility.yul\":2163:2166   */\n      dup6\n        /* \"#utility.yul\":2126:2180   */\n      tag_256\n      jump\t// in\n    tag_355:\n        /* \"#utility.yul\":1846:2186   */\n      pop\n        /* \"#utility.yul\":1763:2186   */\n      swap4\n      swap3\n      pop\n      pop\n      pop\n      jump\t// out\n        /* \"#utility.yul\":2205:2543   */\n    tag_258:\n        /* \"#utility.yul\":2260:2265   */\n      0x00\n        /* \"#utility.yul\":2309:2312   */\n      dup3\n        /* \"#utility.yul\":2302:2306   */\n      0x1f\n        /* \"#utility.yul\":2294:2300   */\n      dup4\n        /* \"#utility.yul\":2290:2307   */\n      add\n        /* \"#utility.yul\":2286:2313   */\n      slt\n        /* \"#utility.yul\":2276:2398   */\n      tag_357\n      jumpi\n        /* \"#utility.yul\":2317:2396   */\n      tag_358\n      tag_249\n      jump\t// in\n    tag_358:\n        /* \"#utility.yul\":2276:2398   */\n    tag_357:\n        /* \"#utility.yul\":2434:2440   */\n      dup2\n        /* \"#utility.yul\":2421:2441   */\n      calldataload\n        /* \"#utility.yul\":2459:2537   */\n      tag_359\n        /* \"#utility.yul\":2533:2536   */\n      dup5\n        /* \"#utility.yul\":2525:2531   */\n      dup3\n        /* \"#utility.yul\":2518:2522   */\n      0x20\n        /* \"#utility.yul\":2510:2516   */\n      dup7\n        /* \"#utility.yul\":2506:2523   */\n      add\n        /* \"#utility.yul\":2459:2537   */\n      tag_257\n      jump\t// in\n    tag_359:\n        /* \"#utility.yul\":2450:2537   */\n      swap2\n      pop\n        /* \"#utility.yul\":2266:2543   */\n      pop\n        /* \"#utility.yul\":2205:2543   */\n      swap3\n      swap2\n      pop\n      pop\n      jump\t// out\n        /* \"#utility.yul\":2549:3056   */\n    tag_22:\n        /* \"#utility.yul\":2617:2623   */\n      0x00\n        /* \"#utility.yul\":2666:2668   */\n      0x20\n        /* \"#utility.yul\":2654:2663   */\n      dup3\n        /* \"#utility.yul\":2645:2652   */\n      dup5\n        /* \"#utility.yul\":2641:2664   */\n      sub\n        /* \"#utility.yul\":2637:2669   */\n      slt\n        /* \"#utility.yul\":2634:2753   */\n      iszero\n      tag_361\n      jumpi\n        /* \"#utility.yul\":2672:2751   */\n      tag_362\n      tag_247\n      jump\t// in\n    tag_362:\n        /* \"#utility.yul\":2634:2753   */\n    tag_361:\n        /* \"#utility.yul\":2820:2821   */\n      0x00\n        /* \"#utility.yul\":2809:2818   */\n      dup3\n        /* \"#utility.yul\":2805:2822   */\n      add\n        /* \"#utility.yul\":2792:2823   */\n      calldataload\n        /* \"#utility.yul\":2850:2868   */\n      0xffffffffffffffff\n        /* \"#utility.yul\":2842:2848   */\n      dup2\n        /* \"#utility.yul\":2839:2869   */\n      gt\n        /* \"#utility.yul\":2836:2953   */\n      iszero\n      tag_363\n      jumpi\n        /* \"#utility.yul\":2872:2951   */\n      tag_364\n      tag_248\n      jump\t// in\n    tag_364:\n        /* \"#utility.yul\":2836:2953   */\n    tag_363:\n        /* \"#utility.yul\":2977:3039   */\n      tag_365\n        /* \"#utility.yul\":3031:3038   */\n      dup5\n        /* \"#utility.yul\":3022:3028   */\n      dup3\n        /* \"#utility.yul\":3011:3020   */\n      dup6\n        /* \"#utility.yul\":3007:3029   */\n      add\n        /* \"#utility.yul\":2977:3039   */\n      tag_258\n      jump\t// in\n    tag_365:\n        /* \"#utility.yul\":2967:3039   */\n      swap2\n      pop\n        /* \"#utility.yul\":2763:3049   */\n      pop\n        /* \"#utility.yul\":2549:3056   */\n      swap3\n      swap2\n      pop\n      pop\n      jump\t// out\n        /* \"#utility.yul\":3062:3188   */\n    tag_259:\n        /* \"#utility.yul\":3099:3106   */\n      0x00\n        /* \"#utility.yul\":3139:3181   */\n      0xffffffffffffffffffffffffffffffffffffffff\n        /* \"#utility.yul\":3132:3137   */\n      dup3\n        /* \"#utility.yul\":3128:3182   */\n      and\n        /* \"#utility.yul\":3117:3182   */\n      swap1\n      pop\n        /* \"#utility.yul\":3062:3188   */\n      swap2\n      swap1\n      pop\n      jump\t// out\n        /* \"#utility.yul\":3194:3290   */\n    tag_260:\n        /* \"#utility.yul\":3231:3238   */\n      0x00\n        /* \"#utility.yul\":3260:3284   */\n      tag_368\n        /* \"#utility.yul\":3278:3283   */\n      dup3\n        /* \"#utility.yul\":3260:3284   */\n      tag_259\n      jump\t// in\n    tag_368:\n        /* \"#utility.yul\":3249:3284   */\n      swap1\n      pop\n        /* \"#utility.yul\":3194:3290   */\n      swap2\n      swap1\n      pop\n      jump\t// out\n        /* \"#utility.yul\":3296:3418   */\n    tag_261:\n        /* \"#utility.yul\":3369:3393   */\n      tag_370\n        /* \"#utility.yul\":3387:3392   */\n      dup2\n        /* \"#utility.yul\":3369:3393   */\n      tag_260\n      jump\t// in\n    tag_370:\n        /* \"#utility.yul\":3362:3367   */\n      dup2\n        /* \"#utility.yul\":3359:3394   */\n      eq\n        /* \"#utility.yul\":3349:3412   */\n      tag_371\n      jumpi\n        /* \"#utility.yul\":3408:3409   */\n      0x00\n        /* \"#utility.yul\":3405:3406   */\n      0x00\n        /* \"#utility.yul\":3398:3410   */\n      revert\n        /* \"#utility.yul\":3349:3412   */\n    tag_371:\n        /* \"#utility.yul\":3296:3418   */\n      pop\n      jump\t// out\n        /* \"#utility.yul\":3424:3563   */\n    tag_262:\n        /* \"#utility.yul\":3470:3475   */\n      0x00\n        /* \"#utility.yul\":3508:3514   */\n      dup2\n        /* \"#utility.yul\":3495:3515   */\n      calldataload\n        /* \"#utility.yul\":3486:3515   */\n      swap1\n      pop\n        /* \"#utility.yul\":3524:3557   */\n      tag_373\n        /* \"#utility.yul\":3551:3556   */\n      dup2\n        /* \"#utility.yul\":3524:3557   */\n      tag_261\n      jump\t// in\n    tag_373:\n        /* \"#utility.yul\":3424:3563   */\n      swap3\n      swap2\n      pop\n      pop\n      jump\t// out\n        /* \"#utility.yul\":3569:3898   */\n    tag_26:\n        /* \"#utility.yul\":3628:3634   */\n      0x00\n        /* \"#utility.yul\":3677:3679   */\n      0x20\n        /* \"#utility.yul\":3665:3674   */\n      dup3\n        /* \"#utility.yul\":3656:3663   */\n      dup5\n        /* \"#utility.yul\":3652:3675   */\n      sub\n        /* \"#utility.yul\":3648:3680   */\n      slt\n        /* \"#utility.yul\":3645:3764   */\n      iszero\n      tag_375\n      jumpi\n        /* \"#utility.yul\":3683:3762   */\n      tag_376\n      tag_247\n      jump\t// in\n    tag_376:\n        /* \"#utility.yul\":3645:3764   */\n    tag_375:\n        /* \"#utility.yul\":3803:3804   */\n      0x00\n        /* \"#utility.yul\":3828:3881   */\n      tag_377\n        /* \"#utility.yul\":3873:3880   */\n      dup5\n        /* \"#utility.yul\":3864:3870   */\n      dup3\n        /* \"#utility.yul\":3853:3862   */\n      dup6\n        /* \"#utility.yul\":3849:3871   */\n      add\n        /* \"#utility.yul\":3828:3881   */\n      tag_262\n      jump\t// in\n    tag_377:\n        /* \"#utility.yul\":3818:3881   */\n      swap2\n      pop\n        /* \"#utility.yul\":3774:3891   */\n      pop\n        /* \"#utility.yul\":3569:3898   */\n      swap3\n      swap2\n      pop\n      pop\n      jump\t// out\n        /* \"#utility.yul\":3904:3981   */\n    tag_263:\n        /* \"#utility.yul\":3941:3948   */\n      0x00\n        /* \"#utility.yul\":3970:3975   */\n      dup2\n        /* \"#utility.yul\":3959:3975   */\n      swap1\n      pop\n        /* \"#utility.yul\":3904:3981   */\n      swap2\n      swap1\n      pop\n      jump\t// out\n        /* \"#utility.yul\":3987:4105   */\n    tag_264:\n        /* \"#utility.yul\":4074:4098   */\n      tag_380\n        /* \"#utility.yul\":4092:4097   */\n      dup2\n        /* \"#utility.yul\":4074:4098   */\n      tag_263\n      jump\t// in\n    tag_380:\n        /* \"#utility.yul\":4069:4072   */\n      dup3\n        /* \"#utility.yul\":4062:4099   */\n      mstore\n        /* \"#utility.yul\":3987:4105   */\n      pop\n      pop\n      jump\t// out\n        /* \"#utility.yul\":4111:4886   */\n    tag_29:\n        /* \"#utility.yul\":4344:4348   */\n      0x00\n        /* \"#utility.yul\":4382:4385   */\n      0xc0\n        /* \"#utility.yul\":4371:4380   */\n      dup3\n        /* \"#utility.yul\":4367:4386   */\n      add\n        /* \"#utility.yul\":4359:4386   */\n      swap1\n      pop\n        /* \"#utility.yul\":4396:4467   */\n      tag_382\n        /* \"#utility.yul\":4464:4465   */\n      0x00\n        /* \"#utility.yul\":4453:4462   */\n      dup4\n        /* \"#utility.yul\":4449:4466   */\n      add\n        /* \"#utility.yul\":4440:4446   */\n      dup10\n        /* \"#utility.yul\":4396:4467   */\n      tag_264\n      jump\t// in\n    tag_382:\n        /* \"#utility.yul\":4477:4549   */\n      tag_383\n        /* \"#utility.yul\":4545:4547   */\n      0x20\n        /* \"#utility.yul\":4534:4543   */\n      dup4\n        /* \"#utility.yul\":4530:4548   */\n      add\n        /* \"#utility.yul\":4521:4527   */\n      dup9\n        /* \"#utility.yul\":4477:4549   */\n      tag_264\n      jump\t// in\n    tag_383:\n        /* \"#utility.yul\":4559:4631   */\n      tag_384\n        /* \"#utility.yul\":4627:4629   */\n      0x40\n        /* \"#utility.yul\":4616:4625   */\n      dup4\n        /* \"#utility.yul\":4612:4630   */\n      add\n        /* \"#utility.yul\":4603:4609   */\n      dup8\n        /* \"#utility.yul\":4559:4631   */\n      tag_264\n      jump\t// in\n    tag_384:\n        /* \"#utility.yul\":4641:4713   */\n      tag_385\n        /* \"#utility.yul\":4709:4711   */\n      0x60\n        /* \"#utility.yul\":4698:4707   */\n      dup4\n        /* \"#utility.yul\":4694:4712   */\n      add\n        /* \"#utility.yul\":4685:4691   */\n      dup7\n        /* \"#utility.yul\":4641:4713   */\n      tag_264\n      jump\t// in\n    tag_385:\n        /* \"#utility.yul\":4723:4796   */\n      tag_386\n        /* \"#utility.yul\":4791:4794   */\n      0x80\n        /* \"#utility.yul\":4780:4789   */\n      dup4\n        /* \"#utility.yul\":4776:4795   */\n      add\n        /* \"#utility.yul\":4767:4773   */\n      dup6\n        /* \"#utility.yul\":4723:4796   */\n      tag_264\n      jump\t// in\n    tag_386:\n        /* \"#utility.yul\":4806:4879   */\n      tag_387\n        /* \"#utility.yul\":4874:4877   */\n      0xa0\n        /* \"#utility.yul\":4863:4872   */\n      dup4\n        /* \"#utility.yul\":4859:4878   */\n      add\n        /* \"#utility.yul\":4850:4856   */\n      dup5\n        /* \"#utility.yul\":4806:4879   */\n      tag_264\n      jump\t// in\n    tag_387:\n        /* \"#utility.yul\":4111:4886   */\n      swap8\n      swap7\n      pop\n      pop\n      pop\n      pop\n      pop\n      pop\n      pop\n      jump\t// out\n        /* \"#utility.yul\":4892:5203   */\n    tag_265:\n        /* \"#utility.yul\":4969:4973   */\n      0x00\n        /* \"#utility.yul\":5059:5077   */\n      0xffffffffffffffff\n        /* \"#utility.yul\":5051:5057   */\n      dup3\n        /* \"#utility.yul\":5048:5078   */\n      gt\n        /* \"#utility.yul\":5045:5101   */\n      iszero\n      tag_389\n      jumpi\n        /* \"#utility.yul\":5081:5099   */\n      tag_390\n      tag_252\n      jump\t// in\n    tag_390:\n        /* \"#utility.yul\":5045:5101   */\n    tag_389:\n        /* \"#utility.yul\":5131:5135   */\n      0x20\n        /* \"#utility.yul\":5123:5129   */\n      dup3\n        /* \"#utility.yul\":5119:5136   */\n      mul\n        /* \"#utility.yul\":5111:5136   */\n      swap1\n      pop\n        /* \"#utility.yul\":5191:5195   */\n      0x20\n        /* \"#utility.yul\":5185:5189   */\n      dup2\n        /* \"#utility.yul\":5181:5196   */\n      add\n        /* \"#utility.yul\":5173:5196   */\n      swap1\n      pop\n        /* \"#utility.yul\":4892:5203   */\n      swap2\n      swap1\n      pop\n      jump\t// out\n        /* \"#utility.yul\":5209:5326   */\n    tag_266:\n        /* \"#utility.yul\":5318:5319   */\n      0x00\n        /* \"#utility.yul\":5315:5316   */\n      0x00\n        /* \"#utility.yul\":5308:5320   */\n      revert\n        /* \"#utility.yul\":5349:6059   */\n    tag_267:\n        /* \"#utility.yul\":5445:5450   */\n      0x00\n        /* \"#utility.yul\":5470:5551   */\n      tag_393\n        /* \"#utility.yul\":5486:5550   */\n      tag_394\n        /* \"#utility.yul\":5543:5549   */\n      dup5\n        /* \"#utility.yul\":5486:5550   */\n      tag_265\n      jump\t// in\n    tag_394:\n        /* \"#utility.yul\":5470:5551   */\n      tag_254\n      jump\t// in\n    tag_393:\n        /* \"#utility.yul\":5461:5551   */\n      swap1\n      pop\n        /* \"#utility.yul\":5571:5576   */\n      dup1\n        /* \"#utility.yul\":5600:5606   */\n      dup4\n        /* \"#utility.yul\":5593:5598   */\n      dup3\n        /* \"#utility.yul\":5586:5607   */\n      mstore\n        /* \"#utility.yul\":5634:5638   */\n      0x20\n        /* \"#utility.yul\":5627:5632   */\n      dup3\n        /* \"#utility.yul\":5623:5639   */\n      add\n        /* \"#utility.yul\":5616:5639   */\n      swap1\n      pop\n        /* \"#utility.yul\":5687:5691   */\n      0x20\n        /* \"#utility.yul\":5679:5685   */\n      dup5\n        /* \"#utility.yul\":5675:5692   */\n      mul\n        /* \"#utility.yul\":5667:5673   */\n      dup4\n        /* \"#utility.yul\":5663:5693   */\n      add\n        /* \"#utility.yul\":5716:5719   */\n      dup6\n        /* \"#utility.yul\":5708:5714   */\n      dup2\n        /* \"#utility.yul\":5705:5720   */\n      gt\n        /* \"#utility.yul\":5702:5824   */\n      iszero\n      tag_395\n      jumpi\n        /* \"#utility.yul\":5735:5814   */\n      tag_396\n      tag_266\n      jump\t// in\n    tag_396:\n        /* \"#utility.yul\":5702:5824   */\n    tag_395:\n        /* \"#utility.yul\":5850:5856   */\n      dup4\n        /* \"#utility.yul\":5833:6053   */\n    tag_397:\n        /* \"#utility.yul\":5867:5873   */\n      dup2\n        /* \"#utility.yul\":5862:5865   */\n      dup2\n        /* \"#utility.yul\":5859:5874   */\n      lt\n        /* \"#utility.yul\":5833:6053   */\n      iszero\n      tag_399\n      jumpi\n        /* \"#utility.yul\":5942:5945   */\n      dup1\n        /* \"#utility.yul\":5971:6008   */\n      tag_400\n        /* \"#utility.yul\":6004:6007   */\n      dup9\n        /* \"#utility.yul\":5992:6002   */\n      dup3\n        /* \"#utility.yul\":5971:6008   */\n      tag_262\n      jump\t// in\n    tag_400:\n        /* \"#utility.yul\":5966:5969   */\n      dup5\n        /* \"#utility.yul\":5959:6009   */\n      mstore\n        /* \"#utility.yul\":6038:6042   */\n      0x20\n        /* \"#utility.yul\":6033:6036   */\n      dup5\n        /* \"#utility.yul\":6029:6043   */\n      add\n        /* \"#utility.yul\":6022:6043   */\n      swap4\n      pop\n        /* \"#utility.yul\":5909:6053   */\n      pop\n        /* \"#utility.yul\":5893:5897   */\n      0x20\n        /* \"#utility.yul\":5888:5891   */\n      dup2\n        /* \"#utility.yul\":5884:5898   */\n      add\n        /* \"#utility.yul\":5877:5898   */\n      swap1\n      pop\n        /* \"#utility.yul\":5833:6053   */\n      jump(tag_397)\n    tag_399:\n        /* \"#utility.yul\":5837:5858   */\n      pop\n        /* \"#utility.yul\":5451:6059   */\n      pop\n      pop\n        /* \"#utility.yul\":5349:6059   */\n      swap4\n      swap3\n      pop\n      pop\n      pop\n      jump\t// out\n        /* \"#utility.yul\":6082:6452   */\n    tag_268:\n        /* \"#utility.yul\":6153:6158   */\n      0x00\n        /* \"#utility.yul\":6202:6205   */\n      dup3\n        /* \"#utility.yul\":6195:6199   */\n      0x1f\n        /* \"#utility.yul\":6187:6193   */\n      dup4\n        /* \"#utility.yul\":6183:6200   */\n      add\n        /* \"#utility.yul\":6179:6206   */\n      slt\n        /* \"#utility.yul\":6169:6291   */\n      tag_402\n      jumpi\n        /* \"#utility.yul\":6210:6289   */\n      tag_403\n      tag_249\n      jump\t// in\n    tag_403:\n        /* \"#utility.yul\":6169:6291   */\n    tag_402:\n        /* \"#utility.yul\":6327:6333   */\n      dup2\n        /* \"#utility.yul\":6314:6334   */\n      calldataload\n        /* \"#utility.yul\":6352:6446   */\n      tag_404\n        /* \"#utility.yul\":6442:6445   */\n      dup5\n        /* \"#utility.yul\":6434:6440   */\n      dup3\n        /* \"#utility.yul\":6427:6431   */\n      0x20\n        /* \"#utility.yul\":6419:6425   */\n      dup7\n        /* \"#utility.yul\":6415:6432   */\n      add\n        /* \"#utility.yul\":6352:6446   */\n      tag_267\n      jump\t// in\n    tag_404:\n        /* \"#utility.yul\":6343:6446   */\n      swap2\n      pop\n        /* \"#utility.yul\":6159:6452   */\n      pop\n        /* \"#utility.yul\":6082:6452   */\n      swap3\n      swap2\n      pop\n      pop\n      jump\t// out\n        /* \"#utility.yul\":6458:6769   */\n    tag_269:\n        /* \"#utility.yul\":6535:6539   */\n      0x00\n        /* \"#utility.yul\":6625:6643   */\n      0xffffffffffffffff\n        /* \"#utility.yul\":6617:6623   */\n      dup3\n        /* \"#utility.yul\":6614:6644   */\n      gt\n        /* \"#utility.yul\":6611:6667   */\n      iszero\n      tag_406\n      jumpi\n        /* \"#utility.yul\":6647:6665   */\n      tag_407\n      tag_252\n      jump\t// in\n    tag_407:\n        /* \"#utility.yul\":6611:6667   */\n    tag_406:\n        /* \"#utility.yul\":6697:6701   */\n      0x20\n        /* \"#utility.yul\":6689:6695   */\n      dup3\n        /* \"#utility.yul\":6685:6702   */\n      mul\n        /* \"#utility.yul\":6677:6702   */\n      swap1\n      pop\n        /* \"#utility.yul\":6757:6761   */\n      0x20\n        /* \"#utility.yul\":6751:6755   */\n      dup2\n        /* \"#utility.yul\":6747:6762   */\n      add\n        /* \"#utility.yul\":6739:6762   */\n      swap1\n      pop\n        /* \"#utility.yul\":6458:6769   */\n      swap2\n      swap1\n      pop\n      jump\t// out\n        /* \"#utility.yul\":6775:6897   */\n    tag_270:\n        /* \"#utility.yul\":6848:6872   */\n      tag_409\n        /* \"#utility.yul\":6866:6871   */\n      dup2\n        /* \"#utility.yul\":6848:6872   */\n      tag_263\n      jump\t// in\n    tag_409:\n        /* \"#utility.yul\":6841:6846   */\n      dup2\n        /* \"#utility.yul\":6838:6873   */\n      eq\n        /* \"#utility.yul\":6828:6891   */\n      tag_410\n      jumpi\n        /* \"#utility.yul\":6887:6888   */\n      0x00\n        /* \"#utility.yul\":6884:6885   */\n      0x00\n        /* \"#utility.yul\":6877:6889   */\n      revert\n        /* \"#utility.yul\":6828:6891   */\n    tag_410:\n        /* \"#utility.yul\":6775:6897   */\n      pop\n      jump\t// out\n        /* \"#utility.yul\":6903:7042   */\n    tag_271:\n        /* \"#utility.yul\":6949:6954   */\n      0x00\n        /* \"#utility.yul\":6987:6993   */\n      dup2\n        /* \"#utility.yul\":6974:6994   */\n      calldataload\n        /* \"#utility.yul\":6965:6994   */\n      swap1\n      pop\n        /* \"#utility.yul\":7003:7036   */\n      tag_412\n        /* \"#utility.yul\":7030:7035   */\n      dup2\n        /* \"#utility.yul\":7003:7036   */\n      tag_270\n      jump\t// in\n    tag_412:\n        /* \"#utility.yul\":6903:7042   */\n      swap3\n      swap2\n      pop\n      pop\n      jump\t// out\n        /* \"#utility.yul\":7065:7775   */\n    tag_272:\n        /* \"#utility.yul\":7161:7166   */\n      0x00\n        /* \"#utility.yul\":7186:7267   */\n      tag_414\n        /* \"#utility.yul\":7202:7266   */\n      tag_415\n        /* \"#utility.yul\":7259:7265   */\n      dup5\n        /* \"#utility.yul\":7202:7266   */\n      tag_269\n      jump\t// in\n    tag_415:\n        /* \"#utility.yul\":7186:7267   */\n      tag_254\n      jump\t// in\n    tag_414:\n        /* \"#utility.yul\":7177:7267   */\n      swap1\n      pop\n        /* \"#utility.yul\":7287:7292   */\n      dup1\n        /* \"#utility.yul\":7316:7322   */\n      dup4\n        /* \"#utility.yul\":7309:7314   */\n      dup3\n        /* \"#utility.yul\":7302:7323   */\n      mstore\n        /* \"#utility.yul\":7350:7354   */\n      0x20\n        /* \"#utility.yul\":7343:7348   */\n      dup3\n        /* \"#utility.yul\":7339:7355   */\n      add\n        /* \"#utility.yul\":7332:7355   */\n      swap1\n      pop\n        /* \"#utility.yul\":7403:7407   */\n      0x20\n        /* \"#utility.yul\":7395:7401   */\n      dup5\n        /* \"#utility.yul\":7391:7408   */\n      mul\n        /* \"#utility.yul\":7383:7389   */\n      dup4\n        /* \"#utility.yul\":7379:7409   */\n      add\n        /* \"#utility.yul\":7432:7435   */\n      dup6\n        /* \"#utility.yul\":7424:7430   */\n      dup2\n        /* \"#utility.yul\":7421:7436   */\n      gt\n        /* \"#utility.yul\":7418:7540   */\n      iszero\n      tag_416\n      jumpi\n        /* \"#utility.yul\":7451:7530   */\n      tag_417\n      tag_266\n      jump\t// in\n    tag_417:\n        /* \"#utility.yul\":7418:7540   */\n    tag_416:\n        /* \"#utility.yul\":7566:7572   */\n      dup4\n        /* \"#utility.yul\":7549:7769   */\n    tag_418:\n        /* \"#utility.yul\":7583:7589   */\n      dup2\n        /* \"#utility.yul\":7578:7581   */\n      dup2\n        /* \"#utility.yul\":7575:7590   */\n      lt\n        /* \"#utility.yul\":7549:7769   */\n      iszero\n      tag_420\n      jumpi\n        /* \"#utility.yul\":7658:7661   */\n      dup1\n        /* \"#utility.yul\":7687:7724   */\n      tag_421\n        /* \"#utility.yul\":7720:7723   */\n      dup9\n        /* \"#utility.yul\":7708:7718   */\n      dup3\n        /* \"#utility.yul\":7687:7724   */\n      tag_271\n      jump\t// in\n    tag_421:\n        /* \"#utility.yul\":7682:7685   */\n      dup5\n        /* \"#utility.yul\":7675:7725   */\n      mstore\n        /* \"#utility.yul\":7754:7758   */\n      0x20\n        /* \"#utility.yul\":7749:7752   */\n      dup5\n        /* \"#utility.yul\":7745:7759   */\n      add\n        /* \"#utility.yul\":7738:7759   */\n      swap4\n      pop\n        /* \"#utility.yul\":7625:7769   */\n      pop\n        /* \"#utility.yul\":7609:7613   */\n      0x20\n        /* \"#utility.yul\":7604:7607   */\n      dup2\n        /* \"#utility.yul\":7600:7614   */\n      add\n        /* \"#utility.yul\":7593:7614   */\n      swap1\n      pop\n        /* \"#utility.yul\":7549:7769   */\n      jump(tag_418)\n    tag_420:\n        /* \"#utility.yul\":7553:7574   */\n      pop\n        /* \"#utility.yul\":7167:7775   */\n      pop\n      pop\n        /* \"#utility.yul\":7065:7775   */\n      swap4\n      swap3\n      pop\n      pop\n      pop\n      jump\t// out\n        /* \"#utility.yul\":7798:8168   */\n    tag_273:\n        /* \"#utility.yul\":7869:7874   */\n      0x00\n        /* \"#utility.yul\":7918:7921   */\n      dup3\n        /* \"#utility.yul\":7911:7915   */\n      0x1f\n        /* \"#utility.yul\":7903:7909   */\n      dup4\n        /* \"#utility.yul\":7899:7916   */\n      add\n        /* \"#utility.yul\":7895:7922   */\n      slt\n        /* \"#utility.yul\":7885:8007   */\n      tag_423\n      jumpi\n        /* \"#utility.yul\":7926:8005   */\n      tag_424\n      tag_249\n      jump\t// in\n    tag_424:\n        /* \"#utility.yul\":7885:8007   */\n    tag_423:\n        /* \"#utility.yul\":8043:8049   */\n      dup2\n        /* \"#utility.yul\":8030:8050   */\n      calldataload\n        /* \"#utility.yul\":8068:8162   */\n      tag_425\n        /* \"#utility.yul\":8158:8161   */\n      dup5\n        /* \"#utility.yul\":8150:8156   */\n      dup3\n        /* \"#utility.yul\":8143:8147   */\n      0x20\n        /* \"#utility.yul\":8135:8141   */\n      dup7\n        /* \"#utility.yul\":8131:8148   */\n      add\n        /* \"#utility.yul\":8068:8162   */\n      tag_272\n      jump\t// in\n    tag_425:\n        /* \"#utility.yul\":8059:8162   */\n      swap2\n      pop\n        /* \"#utility.yul\":7875:8168   */\n      pop\n        /* \"#utility.yul\":7798:8168   */\n      swap3\n      swap2\n      pop\n      pop\n      jump\t// out\n        /* \"#utility.yul\":8174:10135   */\n    tag_32:\n        /* \"#utility.yul\":8394:8400   */\n      0x00\n        /* \"#utility.yul\":8402:8408   */\n      0x00\n        /* \"#utility.yul\":8410:8416   */\n      0x00\n        /* \"#utility.yul\":8418:8424   */\n      0x00\n        /* \"#utility.yul\":8426:8432   */\n      0x00\n        /* \"#utility.yul\":8475:8478   */\n      0xa0\n        /* \"#utility.yul\":8463:8472   */\n      dup7\n        /* \"#utility.yul\":8454:8461   */\n      dup9\n        /* \"#utility.yul\":8450:8473   */\n      sub\n        /* \"#utility.yul\":8446:8479   */\n      slt\n        /* \"#utility.yul\":8443:8563   */\n      iszero\n      tag_427\n      jumpi\n        /* \"#utility.yul\":8482:8561   */\n      tag_428\n      tag_247\n      jump\t// in\n    tag_428:\n        /* \"#utility.yul\":8443:8563   */\n    tag_427:\n        /* \"#utility.yul\":8630:8631   */\n      0x00\n        /* \"#utility.yul\":8619:8628   */\n      dup7\n        /* \"#utility.yul\":8615:8632   */\n      add\n        /* \"#utility.yul\":8602:8633   */\n      calldataload\n        /* \"#utility.yul\":8660:8678   */\n      0xffffffffffffffff\n        /* \"#utility.yul\":8652:8658   */\n      dup2\n        /* \"#utility.yul\":8649:8679   */\n      gt\n        /* \"#utility.yul\":8646:8763   */\n      iszero\n      tag_429\n      jumpi\n        /* \"#utility.yul\":8682:8761   */\n      tag_430\n      tag_248\n      jump\t// in\n    tag_430:\n        /* \"#utility.yul\":8646:8763   */\n    tag_429:\n        /* \"#utility.yul\":8787:8865   */\n      tag_431\n        /* \"#utility.yul\":8857:8864   */\n      dup9\n        /* \"#utility.yul\":8848:8854   */\n      dup3\n        /* \"#utility.yul\":8837:8846   */\n      dup10\n        /* \"#utility.yul\":8833:8855   */\n      add\n        /* \"#utility.yul\":8787:8865   */\n      tag_268\n      jump\t// in\n    tag_431:\n        /* \"#utility.yul\":8777:8865   */\n      swap6\n      pop\n        /* \"#utility.yul\":8573:8875   */\n      pop\n        /* \"#utility.yul\":8942:8944   */\n      0x20\n        /* \"#utility.yul\":8931:8940   */\n      dup7\n        /* \"#utility.yul\":8927:8945   */\n      add\n        /* \"#utility.yul\":8914:8946   */\n      calldataload\n        /* \"#utility.yul\":8973:8991   */\n      0xffffffffffffffff\n        /* \"#utility.yul\":8965:8971   */\n      dup2\n        /* \"#utility.yul\":8962:8992   */\n      gt\n        /* \"#utility.yul\":8959:9076   */\n      iszero\n      tag_432\n      jumpi\n        /* \"#utility.yul\":8995:9074   */\n      tag_433\n      tag_248\n      jump\t// in\n    tag_433:\n        /* \"#utility.yul\":8959:9076   */\n    tag_432:\n        /* \"#utility.yul\":9100:9178   */\n      tag_434\n        /* \"#utility.yul\":9170:9177   */\n      dup9\n        /* \"#utility.yul\":9161:9167   */\n      dup3\n        /* \"#utility.yul\":9150:9159   */\n      dup10\n        /* \"#utility.yul\":9146:9168   */\n      add\n        /* \"#utility.yul\":9100:9178   */\n      tag_273\n      jump\t// in\n    tag_434:\n        /* \"#utility.yul\":9090:9178   */\n      swap5\n      pop\n        /* \"#utility.yul\":8885:9188   */\n      pop\n        /* \"#utility.yul\":9255:9257   */\n      0x40\n        /* \"#utility.yul\":9244:9253   */\n      dup7\n        /* \"#utility.yul\":9240:9258   */\n      add\n        /* \"#utility.yul\":9227:9259   */\n      calldataload\n        /* \"#utility.yul\":9286:9304   */\n      0xffffffffffffffff\n        /* \"#utility.yul\":9278:9284   */\n      dup2\n        /* \"#utility.yul\":9275:9305   */\n      gt\n        /* \"#utility.yul\":9272:9389   */\n      iszero\n      tag_435\n      jumpi\n        /* \"#utility.yul\":9308:9387   */\n      tag_436\n      tag_248\n      jump\t// in\n    tag_436:\n        /* \"#utility.yul\":9272:9389   */\n    tag_435:\n        /* \"#utility.yul\":9413:9491   */\n      tag_437\n        /* \"#utility.yul\":9483:9490   */\n      dup9\n        /* \"#utility.yul\":9474:9480   */\n      dup3\n        /* \"#utility.yul\":9463:9472   */\n      dup10\n        /* \"#utility.yul\":9459:9481   */\n      add\n        /* \"#utility.yul\":9413:9491   */\n      tag_273\n      jump\t// in\n    tag_437:\n        /* \"#utility.yul\":9403:9491   */\n      swap4\n      pop\n        /* \"#utility.yul\":9198:9501   */\n      pop\n        /* \"#utility.yul\":9568:9570   */\n      0x60\n        /* \"#utility.yul\":9557:9566   */\n      dup7\n        /* \"#utility.yul\":9553:9571   */\n      add\n        /* \"#utility.yul\":9540:9572   */\n      calldataload\n        /* \"#utility.yul\":9599:9617   */\n      0xffffffffffffffff\n        /* \"#utility.yul\":9591:9597   */\n      dup2\n        /* \"#utility.yul\":9588:9618   */\n      gt\n        /* \"#utility.yul\":9585:9702   */\n      iszero\n      tag_438\n      jumpi\n        /* \"#utility.yul\":9621:9700   */\n      tag_439\n      tag_248\n      jump\t// in\n    tag_439:\n        /* \"#utility.yul\":9585:9702   */\n    tag_438:\n        /* \"#utility.yul\":9726:9804   */\n      tag_440\n        /* \"#utility.yul\":9796:9803   */\n      dup9\n        /* \"#utility.yul\":9787:9793   */\n      dup3\n        /* \"#utility.yul\":9776:9785   */\n      dup10\n        /* \"#utility.yul\":9772:9794   */\n      add\n        /* \"#utility.yul\":9726:9804   */\n      tag_273\n      jump\t// in\n    tag_440:\n        /* \"#utility.yul\":9716:9804   */\n      swap3\n      pop\n        /* \"#utility.yul\":9511:9814   */\n      pop\n        /* \"#utility.yul\":9881:9884   */\n      0x80\n        /* \"#utility.yul\":9870:9879   */\n      dup7\n        /* \"#utility.yul\":9866:9885   */\n      add\n        /* \"#utility.yul\":9853:9886   */\n      calldataload\n        /* \"#utility.yul\":9913:9931   */\n      0xffffffffffffffff\n        /* \"#utility.yul\":9905:9911   */\n      dup2\n        /* \"#utility.yul\":9902:9932   */\n      gt\n        /* \"#utility.yul\":9899:10016   */\n      iszero\n      tag_441\n      jumpi\n        /* \"#utility.yul\":9935:10014   */\n      tag_442\n      tag_248\n      jump\t// in\n    tag_442:\n        /* \"#utility.yul\":9899:10016   */\n    tag_441:\n        /* \"#utility.yul\":10040:10118   */\n      tag_443\n        /* \"#utility.yul\":10110:10117   */\n      dup9\n        /* \"#utility.yul\":10101:10107   */\n      dup3\n        /* \"#utility.yul\":10090:10099   */\n      dup10\n        /* \"#utility.yul\":10086:10108   */\n      add\n        /* \"#utility.yul\":10040:10118   */\n      tag_273\n      jump\t// in\n    tag_443:\n        /* \"#utility.yul\":10030:10118   */\n      swap2\n      pop\n        /* \"#utility.yul\":9824:10128   */\n      pop\n        /* \"#utility.yul\":8174:10135   */\n      swap3\n      swap6\n      pop\n      swap3\n      swap6\n      swap1\n      swap4\n      pop\n      jump\t// out\n        /* \"#utility.yul\":10141:10239   */\n    tag_274:\n        /* \"#utility.yul\":10192:10198   */\n      0x00\n        /* \"#utility.yul\":10226:10231   */\n      dup2\n        /* \"#utility.yul\":10220:10232   */\n      mload\n        /* \"#utility.yul\":10210:10232   */\n      swap1\n      pop\n        /* \"#utility.yul\":10141:10239   */\n      swap2\n      swap1\n      pop\n      jump\t// out\n        /* \"#utility.yul\":10245:10413   */\n    tag_275:\n        /* \"#utility.yul\":10328:10339   */\n      0x00\n        /* \"#utility.yul\":10362:10368   */\n      dup3\n        /* \"#utility.yul\":10357:10360   */\n      dup3\n        /* \"#utility.yul\":10350:10369   */\n      mstore\n        /* \"#utility.yul\":10402:10406   */\n      0x20\n        /* \"#utility.yul\":10397:10400   */\n      dup3\n        /* \"#utility.yul\":10393:10407   */\n      add\n        /* \"#utility.yul\":10378:10407   */\n      swap1\n      pop\n        /* \"#utility.yul\":10245:10413   */\n      swap3\n      swap2\n      pop\n      pop\n      jump\t// out\n        /* \"#utility.yul\":10419:10558   */\n    tag_276:\n        /* \"#utility.yul\":10508:10514   */\n      dup3\n        /* \"#utility.yul\":10503:10506   */\n      dup2\n        /* \"#utility.yul\":10498:10501   */\n      dup4\n        /* \"#utility.yul\":10492:10515   */\n      mcopy\n        /* \"#utility.yul\":10549:10550   */\n      0x00\n        /* \"#utility.yul\":10540:10546   */\n      dup4\n        /* \"#utility.yul\":10535:10538   */\n      dup4\n        /* \"#utility.yul\":10531:10547   */\n      add\n        /* \"#utility.yul\":10524:10551   */\n      mstore\n        /* \"#utility.yul\":10419:10558   */\n      pop\n      pop\n      pop\n      jump\t// out\n        /* \"#utility.yul\":10564:10937   */\n    tag_277:\n        /* \"#utility.yul\":10650:10653   */\n      0x00\n        /* \"#utility.yul\":10678:10716   */\n      tag_448\n        /* \"#utility.yul\":10710:10715   */\n      dup3\n        /* \"#utility.yul\":10678:10716   */\n      tag_274\n      jump\t// in\n    tag_448:\n        /* \"#utility.yul\":10732:10802   */\n      tag_449\n        /* \"#utility.yul\":10795:10801   */\n      dup2\n        /* \"#utility.yul\":10790:10793   */\n      dup6\n        /* \"#utility.yul\":10732:10802   */\n      tag_275\n      jump\t// in\n    tag_449:\n        /* \"#utility.yul\":10725:10802   */\n      swap4\n      pop\n        /* \"#utility.yul\":10811:10876   */\n      tag_450\n        /* \"#utility.yul\":10869:10875   */\n      dup2\n        /* \"#utility.yul\":10864:10867   */\n      dup6\n        /* \"#utility.yul\":10857:10861   */\n      0x20\n        /* \"#utility.yul\":10850:10855   */\n      dup7\n        /* \"#utility.yul\":10846:10862   */\n      add\n        /* \"#utility.yul\":10811:10876   */\n      tag_276\n      jump\t// in\n    tag_450:\n        /* \"#utility.yul\":10901:10930   */\n      tag_451\n        /* \"#utility.yul\":10923:10929   */\n      dup2\n        /* \"#utility.yul\":10901:10930   */\n      tag_251\n      jump\t// in\n    tag_451:\n        /* \"#utility.yul\":10896:10899   */\n      dup5\n        /* \"#utility.yul\":10892:10931   */\n      add\n        /* \"#utility.yul\":10885:10931   */\n      swap2\n      pop\n        /* \"#utility.yul\":10654:10937   */\n      pop\n        /* \"#utility.yul\":10564:10937   */\n      swap3\n      swap2\n      pop\n      pop\n      jump\t// out\n        /* \"#utility.yul\":10943:11252   */\n    tag_35:\n        /* \"#utility.yul\":11054:11058   */\n      0x00\n        /* \"#utility.yul\":11092:11094   */\n      0x20\n        /* \"#utility.yul\":11081:11090   */\n      dup3\n        /* \"#utility.yul\":11077:11095   */\n      add\n        /* \"#utility.yul\":11069:11095   */\n      swap1\n      pop\n        /* \"#utility.yul\":11141:11150   */\n      dup2\n        /* \"#utility.yul\":11135:11139   */\n      dup2\n        /* \"#utility.yul\":11131:11151   */\n      sub\n        /* \"#utility.yul\":11127:11128   */\n      0x00\n        /* \"#utility.yul\":11116:11125   */\n      dup4\n        /* \"#utility.yul\":11112:11129   */\n      add\n        /* \"#utility.yul\":11105:11152   */\n      mstore\n        /* \"#utility.yul\":11169:11245   */\n      tag_453\n        /* \"#utility.yul\":11240:11244   */\n      dup2\n        /* \"#utility.yul\":11231:11237   */\n      dup5\n        /* \"#utility.yul\":11169:11245   */\n      tag_277\n      jump\t// in\n    tag_453:\n        /* \"#utility.yul\":11161:11245   */\n      swap1\n      pop\n        /* \"#utility.yul\":10943:11252   */\n      swap3\n      swap2\n      pop\n      pop\n      jump\t// out\n        /* \"#utility.yul\":11258:11348   */\n    tag_278:\n        /* \"#utility.yul\":11292:11299   */\n      0x00\n        /* \"#utility.yul\":11335:11340   */\n      dup2\n        /* \"#utility.yul\":11328:11341   */\n      iszero\n        /* \"#utility.yul\":11321:11342   */\n      iszero\n        /* \"#utility.yul\":11310:11342   */\n      swap1\n      pop\n        /* \"#utility.yul\":11258:11348   */\n      swap2\n      swap1\n      pop\n      jump\t// out\n        /* \"#utility.yul\":11354:11463   */\n    tag_279:\n        /* \"#utility.yul\":11435:11456   */\n      tag_456\n        /* \"#utility.yul\":11450:11455   */\n      dup2\n        /* \"#utility.yul\":11435:11456   */\n      tag_278\n      jump\t// in\n    tag_456:\n        /* \"#utility.yul\":11430:11433   */\n      dup3\n        /* \"#utility.yul\":11423:11457   */\n      mstore\n        /* \"#utility.yul\":11354:11463   */\n      pop\n      pop\n      jump\t// out\n        /* \"#utility.yul\":11469:11679   */\n    tag_40:\n        /* \"#utility.yul\":11556:11560   */\n      0x00\n        /* \"#utility.yul\":11594:11596   */\n      0x20\n        /* \"#utility.yul\":11583:11592   */\n      dup3\n        /* \"#utility.yul\":11579:11597   */\n      add\n        /* \"#utility.yul\":11571:11597   */\n      swap1\n      pop\n        /* \"#utility.yul\":11607:11672   */\n      tag_458\n        /* \"#utility.yul\":11669:11670   */\n      0x00\n        /* \"#utility.yul\":11658:11667   */\n      dup4\n        /* \"#utility.yul\":11654:11671   */\n      add\n        /* \"#utility.yul\":11645:11651   */\n      dup5\n        /* \"#utility.yul\":11607:11672   */\n      tag_279\n      jump\t// in\n    tag_458:\n        /* \"#utility.yul\":11469:11679   */\n      swap3\n      swap2\n      pop\n      pop\n      jump\t// out\n        /* \"#utility.yul\":11685:11907   */\n    tag_49:\n        /* \"#utility.yul\":11778:11782   */\n      0x00\n        /* \"#utility.yul\":11816:11818   */\n      0x20\n        /* \"#utility.yul\":11805:11814   */\n      dup3\n        /* \"#utility.yul\":11801:11819   */\n      add\n        /* \"#utility.yul\":11793:11819   */\n      swap1\n      pop\n        /* \"#utility.yul\":11829:11900   */\n      tag_460\n        /* \"#utility.yul\":11897:11898   */\n      0x00\n        /* \"#utility.yul\":11886:11895   */\n      dup4\n        /* \"#utility.yul\":11882:11899   */\n      add\n        /* \"#utility.yul\":11873:11879   */\n      dup5\n        /* \"#utility.yul\":11829:11900   */\n      tag_264\n      jump\t// in\n    tag_460:\n        /* \"#utility.yul\":11685:11907   */\n      swap3\n      swap2\n      pop\n      pop\n      jump\t// out\n        /* \"#utility.yul\":11913:12031   */\n    tag_280:\n        /* \"#utility.yul\":12000:12024   */\n      tag_462\n        /* \"#utility.yul\":12018:12023   */\n      dup2\n        /* \"#utility.yul\":12000:12024   */\n      tag_260\n      jump\t// in\n    tag_462:\n        /* \"#utility.yul\":11995:11998   */\n      dup3\n        /* \"#utility.yul\":11988:12025   */\n      mstore\n        /* \"#utility.yul\":11913:12031   */\n      pop\n      pop\n      jump\t// out\n        /* \"#utility.yul\":12037:12259   */\n    tag_53:\n        /* \"#utility.yul\":12130:12134   */\n      0x00\n        /* \"#utility.yul\":12168:12170   */\n      0x20\n        /* \"#utility.yul\":12157:12166   */\n      dup3\n        /* \"#utility.yul\":12153:12171   */\n      add\n        /* \"#utility.yul\":12145:12171   */\n      swap1\n      pop\n        /* \"#utility.yul\":12181:12252   */\n      tag_464\n        /* \"#utility.yul\":12249:12250   */\n      0x00\n        /* \"#utility.yul\":12238:12247   */\n      dup4\n        /* \"#utility.yul\":12234:12251   */\n      add\n        /* \"#utility.yul\":12225:12231   */\n      dup5\n        /* \"#utility.yul\":12181:12252   */\n      tag_280\n      jump\t// in\n    tag_464:\n        /* \"#utility.yul\":12037:12259   */\n      swap3\n      swap2\n      pop\n      pop\n      jump\t// out\n        /* \"#utility.yul\":12265:12884   */\n    tag_56:\n        /* \"#utility.yul\":12342:12348   */\n      0x00\n        /* \"#utility.yul\":12350:12356   */\n      0x00\n        /* \"#utility.yul\":12358:12364   */\n      0x00\n        /* \"#utility.yul\":12407:12409   */\n      0x60\n        /* \"#utility.yul\":12395:12404   */\n      dup5\n        /* \"#utility.yul\":12386:12393   */\n      dup7\n        /* \"#utility.yul\":12382:12405   */\n      sub\n        /* \"#utility.yul\":12378:12410   */\n      slt\n        /* \"#utility.yul\":12375:12494   */\n      iszero\n      tag_466\n      jumpi\n        /* \"#utility.yul\":12413:12492   */\n      tag_467\n      tag_247\n      jump\t// in\n    tag_467:\n        /* \"#utility.yul\":12375:12494   */\n    tag_466:\n        /* \"#utility.yul\":12533:12534   */\n      0x00\n        /* \"#utility.yul\":12558:12611   */\n      tag_468\n        /* \"#utility.yul\":12603:12610   */\n      dup7\n        /* \"#utility.yul\":12594:12600   */\n      dup3\n        /* \"#utility.yul\":12583:12592   */\n      dup8\n        /* \"#utility.yul\":12579:12601   */\n      add\n        /* \"#utility.yul\":12558:12611   */\n      tag_262\n      jump\t// in\n    tag_468:\n        /* \"#utility.yul\":12548:12611   */\n      swap4\n      pop\n        /* \"#utility.yul\":12504:12621   */\n      pop\n        /* \"#utility.yul\":12660:12662   */\n      0x20\n        /* \"#utility.yul\":12686:12739   */\n      tag_469\n        /* \"#utility.yul\":12731:12738   */\n      dup7\n        /* \"#utility.yul\":12722:12728   */\n      dup3\n        /* \"#utility.yul\":12711:12720   */\n      dup8\n        /* \"#utility.yul\":12707:12729   */\n      add\n        /* \"#utility.yul\":12686:12739   */\n      tag_271\n      jump\t// in\n    tag_469:\n        /* \"#utility.yul\":12676:12739   */\n      swap3\n      pop\n        /* \"#utility.yul\":12631:12749   */\n      pop\n        /* \"#utility.yul\":12788:12790   */\n      0x40\n        /* \"#utility.yul\":12814:12867   */\n      tag_470\n        /* \"#utility.yul\":12859:12866   */\n      dup7\n        /* \"#utility.yul\":12850:12856   */\n      dup3\n        /* \"#utility.yul\":12839:12848   */\n      dup8\n        /* \"#utility.yul\":12835:12857   */\n      add\n        /* \"#utility.yul\":12814:12867   */\n      tag_271\n      jump\t// in\n    tag_470:\n        /* \"#utility.yul\":12804:12867   */\n      swap2\n      pop\n        /* \"#utility.yul\":12759:12877   */\n      pop\n        /* \"#utility.yul\":12265:12884   */\n      swap3\n      pop\n      swap3\n      pop\n      swap3\n      jump\t// out\n        /* \"#utility.yul\":12890:13364   */\n    tag_61:\n        /* \"#utility.yul\":12958:12964   */\n      0x00\n        /* \"#utility.yul\":12966:12972   */\n      0x00\n        /* \"#utility.yul\":13015:13017   */\n      0x40\n        /* \"#utility.yul\":13003:13012   */\n      dup4\n        /* \"#utility.yul\":12994:13001   */\n      dup6\n        /* \"#utility.yul\":12990:13013   */\n      sub\n        /* \"#utility.yul\":12986:13018   */\n      slt\n        /* \"#utility.yul\":12983:13102   */\n      iszero\n      tag_472\n      jumpi\n        /* \"#utility.yul\":13021:13100   */\n      tag_473\n      tag_247\n      jump\t// in\n    tag_473:\n        /* \"#utility.yul\":12983:13102   */\n    tag_472:\n        /* \"#utility.yul\":13141:13142   */\n      0x00\n        /* \"#utility.yul\":13166:13219   */\n      tag_474\n        /* \"#utility.yul\":13211:13218   */\n      dup6\n        /* \"#utility.yul\":13202:13208   */\n      dup3\n        /* \"#utility.yul\":13191:13200   */\n      dup7\n        /* \"#utility.yul\":13187:13209   */\n      add\n        /* \"#utility.yul\":13166:13219   */\n      tag_271\n      jump\t// in\n    tag_474:\n        /* \"#utility.yul\":13156:13219   */\n      swap3\n      pop\n        /* \"#utility.yul\":13112:13229   */\n      pop\n        /* \"#utility.yul\":13268:13270   */\n      0x20\n        /* \"#utility.yul\":13294:13347   */\n      tag_475\n        /* \"#utility.yul\":13339:13346   */\n      dup6\n        /* \"#utility.yul\":13330:13336   */\n      dup3\n        /* \"#utility.yul\":13319:13328   */\n      dup7\n        /* \"#utility.yul\":13315:13337   */\n      add\n        /* \"#utility.yul\":13294:13347   */\n      tag_271\n      jump\t// in\n    tag_475:\n        /* \"#utility.yul\":13284:13347   */\n      swap2\n      pop\n        /* \"#utility.yul\":13239:13357   */\n      pop\n        /* \"#utility.yul\":12890:13364   */\n      swap3\n      pop\n      swap3\n      swap1\n      pop\n      jump\t// out\n        /* \"#utility.yul\":13370:13430   */\n    tag_281:\n        /* \"#utility.yul\":13398:13401   */\n      0x00\n        /* \"#utility.yul\":13419:13424   */\n      dup2\n        /* \"#utility.yul\":13412:13424   */\n      swap1\n      pop\n        /* \"#utility.yul\":13370:13430   */\n      swap2\n      swap1\n      pop\n      jump\t// out\n        /* \"#utility.yul\":13436:13578   */\n    tag_282:\n        /* \"#utility.yul\":13486:13495   */\n      0x00\n        /* \"#utility.yul\":13519:13572   */\n      tag_478\n        /* \"#utility.yul\":13537:13571   */\n      tag_479\n        /* \"#utility.yul\":13546:13570   */\n      tag_480\n        /* \"#utility.yul\":13564:13569   */\n      dup5\n        /* \"#utility.yul\":13546:13570   */\n      tag_259\n      jump\t// in\n    tag_480:\n        /* \"#utility.yul\":13537:13571   */\n      tag_281\n      jump\t// in\n    tag_479:\n        /* \"#utility.yul\":13519:13572   */\n      tag_259\n      jump\t// in\n    tag_478:\n        /* \"#utility.yul\":13506:13572   */\n      swap1\n      pop\n        /* \"#utility.yul\":13436:13578   */\n      swap2\n      swap1\n      pop\n      jump\t// out\n        /* \"#utility.yul\":13584:13710   */\n    tag_283:\n        /* \"#utility.yul\":13634:13643   */\n      0x00\n        /* \"#utility.yul\":13667:13704   */\n      tag_482\n        /* \"#utility.yul\":13698:13703   */\n      dup3\n        /* \"#utility.yul\":13667:13704   */\n      tag_282\n      jump\t// in\n    tag_482:\n        /* \"#utility.yul\":13654:13704   */\n      swap1\n      pop\n        /* \"#utility.yul\":13584:13710   */\n      swap2\n      swap1\n      pop\n      jump\t// out\n        /* \"#utility.yul\":13716:13856   */\n    tag_284:\n        /* \"#utility.yul\":13780:13789   */\n      0x00\n        /* \"#utility.yul\":13813:13850   */\n      tag_484\n        /* \"#utility.yul\":13844:13849   */\n      dup3\n        /* \"#utility.yul\":13813:13850   */\n      tag_283\n      jump\t// in\n    tag_484:\n        /* \"#utility.yul\":13800:13850   */\n      swap1\n      pop\n        /* \"#utility.yul\":13716:13856   */\n      swap2\n      swap1\n      pop\n      jump\t// out\n        /* \"#utility.yul\":13862:14021   */\n    tag_285:\n        /* \"#utility.yul\":13963:14014   */\n      tag_486\n        /* \"#utility.yul\":14008:14013   */\n      dup2\n        /* \"#utility.yul\":13963:14014   */\n      tag_284\n      jump\t// in\n    tag_486:\n        /* \"#utility.yul\":13958:13961   */\n      dup3\n        /* \"#utility.yul\":13951:14015   */\n      mstore\n        /* \"#utility.yul\":13862:14021   */\n      pop\n      pop\n      jump\t// out\n        /* \"#utility.yul\":14027:14277   */\n    tag_72:\n        /* \"#utility.yul\":14134:14138   */\n      0x00\n        /* \"#utility.yul\":14172:14174   */\n      0x20\n        /* \"#utility.yul\":14161:14170   */\n      dup3\n        /* \"#utility.yul\":14157:14175   */\n      add\n        /* \"#utility.yul\":14149:14175   */\n      swap1\n      pop\n        /* \"#utility.yul\":14185:14270   */\n      tag_488\n        /* \"#utility.yul\":14267:14268   */\n      0x00\n        /* \"#utility.yul\":14256:14265   */\n      dup4\n        /* \"#utility.yul\":14252:14269   */\n      add\n        /* \"#utility.yul\":14243:14249   */\n      dup5\n        /* \"#utility.yul\":14185:14270   */\n      tag_285\n      jump\t// in\n    tag_488:\n        /* \"#utility.yul\":14027:14277   */\n      swap3\n      swap2\n      pop\n      pop\n      jump\t// out\n        /* \"#utility.yul\":14283:14426   */\n    tag_286:\n        /* \"#utility.yul\":14340:14345   */\n      0x00\n        /* \"#utility.yul\":14371:14377   */\n      dup2\n        /* \"#utility.yul\":14365:14378   */\n      mload\n        /* \"#utility.yul\":14356:14378   */\n      swap1\n      pop\n        /* \"#utility.yul\":14387:14420   */\n      tag_490\n        /* \"#utility.yul\":14414:14419   */\n      dup2\n        /* \"#utility.yul\":14387:14420   */\n      tag_261\n      jump\t// in\n    tag_490:\n        /* \"#utility.yul\":14283:14426   */\n      swap3\n      swap2\n      pop\n      pop\n      jump\t// out\n        /* \"#utility.yul\":14449:15181   */\n    tag_287:\n        /* \"#utility.yul\":14556:14561   */\n      0x00\n        /* \"#utility.yul\":14581:14662   */\n      tag_492\n        /* \"#utility.yul\":14597:14661   */\n      tag_493\n        /* \"#utility.yul\":14654:14660   */\n      dup5\n        /* \"#utility.yul\":14597:14661   */\n      tag_265\n      jump\t// in\n    tag_493:\n        /* \"#utility.yul\":14581:14662   */\n      tag_254\n      jump\t// in\n    tag_492:\n        /* \"#utility.yul\":14572:14662   */\n      swap1\n      pop\n        /* \"#utility.yul\":14682:14687   */\n      dup1\n        /* \"#utility.yul\":14711:14717   */\n      dup4\n        /* \"#utility.yul\":14704:14709   */\n      dup3\n        /* \"#utility.yul\":14697:14718   */\n      mstore\n        /* \"#utility.yul\":14745:14749   */\n      0x20\n        /* \"#utility.yul\":14738:14743   */\n      dup3\n        /* \"#utility.yul\":14734:14750   */\n      add\n        /* \"#utility.yul\":14727:14750   */\n      swap1\n      pop\n        /* \"#utility.yul\":14798:14802   */\n      0x20\n        /* \"#utility.yul\":14790:14796   */\n      dup5\n        /* \"#utility.yul\":14786:14803   */\n      mul\n        /* \"#utility.yul\":14778:14784   */\n      dup4\n        /* \"#utility.yul\":14774:14804   */\n      add\n        /* \"#utility.yul\":14827:14830   */\n      dup6\n        /* \"#utility.yul\":14819:14825   */\n      dup2\n        /* \"#utility.yul\":14816:14831   */\n      gt\n        /* \"#utility.yul\":14813:14935   */\n      iszero\n      tag_494\n      jumpi\n        /* \"#utility.yul\":14846:14925   */\n      tag_495\n      tag_266\n      jump\t// in\n    tag_495:\n        /* \"#utility.yul\":14813:14935   */\n    tag_494:\n        /* \"#utility.yul\":14961:14967   */\n      dup4\n        /* \"#utility.yul\":14944:15175   */\n    tag_496:\n        /* \"#utility.yul\":14978:14984   */\n      dup2\n        /* \"#utility.yul\":14973:14976   */\n      dup2\n        /* \"#utility.yul\":14970:14985   */\n      lt\n        /* \"#utility.yul\":14944:15175   */\n      iszero\n      tag_498\n      jumpi\n        /* \"#utility.yul\":15053:15056   */\n      dup1\n        /* \"#utility.yul\":15082:15130   */\n      tag_499\n        /* \"#utility.yul\":15126:15129   */\n      dup9\n        /* \"#utility.yul\":15114:15124   */\n      dup3\n        /* \"#utility.yul\":15082:15130   */\n      tag_286\n      jump\t// in\n    tag_499:\n        /* \"#utility.yul\":15077:15080   */\n      dup5\n        /* \"#utility.yul\":15070:15131   */\n      mstore\n        /* \"#utility.yul\":15160:15164   */\n      0x20\n        /* \"#utility.yul\":15155:15158   */\n      dup5\n        /* \"#utility.yul\":15151:15165   */\n      add\n        /* \"#utility.yul\":15144:15165   */\n      swap4\n      pop\n        /* \"#utility.yul\":15020:15175   */\n      pop\n        /* \"#utility.yul\":15004:15008   */\n      0x20\n        /* \"#utility.yul\":14999:15002   */\n      dup2\n        /* \"#utility.yul\":14995:15009   */\n      add\n        /* \"#utility.yul\":14988:15009   */\n      swap1\n      pop\n        /* \"#utility.yul\":14944:15175   */\n      jump(tag_496)\n    tag_498:\n        /* \"#utility.yul\":14948:14969   */\n      pop\n        /* \"#utility.yul\":14562:15181   */\n      pop\n      pop\n        /* \"#utility.yul\":14449:15181   */\n      swap4\n      swap3\n      pop\n      pop\n      pop\n      jump\t// out\n        /* \"#utility.yul\":15204:15589   */\n    tag_288:\n        /* \"#utility.yul\":15286:15291   */\n      0x00\n        /* \"#utility.yul\":15335:15338   */\n      dup3\n        /* \"#utility.yul\":15328:15332   */\n      0x1f\n        /* \"#utility.yul\":15320:15326   */\n      dup4\n        /* \"#utility.yul\":15316:15333   */\n      add\n        /* \"#utility.yul\":15312:15339   */\n      slt\n        /* \"#utility.yul\":15302:15424   */\n      tag_501\n      jumpi\n        /* \"#utility.yul\":15343:15422   */\n      tag_502\n      tag_249\n      jump\t// in\n    tag_502:\n        /* \"#utility.yul\":15302:15424   */\n    tag_501:\n        /* \"#utility.yul\":15453:15459   */\n      dup2\n        /* \"#utility.yul\":15447:15460   */\n      mload\n        /* \"#utility.yul\":15478:15583   */\n      tag_503\n        /* \"#utility.yul\":15579:15582   */\n      dup5\n        /* \"#utility.yul\":15571:15577   */\n      dup3\n        /* \"#utility.yul\":15564:15568   */\n      0x20\n        /* \"#utility.yul\":15556:15562   */\n      dup7\n        /* \"#utility.yul\":15552:15569   */\n      add\n        /* \"#utility.yul\":15478:15583   */\n      tag_287\n      jump\t// in\n    tag_503:\n        /* \"#utility.yul\":15469:15583   */\n      swap2\n      pop\n        /* \"#utility.yul\":15292:15589   */\n      pop\n        /* \"#utility.yul\":15204:15589   */\n      swap3\n      swap2\n      pop\n      pop\n      jump\t// out\n        /* \"#utility.yul\":15595:15738   */\n    tag_289:\n        /* \"#utility.yul\":15652:15657   */\n      0x00\n        /* \"#utility.yul\":15683:15689   */\n      dup2\n        /* \"#utility.yul\":15677:15690   */\n      mload\n        /* \"#utility.yul\":15668:15690   */\n      swap1\n      pop\n        /* \"#utility.yul\":15699:15732   */\n      tag_505\n        /* \"#utility.yul\":15726:15731   */\n      dup2\n        /* \"#utility.yul\":15699:15732   */\n      tag_270\n      jump\t// in\n    tag_505:\n        /* \"#utility.yul\":15595:15738   */\n      swap3\n      swap2\n      pop\n      pop\n      jump\t// out\n        /* \"#utility.yul\":15761:16493   */\n    tag_290:\n        /* \"#utility.yul\":15868:15873   */\n      0x00\n        /* \"#utility.yul\":15893:15974   */\n      tag_507\n        /* \"#utility.yul\":15909:15973   */\n      tag_508\n        /* \"#utility.yul\":15966:15972   */\n      dup5\n        /* \"#utility.yul\":15909:15973   */\n      tag_269\n      jump\t// in\n    tag_508:\n        /* \"#utility.yul\":15893:15974   */\n      tag_254\n      jump\t// in\n    tag_507:\n        /* \"#utility.yul\":15884:15974   */\n      swap1\n      pop\n        /* \"#utility.yul\":15994:15999   */\n      dup1\n        /* \"#utility.yul\":16023:16029   */\n      dup4\n        /* \"#utility.yul\":16016:16021   */\n      dup3\n        /* \"#utility.yul\":16009:16030   */\n      mstore\n        /* \"#utility.yul\":16057:16061   */\n      0x20\n        /* \"#utility.yul\":16050:16055   */\n      dup3\n        /* \"#utility.yul\":16046:16062   */\n      add\n        /* \"#utility.yul\":16039:16062   */\n      swap1\n      pop\n        /* \"#utility.yul\":16110:16114   */\n      0x20\n        /* \"#utility.yul\":16102:16108   */\n      dup5\n        /* \"#utility.yul\":16098:16115   */\n      mul\n        /* \"#utility.yul\":16090:16096   */\n      dup4\n        /* \"#utility.yul\":16086:16116   */\n      add\n        /* \"#utility.yul\":16139:16142   */\n      dup6\n        /* \"#utility.yul\":16131:16137   */\n      dup2\n        /* \"#utility.yul\":16128:16143   */\n      gt\n        /* \"#utility.yul\":16125:16247   */\n      iszero\n      tag_509\n      jumpi\n        /* \"#utility.yul\":16158:16237   */\n      tag_510\n      tag_266\n      jump\t// in\n    tag_510:\n        /* \"#utility.yul\":16125:16247   */\n    tag_509:\n        /* \"#utility.yul\":16273:16279   */\n      dup4\n        /* \"#utility.yul\":16256:16487   */\n    tag_511:\n        /* \"#utility.yul\":16290:16296   */\n      dup2\n        /* \"#utility.yul\":16285:16288   */\n      dup2\n        /* \"#utility.yul\":16282:16297   */\n      lt\n        /* \"#utility.yul\":16256:16487   */\n      iszero\n      tag_513\n      jumpi\n        /* \"#utility.yul\":16365:16368   */\n      dup1\n        /* \"#utility.yul\":16394:16442   */\n      tag_514\n        /* \"#utility.yul\":16438:16441   */\n      dup9\n        /* \"#utility.yul\":16426:16436   */\n      dup3\n        /* \"#utility.yul\":16394:16442   */\n      tag_289\n      jump\t// in\n    tag_514:\n        /* \"#utility.yul\":16389:16392   */\n      dup5\n        /* \"#utility.yul\":16382:16443   */\n      mstore\n        /* \"#utility.yul\":16472:16476   */\n      0x20\n        /* \"#utility.yul\":16467:16470   */\n      dup5\n        /* \"#utility.yul\":16463:16477   */\n      add\n        /* \"#utility.yul\":16456:16477   */\n      swap4\n      pop\n        /* \"#utility.yul\":16332:16487   */\n      pop\n        /* \"#utility.yul\":16316:16320   */\n      0x20\n        /* \"#utility.yul\":16311:16314   */\n      dup2\n        /* \"#utility.yul\":16307:16321   */\n      add\n        /* \"#utility.yul\":16300:16321   */\n      swap1\n      pop\n        /* \"#utility.yul\":16256:16487   */\n      jump(tag_511)\n    tag_513:\n        /* \"#utility.yul\":16260:16281   */\n      pop\n        /* \"#utility.yul\":15874:16493   */\n      pop\n      pop\n        /* \"#utility.yul\":15761:16493   */\n      swap4\n      swap3\n      pop\n      pop\n      pop\n      jump\t// out\n        /* \"#utility.yul\":16516:16901   */\n    tag_291:\n        /* \"#utility.yul\":16598:16603   */\n      0x00\n        /* \"#utility.yul\":16647:16650   */\n      dup3\n        /* \"#utility.yul\":16640:16644   */\n      0x1f\n        /* \"#utility.yul\":16632:16638   */\n      dup4\n        /* \"#utility.yul\":16628:16645   */\n      add\n        /* \"#utility.yul\":16624:16651   */\n      slt\n        /* \"#utility.yul\":16614:16736   */\n      tag_516\n      jumpi\n        /* \"#utility.yul\":16655:16734   */\n      tag_517\n      tag_249\n      jump\t// in\n    tag_517:\n        /* \"#utility.yul\":16614:16736   */\n    tag_516:\n        /* \"#utility.yul\":16765:16771   */\n      dup2\n        /* \"#utility.yul\":16759:16772   */\n      mload\n        /* \"#utility.yul\":16790:16895   */\n      tag_518\n        /* \"#utility.yul\":16891:16894   */\n      dup5\n        /* \"#utility.yul\":16883:16889   */\n      dup3\n        /* \"#utility.yul\":16876:16880   */\n      0x20\n        /* \"#utility.yul\":16868:16874   */\n      dup7\n        /* \"#utility.yul\":16864:16881   */\n      add\n        /* \"#utility.yul\":16790:16895   */\n      tag_290\n      jump\t// in\n    tag_518:\n        /* \"#utility.yul\":16781:16895   */\n      swap2\n      pop\n        /* \"#utility.yul\":16604:16901   */\n      pop\n        /* \"#utility.yul\":16516:16901   */\n      swap3\n      swap2\n      pop\n      pop\n      jump\t// out\n        /* \"#utility.yul\":16907:18899   */\n    tag_83:\n        /* \"#utility.yul\":17138:17144   */\n      0x00\n        /* \"#utility.yul\":17146:17152   */\n      0x00\n        /* \"#utility.yul\":17154:17160   */\n      0x00\n        /* \"#utility.yul\":17162:17168   */\n      0x00\n        /* \"#utility.yul\":17170:17176   */\n      0x00\n        /* \"#utility.yul\":17219:17222   */\n      0xa0\n        /* \"#utility.yul\":17207:17216   */\n      dup7\n        /* \"#utility.yul\":17198:17205   */\n      dup9\n        /* \"#utility.yul\":17194:17217   */\n      sub\n        /* \"#utility.yul\":17190:17223   */\n      slt\n        /* \"#utility.yul\":17187:17307   */\n      iszero\n      tag_520\n      jumpi\n        /* \"#utility.yul\":17226:17305   */\n      tag_521\n      tag_247\n      jump\t// in\n    tag_521:\n        /* \"#utility.yul\":17187:17307   */\n    tag_520:\n        /* \"#utility.yul\":17367:17368   */\n      0x00\n        /* \"#utility.yul\":17356:17365   */\n      dup7\n        /* \"#utility.yul\":17352:17369   */\n      add\n        /* \"#utility.yul\":17346:17370   */\n      mload\n        /* \"#utility.yul\":17397:17415   */\n      0xffffffffffffffff\n        /* \"#utility.yul\":17389:17395   */\n      dup2\n        /* \"#utility.yul\":17386:17416   */\n      gt\n        /* \"#utility.yul\":17383:17500   */\n      iszero\n      tag_522\n      jumpi\n        /* \"#utility.yul\":17419:17498   */\n      tag_523\n      tag_248\n      jump\t// in\n    tag_523:\n        /* \"#utility.yul\":17383:17500   */\n    tag_522:\n        /* \"#utility.yul\":17524:17613   */\n      tag_524\n        /* \"#utility.yul\":17605:17612   */\n      dup9\n        /* \"#utility.yul\":17596:17602   */\n      dup3\n        /* \"#utility.yul\":17585:17594   */\n      dup10\n        /* \"#utility.yul\":17581:17603   */\n      add\n        /* \"#utility.yul\":17524:17613   */\n      tag_288\n      jump\t// in\n    tag_524:\n        /* \"#utility.yul\":17514:17613   */\n      swap6\n      pop\n        /* \"#utility.yul\":17317:17623   */\n      pop\n        /* \"#utility.yul\":17683:17685   */\n      0x20\n        /* \"#utility.yul\":17672:17681   */\n      dup7\n        /* \"#utility.yul\":17668:17686   */\n      add\n        /* \"#utility.yul\":17662:17687   */\n      mload\n        /* \"#utility.yul\":17714:17732   */\n      0xffffffffffffffff\n        /* \"#utility.yul\":17706:17712   */\n      dup2\n        /* \"#utility.yul\":17703:17733   */\n      gt\n        /* \"#utility.yul\":17700:17817   */\n      iszero\n      tag_525\n      jumpi\n        /* \"#utility.yul\":17736:17815   */\n      tag_526\n      tag_248\n      jump\t// in\n    tag_526:\n        /* \"#utility.yul\":17700:17817   */\n    tag_525:\n        /* \"#utility.yul\":17841:17930   */\n      tag_527\n        /* \"#utility.yul\":17922:17929   */\n      dup9\n        /* \"#utility.yul\":17913:17919   */\n      dup3\n        /* \"#utility.yul\":17902:17911   */\n      dup10\n        /* \"#utility.yul\":17898:17920   */\n      add\n        /* \"#utility.yul\":17841:17930   */\n      tag_291\n      jump\t// in\n    tag_527:\n        /* \"#utility.yul\":17831:17930   */\n      swap5\n      pop\n        /* \"#utility.yul\":17633:17940   */\n      pop\n        /* \"#utility.yul\":18000:18002   */\n      0x40\n        /* \"#utility.yul\":17989:17998   */\n      dup7\n        /* \"#utility.yul\":17985:18003   */\n      add\n        /* \"#utility.yul\":17979:18004   */\n      mload\n        /* \"#utility.yul\":18031:18049   */\n      0xffffffffffffffff\n        /* \"#utility.yul\":18023:18029   */\n      dup2\n        /* \"#utility.yul\":18020:18050   */\n      gt\n        /* \"#utility.yul\":18017:18134   */\n      iszero\n      tag_528\n      jumpi\n        /* \"#utility.yul\":18053:18132   */\n      tag_529\n      tag_248\n      jump\t// in\n    tag_529:\n        /* \"#utility.yul\":18017:18134   */\n    tag_528:\n        /* \"#utility.yul\":18158:18247   */\n      tag_530\n        /* \"#utility.yul\":18239:18246   */\n      dup9\n        /* \"#utility.yul\":18230:18236   */\n      dup3\n        /* \"#utility.yul\":18219:18228   */\n      dup10\n        /* \"#utility.yul\":18215:18237   */\n      add\n        /* \"#utility.yul\":18158:18247   */\n      tag_291\n      jump\t// in\n    tag_530:\n        /* \"#utility.yul\":18148:18247   */\n      swap4\n      pop\n        /* \"#utility.yul\":17950:18257   */\n      pop\n        /* \"#utility.yul\":18317:18319   */\n      0x60\n        /* \"#utility.yul\":18306:18315   */\n      dup7\n        /* \"#utility.yul\":18302:18320   */\n      add\n        /* \"#utility.yul\":18296:18321   */\n      mload\n        /* \"#utility.yul\":18348:18366   */\n      0xffffffffffffffff\n        /* \"#utility.yul\":18340:18346   */\n      dup2\n        /* \"#utility.yul\":18337:18367   */\n      gt\n        /* \"#utility.yul\":18334:18451   */\n      iszero\n      tag_531\n      jumpi\n        /* \"#utility.yul\":18370:18449   */\n      tag_532\n      tag_248\n      jump\t// in\n    tag_532:\n        /* \"#utility.yul\":18334:18451   */\n    tag_531:\n        /* \"#utility.yul\":18475:18564   */\n      tag_533\n        /* \"#utility.yul\":18556:18563   */\n      dup9\n        /* \"#utility.yul\":18547:18553   */\n      dup3\n        /* \"#utility.yul\":18536:18545   */\n      dup10\n        /* \"#utility.yul\":18532:18554   */\n      add\n        /* \"#utility.yul\":18475:18564   */\n      tag_291\n      jump\t// in\n    tag_533:\n        /* \"#utility.yul\":18465:18564   */\n      swap3\n      pop\n        /* \"#utility.yul\":18267:18574   */\n      pop\n        /* \"#utility.yul\":18634:18637   */\n      0x80\n        /* \"#utility.yul\":18623:18632   */\n      dup7\n        /* \"#utility.yul\":18619:18638   */\n      add\n        /* \"#utility.yul\":18613:18639   */\n      mload\n        /* \"#utility.yul\":18666:18684   */\n      0xffffffffffffffff\n        /* \"#utility.yul\":18658:18664   */\n      dup2\n        /* \"#utility.yul\":18655:18685   */\n      gt\n        /* \"#utility.yul\":18652:18769   */\n      iszero\n      tag_534\n      jumpi\n        /* \"#utility.yul\":18688:18767   */\n      tag_535\n      tag_248\n      jump\t// in\n    tag_535:\n        /* \"#utility.yul\":18652:18769   */\n    tag_534:\n        /* \"#utility.yul\":18793:18882   */\n      tag_536\n        /* \"#utility.yul\":18874:18881   */\n      dup9\n        /* \"#utility.yul\":18865:18871   */\n      dup3\n        /* \"#utility.yul\":18854:18863   */\n      dup10\n        /* \"#utility.yul\":18850:18872   */\n      add\n        /* \"#utility.yul\":18793:18882   */\n      tag_291\n      jump\t// in\n    tag_536:\n        /* \"#utility.yul\":18783:18882   */\n      swap2\n      pop\n        /* \"#utility.yul\":18584:18892   */\n      pop\n        /* \"#utility.yul\":16907:18899   */\n      swap3\n      swap6\n      pop\n      swap3\n      swap6\n      swap1\n      swap4\n      pop\n      jump\t// out\n        /* \"#utility.yul\":18905:19074   */\n    tag_292:\n        /* \"#utility.yul\":18989:19000   */\n      0x00\n        /* \"#utility.yul\":19023:19029   */\n      dup3\n        /* \"#utility.yul\":19018:19021   */\n      dup3\n        /* \"#utility.yul\":19011:19030   */\n      mstore\n        /* \"#utility.yul\":19063:19067   */\n      0x20\n        /* \"#utility.yul\":19058:19061   */\n      dup3\n        /* \"#utility.yul\":19054:19068   */\n      add\n        /* \"#utility.yul\":19039:19068   */\n      swap1\n      pop\n        /* \"#utility.yul\":18905:19074   */\n      swap3\n      swap2\n      pop\n      pop\n      jump\t// out\n        /* \"#utility.yul\":19080:19251   */\n    tag_293:\n        /* \"#utility.yul\":19220:19243   */\n      0x4172726179206c656e677468206d69736d617463680000000000000000000000\n        /* \"#utility.yul\":19216:19217   */\n      0x00\n        /* \"#utility.yul\":19208:19214   */\n      dup3\n        /* \"#utility.yul\":19204:19218   */\n      add\n        /* \"#utility.yul\":19197:19244   */\n      mstore\n        /* \"#utility.yul\":19080:19251   */\n      pop\n      jump\t// out\n        /* \"#utility.yul\":19257:19623   */\n    tag_294:\n        /* \"#utility.yul\":19399:19402   */\n      0x00\n        /* \"#utility.yul\":19420:19487   */\n      tag_540\n        /* \"#utility.yul\":19484:19486   */\n      0x15\n        /* \"#utility.yul\":19479:19482   */\n      dup4\n        /* \"#utility.yul\":19420:19487   */\n      tag_292\n      jump\t// in\n    tag_540:\n        /* \"#utility.yul\":19413:19487   */\n      swap2\n      pop\n        /* \"#utility.yul\":19496:19589   */\n      tag_541\n        /* \"#utility.yul\":19585:19588   */\n      dup3\n        /* \"#utility.yul\":19496:19589   */\n      tag_293\n      jump\t// in\n    tag_541:\n        /* \"#utility.yul\":19614:19616   */\n      0x20\n        /* \"#utility.yul\":19609:19612   */\n      dup3\n        /* \"#utility.yul\":19605:19617   */\n      add\n        /* \"#utility.yul\":19598:19617   */\n      swap1\n      pop\n        /* \"#utility.yul\":19257:19623   */\n      swap2\n      swap1\n      pop\n      jump\t// out\n        /* \"#utility.yul\":19629:20048   */\n    tag_89:\n        /* \"#utility.yul\":19795:19799   */\n      0x00\n        /* \"#utility.yul\":19833:19835   */\n      0x20\n        /* \"#utility.yul\":19822:19831   */\n      dup3\n        /* \"#utility.yul\":19818:19836   */\n      add\n        /* \"#utility.yul\":19810:19836   */\n      swap1\n      pop\n        /* \"#utility.yul\":19882:19891   */\n      dup2\n        /* \"#utility.yul\":19876:19880   */\n      dup2\n        /* \"#utility.yul\":19872:19892   */\n      sub\n        /* \"#utility.yul\":19868:19869   */\n      0x00\n        /* \"#utility.yul\":19857:19866   */\n      dup4\n        /* \"#utility.yul\":19853:19870   */\n      add\n        /* \"#utility.yul\":19846:19893   */\n      mstore\n        /* \"#utility.yul\":19910:20041   */\n      tag_543\n        /* \"#utility.yul\":20036:20040   */\n      dup2\n        /* \"#utility.yul\":19910:20041   */\n      tag_294\n      jump\t// in\n    tag_543:\n        /* \"#utility.yul\":19902:20041   */\n      swap1\n      pop\n        /* \"#utility.yul\":19629:20048   */\n      swap2\n      swap1\n      pop\n      jump\t// out\n        /* \"#utility.yul\":20054:20229   */\n    tag_295:\n        /* \"#utility.yul\":20194:20221   */\n      0x4e6f2062656e656669636961726965732070726f766964656400000000000000\n        /* \"#utility.yul\":20190:20191   */\n      0x00\n        /* \"#utility.yul\":20182:20188   */\n      dup3\n        /* \"#utility.yul\":20178:20192   */\n      add\n        /* \"#utility.yul\":20171:20222   */\n      mstore\n        /* \"#utility.yul\":20054:20229   */\n      pop\n      jump\t// out\n        /* \"#utility.yul\":20235:20601   */\n    tag_296:\n        /* \"#utility.yul\":20377:20380   */\n      0x00\n        /* \"#utility.yul\":20398:20465   */\n      tag_546\n        /* \"#utility.yul\":20462:20464   */\n      0x19\n        /* \"#utility.yul\":20457:20460   */\n      dup4\n        /* \"#utility.yul\":20398:20465   */\n      tag_292\n      jump\t// in\n    tag_546:\n        /* \"#utility.yul\":20391:20465   */\n      swap2\n      pop\n        /* \"#utility.yul\":20474:20567   */\n      tag_547\n        /* \"#utility.yul\":20563:20566   */\n      dup3\n        /* \"#utility.yul\":20474:20567   */\n      tag_295\n      jump\t// in\n    tag_547:\n        /* \"#utility.yul\":20592:20594   */\n      0x20\n        /* \"#utility.yul\":20587:20590   */\n      dup3\n        /* \"#utility.yul\":20583:20595   */\n      add\n        /* \"#utility.yul\":20576:20595   */\n      swap1\n      pop\n        /* \"#utility.yul\":20235:20601   */\n      swap2\n      swap1\n      pop\n      jump\t// out\n        /* \"#utility.yul\":20607:21026   */\n    tag_92:\n        /* \"#utility.yul\":20773:20777   */\n      0x00\n        /* \"#utility.yul\":20811:20813   */\n      0x20\n        /* \"#utility.yul\":20800:20809   */\n      dup3\n        /* \"#utility.yul\":20796:20814   */\n      add\n        /* \"#utility.yul\":20788:20814   */\n      swap1\n      pop\n        /* \"#utility.yul\":20860:20869   */\n      dup2\n        /* \"#utility.yul\":20854:20858   */\n      dup2\n        /* \"#utility.yul\":20850:20870   */\n      sub\n        /* \"#utility.yul\":20846:20847   */\n      0x00\n        /* \"#utility.yul\":20835:20844   */\n      dup4\n        /* \"#utility.yul\":20831:20848   */\n      add\n        /* \"#utility.yul\":20824:20871   */\n      mstore\n        /* \"#utility.yul\":20888:21019   */\n      tag_549\n        /* \"#utility.yul\":21014:21018   */\n      dup2\n        /* \"#utility.yul\":20888:21019   */\n      tag_296\n      jump\t// in\n    tag_549:\n        /* \"#utility.yul\":20880:21019   */\n      swap1\n      pop\n        /* \"#utility.yul\":20607:21026   */\n      swap2\n      swap1\n      pop\n      jump\t// out\n        /* \"#utility.yul\":21032:21212   */\n    tag_98:\n        /* \"#utility.yul\":21080:21157   */\n      0x4e487b7100000000000000000000000000000000000000000000000000000000\n        /* \"#utility.yul\":21077:21078   */\n      0x00\n        /* \"#utility.yul\":21070:21158   */\n      mstore\n        /* \"#utility.yul\":21177:21181   */\n      0x32\n        /* \"#utility.yul\":21174:21175   */\n      0x04\n        /* \"#utility.yul\":21167:21182   */\n      mstore\n        /* \"#utility.yul\":21201:21205   */\n      0x24\n        /* \"#utility.yul\":21198:21199   */\n      0x00\n        /* \"#utility.yul\":21191:21206   */\n      revert\n        /* \"#utility.yul\":21218:21398   */\n    tag_297:\n        /* \"#utility.yul\":21266:21343   */\n      0x4e487b7100000000000000000000000000000000000000000000000000000000\n        /* \"#utility.yul\":21263:21264   */\n      0x00\n        /* \"#utility.yul\":21256:21344   */\n      mstore\n        /* \"#utility.yul\":21363:21367   */\n      0x11\n        /* \"#utility.yul\":21360:21361   */\n      0x04\n        /* \"#utility.yul\":21353:21368   */\n      mstore\n        /* \"#utility.yul\":21387:21391   */\n      0x24\n        /* \"#utility.yul\":21384:21385   */\n      0x00\n        /* \"#utility.yul\":21377:21392   */\n      revert\n        /* \"#utility.yul\":21404:21595   */\n    tag_100:\n        /* \"#utility.yul\":21444:21447   */\n      0x00\n        /* \"#utility.yul\":21463:21483   */\n      tag_553\n        /* \"#utility.yul\":21481:21482   */\n      dup3\n        /* \"#utility.yul\":21463:21483   */\n      tag_263\n      jump\t// in\n    tag_553:\n        /* \"#utility.yul\":21458:21483   */\n      swap2\n      pop\n        /* \"#utility.yul\":21497:21517   */\n      tag_554\n        /* \"#utility.yul\":21515:21516   */\n      dup4\n        /* \"#utility.yul\":21497:21517   */\n      tag_263\n      jump\t// in\n    tag_554:\n        /* \"#utility.yul\":21492:21517   */\n      swap3\n      pop\n        /* \"#utility.yul\":21540:21541   */\n      dup3\n        /* \"#utility.yul\":21537:21538   */\n      dup3\n        /* \"#utility.yul\":21533:21542   */\n      add\n        /* \"#utility.yul\":21526:21542   */\n      swap1\n      pop\n        /* \"#utility.yul\":21561:21564   */\n      dup1\n        /* \"#utility.yul\":21558:21559   */\n      dup3\n        /* \"#utility.yul\":21555:21565   */\n      gt\n        /* \"#utility.yul\":21552:21588   */\n      iszero\n      tag_555\n      jumpi\n        /* \"#utility.yul\":21568:21586   */\n      tag_556\n      tag_297\n      jump\t// in\n    tag_556:\n        /* \"#utility.yul\":21552:21588   */\n    tag_555:\n        /* \"#utility.yul\":21404:21595   */\n      swap3\n      swap2\n      pop\n      pop\n      jump\t// out\n        /* \"#utility.yul\":21601:21952   */\n    tag_105:\n        /* \"#utility.yul\":21671:21677   */\n      0x00\n        /* \"#utility.yul\":21720:21722   */\n      0x20\n        /* \"#utility.yul\":21708:21717   */\n      dup3\n        /* \"#utility.yul\":21699:21706   */\n      dup5\n        /* \"#utility.yul\":21695:21718   */\n      sub\n        /* \"#utility.yul\":21691:21723   */\n      slt\n        /* \"#utility.yul\":21688:21807   */\n      iszero\n      tag_558\n      jumpi\n        /* \"#utility.yul\":21726:21805   */\n      tag_559\n      tag_247\n      jump\t// in\n    tag_559:\n        /* \"#utility.yul\":21688:21807   */\n    tag_558:\n        /* \"#utility.yul\":21846:21847   */\n      0x00\n        /* \"#utility.yul\":21871:21935   */\n      tag_560\n        /* \"#utility.yul\":21927:21934   */\n      dup5\n        /* \"#utility.yul\":21918:21924   */\n      dup3\n        /* \"#utility.yul\":21907:21916   */\n      dup6\n        /* \"#utility.yul\":21903:21925   */\n      add\n        /* \"#utility.yul\":21871:21935   */\n      tag_289\n      jump\t// in\n    tag_560:\n        /* \"#utility.yul\":21861:21935   */\n      swap2\n      pop\n        /* \"#utility.yul\":21817:21945   */\n      pop\n        /* \"#utility.yul\":21601:21952   */\n      swap3\n      swap2\n      pop\n      pop\n      jump\t// out\n        /* \"#utility.yul\":21958:22135   */\n    tag_298:\n        /* \"#utility.yul\":22098:22127   */\n      0x496e76616c69642062656e656669636961727920616464726573730000000000\n        /* \"#utility.yul\":22094:22095   */\n      0x00\n        /* \"#utility.yul\":22086:22092   */\n      dup3\n        /* \"#utility.yul\":22082:22096   */\n      add\n        /* \"#utility.yul\":22075:22128   */\n      mstore\n        /* \"#utility.yul\":21958:22135   */\n      pop\n      jump\t// out\n        /* \"#utility.yul\":22141:22507   */\n    tag_299:\n        /* \"#utility.yul\":22283:22286   */\n      0x00\n        /* \"#utility.yul\":22304:22371   */\n      tag_563\n        /* \"#utility.yul\":22368:22370   */\n      0x1b\n        /* \"#utility.yul\":22363:22366   */\n      dup4\n        /* \"#utility.yul\":22304:22371   */\n      tag_292\n      jump\t// in\n    tag_563:\n        /* \"#utility.yul\":22297:22371   */\n      swap2\n      pop\n        /* \"#utility.yul\":22380:22473   */\n      tag_564\n        /* \"#utility.yul\":22469:22472   */\n      dup3\n        /* \"#utility.yul\":22380:22473   */\n      tag_298\n      jump\t// in\n    tag_564:\n        /* \"#utility.yul\":22498:22500   */\n      0x20\n        /* \"#utility.yul\":22493:22496   */\n      dup3\n        /* \"#utility.yul\":22489:22501   */\n      add\n        /* \"#utility.yul\":22482:22501   */\n      swap1\n      pop\n        /* \"#utility.yul\":22141:22507   */\n      swap2\n      swap1\n      pop\n      jump\t// out\n        /* \"#utility.yul\":22513:22932   */\n    tag_114:\n        /* \"#utility.yul\":22679:22683   */\n      0x00\n        /* \"#utility.yul\":22717:22719   */\n      0x20\n        /* \"#utility.yul\":22706:22715   */\n      dup3\n        /* \"#utility.yul\":22702:22720   */\n      add\n        /* \"#utility.yul\":22694:22720   */\n      swap1\n      pop\n        /* \"#utility.yul\":22766:22775   */\n      dup2\n        /* \"#utility.yul\":22760:22764   */\n      dup2\n        /* \"#utility.yul\":22756:22776   */\n      sub\n        /* \"#utility.yul\":22752:22753   */\n      0x00\n        /* \"#utility.yul\":22741:22750   */\n      dup4\n        /* \"#utility.yul\":22737:22754   */\n      add\n        /* \"#utility.yul\":22730:22777   */\n      mstore\n        /* \"#utility.yul\":22794:22925   */\n      tag_566\n        /* \"#utility.yul\":22920:22924   */\n      dup2\n        /* \"#utility.yul\":22794:22925   */\n      tag_299\n      jump\t// in\n    tag_566:\n        /* \"#utility.yul\":22786:22925   */\n      swap1\n      pop\n        /* \"#utility.yul\":22513:22932   */\n      swap2\n      swap1\n      pop\n      jump\t// out\n        /* \"#utility.yul\":22938:23108   */\n    tag_300:\n        /* \"#utility.yul\":23078:23100   */\n      0x496e76616c696420746f74616c20616d6f756e74000000000000000000000000\n        /* \"#utility.yul\":23074:23075   */\n      0x00\n        /* \"#utility.yul\":23066:23072   */\n      dup3\n        /* \"#utility.yul\":23062:23076   */\n      add\n        /* \"#utility.yul\":23055:23101   */\n      mstore\n        /* \"#utility.yul\":22938:23108   */\n      pop\n      jump\t// out\n        /* \"#utility.yul\":23114:23480   */\n    tag_301:\n        /* \"#utility.yul\":23256:23259   */\n      0x00\n        /* \"#utility.yul\":23277:23344   */\n      tag_569\n        /* \"#utility.yul\":23341:23343   */\n      0x14\n        /* \"#utility.yul\":23336:23339   */\n      dup4\n        /* \"#utility.yul\":23277:23344   */\n      tag_292\n      jump\t// in\n    tag_569:\n        /* \"#utility.yul\":23270:23344   */\n      swap2\n      pop\n        /* \"#utility.yul\":23353:23446   */\n      tag_570\n        /* \"#utility.yul\":23442:23445   */\n      dup3\n        /* \"#utility.yul\":23353:23446   */\n      tag_300\n      jump\t// in\n    tag_570:\n        /* \"#utility.yul\":23471:23473   */\n      0x20\n        /* \"#utility.yul\":23466:23469   */\n      dup3\n        /* \"#utility.yul\":23462:23474   */\n      add\n        /* \"#utility.yul\":23455:23474   */\n      swap1\n      pop\n        /* \"#utility.yul\":23114:23480   */\n      swap2\n      swap1\n      pop\n      jump\t// out\n        /* \"#utility.yul\":23486:23905   */\n    tag_119:\n        /* \"#utility.yul\":23652:23656   */\n      0x00\n        /* \"#utility.yul\":23690:23692   */\n      0x20\n        /* \"#utility.yul\":23679:23688   */\n      dup3\n        /* \"#utility.yul\":23675:23693   */\n      add\n        /* \"#utility.yul\":23667:23693   */\n      swap1\n      pop\n        /* \"#utility.yul\":23739:23748   */\n      dup2\n        /* \"#utility.yul\":23733:23737   */\n      dup2\n        /* \"#utility.yul\":23729:23749   */\n      sub\n        /* \"#utility.yul\":23725:23726   */\n      0x00\n        /* \"#utility.yul\":23714:23723   */\n      dup4\n        /* \"#utility.yul\":23710:23727   */\n      add\n        /* \"#utility.yul\":23703:23750   */\n      mstore\n        /* \"#utility.yul\":23767:23898   */\n      tag_572\n        /* \"#utility.yul\":23893:23897   */\n      dup2\n        /* \"#utility.yul\":23767:23898   */\n      tag_301\n      jump\t// in\n    tag_572:\n        /* \"#utility.yul\":23759:23898   */\n      swap1\n      pop\n        /* \"#utility.yul\":23486:23905   */\n      swap2\n      swap1\n      pop\n      jump\t// out\n        /* \"#utility.yul\":23911:24077   */\n    tag_302:\n        /* \"#utility.yul\":24051:24069   */\n      0x496e76616c6964206475726174696f6e00000000000000000000000000000000\n        /* \"#utility.yul\":24047:24048   */\n      0x00\n        /* \"#utility.yul\":24039:24045   */\n      dup3\n        /* \"#utility.yul\":24035:24049   */\n      add\n        /* \"#utility.yul\":24028:24070   */\n      mstore\n        /* \"#utility.yul\":23911:24077   */\n      pop\n      jump\t// out\n        /* \"#utility.yul\":24083:24449   */\n    tag_303:\n        /* \"#utility.yul\":24225:24228   */\n      0x00\n        /* \"#utility.yul\":24246:24313   */\n      tag_575\n        /* \"#utility.yul\":24310:24312   */\n      0x10\n        /* \"#utility.yul\":24305:24308   */\n      dup4\n        /* \"#utility.yul\":24246:24313   */\n      tag_292\n      jump\t// in\n    tag_575:\n        /* \"#utility.yul\":24239:24313   */\n      swap2\n      pop\n        /* \"#utility.yul\":24322:24415   */\n      tag_576\n        /* \"#utility.yul\":24411:24414   */\n      dup3\n        /* \"#utility.yul\":24322:24415   */\n      tag_302\n      jump\t// in\n    tag_576:\n        /* \"#utility.yul\":24440:24442   */\n      0x20\n        /* \"#utility.yul\":24435:24438   */\n      dup3\n        /* \"#utility.yul\":24431:24443   */\n      add\n        /* \"#utility.yul\":24424:24443   */\n      swap1\n      pop\n        /* \"#utility.yul\":24083:24449   */\n      swap2\n      swap1\n      pop\n      jump\t// out\n        /* \"#utility.yul\":24455:24874   */\n    tag_124:\n        /* \"#utility.yul\":24621:24625   */\n      0x00\n        /* \"#utility.yul\":24659:24661   */\n      0x20\n        /* \"#utility.yul\":24648:24657   */\n      dup3\n        /* \"#utility.yul\":24644:24662   */\n      add\n        /* \"#utility.yul\":24636:24662   */\n      swap1\n      pop\n        /* \"#utility.yul\":24708:24717   */\n      dup2\n        /* \"#utility.yul\":24702:24706   */\n      dup2\n        /* \"#utility.yul\":24698:24718   */\n      sub\n        /* \"#utility.yul\":24694:24695   */\n      0x00\n        /* \"#utility.yul\":24683:24692   */\n      dup4\n        /* \"#utility.yul\":24679:24696   */\n      add\n        /* \"#utility.yul\":24672:24719   */\n      mstore\n        /* \"#utility.yul\":24736:24867   */\n      tag_578\n        /* \"#utility.yul\":24862:24866   */\n      dup2\n        /* \"#utility.yul\":24736:24867   */\n      tag_303\n      jump\t// in\n    tag_578:\n        /* \"#utility.yul\":24728:24867   */\n      swap1\n      pop\n        /* \"#utility.yul\":24455:24874   */\n      swap2\n      swap1\n      pop\n      jump\t// out\n        /* \"#utility.yul\":24880:25058   */\n    tag_304:\n        /* \"#utility.yul\":25020:25050   */\n      0x53746172742074696d65206d75737420626520696e2066757475726500000000\n        /* \"#utility.yul\":25016:25017   */\n      0x00\n        /* \"#utility.yul\":25008:25014   */\n      dup3\n        /* \"#utility.yul\":25004:25018   */\n      add\n        /* \"#utility.yul\":24997:25051   */\n      mstore\n        /* \"#utility.yul\":24880:25058   */\n      pop\n      jump\t// out\n        /* \"#utility.yul\":25064:25430   */\n    tag_305:\n        /* \"#utility.yul\":25206:25209   */\n      0x00\n        /* \"#utility.yul\":25227:25294   */\n      tag_581\n        /* \"#utility.yul\":25291:25293   */\n      0x1c\n        /* \"#utility.yul\":25286:25289   */\n      dup4\n        /* \"#utility.yul\":25227:25294   */\n      tag_292\n      jump\t// in\n    tag_581:\n        /* \"#utility.yul\":25220:25294   */\n      swap2\n      pop\n        /* \"#utility.yul\":25303:25396   */\n      tag_582\n        /* \"#utility.yul\":25392:25395   */\n      dup3\n        /* \"#utility.yul\":25303:25396   */\n      tag_304\n      jump\t// in\n    tag_582:\n        /* \"#utility.yul\":25421:25423   */\n      0x20\n        /* \"#utility.yul\":25416:25419   */\n      dup3\n        /* \"#utility.yul\":25412:25424   */\n      add\n        /* \"#utility.yul\":25405:25424   */\n      swap1\n      pop\n        /* \"#utility.yul\":25064:25430   */\n      swap2\n      swap1\n      pop\n      jump\t// out\n        /* \"#utility.yul\":25436:25855   */\n    tag_129:\n        /* \"#utility.yul\":25602:25606   */\n      0x00\n        /* \"#utility.yul\":25640:25642   */\n      0x20\n        /* \"#utility.yul\":25629:25638   */\n      dup3\n        /* \"#utility.yul\":25625:25643   */\n      add\n        /* \"#utility.yul\":25617:25643   */\n      swap1\n      pop\n        /* \"#utility.yul\":25689:25698   */\n      dup2\n        /* \"#utility.yul\":25683:25687   */\n      dup2\n        /* \"#utility.yul\":25679:25699   */\n      sub\n        /* \"#utility.yul\":25675:25676   */\n      0x00\n        /* \"#utility.yul\":25664:25673   */\n      dup4\n        /* \"#utility.yul\":25660:25677   */\n      add\n        /* \"#utility.yul\":25653:25700   */\n      mstore\n        /* \"#utility.yul\":25717:25848   */\n      tag_584\n        /* \"#utility.yul\":25843:25847   */\n      dup2\n        /* \"#utility.yul\":25717:25848   */\n      tag_305\n      jump\t// in\n    tag_584:\n        /* \"#utility.yul\":25709:25848   */\n      swap1\n      pop\n        /* \"#utility.yul\":25436:25855   */\n      swap2\n      swap1\n      pop\n      jump\t// out\n        /* \"#utility.yul\":25861:26033   */\n    tag_306:\n        /* \"#utility.yul\":26001:26025   */\n      0x436c6966662065786365656473206475726174696f6e00000000000000000000\n        /* \"#utility.yul\":25997:25998   */\n      0x00\n        /* \"#utility.yul\":25989:25995   */\n      dup3\n        /* \"#utility.yul\":25985:25999   */\n      add\n        /* \"#utility.yul\":25978:26026   */\n      mstore\n        /* \"#utility.yul\":25861:26033   */\n      pop\n      jump\t// out\n        /* \"#utility.yul\":26039:26405   */\n    tag_307:\n        /* \"#utility.yul\":26181:26184   */\n      0x00\n        /* \"#utility.yul\":26202:26269   */\n      tag_587\n        /* \"#utility.yul\":26266:26268   */\n      0x16\n        /* \"#utility.yul\":26261:26264   */\n      dup4\n        /* \"#utility.yul\":26202:26269   */\n      tag_292\n      jump\t// in\n    tag_587:\n        /* \"#utility.yul\":26195:26269   */\n      swap2\n      pop\n        /* \"#utility.yul\":26278:26371   */\n      tag_588\n        /* \"#utility.yul\":26367:26370   */\n      dup3\n        /* \"#utility.yul\":26278:26371   */\n      tag_306\n      jump\t// in\n    tag_588:\n        /* \"#utility.yul\":26396:26398   */\n      0x20\n        /* \"#utility.yul\":26391:26394   */\n      dup3\n        /* \"#utility.yul\":26387:26399   */\n      add\n        /* \"#utility.yul\":26380:26399   */\n      swap1\n      pop\n        /* \"#utility.yul\":26039:26405   */\n      swap2\n      swap1\n      pop\n      jump\t// out\n        /* \"#utility.yul\":26411:26830   */\n    tag_136:\n        /* \"#utility.yul\":26577:26581   */\n      0x00\n        /* \"#utility.yul\":26615:26617   */\n      0x20\n        /* \"#utility.yul\":26604:26613   */\n      dup3\n        /* \"#utility.yul\":26600:26618   */\n      add\n        /* \"#utility.yul\":26592:26618   */\n      swap1\n      pop\n        /* \"#utility.yul\":26664:26673   */\n      dup2\n        /* \"#utility.yul\":26658:26662   */\n      dup2\n        /* \"#utility.yul\":26654:26674   */\n      sub\n        /* \"#utility.yul\":26650:26651   */\n      0x00\n        /* \"#utility.yul\":26639:26648   */\n      dup4\n        /* \"#utility.yul\":26635:26652   */\n      add\n        /* \"#utility.yul\":26628:26675   */\n      mstore\n        /* \"#utility.yul\":26692:26823   */\n      tag_590\n        /* \"#utility.yul\":26818:26822   */\n      dup2\n        /* \"#utility.yul\":26692:26823   */\n      tag_307\n      jump\t// in\n    tag_590:\n        /* \"#utility.yul\":26684:26823   */\n      swap1\n      pop\n        /* \"#utility.yul\":26411:26830   */\n      swap2\n      swap1\n      pop\n      jump\t// out\n        /* \"#utility.yul\":26836:27389   */\n    tag_158:\n        /* \"#utility.yul\":27013:27017   */\n      0x00\n        /* \"#utility.yul\":27051:27054   */\n      0x80\n        /* \"#utility.yul\":27040:27049   */\n      dup3\n        /* \"#utility.yul\":27036:27055   */\n      add\n        /* \"#utility.yul\":27028:27055   */\n      swap1\n      pop\n        /* \"#utility.yul\":27065:27136   */\n      tag_592\n        /* \"#utility.yul\":27133:27134   */\n      0x00\n        /* \"#utility.yul\":27122:27131   */\n      dup4\n        /* \"#utility.yul\":27118:27135   */\n      add\n        /* \"#utility.yul\":27109:27115   */\n      dup8\n        /* \"#utility.yul\":27065:27136   */\n      tag_264\n      jump\t// in\n    tag_592:\n        /* \"#utility.yul\":27146:27218   */\n      tag_593\n        /* \"#utility.yul\":27214:27216   */\n      0x20\n        /* \"#utility.yul\":27203:27212   */\n      dup4\n        /* \"#utility.yul\":27199:27217   */\n      add\n        /* \"#utility.yul\":27190:27196   */\n      dup7\n        /* \"#utility.yul\":27146:27218   */\n      tag_264\n      jump\t// in\n    tag_593:\n        /* \"#utility.yul\":27228:27300   */\n      tag_594\n        /* \"#utility.yul\":27296:27298   */\n      0x40\n        /* \"#utility.yul\":27285:27294   */\n      dup4\n        /* \"#utility.yul\":27281:27299   */\n      add\n        /* \"#utility.yul\":27272:27278   */\n      dup6\n        /* \"#utility.yul\":27228:27300   */\n      tag_264\n      jump\t// in\n    tag_594:\n        /* \"#utility.yul\":27310:27382   */\n      tag_595\n        /* \"#utility.yul\":27378:27380   */\n      0x60\n        /* \"#utility.yul\":27367:27376   */\n      dup4\n        /* \"#utility.yul\":27363:27381   */\n      add\n        /* \"#utility.yul\":27354:27360   */\n      dup5\n        /* \"#utility.yul\":27310:27382   */\n      tag_264\n      jump\t// in\n    tag_595:\n        /* \"#utility.yul\":26836:27389   */\n      swap6\n      swap5\n      pop\n      pop\n      pop\n      pop\n      pop\n      jump\t// out\n        /* \"#utility.yul\":27395:27509   */\n    tag_308:\n        /* \"#utility.yul\":27462:27468   */\n      0x00\n        /* \"#utility.yul\":27496:27501   */\n      dup2\n        /* \"#utility.yul\":27490:27502   */\n      mload\n        /* \"#utility.yul\":27480:27502   */\n      swap1\n      pop\n        /* \"#utility.yul\":27395:27509   */\n      swap2\n      swap1\n      pop\n      jump\t// out\n        /* \"#utility.yul\":27515:27699   */\n    tag_309:\n        /* \"#utility.yul\":27614:27625   */\n      0x00\n        /* \"#utility.yul\":27648:27654   */\n      dup3\n        /* \"#utility.yul\":27643:27646   */\n      dup3\n        /* \"#utility.yul\":27636:27655   */\n      mstore\n        /* \"#utility.yul\":27688:27692   */\n      0x20\n        /* \"#utility.yul\":27683:27686   */\n      dup3\n        /* \"#utility.yul\":27679:27693   */\n      add\n        /* \"#utility.yul\":27664:27693   */\n      swap1\n      pop\n        /* \"#utility.yul\":27515:27699   */\n      swap3\n      swap2\n      pop\n      pop\n      jump\t// out\n        /* \"#utility.yul\":27705:27837   */\n    tag_310:\n        /* \"#utility.yul\":27772:27776   */\n      0x00\n        /* \"#utility.yul\":27795:27798   */\n      dup2\n        /* \"#utility.yul\":27787:27798   */\n      swap1\n      pop\n        /* \"#utility.yul\":27825:27829   */\n      0x20\n        /* \"#utility.yul\":27820:27823   */\n      dup3\n        /* \"#utility.yul\":27816:27830   */\n      add\n        /* \"#utility.yul\":27808:27830   */\n      swap1\n      pop\n        /* \"#utility.yul\":27705:27837   */\n      swap2\n      swap1\n      pop\n      jump\t// out\n        /* \"#utility.yul\":27843:27951   */\n    tag_311:\n        /* \"#utility.yul\":27920:27944   */\n      tag_600\n        /* \"#utility.yul\":27938:27943   */\n      dup2\n        /* \"#utility.yul\":27920:27944   */\n      tag_260\n      jump\t// in\n    tag_600:\n        /* \"#utility.yul\":27915:27918   */\n      dup3\n        /* \"#utility.yul\":27908:27945   */\n      mstore\n        /* \"#utility.yul\":27843:27951   */\n      pop\n      pop\n      jump\t// out\n        /* \"#utility.yul\":27957:28136   */\n    tag_312:\n        /* \"#utility.yul\":28026:28036   */\n      0x00\n        /* \"#utility.yul\":28047:28093   */\n      tag_602\n        /* \"#utility.yul\":28089:28092   */\n      dup4\n        /* \"#utility.yul\":28081:28087   */\n      dup4\n        /* \"#utility.yul\":28047:28093   */\n      tag_311\n      jump\t// in\n    tag_602:\n        /* \"#utility.yul\":28125:28129   */\n      0x20\n        /* \"#utility.yul\":28120:28123   */\n      dup4\n        /* \"#utility.yul\":28116:28130   */\n      add\n        /* \"#utility.yul\":28102:28130   */\n      swap1\n      pop\n        /* \"#utility.yul\":27957:28136   */\n      swap3\n      swap2\n      pop\n      pop\n      jump\t// out\n        /* \"#utility.yul\":28142:28255   */\n    tag_313:\n        /* \"#utility.yul\":28212:28216   */\n      0x00\n        /* \"#utility.yul\":28244:28248   */\n      0x20\n        /* \"#utility.yul\":28239:28242   */\n      dup3\n        /* \"#utility.yul\":28235:28249   */\n      add\n        /* \"#utility.yul\":28227:28249   */\n      swap1\n      pop\n        /* \"#utility.yul\":28142:28255   */\n      swap2\n      swap1\n      pop\n      jump\t// out\n        /* \"#utility.yul\":28291:29023   */\n    tag_314:\n        /* \"#utility.yul\":28410:28413   */\n      0x00\n        /* \"#utility.yul\":28439:28493   */\n      tag_605\n        /* \"#utility.yul\":28487:28492   */\n      dup3\n        /* \"#utility.yul\":28439:28493   */\n      tag_308\n      jump\t// in\n    tag_605:\n        /* \"#utility.yul\":28509:28595   */\n      tag_606\n        /* \"#utility.yul\":28588:28594   */\n      dup2\n        /* \"#utility.yul\":28583:28586   */\n      dup6\n        /* \"#utility.yul\":28509:28595   */\n      tag_309\n      jump\t// in\n    tag_606:\n        /* \"#utility.yul\":28502:28595   */\n      swap4\n      pop\n        /* \"#utility.yul\":28619:28675   */\n      tag_607\n        /* \"#utility.yul\":28669:28674   */\n      dup4\n        /* \"#utility.yul\":28619:28675   */\n      tag_310\n      jump\t// in\n    tag_607:\n        /* \"#utility.yul\":28698:28705   */\n      dup1\n        /* \"#utility.yul\":28729:28730   */\n      0x00\n        /* \"#utility.yul\":28714:28998   */\n    tag_608:\n        /* \"#utility.yul\":28739:28745   */\n      dup4\n        /* \"#utility.yul\":28736:28737   */\n      dup2\n        /* \"#utility.yul\":28733:28746   */\n      lt\n        /* \"#utility.yul\":28714:28998   */\n      iszero\n      tag_610\n      jumpi\n        /* \"#utility.yul\":28815:28821   */\n      dup2\n        /* \"#utility.yul\":28809:28822   */\n      mload\n        /* \"#utility.yul\":28842:28905   */\n      tag_611\n        /* \"#utility.yul\":28901:28904   */\n      dup9\n        /* \"#utility.yul\":28886:28899   */\n      dup3\n        /* \"#utility.yul\":28842:28905   */\n      tag_312\n      jump\t// in\n    tag_611:\n        /* \"#utility.yul\":28835:28905   */\n      swap8\n      pop\n        /* \"#utility.yul\":28928:28988   */\n      tag_612\n        /* \"#utility.yul\":28981:28987   */\n      dup4\n        /* \"#utility.yul\":28928:28988   */\n      tag_313\n      jump\t// in\n    tag_612:\n        /* \"#utility.yul\":28918:28988   */\n      swap3\n      pop\n        /* \"#utility.yul\":28774:28998   */\n      pop\n        /* \"#utility.yul\":28761:28762   */\n      0x01\n        /* \"#utility.yul\":28758:28759   */\n      dup2\n        /* \"#utility.yul\":28754:28763   */\n      add\n        /* \"#utility.yul\":28749:28763   */\n      swap1\n      pop\n        /* \"#utility.yul\":28714:28998   */\n      jump(tag_608)\n    tag_610:\n        /* \"#utility.yul\":28718:28732   */\n      pop\n        /* \"#utility.yul\":29014:29017   */\n      dup6\n        /* \"#utility.yul\":29007:29017   */\n      swap4\n      pop\n        /* \"#utility.yul\":28415:29023   */\n      pop\n      pop\n      pop\n        /* \"#utility.yul\":28291:29023   */\n      swap3\n      swap2\n      pop\n      pop\n      jump\t// out\n        /* \"#utility.yul\":29029:29512   */\n    tag_160:\n        /* \"#utility.yul\":29200:29204   */\n      0x00\n        /* \"#utility.yul\":29238:29240   */\n      0x40\n        /* \"#utility.yul\":29227:29236   */\n      dup3\n        /* \"#utility.yul\":29223:29241   */\n      add\n        /* \"#utility.yul\":29215:29241   */\n      swap1\n      pop\n        /* \"#utility.yul\":29287:29296   */\n      dup2\n        /* \"#utility.yul\":29281:29285   */\n      dup2\n        /* \"#utility.yul\":29277:29297   */\n      sub\n        /* \"#utility.yul\":29273:29274   */\n      0x00\n        /* \"#utility.yul\":29262:29271   */\n      dup4\n        /* \"#utility.yul\":29258:29275   */\n      add\n        /* \"#utility.yul\":29251:29298   */\n      mstore\n        /* \"#utility.yul\":29315:29423   */\n      tag_614\n        /* \"#utility.yul\":29418:29422   */\n      dup2\n        /* \"#utility.yul\":29409:29415   */\n      dup6\n        /* \"#utility.yul\":29315:29423   */\n      tag_314\n      jump\t// in\n    tag_614:\n        /* \"#utility.yul\":29307:29423   */\n      swap1\n      pop\n        /* \"#utility.yul\":29433:29505   */\n      tag_615\n        /* \"#utility.yul\":29501:29503   */\n      0x20\n        /* \"#utility.yul\":29490:29499   */\n      dup4\n        /* \"#utility.yul\":29486:29504   */\n      add\n        /* \"#utility.yul\":29477:29483   */\n      dup5\n        /* \"#utility.yul\":29433:29505   */\n      tag_264\n      jump\t// in\n    tag_615:\n        /* \"#utility.yul\":29029:29512   */\n      swap4\n      swap3\n      pop\n      pop\n      pop\n      jump\t// out\n        /* \"#utility.yul\":29518:29632   */\n    tag_315:\n        /* \"#utility.yul\":29585:29591   */\n      0x00\n        /* \"#utility.yul\":29619:29624   */\n      dup2\n        /* \"#utility.yul\":29613:29625   */\n      mload\n        /* \"#utility.yul\":29603:29625   */\n      swap1\n      pop\n        /* \"#utility.yul\":29518:29632   */\n      swap2\n      swap1\n      pop\n      jump\t// out\n        /* \"#utility.yul\":29638:29822   */\n    tag_316:\n        /* \"#utility.yul\":29737:29748   */\n      0x00\n        /* \"#utility.yul\":29771:29777   */\n      dup3\n        /* \"#utility.yul\":29766:29769   */\n      dup3\n        /* \"#utility.yul\":29759:29778   */\n      mstore\n        /* \"#utility.yul\":29811:29815   */\n      0x20\n        /* \"#utility.yul\":29806:29809   */\n      dup3\n        /* \"#utility.yul\":29802:29816   */\n      add\n        /* \"#utility.yul\":29787:29816   */\n      swap1\n      pop\n        /* \"#utility.yul\":29638:29822   */\n      swap3\n      swap2\n      pop\n      pop\n      jump\t// out\n        /* \"#utility.yul\":29828:29960   */\n    tag_317:\n        /* \"#utility.yul\":29895:29899   */\n      0x00\n        /* \"#utility.yul\":29918:29921   */\n      dup2\n        /* \"#utility.yul\":29910:29921   */\n      swap1\n      pop\n        /* \"#utility.yul\":29948:29952   */\n      0x20\n        /* \"#utility.yul\":29943:29946   */\n      dup3\n        /* \"#utility.yul\":29939:29953   */\n      add\n        /* \"#utility.yul\":29931:29953   */\n      swap1\n      pop\n        /* \"#utility.yul\":29828:29960   */\n      swap2\n      swap1\n      pop\n      jump\t// out\n        /* \"#utility.yul\":29966:30074   */\n    tag_318:\n        /* \"#utility.yul\":30043:30067   */\n      tag_620\n        /* \"#utility.yul\":30061:30066   */\n      dup2\n        /* \"#utility.yul\":30043:30067   */\n      tag_263\n      jump\t// in\n    tag_620:\n        /* \"#utility.yul\":30038:30041   */\n      dup3\n        /* \"#utility.yul\":30031:30068   */\n      mstore\n        /* \"#utility.yul\":29966:30074   */\n      pop\n      pop\n      jump\t// out\n        /* \"#utility.yul\":30080:30259   */\n    tag_319:\n        /* \"#utility.yul\":30149:30159   */\n      0x00\n        /* \"#utility.yul\":30170:30216   */\n      tag_622\n        /* \"#utility.yul\":30212:30215   */\n      dup4\n        /* \"#utility.yul\":30204:30210   */\n      dup4\n        /* \"#utility.yul\":30170:30216   */\n      tag_318\n      jump\t// in\n    tag_622:\n        /* \"#utility.yul\":30248:30252   */\n      0x20\n        /* \"#utility.yul\":30243:30246   */\n      dup4\n        /* \"#utility.yul\":30239:30253   */\n      add\n        /* \"#utility.yul\":30225:30253   */\n      swap1\n      pop\n        /* \"#utility.yul\":30080:30259   */\n      swap3\n      swap2\n      pop\n      pop\n      jump\t// out\n        /* \"#utility.yul\":30265:30378   */\n    tag_320:\n        /* \"#utility.yul\":30335:30339   */\n      0x00\n        /* \"#utility.yul\":30367:30371   */\n      0x20\n        /* \"#utility.yul\":30362:30365   */\n      dup3\n        /* \"#utility.yul\":30358:30372   */\n      add\n        /* \"#utility.yul\":30350:30372   */\n      swap1\n      pop\n        /* \"#utility.yul\":30265:30378   */\n      swap2\n      swap1\n      pop\n      jump\t// out\n        /* \"#utility.yul\":30414:31146   */\n    tag_321:\n        /* \"#utility.yul\":30533:30536   */\n      0x00\n        /* \"#utility.yul\":30562:30616   */\n      tag_625\n        /* \"#utility.yul\":30610:30615   */\n      dup3\n        /* \"#utility.yul\":30562:30616   */\n      tag_315\n      jump\t// in\n    tag_625:\n        /* \"#utility.yul\":30632:30718   */\n      tag_626\n        /* \"#utility.yul\":30711:30717   */\n      dup2\n        /* \"#utility.yul\":30706:30709   */\n      dup6\n        /* \"#utility.yul\":30632:30718   */\n      tag_316\n      jump\t// in\n    tag_626:\n        /* \"#utility.yul\":30625:30718   */\n      swap4\n      pop\n        /* \"#utility.yul\":30742:30798   */\n      tag_627\n        /* \"#utility.yul\":30792:30797   */\n      dup4\n        /* \"#utility.yul\":30742:30798   */\n      tag_317\n      jump\t// in\n    tag_627:\n        /* \"#utility.yul\":30821:30828   */\n      dup1\n        /* \"#utility.yul\":30852:30853   */\n      0x00\n        /* \"#utility.yul\":30837:31121   */\n    tag_628:\n        /* \"#utility.yul\":30862:30868   */\n      dup4\n        /* \"#utility.yul\":30859:30860   */\n      dup2\n        /* \"#utility.yul\":30856:30869   */\n      lt\n        /* \"#utility.yul\":30837:31121   */\n      iszero\n      tag_630\n      jumpi\n        /* \"#utility.yul\":30938:30944   */\n      dup2\n        /* \"#utility.yul\":30932:30945   */\n      mload\n        /* \"#utility.yul\":30965:31028   */\n      tag_631\n        /* \"#utility.yul\":31024:31027   */\n      dup9\n        /* \"#utility.yul\":31009:31022   */\n      dup3\n        /* \"#utility.yul\":30965:31028   */\n      tag_319\n      jump\t// in\n    tag_631:\n        /* \"#utility.yul\":30958:31028   */\n      swap8\n      pop\n        /* \"#utility.yul\":31051:31111   */\n      tag_632\n        /* \"#utility.yul\":31104:31110   */\n      dup4\n        /* \"#utility.yul\":31051:31111   */\n      tag_320\n      jump\t// in\n    tag_632:\n        /* \"#utility.yul\":31041:31111   */\n      swap3\n      pop\n        /* \"#utility.yul\":30897:31121   */\n      pop\n        /* \"#utility.yul\":30884:30885   */\n      0x01\n        /* \"#utility.yul\":30881:30882   */\n      dup2\n        /* \"#utility.yul\":30877:30886   */\n      add\n        /* \"#utility.yul\":30872:30886   */\n      swap1\n      pop\n        /* \"#utility.yul\":30837:31121   */\n      jump(tag_628)\n    tag_630:\n        /* \"#utility.yul\":30841:30855   */\n      pop\n        /* \"#utility.yul\":31137:31140   */\n      dup6\n        /* \"#utility.yul\":31130:31140   */\n      swap4\n      pop\n        /* \"#utility.yul\":30538:31146   */\n      pop\n      pop\n      pop\n        /* \"#utility.yul\":30414:31146   */\n      swap3\n      swap2\n      pop\n      pop\n      jump\t// out\n        /* \"#utility.yul\":31152:32571   */\n    tag_163:\n        /* \"#utility.yul\":31607:31611   */\n      0x00\n        /* \"#utility.yul\":31645:31648   */\n      0xa0\n        /* \"#utility.yul\":31634:31643   */\n      dup3\n        /* \"#utility.yul\":31630:31649   */\n      add\n        /* \"#utility.yul\":31622:31649   */\n      swap1\n      pop\n        /* \"#utility.yul\":31695:31704   */\n      dup2\n        /* \"#utility.yul\":31689:31693   */\n      dup2\n        /* \"#utility.yul\":31685:31705   */\n      sub\n        /* \"#utility.yul\":31681:31682   */\n      0x00\n        /* \"#utility.yul\":31670:31679   */\n      dup4\n        /* \"#utility.yul\":31666:31683   */\n      add\n        /* \"#utility.yul\":31659:31706   */\n      mstore\n        /* \"#utility.yul\":31723:31831   */\n      tag_634\n        /* \"#utility.yul\":31826:31830   */\n      dup2\n        /* \"#utility.yul\":31817:31823   */\n      dup9\n        /* \"#utility.yul\":31723:31831   */\n      tag_314\n      jump\t// in\n    tag_634:\n        /* \"#utility.yul\":31715:31831   */\n      swap1\n      pop\n        /* \"#utility.yul\":31878:31887   */\n      dup2\n        /* \"#utility.yul\":31872:31876   */\n      dup2\n        /* \"#utility.yul\":31868:31888   */\n      sub\n        /* \"#utility.yul\":31863:31865   */\n      0x20\n        /* \"#utility.yul\":31852:31861   */\n      dup4\n        /* \"#utility.yul\":31848:31866   */\n      add\n        /* \"#utility.yul\":31841:31889   */\n      mstore\n        /* \"#utility.yul\":31906:32014   */\n      tag_635\n        /* \"#utility.yul\":32009:32013   */\n      dup2\n        /* \"#utility.yul\":32000:32006   */\n      dup8\n        /* \"#utility.yul\":31906:32014   */\n      tag_321\n      jump\t// in\n    tag_635:\n        /* \"#utility.yul\":31898:32014   */\n      swap1\n      pop\n        /* \"#utility.yul\":32061:32070   */\n      dup2\n        /* \"#utility.yul\":32055:32059   */\n      dup2\n        /* \"#utility.yul\":32051:32071   */\n      sub\n        /* \"#utility.yul\":32046:32048   */\n      0x40\n        /* \"#utility.yul\":32035:32044   */\n      dup4\n        /* \"#utility.yul\":32031:32049   */\n      add\n        /* \"#utility.yul\":32024:32072   */\n      mstore\n        /* \"#utility.yul\":32089:32197   */\n      tag_636\n        /* \"#utility.yul\":32192:32196   */\n      dup2\n        /* \"#utility.yul\":32183:32189   */\n      dup7\n        /* \"#utility.yul\":32089:32197   */\n      tag_321\n      jump\t// in\n    tag_636:\n        /* \"#utility.yul\":32081:32197   */\n      swap1\n      pop\n        /* \"#utility.yul\":32244:32253   */\n      dup2\n        /* \"#utility.yul\":32238:32242   */\n      dup2\n        /* \"#utility.yul\":32234:32254   */\n      sub\n        /* \"#utility.yul\":32229:32231   */\n      0x60\n        /* \"#utility.yul\":32218:32227   */\n      dup4\n        /* \"#utility.yul\":32214:32232   */\n      add\n        /* \"#utility.yul\":32207:32255   */\n      mstore\n        /* \"#utility.yul\":32272:32380   */\n      tag_637\n        /* \"#utility.yul\":32375:32379   */\n      dup2\n        /* \"#utility.yul\":32366:32372   */\n      dup6\n        /* \"#utility.yul\":32272:32380   */\n      tag_321\n      jump\t// in\n    tag_637:\n        /* \"#utility.yul\":32264:32380   */\n      swap1\n      pop\n        /* \"#utility.yul\":32428:32437   */\n      dup2\n        /* \"#utility.yul\":32422:32426   */\n      dup2\n        /* \"#utility.yul\":32418:32438   */\n      sub\n        /* \"#utility.yul\":32412:32415   */\n      0x80\n        /* \"#utility.yul\":32401:32410   */\n      dup4\n        /* \"#utility.yul\":32397:32416   */\n      add\n        /* \"#utility.yul\":32390:32439   */\n      mstore\n        /* \"#utility.yul\":32456:32564   */\n      tag_638\n        /* \"#utility.yul\":32559:32563   */\n      dup2\n        /* \"#utility.yul\":32550:32556   */\n      dup5\n        /* \"#utility.yul\":32456:32564   */\n      tag_321\n      jump\t// in\n    tag_638:\n        /* \"#utility.yul\":32448:32564   */\n      swap1\n      pop\n        /* \"#utility.yul\":31152:32571   */\n      swap7\n      swap6\n      pop\n      pop\n      pop\n      pop\n      pop\n      pop\n      jump\t// out\n        /* \"#utility.yul\":32577:32681   */\n    tag_322:\n        /* \"#utility.yul\":32622:32629   */\n      0x00\n        /* \"#utility.yul\":32651:32675   */\n      tag_640\n        /* \"#utility.yul\":32669:32674   */\n      dup3\n        /* \"#utility.yul\":32651:32675   */\n      tag_259\n      jump\t// in\n    tag_640:\n        /* \"#utility.yul\":32640:32675   */\n      swap1\n      pop\n        /* \"#utility.yul\":32577:32681   */\n      swap2\n      swap1\n      pop\n      jump\t// out\n        /* \"#utility.yul\":32687:32825   */\n    tag_323:\n        /* \"#utility.yul\":32768:32800   */\n      tag_642\n        /* \"#utility.yul\":32794:32799   */\n      dup2\n        /* \"#utility.yul\":32768:32800   */\n      tag_322\n      jump\t// in\n    tag_642:\n        /* \"#utility.yul\":32761:32766   */\n      dup2\n        /* \"#utility.yul\":32758:32801   */\n      eq\n        /* \"#utility.yul\":32748:32819   */\n      tag_643\n      jumpi\n        /* \"#utility.yul\":32815:32816   */\n      0x00\n        /* \"#utility.yul\":32812:32813   */\n      0x00\n        /* \"#utility.yul\":32805:32817   */\n      revert\n        /* \"#utility.yul\":32748:32819   */\n    tag_643:\n        /* \"#utility.yul\":32687:32825   */\n      pop\n      jump\t// out\n        /* \"#utility.yul\":32831:32990   */\n    tag_324:\n        /* \"#utility.yul\":32896:32901   */\n      0x00\n        /* \"#utility.yul\":32927:32933   */\n      dup2\n        /* \"#utility.yul\":32921:32934   */\n      mload\n        /* \"#utility.yul\":32912:32934   */\n      swap1\n      pop\n        /* \"#utility.yul\":32943:32984   */\n      tag_645\n        /* \"#utility.yul\":32978:32983   */\n      dup2\n        /* \"#utility.yul\":32943:32984   */\n      tag_323\n      jump\t// in\n    tag_645:\n        /* \"#utility.yul\":32831:32990   */\n      swap3\n      swap2\n      pop\n      pop\n      jump\t// out\n        /* \"#utility.yul\":32996:33675   */\n    tag_168:\n        /* \"#utility.yul\":33092:33098   */\n      0x00\n        /* \"#utility.yul\":33100:33106   */\n      0x00\n        /* \"#utility.yul\":33108:33114   */\n      0x00\n        /* \"#utility.yul\":33157:33159   */\n      0x60\n        /* \"#utility.yul\":33145:33154   */\n      dup5\n        /* \"#utility.yul\":33136:33143   */\n      dup7\n        /* \"#utility.yul\":33132:33155   */\n      sub\n        /* \"#utility.yul\":33128:33160   */\n      slt\n        /* \"#utility.yul\":33125:33244   */\n      iszero\n      tag_647\n      jumpi\n        /* \"#utility.yul\":33163:33242   */\n      tag_648\n      tag_247\n      jump\t// in\n    tag_648:\n        /* \"#utility.yul\":33125:33244   */\n    tag_647:\n        /* \"#utility.yul\":33283:33284   */\n      0x00\n        /* \"#utility.yul\":33308:33380   */\n      tag_649\n        /* \"#utility.yul\":33372:33379   */\n      dup7\n        /* \"#utility.yul\":33363:33369   */\n      dup3\n        /* \"#utility.yul\":33352:33361   */\n      dup8\n        /* \"#utility.yul\":33348:33370   */\n      add\n        /* \"#utility.yul\":33308:33380   */\n      tag_324\n      jump\t// in\n    tag_649:\n        /* \"#utility.yul\":33298:33380   */\n      swap4\n      pop\n        /* \"#utility.yul\":33254:33390   */\n      pop\n        /* \"#utility.yul\":33429:33431   */\n      0x20\n        /* \"#utility.yul\":33455:33519   */\n      tag_650\n        /* \"#utility.yul\":33511:33518   */\n      dup7\n        /* \"#utility.yul\":33502:33508   */\n      dup3\n        /* \"#utility.yul\":33491:33500   */\n      dup8\n        /* \"#utility.yul\":33487:33509   */\n      add\n        /* \"#utility.yul\":33455:33519   */\n      tag_289\n      jump\t// in\n    tag_650:\n        /* \"#utility.yul\":33445:33519   */\n      swap3\n      pop\n        /* \"#utility.yul\":33400:33529   */\n      pop\n        /* \"#utility.yul\":33568:33570   */\n      0x40\n        /* \"#utility.yul\":33594:33658   */\n      tag_651\n        /* \"#utility.yul\":33650:33657   */\n      dup7\n        /* \"#utility.yul\":33641:33647   */\n      dup3\n        /* \"#utility.yul\":33630:33639   */\n      dup8\n        /* \"#utility.yul\":33626:33648   */\n      add\n        /* \"#utility.yul\":33594:33658   */\n      tag_289\n      jump\t// in\n    tag_651:\n        /* \"#utility.yul\":33584:33658   */\n      swap2\n      pop\n        /* \"#utility.yul\":33539:33668   */\n      pop\n        /* \"#utility.yul\":32996:33675   */\n      swap3\n      pop\n      swap3\n      pop\n      swap3\n      jump\t// out\n        /* \"#utility.yul\":33681:33852   */\n    tag_325:\n        /* \"#utility.yul\":33821:33844   */\n      0x496e76616c696420746f6b656e20616464726573730000000000000000000000\n        /* \"#utility.yul\":33817:33818   */\n      0x00\n        /* \"#utility.yul\":33809:33815   */\n      dup3\n        /* \"#utility.yul\":33805:33819   */\n      add\n        /* \"#utility.yul\":33798:33845   */\n      mstore\n        /* \"#utility.yul\":33681:33852   */\n      pop\n      jump\t// out\n        /* \"#utility.yul\":33858:34224   */\n    tag_326:\n        /* \"#utility.yul\":34000:34003   */\n      0x00\n        /* \"#utility.yul\":34021:34088   */\n      tag_654\n        /* \"#utility.yul\":34085:34087   */\n      0x15\n        /* \"#utility.yul\":34080:34083   */\n      dup4\n        /* \"#utility.yul\":34021:34088   */\n      tag_292\n      jump\t// in\n    tag_654:\n        /* \"#utility.yul\":34014:34088   */\n      swap2\n      pop\n        /* \"#utility.yul\":34097:34190   */\n      tag_655\n        /* \"#utility.yul\":34186:34189   */\n      dup3\n        /* \"#utility.yul\":34097:34190   */\n      tag_325\n      jump\t// in\n    tag_655:\n        /* \"#utility.yul\":34215:34217   */\n      0x20\n        /* \"#utility.yul\":34210:34213   */\n      dup3\n        /* \"#utility.yul\":34206:34218   */\n      add\n        /* \"#utility.yul\":34199:34218   */\n      swap1\n      pop\n        /* \"#utility.yul\":33858:34224   */\n      swap2\n      swap1\n      pop\n      jump\t// out\n        /* \"#utility.yul\":34230:34649   */\n    tag_171:\n        /* \"#utility.yul\":34396:34400   */\n      0x00\n        /* \"#utility.yul\":34434:34436   */\n      0x20\n        /* \"#utility.yul\":34423:34432   */\n      dup3\n        /* \"#utility.yul\":34419:34437   */\n      add\n        /* \"#utility.yul\":34411:34437   */\n      swap1\n      pop\n        /* \"#utility.yul\":34483:34492   */\n      dup2\n        /* \"#utility.yul\":34477:34481   */\n      dup2\n        /* \"#utility.yul\":34473:34493   */\n      sub\n        /* \"#utility.yul\":34469:34470   */\n      0x00\n        /* \"#utility.yul\":34458:34467   */\n      dup4\n        /* \"#utility.yul\":34454:34471   */\n      add\n        /* \"#utility.yul\":34447:34494   */\n      mstore\n        /* \"#utility.yul\":34511:34642   */\n      tag_657\n        /* \"#utility.yul\":34637:34641   */\n      dup2\n        /* \"#utility.yul\":34511:34642   */\n      tag_326\n      jump\t// in\n    tag_657:\n        /* \"#utility.yul\":34503:34642   */\n      swap1\n      pop\n        /* \"#utility.yul\":34230:34649   */\n      swap2\n      swap1\n      pop\n      jump\t// out\n        /* \"#utility.yul\":34655:34987   */\n    tag_173:\n        /* \"#utility.yul\":34776:34780   */\n      0x00\n        /* \"#utility.yul\":34814:34816   */\n      0x40\n        /* \"#utility.yul\":34803:34812   */\n      dup3\n        /* \"#utility.yul\":34799:34817   */\n      add\n        /* \"#utility.yul\":34791:34817   */\n      swap1\n      pop\n        /* \"#utility.yul\":34827:34898   */\n      tag_659\n        /* \"#utility.yul\":34895:34896   */\n      0x00\n        /* \"#utility.yul\":34884:34893   */\n      dup4\n        /* \"#utility.yul\":34880:34897   */\n      add\n        /* \"#utility.yul\":34871:34877   */\n      dup6\n        /* \"#utility.yul\":34827:34898   */\n      tag_264\n      jump\t// in\n    tag_659:\n        /* \"#utility.yul\":34908:34980   */\n      tag_660\n        /* \"#utility.yul\":34976:34978   */\n      0x20\n        /* \"#utility.yul\":34965:34974   */\n      dup4\n        /* \"#utility.yul\":34961:34979   */\n      add\n        /* \"#utility.yul\":34952:34958   */\n      dup5\n        /* \"#utility.yul\":34908:34980   */\n      tag_264\n      jump\t// in\n    tag_660:\n        /* \"#utility.yul\":34655:34987   */\n      swap4\n      swap3\n      pop\n      pop\n      pop\n      jump\t// out\n        /* \"#utility.yul\":34993:35325   */\n    tag_193:\n        /* \"#utility.yul\":35114:35118   */\n      0x00\n        /* \"#utility.yul\":35152:35154   */\n      0x40\n        /* \"#utility.yul\":35141:35150   */\n      dup3\n        /* \"#utility.yul\":35137:35155   */\n      add\n        /* \"#utility.yul\":35129:35155   */\n      swap1\n      pop\n        /* \"#utility.yul\":35165:35236   */\n      tag_662\n        /* \"#utility.yul\":35233:35234   */\n      0x00\n        /* \"#utility.yul\":35222:35231   */\n      dup4\n        /* \"#utility.yul\":35218:35235   */\n      add\n        /* \"#utility.yul\":35209:35215   */\n      dup6\n        /* \"#utility.yul\":35165:35236   */\n      tag_280\n      jump\t// in\n    tag_662:\n        /* \"#utility.yul\":35246:35318   */\n      tag_663\n        /* \"#utility.yul\":35314:35316   */\n      0x20\n        /* \"#utility.yul\":35303:35312   */\n      dup4\n        /* \"#utility.yul\":35299:35317   */\n      add\n        /* \"#utility.yul\":35290:35296   */\n      dup5\n        /* \"#utility.yul\":35246:35318   */\n      tag_264\n      jump\t// in\n    tag_663:\n        /* \"#utility.yul\":34993:35325   */\n      swap4\n      swap3\n      pop\n      pop\n      pop\n      jump\t// out\n        /* \"#utility.yul\":35331:35447   */\n    tag_327:\n        /* \"#utility.yul\":35401:35422   */\n      tag_665\n        /* \"#utility.yul\":35416:35421   */\n      dup2\n        /* \"#utility.yul\":35401:35422   */\n      tag_278\n      jump\t// in\n    tag_665:\n        /* \"#utility.yul\":35394:35399   */\n      dup2\n        /* \"#utility.yul\":35391:35423   */\n      eq\n        /* \"#utility.yul\":35381:35441   */\n      tag_666\n      jumpi\n        /* \"#utility.yul\":35437:35438   */\n      0x00\n        /* \"#utility.yul\":35434:35435   */\n      0x00\n        /* \"#utility.yul\":35427:35439   */\n      revert\n        /* \"#utility.yul\":35381:35441   */\n    tag_666:\n        /* \"#utility.yul\":35331:35447   */\n      pop\n      jump\t// out\n        /* \"#utility.yul\":35453:35590   */\n    tag_328:\n        /* \"#utility.yul\":35507:35512   */\n      0x00\n        /* \"#utility.yul\":35538:35544   */\n      dup2\n        /* \"#utility.yul\":35532:35545   */\n      mload\n        /* \"#utility.yul\":35523:35545   */\n      swap1\n      pop\n        /* \"#utility.yul\":35554:35584   */\n      tag_668\n        /* \"#utility.yul\":35578:35583   */\n      dup2\n        /* \"#utility.yul\":35554:35584   */\n      tag_327\n      jump\t// in\n    tag_668:\n        /* \"#utility.yul\":35453:35590   */\n      swap3\n      swap2\n      pop\n      pop\n      jump\t// out\n        /* \"#utility.yul\":35596:35941   */\n    tag_197:\n        /* \"#utility.yul\":35663:35669   */\n      0x00\n        /* \"#utility.yul\":35712:35714   */\n      0x20\n        /* \"#utility.yul\":35700:35709   */\n      dup3\n        /* \"#utility.yul\":35691:35698   */\n      dup5\n        /* \"#utility.yul\":35687:35710   */\n      sub\n        /* \"#utility.yul\":35683:35715   */\n      slt\n        /* \"#utility.yul\":35680:35799   */\n      iszero\n      tag_670\n      jumpi\n        /* \"#utility.yul\":35718:35797   */\n      tag_671\n      tag_247\n      jump\t// in\n    tag_671:\n        /* \"#utility.yul\":35680:35799   */\n    tag_670:\n        /* \"#utility.yul\":35838:35839   */\n      0x00\n        /* \"#utility.yul\":35863:35924   */\n      tag_672\n        /* \"#utility.yul\":35916:35923   */\n      dup5\n        /* \"#utility.yul\":35907:35913   */\n      dup3\n        /* \"#utility.yul\":35896:35905   */\n      dup6\n        /* \"#utility.yul\":35892:35914   */\n      add\n        /* \"#utility.yul\":35863:35924   */\n      tag_328\n      jump\t// in\n    tag_672:\n        /* \"#utility.yul\":35853:35924   */\n      swap2\n      pop\n        /* \"#utility.yul\":35809:35934   */\n      pop\n        /* \"#utility.yul\":35596:35941   */\n      swap3\n      swap2\n      pop\n      pop\n      jump\t// out\n        /* \"#utility.yul\":35947:36141   */\n    tag_211:\n        /* \"#utility.yul\":35987:35991   */\n      0x00\n        /* \"#utility.yul\":36007:36027   */\n      tag_674\n        /* \"#utility.yul\":36025:36026   */\n      dup3\n        /* \"#utility.yul\":36007:36027   */\n      tag_263\n      jump\t// in\n    tag_674:\n        /* \"#utility.yul\":36002:36027   */\n      swap2\n      pop\n        /* \"#utility.yul\":36041:36061   */\n      tag_675\n        /* \"#utility.yul\":36059:36060   */\n      dup4\n        /* \"#utility.yul\":36041:36061   */\n      tag_263\n      jump\t// in\n    tag_675:\n        /* \"#utility.yul\":36036:36061   */\n      swap3\n      pop\n        /* \"#utility.yul\":36085:36086   */\n      dup3\n        /* \"#utility.yul\":36082:36083   */\n      dup3\n        /* \"#utility.yul\":36078:36087   */\n      sub\n        /* \"#utility.yul\":36070:36087   */\n      swap1\n      pop\n        /* \"#utility.yul\":36109:36110   */\n      dup2\n        /* \"#utility.yul\":36103:36107   */\n      dup2\n        /* \"#utility.yul\":36100:36111   */\n      gt\n        /* \"#utility.yul\":36097:36134   */\n      iszero\n      tag_676\n      jumpi\n        /* \"#utility.yul\":36114:36132   */\n      tag_677\n      tag_297\n      jump\t// in\n    tag_677:\n        /* \"#utility.yul\":36097:36134   */\n    tag_676:\n        /* \"#utility.yul\":35947:36141   */\n      swap3\n      swap2\n      pop\n      pop\n      jump\t// out\n        /* \"#utility.yul\":36147:36589   */\n    tag_215:\n        /* \"#utility.yul\":36296:36300   */\n      0x00\n        /* \"#utility.yul\":36334:36336   */\n      0x60\n        /* \"#utility.yul\":36323:36332   */\n      dup3\n        /* \"#utility.yul\":36319:36337   */\n      add\n        /* \"#utility.yul\":36311:36337   */\n      swap1\n      pop\n        /* \"#utility.yul\":36347:36418   */\n      tag_679\n        /* \"#utility.yul\":36415:36416   */\n      0x00\n        /* \"#utility.yul\":36404:36413   */\n      dup4\n        /* \"#utility.yul\":36400:36417   */\n      add\n        /* \"#utility.yul\":36391:36397   */\n      dup7\n        /* \"#utility.yul\":36347:36418   */\n      tag_280\n      jump\t// in\n    tag_679:\n        /* \"#utility.yul\":36428:36500   */\n      tag_680\n        /* \"#utility.yul\":36496:36498   */\n      0x20\n        /* \"#utility.yul\":36485:36494   */\n      dup4\n        /* \"#utility.yul\":36481:36499   */\n      add\n        /* \"#utility.yul\":36472:36478   */\n      dup6\n        /* \"#utility.yul\":36428:36500   */\n      tag_264\n      jump\t// in\n    tag_680:\n        /* \"#utility.yul\":36510:36582   */\n      tag_681\n        /* \"#utility.yul\":36578:36580   */\n      0x40\n        /* \"#utility.yul\":36567:36576   */\n      dup4\n        /* \"#utility.yul\":36563:36581   */\n      add\n        /* \"#utility.yul\":36554:36560   */\n      dup5\n        /* \"#utility.yul\":36510:36582   */\n      tag_264\n      jump\t// in\n    tag_681:\n        /* \"#utility.yul\":36147:36589   */\n      swap5\n      swap4\n      pop\n      pop\n      pop\n      pop\n      jump\t// out\n        /* \"#utility.yul\":36595:37005   */\n    tag_242:\n        /* \"#utility.yul\":36635:36642   */\n      0x00\n        /* \"#utility.yul\":36658:36678   */\n      tag_683\n        /* \"#utility.yul\":36676:36677   */\n      dup3\n        /* \"#utility.yul\":36658:36678   */\n      tag_263\n      jump\t// in\n    tag_683:\n        /* \"#utility.yul\":36653:36678   */\n      swap2\n      pop\n        /* \"#utility.yul\":36692:36712   */\n      tag_684\n        /* \"#utility.yul\":36710:36711   */\n      dup4\n        /* \"#utility.yul\":36692:36712   */\n      tag_263\n      jump\t// in\n    tag_684:\n        /* \"#utility.yul\":36687:36712   */\n      swap3\n      pop\n        /* \"#utility.yul\":36747:36748   */\n      dup3\n        /* \"#utility.yul\":36744:36745   */\n      dup3\n        /* \"#utility.yul\":36740:36749   */\n      mul\n        /* \"#utility.yul\":36769:36799   */\n      tag_685\n        /* \"#utility.yul\":36787:36798   */\n      dup2\n        /* \"#utility.yul\":36769:36799   */\n      tag_263\n      jump\t// in\n    tag_685:\n        /* \"#utility.yul\":36758:36799   */\n      swap2\n      pop\n        /* \"#utility.yul\":36948:36949   */\n      dup3\n        /* \"#utility.yul\":36939:36946   */\n      dup3\n        /* \"#utility.yul\":36935:36950   */\n      div\n        /* \"#utility.yul\":36932:36933   */\n      dup5\n        /* \"#utility.yul\":36929:36951   */\n      eq\n        /* \"#utility.yul\":36909:36910   */\n      dup4\n        /* \"#utility.yul\":36902:36911   */\n      iszero\n        /* \"#utility.yul\":36882:36965   */\n      or\n        /* \"#utility.yul\":36859:36998   */\n      tag_686\n      jumpi\n        /* \"#utility.yul\":36978:36996   */\n      tag_687\n      tag_297\n      jump\t// in\n    tag_687:\n        /* \"#utility.yul\":36859:36998   */\n    tag_686:\n        /* \"#utility.yul\":36643:37005   */\n      pop\n        /* \"#utility.yul\":36595:37005   */\n      swap3\n      swap2\n      pop\n      pop\n      jump\t// out\n        /* \"#utility.yul\":37011:37191   */\n    tag_329:\n        /* \"#utility.yul\":37059:37136   */\n      0x4e487b7100000000000000000000000000000000000000000000000000000000\n        /* \"#utility.yul\":37056:37057   */\n      0x00\n        /* \"#utility.yul\":37049:37137   */\n      mstore\n        /* \"#utility.yul\":37156:37160   */\n      0x12\n        /* \"#utility.yul\":37153:37154   */\n      0x04\n        /* \"#utility.yul\":37146:37161   */\n      mstore\n        /* \"#utility.yul\":37180:37184   */\n      0x24\n        /* \"#utility.yul\":37177:37178   */\n      0x00\n        /* \"#utility.yul\":37170:37185   */\n      revert\n        /* \"#utility.yul\":37197:37382   */\n    tag_244:\n        /* \"#utility.yul\":37237:37238   */\n      0x00\n        /* \"#utility.yul\":37254:37274   */\n      tag_690\n        /* \"#utility.yul\":37272:37273   */\n      dup3\n        /* \"#utility.yul\":37254:37274   */\n      tag_263\n      jump\t// in\n    tag_690:\n        /* \"#utility.yul\":37249:37274   */\n      swap2\n      pop\n        /* \"#utility.yul\":37288:37308   */\n      tag_691\n        /* \"#utility.yul\":37306:37307   */\n      dup4\n        /* \"#utility.yul\":37288:37308   */\n      tag_263\n      jump\t// in\n    tag_691:\n        /* \"#utility.yul\":37283:37308   */\n      swap3\n      pop\n        /* \"#utility.yul\":37327:37328   */\n      dup3\n        /* \"#utility.yul\":37317:37352   */\n      tag_692\n      jumpi\n        /* \"#utility.yul\":37332:37350   */\n      tag_693\n      tag_329\n      jump\t// in\n    tag_693:\n        /* \"#utility.yul\":37317:37352   */\n    tag_692:\n        /* \"#utility.yul\":37374:37375   */\n      dup3\n        /* \"#utility.yul\":37371:37372   */\n      dup3\n        /* \"#utility.yul\":37367:37376   */\n      div\n        /* \"#utility.yul\":37362:37376   */\n      swap1\n      pop\n        /* \"#utility.yul\":37197:37382   */\n      swap3\n      swap2\n      pop\n      pop\n      jump\t// out\n\n    auxdata: 0xa2646970667358221220700748e76eb248c3c054eb25c59a9a8cd3ff572568c1c1f484f06fa298064f3964736f6c634300081d0033\n}\n",
				"bytecode": {
					"linkReferences": {},
					"object": "608060405234801561000f575f5ffd5b50335f73ffffffffffffffffffffffffffffffffffffffff168173ffffffffffffffffffffffffffffffffffffffff1603610081575f6040517f1e4fbdf70000000000000000000000000000000000000000000000000000000081526004016100789190610196565b60405180910390fd5b6100908161009660201b60201c565b506101af565b5f5f5f9054906101000a900473ffffffffffffffffffffffffffffffffffffffff169050815f5f6101000a81548173ffffffffffffffffffffffffffffffffffffffff021916908373ffffffffffffffffffffffffffffffffffffffff1602179055508173ffffffffffffffffffffffffffffffffffffffff168173ffffffffffffffffffffffffffffffffffffffff167f8be0079c531659141344cd1fd0a4f28419497f9722a3daafe3b4186f6b6457e060405160405180910390a35050565b5f73ffffffffffffffffffffffffffffffffffffffff82169050919050565b5f61018082610157565b9050919050565b61019081610176565b82525050565b5f6020820190506101a95f830184610187565b92915050565b61268b806101bc5f395ff3fe608060405234801561000f575f5ffd5b50600436106100e7575f3560e01c80638da5cb5b1161008a578063adc25bde11610064578063adc25bde1461024a578063f2fde38b14610268578063fc0c546a14610284578063fdea3657146102a2576100e7565b80638da5cb5b146101e05780638e7d947d146101fe57806391dc11fe1461022e576100e7565b8063439fab91116100c6578063439fab911461016c5780634e71d92d1461019c578063715018a6146101a657806389885049146101b0576100e7565b8062c3e8d1146100eb57806301567739146101075780634221338e1461013c575b5f5ffd5b61010560048036038101906101009190611587565b6102c0565b005b610121600480360381019061011c9190611628565b610985565b6040516101339695949392919061166b565b60405180910390f35b61015660048036038101906101519190611878565b6109bd565b60405161016391906119db565b60405180910390f35b61018660048036038101906101819190611587565b6109f2565b6040516101939190611a15565b60405180910390f35b6101a4610b92565b005b6101ae610f87565b005b6101ca60048036038101906101c59190611628565b610f9a565b6040516101d79190611a2e565b60405180910390f35b6101e8611073565b6040516101f59190611a56565b60405180910390f35b61021860048036038101906102139190611a6f565b61109a565b60405161022591906119db565b60405180910390f35b61024860048036038101906102439190611abf565b6110c9565b005b61025261111c565b60405161025f9190611a2e565b60405180910390f35b610282600480360381019061027d9190611628565b611122565b005b61028c6111a6565b6040516102999190611b58565b60405180910390f35b6102aa6111cb565b6040516102b79190611a2e565b60405180910390f35b6102c86111d1565b600160159054906101000a900460ff161561030f576040517f72de7acd00000000000000000000000000000000000000000000000000000000815260040160405180910390fd5b5f5f5f5f5f858060200190518101906103289190611cc3565b9450945094509450945083518551148015610344575082518551145b8015610351575081518551145b801561035e575080518551145b61039d576040517f08c379a000000000000000000000000000000000000000000000000000000000815260040161039490611e20565b60405180910390fd5b5f8551116103e0576040517f08c379a00000000000000000000000000000000000000000000000000000000081526004016103d790611e88565b60405180910390fd5b5f5f90505f5f90505b85518110156104275785818151811061040557610404611ea6565b5b6020026020010151826104189190611f00565b915080806001019150506103e9565b508060015f9054906101000a900473ffffffffffffffffffffffffffffffffffffffff1673ffffffffffffffffffffffffffffffffffffffff166370a08231306040518263ffffffff1660e01b81526004016104839190611a56565b602060405180830381865afa15801561049e573d5f5f3e3d5ffd5b505050506040513d601f19601f820116820180604052508101906104c29190611f33565b10156104fa576040517f5954b70c00000000000000000000000000000000000000000000000000000000815260040160405180910390fd5b5f5f90505b8651811015610928575f73ffffffffffffffffffffffffffffffffffffffff1687828151811061053257610531611ea6565b5b602002602001015173ffffffffffffffffffffffffffffffffffffffff1603610590576040517f08c379a000000000000000000000000000000000000000000000000000000000815260040161058790611fa8565b60405180910390fd5b5f8682815181106105a4576105a3611ea6565b5b6020026020010151116105ec576040517f08c379a00000000000000000000000000000000000000000000000000000000081526004016105e390612010565b60405180910390fd5b5f838281518110610600576105ff611ea6565b5b602002602001015111610648576040517f08c379a000000000000000000000000000000000000000000000000000000000815260040161063f90612078565b60405180910390fd5b4285828151811061065c5761065b611ea6565b5b602002602001015110156106a5576040517f08c379a000000000000000000000000000000000000000000000000000000000815260040161069c906120e0565b60405180910390fd5b8281815181106106b8576106b7611ea6565b5b60200260200101518482815181106106d3576106d2611ea6565b5b6020026020010151111561071c576040517f08c379a000000000000000000000000000000000000000000000000000000000815260040161071390612148565b60405180910390fd5b6040518060c0016040528087838151811061073a57610739611ea6565b5b6020026020010151815260200186838151811061075a57610759611ea6565b5b6020026020010151815260200185838151811061077a57610779611ea6565b5b6020026020010151815260200184838151811061079a57610799611ea6565b5b602002602001015181526020015f81526020015f81525060045f8984815181106107c7576107c6611ea6565b5b602002602001015173ffffffffffffffffffffffffffffffffffffffff1673ffffffffffffffffffffffffffffffffffffffff1681526020019081526020015f205f820151815f01556020820151816001015560408201518160020155606082015181600301556080820151816004015560a0820151816005015590505086818151811061085857610857611ea6565b5b602002602001015173ffffffffffffffffffffffffffffffffffffffff167f1f398278a6852e1859b06353dc838f7fe06b53a47b9cc30937c289c9cc3881a48783815181106108aa576108a9611ea6565b5b60200260200101518784815181106108c5576108c4611ea6565b5b60200260200101518785815181106108e0576108df611ea6565b5b60200260200101518786815181106108fb576108fa611ea6565b5b60200260200101516040516109139493929190612166565b60405180910390a280806001019150506104ff565b5060018060156101000a81548160ff0219169083151502179055507f746cdb702729916e6f99ea1897ae19bdb8d0de9b9e9cc2fb4234b19e5bf0d78a8682604051610974929190612260565b60405180910390a150505050505050565b6004602052805f5260405f205f91509050805f0154908060010154908060020154908060030154908060040154908060050154905086565b606085858585856040516020016109d8959493929190612345565b604051602081830303815290604052905095945050505050565b5f600160149054906101000a900460ff1615610a3a576040517f0dc149f000000000000000000000000000000000000000000000000000000000815260040160405180910390fd5b5f5f5f84806020019051810190610a5191906123f4565b9250925092505f73ffffffffffffffffffffffffffffffffffffffff168373ffffffffffffffffffffffffffffffffffffffff1603610ac5576040517f08c379a0000000000000000000000000000000000000000000000000000000008152600401610abc9061248e565b60405180910390fd5b8260015f6101000a81548173ffffffffffffffffffffffffffffffffffffffff021916908373ffffffffffffffffffffffffffffffffffffffff160217905550816002819055508060038190555060018060146101000a81548160ff0219169083151502179055508273ffffffffffffffffffffffffffffffffffffffff167f0f91882b50d9330af0b1d4998e6af7f2eaee90ce7e77ea54fea089af166d021d8383604051610b759291906124ac565b60405180910390a2610b8633611258565b60019350505050919050565b600160159054906101000a900460ff16610bd8576040517f35549be800000000000000000000000000000000000000000000000000000000815260040160405180910390fd5b5f60045f3373ffffffffffffffffffffffffffffffffffffffff1673ffffffffffffffffffffffffffffffffffffffff1681526020019081526020015f2090505f815f015411610c54576040517f361b195400000000000000000000000000000000000000000000000000000000815260040160405180910390fd5b80600201548160010154610c689190611f00565b4211610ca0576040517f392a328700000000000000000000000000000000000000000000000000000000815260040160405180910390fd5b6002548160050154610cb29190611f00565b421015610ceb576040517f9e49499400000000000000000000000000000000000000000000000000000000815260040160405180910390fd5b5f610cf533610f9a565b9050600354811015610d33576040517f95e4b14c00000000000000000000000000000000000000000000000000000000815260040160405180910390fd5b5f8111610d6c576040517f969bf72800000000000000000000000000000000000000000000000000000000815260040160405180910390fd5b8060015f9054906101000a900473ffffffffffffffffffffffffffffffffffffffff1673ffffffffffffffffffffffffffffffffffffffff166370a08231306040518263ffffffff1660e01b8152600401610dc79190611a56565b602060405180830381865afa158015610de2573d5f5f3e3d5ffd5b505050506040513d601f19601f82011682018060405250810190610e069190611f33565b1015610e3e576040517fe4455cae00000000000000000000000000000000000000000000000000000000815260040160405180910390fd5b80826004015f828254610e519190611f00565b9250508190555042826005018190555060015f9054906101000a900473ffffffffffffffffffffffffffffffffffffffff1673ffffffffffffffffffffffffffffffffffffffff1663a9059cbb33836040518363ffffffff1660e01b8152600401610ebd9291906124d3565b6020604051808303815f875af1158015610ed9573d5f5f3e3d5ffd5b505050506040513d601f19601f82011682018060405250810190610efd9190612524565b610f33576040517f90b8ec1800000000000000000000000000000000000000000000000000000000815260040160405180910390fd5b3373ffffffffffffffffffffffffffffffffffffffff167f34fcbac0073d7c3d388e51312faf357774904998eeb8fca628b9e6f65ee1cbf78242604051610f7b9291906124ac565b60405180910390a25050565b610f8f6111d1565b610f985f611258565b565b5f5f60045f8473ffffffffffffffffffffffffffffffffffffffff1673ffffffffffffffffffffffffffffffffffffffff1681526020019081526020015f206040518060c00160405290815f82015481526020016001820154815260200160028201548152602001600382015481526020016004820154815260200160058201548152505090505f815f015114806110445750806040015181602001516110419190611f00565b42105b15611052575f91505061106e565b806080015161106084611319565b61106a919061254f565b9150505b919050565b5f5f5f9054906101000a900473ffffffffffffffffffffffffffffffffffffffff16905090565b60608383836040516020016110b193929190612582565b60405160208183030381529060405290509392505050565b6110d16111d1565b81600281905550806003819055507f64df5f7e1804e0833e0de6a22852912960e50c4760c47d96f88138f67097591282826040516111109291906124ac565b60405180910390a15050565b60035481565b61112a6111d1565b5f73ffffffffffffffffffffffffffffffffffffffff168173ffffffffffffffffffffffffffffffffffffffff160361119a575f6040517f1e4fbdf70000000000000000000000000000000000000000000000000000000081526004016111919190611a56565b60405180910390fd5b6111a381611258565b50565b60015f9054906101000a900473ffffffffffffffffffffffffffffffffffffffff1681565b60025481565b6111d9611433565b73ffffffffffffffffffffffffffffffffffffffff166111f7611073565b73ffffffffffffffffffffffffffffffffffffffff16146112565761121a611433565b6040517f118cdaa700000000000000000000000000000000000000000000000000000000815260040161124d9190611a56565b60405180910390fd5b565b5f5f5f9054906101000a900473ffffffffffffffffffffffffffffffffffffffff169050815f5f6101000a81548173ffffffffffffffffffffffffffffffffffffffff021916908373ffffffffffffffffffffffffffffffffffffffff1602179055508173ffffffffffffffffffffffffffffffffffffffff168173ffffffffffffffffffffffffffffffffffffffff167f8be0079c531659141344cd1fd0a4f28419497f9722a3daafe3b4186f6b6457e060405160405180910390a35050565b5f5f60045f8473ffffffffffffffffffffffffffffffffffffffff1673ffffffffffffffffffffffffffffffffffffffff1681526020019081526020015f206040518060c00160405290815f82015481526020016001820154815260200160028201548152602001600382015481526020016004820154815260200160058201548152505090505f815f015114806113c35750806040015181602001516113c09190611f00565b42105b156113d1575f91505061142e565b5f816040015182602001516113e69190611f00565b426113f1919061254f565b90508160600151811061140b57815f01519250505061142e565b816060015181835f015161141f91906125b7565b6114299190612625565b925050505b919050565b5f33905090565b5f604051905090565b5f5ffd5b5f5ffd5b5f5ffd5b5f5ffd5b5f601f19601f8301169050919050565b7f4e487b71000000000000000000000000000000000000000000000000000000005f52604160045260245ffd5b61149982611453565b810181811067ffffffffffffffff821117156114b8576114b7611463565b5b80604052505050565b5f6114ca61143a565b90506114d68282611490565b919050565b5f67ffffffffffffffff8211156114f5576114f4611463565b5b6114fe82611453565b9050602081019050919050565b828183375f83830152505050565b5f61152b611526846114db565b6114c1565b9050828152602081018484840111156115475761154661144f565b5b61155284828561150b565b509392505050565b5f82601f83011261156e5761156d61144b565b5b813561157e848260208601611519565b91505092915050565b5f6020828403121561159c5761159b611443565b5b5f82013567ffffffffffffffff8111156115b9576115b8611447565b5b6115c58482850161155a565b91505092915050565b5f73ffffffffffffffffffffffffffffffffffffffff82169050919050565b5f6115f7826115ce565b9050919050565b611607816115ed565b8114611611575f5ffd5b50565b5f81359050611622816115fe565b92915050565b5f6020828403121561163d5761163c611443565b5b5f61164a84828501611614565b91505092915050565b5f819050919050565b61166581611653565b82525050565b5f60c08201905061167e5f83018961165c565b61168b602083018861165c565b611698604083018761165c565b6116a5606083018661165c565b6116b2608083018561165c565b6116bf60a083018461165c565b979650505050505050565b5f67ffffffffffffffff8211156116e4576116e3611463565b5b602082029050602081019050919050565b5f5ffd5b5f61170b611706846116ca565b6114c1565b9050808382526020820190506020840283018581111561172e5761172d6116f5565b5b835b8181101561175757806117438882611614565b845260208401935050602081019050611730565b5050509392505050565b5f82601f8301126117755761177461144b565b5b81356117858482602086016116f9565b91505092915050565b5f67ffffffffffffffff8211156117a8576117a7611463565b5b602082029050602081019050919050565b6117c281611653565b81146117cc575f5ffd5b50565b5f813590506117dd816117b9565b92915050565b5f6117f56117f08461178e565b6114c1565b90508083825260208201905060208402830185811115611818576118176116f5565b5b835b81811015611841578061182d88826117cf565b84526020840193505060208101905061181a565b5050509392505050565b5f82601f83011261185f5761185e61144b565b5b813561186f8482602086016117e3565b91505092915050565b5f5f5f5f5f60a0868803121561189157611890611443565b5b5f86013567ffffffffffffffff8111156118ae576118ad611447565b5b6118ba88828901611761565b955050602086013567ffffffffffffffff8111156118db576118da611447565b5b6118e78882890161184b565b945050604086013567ffffffffffffffff81111561190857611907611447565b5b6119148882890161184b565b935050606086013567ffffffffffffffff81111561193557611934611447565b5b6119418882890161184b565b925050608086013567ffffffffffffffff81111561196257611961611447565b5b61196e8882890161184b565b9150509295509295909350565b5f81519050919050565b5f82825260208201905092915050565b8281835e5f83830152505050565b5f6119ad8261197b565b6119b78185611985565b93506119c7818560208601611995565b6119d081611453565b840191505092915050565b5f6020820190508181035f8301526119f381846119a3565b905092915050565b5f8115159050919050565b611a0f816119fb565b82525050565b5f602082019050611a285f830184611a06565b92915050565b5f602082019050611a415f83018461165c565b92915050565b611a50816115ed565b82525050565b5f602082019050611a695f830184611a47565b92915050565b5f5f5f60608486031215611a8657611a85611443565b5b5f611a9386828701611614565b9350506020611aa4868287016117cf565b9250506040611ab5868287016117cf565b9150509250925092565b5f5f60408385031215611ad557611ad4611443565b5b5f611ae2858286016117cf565b9250506020611af3858286016117cf565b9150509250929050565b5f819050919050565b5f611b20611b1b611b16846115ce565b611afd565b6115ce565b9050919050565b5f611b3182611b06565b9050919050565b5f611b4282611b27565b9050919050565b611b5281611b38565b82525050565b5f602082019050611b6b5f830184611b49565b92915050565b5f81519050611b7f816115fe565b92915050565b5f611b97611b92846116ca565b6114c1565b90508083825260208201905060208402830185811115611bba57611bb96116f5565b5b835b81811015611be35780611bcf8882611b71565b845260208401935050602081019050611bbc565b5050509392505050565b5f82601f830112611c0157611c0061144b565b5b8151611c11848260208601611b85565b91505092915050565b5f81519050611c28816117b9565b92915050565b5f611c40611c3b8461178e565b6114c1565b90508083825260208201905060208402830185811115611c6357611c626116f5565b5b835b81811015611c8c5780611c788882611c1a565b845260208401935050602081019050611c65565b5050509392505050565b5f82601f830112611caa57611ca961144b565b5b8151611cba848260208601611c2e565b91505092915050565b5f5f5f5f5f60a08688031215611cdc57611cdb611443565b5b5f86015167ffffffffffffffff811115611cf957611cf8611447565b5b611d0588828901611bed565b955050602086015167ffffffffffffffff811115611d2657611d25611447565b5b611d3288828901611c96565b945050604086015167ffffffffffffffff811115611d5357611d52611447565b5b611d5f88828901611c96565b935050606086015167ffffffffffffffff811115611d8057611d7f611447565b5b611d8c88828901611c96565b925050608086015167ffffffffffffffff811115611dad57611dac611447565b5b611db988828901611c96565b9150509295509295909350565b5f82825260208201905092915050565b7f4172726179206c656e677468206d69736d6174636800000000000000000000005f82015250565b5f611e0a601583611dc6565b9150611e1582611dd6565b602082019050919050565b5f6020820190508181035f830152611e3781611dfe565b9050919050565b7f4e6f2062656e656669636961726965732070726f7669646564000000000000005f82015250565b5f611e72601983611dc6565b9150611e7d82611e3e565b602082019050919050565b5f6020820190508181035f830152611e9f81611e66565b9050919050565b7f4e487b71000000000000000000000000000000000000000000000000000000005f52603260045260245ffd5b7f4e487b71000000000000000000000000000000000000000000000000000000005f52601160045260245ffd5b5f611f0a82611653565b9150611f1583611653565b9250828201905080821115611f2d57611f2c611ed3565b5b92915050565b5f60208284031215611f4857611f47611443565b5b5f611f5584828501611c1a565b91505092915050565b7f496e76616c69642062656e6566696369617279206164647265737300000000005f82015250565b5f611f92601b83611dc6565b9150611f9d82611f5e565b602082019050919050565b5f6020820190508181035f830152611fbf81611f86565b9050919050565b7f496e76616c696420746f74616c20616d6f756e740000000000000000000000005f82015250565b5f611ffa601483611dc6565b915061200582611fc6565b602082019050919050565b5f6020820190508181035f83015261202781611fee565b9050919050565b7f496e76616c6964206475726174696f6e000000000000000000000000000000005f82015250565b5f612062601083611dc6565b915061206d8261202e565b602082019050919050565b5f6020820190508181035f83015261208f81612056565b9050919050565b7f53746172742074696d65206d75737420626520696e20667574757265000000005f82015250565b5f6120ca601c83611dc6565b91506120d582612096565b602082019050919050565b5f6020820190508181035f8301526120f7816120be565b9050919050565b7f436c6966662065786365656473206475726174696f6e000000000000000000005f82015250565b5f612132601683611dc6565b915061213d826120fe565b602082019050919050565b5f6020820190508181035f83015261215f81612126565b9050919050565b5f6080820190506121795f83018761165c565b612186602083018661165c565b612193604083018561165c565b6121a0606083018461165c565b95945050505050565b5f81519050919050565b5f82825260208201905092915050565b5f819050602082019050919050565b6121db816115ed565b82525050565b5f6121ec83836121d2565b60208301905092915050565b5f602082019050919050565b5f61220e826121a9565b61221881856121b3565b9350612223836121c3565b805f5b8381101561225357815161223a88826121e1565b9750612245836121f8565b925050600181019050612226565b5085935050505092915050565b5f6040820190508181035f8301526122788185612204565b9050612287602083018461165c565b9392505050565b5f81519050919050565b5f82825260208201905092915050565b5f819050602082019050919050565b6122c081611653565b82525050565b5f6122d183836122b7565b60208301905092915050565b5f602082019050919050565b5f6122f38261228e565b6122fd8185612298565b9350612308836122a8565b805f5b8381101561233857815161231f88826122c6565b975061232a836122dd565b92505060018101905061230b565b5085935050505092915050565b5f60a0820190508181035f83015261235d8188612204565b9050818103602083015261237181876122e9565b9050818103604083015261238581866122e9565b9050818103606083015261239981856122e9565b905081810360808301526123ad81846122e9565b90509695505050505050565b5f6123c3826115ce565b9050919050565b6123d3816123b9565b81146123dd575f5ffd5b50565b5f815190506123ee816123ca565b92915050565b5f5f5f6060848603121561240b5761240a611443565b5b5f612418868287016123e0565b935050602061242986828701611c1a565b925050604061243a86828701611c1a565b9150509250925092565b7f496e76616c696420746f6b656e206164647265737300000000000000000000005f82015250565b5f612478601583611dc6565b915061248382612444565b602082019050919050565b5f6020820190508181035f8301526124a58161246c565b9050919050565b5f6040820190506124bf5f83018561165c565b6124cc602083018461165c565b9392505050565b5f6040820190506124e65f830185611a47565b6124f3602083018461165c565b9392505050565b612503816119fb565b811461250d575f5ffd5b50565b5f8151905061251e816124fa565b92915050565b5f6020828403121561253957612538611443565b5b5f61254684828501612510565b91505092915050565b5f61255982611653565b915061256483611653565b925082820390508181111561257c5761257b611ed3565b5b92915050565b5f6060820190506125955f830186611a47565b6125a2602083018561165c565b6125af604083018461165c565b949350505050565b5f6125c182611653565b91506125cc83611653565b92508282026125da81611653565b915082820484148315176125f1576125f0611ed3565b5b5092915050565b7f4e487b71000000000000000000000000000000000000000000000000000000005f52601260045260245ffd5b5f61262f82611653565b915061263a83611653565b92508261264a576126496125f8565b5b82820490509291505056fea2646970667358221220700748e76eb248c3c054eb25c59a9a8cd3ff572568c1c1f484f06fa298064f3964736f6c634300081d0033",
					"opcodes": "PUSH1 0x80 PUSH1 0x40 MSTORE CALLVALUE DUP1 ISZERO PUSH2 0xF JUMPI PUSH0 PUSH0 REVERT JUMPDEST POP CALLER PUSH0 PUSH20 0xFFFFFFFFFFFFFFFFFFFFFFFFFFFFFFFFFFFFFFFF AND DUP2 PUSH20 0xFFFFFFFFFFFFFFFFFFFFFFFFFFFFFFFFFFFFFFFF AND SUB PUSH2 0x81 JUMPI PUSH0 PUSH1 0x40 MLOAD PUSH32 0x1E4FBDF700000000000000000000000000000000000000000000000000000000 DUP2 MSTORE PUSH1 0x4 ADD PUSH2 0x78 SWAP2 SWAP1 PUSH2 0x196 JUMP JUMPDEST PUSH1 0x40 MLOAD DUP1 SWAP2 SUB SWAP1 REVERT JUMPDEST PUSH2 0x90 DUP2 PUSH2 0x96 PUSH1 0x20 SHL PUSH1 0x20 SHR JUMP JUMPDEST POP PUSH2 0x1AF JUMP JUMPDEST PUSH0 PUSH0 PUSH0 SWAP1 SLOAD SWAP1 PUSH2 0x100 EXP SWAP1 DIV PUSH20 0xFFFFFFFFFFFFFFFFFFFFFFFFFFFFFFFFFFFFFFFF AND SWAP1 POP DUP2 PUSH0 PUSH0 PUSH2 0x100 EXP DUP2 SLOAD DUP2 PUSH20 0xFFFFFFFFFFFFFFFFFFFFFFFFFFFFFFFFFFFFFFFF MUL NOT AND SWAP1 DUP4 PUSH20 0xFFFFFFFFFFFFFFFFFFFFFFFFFFFFFFFFFFFFFFFF AND MUL OR SWAP1 SSTORE POP DUP2 PUSH20 0xFFFFFFFFFFFFFFFFFFFFFFFFFFFFFFFFFFFFFFFF AND DUP2 PUSH20 0xFFFFFFFFFFFFFFFFFFFFFFFFFFFFFFFFFFFFFFFF AND PUSH32 0x8BE0079C531659141344CD1FD0A4F28419497F9722A3DAAFE3B4186F6B6457E0 PUSH1 0x40 MLOAD PUSH1 0x40 MLOAD DUP1 SWAP2 SUB SWAP1 LOG3 POP POP JUMP JUMPDEST PUSH0 PUSH20 0xFFFFFFFFFFFFFFFFFFFFFFFFFFFFFFFFFFFFFFFF DUP3 AND SWAP1 POP SWAP2 SWAP1 POP JUMP JUMPDEST PUSH0 PUSH2 0x180 DUP3 PUSH2 0x157 JUMP JUMPDEST SWAP1 POP SWAP2 SWAP1 POP JUMP JUMPDEST PUSH2 0x190 DUP2 PUSH2 0x176 JUMP JUMPDEST DUP3 MSTORE POP POP JUMP JUMPDEST PUSH0 PUSH1 0x20 DUP3 ADD SWAP1 POP PUSH2 0x1A9 PUSH0 DUP4 ADD DUP5 PUSH2 0x187 JUMP JUMPDEST SWAP3 SWAP2 POP POP JUMP JUMPDEST PUSH2 0x268B DUP1 PUSH2 0x1BC PUSH0 CODECOPY PUSH0 RETURN INVALID PUSH1 0x80 PUSH1 0x40 MSTORE CALLVALUE DUP1 ISZERO PUSH2 0xF JUMPI PUSH0 PUSH0 REVERT JUMPDEST POP PUSH1 0x4 CALLDATASIZE LT PUSH2 0xE7 JUMPI PUSH0 CALLDATALOAD PUSH1 0xE0 SHR DUP1 PUSH4 0x8DA5CB5B GT PUSH2 0x8A JUMPI DUP1 PUSH4 0xADC25BDE GT PUSH2 0x64 JUMPI DUP1 PUSH4 0xADC25BDE EQ PUSH2 0x24A JUMPI DUP1 PUSH4 0xF2FDE38B EQ PUSH2 0x268 JUMPI DUP1 PUSH4 0xFC0C546A EQ PUSH2 0x284 JUMPI DUP1 PUSH4 0xFDEA3657 EQ PUSH2 0x2A2 JUMPI PUSH2 0xE7 JUMP JUMPDEST DUP1 PUSH4 0x8DA5CB5B EQ PUSH2 0x1E0 JUMPI DUP1 PUSH4 0x8E7D947D EQ PUSH2 0x1FE JUMPI DUP1 PUSH4 0x91DC11FE EQ PUSH2 0x22E JUMPI PUSH2 0xE7 JUMP JUMPDEST DUP1 PUSH4 0x439FAB91 GT PUSH2 0xC6 JUMPI DUP1 PUSH4 0x439FAB91 EQ PUSH2 0x16C JUMPI DUP1 PUSH4 0x4E71D92D EQ PUSH2 0x19C JUMPI DUP1 PUSH4 0x715018A6 EQ PUSH2 0x1A6 JUMPI DUP1 PUSH4 0x89885049 EQ PUSH2 0x1B0 JUMPI PUSH2 0xE7 JUMP JUMPDEST DUP1 PUSH3 0xC3E8D1 EQ PUSH2 0xEB JUMPI DUP1 PUSH4 0x1567739 EQ PUSH2 0x107 JUMPI DUP1 PUSH4 0x4221338E EQ PUSH2 0x13C JUMPI JUMPDEST PUSH0 PUSH0 REVERT JUMPDEST PUSH2 0x105 PUSH1 0x4 DUP1 CALLDATASIZE SUB DUP2 ADD SWAP1 PUSH2 0x100 SWAP2 SWAP1 PUSH2 0x1587 JUMP JUMPDEST PUSH2 0x2C0 JUMP JUMPDEST STOP JUMPDEST PUSH2 0x121 PUSH1 0x4 DUP1 CALLDATASIZE SUB DUP2 ADD SWAP1 PUSH2 0x11C SWAP2 SWAP1 PUSH2 0x1628 JUMP JUMPDEST PUSH2 0x985 JUMP JUMPDEST PUSH1 0x40 MLOAD PUSH2 0x133 SWAP7 SWAP6 SWAP5 SWAP4 SWAP3 SWAP2 SWAP1 PUSH2 0x166B JUMP JUMPDEST PUSH1 0x40 MLOAD DUP1 SWAP2 SUB SWAP1 RETURN JUMPDEST PUSH2 0x156 PUSH1 0x4 DUP1 CALLDATASIZE SUB DUP2 ADD SWAP1 PUSH2 0x151 SWAP2 SWAP1 PUSH2 0x1878 JUMP JUMPDEST PUSH2 0x9BD JUMP JUMPDEST PUSH1 0x40 MLOAD PUSH2 0x163 SWAP2 SWAP1 PUSH2 0x19DB JUMP JUMPDEST PUSH1 0x40 MLOAD DUP1 SWAP2 SUB SWAP1 RETURN JUMPDEST PUSH2 0x186 PUSH1 0x4 DUP1 CALLDATASIZE SUB DUP2 ADD SWAP1 PUSH2 0x181 SWAP2 SWAP1 PUSH2 0x1587 JUMP JUMPDEST PUSH2 0x9F2 JUMP JUMPDEST PUSH1 0x40 MLOAD PUSH2 0x193 SWAP2 SWAP1 PUSH2 0x1A15 JUMP JUMPDEST PUSH1 0x40 MLOAD DUP1 SWAP2 SUB SWAP1 RETURN JUMPDEST PUSH2 0x1A4 PUSH2 0xB92 JUMP JUMPDEST STOP JUMPDEST PUSH2 0x1AE PUSH2 0xF87 JUMP JUMPDEST STOP JUMPDEST PUSH2 0x1CA PUSH1 0x4 DUP1 CALLDATASIZE SUB DUP2 ADD SWAP1 PUSH2 0x1C5 SWAP2 SWAP1 PUSH2 0x1628 JUMP JUMPDEST PUSH2 0xF9A JUMP JUMPDEST PUSH1 0x40 MLOAD PUSH2 0x1D7 SWAP2 SWAP1 PUSH2 0x1A2E JUMP JUMPDEST PUSH1 0x40 MLOAD DUP1 SWAP2 SUB SWAP1 RETURN JUMPDEST PUSH2 0x1E8 PUSH2 0x1073 JUMP JUMPDEST PUSH1 0x40 MLOAD PUSH2 0x1F5 SWAP2 SWAP1 PUSH2 0x1A56 JUMP JUMPDEST PUSH1 0x40 MLOAD DUP1 SWAP2 SUB SWAP1 RETURN JUMPDEST PUSH2 0x218 PUSH1 0x4 DUP1 CALLDATASIZE SUB DUP2 ADD SWAP1 PUSH2 0x213 SWAP2 SWAP1 PUSH2 0x1A6F JUMP JUMPDEST PUSH2 0x109A JUMP JUMPDEST PUSH1 0x40 MLOAD PUSH2 0x225 SWAP2 SWAP1 PUSH2 0x19DB JUMP JUMPDEST PUSH1 0x40 MLOAD DUP1 SWAP2 SUB SWAP1 RETURN JUMPDEST PUSH2 0x248 PUSH1 0x4 DUP1 CALLDATASIZE SUB DUP2 ADD SWAP1 PUSH2 0x243 SWAP2 SWAP1 PUSH2 0x1ABF JUMP JUMPDEST PUSH2 0x10C9 JUMP JUMPDEST STOP JUMPDEST PUSH2 0x252 PUSH2 0x111C JUMP JUMPDEST PUSH1 0x40 MLOAD PUSH2 0x25F SWAP2 SWAP1 PUSH2 0x1A2E JUMP JUMPDEST PUSH1 0x40 MLOAD DUP1 SWAP2 SUB SWAP1 RETURN JUMPDEST PUSH2 0x282 PUSH1 0x4 DUP1 CALLDATASIZE SUB DUP2 ADD SWAP1 PUSH2 0x27D SWAP2 SWAP1 PUSH2 0x1628 JUMP JUMPDEST PUSH2 0x1122 JUMP JUMPDEST STOP JUMPDEST PUSH2 0x28C PUSH2 0x11A6 JUMP JUMPDEST PUSH1 0x40 MLOAD PUSH2 0x299 SWAP2 SWAP1 PUSH2 0x1B58 JUMP JUMPDEST PUSH1 0x40 MLOAD DUP1 SWAP2 SUB SWAP1 RETURN JUMPDEST PUSH2 0x2AA PUSH2 0x11CB JUMP JUMPDEST PUSH1 0x40 MLOAD PUSH2 0x2B7 SWAP2 SWAP1 PUSH2 0x1A2E JUMP JUMPDEST PUSH1 0x40 MLOAD DUP1 SWAP2 SUB SWAP1 RETURN JUMPDEST PUSH2 0x2C8 PUSH2 0x11D1 JUMP JUMPDEST PUSH1 0x1 PUSH1 0x15 SWAP1 SLOAD SWAP1 PUSH2 0x100 EXP SWAP1 DIV PUSH1 0xFF AND ISZERO PUSH2 0x30F JUMPI PUSH1 0x40 MLOAD PUSH32 0x72DE7ACD00000000000000000000000000000000000000000000000000000000 DUP2 MSTORE PUSH1 0x4 ADD PUSH1 0x40 MLOAD DUP1 SWAP2 SUB SWAP1 REVERT JUMPDEST PUSH0 PUSH0 PUSH0 PUSH0 PUSH0 DUP6 DUP1 PUSH1 0x20 ADD SWAP1 MLOAD DUP2 ADD SWAP1 PUSH2 0x328 SWAP2 SWAP1 PUSH2 0x1CC3 JUMP JUMPDEST SWAP5 POP SWAP5 POP SWAP5 POP SWAP5 POP SWAP5 POP DUP4 MLOAD DUP6 MLOAD EQ DUP1 ISZERO PUSH2 0x344 JUMPI POP DUP3 MLOAD DUP6 MLOAD EQ JUMPDEST DUP1 ISZERO PUSH2 0x351 JUMPI POP DUP2 MLOAD DUP6 MLOAD EQ JUMPDEST DUP1 ISZERO PUSH2 0x35E JUMPI POP DUP1 MLOAD DUP6 MLOAD EQ JUMPDEST PUSH2 0x39D JUMPI PUSH1 0x40 MLOAD PUSH32 0x8C379A000000000000000000000000000000000000000000000000000000000 DUP2 MSTORE PUSH1 0x4 ADD PUSH2 0x394 SWAP1 PUSH2 0x1E20 JUMP JUMPDEST PUSH1 0x40 MLOAD DUP1 SWAP2 SUB SWAP1 REVERT JUMPDEST PUSH0 DUP6 MLOAD GT PUSH2 0x3E0 JUMPI PUSH1 0x40 MLOAD PUSH32 0x8C379A000000000000000000000000000000000000000000000000000000000 DUP2 MSTORE PUSH1 0x4 ADD PUSH2 0x3D7 SWAP1 PUSH2 0x1E88 JUMP JUMPDEST PUSH1 0x40 MLOAD DUP1 SWAP2 SUB SWAP1 REVERT JUMPDEST PUSH0 PUSH0 SWAP1 POP PUSH0 PUSH0 SWAP1 POP JUMPDEST DUP6 MLOAD DUP2 LT ISZERO PUSH2 0x427 JUMPI DUP6 DUP2 DUP2 MLOAD DUP2 LT PUSH2 0x405 JUMPI PUSH2 0x404 PUSH2 0x1EA6 JUMP JUMPDEST JUMPDEST PUSH1 0x20 MUL PUSH1 0x20 ADD ADD MLOAD DUP3 PUSH2 0x418 SWAP2 SWAP1 PUSH2 0x1F00 JUMP JUMPDEST SWAP2 POP DUP1 DUP1 PUSH1 0x1 ADD SWAP2 POP POP PUSH2 0x3E9 JUMP JUMPDEST POP DUP1 PUSH1 0x1 PUSH0 SWAP1 SLOAD SWAP1 PUSH2 0x100 EXP SWAP1 DIV PUSH20 0xFFFFFFFFFFFFFFFFFFFFFFFFFFFFFFFFFFFFFFFF AND PUSH20 0xFFFFFFFFFFFFFFFFFFFFFFFFFFFFFFFFFFFFFFFF AND PUSH4 0x70A08231 ADDRESS PUSH1 0x40 MLOAD DUP3 PUSH4 0xFFFFFFFF AND PUSH1 0xE0 SHL DUP2 MSTORE PUSH1 0x4 ADD PUSH2 0x483 SWAP2 SWAP1 PUSH2 0x1A56 JUMP JUMPDEST PUSH1 0x20 PUSH1 0x40 MLOAD DUP1 DUP4 SUB DUP2 DUP7 GAS STATICCALL ISZERO DUP1 ISZERO PUSH2 0x49E JUMPI RETURNDATASIZE PUSH0 PUSH0 RETURNDATACOPY RETURNDATASIZE PUSH0 REVERT JUMPDEST POP POP POP POP PUSH1 0x40 MLOAD RETURNDATASIZE PUSH1 0x1F NOT PUSH1 0x1F DUP3 ADD AND DUP3 ADD DUP1 PUSH1 0x40 MSTORE POP DUP2 ADD SWAP1 PUSH2 0x4C2 SWAP2 SWAP1 PUSH2 0x1F33 JUMP JUMPDEST LT ISZERO PUSH2 0x4FA JUMPI PUSH1 0x40 MLOAD PUSH32 0x5954B70C00000000000000000000000000000000000000000000000000000000 DUP2 MSTORE PUSH1 0x4 ADD PUSH1 0x40 MLOAD DUP1 SWAP2 SUB SWAP1 REVERT JUMPDEST PUSH0 PUSH0 SWAP1 POP JUMPDEST DUP7 MLOAD DUP2 LT ISZERO PUSH2 0x928 JUMPI PUSH0 PUSH20 0xFFFFFFFFFFFFFFFFFFFFFFFFFFFFFFFFFFFFFFFF AND DUP8 DUP3 DUP2 MLOAD DUP2 LT PUSH2 0x532 JUMPI PUSH2 0x531 PUSH2 0x1EA6 JUMP JUMPDEST JUMPDEST PUSH1 0x20 MUL PUSH1 0x20 ADD ADD MLOAD PUSH20 0xFFFFFFFFFFFFFFFFFFFFFFFFFFFFFFFFFFFFFFFF AND SUB PUSH2 0x590 JUMPI PUSH1 0x40 MLOAD PUSH32 0x8C379A000000000000000000000000000000000000000000000000000000000 DUP2 MSTORE PUSH1 0x4 ADD PUSH2 0x587 SWAP1 PUSH2 0x1FA8 JUMP JUMPDEST PUSH1 0x40 MLOAD DUP1 SWAP2 SUB SWAP1 REVERT JUMPDEST PUSH0 DUP7 DUP3 DUP2 MLOAD DUP2 LT PUSH2 0x5A4 JUMPI PUSH2 0x5A3 PUSH2 0x1EA6 JUMP JUMPDEST JUMPDEST PUSH1 0x20 MUL PUSH1 0x20 ADD ADD MLOAD GT PUSH2 0x5EC JUMPI PUSH1 0x40 MLOAD PUSH32 0x8C379A000000000000000000000000000000000000000000000000000000000 DUP2 MSTORE PUSH1 0x4 ADD PUSH2 0x5E3 SWAP1 PUSH2 0x2010 JUMP JUMPDEST PUSH1 0x40 MLOAD DUP1 SWAP2 SUB SWAP1 REVERT JUMPDEST PUSH0 DUP4 DUP3 DUP2 MLOAD DUP2 LT PUSH2 0x600 JUMPI PUSH2 0x5FF PUSH2 0x1EA6 JUMP JUMPDEST JUMPDEST PUSH1 0x20 MUL PUSH1 0x20 ADD ADD MLOAD GT PUSH2 0x648 JUMPI PUSH1 0x40 MLOAD PUSH32 0x8C379A000000000000000000000000000000000000000000000000000000000 DUP2 MSTORE PUSH1 0x4 ADD PUSH2 0x63F SWAP1 PUSH2 0x2078 JUMP JUMPDEST PUSH1 0x40 MLOAD DUP1 SWAP2 SUB SWAP1 REVERT JUMPDEST TIMESTAMP DUP6 DUP3 DUP2 MLOAD DUP2 LT PUSH2 0x65C JUMPI PUSH2 0x65B PUSH2 0x1EA6 JUMP JUMPDEST JUMPDEST PUSH1 0x20 MUL PUSH1 0x20 ADD ADD MLOAD LT ISZERO PUSH2 0x6A5 JUMPI PUSH1 0x40 MLOAD PUSH32 0x8C379A000000000000000000000000000000000000000000000000000000000 DUP2 MSTORE PUSH1 0x4 ADD PUSH2 0x69C SWAP1 PUSH2 0x20E0 JUMP JUMPDEST PUSH1 0x40 MLOAD DUP1 SWAP2 SUB SWAP1 REVERT JUMPDEST DUP3 DUP2 DUP2 MLOAD DUP2 LT PUSH2 0x6B8 JUMPI PUSH2 0x6B7 PUSH2 0x1EA6 JUMP JUMPDEST JUMPDEST PUSH1 0x20 MUL PUSH1 0x20 ADD ADD MLOAD DUP5 DUP3 DUP2 MLOAD DUP2 LT PUSH2 0x6D3 JUMPI PUSH2 0x6D2 PUSH2 0x1EA6 JUMP JUMPDEST JUMPDEST PUSH1 0x20 MUL PUSH1 0x20 ADD ADD MLOAD GT ISZERO PUSH2 0x71C JUMPI PUSH1 0x40 MLOAD PUSH32 0x8C379A000000000000000000000000000000000000000000000000000000000 DUP2 MSTORE PUSH1 0x4 ADD PUSH2 0x713 SWAP1 PUSH2 0x2148 JUMP JUMPDEST PUSH1 0x40 MLOAD DUP1 SWAP2 SUB SWAP1 REVERT JUMPDEST PUSH1 0x40 MLOAD DUP1 PUSH1 0xC0 ADD PUSH1 0x40 MSTORE DUP1 DUP8 DUP4 DUP2 MLOAD DUP2 LT PUSH2 0x73A JUMPI PUSH2 0x739 PUSH2 0x1EA6 JUMP JUMPDEST JUMPDEST PUSH1 0x20 MUL PUSH1 0x20 ADD ADD MLOAD DUP2 MSTORE PUSH1 0x20 ADD DUP7 DUP4 DUP2 MLOAD DUP2 LT PUSH2 0x75A JUMPI PUSH2 0x759 PUSH2 0x1EA6 JUMP JUMPDEST JUMPDEST PUSH1 0x20 MUL PUSH1 0x20 ADD ADD MLOAD DUP2 MSTORE PUSH1 0x20 ADD DUP6 DUP4 DUP2 MLOAD DUP2 LT PUSH2 0x77A JUMPI PUSH2 0x779 PUSH2 0x1EA6 JUMP JUMPDEST JUMPDEST PUSH1 0x20 MUL PUSH1 0x20 ADD ADD MLOAD DUP2 MSTORE PUSH1 0x20 ADD DUP5 DUP4 DUP2 MLOAD DUP2 LT PUSH2 0x79A JUMPI PUSH2 0x799 PUSH2 0x1EA6 JUMP JUMPDEST JUMPDEST PUSH1 0x20 MUL PUSH1 0x20 ADD ADD MLOAD DUP2 MSTORE PUSH1 0x20 ADD PUSH0 DUP2 MSTORE PUSH1 0x20 ADD PUSH0 DUP2 MSTORE POP PUSH1 0x4 PUSH0 DUP10 DUP5 DUP2 MLOAD DUP2 LT PUSH2 0x7C7 JUMPI PUSH2 0x7C6 PUSH2 0x1EA6 JUMP JUMPDEST JUMPDEST PUSH1 0x20 MUL PUSH1 0x20 ADD ADD MLOAD PUSH20 0xFFFFFFFFFFFFFFFFFFFFFFFFFFFFFFFFFFFFFFFF AND PUSH20 0xFFFFFFFFFFFFFFFFFFFFFFFFFFFFFFFFFFFFFFFF AND DUP2 MSTORE PUSH1 0x20 ADD SWAP1 DUP2 MSTORE PUSH1 0x20 ADD PUSH0 KECCAK256 PUSH0 DUP3 ADD MLOAD DUP2 PUSH0 ADD SSTORE PUSH1 0x20 DUP3 ADD MLOAD DUP2 PUSH1 0x1 ADD SSTORE PUSH1 0x40 DUP3 ADD MLOAD DUP2 PUSH1 0x2 ADD SSTORE PUSH1 0x60 DUP3 ADD MLOAD DUP2 PUSH1 0x3 ADD SSTORE PUSH1 0x80 DUP3 ADD MLOAD DUP2 PUSH1 0x4 ADD SSTORE PUSH1 0xA0 DUP3 ADD MLOAD DUP2 PUSH1 0x5 ADD SSTORE SWAP1 POP POP DUP7 DUP2 DUP2 MLOAD DUP2 LT PUSH2 0x858 JUMPI PUSH2 0x857 PUSH2 0x1EA6 JUMP JUMPDEST JUMPDEST PUSH1 0x20 MUL PUSH1 0x20 ADD ADD MLOAD PUSH20 0xFFFFFFFFFFFFFFFFFFFFFFFFFFFFFFFFFFFFFFFF AND PUSH32 0x1F398278A6852E1859B06353DC838F7FE06B53A47B9CC30937C289C9CC3881A4 DUP8 DUP4 DUP2 MLOAD DUP2 LT PUSH2 0x8AA JUMPI PUSH2 0x8A9 PUSH2 0x1EA6 JUMP JUMPDEST JUMPDEST PUSH1 0x20 MUL PUSH1 0x20 ADD ADD MLOAD DUP8 DUP5 DUP2 MLOAD DUP2 LT PUSH2 0x8C5 JUMPI PUSH2 0x8C4 PUSH2 0x1EA6 JUMP JUMPDEST JUMPDEST PUSH1 0x20 MUL PUSH1 0x20 ADD ADD MLOAD DUP8 DUP6 DUP2 MLOAD DUP2 LT PUSH2 0x8E0 JUMPI PUSH2 0x8DF PUSH2 0x1EA6 JUMP JUMPDEST JUMPDEST PUSH1 0x20 MUL PUSH1 0x20 ADD ADD MLOAD DUP8 DUP7 DUP2 MLOAD DUP2 LT PUSH2 0x8FB JUMPI PUSH2 0x8FA PUSH2 0x1EA6 JUMP JUMPDEST JUMPDEST PUSH1 0x20 MUL PUSH1 0x20 ADD ADD MLOAD PUSH1 0x40 MLOAD PUSH2 0x913 SWAP5 SWAP4 SWAP3 SWAP2 SWAP1 PUSH2 0x2166 JUMP JUMPDEST PUSH1 0x40 MLOAD DUP1 SWAP2 SUB SWAP1 LOG2 DUP1 DUP1 PUSH1 0x1 ADD SWAP2 POP POP PUSH2 0x4FF JUMP JUMPDEST POP PUSH1 0x1 DUP1 PUSH1 0x15 PUSH2 0x100 EXP DUP2 SLOAD DUP2 PUSH1 0xFF MUL NOT AND SWAP1 DUP4 ISZERO ISZERO MUL OR SWAP1 SSTORE POP PUSH32 0x746CDB702729916E6F99EA1897AE19BDB8D0DE9B9E9CC2FB4234B19E5BF0D78A DUP7 DUP3 PUSH1 0x40 MLOAD PUSH2 0x974 SWAP3 SWAP2 SWAP1 PUSH2 0x2260 JUMP JUMPDEST PUSH1 0x40 MLOAD DUP1 SWAP2 SUB SWAP1 LOG1 POP POP POP POP POP POP POP JUMP JUMPDEST PUSH1 0x4 PUSH1 0x20 MSTORE DUP1 PUSH0 MSTORE PUSH1 0x40 PUSH0 KECCAK256 PUSH0 SWAP2 POP SWAP1 POP DUP1 PUSH0 ADD SLOAD SWAP1 DUP1 PUSH1 0x1 ADD SLOAD SWAP1 DUP1 PUSH1 0x2 ADD SLOAD SWAP1 DUP1 PUSH1 0x3 ADD SLOAD SWAP1 DUP1 PUSH1 0x4 ADD SLOAD SWAP1 DUP1 PUSH1 0x5 ADD SLOAD SWAP1 POP DUP7 JUMP JUMPDEST PUSH1 0x60 DUP6 DUP6 DUP6 DUP6 DUP6 PUSH1 0x40 MLOAD PUSH1 0x20 ADD PUSH2 0x9D8 SWAP6 SWAP5 SWAP4 SWAP3 SWAP2 SWAP1 PUSH2 0x2345 JUMP JUMPDEST PUSH1 0x40 MLOAD PUSH1 0x20 DUP2 DUP4 SUB SUB DUP2 MSTORE SWAP1 PUSH1 0x40 MSTORE SWAP1 POP SWAP6 SWAP5 POP POP POP POP POP JUMP JUMPDEST PUSH0 PUSH1 0x1 PUSH1 0x14 SWAP1 SLOAD SWAP1 PUSH2 0x100 EXP SWAP1 DIV PUSH1 0xFF AND ISZERO PUSH2 0xA3A JUMPI PUSH1 0x40 MLOAD PUSH32 0xDC149F000000000000000000000000000000000000000000000000000000000 DUP2 MSTORE PUSH1 0x4 ADD PUSH1 0x40 MLOAD DUP1 SWAP2 SUB SWAP1 REVERT JUMPDEST PUSH0 PUSH0 PUSH0 DUP5 DUP1 PUSH1 0x20 ADD SWAP1 MLOAD DUP2 ADD SWAP1 PUSH2 0xA51 SWAP2 SWAP1 PUSH2 0x23F4 JUMP JUMPDEST SWAP3 POP SWAP3 POP SWAP3 POP PUSH0 PUSH20 0xFFFFFFFFFFFFFFFFFFFFFFFFFFFFFFFFFFFFFFFF AND DUP4 PUSH20 0xFFFFFFFFFFFFFFFFFFFFFFFFFFFFFFFFFFFFFFFF AND SUB PUSH2 0xAC5 JUMPI PUSH1 0x40 MLOAD PUSH32 0x8C379A000000000000000000000000000000000000000000000000000000000 DUP2 MSTORE PUSH1 0x4 ADD PUSH2 0xABC SWAP1 PUSH2 0x248E JUMP JUMPDEST PUSH1 0x40 MLOAD DUP1 SWAP2 SUB SWAP1 REVERT JUMPDEST DUP3 PUSH1 0x1 PUSH0 PUSH2 0x100 EXP DUP2 SLOAD DUP2 PUSH20 0xFFFFFFFFFFFFFFFFFFFFFFFFFFFFFFFFFFFFFFFF MUL NOT AND SWAP1 DUP4 PUSH20 0xFFFFFFFFFFFFFFFFFFFFFFFFFFFFFFFFFFFFFFFF AND MUL OR SWAP1 SSTORE POP DUP2 PUSH1 0x2 DUP2 SWAP1 SSTORE POP DUP1 PUSH1 0x3 DUP2 SWAP1 SSTORE POP PUSH1 0x1 DUP1 PUSH1 0x14 PUSH2 0x100 EXP DUP2 SLOAD DUP2 PUSH1 0xFF MUL NOT AND SWAP1 DUP4 ISZERO ISZERO MUL OR SWAP1 SSTORE POP DUP3 PUSH20 0xFFFFFFFFFFFFFFFFFFFFFFFFFFFFFFFFFFFFFFFF AND PUSH32 0xF91882B50D9330AF0B1D4998E6AF7F2EAEE90CE7E77EA54FEA089AF166D021D DUP4 DUP4 PUSH1 0x40 MLOAD PUSH2 0xB75 SWAP3 SWAP2 SWAP1 PUSH2 0x24AC JUMP JUMPDEST PUSH1 0x40 MLOAD DUP1 SWAP2 SUB SWAP1 LOG2 PUSH2 0xB86 CALLER PUSH2 0x1258 JUMP JUMPDEST PUSH1 0x1 SWAP4 POP POP POP POP SWAP2 SWAP1 POP JUMP JUMPDEST PUSH1 0x1 PUSH1 0x15 SWAP1 SLOAD SWAP1 PUSH2 0x100 EXP SWAP1 DIV PUSH1 0xFF AND PUSH2 0xBD8 JUMPI PUSH1 0x40 MLOAD PUSH32 0x35549BE800000000000000000000000000000000000000000000000000000000 DUP2 MSTORE PUSH1 0x4 ADD PUSH1 0x40 MLOAD DUP1 SWAP2 SUB SWAP1 REVERT JUMPDEST PUSH0 PUSH1 0x4 PUSH0 CALLER PUSH20 0xFFFFFFFFFFFFFFFFFFFFFFFFFFFFFFFFFFFFFFFF AND PUSH20 0xFFFFFFFFFFFFFFFFFFFFFFFFFFFFFFFFFFFFFFFF AND DUP2 MSTORE PUSH1 0x20 ADD SWAP1 DUP2 MSTORE PUSH1 0x20 ADD PUSH0 KECCAK256 SWAP1 POP PUSH0 DUP2 PUSH0 ADD SLOAD GT PUSH2 0xC54 JUMPI PUSH1 0x40 MLOAD PUSH32 0x361B195400000000000000000000000000000000000000000000000000000000 DUP2 MSTORE PUSH1 0x4 ADD PUSH1 0x40 MLOAD DUP1 SWAP2 SUB SWAP1 REVERT JUMPDEST DUP1 PUSH1 0x2 ADD SLOAD DUP2 PUSH1 0x1 ADD SLOAD PUSH2 0xC68 SWAP2 SWAP1 PUSH2 0x1F00 JUMP JUMPDEST TIMESTAMP GT PUSH2 0xCA0 JUMPI PUSH1 0x40 MLOAD PUSH32 0x392A328700000000000000000000000000000000000000000000000000000000 DUP2 MSTORE PUSH1 0x4 ADD PUSH1 0x40 MLOAD DUP1 SWAP2 SUB SWAP1 REVERT JUMPDEST PUSH1 0x2 SLOAD DUP2 PUSH1 0x5 ADD SLOAD PUSH2 0xCB2 SWAP2 SWAP1 PUSH2 0x1F00 JUMP JUMPDEST TIMESTAMP LT ISZERO PUSH2 0xCEB JUMPI PUSH1 0x40 MLOAD PUSH32 0x9E49499400000000000000000000000000000000000000000000000000000000 DUP2 MSTORE PUSH1 0x4 ADD PUSH1 0x40 MLOAD DUP1 SWAP2 SUB SWAP1 REVERT JUMPDEST PUSH0 PUSH2 0xCF5 CALLER PUSH2 0xF9A JUMP JUMPDEST SWAP1 POP PUSH1 0x3 SLOAD DUP2 LT ISZERO PUSH2 0xD33 JUMPI PUSH1 0x40 MLOAD PUSH32 0x95E4B14C00000000000000000000000000000000000000000000000000000000 DUP2 MSTORE PUSH1 0x4 ADD PUSH1 0x40 MLOAD DUP1 SWAP2 SUB SWAP1 REVERT JUMPDEST PUSH0 DUP2 GT PUSH2 0xD6C JUMPI PUSH1 0x40 MLOAD PUSH32 0x969BF72800000000000000000000000000000000000000000000000000000000 DUP2 MSTORE PUSH1 0x4 ADD PUSH1 0x40 MLOAD DUP1 SWAP2 SUB SWAP1 REVERT JUMPDEST DUP1 PUSH1 0x1 PUSH0 SWAP1 SLOAD SWAP1 PUSH2 0x100 EXP SWAP1 DIV PUSH20 0xFFFFFFFFFFFFFFFFFFFFFFFFFFFFFFFFFFFFFFFF AND PUSH20 0xFFFFFFFFFFFFFFFFFFFFFFFFFFFFFFFFFFFFFFFF AND PUSH4 0x70A08231 ADDRESS PUSH1 0x40 MLOAD DUP3 PUSH4 0xFFFFFFFF AND PUSH1 0xE0 SHL DUP2 MSTORE PUSH1 0x4 ADD PUSH2 0xDC7 SWAP2 SWAP1 PUSH2 0x1A56 JUMP JUMPDEST PUSH1 0x20 PUSH1 0x40 MLOAD DUP1 DUP4 SUB DUP2 DUP7 GAS STATICCALL ISZERO DUP1 ISZERO PUSH2 0xDE2 JUMPI RETURNDATASIZE PUSH0 PUSH0 RETURNDATACOPY RETURNDATASIZE PUSH0 REVERT JUMPDEST POP POP POP POP PUSH1 0x40 MLOAD RETURNDATASIZE PUSH1 0x1F NOT PUSH1 0x1F DUP3 ADD AND DUP3 ADD DUP1 PUSH1 0x40 MSTORE POP DUP2 ADD SWAP1 PUSH2 0xE06 SWAP2 SWAP1 PUSH2 0x1F33 JUMP JUMPDEST LT ISZERO PUSH2 0xE3E JUMPI PUSH1 0x40 MLOAD PUSH32 0xE4455CAE00000000000000000000000000000000000000000000000000000000 DUP2 MSTORE PUSH1 0x4 ADD PUSH1 0x40 MLOAD DUP1 SWAP2 SUB SWAP1 REVERT JUMPDEST DUP1 DUP3 PUSH1 0x4 ADD PUSH0 DUP3 DUP3 SLOAD PUSH2 0xE51 SWAP2 SWAP1 PUSH2 0x1F00 JUMP JUMPDEST SWAP3 POP POP DUP2 SWAP1 SSTORE POP TIMESTAMP DUP3 PUSH1 0x5 ADD DUP2 SWAP1 SSTORE POP PUSH1 0x1 PUSH0 SWAP1 SLOAD SWAP1 PUSH2 0x100 EXP SWAP1 DIV PUSH20 0xFFFFFFFFFFFFFFFFFFFFFFFFFFFFFFFFFFFFFFFF AND PUSH20 0xFFFFFFFFFFFFFFFFFFFFFFFFFFFFFFFFFFFFFFFF AND PUSH4 0xA9059CBB CALLER DUP4 PUSH1 0x40 MLOAD DUP4 PUSH4 0xFFFFFFFF AND PUSH1 0xE0 SHL DUP2 MSTORE PUSH1 0x4 ADD PUSH2 0xEBD SWAP3 SWAP2 SWAP1 PUSH2 0x24D3 JUMP JUMPDEST PUSH1 0x20 PUSH1 0x40 MLOAD DUP1 DUP4 SUB DUP2 PUSH0 DUP8 GAS CALL ISZERO DUP1 ISZERO PUSH2 0xED9 JUMPI RETURNDATASIZE PUSH0 PUSH0 RETURNDATACOPY RETURNDATASIZE PUSH0 REVERT JUMPDEST POP POP POP POP PUSH1 0x40 MLOAD RETURNDATASIZE PUSH1 0x1F NOT PUSH1 0x1F DUP3 ADD AND DUP3 ADD DUP1 PUSH1 0x40 MSTORE POP DUP2 ADD SWAP1 PUSH2 0xEFD SWAP2 SWAP1 PUSH2 0x2524 JUMP JUMPDEST PUSH2 0xF33 JUMPI PUSH1 0x40 MLOAD PUSH32 0x90B8EC1800000000000000000000000000000000000000000000000000000000 DUP2 MSTORE PUSH1 0x4 ADD PUSH1 0x40 MLOAD DUP1 SWAP2 SUB SWAP1 REVERT JUMPDEST CALLER PUSH20 0xFFFFFFFFFFFFFFFFFFFFFFFFFFFFFFFFFFFFFFFF AND PUSH32 0x34FCBAC0073D7C3D388E51312FAF357774904998EEB8FCA628B9E6F65EE1CBF7 DUP3 TIMESTAMP PUSH1 0x40 MLOAD PUSH2 0xF7B SWAP3 SWAP2 SWAP1 PUSH2 0x24AC JUMP JUMPDEST PUSH1 0x40 MLOAD DUP1 SWAP2 SUB SWAP1 LOG2 POP POP JUMP JUMPDEST PUSH2 0xF8F PUSH2 0x11D1 JUMP JUMPDEST PUSH2 0xF98 PUSH0 PUSH2 0x1258 JUMP JUMPDEST JUMP JUMPDEST PUSH0 PUSH0 PUSH1 0x4 PUSH0 DUP5 PUSH20 0xFFFFFFFFFFFFFFFFFFFFFFFFFFFFFFFFFFFFFFFF AND PUSH20 0xFFFFFFFFFFFFFFFFFFFFFFFFFFFFFFFFFFFFFFFF AND DUP2 MSTORE PUSH1 0x20 ADD SWAP1 DUP2 MSTORE PUSH1 0x20 ADD PUSH0 KECCAK256 PUSH1 0x40 MLOAD DUP1 PUSH1 0xC0 ADD PUSH1 0x40 MSTORE SWAP1 DUP2 PUSH0 DUP3 ADD SLOAD DUP2 MSTORE PUSH1 0x20 ADD PUSH1 0x1 DUP3 ADD SLOAD DUP2 MSTORE PUSH1 0x20 ADD PUSH1 0x2 DUP3 ADD SLOAD DUP2 MSTORE PUSH1 0x20 ADD PUSH1 0x3 DUP3 ADD SLOAD DUP2 MSTORE PUSH1 0x20 ADD PUSH1 0x4 DUP3 ADD SLOAD DUP2 MSTORE PUSH1 0x20 ADD PUSH1 0x5 DUP3 ADD SLOAD DUP2 MSTORE POP POP SWAP1 POP PUSH0 DUP2 PUSH0 ADD MLOAD EQ DUP1 PUSH2 0x1044 JUMPI POP DUP1 PUSH1 0x40 ADD MLOAD DUP2 PUSH1 0x20 ADD MLOAD PUSH2 0x1041 SWAP2 SWAP1 PUSH2 0x1F00 JUMP JUMPDEST TIMESTAMP LT JUMPDEST ISZERO PUSH2 0x1052 JUMPI PUSH0 SWAP2 POP POP PUSH2 0x106E JUMP JUMPDEST DUP1 PUSH1 0x80 ADD MLOAD PUSH2 0x1060 DUP5 PUSH2 0x1319 JUMP JUMPDEST PUSH2 0x106A SWAP2 SWAP1 PUSH2 0x254F JUMP JUMPDEST SWAP2 POP POP JUMPDEST SWAP2 SWAP1 POP JUMP JUMPDEST PUSH0 PUSH0 PUSH0 SWAP1 SLOAD SWAP1 PUSH2 0x100 EXP SWAP1 DIV PUSH20 0xFFFFFFFFFFFFFFFFFFFFFFFFFFFFFFFFFFFFFFFF AND SWAP1 POP SWAP1 JUMP JUMPDEST PUSH1 0x60 DUP4 DUP4 DUP4 PUSH1 0x40 MLOAD PUSH1 0x20 ADD PUSH2 0x10B1 SWAP4 SWAP3 SWAP2 SWAP1 PUSH2 0x2582 JUMP JUMPDEST PUSH1 0x40 MLOAD PUSH1 0x20 DUP2 DUP4 SUB SUB DUP2 MSTORE SWAP1 PUSH1 0x40 MSTORE SWAP1 POP SWAP4 SWAP3 POP POP POP JUMP JUMPDEST PUSH2 0x10D1 PUSH2 0x11D1 JUMP JUMPDEST DUP2 PUSH1 0x2 DUP2 SWAP1 SSTORE POP DUP1 PUSH1 0x3 DUP2 SWAP1 SSTORE POP PUSH32 0x64DF5F7E1804E0833E0DE6A22852912960E50C4760C47D96F88138F670975912 DUP3 DUP3 PUSH1 0x40 MLOAD PUSH2 0x1110 SWAP3 SWAP2 SWAP1 PUSH2 0x24AC JUMP JUMPDEST PUSH1 0x40 MLOAD DUP1 SWAP2 SUB SWAP1 LOG1 POP POP JUMP JUMPDEST PUSH1 0x3 SLOAD DUP2 JUMP JUMPDEST PUSH2 0x112A PUSH2 0x11D1 JUMP JUMPDEST PUSH0 PUSH20 0xFFFFFFFFFFFFFFFFFFFFFFFFFFFFFFFFFFFFFFFF AND DUP2 PUSH20 0xFFFFFFFFFFFFFFFFFFFFFFFFFFFFFFFFFFFFFFFF AND SUB PUSH2 0x119A JUMPI PUSH0 PUSH1 0x40 MLOAD PUSH32 0x1E4FBDF700000000000000000000000000000000000000000000000000000000 DUP2 MSTORE PUSH1 0x4 ADD PUSH2 0x1191 SWAP2 SWAP1 PUSH2 0x1A56 JUMP JUMPDEST PUSH1 0x40 MLOAD DUP1 SWAP2 SUB SWAP1 REVERT JUMPDEST PUSH2 0x11A3 DUP2 PUSH2 0x1258 JUMP JUMPDEST POP JUMP JUMPDEST PUSH1 0x1 PUSH0 SWAP1 SLOAD SWAP1 PUSH2 0x100 EXP SWAP1 DIV PUSH20 0xFFFFFFFFFFFFFFFFFFFFFFFFFFFFFFFFFFFFFFFF AND DUP2 JUMP JUMPDEST PUSH1 0x2 SLOAD DUP2 JUMP JUMPDEST PUSH2 0x11D9 PUSH2 0x1433 JUMP JUMPDEST PUSH20 0xFFFFFFFFFFFFFFFFFFFFFFFFFFFFFFFFFFFFFFFF AND PUSH2 0x11F7 PUSH2 0x1073 JUMP JUMPDEST PUSH20 0xFFFFFFFFFFFFFFFFFFFFFFFFFFFFFFFFFFFFFFFF AND EQ PUSH2 0x1256 JUMPI PUSH2 0x121A PUSH2 0x1433 JUMP JUMPDEST PUSH1 0x40 MLOAD PUSH32 0x118CDAA700000000000000000000000000000000000000000000000000000000 DUP2 MSTORE PUSH1 0x4 ADD PUSH2 0x124D SWAP2 SWAP1 PUSH2 0x1A56 JUMP JUMPDEST PUSH1 0x40 MLOAD DUP1 SWAP2 SUB SWAP1 REVERT JUMPDEST JUMP JUMPDEST PUSH0 PUSH0 PUSH0 SWAP1 SLOAD SWAP1 PUSH2 0x100 EXP SWAP1 DIV PUSH20 0xFFFFFFFFFFFFFFFFFFFFFFFFFFFFFFFFFFFFFFFF AND SWAP1 POP DUP2 PUSH0 PUSH0 PUSH2 0x100 EXP DUP2 SLOAD DUP2 PUSH20 0xFFFFFFFFFFFFFFFFFFFFFFFFFFFFFFFFFFFFFFFF MUL NOT AND SWAP1 DUP4 PUSH20 0xFFFFFFFFFFFFFFFFFFFFFFFFFFFFFFFFFFFFFFFF AND MUL OR SWAP1 SSTORE POP DUP2 PUSH20 0xFFFFFFFFFFFFFFFFFFFFFFFFFFFFFFFFFFFFFFFF AND DUP2 PUSH20 0xFFFFFFFFFFFFFFFFFFFFFFFFFFFFFFFFFFFFFFFF AND PUSH32 0x8BE0079C531659141344CD1FD0A4F28419497F9722A3DAAFE3B4186F6B6457E0 PUSH1 0x40 MLOAD PUSH1 0x40 MLOAD DUP1 SWAP2 SUB SWAP1 LOG3 POP POP JUMP JUMPDEST PUSH0 PUSH0 PUSH1 0x4 PUSH0 DUP5 PUSH20 0xFFFFFFFFFFFFFFFFFFFFFFFFFFFFFFFFFFFFFFFF AND PUSH20 0xFFFFFFFFFFFFFFFFFFFFFFFFFFFFFFFFFFFFFFFF AND DUP2 MSTORE PUSH1 0x20 ADD SWAP1 DUP2 MSTORE PUSH1 0x20 ADD PUSH0 KECCAK256 PUSH1 0x40 MLOAD DUP1 PUSH1 0xC0 ADD PUSH1 0x40 MSTORE SWAP1 DUP2 PUSH0 DUP3 ADD SLOAD DUP2 MSTORE PUSH1 0x20 ADD PUSH1 0x1 DUP3 ADD SLOAD DUP2 MSTORE PUSH1 0x20 ADD PUSH1 0x2 DUP3 ADD SLOAD DUP2 MSTORE PUSH1 0x20 ADD PUSH1 0x3 DUP3 ADD SLOAD DUP2 MSTORE PUSH1 0x20 ADD PUSH1 0x4 DUP3 ADD SLOAD DUP2 MSTORE PUSH1 0x20 ADD PUSH1 0x5 DUP3 ADD SLOAD DUP2 MSTORE POP POP SWAP1 POP PUSH0 DUP2 PUSH0 ADD MLOAD EQ DUP1 PUSH2 0x13C3 JUMPI POP DUP1 PUSH1 0x40 ADD MLOAD DUP2 PUSH1 0x20 ADD MLOAD PUSH2 0x13C0 SWAP2 SWAP1 PUSH2 0x1F00 JUMP JUMPDEST TIMESTAMP LT JUMPDEST ISZERO PUSH2 0x13D1 JUMPI PUSH0 SWAP2 POP POP PUSH2 0x142E JUMP JUMPDEST PUSH0 DUP2 PUSH1 0x40 ADD MLOAD DUP3 PUSH1 0x20 ADD MLOAD PUSH2 0x13E6 SWAP2 SWAP1 PUSH2 0x1F00 JUMP JUMPDEST TIMESTAMP PUSH2 0x13F1 SWAP2 SWAP1 PUSH2 0x254F JUMP JUMPDEST SWAP1 POP DUP2 PUSH1 0x60 ADD MLOAD DUP2 LT PUSH2 0x140B JUMPI DUP2 PUSH0 ADD MLOAD SWAP3 POP POP POP PUSH2 0x142E JUMP JUMPDEST DUP2 PUSH1 0x60 ADD MLOAD DUP2 DUP4 PUSH0 ADD MLOAD PUSH2 0x141F SWAP2 SWAP1 PUSH2 0x25B7 JUMP JUMPDEST PUSH2 0x1429 SWAP2 SWAP1 PUSH2 0x2625 JUMP JUMPDEST SWAP3 POP POP POP JUMPDEST SWAP2 SWAP1 POP JUMP JUMPDEST PUSH0 CALLER SWAP1 POP SWAP1 JUMP JUMPDEST PUSH0 PUSH1 0x40 MLOAD SWAP1 POP SWAP1 JUMP JUMPDEST PUSH0 PUSH0 REVERT JUMPDEST PUSH0 PUSH0 REVERT JUMPDEST PUSH0 PUSH0 REVERT JUMPDEST PUSH0 PUSH0 REVERT JUMPDEST PUSH0 PUSH1 0x1F NOT PUSH1 0x1F DUP4 ADD AND SWAP1 POP SWAP2 SWAP1 POP JUMP JUMPDEST PUSH32 0x4E487B7100000000000000000000000000000000000000000000000000000000 PUSH0 MSTORE PUSH1 0x41 PUSH1 0x4 MSTORE PUSH1 0x24 PUSH0 REVERT JUMPDEST PUSH2 0x1499 DUP3 PUSH2 0x1453 JUMP JUMPDEST DUP2 ADD DUP2 DUP2 LT PUSH8 0xFFFFFFFFFFFFFFFF DUP3 GT OR ISZERO PUSH2 0x14B8 JUMPI PUSH2 0x14B7 PUSH2 0x1463 JUMP JUMPDEST JUMPDEST DUP1 PUSH1 0x40 MSTORE POP POP POP JUMP JUMPDEST PUSH0 PUSH2 0x14CA PUSH2 0x143A JUMP JUMPDEST SWAP1 POP PUSH2 0x14D6 DUP3 DUP3 PUSH2 0x1490 JUMP JUMPDEST SWAP2 SWAP1 POP JUMP JUMPDEST PUSH0 PUSH8 0xFFFFFFFFFFFFFFFF DUP3 GT ISZERO PUSH2 0x14F5 JUMPI PUSH2 0x14F4 PUSH2 0x1463 JUMP JUMPDEST JUMPDEST PUSH2 0x14FE DUP3 PUSH2 0x1453 JUMP JUMPDEST SWAP1 POP PUSH1 0x20 DUP2 ADD SWAP1 POP SWAP2 SWAP1 POP JUMP JUMPDEST DUP3 DUP2 DUP4 CALLDATACOPY PUSH0 DUP4 DUP4 ADD MSTORE POP POP POP JUMP JUMPDEST PUSH0 PUSH2 0x152B PUSH2 0x1526 DUP5 PUSH2 0x14DB JUMP JUMPDEST PUSH2 0x14C1 JUMP JUMPDEST SWAP1 POP DUP3 DUP2 MSTORE PUSH1 0x20 DUP2 ADD DUP5 DUP5 DUP5 ADD GT ISZERO PUSH2 0x1547 JUMPI PUSH2 0x1546 PUSH2 0x144F JUMP JUMPDEST JUMPDEST PUSH2 0x1552 DUP5 DUP3 DUP6 PUSH2 0x150B JUMP JUMPDEST POP SWAP4 SWAP3 POP POP POP JUMP JUMPDEST PUSH0 DUP3 PUSH1 0x1F DUP4 ADD SLT PUSH2 0x156E JUMPI PUSH2 0x156D PUSH2 0x144B JUMP JUMPDEST JUMPDEST DUP2 CALLDATALOAD PUSH2 0x157E DUP5 DUP3 PUSH1 0x20 DUP7 ADD PUSH2 0x1519 JUMP JUMPDEST SWAP2 POP POP SWAP3 SWAP2 POP POP JUMP JUMPDEST PUSH0 PUSH1 0x20 DUP3 DUP5 SUB SLT ISZERO PUSH2 0x159C JUMPI PUSH2 0x159B PUSH2 0x1443 JUMP JUMPDEST JUMPDEST PUSH0 DUP3 ADD CALLDATALOAD PUSH8 0xFFFFFFFFFFFFFFFF DUP2 GT ISZERO PUSH2 0x15B9 JUMPI PUSH2 0x15B8 PUSH2 0x1447 JUMP JUMPDEST JUMPDEST PUSH2 0x15C5 DUP5 DUP3 DUP6 ADD PUSH2 0x155A JUMP JUMPDEST SWAP2 POP POP SWAP3 SWAP2 POP POP JUMP JUMPDEST PUSH0 PUSH20 0xFFFFFFFFFFFFFFFFFFFFFFFFFFFFFFFFFFFFFFFF DUP3 AND SWAP1 POP SWAP2 SWAP1 POP JUMP JUMPDEST PUSH0 PUSH2 0x15F7 DUP3 PUSH2 0x15CE JUMP JUMPDEST SWAP1 POP SWAP2 SWAP1 POP JUMP JUMPDEST PUSH2 0x1607 DUP2 PUSH2 0x15ED JUMP JUMPDEST DUP2 EQ PUSH2 0x1611 JUMPI PUSH0 PUSH0 REVERT JUMPDEST POP JUMP JUMPDEST PUSH0 DUP2 CALLDATALOAD SWAP1 POP PUSH2 0x1622 DUP2 PUSH2 0x15FE JUMP JUMPDEST SWAP3 SWAP2 POP POP JUMP JUMPDEST PUSH0 PUSH1 0x20 DUP3 DUP5 SUB SLT ISZERO PUSH2 0x163D JUMPI PUSH2 0x163C PUSH2 0x1443 JUMP JUMPDEST JUMPDEST PUSH0 PUSH2 0x164A DUP5 DUP3 DUP6 ADD PUSH2 0x1614 JUMP JUMPDEST SWAP2 POP POP SWAP3 SWAP2 POP POP JUMP JUMPDEST PUSH0 DUP2 SWAP1 POP SWAP2 SWAP1 POP JUMP JUMPDEST PUSH2 0x1665 DUP2 PUSH2 0x1653 JUMP JUMPDEST DUP3 MSTORE POP POP JUMP JUMPDEST PUSH0 PUSH1 0xC0 DUP3 ADD SWAP1 POP PUSH2 0x167E PUSH0 DUP4 ADD DUP10 PUSH2 0x165C JUMP JUMPDEST PUSH2 0x168B PUSH1 0x20 DUP4 ADD DUP9 PUSH2 0x165C JUMP JUMPDEST PUSH2 0x1698 PUSH1 0x40 DUP4 ADD DUP8 PUSH2 0x165C JUMP JUMPDEST PUSH2 0x16A5 PUSH1 0x60 DUP4 ADD DUP7 PUSH2 0x165C JUMP JUMPDEST PUSH2 0x16B2 PUSH1 0x80 DUP4 ADD DUP6 PUSH2 0x165C JUMP JUMPDEST PUSH2 0x16BF PUSH1 0xA0 DUP4 ADD DUP5 PUSH2 0x165C JUMP JUMPDEST SWAP8 SWAP7 POP POP POP POP POP POP POP JUMP JUMPDEST PUSH0 PUSH8 0xFFFFFFFFFFFFFFFF DUP3 GT ISZERO PUSH2 0x16E4 JUMPI PUSH2 0x16E3 PUSH2 0x1463 JUMP JUMPDEST JUMPDEST PUSH1 0x20 DUP3 MUL SWAP1 POP PUSH1 0x20 DUP2 ADD SWAP1 POP SWAP2 SWAP1 POP JUMP JUMPDEST PUSH0 PUSH0 REVERT JUMPDEST PUSH0 PUSH2 0x170B PUSH2 0x1706 DUP5 PUSH2 0x16CA JUMP JUMPDEST PUSH2 0x14C1 JUMP JUMPDEST SWAP1 POP DUP1 DUP4 DUP3 MSTORE PUSH1 0x20 DUP3 ADD SWAP1 POP PUSH1 0x20 DUP5 MUL DUP4 ADD DUP6 DUP2 GT ISZERO PUSH2 0x172E JUMPI PUSH2 0x172D PUSH2 0x16F5 JUMP JUMPDEST JUMPDEST DUP4 JUMPDEST DUP2 DUP2 LT ISZERO PUSH2 0x1757 JUMPI DUP1 PUSH2 0x1743 DUP9 DUP3 PUSH2 0x1614 JUMP JUMPDEST DUP5 MSTORE PUSH1 0x20 DUP5 ADD SWAP4 POP POP PUSH1 0x20 DUP2 ADD SWAP1 POP PUSH2 0x1730 JUMP JUMPDEST POP POP POP SWAP4 SWAP3 POP POP POP JUMP JUMPDEST PUSH0 DUP3 PUSH1 0x1F DUP4 ADD SLT PUSH2 0x1775 JUMPI PUSH2 0x1774 PUSH2 0x144B JUMP JUMPDEST JUMPDEST DUP2 CALLDATALOAD PUSH2 0x1785 DUP5 DUP3 PUSH1 0x20 DUP7 ADD PUSH2 0x16F9 JUMP JUMPDEST SWAP2 POP POP SWAP3 SWAP2 POP POP JUMP JUMPDEST PUSH0 PUSH8 0xFFFFFFFFFFFFFFFF DUP3 GT ISZERO PUSH2 0x17A8 JUMPI PUSH2 0x17A7 PUSH2 0x1463 JUMP JUMPDEST JUMPDEST PUSH1 0x20 DUP3 MUL SWAP1 POP PUSH1 0x20 DUP2 ADD SWAP1 POP SWAP2 SWAP1 POP JUMP JUMPDEST PUSH2 0x17C2 DUP2 PUSH2 0x1653 JUMP JUMPDEST DUP2 EQ PUSH2 0x17CC JUMPI PUSH0 PUSH0 REVERT JUMPDEST POP JUMP JUMPDEST PUSH0 DUP2 CALLDATALOAD SWAP1 POP PUSH2 0x17DD DUP2 PUSH2 0x17B9 JUMP JUMPDEST SWAP3 SWAP2 POP POP JUMP JUMPDEST PUSH0 PUSH2 0x17F5 PUSH2 0x17F0 DUP5 PUSH2 0x178E JUMP JUMPDEST PUSH2 0x14C1 JUMP JUMPDEST SWAP1 POP DUP1 DUP4 DUP3 MSTORE PUSH1 0x20 DUP3 ADD SWAP1 POP PUSH1 0x20 DUP5 MUL DUP4 ADD DUP6 DUP2 GT ISZERO PUSH2 0x1818 JUMPI PUSH2 0x1817 PUSH2 0x16F5 JUMP JUMPDEST JUMPDEST DUP4 JUMPDEST DUP2 DUP2 LT ISZERO PUSH2 0x1841 JUMPI DUP1 PUSH2 0x182D DUP9 DUP3 PUSH2 0x17CF JUMP JUMPDEST DUP5 MSTORE PUSH1 0x20 DUP5 ADD SWAP4 POP POP PUSH1 0x20 DUP2 ADD SWAP1 POP PUSH2 0x181A JUMP JUMPDEST POP POP POP SWAP4 SWAP3 POP POP POP JUMP JUMPDEST PUSH0 DUP3 PUSH1 0x1F DUP4 ADD SLT PUSH2 0x185F JUMPI PUSH2 0x185E PUSH2 0x144B JUMP JUMPDEST JUMPDEST DUP2 CALLDATALOAD PUSH2 0x186F DUP5 DUP3 PUSH1 0x20 DUP7 ADD PUSH2 0x17E3 JUMP JUMPDEST SWAP2 POP POP SWAP3 SWAP2 POP POP JUMP JUMPDEST PUSH0 PUSH0 PUSH0 PUSH0 PUSH0 PUSH1 0xA0 DUP7 DUP9 SUB SLT ISZERO PUSH2 0x1891 JUMPI PUSH2 0x1890 PUSH2 0x1443 JUMP JUMPDEST JUMPDEST PUSH0 DUP7 ADD CALLDATALOAD PUSH8 0xFFFFFFFFFFFFFFFF DUP2 GT ISZERO PUSH2 0x18AE JUMPI PUSH2 0x18AD PUSH2 0x1447 JUMP JUMPDEST JUMPDEST PUSH2 0x18BA DUP9 DUP3 DUP10 ADD PUSH2 0x1761 JUMP JUMPDEST SWAP6 POP POP PUSH1 0x20 DUP7 ADD CALLDATALOAD PUSH8 0xFFFFFFFFFFFFFFFF DUP2 GT ISZERO PUSH2 0x18DB JUMPI PUSH2 0x18DA PUSH2 0x1447 JUMP JUMPDEST JUMPDEST PUSH2 0x18E7 DUP9 DUP3 DUP10 ADD PUSH2 0x184B JUMP JUMPDEST SWAP5 POP POP PUSH1 0x40 DUP7 ADD CALLDATALOAD PUSH8 0xFFFFFFFFFFFFFFFF DUP2 GT ISZERO PUSH2 0x1908 JUMPI PUSH2 0x1907 PUSH2 0x1447 JUMP JUMPDEST JUMPDEST PUSH2 0x1914 DUP9 DUP3 DUP10 ADD PUSH2 0x184B JUMP JUMPDEST SWAP4 POP POP PUSH1 0x60 DUP7 ADD CALLDATALOAD PUSH8 0xFFFFFFFFFFFFFFFF DUP2 GT ISZERO PUSH2 0x1935 JUMPI PUSH2 0x1934 PUSH2 0x1447 JUMP JUMPDEST JUMPDEST PUSH2 0x1941 DUP9 DUP3 DUP10 ADD PUSH2 0x184B JUMP JUMPDEST SWAP3 POP POP PUSH1 0x80 DUP7 ADD CALLDATALOAD PUSH8 0xFFFFFFFFFFFFFFFF DUP2 GT ISZERO PUSH2 0x1962 JUMPI PUSH2 0x1961 PUSH2 0x1447 JUMP JUMPDEST JUMPDEST PUSH2 0x196E DUP9 DUP3 DUP10 ADD PUSH2 0x184B JUMP JUMPDEST SWAP2 POP POP SWAP3 SWAP6 POP SWAP3 SWAP6 SWAP1 SWAP4 POP JUMP JUMPDEST PUSH0 DUP2 MLOAD SWAP1 POP SWAP2 SWAP1 POP JUMP JUMPDEST PUSH0 DUP3 DUP3 MSTORE PUSH1 0x20 DUP3 ADD SWAP1 POP SWAP3 SWAP2 POP POP JUMP JUMPDEST DUP3 DUP2 DUP4 MCOPY PUSH0 DUP4 DUP4 ADD MSTORE POP POP POP JUMP JUMPDEST PUSH0 PUSH2 0x19AD DUP3 PUSH2 0x197B JUMP JUMPDEST PUSH2 0x19B7 DUP2 DUP6 PUSH2 0x1985 JUMP JUMPDEST SWAP4 POP PUSH2 0x19C7 DUP2 DUP6 PUSH1 0x20 DUP7 ADD PUSH2 0x1995 JUMP JUMPDEST PUSH2 0x19D0 DUP2 PUSH2 0x1453 JUMP JUMPDEST DUP5 ADD SWAP2 POP POP SWAP3 SWAP2 POP POP JUMP JUMPDEST PUSH0 PUSH1 0x20 DUP3 ADD SWAP1 POP DUP2 DUP2 SUB PUSH0 DUP4 ADD MSTORE PUSH2 0x19F3 DUP2 DUP5 PUSH2 0x19A3 JUMP JUMPDEST SWAP1 POP SWAP3 SWAP2 POP POP JUMP JUMPDEST PUSH0 DUP2 ISZERO ISZERO SWAP1 POP SWAP2 SWAP1 POP JUMP JUMPDEST PUSH2 0x1A0F DUP2 PUSH2 0x19FB JUMP JUMPDEST DUP3 MSTORE POP POP JUMP JUMPDEST PUSH0 PUSH1 0x20 DUP3 ADD SWAP1 POP PUSH2 0x1A28 PUSH0 DUP4 ADD DUP5 PUSH2 0x1A06 JUMP JUMPDEST SWAP3 SWAP2 POP POP JUMP JUMPDEST PUSH0 PUSH1 0x20 DUP3 ADD SWAP1 POP PUSH2 0x1A41 PUSH0 DUP4 ADD DUP5 PUSH2 0x165C JUMP JUMPDEST SWAP3 SWAP2 POP POP JUMP JUMPDEST PUSH2 0x1A50 DUP2 PUSH2 0x15ED JUMP JUMPDEST DUP3 MSTORE POP POP JUMP JUMPDEST PUSH0 PUSH1 0x20 DUP3 ADD SWAP1 POP PUSH2 0x1A69 PUSH0 DUP4 ADD DUP5 PUSH2 0x1A47 JUMP JUMPDEST SWAP3 SWAP2 POP POP JUMP JUMPDEST PUSH0 PUSH0 PUSH0 PUSH1 0x60 DUP5 DUP7 SUB SLT ISZERO PUSH2 0x1A86 JUMPI PUSH2 0x1A85 PUSH2 0x1443 JUMP JUMPDEST JUMPDEST PUSH0 PUSH2 0x1A93 DUP7 DUP3 DUP8 ADD PUSH2 0x1614 JUMP JUMPDEST SWAP4 POP POP PUSH1 0x20 PUSH2 0x1AA4 DUP7 DUP3 DUP8 ADD PUSH2 0x17CF JUMP JUMPDEST SWAP3 POP POP PUSH1 0x40 PUSH2 0x1AB5 DUP7 DUP3 DUP8 ADD PUSH2 0x17CF JUMP JUMPDEST SWAP2 POP POP SWAP3 POP SWAP3 POP SWAP3 JUMP JUMPDEST PUSH0 PUSH0 PUSH1 0x40 DUP4 DUP6 SUB SLT ISZERO PUSH2 0x1AD5 JUMPI PUSH2 0x1AD4 PUSH2 0x1443 JUMP JUMPDEST JUMPDEST PUSH0 PUSH2 0x1AE2 DUP6 DUP3 DUP7 ADD PUSH2 0x17CF JUMP JUMPDEST SWAP3 POP POP PUSH1 0x20 PUSH2 0x1AF3 DUP6 DUP3 DUP7 ADD PUSH2 0x17CF JUMP JUMPDEST SWAP2 POP POP SWAP3 POP SWAP3 SWAP1 POP JUMP JUMPDEST PUSH0 DUP2 SWAP1 POP SWAP2 SWAP1 POP JUMP JUMPDEST PUSH0 PUSH2 0x1B20 PUSH2 0x1B1B PUSH2 0x1B16 DUP5 PUSH2 0x15CE JUMP JUMPDEST PUSH2 0x1AFD JUMP JUMPDEST PUSH2 0x15CE JUMP JUMPDEST SWAP1 POP SWAP2 SWAP1 POP JUMP JUMPDEST PUSH0 PUSH2 0x1B31 DUP3 PUSH2 0x1B06 JUMP JUMPDEST SWAP1 POP SWAP2 SWAP1 POP JUMP JUMPDEST PUSH0 PUSH2 0x1B42 DUP3 PUSH2 0x1B27 JUMP JUMPDEST SWAP1 POP SWAP2 SWAP1 POP JUMP JUMPDEST PUSH2 0x1B52 DUP2 PUSH2 0x1B38 JUMP JUMPDEST DUP3 MSTORE POP POP JUMP JUMPDEST PUSH0 PUSH1 0x20 DUP3 ADD SWAP1 POP PUSH2 0x1B6B PUSH0 DUP4 ADD DUP5 PUSH2 0x1B49 JUMP JUMPDEST SWAP3 SWAP2 POP POP JUMP JUMPDEST PUSH0 DUP2 MLOAD SWAP1 POP PUSH2 0x1B7F DUP2 PUSH2 0x15FE JUMP JUMPDEST SWAP3 SWAP2 POP POP JUMP JUMPDEST PUSH0 PUSH2 0x1B97 PUSH2 0x1B92 DUP5 PUSH2 0x16CA JUMP JUMPDEST PUSH2 0x14C1 JUMP JUMPDEST SWAP1 POP DUP1 DUP4 DUP3 MSTORE PUSH1 0x20 DUP3 ADD SWAP1 POP PUSH1 0x20 DUP5 MUL DUP4 ADD DUP6 DUP2 GT ISZERO PUSH2 0x1BBA JUMPI PUSH2 0x1BB9 PUSH2 0x16F5 JUMP JUMPDEST JUMPDEST DUP4 JUMPDEST DUP2 DUP2 LT ISZERO PUSH2 0x1BE3 JUMPI DUP1 PUSH2 0x1BCF DUP9 DUP3 PUSH2 0x1B71 JUMP JUMPDEST DUP5 MSTORE PUSH1 0x20 DUP5 ADD SWAP4 POP POP PUSH1 0x20 DUP2 ADD SWAP1 POP PUSH2 0x1BBC JUMP JUMPDEST POP POP POP SWAP4 SWAP3 POP POP POP JUMP JUMPDEST PUSH0 DUP3 PUSH1 0x1F DUP4 ADD SLT PUSH2 0x1C01 JUMPI PUSH2 0x1C00 PUSH2 0x144B JUMP JUMPDEST JUMPDEST DUP2 MLOAD PUSH2 0x1C11 DUP5 DUP3 PUSH1 0x20 DUP7 ADD PUSH2 0x1B85 JUMP JUMPDEST SWAP2 POP POP SWAP3 SWAP2 POP POP JUMP JUMPDEST PUSH0 DUP2 MLOAD SWAP1 POP PUSH2 0x1C28 DUP2 PUSH2 0x17B9 JUMP JUMPDEST SWAP3 SWAP2 POP POP JUMP JUMPDEST PUSH0 PUSH2 0x1C40 PUSH2 0x1C3B DUP5 PUSH2 0x178E JUMP JUMPDEST PUSH2 0x14C1 JUMP JUMPDEST SWAP1 POP DUP1 DUP4 DUP3 MSTORE PUSH1 0x20 DUP3 ADD SWAP1 POP PUSH1 0x20 DUP5 MUL DUP4 ADD DUP6 DUP2 GT ISZERO PUSH2 0x1C63 JUMPI PUSH2 0x1C62 PUSH2 0x16F5 JUMP JUMPDEST JUMPDEST DUP4 JUMPDEST DUP2 DUP2 LT ISZERO PUSH2 0x1C8C JUMPI DUP1 PUSH2 0x1C78 DUP9 DUP3 PUSH2 0x1C1A JUMP JUMPDEST DUP5 MSTORE PUSH1 0x20 DUP5 ADD SWAP4 POP POP PUSH1 0x20 DUP2 ADD SWAP1 POP PUSH2 0x1C65 JUMP JUMPDEST POP POP POP SWAP4 SWAP3 POP POP POP JUMP JUMPDEST PUSH0 DUP3 PUSH1 0x1F DUP4 ADD SLT PUSH2 0x1CAA JUMPI PUSH2 0x1CA9 PUSH2 0x144B JUMP JUMPDEST JUMPDEST DUP2 MLOAD PUSH2 0x1CBA DUP5 DUP3 PUSH1 0x20 DUP7 ADD PUSH2 0x1C2E JUMP JUMPDEST SWAP2 POP POP SWAP3 SWAP2 POP POP JUMP JUMPDEST PUSH0 PUSH0 PUSH0 PUSH0 PUSH0 PUSH1 0xA0 DUP7 DUP9 SUB SLT ISZERO PUSH2 0x1CDC JUMPI PUSH2 0x1CDB PUSH2 0x1443 JUMP JUMPDEST JUMPDEST PUSH0 DUP7 ADD MLOAD PUSH8 0xFFFFFFFFFFFFFFFF DUP2 GT ISZERO PUSH2 0x1CF9 JUMPI PUSH2 0x1CF8 PUSH2 0x1447 JUMP JUMPDEST JUMPDEST PUSH2 0x1D05 DUP9 DUP3 DUP10 ADD PUSH2 0x1BED JUMP JUMPDEST SWAP6 POP POP PUSH1 0x20 DUP7 ADD MLOAD PUSH8 0xFFFFFFFFFFFFFFFF DUP2 GT ISZERO PUSH2 0x1D26 JUMPI PUSH2 0x1D25 PUSH2 0x1447 JUMP JUMPDEST JUMPDEST PUSH2 0x1D32 DUP9 DUP3 DUP10 ADD PUSH2 0x1C96 JUMP JUMPDEST SWAP5 POP POP PUSH1 0x40 DUP7 ADD MLOAD PUSH8 0xFFFFFFFFFFFFFFFF DUP2 GT ISZERO PUSH2 0x1D53 JUMPI PUSH2 0x1D52 PUSH2 0x1447 JUMP JUMPDEST JUMPDEST PUSH2 0x1D5F DUP9 DUP3 DUP10 ADD PUSH2 0x1C96 JUMP JUMPDEST SWAP4 POP POP PUSH1 0x60 DUP7 ADD MLOAD PUSH8 0xFFFFFFFFFFFFFFFF DUP2 GT ISZERO PUSH2 0x1D80 JUMPI PUSH2 0x1D7F PUSH2 0x1447 JUMP JUMPDEST JUMPDEST PUSH2 0x1D8C DUP9 DUP3 DUP10 ADD PUSH2 0x1C96 JUMP JUMPDEST SWAP3 POP POP PUSH1 0x80 DUP7 ADD MLOAD PUSH8 0xFFFFFFFFFFFFFFFF DUP2 GT ISZERO PUSH2 0x1DAD JUMPI PUSH2 0x1DAC PUSH2 0x1447 JUMP JUMPDEST JUMPDEST PUSH2 0x1DB9 DUP9 DUP3 DUP10 ADD PUSH2 0x1C96 JUMP JUMPDEST SWAP2 POP POP SWAP3 SWAP6 POP SWAP3 SWAP6 SWAP1 SWAP4 POP JUMP JUMPDEST PUSH0 DUP3 DUP3 MSTORE PUSH1 0x20 DUP3 ADD SWAP1 POP SWAP3 SWAP2 POP POP JUMP JUMPDEST PUSH32 0x4172726179206C656E677468206D69736D617463680000000000000000000000 PUSH0 DUP3 ADD MSTORE POP JUMP JUMPDEST PUSH0 PUSH2 0x1E0A PUSH1 0x15 DUP4 PUSH2 0x1DC6 JUMP JUMPDEST SWAP2 POP PUSH2 0x1E15 DUP3 PUSH2 0x1DD6 JUMP JUMPDEST PUSH1 0x20 DUP3 ADD SWAP1 POP SWAP2 SWAP1 POP JUMP JUMPDEST PUSH0 PUSH1 0x20 DUP3 ADD SWAP1 POP DUP2 DUP2 SUB PUSH0 DUP4 ADD MSTORE PUSH2 0x1E37 DUP2 PUSH2 0x1DFE JUMP JUMPDEST SWAP1 POP SWAP2 SWAP1 POP JUMP JUMPDEST PUSH32 0x4E6F2062656E656669636961726965732070726F766964656400000000000000 PUSH0 DUP3 ADD MSTORE POP JUMP JUMPDEST PUSH0 PUSH2 0x1E72 PUSH1 0x19 DUP4 PUSH2 0x1DC6 JUMP JUMPDEST SWAP2 POP PUSH2 0x1E7D DUP3 PUSH2 0x1E3E JUMP JUMPDEST PUSH1 0x20 DUP3 ADD SWAP1 POP SWAP2 SWAP1 POP JUMP JUMPDEST PUSH0 PUSH1 0x20 DUP3 ADD SWAP1 POP DUP2 DUP2 SUB PUSH0 DUP4 ADD MSTORE PUSH2 0x1E9F DUP2 PUSH2 0x1E66 JUMP JUMPDEST SWAP1 POP SWAP2 SWAP1 POP JUMP JUMPDEST PUSH32 0x4E487B7100000000000000000000000000000000000000000000000000000000 PUSH0 MSTORE PUSH1 0x32 PUSH1 0x4 MSTORE PUSH1 0x24 PUSH0 REVERT JUMPDEST PUSH32 0x4E487B7100000000000000000000000000000000000000000000000000000000 PUSH0 MSTORE PUSH1 0x11 PUSH1 0x4 MSTORE PUSH1 0x24 PUSH0 REVERT JUMPDEST PUSH0 PUSH2 0x1F0A DUP3 PUSH2 0x1653 JUMP JUMPDEST SWAP2 POP PUSH2 0x1F15 DUP4 PUSH2 0x1653 JUMP JUMPDEST SWAP3 POP DUP3 DUP3 ADD SWAP1 POP DUP1 DUP3 GT ISZERO PUSH2 0x1F2D JUMPI PUSH2 0x1F2C PUSH2 0x1ED3 JUMP JUMPDEST JUMPDEST SWAP3 SWAP2 POP POP JUMP JUMPDEST PUSH0 PUSH1 0x20 DUP3 DUP5 SUB SLT ISZERO PUSH2 0x1F48 JUMPI PUSH2 0x1F47 PUSH2 0x1443 JUMP JUMPDEST JUMPDEST PUSH0 PUSH2 0x1F55 DUP5 DUP3 DUP6 ADD PUSH2 0x1C1A JUMP JUMPDEST SWAP2 POP POP SWAP3 SWAP2 POP POP JUMP JUMPDEST PUSH32 0x496E76616C69642062656E656669636961727920616464726573730000000000 PUSH0 DUP3 ADD MSTORE POP JUMP JUMPDEST PUSH0 PUSH2 0x1F92 PUSH1 0x1B DUP4 PUSH2 0x1DC6 JUMP JUMPDEST SWAP2 POP PUSH2 0x1F9D DUP3 PUSH2 0x1F5E JUMP JUMPDEST PUSH1 0x20 DUP3 ADD SWAP1 POP SWAP2 SWAP1 POP JUMP JUMPDEST PUSH0 PUSH1 0x20 DUP3 ADD SWAP1 POP DUP2 DUP2 SUB PUSH0 DUP4 ADD MSTORE PUSH2 0x1FBF DUP2 PUSH2 0x1F86 JUMP JUMPDEST SWAP1 POP SWAP2 SWAP1 POP JUMP JUMPDEST PUSH32 0x496E76616C696420746F74616C20616D6F756E74000000000000000000000000 PUSH0 DUP3 ADD MSTORE POP JUMP JUMPDEST PUSH0 PUSH2 0x1FFA PUSH1 0x14 DUP4 PUSH2 0x1DC6 JUMP JUMPDEST SWAP2 POP PUSH2 0x2005 DUP3 PUSH2 0x1FC6 JUMP JUMPDEST PUSH1 0x20 DUP3 ADD SWAP1 POP SWAP2 SWAP1 POP JUMP JUMPDEST PUSH0 PUSH1 0x20 DUP3 ADD SWAP1 POP DUP2 DUP2 SUB PUSH0 DUP4 ADD MSTORE PUSH2 0x2027 DUP2 PUSH2 0x1FEE JUMP JUMPDEST SWAP1 POP SWAP2 SWAP1 POP JUMP JUMPDEST PUSH32 0x496E76616C6964206475726174696F6E00000000000000000000000000000000 PUSH0 DUP3 ADD MSTORE POP JUMP JUMPDEST PUSH0 PUSH2 0x2062 PUSH1 0x10 DUP4 PUSH2 0x1DC6 JUMP JUMPDEST SWAP2 POP PUSH2 0x206D DUP3 PUSH2 0x202E JUMP JUMPDEST PUSH1 0x20 DUP3 ADD SWAP1 POP SWAP2 SWAP1 POP JUMP JUMPDEST PUSH0 PUSH1 0x20 DUP3 ADD SWAP1 POP DUP2 DUP2 SUB PUSH0 DUP4 ADD MSTORE PUSH2 0x208F DUP2 PUSH2 0x2056 JUMP JUMPDEST SWAP1 POP SWAP2 SWAP1 POP JUMP JUMPDEST PUSH32 0x53746172742074696D65206D75737420626520696E2066757475726500000000 PUSH0 DUP3 ADD MSTORE POP JUMP JUMPDEST PUSH0 PUSH2 0x20CA PUSH1 0x1C DUP4 PUSH2 0x1DC6 JUMP JUMPDEST SWAP2 POP PUSH2 0x20D5 DUP3 PUSH2 0x2096 JUMP JUMPDEST PUSH1 0x20 DUP3 ADD SWAP1 POP SWAP2 SWAP1 POP JUMP JUMPDEST PUSH0 PUSH1 0x20 DUP3 ADD SWAP1 POP DUP2 DUP2 SUB PUSH0 DUP4 ADD MSTORE PUSH2 0x20F7 DUP2 PUSH2 0x20BE JUMP JUMPDEST SWAP1 POP SWAP2 SWAP1 POP JUMP JUMPDEST PUSH32 0x436C6966662065786365656473206475726174696F6E00000000000000000000 PUSH0 DUP3 ADD MSTORE POP JUMP JUMPDEST PUSH0 PUSH2 0x2132 PUSH1 0x16 DUP4 PUSH2 0x1DC6 JUMP JUMPDEST SWAP2 POP PUSH2 0x213D DUP3 PUSH2 0x20FE JUMP JUMPDEST PUSH1 0x20 DUP3 ADD SWAP1 POP SWAP2 SWAP1 POP JUMP JUMPDEST PUSH0 PUSH1 0x20 DUP3 ADD SWAP1 POP DUP2 DUP2 SUB PUSH0 DUP4 ADD MSTORE PUSH2 0x215F DUP2 PUSH2 0x2126 JUMP JUMPDEST SWAP1 POP SWAP2 SWAP1 POP JUMP JUMPDEST PUSH0 PUSH1 0x80 DUP3 ADD SWAP1 POP PUSH2 0x2179 PUSH0 DUP4 ADD DUP8 PUSH2 0x165C JUMP JUMPDEST PUSH2 0x2186 PUSH1 0x20 DUP4 ADD DUP7 PUSH2 0x165C JUMP JUMPDEST PUSH2 0x2193 PUSH1 0x40 DUP4 ADD DUP6 PUSH2 0x165C JUMP JUMPDEST PUSH2 0x21A0 PUSH1 0x60 DUP4 ADD DUP5 PUSH2 0x165C JUMP JUMPDEST SWAP6 SWAP5 POP POP POP POP POP JUMP JUMPDEST PUSH0 DUP2 MLOAD SWAP1 POP SWAP2 SWAP1 POP JUMP JUMPDEST PUSH0 DUP3 DUP3 MSTORE PUSH1 0x20 DUP3 ADD SWAP1 POP SWAP3 SWAP2 POP POP JUMP JUMPDEST PUSH0 DUP2 SWAP1 POP PUSH1 0x20 DUP3 ADD SWAP1 POP SWAP2 SWAP1 POP JUMP JUMPDEST PUSH2 0x21DB DUP2 PUSH2 0x15ED JUMP JUMPDEST DUP3 MSTORE POP POP JUMP JUMPDEST PUSH0 PUSH2 0x21EC DUP4 DUP4 PUSH2 0x21D2 JUMP JUMPDEST PUSH1 0x20 DUP4 ADD SWAP1 POP SWAP3 SWAP2 POP POP JUMP JUMPDEST PUSH0 PUSH1 0x20 DUP3 ADD SWAP1 POP SWAP2 SWAP1 POP JUMP JUMPDEST PUSH0 PUSH2 0x220E DUP3 PUSH2 0x21A9 JUMP JUMPDEST PUSH2 0x2218 DUP2 DUP6 PUSH2 0x21B3 JUMP JUMPDEST SWAP4 POP PUSH2 0x2223 DUP4 PUSH2 0x21C3 JUMP JUMPDEST DUP1 PUSH0 JUMPDEST DUP4 DUP2 LT ISZERO PUSH2 0x2253 JUMPI DUP2 MLOAD PUSH2 0x223A DUP9 DUP3 PUSH2 0x21E1 JUMP JUMPDEST SWAP8 POP PUSH2 0x2245 DUP4 PUSH2 0x21F8 JUMP JUMPDEST SWAP3 POP POP PUSH1 0x1 DUP2 ADD SWAP1 POP PUSH2 0x2226 JUMP JUMPDEST POP DUP6 SWAP4 POP POP POP POP SWAP3 SWAP2 POP POP JUMP JUMPDEST PUSH0 PUSH1 0x40 DUP3 ADD SWAP1 POP DUP2 DUP2 SUB PUSH0 DUP4 ADD MSTORE PUSH2 0x2278 DUP2 DUP6 PUSH2 0x2204 JUMP JUMPDEST SWAP1 POP PUSH2 0x2287 PUSH1 0x20 DUP4 ADD DUP5 PUSH2 0x165C JUMP JUMPDEST SWAP4 SWAP3 POP POP POP JUMP JUMPDEST PUSH0 DUP2 MLOAD SWAP1 POP SWAP2 SWAP1 POP JUMP JUMPDEST PUSH0 DUP3 DUP3 MSTORE PUSH1 0x20 DUP3 ADD SWAP1 POP SWAP3 SWAP2 POP POP JUMP JUMPDEST PUSH0 DUP2 SWAP1 POP PUSH1 0x20 DUP3 ADD SWAP1 POP SWAP2 SWAP1 POP JUMP JUMPDEST PUSH2 0x22C0 DUP2 PUSH2 0x1653 JUMP JUMPDEST DUP3 MSTORE POP POP JUMP JUMPDEST PUSH0 PUSH2 0x22D1 DUP4 DUP4 PUSH2 0x22B7 JUMP JUMPDEST PUSH1 0x20 DUP4 ADD SWAP1 POP SWAP3 SWAP2 POP POP JUMP JUMPDEST PUSH0 PUSH1 0x20 DUP3 ADD SWAP1 POP SWAP2 SWAP1 POP JUMP JUMPDEST PUSH0 PUSH2 0x22F3 DUP3 PUSH2 0x228E JUMP JUMPDEST PUSH2 0x22FD DUP2 DUP6 PUSH2 0x2298 JUMP JUMPDEST SWAP4 POP PUSH2 0x2308 DUP4 PUSH2 0x22A8 JUMP JUMPDEST DUP1 PUSH0 JUMPDEST DUP4 DUP2 LT ISZERO PUSH2 0x2338 JUMPI DUP2 MLOAD PUSH2 0x231F DUP9 DUP3 PUSH2 0x22C6 JUMP JUMPDEST SWAP8 POP PUSH2 0x232A DUP4 PUSH2 0x22DD JUMP JUMPDEST SWAP3 POP POP PUSH1 0x1 DUP2 ADD SWAP1 POP PUSH2 0x230B JUMP JUMPDEST POP DUP6 SWAP4 POP POP POP POP SWAP3 SWAP2 POP POP JUMP JUMPDEST PUSH0 PUSH1 0xA0 DUP3 ADD SWAP1 POP DUP2 DUP2 SUB PUSH0 DUP4 ADD MSTORE PUSH2 0x235D DUP2 DUP9 PUSH2 0x2204 JUMP JUMPDEST SWAP1 POP DUP2 DUP2 SUB PUSH1 0x20 DUP4 ADD MSTORE PUSH2 0x2371 DUP2 DUP8 PUSH2 0x22E9 JUMP JUMPDEST SWAP1 POP DUP2 DUP2 SUB PUSH1 0x40 DUP4 ADD MSTORE PUSH2 0x2385 DUP2 DUP7 PUSH2 0x22E9 JUMP JUMPDEST SWAP1 POP DUP2 DUP2 SUB PUSH1 0x60 DUP4 ADD MSTORE PUSH2 0x2399 DUP2 DUP6 PUSH2 0x22E9 JUMP JUMPDEST SWAP1 POP DUP2 DUP2 SUB PUSH1 0x80 DUP4 ADD MSTORE PUSH2 0x23AD DUP2 DUP5 PUSH2 0x22E9 JUMP JUMPDEST SWAP1 POP SWAP7 SWAP6 POP POP POP POP POP POP JUMP JUMPDEST PUSH0 PUSH2 0x23C3 DUP3 PUSH2 0x15CE JUMP JUMPDEST SWAP1 POP SWAP2 SWAP1 POP JUMP JUMPDEST PUSH2 0x23D3 DUP2 PUSH2 0x23B9 JUMP JUMPDEST DUP2 EQ PUSH2 0x23DD JUMPI PUSH0 PUSH0 REVERT JUMPDEST POP JUMP JUMPDEST PUSH0 DUP2 MLOAD SWAP1 POP PUSH2 0x23EE DUP2 PUSH2 0x23CA JUMP JUMPDEST SWAP3 SWAP2 POP POP JUMP JUMPDEST PUSH0 PUSH0 PUSH0 PUSH1 0x60 DUP5 DUP7 SUB SLT ISZERO PUSH2 0x240B JUMPI PUSH2 0x240A PUSH2 0x1443 JUMP JUMPDEST JUMPDEST PUSH0 PUSH2 0x2418 DUP7 DUP3 DUP8 ADD PUSH2 0x23E0 JUMP JUMPDEST SWAP4 POP POP PUSH1 0x20 PUSH2 0x2429 DUP7 DUP3 DUP8 ADD PUSH2 0x1C1A JUMP JUMPDEST SWAP3 POP POP PUSH1 0x40 PUSH2 0x243A DUP7 DUP3 DUP8 ADD PUSH2 0x1C1A JUMP JUMPDEST SWAP2 POP POP SWAP3 POP SWAP3 POP SWAP3 JUMP JUMPDEST PUSH32 0x496E76616C696420746F6B656E20616464726573730000000000000000000000 PUSH0 DUP3 ADD MSTORE POP JUMP JUMPDEST PUSH0 PUSH2 0x2478 PUSH1 0x15 DUP4 PUSH2 0x1DC6 JUMP JUMPDEST SWAP2 POP PUSH2 0x2483 DUP3 PUSH2 0x2444 JUMP JUMPDEST PUSH1 0x20 DUP3 ADD SWAP1 POP SWAP2 SWAP1 POP JUMP JUMPDEST PUSH0 PUSH1 0x20 DUP3 ADD SWAP1 POP DUP2 DUP2 SUB PUSH0 DUP4 ADD MSTORE PUSH2 0x24A5 DUP2 PUSH2 0x246C JUMP JUMPDEST SWAP1 POP SWAP2 SWAP1 POP JUMP JUMPDEST PUSH0 PUSH1 0x40 DUP3 ADD SWAP1 POP PUSH2 0x24BF PUSH0 DUP4 ADD DUP6 PUSH2 0x165C JUMP JUMPDEST PUSH2 0x24CC PUSH1 0x20 DUP4 ADD DUP5 PUSH2 0x165C JUMP JUMPDEST SWAP4 SWAP3 POP POP POP JUMP JUMPDEST PUSH0 PUSH1 0x40 DUP3 ADD SWAP1 POP PUSH2 0x24E6 PUSH0 DUP4 ADD DUP6 PUSH2 0x1A47 JUMP JUMPDEST PUSH2 0x24F3 PUSH1 0x20 DUP4 ADD DUP5 PUSH2 0x165C JUMP JUMPDEST SWAP4 SWAP3 POP POP POP JUMP JUMPDEST PUSH2 0x2503 DUP2 PUSH2 0x19FB JUMP JUMPDEST DUP2 EQ PUSH2 0x250D JUMPI PUSH0 PUSH0 REVERT JUMPDEST POP JUMP JUMPDEST PUSH0 DUP2 MLOAD SWAP1 POP PUSH2 0x251E DUP2 PUSH2 0x24FA JUMP JUMPDEST SWAP3 SWAP2 POP POP JUMP JUMPDEST PUSH0 PUSH1 0x20 DUP3 DUP5 SUB SLT ISZERO PUSH2 0x2539 JUMPI PUSH2 0x2538 PUSH2 0x1443 JUMP JUMPDEST JUMPDEST PUSH0 PUSH2 0x2546 DUP5 DUP3 DUP6 ADD PUSH2 0x2510 JUMP JUMPDEST SWAP2 POP POP SWAP3 SWAP2 POP POP JUMP JUMPDEST PUSH0 PUSH2 0x2559 DUP3 PUSH2 0x1653 JUMP JUMPDEST SWAP2 POP PUSH2 0x2564 DUP4 PUSH2 0x1653 JUMP JUMPDEST SWAP3 POP DUP3 DUP3 SUB SWAP1 POP DUP2 DUP2 GT ISZERO PUSH2 0x257C JUMPI PUSH2 0x257B PUSH2 0x1ED3 JUMP JUMPDEST JUMPDEST SWAP3 SWAP2 POP POP JUMP JUMPDEST PUSH0 PUSH1 0x60 DUP3 ADD SWAP1 POP PUSH2 0x2595 PUSH0 DUP4 ADD DUP7 PUSH2 0x1A47 JUMP JUMPDEST PUSH2 0x25A2 PUSH1 0x20 DUP4 ADD DUP6 PUSH2 0x165C JUMP JUMPDEST PUSH2 0x25AF PUSH1 0x40 DUP4 ADD DUP5 PUSH2 0x165C JUMP JUMPDEST SWAP5 SWAP4 POP POP POP POP JUMP JUMPDEST PUSH0 PUSH2 0x25C1 DUP3 PUSH2 0x1653 JUMP JUMPDEST SWAP2 POP PUSH2 0x25CC DUP4 PUSH2 0x1653 JUMP JUMPDEST SWAP3 POP DUP3 DUP3 MUL PUSH2 0x25DA DUP2 PUSH2 0x1653 JUMP JUMPDEST SWAP2 POP DUP3 DUP3 DIV DUP5 EQ DUP4 ISZERO OR PUSH2 0x25F1 JUMPI PUSH2 0x25F0 PUSH2 0x1ED3 JUMP JUMPDEST JUMPDEST POP SWAP3 SWAP2 POP POP JUMP JUMPDEST PUSH32 0x4E487B7100000000000000000000000000000000000000000000000000000000 PUSH0 MSTORE PUSH1 0x12 PUSH1 0x4 MSTORE PUSH1 0x24 PUSH0 REVERT JUMPDEST PUSH0 PUSH2 0x262F DUP3 PUSH2 0x1653 JUMP JUMPDEST SWAP2 POP PUSH2 0x263A DUP4 PUSH2 0x1653 JUMP JUMPDEST SWAP3 POP DUP3 PUSH2 0x264A JUMPI PUSH2 0x2649 PUSH2 0x25F8 JUMP JUMPDEST JUMPDEST DUP3 DUP3 DIV SWAP1 POP SWAP3 SWAP2 POP POP JUMP INVALID LOG2 PUSH5 0x6970667358 0x22 SLT KECCAK256 PUSH17 0x748E76EB248C3C054EB25C59A9A8CD3FF JUMPI 0x25 PUSH9 0xC1C1F484F06FA29806 0x4F CODECOPY PUSH5 0x736F6C6343 STOP ADDMOD SAR STOP CALLER "
				},
				"gasEstimates": {
					"creation": {
						"codeDepositCost": "1973400",
						"executionCost": "infinite",
						"totalCost": "infinite"
					},
					"external": {
						"beneficiaries(address)": "infinite",
						"claim()": "infinite",
						"claimCooldown()": "2513",
						"claimableAmount(address)": "infinite",
						"getInitData(address,uint256,uint256)": "infinite",
						"getVestingData(address[],uint256[],uint256[],uint256[],uint256[])": "infinite",
						"initialize(bytes)": "infinite",
						"minClaimAmount()": "2447",
						"owner()": "2537",
						"renounceOwnership()": "infinite",
						"setClaimParameters(uint256,uint256)": "infinite",
						"startVesting(bytes)": "infinite",
						"token()": "infinite",
						"transferOwnership(address)": "infinite"
					},
					"internal": {
						"vestedAmount(address)": "infinite"
					}
				},
				"methodIdentifiers": {
					"beneficiaries(address)": "01567739",
					"claim()": "4e71d92d",
					"claimCooldown()": "fdea3657",
					"claimableAmount(address)": "89885049",
					"getInitData(address,uint256,uint256)": "8e7d947d",
					"getVestingData(address[],uint256[],uint256[],uint256[],uint256[])": "4221338e",
					"initialize(bytes)": "439fab91",
					"minClaimAmount()": "adc25bde",
					"owner()": "8da5cb5b",
					"renounceOwnership()": "715018a6",
					"setClaimParameters(uint256,uint256)": "91dc11fe",
					"startVesting(bytes)": "00c3e8d1",
					"token()": "fc0c546a",
					"transferOwnership(address)": "f2fde38b"
				}
			},
			"storageLayout": {
				"storage": [
					{
						"astId": 8,
						"contract": "contracts/LiniarVesting/vesting.sol:Vesting",
						"label": "_owner",
						"offset": 0,
						"slot": "0",
						"type": "t_address"
					},
					{
						"astId": 285,
						"contract": "contracts/LiniarVesting/vesting.sol:Vesting",
						"label": "token",
						"offset": 0,
						"slot": "1",
						"type": "t_contract(IERC20)225"
					},
					{
						"astId": 287,
						"contract": "contracts/LiniarVesting/vesting.sol:Vesting",
						"label": "initialized",
						"offset": 20,
						"slot": "1",
						"type": "t_bool"
					},
					{
						"astId": 289,
						"contract": "contracts/LiniarVesting/vesting.sol:Vesting",
						"label": "vestingStarted",
						"offset": 21,
						"slot": "1",
						"type": "t_bool"
					},
					{
						"astId": 291,
						"contract": "contracts/LiniarVesting/vesting.sol:Vesting",
						"label": "claimCooldown",
						"offset": 0,
						"slot": "2",
						"type": "t_uint256"
					},
					{
						"astId": 293,
						"contract": "contracts/LiniarVesting/vesting.sol:Vesting",
						"label": "minClaimAmount",
						"offset": 0,
						"slot": "3",
						"type": "t_uint256"
					},
					{
						"astId": 311,
						"contract": "contracts/LiniarVesting/vesting.sol:Vesting",
						"label": "beneficiaries",
						"offset": 0,
						"slot": "4",
						"type": "t_mapping(t_address,t_struct(BeneficiaryInfo)306_storage)"
					}
				],
				"types": {
					"t_address": {
						"encoding": "inplace",
						"label": "address",
						"numberOfBytes": "20"
					},
					"t_bool": {
						"encoding": "inplace",
						"label": "bool",
						"numberOfBytes": "1"
					},
					"t_contract(IERC20)225": {
						"encoding": "inplace",
						"label": "contract IERC20",
						"numberOfBytes": "20"
					},
					"t_mapping(t_address,t_struct(BeneficiaryInfo)306_storage)": {
						"encoding": "mapping",
						"key": "t_address",
						"label": "mapping(address => struct Vesting.BeneficiaryInfo)",
						"numberOfBytes": "32",
						"value": "t_struct(BeneficiaryInfo)306_storage"
					},
					"t_struct(BeneficiaryInfo)306_storage": {
						"encoding": "inplace",
						"label": "struct Vesting.BeneficiaryInfo",
						"members": [
							{
								"astId": 295,
								"contract": "contracts/LiniarVesting/vesting.sol:Vesting",
								"label": "totalAmount",
								"offset": 0,
								"slot": "0",
								"type": "t_uint256"
							},
							{
								"astId": 297,
								"contract": "contracts/LiniarVesting/vesting.sol:Vesting",
								"label": "startTime",
								"offset": 0,
								"slot": "1",
								"type": "t_uint256"
							},
							{
								"astId": 299,
								"contract": "contracts/LiniarVesting/vesting.sol:Vesting",
								"label": "cliff",
								"offset": 0,
								"slot": "2",
								"type": "t_uint256"
							},
							{
								"astId": 301,
								"contract": "contracts/LiniarVesting/vesting.sol:Vesting",
								"label": "duration",
								"offset": 0,
								"slot": "3",
								"type": "t_uint256"
							},
							{
								"astId": 303,
								"contract": "contracts/LiniarVesting/vesting.sol:Vesting",
								"label": "claimed",
								"offset": 0,
								"slot": "4",
								"type": "t_uint256"
							},
							{
								"astId": 305,
								"contract": "contracts/LiniarVesting/vesting.sol:Vesting",
								"label": "lastClaimTime",
								"offset": 0,
								"slot": "5",
								"type": "t_uint256"
							}
						],
						"numberOfBytes": "192"
					},
					"t_uint256": {
						"encoding": "inplace",
						"label": "uint256",
						"numberOfBytes": "32"
					}
				}
			},
			"userdoc": {
				"kind": "user",
				"methods": {},
				"version": 1
			}
		}
	}
}