{
	"contracts/LiniarVesting/vesting.sol": {
		"Vesting": {
			"abi": [
				{
					"inputs": [],
					"stateMutability": "nonpayable",
					"type": "constructor"
				},
				{
					"inputs": [],
					"name": "AlreadyInitialized",
					"type": "error"
				},
				{
					"inputs": [],
					"name": "ClaimerIsNotBeneficiary",
					"type": "error"
				},
				{
					"inputs": [],
					"name": "CliffNotReached",
					"type": "error"
				},
				{
					"inputs": [],
					"name": "NothingToClaim",
					"type": "error"
				},
				{
					"inputs": [
						{
							"internalType": "address",
							"name": "owner",
							"type": "address"
						}
					],
					"name": "OwnableInvalidOwner",
					"type": "error"
				},
				{
					"inputs": [
						{
							"internalType": "address",
							"name": "account",
							"type": "address"
						}
					],
					"name": "OwnableUnauthorizedAccount",
					"type": "error"
				},
				{
					"inputs": [],
					"name": "TransferFailed",
					"type": "error"
				},
				{
					"anonymous": false,
					"inputs": [
						{
							"indexed": false,
							"internalType": "address",
							"name": "beneficiary",
							"type": "address"
						},
						{
							"indexed": false,
							"internalType": "uint256",
							"name": "amount",
							"type": "uint256"
						},
						{
							"indexed": false,
							"internalType": "uint256",
							"name": "timestamp",
							"type": "uint256"
						}
					],
					"name": "Claim",
					"type": "event"
				},
				{
					"anonymous": false,
					"inputs": [
						{
							"indexed": true,
							"internalType": "address",
							"name": "previousOwner",
							"type": "address"
						},
						{
							"indexed": true,
							"internalType": "address",
							"name": "newOwner",
							"type": "address"
						}
					],
					"name": "OwnershipTransferred",
					"type": "event"
				},
				{
					"inputs": [],
					"name": "beneficiary",
					"outputs": [
						{
							"internalType": "address",
							"name": "",
							"type": "address"
						}
					],
					"stateMutability": "view",
					"type": "function"
				},
				{
					"inputs": [],
					"name": "claim",
					"outputs": [],
					"stateMutability": "nonpayable",
					"type": "function"
				},
				{
					"inputs": [],
					"name": "claimableAmount",
					"outputs": [
						{
							"internalType": "uint256",
							"name": "",
							"type": "uint256"
						}
					],
					"stateMutability": "view",
					"type": "function"
				},
				{
					"inputs": [],
					"name": "claimed",
					"outputs": [
						{
							"internalType": "uint256",
							"name": "",
							"type": "uint256"
						}
					],
					"stateMutability": "view",
					"type": "function"
				},
				{
					"inputs": [],
					"name": "cliff",
					"outputs": [
						{
							"internalType": "uint256",
							"name": "",
							"type": "uint256"
						}
					],
					"stateMutability": "view",
					"type": "function"
				},
				{
					"inputs": [],
					"name": "duration",
					"outputs": [
						{
							"internalType": "uint256",
							"name": "",
							"type": "uint256"
						}
					],
					"stateMutability": "view",
					"type": "function"
				},
				{
					"inputs": [
						{
							"internalType": "address",
							"name": "_token",
							"type": "address"
						},
						{
							"internalType": "address",
							"name": "_treasury",
							"type": "address"
						},
						{
							"internalType": "address",
							"name": "_owner",
							"type": "address"
						}
					],
					"name": "getInitData",
					"outputs": [
						{
							"internalType": "bytes",
							"name": "",
							"type": "bytes"
						}
					],
					"stateMutability": "pure",
					"type": "function"
				},
				{
					"inputs": [
						{
							"internalType": "bytes",
							"name": "_initData",
							"type": "bytes"
						}
					],
					"name": "initialize",
					"outputs": [
						{
							"internalType": "bool",
							"name": "",
							"type": "bool"
						}
					],
					"stateMutability": "nonpayable",
					"type": "function"
				},
				{
					"inputs": [],
					"name": "owner",
					"outputs": [
						{
							"internalType": "address",
							"name": "",
							"type": "address"
						}
					],
					"stateMutability": "view",
					"type": "function"
				},
				{
					"inputs": [],
					"name": "renounceOwnership",
					"outputs": [],
					"stateMutability": "nonpayable",
					"type": "function"
				},
				{
					"inputs": [],
					"name": "startTime",
					"outputs": [
						{
							"internalType": "uint256",
							"name": "",
							"type": "uint256"
						}
					],
					"stateMutability": "view",
					"type": "function"
				},
				{
					"inputs": [],
					"name": "token",
					"outputs": [
						{
							"internalType": "contract IERC20",
							"name": "",
							"type": "address"
						}
					],
					"stateMutability": "view",
					"type": "function"
				},
				{
					"inputs": [],
					"name": "totalAmount",
					"outputs": [
						{
							"internalType": "uint256",
							"name": "",
							"type": "uint256"
						}
					],
					"stateMutability": "view",
					"type": "function"
				},
				{
					"inputs": [
						{
							"internalType": "address",
							"name": "newOwner",
							"type": "address"
						}
					],
					"name": "transferOwnership",
					"outputs": [],
					"stateMutability": "nonpayable",
					"type": "function"
				}
			],
			"devdoc": {
				"errors": {
					"OwnableInvalidOwner(address)": [
						{
							"details": "The owner is not a valid owner account. (eg. `address(0)`)"
						}
					],
					"OwnableUnauthorizedAccount(address)": [
						{
							"details": "The caller account is not authorized to perform an operation."
						}
					]
				},
				"kind": "dev",
				"methods": {
					"owner()": {
						"details": "Returns the address of the current owner."
					},
					"renounceOwnership()": {
						"details": "Leaves the contract without owner. It will not be possible to call `onlyOwner` functions. Can only be called by the current owner. NOTE: Renouncing ownership will leave the contract without an owner, thereby disabling any functionality that is only available to the owner."
					},
					"transferOwnership(address)": {
						"details": "Transfers ownership of the contract to a new account (`newOwner`). Can only be called by the current owner."
					}
				},
				"version": 1
			},
			"evm": {
				"assembly": "    /* \"contracts/LiniarVesting/vesting.sol\":203:2640  contract Vesting is IUtilityContract, Ownable {... */\n  mstore(0x40, 0x80)\n    /* \"contracts/LiniarVesting/vesting.sol\":256:292  constructor() Ownable(msg.sender) {} */\n  callvalue\n  dup1\n  iszero\n  tag_1\n  jumpi\n  revert(0x00, 0x00)\ntag_1:\n  pop\n    /* \"contracts/LiniarVesting/vesting.sol\":278:288  msg.sender */\n  caller\n    /* \"@openzeppelin/contracts/access/Ownable.sol\":1297:1298  0 */\n  0x00\n    /* \"@openzeppelin/contracts/access/Ownable.sol\":1273:1299  initialOwner == address(0) */\n  0xffffffffffffffffffffffffffffffffffffffff\n  and\n    /* \"@openzeppelin/contracts/access/Ownable.sol\":1273:1285  initialOwner */\n  dup2\n    /* \"@openzeppelin/contracts/access/Ownable.sol\":1273:1299  initialOwner == address(0) */\n  0xffffffffffffffffffffffffffffffffffffffff\n  and\n  sub\n    /* \"@openzeppelin/contracts/access/Ownable.sol\":1269:1364  if (initialOwner == address(0)) {... */\n  tag_5\n  jumpi\n    /* \"@openzeppelin/contracts/access/Ownable.sol\":1350:1351  0 */\n  0x00\n    /* \"@openzeppelin/contracts/access/Ownable.sol\":1322:1353  OwnableInvalidOwner(address(0)) */\n  mload(0x40)\n  0x1e4fbdf700000000000000000000000000000000000000000000000000000000\n  dup2\n  mstore\n  0x04\n  add\n  tag_6\n  swap2\n  swap1\n  tag_7\n  jump\t// in\ntag_6:\n  mload(0x40)\n  dup1\n  swap2\n  sub\n  swap1\n  revert\n    /* \"@openzeppelin/contracts/access/Ownable.sol\":1269:1364  if (initialOwner == address(0)) {... */\ntag_5:\n    /* \"@openzeppelin/contracts/access/Ownable.sol\":1373:1405  _transferOwnership(initialOwner) */\n  tag_8\n    /* \"@openzeppelin/contracts/access/Ownable.sol\":1392:1404  initialOwner */\n  dup2\n    /* \"@openzeppelin/contracts/access/Ownable.sol\":1373:1391  _transferOwnership */\n  shl(0x20, tag_9)\n    /* \"@openzeppelin/contracts/access/Ownable.sol\":1373:1405  _transferOwnership(initialOwner) */\n  0x20\n  shr\n  jump\t// in\ntag_8:\n    /* \"@openzeppelin/contracts/access/Ownable.sol\":1225:1412  constructor(address initialOwner) {... */\n  pop\n    /* \"contracts/LiniarVesting/vesting.sol\":203:2640  contract Vesting is IUtilityContract, Ownable {... */\n  jump(tag_11)\n    /* \"@openzeppelin/contracts/access/Ownable.sol\":2912:3099  function _transferOwnership(address newOwner) internal virtual {... */\ntag_9:\n    /* \"@openzeppelin/contracts/access/Ownable.sol\":2985:3001  address oldOwner */\n  0x00\n    /* \"@openzeppelin/contracts/access/Ownable.sol\":3004:3010  _owner */\n  0x00\n  0x00\n  swap1\n  sload\n  swap1\n  0x0100\n  exp\n  swap1\n  div\n  0xffffffffffffffffffffffffffffffffffffffff\n  and\n    /* \"@openzeppelin/contracts/access/Ownable.sol\":2985:3010  address oldOwner = _owner */\n  swap1\n  pop\n    /* \"@openzeppelin/contracts/access/Ownable.sol\":3029:3037  newOwner */\n  dup2\n    /* \"@openzeppelin/contracts/access/Ownable.sol\":3020:3026  _owner */\n  0x00\n  0x00\n    /* \"@openzeppelin/contracts/access/Ownable.sol\":3020:3037  _owner = newOwner */\n  0x0100\n  exp\n  dup2\n  sload\n  dup2\n  0xffffffffffffffffffffffffffffffffffffffff\n  mul\n  not\n  and\n  swap1\n  dup4\n  0xffffffffffffffffffffffffffffffffffffffff\n  and\n  mul\n  or\n  swap1\n  sstore\n  pop\n    /* \"@openzeppelin/contracts/access/Ownable.sol\":3083:3091  newOwner */\n  dup2\n    /* \"@openzeppelin/contracts/access/Ownable.sol\":3052:3092  OwnershipTransferred(oldOwner, newOwner) */\n  0xffffffffffffffffffffffffffffffffffffffff\n  and\n    /* \"@openzeppelin/contracts/access/Ownable.sol\":3073:3081  oldOwner */\n  dup2\n    /* \"@openzeppelin/contracts/access/Ownable.sol\":3052:3092  OwnershipTransferred(oldOwner, newOwner) */\n  0xffffffffffffffffffffffffffffffffffffffff\n  and\n  0x8be0079c531659141344cd1fd0a4f28419497f9722a3daafe3b4186f6b6457e0\n  mload(0x40)\n  mload(0x40)\n  dup1\n  swap2\n  sub\n  swap1\n  log3\n    /* \"@openzeppelin/contracts/access/Ownable.sol\":2975:3099  {... */\n  pop\n    /* \"@openzeppelin/contracts/access/Ownable.sol\":2912:3099  function _transferOwnership(address newOwner) internal virtual {... */\n  pop\n  jump\t// out\n    /* \"#utility.yul\":7:133   */\ntag_13:\n    /* \"#utility.yul\":44:51   */\n  0x00\n    /* \"#utility.yul\":84:126   */\n  0xffffffffffffffffffffffffffffffffffffffff\n    /* \"#utility.yul\":77:82   */\n  dup3\n    /* \"#utility.yul\":73:127   */\n  and\n    /* \"#utility.yul\":62:127   */\n  swap1\n  pop\n    /* \"#utility.yul\":7:133   */\n  swap2\n  swap1\n  pop\n  jump\t// out\n    /* \"#utility.yul\":139:235   */\ntag_14:\n    /* \"#utility.yul\":176:183   */\n  0x00\n    /* \"#utility.yul\":205:229   */\n  tag_19\n    /* \"#utility.yul\":223:228   */\n  dup3\n    /* \"#utility.yul\":205:229   */\n  tag_13\n  jump\t// in\ntag_19:\n    /* \"#utility.yul\":194:229   */\n  swap1\n  pop\n    /* \"#utility.yul\":139:235   */\n  swap2\n  swap1\n  pop\n  jump\t// out\n    /* \"#utility.yul\":241:359   */\ntag_15:\n    /* \"#utility.yul\":328:352   */\n  tag_21\n    /* \"#utility.yul\":346:351   */\n  dup2\n    /* \"#utility.yul\":328:352   */\n  tag_14\n  jump\t// in\ntag_21:\n    /* \"#utility.yul\":323:326   */\n  dup3\n    /* \"#utility.yul\":316:353   */\n  mstore\n    /* \"#utility.yul\":241:359   */\n  pop\n  pop\n  jump\t// out\n    /* \"#utility.yul\":365:587   */\ntag_7:\n    /* \"#utility.yul\":458:462   */\n  0x00\n    /* \"#utility.yul\":496:498   */\n  0x20\n    /* \"#utility.yul\":485:494   */\n  dup3\n    /* \"#utility.yul\":481:499   */\n  add\n    /* \"#utility.yul\":473:499   */\n  swap1\n  pop\n    /* \"#utility.yul\":509:580   */\n  tag_23\n    /* \"#utility.yul\":577:578   */\n  0x00\n    /* \"#utility.yul\":566:575   */\n  dup4\n    /* \"#utility.yul\":562:579   */\n  add\n    /* \"#utility.yul\":553:559   */\n  dup5\n    /* \"#utility.yul\":509:580   */\n  tag_15\n  jump\t// in\ntag_23:\n    /* \"#utility.yul\":365:587   */\n  swap3\n  swap2\n  pop\n  pop\n  jump\t// out\n    /* \"contracts/LiniarVesting/vesting.sol\":203:2640  contract Vesting is IUtilityContract, Ownable {... */\ntag_11:\n  dataSize(sub_0)\n  dup1\n  dataOffset(sub_0)\n  0x00\n  codecopy\n  0x00\n  return\nstop\n\nsub_0: assembly {\n        /* \"contracts/LiniarVesting/vesting.sol\":203:2640  contract Vesting is IUtilityContract, Ownable {... */\n      mstore(0x40, 0x80)\n      callvalue\n      dup1\n      iszero\n      tag_1\n      jumpi\n      revert(0x00, 0x00)\n    tag_1:\n      pop\n      jumpi(tag_2, lt(calldatasize, 0x04))\n      shr(0xe0, calldataload(0x00))\n      dup1\n      0x78e97925\n      gt\n      tag_17\n      jumpi\n      dup1\n      0xc475dda9\n      gt\n      tag_18\n      jumpi\n      dup1\n      0xc475dda9\n      eq\n      tag_13\n      jumpi\n      dup1\n      0xe834a834\n      eq\n      tag_14\n      jumpi\n      dup1\n      0xf2fde38b\n      eq\n      tag_15\n      jumpi\n      dup1\n      0xfc0c546a\n      eq\n      tag_16\n      jumpi\n      jump(tag_2)\n    tag_18:\n      dup1\n      0x78e97925\n      eq\n      tag_10\n      jumpi\n      dup1\n      0x8da5cb5b\n      eq\n      tag_11\n      jumpi\n      dup1\n      0xa556f846\n      eq\n      tag_12\n      jumpi\n      jump(tag_2)\n    tag_17:\n      dup1\n      0x38af3eed\n      gt\n      tag_19\n      jumpi\n      dup1\n      0x38af3eed\n      eq\n      tag_6\n      jumpi\n      dup1\n      0x439fab91\n      eq\n      tag_7\n      jumpi\n      dup1\n      0x4e71d92d\n      eq\n      tag_8\n      jumpi\n      dup1\n      0x715018a6\n      eq\n      tag_9\n      jumpi\n      jump(tag_2)\n    tag_19:\n      dup1\n      0x0fb5a6b4\n      eq\n      tag_3\n      jumpi\n      dup1\n      0x13d033c0\n      eq\n      tag_4\n      jumpi\n      dup1\n      0x1a39d8ef\n      eq\n      tag_5\n      jumpi\n    tag_2:\n      revert(0x00, 0x00)\n        /* \"contracts/LiniarVesting/vesting.sol\":591:614  uint256 public duration */\n    tag_3:\n      tag_20\n      tag_21\n      jump\t// in\n    tag_20:\n      mload(0x40)\n      tag_22\n      swap2\n      swap1\n      tag_23\n      jump\t// in\n    tag_22:\n      mload(0x40)\n      dup1\n      swap2\n      sub\n      swap1\n      return\n        /* \"contracts/LiniarVesting/vesting.sol\":565:585  uint256 public cliff */\n    tag_4:\n      tag_24\n      tag_25\n      jump\t// in\n    tag_24:\n      mload(0x40)\n      tag_26\n      swap2\n      swap1\n      tag_23\n      jump\t// in\n    tag_26:\n      mload(0x40)\n      dup1\n      swap2\n      sub\n      swap1\n      return\n        /* \"contracts/LiniarVesting/vesting.sol\":503:529  uint256 public totalAmount */\n    tag_5:\n      tag_27\n      tag_28\n      jump\t// in\n    tag_27:\n      mload(0x40)\n      tag_29\n      swap2\n      swap1\n      tag_23\n      jump\t// in\n    tag_29:\n      mload(0x40)\n      dup1\n      swap2\n      sub\n      swap1\n      return\n        /* \"contracts/LiniarVesting/vesting.sol\":357:383  address public beneficiary */\n    tag_6:\n      tag_30\n      tag_31\n      jump\t// in\n    tag_30:\n      mload(0x40)\n      tag_32\n      swap2\n      swap1\n      tag_33\n      jump\t// in\n    tag_32:\n      mload(0x40)\n      dup1\n      swap2\n      sub\n      swap1\n      return\n        /* \"contracts/LiniarVesting/vesting.sol\":2157:2456  function initialize(bytes memory _initData) external notInitialized returns(bool) {... */\n    tag_7:\n      tag_34\n      0x04\n      dup1\n      calldatasize\n      sub\n      dup2\n      add\n      swap1\n      tag_35\n      swap2\n      swap1\n      tag_36\n      jump\t// in\n    tag_35:\n      tag_37\n      jump\t// in\n    tag_34:\n      mload(0x40)\n      tag_38\n      swap2\n      swap1\n      tag_39\n      jump\t// in\n    tag_38:\n      mload(0x40)\n      dup1\n      swap2\n      sub\n      swap1\n      return\n        /* \"contracts/LiniarVesting/vesting.sol\":1211:1718  function claim() public {... */\n    tag_8:\n      tag_40\n      tag_41\n      jump\t// in\n    tag_40:\n      stop\n        /* \"@openzeppelin/contracts/access/Ownable.sol\":2293:2394  function renounceOwnership() public virtual onlyOwner {... */\n    tag_9:\n      tag_42\n      tag_43\n      jump\t// in\n    tag_42:\n      stop\n        /* \"contracts/LiniarVesting/vesting.sol\":535:559  uint256 public startTime */\n    tag_10:\n      tag_44\n      tag_45\n      jump\t// in\n    tag_44:\n      mload(0x40)\n      tag_46\n      swap2\n      swap1\n      tag_23\n      jump\t// in\n    tag_46:\n      mload(0x40)\n      dup1\n      swap2\n      sub\n      swap1\n      return\n        /* \"@openzeppelin/contracts/access/Ownable.sol\":1638:1723  function owner() public view virtual returns (address) {... */\n    tag_11:\n      tag_47\n      tag_48\n      jump\t// in\n    tag_47:\n      mload(0x40)\n      tag_49\n      swap2\n      swap1\n      tag_33\n      jump\t// in\n    tag_49:\n      mload(0x40)\n      dup1\n      swap2\n      sub\n      swap1\n      return\n        /* \"contracts/LiniarVesting/vesting.sol\":1974:2138  function claimableAmount() public view returns(uint256) {... */\n    tag_12:\n      tag_50\n      tag_51\n      jump\t// in\n    tag_50:\n      mload(0x40)\n      tag_52\n      swap2\n      swap1\n      tag_23\n      jump\t// in\n    tag_52:\n      mload(0x40)\n      dup1\n      swap2\n      sub\n      swap1\n      return\n        /* \"contracts/LiniarVesting/vesting.sol\":2462:2631  function getInitData(address _token, address _treasury, address _owner) external pure returns(bytes memory) {... */\n    tag_13:\n      tag_53\n      0x04\n      dup1\n      calldatasize\n      sub\n      dup2\n      add\n      swap1\n      tag_54\n      swap2\n      swap1\n      tag_55\n      jump\t// in\n    tag_54:\n      tag_56\n      jump\t// in\n    tag_53:\n      mload(0x40)\n      tag_57\n      swap2\n      swap1\n      tag_58\n      jump\t// in\n    tag_57:\n      mload(0x40)\n      dup1\n      swap2\n      sub\n      swap1\n      return\n        /* \"contracts/LiniarVesting/vesting.sol\":620:642  uint256 public claimed */\n    tag_14:\n      tag_59\n      tag_60\n      jump\t// in\n    tag_59:\n      mload(0x40)\n      tag_61\n      swap2\n      swap1\n      tag_23\n      jump\t// in\n    tag_61:\n      mload(0x40)\n      dup1\n      swap2\n      sub\n      swap1\n      return\n        /* \"@openzeppelin/contracts/access/Ownable.sol\":2543:2758  function transferOwnership(address newOwner) public virtual onlyOwner {... */\n    tag_15:\n      tag_62\n      0x04\n      dup1\n      calldatasize\n      sub\n      dup2\n      add\n      swap1\n      tag_63\n      swap2\n      swap1\n      tag_64\n      jump\t// in\n    tag_63:\n      tag_65\n      jump\t// in\n    tag_62:\n      stop\n        /* \"contracts/LiniarVesting/vesting.sol\":302:321  IERC20 public token */\n    tag_16:\n      tag_66\n      tag_67\n      jump\t// in\n    tag_66:\n      mload(0x40)\n      tag_68\n      swap2\n      swap1\n      tag_69\n      jump\t// in\n    tag_68:\n      mload(0x40)\n      dup1\n      swap2\n      sub\n      swap1\n      return\n        /* \"contracts/LiniarVesting/vesting.sol\":591:614  uint256 public duration */\n    tag_21:\n      sload(0x06)\n      dup2\n      jump\t// out\n        /* \"contracts/LiniarVesting/vesting.sol\":565:585  uint256 public cliff */\n    tag_25:\n      sload(0x05)\n      dup2\n      jump\t// out\n        /* \"contracts/LiniarVesting/vesting.sol\":503:529  uint256 public totalAmount */\n    tag_28:\n      sload(0x03)\n      dup2\n      jump\t// out\n        /* \"contracts/LiniarVesting/vesting.sol\":357:383  address public beneficiary */\n    tag_31:\n      0x02\n      0x00\n      swap1\n      sload\n      swap1\n      0x0100\n      exp\n      swap1\n      div\n      0xffffffffffffffffffffffffffffffffffffffff\n      and\n      dup2\n      jump\t// out\n        /* \"contracts/LiniarVesting/vesting.sol\":2157:2456  function initialize(bytes memory _initData) external notInitialized returns(bool) {... */\n    tag_37:\n        /* \"contracts/LiniarVesting/vesting.sol\":2233:2237  bool */\n      0x00\n        /* \"contracts/LiniarVesting/vesting.sol\":923:934  initialized */\n      0x01\n      0x14\n      swap1\n      sload\n      swap1\n      0x0100\n      exp\n      swap1\n      div\n      0xff\n      and\n        /* \"contracts/LiniarVesting/vesting.sol\":922:934  !initialized */\n      iszero\n        /* \"contracts/LiniarVesting/vesting.sol\":914:957  require(!initialized, AlreadyInitialized()) */\n      tag_71\n      jumpi\n      mload(0x40)\n      0x0dc149f000000000000000000000000000000000000000000000000000000000\n      dup2\n      mstore\n      0x04\n      add\n      mload(0x40)\n      dup1\n      swap2\n      sub\n      swap1\n      revert\n    tag_71:\n        /* \"contracts/LiniarVesting/vesting.sol\":2251:2265  address _token */\n      0x00\n        /* \"contracts/LiniarVesting/vesting.sol\":2267:2284  address _treasury */\n      0x00\n        /* \"contracts/LiniarVesting/vesting.sol\":2286:2300  address _owner */\n      0x00\n        /* \"contracts/LiniarVesting/vesting.sol\":2315:2324  _initData */\n      dup5\n        /* \"contracts/LiniarVesting/vesting.sol\":2304:2354  abi.decode(_initData, (address, address, address)) */\n      dup1\n      0x20\n      add\n      swap1\n      mload\n      dup2\n      add\n      swap1\n      tag_73\n      swap2\n      swap1\n      tag_74\n      jump\t// in\n    tag_73:\n        /* \"contracts/LiniarVesting/vesting.sol\":2250:2354  (address _token, address _treasury, address _owner) = abi.decode(_initData, (address, address, address)) */\n      swap3\n      pop\n      swap3\n      pop\n      swap3\n      pop\n        /* \"contracts/LiniarVesting/vesting.sol\":2366:2399  Ownable.transferOwnership(_owner) */\n      tag_75\n        /* \"contracts/LiniarVesting/vesting.sol\":2392:2398  _owner */\n      dup2\n        /* \"contracts/LiniarVesting/vesting.sol\":2366:2391  Ownable.transferOwnership */\n      tag_65\n        /* \"contracts/LiniarVesting/vesting.sol\":2366:2399  Ownable.transferOwnership(_owner) */\n      jump\t// in\n    tag_75:\n        /* \"contracts/LiniarVesting/vesting.sol\":2424:2428  true */\n      0x01\n        /* \"contracts/LiniarVesting/vesting.sol\":2410:2421  initialized */\n      dup1\n      0x14\n        /* \"contracts/LiniarVesting/vesting.sol\":2410:2428  initialized = true */\n      0x0100\n      exp\n      dup2\n      sload\n      dup2\n      0xff\n      mul\n      not\n      and\n      swap1\n      dup4\n      iszero\n      iszero\n      mul\n      or\n      swap1\n      sstore\n      pop\n        /* \"contracts/LiniarVesting/vesting.sol\":2445:2449  true */\n      0x01\n        /* \"contracts/LiniarVesting/vesting.sol\":2438:2449  return true */\n      swap4\n      pop\n      pop\n      pop\n      pop\n        /* \"contracts/LiniarVesting/vesting.sol\":2157:2456  function initialize(bytes memory _initData) external notInitialized returns(bool) {... */\n      swap2\n      swap1\n      pop\n      jump\t// out\n        /* \"contracts/LiniarVesting/vesting.sol\":1211:1718  function claim() public {... */\n    tag_41:\n        /* \"contracts/LiniarVesting/vesting.sol\":1334:1345  beneficiary */\n      0x02\n      0x00\n      swap1\n      sload\n      swap1\n      0x0100\n      exp\n      swap1\n      div\n      0xffffffffffffffffffffffffffffffffffffffff\n      and\n        /* \"contracts/LiniarVesting/vesting.sol\":1320:1345  msg.sender == beneficiary */\n      0xffffffffffffffffffffffffffffffffffffffff\n      and\n        /* \"contracts/LiniarVesting/vesting.sol\":1320:1330  msg.sender */\n      caller\n        /* \"contracts/LiniarVesting/vesting.sol\":1320:1345  msg.sender == beneficiary */\n      0xffffffffffffffffffffffffffffffffffffffff\n      and\n      eq\n        /* \"contracts/LiniarVesting/vesting.sol\":1312:1373  require(msg.sender == beneficiary, ClaimerIsNotBeneficiary()) */\n      tag_77\n      jumpi\n      mload(0x40)\n      0x361b195400000000000000000000000000000000000000000000000000000000\n      dup2\n      mstore\n      0x04\n      add\n      mload(0x40)\n      dup1\n      swap2\n      sub\n      swap1\n      revert\n    tag_77:\n        /* \"contracts/LiniarVesting/vesting.sol\":1421:1426  cliff */\n      sload(0x05)\n        /* \"contracts/LiniarVesting/vesting.sol\":1409:1418  startTime */\n      sload(0x04)\n        /* \"contracts/LiniarVesting/vesting.sol\":1409:1426  startTime + cliff */\n      tag_78\n      swap2\n      swap1\n      tag_79\n      jump\t// in\n    tag_78:\n        /* \"contracts/LiniarVesting/vesting.sol\":1391:1406  block.timestamp */\n      timestamp\n        /* \"contracts/LiniarVesting/vesting.sol\":1391:1426  block.timestamp > startTime + cliff */\n      gt\n        /* \"contracts/LiniarVesting/vesting.sol\":1383:1446  require(block.timestamp > startTime + cliff, CliffNotReached()) */\n      tag_80\n      jumpi\n      mload(0x40)\n      0x392a328700000000000000000000000000000000000000000000000000000000\n      dup2\n      mstore\n      0x04\n      add\n      mload(0x40)\n      dup1\n      swap2\n      sub\n      swap1\n      revert\n    tag_80:\n        /* \"contracts/LiniarVesting/vesting.sol\":1457:1474  uint256 claimable */\n      0x00\n        /* \"contracts/LiniarVesting/vesting.sol\":1477:1494  claimableAmount() */\n      tag_81\n        /* \"contracts/LiniarVesting/vesting.sol\":1477:1492  claimableAmount */\n      tag_51\n        /* \"contracts/LiniarVesting/vesting.sol\":1477:1494  claimableAmount() */\n      jump\t// in\n    tag_81:\n        /* \"contracts/LiniarVesting/vesting.sol\":1457:1494  uint256 claimable = claimableAmount() */\n      swap1\n      pop\n        /* \"contracts/LiniarVesting/vesting.sol\":1524:1525  0 */\n      0x00\n        /* \"contracts/LiniarVesting/vesting.sol\":1512:1521  claimable */\n      dup2\n        /* \"contracts/LiniarVesting/vesting.sol\":1512:1525  claimable > 0 */\n      gt\n        /* \"contracts/LiniarVesting/vesting.sol\":1504:1544  require(claimable > 0, NothingToClaim()) */\n      tag_82\n      jumpi\n      mload(0x40)\n      0x969bf72800000000000000000000000000000000000000000000000000000000\n      dup2\n      mstore\n      0x04\n      add\n      mload(0x40)\n      dup1\n      swap2\n      sub\n      swap1\n      revert\n    tag_82:\n        /* \"contracts/LiniarVesting/vesting.sol\":1566:1575  claimable */\n      dup1\n        /* \"contracts/LiniarVesting/vesting.sol\":1555:1562  claimed */\n      0x07\n      0x00\n        /* \"contracts/LiniarVesting/vesting.sol\":1555:1575  claimed += claimable */\n      dup3\n      dup3\n      sload\n      tag_83\n      swap2\n      swap1\n      tag_79\n      jump\t// in\n    tag_83:\n      swap3\n      pop\n      pop\n      dup2\n      swap1\n      sstore\n      pop\n        /* \"contracts/LiniarVesting/vesting.sol\":1593:1598  token */\n      0x01\n      0x00\n      swap1\n      sload\n      swap1\n      0x0100\n      exp\n      swap1\n      div\n      0xffffffffffffffffffffffffffffffffffffffff\n      and\n        /* \"contracts/LiniarVesting/vesting.sol\":1593:1607  token.transfer */\n      0xffffffffffffffffffffffffffffffffffffffff\n      and\n      0xa9059cbb\n        /* \"contracts/LiniarVesting/vesting.sol\":1608:1619  beneficiary */\n      0x02\n      0x00\n      swap1\n      sload\n      swap1\n      0x0100\n      exp\n      swap1\n      div\n      0xffffffffffffffffffffffffffffffffffffffff\n      and\n        /* \"contracts/LiniarVesting/vesting.sol\":1621:1630  claimable */\n      dup4\n        /* \"contracts/LiniarVesting/vesting.sol\":1593:1631  token.transfer(beneficiary, claimable) */\n      mload(0x40)\n      dup4\n      0xffffffff\n      and\n      0xe0\n      shl\n      dup2\n      mstore\n      0x04\n      add\n      tag_84\n      swap3\n      swap2\n      swap1\n      tag_85\n      jump\t// in\n    tag_84:\n      0x20\n      mload(0x40)\n      dup1\n      dup4\n      sub\n      dup2\n      0x00\n      dup8\n      gas\n      call\n      iszero\n      dup1\n      iszero\n      tag_87\n      jumpi\n      returndatacopy(0x00, 0x00, returndatasize)\n      revert(0x00, returndatasize)\n    tag_87:\n      pop\n      pop\n      pop\n      pop\n      mload(0x40)\n      returndatasize\n      not(0x1f)\n      0x1f\n      dup3\n      add\n      and\n      dup3\n      add\n      dup1\n      0x40\n      mstore\n      pop\n      dup2\n      add\n      swap1\n      tag_88\n      swap2\n      swap1\n      tag_89\n      jump\t// in\n    tag_88:\n        /* \"contracts/LiniarVesting/vesting.sol\":1585:1650  require(token.transfer(beneficiary, claimable), TransferFailed()) */\n      tag_90\n      jumpi\n      mload(0x40)\n      0x90b8ec1800000000000000000000000000000000000000000000000000000000\n      dup2\n      mstore\n      0x04\n      add\n      mload(0x40)\n      dup1\n      swap2\n      sub\n      swap1\n      revert\n    tag_90:\n        /* \"contracts/LiniarVesting/vesting.sol\":1666:1711  Claim(msg.sender, claimable, block.timestamp) */\n      0x34fcbac0073d7c3d388e51312faf357774904998eeb8fca628b9e6f65ee1cbf7\n        /* \"contracts/LiniarVesting/vesting.sol\":1672:1682  msg.sender */\n      caller\n        /* \"contracts/LiniarVesting/vesting.sol\":1684:1693  claimable */\n      dup3\n        /* \"contracts/LiniarVesting/vesting.sol\":1695:1710  block.timestamp */\n      timestamp\n        /* \"contracts/LiniarVesting/vesting.sol\":1666:1711  Claim(msg.sender, claimable, block.timestamp) */\n      mload(0x40)\n      tag_91\n      swap4\n      swap3\n      swap2\n      swap1\n      tag_92\n      jump\t// in\n    tag_91:\n      mload(0x40)\n      dup1\n      swap2\n      sub\n      swap1\n      log1\n        /* \"contracts/LiniarVesting/vesting.sol\":1235:1718  {... */\n      pop\n        /* \"contracts/LiniarVesting/vesting.sol\":1211:1718  function claim() public {... */\n      jump\t// out\n        /* \"@openzeppelin/contracts/access/Ownable.sol\":2293:2394  function renounceOwnership() public virtual onlyOwner {... */\n    tag_43:\n        /* \"@openzeppelin/contracts/access/Ownable.sol\":1531:1544  _checkOwner() */\n      tag_94\n        /* \"@openzeppelin/contracts/access/Ownable.sol\":1531:1542  _checkOwner */\n      tag_95\n        /* \"@openzeppelin/contracts/access/Ownable.sol\":1531:1544  _checkOwner() */\n      jump\t// in\n    tag_94:\n        /* \"@openzeppelin/contracts/access/Ownable.sol\":2357:2387  _transferOwnership(address(0)) */\n      tag_97\n        /* \"@openzeppelin/contracts/access/Ownable.sol\":2384:2385  0 */\n      0x00\n        /* \"@openzeppelin/contracts/access/Ownable.sol\":2357:2375  _transferOwnership */\n      tag_98\n        /* \"@openzeppelin/contracts/access/Ownable.sol\":2357:2387  _transferOwnership(address(0)) */\n      jump\t// in\n    tag_97:\n        /* \"@openzeppelin/contracts/access/Ownable.sol\":2293:2394  function renounceOwnership() public virtual onlyOwner {... */\n      jump\t// out\n        /* \"contracts/LiniarVesting/vesting.sol\":535:559  uint256 public startTime */\n    tag_45:\n      sload(0x04)\n      dup2\n      jump\t// out\n        /* \"@openzeppelin/contracts/access/Ownable.sol\":1638:1723  function owner() public view virtual returns (address) {... */\n    tag_48:\n        /* \"@openzeppelin/contracts/access/Ownable.sol\":1684:1691  address */\n      0x00\n        /* \"@openzeppelin/contracts/access/Ownable.sol\":1710:1716  _owner */\n      0x00\n      0x00\n      swap1\n      sload\n      swap1\n      0x0100\n      exp\n      swap1\n      div\n      0xffffffffffffffffffffffffffffffffffffffff\n      and\n        /* \"@openzeppelin/contracts/access/Ownable.sol\":1703:1716  return _owner */\n      swap1\n      pop\n        /* \"@openzeppelin/contracts/access/Ownable.sol\":1638:1723  function owner() public view virtual returns (address) {... */\n      swap1\n      jump\t// out\n        /* \"contracts/LiniarVesting/vesting.sol\":1974:2138  function claimableAmount() public view returns(uint256) {... */\n    tag_51:\n        /* \"contracts/LiniarVesting/vesting.sol\":2021:2028  uint256 */\n      0x00\n        /* \"contracts/LiniarVesting/vesting.sol\":2074:2079  cliff */\n      sload(0x05)\n        /* \"contracts/LiniarVesting/vesting.sol\":2062:2071  startTime */\n      sload(0x04)\n        /* \"contracts/LiniarVesting/vesting.sol\":2062:2079  startTime + cliff */\n      tag_101\n      swap2\n      swap1\n      tag_79\n      jump\t// in\n    tag_101:\n        /* \"contracts/LiniarVesting/vesting.sol\":2044:2059  block.timestamp */\n      timestamp\n        /* \"contracts/LiniarVesting/vesting.sol\":2044:2079  block.timestamp < startTime + cliff */\n      lt\n        /* \"contracts/LiniarVesting/vesting.sol\":2040:2089  if (block.timestamp < startTime + cliff) return 0 */\n      iszero\n      tag_102\n      jumpi\n        /* \"contracts/LiniarVesting/vesting.sol\":2088:2089  0 */\n      0x00\n        /* \"contracts/LiniarVesting/vesting.sol\":2081:2089  return 0 */\n      swap1\n      pop\n      jump(tag_100)\n        /* \"contracts/LiniarVesting/vesting.sol\":2040:2089  if (block.timestamp < startTime + cliff) return 0 */\n    tag_102:\n        /* \"contracts/LiniarVesting/vesting.sol\":2124:2131  claimed */\n      sload(0x07)\n        /* \"contracts/LiniarVesting/vesting.sol\":2107:2121  vestedAmount() */\n      tag_103\n        /* \"contracts/LiniarVesting/vesting.sol\":2107:2119  vestedAmount */\n      tag_104\n        /* \"contracts/LiniarVesting/vesting.sol\":2107:2121  vestedAmount() */\n      jump\t// in\n    tag_103:\n        /* \"contracts/LiniarVesting/vesting.sol\":2107:2131  vestedAmount() - claimed */\n      tag_105\n      swap2\n      swap1\n      tag_106\n      jump\t// in\n    tag_105:\n        /* \"contracts/LiniarVesting/vesting.sol\":2100:2131  return vestedAmount() - claimed */\n      swap1\n      pop\n        /* \"contracts/LiniarVesting/vesting.sol\":1974:2138  function claimableAmount() public view returns(uint256) {... */\n    tag_100:\n      swap1\n      jump\t// out\n        /* \"contracts/LiniarVesting/vesting.sol\":2462:2631  function getInitData(address _token, address _treasury, address _owner) external pure returns(bytes memory) {... */\n    tag_56:\n        /* \"contracts/LiniarVesting/vesting.sol\":2556:2568  bytes memory */\n      0x60\n        /* \"contracts/LiniarVesting/vesting.sol\":2598:2604  _token */\n      dup4\n        /* \"contracts/LiniarVesting/vesting.sol\":2606:2615  _treasury */\n      dup4\n        /* \"contracts/LiniarVesting/vesting.sol\":2617:2623  _owner */\n      dup4\n        /* \"contracts/LiniarVesting/vesting.sol\":2587:2624  abi.encode(_token, _treasury, _owner) */\n      add(0x20, mload(0x40))\n      tag_108\n      swap4\n      swap3\n      swap2\n      swap1\n      tag_109\n      jump\t// in\n    tag_108:\n      mload(0x40)\n      0x20\n      dup2\n      dup4\n      sub\n      sub\n      dup2\n      mstore\n      swap1\n      0x40\n      mstore\n        /* \"contracts/LiniarVesting/vesting.sol\":2580:2624  return abi.encode(_token, _treasury, _owner) */\n      swap1\n      pop\n        /* \"contracts/LiniarVesting/vesting.sol\":2462:2631  function getInitData(address _token, address _treasury, address _owner) external pure returns(bytes memory) {... */\n      swap4\n      swap3\n      pop\n      pop\n      pop\n      jump\t// out\n        /* \"contracts/LiniarVesting/vesting.sol\":620:642  uint256 public claimed */\n    tag_60:\n      sload(0x07)\n      dup2\n      jump\t// out\n        /* \"@openzeppelin/contracts/access/Ownable.sol\":2543:2758  function transferOwnership(address newOwner) public virtual onlyOwner {... */\n    tag_65:\n        /* \"@openzeppelin/contracts/access/Ownable.sol\":1531:1544  _checkOwner() */\n      tag_111\n        /* \"@openzeppelin/contracts/access/Ownable.sol\":1531:1542  _checkOwner */\n      tag_95\n        /* \"@openzeppelin/contracts/access/Ownable.sol\":1531:1544  _checkOwner() */\n      jump\t// in\n    tag_111:\n        /* \"@openzeppelin/contracts/access/Ownable.sol\":2647:2648  0 */\n      0x00\n        /* \"@openzeppelin/contracts/access/Ownable.sol\":2627:2649  newOwner == address(0) */\n      0xffffffffffffffffffffffffffffffffffffffff\n      and\n        /* \"@openzeppelin/contracts/access/Ownable.sol\":2627:2635  newOwner */\n      dup2\n        /* \"@openzeppelin/contracts/access/Ownable.sol\":2627:2649  newOwner == address(0) */\n      0xffffffffffffffffffffffffffffffffffffffff\n      and\n      sub\n        /* \"@openzeppelin/contracts/access/Ownable.sol\":2623:2714  if (newOwner == address(0)) {... */\n      tag_113\n      jumpi\n        /* \"@openzeppelin/contracts/access/Ownable.sol\":2700:2701  0 */\n      0x00\n        /* \"@openzeppelin/contracts/access/Ownable.sol\":2672:2703  OwnableInvalidOwner(address(0)) */\n      mload(0x40)\n      0x1e4fbdf700000000000000000000000000000000000000000000000000000000\n      dup2\n      mstore\n      0x04\n      add\n      tag_114\n      swap2\n      swap1\n      tag_33\n      jump\t// in\n    tag_114:\n      mload(0x40)\n      dup1\n      swap2\n      sub\n      swap1\n      revert\n        /* \"@openzeppelin/contracts/access/Ownable.sol\":2623:2714  if (newOwner == address(0)) {... */\n    tag_113:\n        /* \"@openzeppelin/contracts/access/Ownable.sol\":2723:2751  _transferOwnership(newOwner) */\n      tag_115\n        /* \"@openzeppelin/contracts/access/Ownable.sol\":2742:2750  newOwner */\n      dup2\n        /* \"@openzeppelin/contracts/access/Ownable.sol\":2723:2741  _transferOwnership */\n      tag_98\n        /* \"@openzeppelin/contracts/access/Ownable.sol\":2723:2751  _transferOwnership(newOwner) */\n      jump\t// in\n    tag_115:\n        /* \"@openzeppelin/contracts/access/Ownable.sol\":2543:2758  function transferOwnership(address newOwner) public virtual onlyOwner {... */\n      pop\n      jump\t// out\n        /* \"contracts/LiniarVesting/vesting.sol\":302:321  IERC20 public token */\n    tag_67:\n      0x01\n      0x00\n      swap1\n      sload\n      swap1\n      0x0100\n      exp\n      swap1\n      div\n      0xffffffffffffffffffffffffffffffffffffffff\n      and\n      dup2\n      jump\t// out\n        /* \"@openzeppelin/contracts/access/Ownable.sol\":1796:1958  function _checkOwner() internal view virtual {... */\n    tag_95:\n        /* \"@openzeppelin/contracts/access/Ownable.sol\":1866:1878  _msgSender() */\n      tag_117\n        /* \"@openzeppelin/contracts/access/Ownable.sol\":1866:1876  _msgSender */\n      tag_118\n        /* \"@openzeppelin/contracts/access/Ownable.sol\":1866:1878  _msgSender() */\n      jump\t// in\n    tag_117:\n        /* \"@openzeppelin/contracts/access/Ownable.sol\":1855:1878  owner() != _msgSender() */\n      0xffffffffffffffffffffffffffffffffffffffff\n      and\n        /* \"@openzeppelin/contracts/access/Ownable.sol\":1855:1862  owner() */\n      tag_119\n        /* \"@openzeppelin/contracts/access/Ownable.sol\":1855:1860  owner */\n      tag_48\n        /* \"@openzeppelin/contracts/access/Ownable.sol\":1855:1862  owner() */\n      jump\t// in\n    tag_119:\n        /* \"@openzeppelin/contracts/access/Ownable.sol\":1855:1878  owner() != _msgSender() */\n      0xffffffffffffffffffffffffffffffffffffffff\n      and\n      eq\n        /* \"@openzeppelin/contracts/access/Ownable.sol\":1851:1952  if (owner() != _msgSender()) {... */\n      tag_120\n      jumpi\n        /* \"@openzeppelin/contracts/access/Ownable.sol\":1928:1940  _msgSender() */\n      tag_121\n        /* \"@openzeppelin/contracts/access/Ownable.sol\":1928:1938  _msgSender */\n      tag_118\n        /* \"@openzeppelin/contracts/access/Ownable.sol\":1928:1940  _msgSender() */\n      jump\t// in\n    tag_121:\n        /* \"@openzeppelin/contracts/access/Ownable.sol\":1901:1941  OwnableUnauthorizedAccount(_msgSender()) */\n      mload(0x40)\n      0x118cdaa700000000000000000000000000000000000000000000000000000000\n      dup2\n      mstore\n      0x04\n      add\n      tag_122\n      swap2\n      swap1\n      tag_33\n      jump\t// in\n    tag_122:\n      mload(0x40)\n      dup1\n      swap2\n      sub\n      swap1\n      revert\n        /* \"@openzeppelin/contracts/access/Ownable.sol\":1851:1952  if (owner() != _msgSender()) {... */\n    tag_120:\n        /* \"@openzeppelin/contracts/access/Ownable.sol\":1796:1958  function _checkOwner() internal view virtual {... */\n      jump\t// out\n        /* \"@openzeppelin/contracts/access/Ownable.sol\":2912:3099  function _transferOwnership(address newOwner) internal virtual {... */\n    tag_98:\n        /* \"@openzeppelin/contracts/access/Ownable.sol\":2985:3001  address oldOwner */\n      0x00\n        /* \"@openzeppelin/contracts/access/Ownable.sol\":3004:3010  _owner */\n      0x00\n      0x00\n      swap1\n      sload\n      swap1\n      0x0100\n      exp\n      swap1\n      div\n      0xffffffffffffffffffffffffffffffffffffffff\n      and\n        /* \"@openzeppelin/contracts/access/Ownable.sol\":2985:3010  address oldOwner = _owner */\n      swap1\n      pop\n        /* \"@openzeppelin/contracts/access/Ownable.sol\":3029:3037  newOwner */\n      dup2\n        /* \"@openzeppelin/contracts/access/Ownable.sol\":3020:3026  _owner */\n      0x00\n      0x00\n        /* \"@openzeppelin/contracts/access/Ownable.sol\":3020:3037  _owner = newOwner */\n      0x0100\n      exp\n      dup2\n      sload\n      dup2\n      0xffffffffffffffffffffffffffffffffffffffff\n      mul\n      not\n      and\n      swap1\n      dup4\n      0xffffffffffffffffffffffffffffffffffffffff\n      and\n      mul\n      or\n      swap1\n      sstore\n      pop\n        /* \"@openzeppelin/contracts/access/Ownable.sol\":3083:3091  newOwner */\n      dup2\n        /* \"@openzeppelin/contracts/access/Ownable.sol\":3052:3092  OwnershipTransferred(oldOwner, newOwner) */\n      0xffffffffffffffffffffffffffffffffffffffff\n      and\n        /* \"@openzeppelin/contracts/access/Ownable.sol\":3073:3081  oldOwner */\n      dup2\n        /* \"@openzeppelin/contracts/access/Ownable.sol\":3052:3092  OwnershipTransferred(oldOwner, newOwner) */\n      0xffffffffffffffffffffffffffffffffffffffff\n      and\n      0x8be0079c531659141344cd1fd0a4f28419497f9722a3daafe3b4186f6b6457e0\n      mload(0x40)\n      mload(0x40)\n      dup1\n      swap2\n      sub\n      swap1\n      log3\n        /* \"@openzeppelin/contracts/access/Ownable.sol\":2975:3099  {... */\n      pop\n        /* \"@openzeppelin/contracts/access/Ownable.sol\":2912:3099  function _transferOwnership(address newOwner) internal virtual {... */\n      pop\n      jump\t// out\n        /* \"contracts/LiniarVesting/vesting.sol\":1724:1968  function vestedAmount() internal view returns(uint256) {... */\n    tag_104:\n        /* \"contracts/LiniarVesting/vesting.sol\":1770:1777  uint256 */\n      0x00\n        /* \"contracts/LiniarVesting/vesting.sol\":1823:1828  cliff */\n      sload(0x05)\n        /* \"contracts/LiniarVesting/vesting.sol\":1811:1820  startTime */\n      sload(0x04)\n        /* \"contracts/LiniarVesting/vesting.sol\":1811:1828  startTime + cliff */\n      tag_125\n      swap2\n      swap1\n      tag_79\n      jump\t// in\n    tag_125:\n        /* \"contracts/LiniarVesting/vesting.sol\":1793:1808  block.timestamp */\n      timestamp\n        /* \"contracts/LiniarVesting/vesting.sol\":1793:1828  block.timestamp < startTime + cliff */\n      lt\n        /* \"contracts/LiniarVesting/vesting.sol\":1789:1838  if (block.timestamp < startTime + cliff) return 0 */\n      iszero\n      tag_126\n      jumpi\n        /* \"contracts/LiniarVesting/vesting.sol\":1837:1838  0 */\n      0x00\n        /* \"contracts/LiniarVesting/vesting.sol\":1830:1838  return 0 */\n      swap1\n      pop\n      jump(tag_124)\n        /* \"contracts/LiniarVesting/vesting.sol\":1789:1838  if (block.timestamp < startTime + cliff) return 0 */\n    tag_126:\n        /* \"contracts/LiniarVesting/vesting.sol\":1849:1867  uint256 passedTime */\n      0x00\n        /* \"contracts/LiniarVesting/vesting.sol\":1901:1906  cliff */\n      sload(0x05)\n        /* \"contracts/LiniarVesting/vesting.sol\":1889:1898  startTime */\n      sload(0x04)\n        /* \"contracts/LiniarVesting/vesting.sol\":1889:1906  startTime + cliff */\n      tag_127\n      swap2\n      swap1\n      tag_79\n      jump\t// in\n    tag_127:\n        /* \"contracts/LiniarVesting/vesting.sol\":1870:1885  block.timestamp */\n      timestamp\n        /* \"contracts/LiniarVesting/vesting.sol\":1870:1907  block.timestamp - (startTime + cliff) */\n      tag_128\n      swap2\n      swap1\n      tag_106\n      jump\t// in\n    tag_128:\n        /* \"contracts/LiniarVesting/vesting.sol\":1849:1907  uint256 passedTime = block.timestamp - (startTime + cliff) */\n      swap1\n      pop\n        /* \"contracts/LiniarVesting/vesting.sol\":1953:1961  duration */\n      sload(0x06)\n        /* \"contracts/LiniarVesting/vesting.sol\":1939:1949  passedTime */\n      dup2\n        /* \"contracts/LiniarVesting/vesting.sol\":1925:1936  totalAmount */\n      sload(0x03)\n        /* \"contracts/LiniarVesting/vesting.sol\":1925:1949  totalAmount * passedTime */\n      tag_129\n      swap2\n      swap1\n      tag_130\n      jump\t// in\n    tag_129:\n        /* \"contracts/LiniarVesting/vesting.sol\":1924:1961  (totalAmount * passedTime) / duration */\n      tag_131\n      swap2\n      swap1\n      tag_132\n      jump\t// in\n    tag_131:\n        /* \"contracts/LiniarVesting/vesting.sol\":1917:1961  return (totalAmount * passedTime) / duration */\n      swap2\n      pop\n      pop\n        /* \"contracts/LiniarVesting/vesting.sol\":1724:1968  function vestedAmount() internal view returns(uint256) {... */\n    tag_124:\n      swap1\n      jump\t// out\n        /* \"@openzeppelin/contracts/utils/Context.sol\":656:752  function _msgSender() internal view virtual returns (address) {... */\n    tag_118:\n        /* \"@openzeppelin/contracts/utils/Context.sol\":709:716  address */\n      0x00\n        /* \"@openzeppelin/contracts/utils/Context.sol\":735:745  msg.sender */\n      caller\n        /* \"@openzeppelin/contracts/utils/Context.sol\":728:745  return msg.sender */\n      swap1\n      pop\n        /* \"@openzeppelin/contracts/utils/Context.sol\":656:752  function _msgSender() internal view virtual returns (address) {... */\n      swap1\n      jump\t// out\n        /* \"#utility.yul\":7:84   */\n    tag_134:\n        /* \"#utility.yul\":44:51   */\n      0x00\n        /* \"#utility.yul\":73:78   */\n      dup2\n        /* \"#utility.yul\":62:78   */\n      swap1\n      pop\n        /* \"#utility.yul\":7:84   */\n      swap2\n      swap1\n      pop\n      jump\t// out\n        /* \"#utility.yul\":90:208   */\n    tag_135:\n        /* \"#utility.yul\":177:201   */\n      tag_175\n        /* \"#utility.yul\":195:200   */\n      dup2\n        /* \"#utility.yul\":177:201   */\n      tag_134\n      jump\t// in\n    tag_175:\n        /* \"#utility.yul\":172:175   */\n      dup3\n        /* \"#utility.yul\":165:202   */\n      mstore\n        /* \"#utility.yul\":90:208   */\n      pop\n      pop\n      jump\t// out\n        /* \"#utility.yul\":214:436   */\n    tag_23:\n        /* \"#utility.yul\":307:311   */\n      0x00\n        /* \"#utility.yul\":345:347   */\n      0x20\n        /* \"#utility.yul\":334:343   */\n      dup3\n        /* \"#utility.yul\":330:348   */\n      add\n        /* \"#utility.yul\":322:348   */\n      swap1\n      pop\n        /* \"#utility.yul\":358:429   */\n      tag_177\n        /* \"#utility.yul\":426:427   */\n      0x00\n        /* \"#utility.yul\":415:424   */\n      dup4\n        /* \"#utility.yul\":411:428   */\n      add\n        /* \"#utility.yul\":402:408   */\n      dup5\n        /* \"#utility.yul\":358:429   */\n      tag_135\n      jump\t// in\n    tag_177:\n        /* \"#utility.yul\":214:436   */\n      swap3\n      swap2\n      pop\n      pop\n      jump\t// out\n        /* \"#utility.yul\":442:568   */\n    tag_136:\n        /* \"#utility.yul\":479:486   */\n      0x00\n        /* \"#utility.yul\":519:561   */\n      0xffffffffffffffffffffffffffffffffffffffff\n        /* \"#utility.yul\":512:517   */\n      dup3\n        /* \"#utility.yul\":508:562   */\n      and\n        /* \"#utility.yul\":497:562   */\n      swap1\n      pop\n        /* \"#utility.yul\":442:568   */\n      swap2\n      swap1\n      pop\n      jump\t// out\n        /* \"#utility.yul\":574:670   */\n    tag_137:\n        /* \"#utility.yul\":611:618   */\n      0x00\n        /* \"#utility.yul\":640:664   */\n      tag_180\n        /* \"#utility.yul\":658:663   */\n      dup3\n        /* \"#utility.yul\":640:664   */\n      tag_136\n      jump\t// in\n    tag_180:\n        /* \"#utility.yul\":629:664   */\n      swap1\n      pop\n        /* \"#utility.yul\":574:670   */\n      swap2\n      swap1\n      pop\n      jump\t// out\n        /* \"#utility.yul\":676:794   */\n    tag_138:\n        /* \"#utility.yul\":763:787   */\n      tag_182\n        /* \"#utility.yul\":781:786   */\n      dup2\n        /* \"#utility.yul\":763:787   */\n      tag_137\n      jump\t// in\n    tag_182:\n        /* \"#utility.yul\":758:761   */\n      dup3\n        /* \"#utility.yul\":751:788   */\n      mstore\n        /* \"#utility.yul\":676:794   */\n      pop\n      pop\n      jump\t// out\n        /* \"#utility.yul\":800:1022   */\n    tag_33:\n        /* \"#utility.yul\":893:897   */\n      0x00\n        /* \"#utility.yul\":931:933   */\n      0x20\n        /* \"#utility.yul\":920:929   */\n      dup3\n        /* \"#utility.yul\":916:934   */\n      add\n        /* \"#utility.yul\":908:934   */\n      swap1\n      pop\n        /* \"#utility.yul\":944:1015   */\n      tag_184\n        /* \"#utility.yul\":1012:1013   */\n      0x00\n        /* \"#utility.yul\":1001:1010   */\n      dup4\n        /* \"#utility.yul\":997:1014   */\n      add\n        /* \"#utility.yul\":988:994   */\n      dup5\n        /* \"#utility.yul\":944:1015   */\n      tag_138\n      jump\t// in\n    tag_184:\n        /* \"#utility.yul\":800:1022   */\n      swap3\n      swap2\n      pop\n      pop\n      jump\t// out\n        /* \"#utility.yul\":1028:1103   */\n    tag_139:\n        /* \"#utility.yul\":1061:1067   */\n      0x00\n        /* \"#utility.yul\":1094:1096   */\n      0x40\n        /* \"#utility.yul\":1088:1097   */\n      mload\n        /* \"#utility.yul\":1078:1097   */\n      swap1\n      pop\n        /* \"#utility.yul\":1028:1103   */\n      swap1\n      jump\t// out\n        /* \"#utility.yul\":1109:1226   */\n    tag_140:\n        /* \"#utility.yul\":1218:1219   */\n      0x00\n        /* \"#utility.yul\":1215:1216   */\n      0x00\n        /* \"#utility.yul\":1208:1220   */\n      revert\n        /* \"#utility.yul\":1232:1349   */\n    tag_141:\n        /* \"#utility.yul\":1341:1342   */\n      0x00\n        /* \"#utility.yul\":1338:1339   */\n      0x00\n        /* \"#utility.yul\":1331:1343   */\n      revert\n        /* \"#utility.yul\":1355:1472   */\n    tag_142:\n        /* \"#utility.yul\":1464:1465   */\n      0x00\n        /* \"#utility.yul\":1461:1462   */\n      0x00\n        /* \"#utility.yul\":1454:1466   */\n      revert\n        /* \"#utility.yul\":1478:1595   */\n    tag_143:\n        /* \"#utility.yul\":1587:1588   */\n      0x00\n        /* \"#utility.yul\":1584:1585   */\n      0x00\n        /* \"#utility.yul\":1577:1589   */\n      revert\n        /* \"#utility.yul\":1601:1703   */\n    tag_144:\n        /* \"#utility.yul\":1642:1648   */\n      0x00\n        /* \"#utility.yul\":1693:1695   */\n      0x1f\n        /* \"#utility.yul\":1689:1696   */\n      not\n        /* \"#utility.yul\":1684:1686   */\n      0x1f\n        /* \"#utility.yul\":1677:1682   */\n      dup4\n        /* \"#utility.yul\":1673:1687   */\n      add\n        /* \"#utility.yul\":1669:1697   */\n      and\n        /* \"#utility.yul\":1659:1697   */\n      swap1\n      pop\n        /* \"#utility.yul\":1601:1703   */\n      swap2\n      swap1\n      pop\n      jump\t// out\n        /* \"#utility.yul\":1709:1889   */\n    tag_145:\n        /* \"#utility.yul\":1757:1834   */\n      0x4e487b7100000000000000000000000000000000000000000000000000000000\n        /* \"#utility.yul\":1754:1755   */\n      0x00\n        /* \"#utility.yul\":1747:1835   */\n      mstore\n        /* \"#utility.yul\":1854:1858   */\n      0x41\n        /* \"#utility.yul\":1851:1852   */\n      0x04\n        /* \"#utility.yul\":1844:1859   */\n      mstore\n        /* \"#utility.yul\":1878:1882   */\n      0x24\n        /* \"#utility.yul\":1875:1876   */\n      0x00\n        /* \"#utility.yul\":1868:1883   */\n      revert\n        /* \"#utility.yul\":1895:2176   */\n    tag_146:\n        /* \"#utility.yul\":1978:2005   */\n      tag_193\n        /* \"#utility.yul\":2000:2004   */\n      dup3\n        /* \"#utility.yul\":1978:2005   */\n      tag_144\n      jump\t// in\n    tag_193:\n        /* \"#utility.yul\":1970:1976   */\n      dup2\n        /* \"#utility.yul\":1966:2006   */\n      add\n        /* \"#utility.yul\":2108:2114   */\n      dup2\n        /* \"#utility.yul\":2096:2106   */\n      dup2\n        /* \"#utility.yul\":2093:2115   */\n      lt\n        /* \"#utility.yul\":2072:2090   */\n      0xffffffffffffffff\n        /* \"#utility.yul\":2060:2070   */\n      dup3\n        /* \"#utility.yul\":2057:2091   */\n      gt\n        /* \"#utility.yul\":2054:2116   */\n      or\n        /* \"#utility.yul\":2051:2139   */\n      iszero\n      tag_194\n      jumpi\n        /* \"#utility.yul\":2119:2137   */\n      tag_195\n      tag_145\n      jump\t// in\n    tag_195:\n        /* \"#utility.yul\":2051:2139   */\n    tag_194:\n        /* \"#utility.yul\":2159:2169   */\n      dup1\n        /* \"#utility.yul\":2155:2157   */\n      0x40\n        /* \"#utility.yul\":2148:2170   */\n      mstore\n        /* \"#utility.yul\":1938:2176   */\n      pop\n        /* \"#utility.yul\":1895:2176   */\n      pop\n      pop\n      jump\t// out\n        /* \"#utility.yul\":2182:2311   */\n    tag_147:\n        /* \"#utility.yul\":2216:2222   */\n      0x00\n        /* \"#utility.yul\":2243:2263   */\n      tag_197\n      tag_139\n      jump\t// in\n    tag_197:\n        /* \"#utility.yul\":2233:2263   */\n      swap1\n      pop\n        /* \"#utility.yul\":2272:2305   */\n      tag_198\n        /* \"#utility.yul\":2300:2304   */\n      dup3\n        /* \"#utility.yul\":2292:2298   */\n      dup3\n        /* \"#utility.yul\":2272:2305   */\n      tag_146\n      jump\t// in\n    tag_198:\n        /* \"#utility.yul\":2182:2311   */\n      swap2\n      swap1\n      pop\n      jump\t// out\n        /* \"#utility.yul\":2317:2624   */\n    tag_148:\n        /* \"#utility.yul\":2378:2382   */\n      0x00\n        /* \"#utility.yul\":2468:2486   */\n      0xffffffffffffffff\n        /* \"#utility.yul\":2460:2466   */\n      dup3\n        /* \"#utility.yul\":2457:2487   */\n      gt\n        /* \"#utility.yul\":2454:2510   */\n      iszero\n      tag_200\n      jumpi\n        /* \"#utility.yul\":2490:2508   */\n      tag_201\n      tag_145\n      jump\t// in\n    tag_201:\n        /* \"#utility.yul\":2454:2510   */\n    tag_200:\n        /* \"#utility.yul\":2528:2557   */\n      tag_202\n        /* \"#utility.yul\":2550:2556   */\n      dup3\n        /* \"#utility.yul\":2528:2557   */\n      tag_144\n      jump\t// in\n    tag_202:\n        /* \"#utility.yul\":2520:2557   */\n      swap1\n      pop\n        /* \"#utility.yul\":2612:2616   */\n      0x20\n        /* \"#utility.yul\":2606:2610   */\n      dup2\n        /* \"#utility.yul\":2602:2617   */\n      add\n        /* \"#utility.yul\":2594:2617   */\n      swap1\n      pop\n        /* \"#utility.yul\":2317:2624   */\n      swap2\n      swap1\n      pop\n      jump\t// out\n        /* \"#utility.yul\":2630:2778   */\n    tag_149:\n        /* \"#utility.yul\":2728:2734   */\n      dup3\n        /* \"#utility.yul\":2723:2726   */\n      dup2\n        /* \"#utility.yul\":2718:2721   */\n      dup4\n        /* \"#utility.yul\":2705:2735   */\n      calldatacopy\n        /* \"#utility.yul\":2769:2770   */\n      0x00\n        /* \"#utility.yul\":2760:2766   */\n      dup4\n        /* \"#utility.yul\":2755:2758   */\n      dup4\n        /* \"#utility.yul\":2751:2767   */\n      add\n        /* \"#utility.yul\":2744:2771   */\n      mstore\n        /* \"#utility.yul\":2630:2778   */\n      pop\n      pop\n      pop\n      jump\t// out\n        /* \"#utility.yul\":2784:3207   */\n    tag_150:\n        /* \"#utility.yul\":2861:2866   */\n      0x00\n        /* \"#utility.yul\":2886:2951   */\n      tag_205\n        /* \"#utility.yul\":2902:2950   */\n      tag_206\n        /* \"#utility.yul\":2943:2949   */\n      dup5\n        /* \"#utility.yul\":2902:2950   */\n      tag_148\n      jump\t// in\n    tag_206:\n        /* \"#utility.yul\":2886:2951   */\n      tag_147\n      jump\t// in\n    tag_205:\n        /* \"#utility.yul\":2877:2951   */\n      swap1\n      pop\n        /* \"#utility.yul\":2974:2980   */\n      dup3\n        /* \"#utility.yul\":2967:2972   */\n      dup2\n        /* \"#utility.yul\":2960:2981   */\n      mstore\n        /* \"#utility.yul\":3012:3016   */\n      0x20\n        /* \"#utility.yul\":3005:3010   */\n      dup2\n        /* \"#utility.yul\":3001:3017   */\n      add\n        /* \"#utility.yul\":3050:3053   */\n      dup5\n        /* \"#utility.yul\":3041:3047   */\n      dup5\n        /* \"#utility.yul\":3036:3039   */\n      dup5\n        /* \"#utility.yul\":3032:3048   */\n      add\n        /* \"#utility.yul\":3029:3054   */\n      gt\n        /* \"#utility.yul\":3026:3138   */\n      iszero\n      tag_207\n      jumpi\n        /* \"#utility.yul\":3057:3136   */\n      tag_208\n      tag_143\n      jump\t// in\n    tag_208:\n        /* \"#utility.yul\":3026:3138   */\n    tag_207:\n        /* \"#utility.yul\":3147:3201   */\n      tag_209\n        /* \"#utility.yul\":3194:3200   */\n      dup5\n        /* \"#utility.yul\":3189:3192   */\n      dup3\n        /* \"#utility.yul\":3184:3187   */\n      dup6\n        /* \"#utility.yul\":3147:3201   */\n      tag_149\n      jump\t// in\n    tag_209:\n        /* \"#utility.yul\":2867:3207   */\n      pop\n        /* \"#utility.yul\":2784:3207   */\n      swap4\n      swap3\n      pop\n      pop\n      pop\n      jump\t// out\n        /* \"#utility.yul\":3226:3564   */\n    tag_151:\n        /* \"#utility.yul\":3281:3286   */\n      0x00\n        /* \"#utility.yul\":3330:3333   */\n      dup3\n        /* \"#utility.yul\":3323:3327   */\n      0x1f\n        /* \"#utility.yul\":3315:3321   */\n      dup4\n        /* \"#utility.yul\":3311:3328   */\n      add\n        /* \"#utility.yul\":3307:3334   */\n      slt\n        /* \"#utility.yul\":3297:3419   */\n      tag_211\n      jumpi\n        /* \"#utility.yul\":3338:3417   */\n      tag_212\n      tag_142\n      jump\t// in\n    tag_212:\n        /* \"#utility.yul\":3297:3419   */\n    tag_211:\n        /* \"#utility.yul\":3455:3461   */\n      dup2\n        /* \"#utility.yul\":3442:3462   */\n      calldataload\n        /* \"#utility.yul\":3480:3558   */\n      tag_213\n        /* \"#utility.yul\":3554:3557   */\n      dup5\n        /* \"#utility.yul\":3546:3552   */\n      dup3\n        /* \"#utility.yul\":3539:3543   */\n      0x20\n        /* \"#utility.yul\":3531:3537   */\n      dup7\n        /* \"#utility.yul\":3527:3544   */\n      add\n        /* \"#utility.yul\":3480:3558   */\n      tag_150\n      jump\t// in\n    tag_213:\n        /* \"#utility.yul\":3471:3558   */\n      swap2\n      pop\n        /* \"#utility.yul\":3287:3564   */\n      pop\n        /* \"#utility.yul\":3226:3564   */\n      swap3\n      swap2\n      pop\n      pop\n      jump\t// out\n        /* \"#utility.yul\":3570:4077   */\n    tag_36:\n        /* \"#utility.yul\":3638:3644   */\n      0x00\n        /* \"#utility.yul\":3687:3689   */\n      0x20\n        /* \"#utility.yul\":3675:3684   */\n      dup3\n        /* \"#utility.yul\":3666:3673   */\n      dup5\n        /* \"#utility.yul\":3662:3685   */\n      sub\n        /* \"#utility.yul\":3658:3690   */\n      slt\n        /* \"#utility.yul\":3655:3774   */\n      iszero\n      tag_215\n      jumpi\n        /* \"#utility.yul\":3693:3772   */\n      tag_216\n      tag_140\n      jump\t// in\n    tag_216:\n        /* \"#utility.yul\":3655:3774   */\n    tag_215:\n        /* \"#utility.yul\":3841:3842   */\n      0x00\n        /* \"#utility.yul\":3830:3839   */\n      dup3\n        /* \"#utility.yul\":3826:3843   */\n      add\n        /* \"#utility.yul\":3813:3844   */\n      calldataload\n        /* \"#utility.yul\":3871:3889   */\n      0xffffffffffffffff\n        /* \"#utility.yul\":3863:3869   */\n      dup2\n        /* \"#utility.yul\":3860:3890   */\n      gt\n        /* \"#utility.yul\":3857:3974   */\n      iszero\n      tag_217\n      jumpi\n        /* \"#utility.yul\":3893:3972   */\n      tag_218\n      tag_141\n      jump\t// in\n    tag_218:\n        /* \"#utility.yul\":3857:3974   */\n    tag_217:\n        /* \"#utility.yul\":3998:4060   */\n      tag_219\n        /* \"#utility.yul\":4052:4059   */\n      dup5\n        /* \"#utility.yul\":4043:4049   */\n      dup3\n        /* \"#utility.yul\":4032:4041   */\n      dup6\n        /* \"#utility.yul\":4028:4050   */\n      add\n        /* \"#utility.yul\":3998:4060   */\n      tag_151\n      jump\t// in\n    tag_219:\n        /* \"#utility.yul\":3988:4060   */\n      swap2\n      pop\n        /* \"#utility.yul\":3784:4070   */\n      pop\n        /* \"#utility.yul\":3570:4077   */\n      swap3\n      swap2\n      pop\n      pop\n      jump\t// out\n        /* \"#utility.yul\":4083:4173   */\n    tag_152:\n        /* \"#utility.yul\":4117:4124   */\n      0x00\n        /* \"#utility.yul\":4160:4165   */\n      dup2\n        /* \"#utility.yul\":4153:4166   */\n      iszero\n        /* \"#utility.yul\":4146:4167   */\n      iszero\n        /* \"#utility.yul\":4135:4167   */\n      swap1\n      pop\n        /* \"#utility.yul\":4083:4173   */\n      swap2\n      swap1\n      pop\n      jump\t// out\n        /* \"#utility.yul\":4179:4288   */\n    tag_153:\n        /* \"#utility.yul\":4260:4281   */\n      tag_222\n        /* \"#utility.yul\":4275:4280   */\n      dup2\n        /* \"#utility.yul\":4260:4281   */\n      tag_152\n      jump\t// in\n    tag_222:\n        /* \"#utility.yul\":4255:4258   */\n      dup3\n        /* \"#utility.yul\":4248:4282   */\n      mstore\n        /* \"#utility.yul\":4179:4288   */\n      pop\n      pop\n      jump\t// out\n        /* \"#utility.yul\":4294:4504   */\n    tag_39:\n        /* \"#utility.yul\":4381:4385   */\n      0x00\n        /* \"#utility.yul\":4419:4421   */\n      0x20\n        /* \"#utility.yul\":4408:4417   */\n      dup3\n        /* \"#utility.yul\":4404:4422   */\n      add\n        /* \"#utility.yul\":4396:4422   */\n      swap1\n      pop\n        /* \"#utility.yul\":4432:4497   */\n      tag_224\n        /* \"#utility.yul\":4494:4495   */\n      0x00\n        /* \"#utility.yul\":4483:4492   */\n      dup4\n        /* \"#utility.yul\":4479:4496   */\n      add\n        /* \"#utility.yul\":4470:4476   */\n      dup5\n        /* \"#utility.yul\":4432:4497   */\n      tag_153\n      jump\t// in\n    tag_224:\n        /* \"#utility.yul\":4294:4504   */\n      swap3\n      swap2\n      pop\n      pop\n      jump\t// out\n        /* \"#utility.yul\":4510:4632   */\n    tag_154:\n        /* \"#utility.yul\":4583:4607   */\n      tag_226\n        /* \"#utility.yul\":4601:4606   */\n      dup2\n        /* \"#utility.yul\":4583:4607   */\n      tag_137\n      jump\t// in\n    tag_226:\n        /* \"#utility.yul\":4576:4581   */\n      dup2\n        /* \"#utility.yul\":4573:4608   */\n      eq\n        /* \"#utility.yul\":4563:4626   */\n      tag_227\n      jumpi\n        /* \"#utility.yul\":4622:4623   */\n      0x00\n        /* \"#utility.yul\":4619:4620   */\n      0x00\n        /* \"#utility.yul\":4612:4624   */\n      revert\n        /* \"#utility.yul\":4563:4626   */\n    tag_227:\n        /* \"#utility.yul\":4510:4632   */\n      pop\n      jump\t// out\n        /* \"#utility.yul\":4638:4777   */\n    tag_155:\n        /* \"#utility.yul\":4684:4689   */\n      0x00\n        /* \"#utility.yul\":4722:4728   */\n      dup2\n        /* \"#utility.yul\":4709:4729   */\n      calldataload\n        /* \"#utility.yul\":4700:4729   */\n      swap1\n      pop\n        /* \"#utility.yul\":4738:4771   */\n      tag_229\n        /* \"#utility.yul\":4765:4770   */\n      dup2\n        /* \"#utility.yul\":4738:4771   */\n      tag_154\n      jump\t// in\n    tag_229:\n        /* \"#utility.yul\":4638:4777   */\n      swap3\n      swap2\n      pop\n      pop\n      jump\t// out\n        /* \"#utility.yul\":4783:5402   */\n    tag_55:\n        /* \"#utility.yul\":4860:4866   */\n      0x00\n        /* \"#utility.yul\":4868:4874   */\n      0x00\n        /* \"#utility.yul\":4876:4882   */\n      0x00\n        /* \"#utility.yul\":4925:4927   */\n      0x60\n        /* \"#utility.yul\":4913:4922   */\n      dup5\n        /* \"#utility.yul\":4904:4911   */\n      dup7\n        /* \"#utility.yul\":4900:4923   */\n      sub\n        /* \"#utility.yul\":4896:4928   */\n      slt\n        /* \"#utility.yul\":4893:5012   */\n      iszero\n      tag_231\n      jumpi\n        /* \"#utility.yul\":4931:5010   */\n      tag_232\n      tag_140\n      jump\t// in\n    tag_232:\n        /* \"#utility.yul\":4893:5012   */\n    tag_231:\n        /* \"#utility.yul\":5051:5052   */\n      0x00\n        /* \"#utility.yul\":5076:5129   */\n      tag_233\n        /* \"#utility.yul\":5121:5128   */\n      dup7\n        /* \"#utility.yul\":5112:5118   */\n      dup3\n        /* \"#utility.yul\":5101:5110   */\n      dup8\n        /* \"#utility.yul\":5097:5119   */\n      add\n        /* \"#utility.yul\":5076:5129   */\n      tag_155\n      jump\t// in\n    tag_233:\n        /* \"#utility.yul\":5066:5129   */\n      swap4\n      pop\n        /* \"#utility.yul\":5022:5139   */\n      pop\n        /* \"#utility.yul\":5178:5180   */\n      0x20\n        /* \"#utility.yul\":5204:5257   */\n      tag_234\n        /* \"#utility.yul\":5249:5256   */\n      dup7\n        /* \"#utility.yul\":5240:5246   */\n      dup3\n        /* \"#utility.yul\":5229:5238   */\n      dup8\n        /* \"#utility.yul\":5225:5247   */\n      add\n        /* \"#utility.yul\":5204:5257   */\n      tag_155\n      jump\t// in\n    tag_234:\n        /* \"#utility.yul\":5194:5257   */\n      swap3\n      pop\n        /* \"#utility.yul\":5149:5267   */\n      pop\n        /* \"#utility.yul\":5306:5308   */\n      0x40\n        /* \"#utility.yul\":5332:5385   */\n      tag_235\n        /* \"#utility.yul\":5377:5384   */\n      dup7\n        /* \"#utility.yul\":5368:5374   */\n      dup3\n        /* \"#utility.yul\":5357:5366   */\n      dup8\n        /* \"#utility.yul\":5353:5375   */\n      add\n        /* \"#utility.yul\":5332:5385   */\n      tag_155\n      jump\t// in\n    tag_235:\n        /* \"#utility.yul\":5322:5385   */\n      swap2\n      pop\n        /* \"#utility.yul\":5277:5395   */\n      pop\n        /* \"#utility.yul\":4783:5402   */\n      swap3\n      pop\n      swap3\n      pop\n      swap3\n      jump\t// out\n        /* \"#utility.yul\":5408:5506   */\n    tag_156:\n        /* \"#utility.yul\":5459:5465   */\n      0x00\n        /* \"#utility.yul\":5493:5498   */\n      dup2\n        /* \"#utility.yul\":5487:5499   */\n      mload\n        /* \"#utility.yul\":5477:5499   */\n      swap1\n      pop\n        /* \"#utility.yul\":5408:5506   */\n      swap2\n      swap1\n      pop\n      jump\t// out\n        /* \"#utility.yul\":5512:5680   */\n    tag_157:\n        /* \"#utility.yul\":5595:5606   */\n      0x00\n        /* \"#utility.yul\":5629:5635   */\n      dup3\n        /* \"#utility.yul\":5624:5627   */\n      dup3\n        /* \"#utility.yul\":5617:5636   */\n      mstore\n        /* \"#utility.yul\":5669:5673   */\n      0x20\n        /* \"#utility.yul\":5664:5667   */\n      dup3\n        /* \"#utility.yul\":5660:5674   */\n      add\n        /* \"#utility.yul\":5645:5674   */\n      swap1\n      pop\n        /* \"#utility.yul\":5512:5680   */\n      swap3\n      swap2\n      pop\n      pop\n      jump\t// out\n        /* \"#utility.yul\":5686:5825   */\n    tag_158:\n        /* \"#utility.yul\":5775:5781   */\n      dup3\n        /* \"#utility.yul\":5770:5773   */\n      dup2\n        /* \"#utility.yul\":5765:5768   */\n      dup4\n        /* \"#utility.yul\":5759:5782   */\n      mcopy\n        /* \"#utility.yul\":5816:5817   */\n      0x00\n        /* \"#utility.yul\":5807:5813   */\n      dup4\n        /* \"#utility.yul\":5802:5805   */\n      dup4\n        /* \"#utility.yul\":5798:5814   */\n      add\n        /* \"#utility.yul\":5791:5818   */\n      mstore\n        /* \"#utility.yul\":5686:5825   */\n      pop\n      pop\n      pop\n      jump\t// out\n        /* \"#utility.yul\":5831:6204   */\n    tag_159:\n        /* \"#utility.yul\":5917:5920   */\n      0x00\n        /* \"#utility.yul\":5945:5983   */\n      tag_240\n        /* \"#utility.yul\":5977:5982   */\n      dup3\n        /* \"#utility.yul\":5945:5983   */\n      tag_156\n      jump\t// in\n    tag_240:\n        /* \"#utility.yul\":5999:6069   */\n      tag_241\n        /* \"#utility.yul\":6062:6068   */\n      dup2\n        /* \"#utility.yul\":6057:6060   */\n      dup6\n        /* \"#utility.yul\":5999:6069   */\n      tag_157\n      jump\t// in\n    tag_241:\n        /* \"#utility.yul\":5992:6069   */\n      swap4\n      pop\n        /* \"#utility.yul\":6078:6143   */\n      tag_242\n        /* \"#utility.yul\":6136:6142   */\n      dup2\n        /* \"#utility.yul\":6131:6134   */\n      dup6\n        /* \"#utility.yul\":6124:6128   */\n      0x20\n        /* \"#utility.yul\":6117:6122   */\n      dup7\n        /* \"#utility.yul\":6113:6129   */\n      add\n        /* \"#utility.yul\":6078:6143   */\n      tag_158\n      jump\t// in\n    tag_242:\n        /* \"#utility.yul\":6168:6197   */\n      tag_243\n        /* \"#utility.yul\":6190:6196   */\n      dup2\n        /* \"#utility.yul\":6168:6197   */\n      tag_144\n      jump\t// in\n    tag_243:\n        /* \"#utility.yul\":6163:6166   */\n      dup5\n        /* \"#utility.yul\":6159:6198   */\n      add\n        /* \"#utility.yul\":6152:6198   */\n      swap2\n      pop\n        /* \"#utility.yul\":5921:6204   */\n      pop\n        /* \"#utility.yul\":5831:6204   */\n      swap3\n      swap2\n      pop\n      pop\n      jump\t// out\n        /* \"#utility.yul\":6210:6519   */\n    tag_58:\n        /* \"#utility.yul\":6321:6325   */\n      0x00\n        /* \"#utility.yul\":6359:6361   */\n      0x20\n        /* \"#utility.yul\":6348:6357   */\n      dup3\n        /* \"#utility.yul\":6344:6362   */\n      add\n        /* \"#utility.yul\":6336:6362   */\n      swap1\n      pop\n        /* \"#utility.yul\":6408:6417   */\n      dup2\n        /* \"#utility.yul\":6402:6406   */\n      dup2\n        /* \"#utility.yul\":6398:6418   */\n      sub\n        /* \"#utility.yul\":6394:6395   */\n      0x00\n        /* \"#utility.yul\":6383:6392   */\n      dup4\n        /* \"#utility.yul\":6379:6396   */\n      add\n        /* \"#utility.yul\":6372:6419   */\n      mstore\n        /* \"#utility.yul\":6436:6512   */\n      tag_245\n        /* \"#utility.yul\":6507:6511   */\n      dup2\n        /* \"#utility.yul\":6498:6504   */\n      dup5\n        /* \"#utility.yul\":6436:6512   */\n      tag_159\n      jump\t// in\n    tag_245:\n        /* \"#utility.yul\":6428:6512   */\n      swap1\n      pop\n        /* \"#utility.yul\":6210:6519   */\n      swap3\n      swap2\n      pop\n      pop\n      jump\t// out\n        /* \"#utility.yul\":6525:6854   */\n    tag_64:\n        /* \"#utility.yul\":6584:6590   */\n      0x00\n        /* \"#utility.yul\":6633:6635   */\n      0x20\n        /* \"#utility.yul\":6621:6630   */\n      dup3\n        /* \"#utility.yul\":6612:6619   */\n      dup5\n        /* \"#utility.yul\":6608:6631   */\n      sub\n        /* \"#utility.yul\":6604:6636   */\n      slt\n        /* \"#utility.yul\":6601:6720   */\n      iszero\n      tag_247\n      jumpi\n        /* \"#utility.yul\":6639:6718   */\n      tag_248\n      tag_140\n      jump\t// in\n    tag_248:\n        /* \"#utility.yul\":6601:6720   */\n    tag_247:\n        /* \"#utility.yul\":6759:6760   */\n      0x00\n        /* \"#utility.yul\":6784:6837   */\n      tag_249\n        /* \"#utility.yul\":6829:6836   */\n      dup5\n        /* \"#utility.yul\":6820:6826   */\n      dup3\n        /* \"#utility.yul\":6809:6818   */\n      dup6\n        /* \"#utility.yul\":6805:6827   */\n      add\n        /* \"#utility.yul\":6784:6837   */\n      tag_155\n      jump\t// in\n    tag_249:\n        /* \"#utility.yul\":6774:6837   */\n      swap2\n      pop\n        /* \"#utility.yul\":6730:6847   */\n      pop\n        /* \"#utility.yul\":6525:6854   */\n      swap3\n      swap2\n      pop\n      pop\n      jump\t// out\n        /* \"#utility.yul\":6860:6920   */\n    tag_160:\n        /* \"#utility.yul\":6888:6891   */\n      0x00\n        /* \"#utility.yul\":6909:6914   */\n      dup2\n        /* \"#utility.yul\":6902:6914   */\n      swap1\n      pop\n        /* \"#utility.yul\":6860:6920   */\n      swap2\n      swap1\n      pop\n      jump\t// out\n        /* \"#utility.yul\":6926:7068   */\n    tag_161:\n        /* \"#utility.yul\":6976:6985   */\n      0x00\n        /* \"#utility.yul\":7009:7062   */\n      tag_252\n        /* \"#utility.yul\":7027:7061   */\n      tag_253\n        /* \"#utility.yul\":7036:7060   */\n      tag_254\n        /* \"#utility.yul\":7054:7059   */\n      dup5\n        /* \"#utility.yul\":7036:7060   */\n      tag_136\n      jump\t// in\n    tag_254:\n        /* \"#utility.yul\":7027:7061   */\n      tag_160\n      jump\t// in\n    tag_253:\n        /* \"#utility.yul\":7009:7062   */\n      tag_136\n      jump\t// in\n    tag_252:\n        /* \"#utility.yul\":6996:7062   */\n      swap1\n      pop\n        /* \"#utility.yul\":6926:7068   */\n      swap2\n      swap1\n      pop\n      jump\t// out\n        /* \"#utility.yul\":7074:7200   */\n    tag_162:\n        /* \"#utility.yul\":7124:7133   */\n      0x00\n        /* \"#utility.yul\":7157:7194   */\n      tag_256\n        /* \"#utility.yul\":7188:7193   */\n      dup3\n        /* \"#utility.yul\":7157:7194   */\n      tag_161\n      jump\t// in\n    tag_256:\n        /* \"#utility.yul\":7144:7194   */\n      swap1\n      pop\n        /* \"#utility.yul\":7074:7200   */\n      swap2\n      swap1\n      pop\n      jump\t// out\n        /* \"#utility.yul\":7206:7346   */\n    tag_163:\n        /* \"#utility.yul\":7270:7279   */\n      0x00\n        /* \"#utility.yul\":7303:7340   */\n      tag_258\n        /* \"#utility.yul\":7334:7339   */\n      dup3\n        /* \"#utility.yul\":7303:7340   */\n      tag_162\n      jump\t// in\n    tag_258:\n        /* \"#utility.yul\":7290:7340   */\n      swap1\n      pop\n        /* \"#utility.yul\":7206:7346   */\n      swap2\n      swap1\n      pop\n      jump\t// out\n        /* \"#utility.yul\":7352:7511   */\n    tag_164:\n        /* \"#utility.yul\":7453:7504   */\n      tag_260\n        /* \"#utility.yul\":7498:7503   */\n      dup2\n        /* \"#utility.yul\":7453:7504   */\n      tag_163\n      jump\t// in\n    tag_260:\n        /* \"#utility.yul\":7448:7451   */\n      dup3\n        /* \"#utility.yul\":7441:7505   */\n      mstore\n        /* \"#utility.yul\":7352:7511   */\n      pop\n      pop\n      jump\t// out\n        /* \"#utility.yul\":7517:7767   */\n    tag_69:\n        /* \"#utility.yul\":7624:7628   */\n      0x00\n        /* \"#utility.yul\":7662:7664   */\n      0x20\n        /* \"#utility.yul\":7651:7660   */\n      dup3\n        /* \"#utility.yul\":7647:7665   */\n      add\n        /* \"#utility.yul\":7639:7665   */\n      swap1\n      pop\n        /* \"#utility.yul\":7675:7760   */\n      tag_262\n        /* \"#utility.yul\":7757:7758   */\n      0x00\n        /* \"#utility.yul\":7746:7755   */\n      dup4\n        /* \"#utility.yul\":7742:7759   */\n      add\n        /* \"#utility.yul\":7733:7739   */\n      dup5\n        /* \"#utility.yul\":7675:7760   */\n      tag_164\n      jump\t// in\n    tag_262:\n        /* \"#utility.yul\":7517:7767   */\n      swap3\n      swap2\n      pop\n      pop\n      jump\t// out\n        /* \"#utility.yul\":7773:7877   */\n    tag_165:\n        /* \"#utility.yul\":7818:7825   */\n      0x00\n        /* \"#utility.yul\":7847:7871   */\n      tag_264\n        /* \"#utility.yul\":7865:7870   */\n      dup3\n        /* \"#utility.yul\":7847:7871   */\n      tag_136\n      jump\t// in\n    tag_264:\n        /* \"#utility.yul\":7836:7871   */\n      swap1\n      pop\n        /* \"#utility.yul\":7773:7877   */\n      swap2\n      swap1\n      pop\n      jump\t// out\n        /* \"#utility.yul\":7883:8021   */\n    tag_166:\n        /* \"#utility.yul\":7964:7996   */\n      tag_266\n        /* \"#utility.yul\":7990:7995   */\n      dup2\n        /* \"#utility.yul\":7964:7996   */\n      tag_165\n      jump\t// in\n    tag_266:\n        /* \"#utility.yul\":7957:7962   */\n      dup2\n        /* \"#utility.yul\":7954:7997   */\n      eq\n        /* \"#utility.yul\":7944:8015   */\n      tag_267\n      jumpi\n        /* \"#utility.yul\":8011:8012   */\n      0x00\n        /* \"#utility.yul\":8008:8009   */\n      0x00\n        /* \"#utility.yul\":8001:8013   */\n      revert\n        /* \"#utility.yul\":7944:8015   */\n    tag_267:\n        /* \"#utility.yul\":7883:8021   */\n      pop\n      jump\t// out\n        /* \"#utility.yul\":8027:8186   */\n    tag_167:\n        /* \"#utility.yul\":8092:8097   */\n      0x00\n        /* \"#utility.yul\":8123:8129   */\n      dup2\n        /* \"#utility.yul\":8117:8130   */\n      mload\n        /* \"#utility.yul\":8108:8130   */\n      swap1\n      pop\n        /* \"#utility.yul\":8139:8180   */\n      tag_269\n        /* \"#utility.yul\":8174:8179   */\n      dup2\n        /* \"#utility.yul\":8139:8180   */\n      tag_166\n      jump\t// in\n    tag_269:\n        /* \"#utility.yul\":8027:8186   */\n      swap3\n      swap2\n      pop\n      pop\n      jump\t// out\n        /* \"#utility.yul\":8192:8903   */\n    tag_74:\n        /* \"#utility.yul\":8304:8310   */\n      0x00\n        /* \"#utility.yul\":8312:8318   */\n      0x00\n        /* \"#utility.yul\":8320:8326   */\n      0x00\n        /* \"#utility.yul\":8369:8371   */\n      0x60\n        /* \"#utility.yul\":8357:8366   */\n      dup5\n        /* \"#utility.yul\":8348:8355   */\n      dup7\n        /* \"#utility.yul\":8344:8367   */\n      sub\n        /* \"#utility.yul\":8340:8372   */\n      slt\n        /* \"#utility.yul\":8337:8456   */\n      iszero\n      tag_271\n      jumpi\n        /* \"#utility.yul\":8375:8454   */\n      tag_272\n      tag_140\n      jump\t// in\n    tag_272:\n        /* \"#utility.yul\":8337:8456   */\n    tag_271:\n        /* \"#utility.yul\":8495:8496   */\n      0x00\n        /* \"#utility.yul\":8520:8592   */\n      tag_273\n        /* \"#utility.yul\":8584:8591   */\n      dup7\n        /* \"#utility.yul\":8575:8581   */\n      dup3\n        /* \"#utility.yul\":8564:8573   */\n      dup8\n        /* \"#utility.yul\":8560:8582   */\n      add\n        /* \"#utility.yul\":8520:8592   */\n      tag_167\n      jump\t// in\n    tag_273:\n        /* \"#utility.yul\":8510:8592   */\n      swap4\n      pop\n        /* \"#utility.yul\":8466:8602   */\n      pop\n        /* \"#utility.yul\":8641:8643   */\n      0x20\n        /* \"#utility.yul\":8667:8739   */\n      tag_274\n        /* \"#utility.yul\":8731:8738   */\n      dup7\n        /* \"#utility.yul\":8722:8728   */\n      dup3\n        /* \"#utility.yul\":8711:8720   */\n      dup8\n        /* \"#utility.yul\":8707:8729   */\n      add\n        /* \"#utility.yul\":8667:8739   */\n      tag_167\n      jump\t// in\n    tag_274:\n        /* \"#utility.yul\":8657:8739   */\n      swap3\n      pop\n        /* \"#utility.yul\":8612:8749   */\n      pop\n        /* \"#utility.yul\":8788:8790   */\n      0x40\n        /* \"#utility.yul\":8814:8886   */\n      tag_275\n        /* \"#utility.yul\":8878:8885   */\n      dup7\n        /* \"#utility.yul\":8869:8875   */\n      dup3\n        /* \"#utility.yul\":8858:8867   */\n      dup8\n        /* \"#utility.yul\":8854:8876   */\n      add\n        /* \"#utility.yul\":8814:8886   */\n      tag_167\n      jump\t// in\n    tag_275:\n        /* \"#utility.yul\":8804:8886   */\n      swap2\n      pop\n        /* \"#utility.yul\":8759:8896   */\n      pop\n        /* \"#utility.yul\":8192:8903   */\n      swap3\n      pop\n      swap3\n      pop\n      swap3\n      jump\t// out\n        /* \"#utility.yul\":8909:9089   */\n    tag_168:\n        /* \"#utility.yul\":8957:9034   */\n      0x4e487b7100000000000000000000000000000000000000000000000000000000\n        /* \"#utility.yul\":8954:8955   */\n      0x00\n        /* \"#utility.yul\":8947:9035   */\n      mstore\n        /* \"#utility.yul\":9054:9058   */\n      0x11\n        /* \"#utility.yul\":9051:9052   */\n      0x04\n        /* \"#utility.yul\":9044:9059   */\n      mstore\n        /* \"#utility.yul\":9078:9082   */\n      0x24\n        /* \"#utility.yul\":9075:9076   */\n      0x00\n        /* \"#utility.yul\":9068:9083   */\n      revert\n        /* \"#utility.yul\":9095:9286   */\n    tag_79:\n        /* \"#utility.yul\":9135:9138   */\n      0x00\n        /* \"#utility.yul\":9154:9174   */\n      tag_278\n        /* \"#utility.yul\":9172:9173   */\n      dup3\n        /* \"#utility.yul\":9154:9174   */\n      tag_134\n      jump\t// in\n    tag_278:\n        /* \"#utility.yul\":9149:9174   */\n      swap2\n      pop\n        /* \"#utility.yul\":9188:9208   */\n      tag_279\n        /* \"#utility.yul\":9206:9207   */\n      dup4\n        /* \"#utility.yul\":9188:9208   */\n      tag_134\n      jump\t// in\n    tag_279:\n        /* \"#utility.yul\":9183:9208   */\n      swap3\n      pop\n        /* \"#utility.yul\":9231:9232   */\n      dup3\n        /* \"#utility.yul\":9228:9229   */\n      dup3\n        /* \"#utility.yul\":9224:9233   */\n      add\n        /* \"#utility.yul\":9217:9233   */\n      swap1\n      pop\n        /* \"#utility.yul\":9252:9255   */\n      dup1\n        /* \"#utility.yul\":9249:9250   */\n      dup3\n        /* \"#utility.yul\":9246:9256   */\n      gt\n        /* \"#utility.yul\":9243:9279   */\n      iszero\n      tag_280\n      jumpi\n        /* \"#utility.yul\":9259:9277   */\n      tag_281\n      tag_168\n      jump\t// in\n    tag_281:\n        /* \"#utility.yul\":9243:9279   */\n    tag_280:\n        /* \"#utility.yul\":9095:9286   */\n      swap3\n      swap2\n      pop\n      pop\n      jump\t// out\n        /* \"#utility.yul\":9292:9624   */\n    tag_85:\n        /* \"#utility.yul\":9413:9417   */\n      0x00\n        /* \"#utility.yul\":9451:9453   */\n      0x40\n        /* \"#utility.yul\":9440:9449   */\n      dup3\n        /* \"#utility.yul\":9436:9454   */\n      add\n        /* \"#utility.yul\":9428:9454   */\n      swap1\n      pop\n        /* \"#utility.yul\":9464:9535   */\n      tag_283\n        /* \"#utility.yul\":9532:9533   */\n      0x00\n        /* \"#utility.yul\":9521:9530   */\n      dup4\n        /* \"#utility.yul\":9517:9534   */\n      add\n        /* \"#utility.yul\":9508:9514   */\n      dup6\n        /* \"#utility.yul\":9464:9535   */\n      tag_138\n      jump\t// in\n    tag_283:\n        /* \"#utility.yul\":9545:9617   */\n      tag_284\n        /* \"#utility.yul\":9613:9615   */\n      0x20\n        /* \"#utility.yul\":9602:9611   */\n      dup4\n        /* \"#utility.yul\":9598:9616   */\n      add\n        /* \"#utility.yul\":9589:9595   */\n      dup5\n        /* \"#utility.yul\":9545:9617   */\n      tag_135\n      jump\t// in\n    tag_284:\n        /* \"#utility.yul\":9292:9624   */\n      swap4\n      swap3\n      pop\n      pop\n      pop\n      jump\t// out\n        /* \"#utility.yul\":9630:9746   */\n    tag_169:\n        /* \"#utility.yul\":9700:9721   */\n      tag_286\n        /* \"#utility.yul\":9715:9720   */\n      dup2\n        /* \"#utility.yul\":9700:9721   */\n      tag_152\n      jump\t// in\n    tag_286:\n        /* \"#utility.yul\":9693:9698   */\n      dup2\n        /* \"#utility.yul\":9690:9722   */\n      eq\n        /* \"#utility.yul\":9680:9740   */\n      tag_287\n      jumpi\n        /* \"#utility.yul\":9736:9737   */\n      0x00\n        /* \"#utility.yul\":9733:9734   */\n      0x00\n        /* \"#utility.yul\":9726:9738   */\n      revert\n        /* \"#utility.yul\":9680:9740   */\n    tag_287:\n        /* \"#utility.yul\":9630:9746   */\n      pop\n      jump\t// out\n        /* \"#utility.yul\":9752:9889   */\n    tag_170:\n        /* \"#utility.yul\":9806:9811   */\n      0x00\n        /* \"#utility.yul\":9837:9843   */\n      dup2\n        /* \"#utility.yul\":9831:9844   */\n      mload\n        /* \"#utility.yul\":9822:9844   */\n      swap1\n      pop\n        /* \"#utility.yul\":9853:9883   */\n      tag_289\n        /* \"#utility.yul\":9877:9882   */\n      dup2\n        /* \"#utility.yul\":9853:9883   */\n      tag_169\n      jump\t// in\n    tag_289:\n        /* \"#utility.yul\":9752:9889   */\n      swap3\n      swap2\n      pop\n      pop\n      jump\t// out\n        /* \"#utility.yul\":9895:10240   */\n    tag_89:\n        /* \"#utility.yul\":9962:9968   */\n      0x00\n        /* \"#utility.yul\":10011:10013   */\n      0x20\n        /* \"#utility.yul\":9999:10008   */\n      dup3\n        /* \"#utility.yul\":9990:9997   */\n      dup5\n        /* \"#utility.yul\":9986:10009   */\n      sub\n        /* \"#utility.yul\":9982:10014   */\n      slt\n        /* \"#utility.yul\":9979:10098   */\n      iszero\n      tag_291\n      jumpi\n        /* \"#utility.yul\":10017:10096   */\n      tag_292\n      tag_140\n      jump\t// in\n    tag_292:\n        /* \"#utility.yul\":9979:10098   */\n    tag_291:\n        /* \"#utility.yul\":10137:10138   */\n      0x00\n        /* \"#utility.yul\":10162:10223   */\n      tag_293\n        /* \"#utility.yul\":10215:10222   */\n      dup5\n        /* \"#utility.yul\":10206:10212   */\n      dup3\n        /* \"#utility.yul\":10195:10204   */\n      dup6\n        /* \"#utility.yul\":10191:10213   */\n      add\n        /* \"#utility.yul\":10162:10223   */\n      tag_170\n      jump\t// in\n    tag_293:\n        /* \"#utility.yul\":10152:10223   */\n      swap2\n      pop\n        /* \"#utility.yul\":10108:10233   */\n      pop\n        /* \"#utility.yul\":9895:10240   */\n      swap3\n      swap2\n      pop\n      pop\n      jump\t// out\n        /* \"#utility.yul\":10246:10688   */\n    tag_92:\n        /* \"#utility.yul\":10395:10399   */\n      0x00\n        /* \"#utility.yul\":10433:10435   */\n      0x60\n        /* \"#utility.yul\":10422:10431   */\n      dup3\n        /* \"#utility.yul\":10418:10436   */\n      add\n        /* \"#utility.yul\":10410:10436   */\n      swap1\n      pop\n        /* \"#utility.yul\":10446:10517   */\n      tag_295\n        /* \"#utility.yul\":10514:10515   */\n      0x00\n        /* \"#utility.yul\":10503:10512   */\n      dup4\n        /* \"#utility.yul\":10499:10516   */\n      add\n        /* \"#utility.yul\":10490:10496   */\n      dup7\n        /* \"#utility.yul\":10446:10517   */\n      tag_138\n      jump\t// in\n    tag_295:\n        /* \"#utility.yul\":10527:10599   */\n      tag_296\n        /* \"#utility.yul\":10595:10597   */\n      0x20\n        /* \"#utility.yul\":10584:10593   */\n      dup4\n        /* \"#utility.yul\":10580:10598   */\n      add\n        /* \"#utility.yul\":10571:10577   */\n      dup6\n        /* \"#utility.yul\":10527:10599   */\n      tag_135\n      jump\t// in\n    tag_296:\n        /* \"#utility.yul\":10609:10681   */\n      tag_297\n        /* \"#utility.yul\":10677:10679   */\n      0x40\n        /* \"#utility.yul\":10666:10675   */\n      dup4\n        /* \"#utility.yul\":10662:10680   */\n      add\n        /* \"#utility.yul\":10653:10659   */\n      dup5\n        /* \"#utility.yul\":10609:10681   */\n      tag_135\n      jump\t// in\n    tag_297:\n        /* \"#utility.yul\":10246:10688   */\n      swap5\n      swap4\n      pop\n      pop\n      pop\n      pop\n      jump\t// out\n        /* \"#utility.yul\":10694:10888   */\n    tag_106:\n        /* \"#utility.yul\":10734:10738   */\n      0x00\n        /* \"#utility.yul\":10754:10774   */\n      tag_299\n        /* \"#utility.yul\":10772:10773   */\n      dup3\n        /* \"#utility.yul\":10754:10774   */\n      tag_134\n      jump\t// in\n    tag_299:\n        /* \"#utility.yul\":10749:10774   */\n      swap2\n      pop\n        /* \"#utility.yul\":10788:10808   */\n      tag_300\n        /* \"#utility.yul\":10806:10807   */\n      dup4\n        /* \"#utility.yul\":10788:10808   */\n      tag_134\n      jump\t// in\n    tag_300:\n        /* \"#utility.yul\":10783:10808   */\n      swap3\n      pop\n        /* \"#utility.yul\":10832:10833   */\n      dup3\n        /* \"#utility.yul\":10829:10830   */\n      dup3\n        /* \"#utility.yul\":10825:10834   */\n      sub\n        /* \"#utility.yul\":10817:10834   */\n      swap1\n      pop\n        /* \"#utility.yul\":10856:10857   */\n      dup2\n        /* \"#utility.yul\":10850:10854   */\n      dup2\n        /* \"#utility.yul\":10847:10858   */\n      gt\n        /* \"#utility.yul\":10844:10881   */\n      iszero\n      tag_301\n      jumpi\n        /* \"#utility.yul\":10861:10879   */\n      tag_302\n      tag_168\n      jump\t// in\n    tag_302:\n        /* \"#utility.yul\":10844:10881   */\n    tag_301:\n        /* \"#utility.yul\":10694:10888   */\n      swap3\n      swap2\n      pop\n      pop\n      jump\t// out\n        /* \"#utility.yul\":10894:11336   */\n    tag_109:\n        /* \"#utility.yul\":11043:11047   */\n      0x00\n        /* \"#utility.yul\":11081:11083   */\n      0x60\n        /* \"#utility.yul\":11070:11079   */\n      dup3\n        /* \"#utility.yul\":11066:11084   */\n      add\n        /* \"#utility.yul\":11058:11084   */\n      swap1\n      pop\n        /* \"#utility.yul\":11094:11165   */\n      tag_304\n        /* \"#utility.yul\":11162:11163   */\n      0x00\n        /* \"#utility.yul\":11151:11160   */\n      dup4\n        /* \"#utility.yul\":11147:11164   */\n      add\n        /* \"#utility.yul\":11138:11144   */\n      dup7\n        /* \"#utility.yul\":11094:11165   */\n      tag_138\n      jump\t// in\n    tag_304:\n        /* \"#utility.yul\":11175:11247   */\n      tag_305\n        /* \"#utility.yul\":11243:11245   */\n      0x20\n        /* \"#utility.yul\":11232:11241   */\n      dup4\n        /* \"#utility.yul\":11228:11246   */\n      add\n        /* \"#utility.yul\":11219:11225   */\n      dup6\n        /* \"#utility.yul\":11175:11247   */\n      tag_138\n      jump\t// in\n    tag_305:\n        /* \"#utility.yul\":11257:11329   */\n      tag_306\n        /* \"#utility.yul\":11325:11327   */\n      0x40\n        /* \"#utility.yul\":11314:11323   */\n      dup4\n        /* \"#utility.yul\":11310:11328   */\n      add\n        /* \"#utility.yul\":11301:11307   */\n      dup5\n        /* \"#utility.yul\":11257:11329   */\n      tag_138\n      jump\t// in\n    tag_306:\n        /* \"#utility.yul\":10894:11336   */\n      swap5\n      swap4\n      pop\n      pop\n      pop\n      pop\n      jump\t// out\n        /* \"#utility.yul\":11342:11752   */\n    tag_130:\n        /* \"#utility.yul\":11382:11389   */\n      0x00\n        /* \"#utility.yul\":11405:11425   */\n      tag_308\n        /* \"#utility.yul\":11423:11424   */\n      dup3\n        /* \"#utility.yul\":11405:11425   */\n      tag_134\n      jump\t// in\n    tag_308:\n        /* \"#utility.yul\":11400:11425   */\n      swap2\n      pop\n        /* \"#utility.yul\":11439:11459   */\n      tag_309\n        /* \"#utility.yul\":11457:11458   */\n      dup4\n        /* \"#utility.yul\":11439:11459   */\n      tag_134\n      jump\t// in\n    tag_309:\n        /* \"#utility.yul\":11434:11459   */\n      swap3\n      pop\n        /* \"#utility.yul\":11494:11495   */\n      dup3\n        /* \"#utility.yul\":11491:11492   */\n      dup3\n        /* \"#utility.yul\":11487:11496   */\n      mul\n        /* \"#utility.yul\":11516:11546   */\n      tag_310\n        /* \"#utility.yul\":11534:11545   */\n      dup2\n        /* \"#utility.yul\":11516:11546   */\n      tag_134\n      jump\t// in\n    tag_310:\n        /* \"#utility.yul\":11505:11546   */\n      swap2\n      pop\n        /* \"#utility.yul\":11695:11696   */\n      dup3\n        /* \"#utility.yul\":11686:11693   */\n      dup3\n        /* \"#utility.yul\":11682:11697   */\n      div\n        /* \"#utility.yul\":11679:11680   */\n      dup5\n        /* \"#utility.yul\":11676:11698   */\n      eq\n        /* \"#utility.yul\":11656:11657   */\n      dup4\n        /* \"#utility.yul\":11649:11658   */\n      iszero\n        /* \"#utility.yul\":11629:11712   */\n      or\n        /* \"#utility.yul\":11606:11745   */\n      tag_311\n      jumpi\n        /* \"#utility.yul\":11725:11743   */\n      tag_312\n      tag_168\n      jump\t// in\n    tag_312:\n        /* \"#utility.yul\":11606:11745   */\n    tag_311:\n        /* \"#utility.yul\":11390:11752   */\n      pop\n        /* \"#utility.yul\":11342:11752   */\n      swap3\n      swap2\n      pop\n      pop\n      jump\t// out\n        /* \"#utility.yul\":11758:11938   */\n    tag_171:\n        /* \"#utility.yul\":11806:11883   */\n      0x4e487b7100000000000000000000000000000000000000000000000000000000\n        /* \"#utility.yul\":11803:11804   */\n      0x00\n        /* \"#utility.yul\":11796:11884   */\n      mstore\n        /* \"#utility.yul\":11903:11907   */\n      0x12\n        /* \"#utility.yul\":11900:11901   */\n      0x04\n        /* \"#utility.yul\":11893:11908   */\n      mstore\n        /* \"#utility.yul\":11927:11931   */\n      0x24\n        /* \"#utility.yul\":11924:11925   */\n      0x00\n        /* \"#utility.yul\":11917:11932   */\n      revert\n        /* \"#utility.yul\":11944:12129   */\n    tag_132:\n        /* \"#utility.yul\":11984:11985   */\n      0x00\n        /* \"#utility.yul\":12001:12021   */\n      tag_315\n        /* \"#utility.yul\":12019:12020   */\n      dup3\n        /* \"#utility.yul\":12001:12021   */\n      tag_134\n      jump\t// in\n    tag_315:\n        /* \"#utility.yul\":11996:12021   */\n      swap2\n      pop\n        /* \"#utility.yul\":12035:12055   */\n      tag_316\n        /* \"#utility.yul\":12053:12054   */\n      dup4\n        /* \"#utility.yul\":12035:12055   */\n      tag_134\n      jump\t// in\n    tag_316:\n        /* \"#utility.yul\":12030:12055   */\n      swap3\n      pop\n        /* \"#utility.yul\":12074:12075   */\n      dup3\n        /* \"#utility.yul\":12064:12099   */\n      tag_317\n      jumpi\n        /* \"#utility.yul\":12079:12097   */\n      tag_318\n      tag_171\n      jump\t// in\n    tag_318:\n        /* \"#utility.yul\":12064:12099   */\n    tag_317:\n        /* \"#utility.yul\":12121:12122   */\n      dup3\n        /* \"#utility.yul\":12118:12119   */\n      dup3\n        /* \"#utility.yul\":12114:12123   */\n      div\n        /* \"#utility.yul\":12109:12123   */\n      swap1\n      pop\n        /* \"#utility.yul\":11944:12129   */\n      swap3\n      swap2\n      pop\n      pop\n      jump\t// out\n\n    auxdata: 0xa264697066735822122020049d89629c46bed9ab70406b50c260d740220249f8d49f1abfd3ee64d02c4664736f6c634300081d0033\n}\n",
				"bytecode": {
					"linkReferences": {},
					"object": "608060405234801561000f575f5ffd5b50335f73ffffffffffffffffffffffffffffffffffffffff168173ffffffffffffffffffffffffffffffffffffffff1603610081575f6040517f1e4fbdf70000000000000000000000000000000000000000000000000000000081526004016100789190610196565b60405180910390fd5b6100908161009660201b60201c565b506101af565b5f5f5f9054906101000a900473ffffffffffffffffffffffffffffffffffffffff169050815f5f6101000a81548173ffffffffffffffffffffffffffffffffffffffff021916908373ffffffffffffffffffffffffffffffffffffffff1602179055508173ffffffffffffffffffffffffffffffffffffffff168173ffffffffffffffffffffffffffffffffffffffff167f8be0079c531659141344cd1fd0a4f28419497f9722a3daafe3b4186f6b6457e060405160405180910390a35050565b5f73ffffffffffffffffffffffffffffffffffffffff82169050919050565b5f61018082610157565b9050919050565b61019081610176565b82525050565b5f6020820190506101a95f830184610187565b92915050565b610f79806101bc5f395ff3fe608060405234801561000f575f5ffd5b50600436106100e8575f3560e01c806378e979251161008a578063c475dda911610064578063c475dda914610202578063e834a83414610232578063f2fde38b14610250578063fc0c546a1461026c576100e8565b806378e97925146101a85780638da5cb5b146101c6578063a556f846146101e4576100e8565b806338af3eed116100c657806338af3eed14610146578063439fab91146101645780634e71d92d14610194578063715018a61461019e576100e8565b80630fb5a6b4146100ec57806313d033c01461010a5780631a39d8ef14610128575b5f5ffd5b6100f461028a565b60405161010191906108d0565b60405180910390f35b610112610290565b60405161011f91906108d0565b60405180910390f35b610130610296565b60405161013d91906108d0565b60405180910390f35b61014e61029c565b60405161015b9190610928565b60405180910390f35b61017e60048036038101906101799190610a8e565b6102c1565b60405161018b9190610aef565b60405180910390f35b61019c610355565b005b6101a66105b0565b005b6101b06105c3565b6040516101bd91906108d0565b60405180910390f35b6101ce6105c9565b6040516101db9190610928565b60405180910390f35b6101ec6105f0565b6040516101f991906108d0565b60405180910390f35b61021c60048036038101906102179190610b32565b61062b565b6040516102299190610be2565b60405180910390f35b61023a61065a565b60405161024791906108d0565b60405180910390f35b61026a60048036038101906102659190610c02565b610660565b005b6102746106e4565b6040516102819190610c88565b60405180910390f35b60065481565b60055481565b60035481565b60025f9054906101000a900473ffffffffffffffffffffffffffffffffffffffff1681565b5f600160149054906101000a900460ff1615610309576040517f0dc149f000000000000000000000000000000000000000000000000000000000815260040160405180910390fd5b5f5f5f848060200190518101906103209190610cdc565b92509250925061032f81610660565b60018060146101000a81548160ff02191690831515021790555060019350505050919050565b60025f9054906101000a900473ffffffffffffffffffffffffffffffffffffffff1673ffffffffffffffffffffffffffffffffffffffff163373ffffffffffffffffffffffffffffffffffffffff16146103db576040517f361b195400000000000000000000000000000000000000000000000000000000815260040160405180910390fd5b6005546004546103eb9190610d59565b4211610423576040517f392a328700000000000000000000000000000000000000000000000000000000815260040160405180910390fd5b5f61042c6105f0565b90505f8111610467576040517f969bf72800000000000000000000000000000000000000000000000000000000815260040160405180910390fd5b8060075f8282546104789190610d59565b9250508190555060015f9054906101000a900473ffffffffffffffffffffffffffffffffffffffff1673ffffffffffffffffffffffffffffffffffffffff1663a9059cbb60025f9054906101000a900473ffffffffffffffffffffffffffffffffffffffff16836040518363ffffffff1660e01b81526004016104fc929190610d8c565b6020604051808303815f875af1158015610518573d5f5f3e3d5ffd5b505050506040513d601f19601f8201168201806040525081019061053c9190610ddd565b610572576040517f90b8ec1800000000000000000000000000000000000000000000000000000000815260040160405180910390fd5b7f34fcbac0073d7c3d388e51312faf357774904998eeb8fca628b9e6f65ee1cbf73382426040516105a593929190610e08565b60405180910390a150565b6105b8610709565b6105c15f610790565b565b60045481565b5f5f5f9054906101000a900473ffffffffffffffffffffffffffffffffffffffff16905090565b5f6005546004546106019190610d59565b421015610610575f9050610628565b60075461061b610851565b6106259190610e3d565b90505b90565b606083838360405160200161064293929190610e70565b60405160208183030381529060405290509392505050565b60075481565b610668610709565b5f73ffffffffffffffffffffffffffffffffffffffff168173ffffffffffffffffffffffffffffffffffffffff16036106d8575f6040517f1e4fbdf70000000000000000000000000000000000000000000000000000000081526004016106cf9190610928565b60405180910390fd5b6106e181610790565b50565b60015f9054906101000a900473ffffffffffffffffffffffffffffffffffffffff1681565b6107116108b1565b73ffffffffffffffffffffffffffffffffffffffff1661072f6105c9565b73ffffffffffffffffffffffffffffffffffffffff161461078e576107526108b1565b6040517f118cdaa70000000000000000000000000000000000000000000000000000000081526004016107859190610928565b60405180910390fd5b565b5f5f5f9054906101000a900473ffffffffffffffffffffffffffffffffffffffff169050815f5f6101000a81548173ffffffffffffffffffffffffffffffffffffffff021916908373ffffffffffffffffffffffffffffffffffffffff1602179055508173ffffffffffffffffffffffffffffffffffffffff168173ffffffffffffffffffffffffffffffffffffffff167f8be0079c531659141344cd1fd0a4f28419497f9722a3daafe3b4186f6b6457e060405160405180910390a35050565b5f6005546004546108629190610d59565b421015610871575f90506108ae565b5f6005546004546108829190610d59565b4261088d9190610e3d565b9050600654816003546108a09190610ea5565b6108aa9190610f13565b9150505b90565b5f33905090565b5f819050919050565b6108ca816108b8565b82525050565b5f6020820190506108e35f8301846108c1565b92915050565b5f73ffffffffffffffffffffffffffffffffffffffff82169050919050565b5f610912826108e9565b9050919050565b61092281610908565b82525050565b5f60208201905061093b5f830184610919565b92915050565b5f604051905090565b5f5ffd5b5f5ffd5b5f5ffd5b5f5ffd5b5f601f19601f8301169050919050565b7f4e487b71000000000000000000000000000000000000000000000000000000005f52604160045260245ffd5b6109a08261095a565b810181811067ffffffffffffffff821117156109bf576109be61096a565b5b80604052505050565b5f6109d1610941565b90506109dd8282610997565b919050565b5f67ffffffffffffffff8211156109fc576109fb61096a565b5b610a058261095a565b9050602081019050919050565b828183375f83830152505050565b5f610a32610a2d846109e2565b6109c8565b905082815260208101848484011115610a4e57610a4d610956565b5b610a59848285610a12565b509392505050565b5f82601f830112610a7557610a74610952565b5b8135610a85848260208601610a20565b91505092915050565b5f60208284031215610aa357610aa261094a565b5b5f82013567ffffffffffffffff811115610ac057610abf61094e565b5b610acc84828501610a61565b91505092915050565b5f8115159050919050565b610ae981610ad5565b82525050565b5f602082019050610b025f830184610ae0565b92915050565b610b1181610908565b8114610b1b575f5ffd5b50565b5f81359050610b2c81610b08565b92915050565b5f5f5f60608486031215610b4957610b4861094a565b5b5f610b5686828701610b1e565b9350506020610b6786828701610b1e565b9250506040610b7886828701610b1e565b9150509250925092565b5f81519050919050565b5f82825260208201905092915050565b8281835e5f83830152505050565b5f610bb482610b82565b610bbe8185610b8c565b9350610bce818560208601610b9c565b610bd78161095a565b840191505092915050565b5f6020820190508181035f830152610bfa8184610baa565b905092915050565b5f60208284031215610c1757610c1661094a565b5b5f610c2484828501610b1e565b91505092915050565b5f819050919050565b5f610c50610c4b610c46846108e9565b610c2d565b6108e9565b9050919050565b5f610c6182610c36565b9050919050565b5f610c7282610c57565b9050919050565b610c8281610c68565b82525050565b5f602082019050610c9b5f830184610c79565b92915050565b5f610cab826108e9565b9050919050565b610cbb81610ca1565b8114610cc5575f5ffd5b50565b5f81519050610cd681610cb2565b92915050565b5f5f5f60608486031215610cf357610cf261094a565b5b5f610d0086828701610cc8565b9350506020610d1186828701610cc8565b9250506040610d2286828701610cc8565b9150509250925092565b7f4e487b71000000000000000000000000000000000000000000000000000000005f52601160045260245ffd5b5f610d63826108b8565b9150610d6e836108b8565b9250828201905080821115610d8657610d85610d2c565b5b92915050565b5f604082019050610d9f5f830185610919565b610dac60208301846108c1565b9392505050565b610dbc81610ad5565b8114610dc6575f5ffd5b50565b5f81519050610dd781610db3565b92915050565b5f60208284031215610df257610df161094a565b5b5f610dff84828501610dc9565b91505092915050565b5f606082019050610e1b5f830186610919565b610e2860208301856108c1565b610e3560408301846108c1565b949350505050565b5f610e47826108b8565b9150610e52836108b8565b9250828203905081811115610e6a57610e69610d2c565b5b92915050565b5f606082019050610e835f830186610919565b610e906020830185610919565b610e9d6040830184610919565b949350505050565b5f610eaf826108b8565b9150610eba836108b8565b9250828202610ec8816108b8565b91508282048414831517610edf57610ede610d2c565b5b5092915050565b7f4e487b71000000000000000000000000000000000000000000000000000000005f52601260045260245ffd5b5f610f1d826108b8565b9150610f28836108b8565b925082610f3857610f37610ee6565b5b82820490509291505056fea264697066735822122020049d89629c46bed9ab70406b50c260d740220249f8d49f1abfd3ee64d02c4664736f6c634300081d0033",
					"opcodes": "PUSH1 0x80 PUSH1 0x40 MSTORE CALLVALUE DUP1 ISZERO PUSH2 0xF JUMPI PUSH0 PUSH0 REVERT JUMPDEST POP CALLER PUSH0 PUSH20 0xFFFFFFFFFFFFFFFFFFFFFFFFFFFFFFFFFFFFFFFF AND DUP2 PUSH20 0xFFFFFFFFFFFFFFFFFFFFFFFFFFFFFFFFFFFFFFFF AND SUB PUSH2 0x81 JUMPI PUSH0 PUSH1 0x40 MLOAD PUSH32 0x1E4FBDF700000000000000000000000000000000000000000000000000000000 DUP2 MSTORE PUSH1 0x4 ADD PUSH2 0x78 SWAP2 SWAP1 PUSH2 0x196 JUMP JUMPDEST PUSH1 0x40 MLOAD DUP1 SWAP2 SUB SWAP1 REVERT JUMPDEST PUSH2 0x90 DUP2 PUSH2 0x96 PUSH1 0x20 SHL PUSH1 0x20 SHR JUMP JUMPDEST POP PUSH2 0x1AF JUMP JUMPDEST PUSH0 PUSH0 PUSH0 SWAP1 SLOAD SWAP1 PUSH2 0x100 EXP SWAP1 DIV PUSH20 0xFFFFFFFFFFFFFFFFFFFFFFFFFFFFFFFFFFFFFFFF AND SWAP1 POP DUP2 PUSH0 PUSH0 PUSH2 0x100 EXP DUP2 SLOAD DUP2 PUSH20 0xFFFFFFFFFFFFFFFFFFFFFFFFFFFFFFFFFFFFFFFF MUL NOT AND SWAP1 DUP4 PUSH20 0xFFFFFFFFFFFFFFFFFFFFFFFFFFFFFFFFFFFFFFFF AND MUL OR SWAP1 SSTORE POP DUP2 PUSH20 0xFFFFFFFFFFFFFFFFFFFFFFFFFFFFFFFFFFFFFFFF AND DUP2 PUSH20 0xFFFFFFFFFFFFFFFFFFFFFFFFFFFFFFFFFFFFFFFF AND PUSH32 0x8BE0079C531659141344CD1FD0A4F28419497F9722A3DAAFE3B4186F6B6457E0 PUSH1 0x40 MLOAD PUSH1 0x40 MLOAD DUP1 SWAP2 SUB SWAP1 LOG3 POP POP JUMP JUMPDEST PUSH0 PUSH20 0xFFFFFFFFFFFFFFFFFFFFFFFFFFFFFFFFFFFFFFFF DUP3 AND SWAP1 POP SWAP2 SWAP1 POP JUMP JUMPDEST PUSH0 PUSH2 0x180 DUP3 PUSH2 0x157 JUMP JUMPDEST SWAP1 POP SWAP2 SWAP1 POP JUMP JUMPDEST PUSH2 0x190 DUP2 PUSH2 0x176 JUMP JUMPDEST DUP3 MSTORE POP POP JUMP JUMPDEST PUSH0 PUSH1 0x20 DUP3 ADD SWAP1 POP PUSH2 0x1A9 PUSH0 DUP4 ADD DUP5 PUSH2 0x187 JUMP JUMPDEST SWAP3 SWAP2 POP POP JUMP JUMPDEST PUSH2 0xF79 DUP1 PUSH2 0x1BC PUSH0 CODECOPY PUSH0 RETURN INVALID PUSH1 0x80 PUSH1 0x40 MSTORE CALLVALUE DUP1 ISZERO PUSH2 0xF JUMPI PUSH0 PUSH0 REVERT JUMPDEST POP PUSH1 0x4 CALLDATASIZE LT PUSH2 0xE8 JUMPI PUSH0 CALLDATALOAD PUSH1 0xE0 SHR DUP1 PUSH4 0x78E97925 GT PUSH2 0x8A JUMPI DUP1 PUSH4 0xC475DDA9 GT PUSH2 0x64 JUMPI DUP1 PUSH4 0xC475DDA9 EQ PUSH2 0x202 JUMPI DUP1 PUSH4 0xE834A834 EQ PUSH2 0x232 JUMPI DUP1 PUSH4 0xF2FDE38B EQ PUSH2 0x250 JUMPI DUP1 PUSH4 0xFC0C546A EQ PUSH2 0x26C JUMPI PUSH2 0xE8 JUMP JUMPDEST DUP1 PUSH4 0x78E97925 EQ PUSH2 0x1A8 JUMPI DUP1 PUSH4 0x8DA5CB5B EQ PUSH2 0x1C6 JUMPI DUP1 PUSH4 0xA556F846 EQ PUSH2 0x1E4 JUMPI PUSH2 0xE8 JUMP JUMPDEST DUP1 PUSH4 0x38AF3EED GT PUSH2 0xC6 JUMPI DUP1 PUSH4 0x38AF3EED EQ PUSH2 0x146 JUMPI DUP1 PUSH4 0x439FAB91 EQ PUSH2 0x164 JUMPI DUP1 PUSH4 0x4E71D92D EQ PUSH2 0x194 JUMPI DUP1 PUSH4 0x715018A6 EQ PUSH2 0x19E JUMPI PUSH2 0xE8 JUMP JUMPDEST DUP1 PUSH4 0xFB5A6B4 EQ PUSH2 0xEC JUMPI DUP1 PUSH4 0x13D033C0 EQ PUSH2 0x10A JUMPI DUP1 PUSH4 0x1A39D8EF EQ PUSH2 0x128 JUMPI JUMPDEST PUSH0 PUSH0 REVERT JUMPDEST PUSH2 0xF4 PUSH2 0x28A JUMP JUMPDEST PUSH1 0x40 MLOAD PUSH2 0x101 SWAP2 SWAP1 PUSH2 0x8D0 JUMP JUMPDEST PUSH1 0x40 MLOAD DUP1 SWAP2 SUB SWAP1 RETURN JUMPDEST PUSH2 0x112 PUSH2 0x290 JUMP JUMPDEST PUSH1 0x40 MLOAD PUSH2 0x11F SWAP2 SWAP1 PUSH2 0x8D0 JUMP JUMPDEST PUSH1 0x40 MLOAD DUP1 SWAP2 SUB SWAP1 RETURN JUMPDEST PUSH2 0x130 PUSH2 0x296 JUMP JUMPDEST PUSH1 0x40 MLOAD PUSH2 0x13D SWAP2 SWAP1 PUSH2 0x8D0 JUMP JUMPDEST PUSH1 0x40 MLOAD DUP1 SWAP2 SUB SWAP1 RETURN JUMPDEST PUSH2 0x14E PUSH2 0x29C JUMP JUMPDEST PUSH1 0x40 MLOAD PUSH2 0x15B SWAP2 SWAP1 PUSH2 0x928 JUMP JUMPDEST PUSH1 0x40 MLOAD DUP1 SWAP2 SUB SWAP1 RETURN JUMPDEST PUSH2 0x17E PUSH1 0x4 DUP1 CALLDATASIZE SUB DUP2 ADD SWAP1 PUSH2 0x179 SWAP2 SWAP1 PUSH2 0xA8E JUMP JUMPDEST PUSH2 0x2C1 JUMP JUMPDEST PUSH1 0x40 MLOAD PUSH2 0x18B SWAP2 SWAP1 PUSH2 0xAEF JUMP JUMPDEST PUSH1 0x40 MLOAD DUP1 SWAP2 SUB SWAP1 RETURN JUMPDEST PUSH2 0x19C PUSH2 0x355 JUMP JUMPDEST STOP JUMPDEST PUSH2 0x1A6 PUSH2 0x5B0 JUMP JUMPDEST STOP JUMPDEST PUSH2 0x1B0 PUSH2 0x5C3 JUMP JUMPDEST PUSH1 0x40 MLOAD PUSH2 0x1BD SWAP2 SWAP1 PUSH2 0x8D0 JUMP JUMPDEST PUSH1 0x40 MLOAD DUP1 SWAP2 SUB SWAP1 RETURN JUMPDEST PUSH2 0x1CE PUSH2 0x5C9 JUMP JUMPDEST PUSH1 0x40 MLOAD PUSH2 0x1DB SWAP2 SWAP1 PUSH2 0x928 JUMP JUMPDEST PUSH1 0x40 MLOAD DUP1 SWAP2 SUB SWAP1 RETURN JUMPDEST PUSH2 0x1EC PUSH2 0x5F0 JUMP JUMPDEST PUSH1 0x40 MLOAD PUSH2 0x1F9 SWAP2 SWAP1 PUSH2 0x8D0 JUMP JUMPDEST PUSH1 0x40 MLOAD DUP1 SWAP2 SUB SWAP1 RETURN JUMPDEST PUSH2 0x21C PUSH1 0x4 DUP1 CALLDATASIZE SUB DUP2 ADD SWAP1 PUSH2 0x217 SWAP2 SWAP1 PUSH2 0xB32 JUMP JUMPDEST PUSH2 0x62B JUMP JUMPDEST PUSH1 0x40 MLOAD PUSH2 0x229 SWAP2 SWAP1 PUSH2 0xBE2 JUMP JUMPDEST PUSH1 0x40 MLOAD DUP1 SWAP2 SUB SWAP1 RETURN JUMPDEST PUSH2 0x23A PUSH2 0x65A JUMP JUMPDEST PUSH1 0x40 MLOAD PUSH2 0x247 SWAP2 SWAP1 PUSH2 0x8D0 JUMP JUMPDEST PUSH1 0x40 MLOAD DUP1 SWAP2 SUB SWAP1 RETURN JUMPDEST PUSH2 0x26A PUSH1 0x4 DUP1 CALLDATASIZE SUB DUP2 ADD SWAP1 PUSH2 0x265 SWAP2 SWAP1 PUSH2 0xC02 JUMP JUMPDEST PUSH2 0x660 JUMP JUMPDEST STOP JUMPDEST PUSH2 0x274 PUSH2 0x6E4 JUMP JUMPDEST PUSH1 0x40 MLOAD PUSH2 0x281 SWAP2 SWAP1 PUSH2 0xC88 JUMP JUMPDEST PUSH1 0x40 MLOAD DUP1 SWAP2 SUB SWAP1 RETURN JUMPDEST PUSH1 0x6 SLOAD DUP2 JUMP JUMPDEST PUSH1 0x5 SLOAD DUP2 JUMP JUMPDEST PUSH1 0x3 SLOAD DUP2 JUMP JUMPDEST PUSH1 0x2 PUSH0 SWAP1 SLOAD SWAP1 PUSH2 0x100 EXP SWAP1 DIV PUSH20 0xFFFFFFFFFFFFFFFFFFFFFFFFFFFFFFFFFFFFFFFF AND DUP2 JUMP JUMPDEST PUSH0 PUSH1 0x1 PUSH1 0x14 SWAP1 SLOAD SWAP1 PUSH2 0x100 EXP SWAP1 DIV PUSH1 0xFF AND ISZERO PUSH2 0x309 JUMPI PUSH1 0x40 MLOAD PUSH32 0xDC149F000000000000000000000000000000000000000000000000000000000 DUP2 MSTORE PUSH1 0x4 ADD PUSH1 0x40 MLOAD DUP1 SWAP2 SUB SWAP1 REVERT JUMPDEST PUSH0 PUSH0 PUSH0 DUP5 DUP1 PUSH1 0x20 ADD SWAP1 MLOAD DUP2 ADD SWAP1 PUSH2 0x320 SWAP2 SWAP1 PUSH2 0xCDC JUMP JUMPDEST SWAP3 POP SWAP3 POP SWAP3 POP PUSH2 0x32F DUP2 PUSH2 0x660 JUMP JUMPDEST PUSH1 0x1 DUP1 PUSH1 0x14 PUSH2 0x100 EXP DUP2 SLOAD DUP2 PUSH1 0xFF MUL NOT AND SWAP1 DUP4 ISZERO ISZERO MUL OR SWAP1 SSTORE POP PUSH1 0x1 SWAP4 POP POP POP POP SWAP2 SWAP1 POP JUMP JUMPDEST PUSH1 0x2 PUSH0 SWAP1 SLOAD SWAP1 PUSH2 0x100 EXP SWAP1 DIV PUSH20 0xFFFFFFFFFFFFFFFFFFFFFFFFFFFFFFFFFFFFFFFF AND PUSH20 0xFFFFFFFFFFFFFFFFFFFFFFFFFFFFFFFFFFFFFFFF AND CALLER PUSH20 0xFFFFFFFFFFFFFFFFFFFFFFFFFFFFFFFFFFFFFFFF AND EQ PUSH2 0x3DB JUMPI PUSH1 0x40 MLOAD PUSH32 0x361B195400000000000000000000000000000000000000000000000000000000 DUP2 MSTORE PUSH1 0x4 ADD PUSH1 0x40 MLOAD DUP1 SWAP2 SUB SWAP1 REVERT JUMPDEST PUSH1 0x5 SLOAD PUSH1 0x4 SLOAD PUSH2 0x3EB SWAP2 SWAP1 PUSH2 0xD59 JUMP JUMPDEST TIMESTAMP GT PUSH2 0x423 JUMPI PUSH1 0x40 MLOAD PUSH32 0x392A328700000000000000000000000000000000000000000000000000000000 DUP2 MSTORE PUSH1 0x4 ADD PUSH1 0x40 MLOAD DUP1 SWAP2 SUB SWAP1 REVERT JUMPDEST PUSH0 PUSH2 0x42C PUSH2 0x5F0 JUMP JUMPDEST SWAP1 POP PUSH0 DUP2 GT PUSH2 0x467 JUMPI PUSH1 0x40 MLOAD PUSH32 0x969BF72800000000000000000000000000000000000000000000000000000000 DUP2 MSTORE PUSH1 0x4 ADD PUSH1 0x40 MLOAD DUP1 SWAP2 SUB SWAP1 REVERT JUMPDEST DUP1 PUSH1 0x7 PUSH0 DUP3 DUP3 SLOAD PUSH2 0x478 SWAP2 SWAP1 PUSH2 0xD59 JUMP JUMPDEST SWAP3 POP POP DUP2 SWAP1 SSTORE POP PUSH1 0x1 PUSH0 SWAP1 SLOAD SWAP1 PUSH2 0x100 EXP SWAP1 DIV PUSH20 0xFFFFFFFFFFFFFFFFFFFFFFFFFFFFFFFFFFFFFFFF AND PUSH20 0xFFFFFFFFFFFFFFFFFFFFFFFFFFFFFFFFFFFFFFFF AND PUSH4 0xA9059CBB PUSH1 0x2 PUSH0 SWAP1 SLOAD SWAP1 PUSH2 0x100 EXP SWAP1 DIV PUSH20 0xFFFFFFFFFFFFFFFFFFFFFFFFFFFFFFFFFFFFFFFF AND DUP4 PUSH1 0x40 MLOAD DUP4 PUSH4 0xFFFFFFFF AND PUSH1 0xE0 SHL DUP2 MSTORE PUSH1 0x4 ADD PUSH2 0x4FC SWAP3 SWAP2 SWAP1 PUSH2 0xD8C JUMP JUMPDEST PUSH1 0x20 PUSH1 0x40 MLOAD DUP1 DUP4 SUB DUP2 PUSH0 DUP8 GAS CALL ISZERO DUP1 ISZERO PUSH2 0x518 JUMPI RETURNDATASIZE PUSH0 PUSH0 RETURNDATACOPY RETURNDATASIZE PUSH0 REVERT JUMPDEST POP POP POP POP PUSH1 0x40 MLOAD RETURNDATASIZE PUSH1 0x1F NOT PUSH1 0x1F DUP3 ADD AND DUP3 ADD DUP1 PUSH1 0x40 MSTORE POP DUP2 ADD SWAP1 PUSH2 0x53C SWAP2 SWAP1 PUSH2 0xDDD JUMP JUMPDEST PUSH2 0x572 JUMPI PUSH1 0x40 MLOAD PUSH32 0x90B8EC1800000000000000000000000000000000000000000000000000000000 DUP2 MSTORE PUSH1 0x4 ADD PUSH1 0x40 MLOAD DUP1 SWAP2 SUB SWAP1 REVERT JUMPDEST PUSH32 0x34FCBAC0073D7C3D388E51312FAF357774904998EEB8FCA628B9E6F65EE1CBF7 CALLER DUP3 TIMESTAMP PUSH1 0x40 MLOAD PUSH2 0x5A5 SWAP4 SWAP3 SWAP2 SWAP1 PUSH2 0xE08 JUMP JUMPDEST PUSH1 0x40 MLOAD DUP1 SWAP2 SUB SWAP1 LOG1 POP JUMP JUMPDEST PUSH2 0x5B8 PUSH2 0x709 JUMP JUMPDEST PUSH2 0x5C1 PUSH0 PUSH2 0x790 JUMP JUMPDEST JUMP JUMPDEST PUSH1 0x4 SLOAD DUP2 JUMP JUMPDEST PUSH0 PUSH0 PUSH0 SWAP1 SLOAD SWAP1 PUSH2 0x100 EXP SWAP1 DIV PUSH20 0xFFFFFFFFFFFFFFFFFFFFFFFFFFFFFFFFFFFFFFFF AND SWAP1 POP SWAP1 JUMP JUMPDEST PUSH0 PUSH1 0x5 SLOAD PUSH1 0x4 SLOAD PUSH2 0x601 SWAP2 SWAP1 PUSH2 0xD59 JUMP JUMPDEST TIMESTAMP LT ISZERO PUSH2 0x610 JUMPI PUSH0 SWAP1 POP PUSH2 0x628 JUMP JUMPDEST PUSH1 0x7 SLOAD PUSH2 0x61B PUSH2 0x851 JUMP JUMPDEST PUSH2 0x625 SWAP2 SWAP1 PUSH2 0xE3D JUMP JUMPDEST SWAP1 POP JUMPDEST SWAP1 JUMP JUMPDEST PUSH1 0x60 DUP4 DUP4 DUP4 PUSH1 0x40 MLOAD PUSH1 0x20 ADD PUSH2 0x642 SWAP4 SWAP3 SWAP2 SWAP1 PUSH2 0xE70 JUMP JUMPDEST PUSH1 0x40 MLOAD PUSH1 0x20 DUP2 DUP4 SUB SUB DUP2 MSTORE SWAP1 PUSH1 0x40 MSTORE SWAP1 POP SWAP4 SWAP3 POP POP POP JUMP JUMPDEST PUSH1 0x7 SLOAD DUP2 JUMP JUMPDEST PUSH2 0x668 PUSH2 0x709 JUMP JUMPDEST PUSH0 PUSH20 0xFFFFFFFFFFFFFFFFFFFFFFFFFFFFFFFFFFFFFFFF AND DUP2 PUSH20 0xFFFFFFFFFFFFFFFFFFFFFFFFFFFFFFFFFFFFFFFF AND SUB PUSH2 0x6D8 JUMPI PUSH0 PUSH1 0x40 MLOAD PUSH32 0x1E4FBDF700000000000000000000000000000000000000000000000000000000 DUP2 MSTORE PUSH1 0x4 ADD PUSH2 0x6CF SWAP2 SWAP1 PUSH2 0x928 JUMP JUMPDEST PUSH1 0x40 MLOAD DUP1 SWAP2 SUB SWAP1 REVERT JUMPDEST PUSH2 0x6E1 DUP2 PUSH2 0x790 JUMP JUMPDEST POP JUMP JUMPDEST PUSH1 0x1 PUSH0 SWAP1 SLOAD SWAP1 PUSH2 0x100 EXP SWAP1 DIV PUSH20 0xFFFFFFFFFFFFFFFFFFFFFFFFFFFFFFFFFFFFFFFF AND DUP2 JUMP JUMPDEST PUSH2 0x711 PUSH2 0x8B1 JUMP JUMPDEST PUSH20 0xFFFFFFFFFFFFFFFFFFFFFFFFFFFFFFFFFFFFFFFF AND PUSH2 0x72F PUSH2 0x5C9 JUMP JUMPDEST PUSH20 0xFFFFFFFFFFFFFFFFFFFFFFFFFFFFFFFFFFFFFFFF AND EQ PUSH2 0x78E JUMPI PUSH2 0x752 PUSH2 0x8B1 JUMP JUMPDEST PUSH1 0x40 MLOAD PUSH32 0x118CDAA700000000000000000000000000000000000000000000000000000000 DUP2 MSTORE PUSH1 0x4 ADD PUSH2 0x785 SWAP2 SWAP1 PUSH2 0x928 JUMP JUMPDEST PUSH1 0x40 MLOAD DUP1 SWAP2 SUB SWAP1 REVERT JUMPDEST JUMP JUMPDEST PUSH0 PUSH0 PUSH0 SWAP1 SLOAD SWAP1 PUSH2 0x100 EXP SWAP1 DIV PUSH20 0xFFFFFFFFFFFFFFFFFFFFFFFFFFFFFFFFFFFFFFFF AND SWAP1 POP DUP2 PUSH0 PUSH0 PUSH2 0x100 EXP DUP2 SLOAD DUP2 PUSH20 0xFFFFFFFFFFFFFFFFFFFFFFFFFFFFFFFFFFFFFFFF MUL NOT AND SWAP1 DUP4 PUSH20 0xFFFFFFFFFFFFFFFFFFFFFFFFFFFFFFFFFFFFFFFF AND MUL OR SWAP1 SSTORE POP DUP2 PUSH20 0xFFFFFFFFFFFFFFFFFFFFFFFFFFFFFFFFFFFFFFFF AND DUP2 PUSH20 0xFFFFFFFFFFFFFFFFFFFFFFFFFFFFFFFFFFFFFFFF AND PUSH32 0x8BE0079C531659141344CD1FD0A4F28419497F9722A3DAAFE3B4186F6B6457E0 PUSH1 0x40 MLOAD PUSH1 0x40 MLOAD DUP1 SWAP2 SUB SWAP1 LOG3 POP POP JUMP JUMPDEST PUSH0 PUSH1 0x5 SLOAD PUSH1 0x4 SLOAD PUSH2 0x862 SWAP2 SWAP1 PUSH2 0xD59 JUMP JUMPDEST TIMESTAMP LT ISZERO PUSH2 0x871 JUMPI PUSH0 SWAP1 POP PUSH2 0x8AE JUMP JUMPDEST PUSH0 PUSH1 0x5 SLOAD PUSH1 0x4 SLOAD PUSH2 0x882 SWAP2 SWAP1 PUSH2 0xD59 JUMP JUMPDEST TIMESTAMP PUSH2 0x88D SWAP2 SWAP1 PUSH2 0xE3D JUMP JUMPDEST SWAP1 POP PUSH1 0x6 SLOAD DUP2 PUSH1 0x3 SLOAD PUSH2 0x8A0 SWAP2 SWAP1 PUSH2 0xEA5 JUMP JUMPDEST PUSH2 0x8AA SWAP2 SWAP1 PUSH2 0xF13 JUMP JUMPDEST SWAP2 POP POP JUMPDEST SWAP1 JUMP JUMPDEST PUSH0 CALLER SWAP1 POP SWAP1 JUMP JUMPDEST PUSH0 DUP2 SWAP1 POP SWAP2 SWAP1 POP JUMP JUMPDEST PUSH2 0x8CA DUP2 PUSH2 0x8B8 JUMP JUMPDEST DUP3 MSTORE POP POP JUMP JUMPDEST PUSH0 PUSH1 0x20 DUP3 ADD SWAP1 POP PUSH2 0x8E3 PUSH0 DUP4 ADD DUP5 PUSH2 0x8C1 JUMP JUMPDEST SWAP3 SWAP2 POP POP JUMP JUMPDEST PUSH0 PUSH20 0xFFFFFFFFFFFFFFFFFFFFFFFFFFFFFFFFFFFFFFFF DUP3 AND SWAP1 POP SWAP2 SWAP1 POP JUMP JUMPDEST PUSH0 PUSH2 0x912 DUP3 PUSH2 0x8E9 JUMP JUMPDEST SWAP1 POP SWAP2 SWAP1 POP JUMP JUMPDEST PUSH2 0x922 DUP2 PUSH2 0x908 JUMP JUMPDEST DUP3 MSTORE POP POP JUMP JUMPDEST PUSH0 PUSH1 0x20 DUP3 ADD SWAP1 POP PUSH2 0x93B PUSH0 DUP4 ADD DUP5 PUSH2 0x919 JUMP JUMPDEST SWAP3 SWAP2 POP POP JUMP JUMPDEST PUSH0 PUSH1 0x40 MLOAD SWAP1 POP SWAP1 JUMP JUMPDEST PUSH0 PUSH0 REVERT JUMPDEST PUSH0 PUSH0 REVERT JUMPDEST PUSH0 PUSH0 REVERT JUMPDEST PUSH0 PUSH0 REVERT JUMPDEST PUSH0 PUSH1 0x1F NOT PUSH1 0x1F DUP4 ADD AND SWAP1 POP SWAP2 SWAP1 POP JUMP JUMPDEST PUSH32 0x4E487B7100000000000000000000000000000000000000000000000000000000 PUSH0 MSTORE PUSH1 0x41 PUSH1 0x4 MSTORE PUSH1 0x24 PUSH0 REVERT JUMPDEST PUSH2 0x9A0 DUP3 PUSH2 0x95A JUMP JUMPDEST DUP2 ADD DUP2 DUP2 LT PUSH8 0xFFFFFFFFFFFFFFFF DUP3 GT OR ISZERO PUSH2 0x9BF JUMPI PUSH2 0x9BE PUSH2 0x96A JUMP JUMPDEST JUMPDEST DUP1 PUSH1 0x40 MSTORE POP POP POP JUMP JUMPDEST PUSH0 PUSH2 0x9D1 PUSH2 0x941 JUMP JUMPDEST SWAP1 POP PUSH2 0x9DD DUP3 DUP3 PUSH2 0x997 JUMP JUMPDEST SWAP2 SWAP1 POP JUMP JUMPDEST PUSH0 PUSH8 0xFFFFFFFFFFFFFFFF DUP3 GT ISZERO PUSH2 0x9FC JUMPI PUSH2 0x9FB PUSH2 0x96A JUMP JUMPDEST JUMPDEST PUSH2 0xA05 DUP3 PUSH2 0x95A JUMP JUMPDEST SWAP1 POP PUSH1 0x20 DUP2 ADD SWAP1 POP SWAP2 SWAP1 POP JUMP JUMPDEST DUP3 DUP2 DUP4 CALLDATACOPY PUSH0 DUP4 DUP4 ADD MSTORE POP POP POP JUMP JUMPDEST PUSH0 PUSH2 0xA32 PUSH2 0xA2D DUP5 PUSH2 0x9E2 JUMP JUMPDEST PUSH2 0x9C8 JUMP JUMPDEST SWAP1 POP DUP3 DUP2 MSTORE PUSH1 0x20 DUP2 ADD DUP5 DUP5 DUP5 ADD GT ISZERO PUSH2 0xA4E JUMPI PUSH2 0xA4D PUSH2 0x956 JUMP JUMPDEST JUMPDEST PUSH2 0xA59 DUP5 DUP3 DUP6 PUSH2 0xA12 JUMP JUMPDEST POP SWAP4 SWAP3 POP POP POP JUMP JUMPDEST PUSH0 DUP3 PUSH1 0x1F DUP4 ADD SLT PUSH2 0xA75 JUMPI PUSH2 0xA74 PUSH2 0x952 JUMP JUMPDEST JUMPDEST DUP2 CALLDATALOAD PUSH2 0xA85 DUP5 DUP3 PUSH1 0x20 DUP7 ADD PUSH2 0xA20 JUMP JUMPDEST SWAP2 POP POP SWAP3 SWAP2 POP POP JUMP JUMPDEST PUSH0 PUSH1 0x20 DUP3 DUP5 SUB SLT ISZERO PUSH2 0xAA3 JUMPI PUSH2 0xAA2 PUSH2 0x94A JUMP JUMPDEST JUMPDEST PUSH0 DUP3 ADD CALLDATALOAD PUSH8 0xFFFFFFFFFFFFFFFF DUP2 GT ISZERO PUSH2 0xAC0 JUMPI PUSH2 0xABF PUSH2 0x94E JUMP JUMPDEST JUMPDEST PUSH2 0xACC DUP5 DUP3 DUP6 ADD PUSH2 0xA61 JUMP JUMPDEST SWAP2 POP POP SWAP3 SWAP2 POP POP JUMP JUMPDEST PUSH0 DUP2 ISZERO ISZERO SWAP1 POP SWAP2 SWAP1 POP JUMP JUMPDEST PUSH2 0xAE9 DUP2 PUSH2 0xAD5 JUMP JUMPDEST DUP3 MSTORE POP POP JUMP JUMPDEST PUSH0 PUSH1 0x20 DUP3 ADD SWAP1 POP PUSH2 0xB02 PUSH0 DUP4 ADD DUP5 PUSH2 0xAE0 JUMP JUMPDEST SWAP3 SWAP2 POP POP JUMP JUMPDEST PUSH2 0xB11 DUP2 PUSH2 0x908 JUMP JUMPDEST DUP2 EQ PUSH2 0xB1B JUMPI PUSH0 PUSH0 REVERT JUMPDEST POP JUMP JUMPDEST PUSH0 DUP2 CALLDATALOAD SWAP1 POP PUSH2 0xB2C DUP2 PUSH2 0xB08 JUMP JUMPDEST SWAP3 SWAP2 POP POP JUMP JUMPDEST PUSH0 PUSH0 PUSH0 PUSH1 0x60 DUP5 DUP7 SUB SLT ISZERO PUSH2 0xB49 JUMPI PUSH2 0xB48 PUSH2 0x94A JUMP JUMPDEST JUMPDEST PUSH0 PUSH2 0xB56 DUP7 DUP3 DUP8 ADD PUSH2 0xB1E JUMP JUMPDEST SWAP4 POP POP PUSH1 0x20 PUSH2 0xB67 DUP7 DUP3 DUP8 ADD PUSH2 0xB1E JUMP JUMPDEST SWAP3 POP POP PUSH1 0x40 PUSH2 0xB78 DUP7 DUP3 DUP8 ADD PUSH2 0xB1E JUMP JUMPDEST SWAP2 POP POP SWAP3 POP SWAP3 POP SWAP3 JUMP JUMPDEST PUSH0 DUP2 MLOAD SWAP1 POP SWAP2 SWAP1 POP JUMP JUMPDEST PUSH0 DUP3 DUP3 MSTORE PUSH1 0x20 DUP3 ADD SWAP1 POP SWAP3 SWAP2 POP POP JUMP JUMPDEST DUP3 DUP2 DUP4 MCOPY PUSH0 DUP4 DUP4 ADD MSTORE POP POP POP JUMP JUMPDEST PUSH0 PUSH2 0xBB4 DUP3 PUSH2 0xB82 JUMP JUMPDEST PUSH2 0xBBE DUP2 DUP6 PUSH2 0xB8C JUMP JUMPDEST SWAP4 POP PUSH2 0xBCE DUP2 DUP6 PUSH1 0x20 DUP7 ADD PUSH2 0xB9C JUMP JUMPDEST PUSH2 0xBD7 DUP2 PUSH2 0x95A JUMP JUMPDEST DUP5 ADD SWAP2 POP POP SWAP3 SWAP2 POP POP JUMP JUMPDEST PUSH0 PUSH1 0x20 DUP3 ADD SWAP1 POP DUP2 DUP2 SUB PUSH0 DUP4 ADD MSTORE PUSH2 0xBFA DUP2 DUP5 PUSH2 0xBAA JUMP JUMPDEST SWAP1 POP SWAP3 SWAP2 POP POP JUMP JUMPDEST PUSH0 PUSH1 0x20 DUP3 DUP5 SUB SLT ISZERO PUSH2 0xC17 JUMPI PUSH2 0xC16 PUSH2 0x94A JUMP JUMPDEST JUMPDEST PUSH0 PUSH2 0xC24 DUP5 DUP3 DUP6 ADD PUSH2 0xB1E JUMP JUMPDEST SWAP2 POP POP SWAP3 SWAP2 POP POP JUMP JUMPDEST PUSH0 DUP2 SWAP1 POP SWAP2 SWAP1 POP JUMP JUMPDEST PUSH0 PUSH2 0xC50 PUSH2 0xC4B PUSH2 0xC46 DUP5 PUSH2 0x8E9 JUMP JUMPDEST PUSH2 0xC2D JUMP JUMPDEST PUSH2 0x8E9 JUMP JUMPDEST SWAP1 POP SWAP2 SWAP1 POP JUMP JUMPDEST PUSH0 PUSH2 0xC61 DUP3 PUSH2 0xC36 JUMP JUMPDEST SWAP1 POP SWAP2 SWAP1 POP JUMP JUMPDEST PUSH0 PUSH2 0xC72 DUP3 PUSH2 0xC57 JUMP JUMPDEST SWAP1 POP SWAP2 SWAP1 POP JUMP JUMPDEST PUSH2 0xC82 DUP2 PUSH2 0xC68 JUMP JUMPDEST DUP3 MSTORE POP POP JUMP JUMPDEST PUSH0 PUSH1 0x20 DUP3 ADD SWAP1 POP PUSH2 0xC9B PUSH0 DUP4 ADD DUP5 PUSH2 0xC79 JUMP JUMPDEST SWAP3 SWAP2 POP POP JUMP JUMPDEST PUSH0 PUSH2 0xCAB DUP3 PUSH2 0x8E9 JUMP JUMPDEST SWAP1 POP SWAP2 SWAP1 POP JUMP JUMPDEST PUSH2 0xCBB DUP2 PUSH2 0xCA1 JUMP JUMPDEST DUP2 EQ PUSH2 0xCC5 JUMPI PUSH0 PUSH0 REVERT JUMPDEST POP JUMP JUMPDEST PUSH0 DUP2 MLOAD SWAP1 POP PUSH2 0xCD6 DUP2 PUSH2 0xCB2 JUMP JUMPDEST SWAP3 SWAP2 POP POP JUMP JUMPDEST PUSH0 PUSH0 PUSH0 PUSH1 0x60 DUP5 DUP7 SUB SLT ISZERO PUSH2 0xCF3 JUMPI PUSH2 0xCF2 PUSH2 0x94A JUMP JUMPDEST JUMPDEST PUSH0 PUSH2 0xD00 DUP7 DUP3 DUP8 ADD PUSH2 0xCC8 JUMP JUMPDEST SWAP4 POP POP PUSH1 0x20 PUSH2 0xD11 DUP7 DUP3 DUP8 ADD PUSH2 0xCC8 JUMP JUMPDEST SWAP3 POP POP PUSH1 0x40 PUSH2 0xD22 DUP7 DUP3 DUP8 ADD PUSH2 0xCC8 JUMP JUMPDEST SWAP2 POP POP SWAP3 POP SWAP3 POP SWAP3 JUMP JUMPDEST PUSH32 0x4E487B7100000000000000000000000000000000000000000000000000000000 PUSH0 MSTORE PUSH1 0x11 PUSH1 0x4 MSTORE PUSH1 0x24 PUSH0 REVERT JUMPDEST PUSH0 PUSH2 0xD63 DUP3 PUSH2 0x8B8 JUMP JUMPDEST SWAP2 POP PUSH2 0xD6E DUP4 PUSH2 0x8B8 JUMP JUMPDEST SWAP3 POP DUP3 DUP3 ADD SWAP1 POP DUP1 DUP3 GT ISZERO PUSH2 0xD86 JUMPI PUSH2 0xD85 PUSH2 0xD2C JUMP JUMPDEST JUMPDEST SWAP3 SWAP2 POP POP JUMP JUMPDEST PUSH0 PUSH1 0x40 DUP3 ADD SWAP1 POP PUSH2 0xD9F PUSH0 DUP4 ADD DUP6 PUSH2 0x919 JUMP JUMPDEST PUSH2 0xDAC PUSH1 0x20 DUP4 ADD DUP5 PUSH2 0x8C1 JUMP JUMPDEST SWAP4 SWAP3 POP POP POP JUMP JUMPDEST PUSH2 0xDBC DUP2 PUSH2 0xAD5 JUMP JUMPDEST DUP2 EQ PUSH2 0xDC6 JUMPI PUSH0 PUSH0 REVERT JUMPDEST POP JUMP JUMPDEST PUSH0 DUP2 MLOAD SWAP1 POP PUSH2 0xDD7 DUP2 PUSH2 0xDB3 JUMP JUMPDEST SWAP3 SWAP2 POP POP JUMP JUMPDEST PUSH0 PUSH1 0x20 DUP3 DUP5 SUB SLT ISZERO PUSH2 0xDF2 JUMPI PUSH2 0xDF1 PUSH2 0x94A JUMP JUMPDEST JUMPDEST PUSH0 PUSH2 0xDFF DUP5 DUP3 DUP6 ADD PUSH2 0xDC9 JUMP JUMPDEST SWAP2 POP POP SWAP3 SWAP2 POP POP JUMP JUMPDEST PUSH0 PUSH1 0x60 DUP3 ADD SWAP1 POP PUSH2 0xE1B PUSH0 DUP4 ADD DUP7 PUSH2 0x919 JUMP JUMPDEST PUSH2 0xE28 PUSH1 0x20 DUP4 ADD DUP6 PUSH2 0x8C1 JUMP JUMPDEST PUSH2 0xE35 PUSH1 0x40 DUP4 ADD DUP5 PUSH2 0x8C1 JUMP JUMPDEST SWAP5 SWAP4 POP POP POP POP JUMP JUMPDEST PUSH0 PUSH2 0xE47 DUP3 PUSH2 0x8B8 JUMP JUMPDEST SWAP2 POP PUSH2 0xE52 DUP4 PUSH2 0x8B8 JUMP JUMPDEST SWAP3 POP DUP3 DUP3 SUB SWAP1 POP DUP2 DUP2 GT ISZERO PUSH2 0xE6A JUMPI PUSH2 0xE69 PUSH2 0xD2C JUMP JUMPDEST JUMPDEST SWAP3 SWAP2 POP POP JUMP JUMPDEST PUSH0 PUSH1 0x60 DUP3 ADD SWAP1 POP PUSH2 0xE83 PUSH0 DUP4 ADD DUP7 PUSH2 0x919 JUMP JUMPDEST PUSH2 0xE90 PUSH1 0x20 DUP4 ADD DUP6 PUSH2 0x919 JUMP JUMPDEST PUSH2 0xE9D PUSH1 0x40 DUP4 ADD DUP5 PUSH2 0x919 JUMP JUMPDEST SWAP5 SWAP4 POP POP POP POP JUMP JUMPDEST PUSH0 PUSH2 0xEAF DUP3 PUSH2 0x8B8 JUMP JUMPDEST SWAP2 POP PUSH2 0xEBA DUP4 PUSH2 0x8B8 JUMP JUMPDEST SWAP3 POP DUP3 DUP3 MUL PUSH2 0xEC8 DUP2 PUSH2 0x8B8 JUMP JUMPDEST SWAP2 POP DUP3 DUP3 DIV DUP5 EQ DUP4 ISZERO OR PUSH2 0xEDF JUMPI PUSH2 0xEDE PUSH2 0xD2C JUMP JUMPDEST JUMPDEST POP SWAP3 SWAP2 POP POP JUMP JUMPDEST PUSH32 0x4E487B7100000000000000000000000000000000000000000000000000000000 PUSH0 MSTORE PUSH1 0x12 PUSH1 0x4 MSTORE PUSH1 0x24 PUSH0 REVERT JUMPDEST PUSH0 PUSH2 0xF1D DUP3 PUSH2 0x8B8 JUMP JUMPDEST SWAP2 POP PUSH2 0xF28 DUP4 PUSH2 0x8B8 JUMP JUMPDEST SWAP3 POP DUP3 PUSH2 0xF38 JUMPI PUSH2 0xF37 PUSH2 0xEE6 JUMP JUMPDEST JUMPDEST DUP3 DUP3 DIV SWAP1 POP SWAP3 SWAP2 POP POP JUMP INVALID LOG2 PUSH5 0x6970667358 0x22 SLT KECCAK256 KECCAK256 DIV SWAP14 DUP10 PUSH3 0x9C46BE 0xD9 0xAB PUSH17 0x406B50C260D740220249F8D49F1ABFD3EE PUSH5 0xD02C466473 PUSH16 0x6C634300081D00330000000000000000 "
				},
				"gasEstimates": {
					"creation": {
						"codeDepositCost": "792200",
						"executionCost": "infinite",
						"totalCost": "infinite"
					},
					"external": {
						"beneficiary()": "2531",
						"claim()": "infinite",
						"claimableAmount()": "infinite",
						"claimed()": "2469",
						"cliff()": "2471",
						"duration()": "2449",
						"getInitData(address,address,address)": "infinite",
						"initialize(bytes)": "infinite",
						"owner()": "2559",
						"renounceOwnership()": "infinite",
						"startTime()": "2448",
						"token()": "infinite",
						"totalAmount()": "2493",
						"transferOwnership(address)": "infinite"
					},
					"internal": {
						"vestedAmount()": "infinite"
					}
				},
				"methodIdentifiers": {
					"beneficiary()": "38af3eed",
					"claim()": "4e71d92d",
					"claimableAmount()": "a556f846",
					"claimed()": "e834a834",
					"cliff()": "13d033c0",
					"duration()": "0fb5a6b4",
					"getInitData(address,address,address)": "c475dda9",
					"initialize(bytes)": "439fab91",
					"owner()": "8da5cb5b",
					"renounceOwnership()": "715018a6",
					"startTime()": "78e97925",
					"token()": "fc0c546a",
					"totalAmount()": "1a39d8ef",
					"transferOwnership(address)": "f2fde38b"
				}
			},
			"storageLayout": {
				"storage": [
					{
						"astId": 8,
						"contract": "contracts/LiniarVesting/vesting.sol:Vesting",
						"label": "_owner",
						"offset": 0,
						"slot": "0",
						"type": "t_address"
					},
					{
						"astId": 285,
						"contract": "contracts/LiniarVesting/vesting.sol:Vesting",
						"label": "token",
						"offset": 0,
						"slot": "1",
						"type": "t_contract(IERC20)225"
					},
					{
						"astId": 287,
						"contract": "contracts/LiniarVesting/vesting.sol:Vesting",
						"label": "initialized",
						"offset": 20,
						"slot": "1",
						"type": "t_bool"
					},
					{
						"astId": 289,
						"contract": "contracts/LiniarVesting/vesting.sol:Vesting",
						"label": "beneficiary",
						"offset": 0,
						"slot": "2",
						"type": "t_address"
					},
					{
						"astId": 291,
						"contract": "contracts/LiniarVesting/vesting.sol:Vesting",
						"label": "totalAmount",
						"offset": 0,
						"slot": "3",
						"type": "t_uint256"
					},
					{
						"astId": 293,
						"contract": "contracts/LiniarVesting/vesting.sol:Vesting",
						"label": "startTime",
						"offset": 0,
						"slot": "4",
						"type": "t_uint256"
					},
					{
						"astId": 295,
						"contract": "contracts/LiniarVesting/vesting.sol:Vesting",
						"label": "cliff",
						"offset": 0,
						"slot": "5",
						"type": "t_uint256"
					},
					{
						"astId": 297,
						"contract": "contracts/LiniarVesting/vesting.sol:Vesting",
						"label": "duration",
						"offset": 0,
						"slot": "6",
						"type": "t_uint256"
					},
					{
						"astId": 299,
						"contract": "contracts/LiniarVesting/vesting.sol:Vesting",
						"label": "claimed",
						"offset": 0,
						"slot": "7",
						"type": "t_uint256"
					}
				],
				"types": {
					"t_address": {
						"encoding": "inplace",
						"label": "address",
						"numberOfBytes": "20"
					},
					"t_bool": {
						"encoding": "inplace",
						"label": "bool",
						"numberOfBytes": "1"
					},
					"t_contract(IERC20)225": {
						"encoding": "inplace",
						"label": "contract IERC20",
						"numberOfBytes": "20"
					},
					"t_uint256": {
						"encoding": "inplace",
						"label": "uint256",
						"numberOfBytes": "32"
					}
				}
			},
			"userdoc": {
				"kind": "user",
				"methods": {},
				"version": 1
			}
		}
	}
}