{
	"contracts/ERC721Airdroper/ERC721Airdroper.sol": {
		"ERC721Airdroper": {
			"abi": [
				{
					"inputs": [],
					"stateMutability": "nonpayable",
					"type": "constructor"
				},
				{
					"inputs": [],
					"name": "AlreadyInitialized",
					"type": "error"
				},
				{
					"inputs": [],
					"name": "ArraysLengthMismatch",
					"type": "error"
				},
				{
					"inputs": [],
					"name": "NeedToApproveTokens",
					"type": "error"
				},
				{
					"inputs": [
						{
							"internalType": "address",
							"name": "owner",
							"type": "address"
						}
					],
					"name": "OwnableInvalidOwner",
					"type": "error"
				},
				{
					"inputs": [
						{
							"internalType": "address",
							"name": "account",
							"type": "address"
						}
					],
					"name": "OwnableUnauthorizedAccount",
					"type": "error"
				},
				{
					"anonymous": false,
					"inputs": [
						{
							"indexed": true,
							"internalType": "address",
							"name": "previousOwner",
							"type": "address"
						},
						{
							"indexed": true,
							"internalType": "address",
							"name": "newOwner",
							"type": "address"
						}
					],
					"name": "OwnershipTransferred",
					"type": "event"
				},
				{
					"inputs": [
						{
							"internalType": "address[]",
							"name": "receivers",
							"type": "address[]"
						},
						{
							"internalType": "uint256[]",
							"name": "tokenId",
							"type": "uint256[]"
						}
					],
					"name": "airdrop",
					"outputs": [],
					"stateMutability": "nonpayable",
					"type": "function"
				},
				{
					"inputs": [
						{
							"internalType": "address",
							"name": "_token",
							"type": "address"
						},
						{
							"internalType": "address",
							"name": "_treasury",
							"type": "address"
						},
						{
							"internalType": "address",
							"name": "_owner",
							"type": "address"
						}
					],
					"name": "getInitData",
					"outputs": [
						{
							"internalType": "bytes",
							"name": "",
							"type": "bytes"
						}
					],
					"stateMutability": "pure",
					"type": "function"
				},
				{
					"inputs": [
						{
							"internalType": "bytes",
							"name": "_initData",
							"type": "bytes"
						}
					],
					"name": "initialize",
					"outputs": [
						{
							"internalType": "bool",
							"name": "",
							"type": "bool"
						}
					],
					"stateMutability": "nonpayable",
					"type": "function"
				},
				{
					"inputs": [],
					"name": "owner",
					"outputs": [
						{
							"internalType": "address",
							"name": "",
							"type": "address"
						}
					],
					"stateMutability": "view",
					"type": "function"
				},
				{
					"inputs": [],
					"name": "renounceOwnership",
					"outputs": [],
					"stateMutability": "nonpayable",
					"type": "function"
				},
				{
					"inputs": [],
					"name": "token",
					"outputs": [
						{
							"internalType": "contract IERC721",
							"name": "",
							"type": "address"
						}
					],
					"stateMutability": "view",
					"type": "function"
				},
				{
					"inputs": [
						{
							"internalType": "address",
							"name": "newOwner",
							"type": "address"
						}
					],
					"name": "transferOwnership",
					"outputs": [],
					"stateMutability": "nonpayable",
					"type": "function"
				},
				{
					"inputs": [],
					"name": "treasury",
					"outputs": [
						{
							"internalType": "address",
							"name": "",
							"type": "address"
						}
					],
					"stateMutability": "view",
					"type": "function"
				}
			],
			"devdoc": {
				"errors": {
					"OwnableInvalidOwner(address)": [
						{
							"details": "The owner is not a valid owner account. (eg. `address(0)`)"
						}
					],
					"OwnableUnauthorizedAccount(address)": [
						{
							"details": "The caller account is not authorized to perform an operation."
						}
					]
				},
				"kind": "dev",
				"methods": {
					"owner()": {
						"details": "Returns the address of the current owner."
					},
					"renounceOwnership()": {
						"details": "Leaves the contract without owner. It will not be possible to call `onlyOwner` functions. Can only be called by the current owner. NOTE: Renouncing ownership will leave the contract without an owner, thereby disabling any functionality that is only available to the owner."
					},
					"transferOwnership(address)": {
						"details": "Transfers ownership of the contract to a new account (`newOwner`). Can only be called by the current owner."
					}
				},
				"version": 1
			},
			"evm": {
				"assembly": "    /* \"contracts/ERC721Airdroper/ERC721Airdroper.sol\":205:1597  contract ERC721Airdroper is IUtilityContract, Ownable {... */\n  mstore(0x40, 0x80)\n    /* \"contracts/ERC721Airdroper/ERC721Airdroper.sol\":266:302  constructor() Ownable(msg.sender) {} */\n  callvalue\n  dup1\n  iszero\n  tag_1\n  jumpi\n  revert(0x00, 0x00)\ntag_1:\n  pop\n    /* \"contracts/ERC721Airdroper/ERC721Airdroper.sol\":288:298  msg.sender */\n  caller\n    /* \"@openzeppelin/contracts/access/Ownable.sol\":1297:1298  0 */\n  0x00\n    /* \"@openzeppelin/contracts/access/Ownable.sol\":1273:1299  initialOwner == address(0) */\n  0xffffffffffffffffffffffffffffffffffffffff\n  and\n    /* \"@openzeppelin/contracts/access/Ownable.sol\":1273:1285  initialOwner */\n  dup2\n    /* \"@openzeppelin/contracts/access/Ownable.sol\":1273:1299  initialOwner == address(0) */\n  0xffffffffffffffffffffffffffffffffffffffff\n  and\n  sub\n    /* \"@openzeppelin/contracts/access/Ownable.sol\":1269:1364  if (initialOwner == address(0)) {... */\n  tag_5\n  jumpi\n    /* \"@openzeppelin/contracts/access/Ownable.sol\":1350:1351  0 */\n  0x00\n    /* \"@openzeppelin/contracts/access/Ownable.sol\":1322:1353  OwnableInvalidOwner(address(0)) */\n  mload(0x40)\n  0x1e4fbdf700000000000000000000000000000000000000000000000000000000\n  dup2\n  mstore\n  0x04\n  add\n  tag_6\n  swap2\n  swap1\n  tag_7\n  jump\t// in\ntag_6:\n  mload(0x40)\n  dup1\n  swap2\n  sub\n  swap1\n  revert\n    /* \"@openzeppelin/contracts/access/Ownable.sol\":1269:1364  if (initialOwner == address(0)) {... */\ntag_5:\n    /* \"@openzeppelin/contracts/access/Ownable.sol\":1373:1405  _transferOwnership(initialOwner) */\n  tag_8\n    /* \"@openzeppelin/contracts/access/Ownable.sol\":1392:1404  initialOwner */\n  dup2\n    /* \"@openzeppelin/contracts/access/Ownable.sol\":1373:1391  _transferOwnership */\n  shl(0x20, tag_9)\n    /* \"@openzeppelin/contracts/access/Ownable.sol\":1373:1405  _transferOwnership(initialOwner) */\n  0x20\n  shr\n  jump\t// in\ntag_8:\n    /* \"@openzeppelin/contracts/access/Ownable.sol\":1225:1412  constructor(address initialOwner) {... */\n  pop\n    /* \"contracts/ERC721Airdroper/ERC721Airdroper.sol\":205:1597  contract ERC721Airdroper is IUtilityContract, Ownable {... */\n  jump(tag_11)\n    /* \"@openzeppelin/contracts/access/Ownable.sol\":2912:3099  function _transferOwnership(address newOwner) internal virtual {... */\ntag_9:\n    /* \"@openzeppelin/contracts/access/Ownable.sol\":2985:3001  address oldOwner */\n  0x00\n    /* \"@openzeppelin/contracts/access/Ownable.sol\":3004:3010  _owner */\n  0x00\n  0x00\n  swap1\n  sload\n  swap1\n  0x0100\n  exp\n  swap1\n  div\n  0xffffffffffffffffffffffffffffffffffffffff\n  and\n    /* \"@openzeppelin/contracts/access/Ownable.sol\":2985:3010  address oldOwner = _owner */\n  swap1\n  pop\n    /* \"@openzeppelin/contracts/access/Ownable.sol\":3029:3037  newOwner */\n  dup2\n    /* \"@openzeppelin/contracts/access/Ownable.sol\":3020:3026  _owner */\n  0x00\n  0x00\n    /* \"@openzeppelin/contracts/access/Ownable.sol\":3020:3037  _owner = newOwner */\n  0x0100\n  exp\n  dup2\n  sload\n  dup2\n  0xffffffffffffffffffffffffffffffffffffffff\n  mul\n  not\n  and\n  swap1\n  dup4\n  0xffffffffffffffffffffffffffffffffffffffff\n  and\n  mul\n  or\n  swap1\n  sstore\n  pop\n    /* \"@openzeppelin/contracts/access/Ownable.sol\":3083:3091  newOwner */\n  dup2\n    /* \"@openzeppelin/contracts/access/Ownable.sol\":3052:3092  OwnershipTransferred(oldOwner, newOwner) */\n  0xffffffffffffffffffffffffffffffffffffffff\n  and\n    /* \"@openzeppelin/contracts/access/Ownable.sol\":3073:3081  oldOwner */\n  dup2\n    /* \"@openzeppelin/contracts/access/Ownable.sol\":3052:3092  OwnershipTransferred(oldOwner, newOwner) */\n  0xffffffffffffffffffffffffffffffffffffffff\n  and\n  0x8be0079c531659141344cd1fd0a4f28419497f9722a3daafe3b4186f6b6457e0\n  mload(0x40)\n  mload(0x40)\n  dup1\n  swap2\n  sub\n  swap1\n  log3\n    /* \"@openzeppelin/contracts/access/Ownable.sol\":2975:3099  {... */\n  pop\n    /* \"@openzeppelin/contracts/access/Ownable.sol\":2912:3099  function _transferOwnership(address newOwner) internal virtual {... */\n  pop\n  jump\t// out\n    /* \"#utility.yul\":7:133   */\ntag_13:\n    /* \"#utility.yul\":44:51   */\n  0x00\n    /* \"#utility.yul\":84:126   */\n  0xffffffffffffffffffffffffffffffffffffffff\n    /* \"#utility.yul\":77:82   */\n  dup3\n    /* \"#utility.yul\":73:127   */\n  and\n    /* \"#utility.yul\":62:127   */\n  swap1\n  pop\n    /* \"#utility.yul\":7:133   */\n  swap2\n  swap1\n  pop\n  jump\t// out\n    /* \"#utility.yul\":139:235   */\ntag_14:\n    /* \"#utility.yul\":176:183   */\n  0x00\n    /* \"#utility.yul\":205:229   */\n  tag_19\n    /* \"#utility.yul\":223:228   */\n  dup3\n    /* \"#utility.yul\":205:229   */\n  tag_13\n  jump\t// in\ntag_19:\n    /* \"#utility.yul\":194:229   */\n  swap1\n  pop\n    /* \"#utility.yul\":139:235   */\n  swap2\n  swap1\n  pop\n  jump\t// out\n    /* \"#utility.yul\":241:359   */\ntag_15:\n    /* \"#utility.yul\":328:352   */\n  tag_21\n    /* \"#utility.yul\":346:351   */\n  dup2\n    /* \"#utility.yul\":328:352   */\n  tag_14\n  jump\t// in\ntag_21:\n    /* \"#utility.yul\":323:326   */\n  dup3\n    /* \"#utility.yul\":316:353   */\n  mstore\n    /* \"#utility.yul\":241:359   */\n  pop\n  pop\n  jump\t// out\n    /* \"#utility.yul\":365:587   */\ntag_7:\n    /* \"#utility.yul\":458:462   */\n  0x00\n    /* \"#utility.yul\":496:498   */\n  0x20\n    /* \"#utility.yul\":485:494   */\n  dup3\n    /* \"#utility.yul\":481:499   */\n  add\n    /* \"#utility.yul\":473:499   */\n  swap1\n  pop\n    /* \"#utility.yul\":509:580   */\n  tag_23\n    /* \"#utility.yul\":577:578   */\n  0x00\n    /* \"#utility.yul\":566:575   */\n  dup4\n    /* \"#utility.yul\":562:579   */\n  add\n    /* \"#utility.yul\":553:559   */\n  dup5\n    /* \"#utility.yul\":509:580   */\n  tag_15\n  jump\t// in\ntag_23:\n    /* \"#utility.yul\":365:587   */\n  swap3\n  swap2\n  pop\n  pop\n  jump\t// out\n    /* \"contracts/ERC721Airdroper/ERC721Airdroper.sol\":205:1597  contract ERC721Airdroper is IUtilityContract, Ownable {... */\ntag_11:\n  dataSize(sub_0)\n  dup1\n  dataOffset(sub_0)\n  0x00\n  codecopy\n  0x00\n  return\nstop\n\nsub_0: assembly {\n        /* \"contracts/ERC721Airdroper/ERC721Airdroper.sol\":205:1597  contract ERC721Airdroper is IUtilityContract, Ownable {... */\n      mstore(0x40, 0x80)\n      callvalue\n      dup1\n      iszero\n      tag_1\n      jumpi\n      revert(0x00, 0x00)\n    tag_1:\n      pop\n      jumpi(tag_2, lt(calldatasize, 0x04))\n      shr(0xe0, calldataload(0x00))\n      dup1\n      0x8da5cb5b\n      gt\n      tag_11\n      jumpi\n      dup1\n      0x8da5cb5b\n      eq\n      tag_7\n      jumpi\n      dup1\n      0xc475dda9\n      eq\n      tag_8\n      jumpi\n      dup1\n      0xf2fde38b\n      eq\n      tag_9\n      jumpi\n      dup1\n      0xfc0c546a\n      eq\n      tag_10\n      jumpi\n      jump(tag_2)\n    tag_11:\n      dup1\n      0x439fab91\n      eq\n      tag_3\n      jumpi\n      dup1\n      0x61d027b3\n      eq\n      tag_4\n      jumpi\n      dup1\n      0x67243482\n      eq\n      tag_5\n      jumpi\n      dup1\n      0x715018a6\n      eq\n      tag_6\n      jumpi\n    tag_2:\n      revert(0x00, 0x00)\n        /* \"contracts/ERC721Airdroper/ERC721Airdroper.sol\":1057:1419  function initialize(bytes memory _initData) external notInitialized returns(bool) {... */\n    tag_3:\n      tag_12\n      0x04\n      dup1\n      calldatasize\n      sub\n      dup2\n      add\n      swap1\n      tag_13\n      swap2\n      swap1\n      tag_14\n      jump\t// in\n    tag_13:\n      tag_15\n      jump\t// in\n    tag_12:\n      mload(0x40)\n      tag_16\n      swap2\n      swap1\n      tag_17\n      jump\t// in\n    tag_16:\n      mload(0x40)\n      dup1\n      swap2\n      sub\n      swap1\n      return\n        /* \"contracts/ERC721Airdroper/ERC721Airdroper.sol\":334:357  address public treasury */\n    tag_4:\n      tag_18\n      tag_19\n      jump\t// in\n    tag_18:\n      mload(0x40)\n      tag_20\n      swap2\n      swap1\n      tag_21\n      jump\t// in\n    tag_20:\n      mload(0x40)\n      dup1\n      swap2\n      sub\n      swap1\n      return\n        /* \"contracts/ERC721Airdroper/ERC721Airdroper.sol\":598:1051  function airdrop(address[] calldata receivers, uint256[] calldata tokenId) external onlyOwner {... */\n    tag_5:\n      tag_22\n      0x04\n      dup1\n      calldatasize\n      sub\n      dup2\n      add\n      swap1\n      tag_23\n      swap2\n      swap1\n      tag_24\n      jump\t// in\n    tag_23:\n      tag_25\n      jump\t// in\n    tag_22:\n      stop\n        /* \"@openzeppelin/contracts/access/Ownable.sol\":2293:2394  function renounceOwnership() public virtual onlyOwner {... */\n    tag_6:\n      tag_26\n      tag_27\n      jump\t// in\n    tag_26:\n      stop\n        /* \"@openzeppelin/contracts/access/Ownable.sol\":1638:1723  function owner() public view virtual returns (address) {... */\n    tag_7:\n      tag_28\n      tag_29\n      jump\t// in\n    tag_28:\n      mload(0x40)\n      tag_30\n      swap2\n      swap1\n      tag_21\n      jump\t// in\n    tag_30:\n      mload(0x40)\n      dup1\n      swap2\n      sub\n      swap1\n      return\n        /* \"contracts/ERC721Airdroper/ERC721Airdroper.sol\":1425:1594  function getInitData(address _token, address _treasury, address _owner) external pure returns(bytes memory) {... */\n    tag_8:\n      tag_31\n      0x04\n      dup1\n      calldatasize\n      sub\n      dup2\n      add\n      swap1\n      tag_32\n      swap2\n      swap1\n      tag_33\n      jump\t// in\n    tag_32:\n      tag_34\n      jump\t// in\n    tag_31:\n      mload(0x40)\n      tag_35\n      swap2\n      swap1\n      tag_36\n      jump\t// in\n    tag_35:\n      mload(0x40)\n      dup1\n      swap2\n      sub\n      swap1\n      return\n        /* \"@openzeppelin/contracts/access/Ownable.sol\":2543:2758  function transferOwnership(address newOwner) public virtual onlyOwner {... */\n    tag_9:\n      tag_37\n      0x04\n      dup1\n      calldatasize\n      sub\n      dup2\n      add\n      swap1\n      tag_38\n      swap2\n      swap1\n      tag_39\n      jump\t// in\n    tag_38:\n      tag_40\n      jump\t// in\n    tag_37:\n      stop\n        /* \"contracts/ERC721Airdroper/ERC721Airdroper.sol\":308:328  IERC721 public token */\n    tag_10:\n      tag_41\n      tag_42\n      jump\t// in\n    tag_41:\n      mload(0x40)\n      tag_43\n      swap2\n      swap1\n      tag_44\n      jump\t// in\n    tag_43:\n      mload(0x40)\n      dup1\n      swap2\n      sub\n      swap1\n      return\n        /* \"contracts/ERC721Airdroper/ERC721Airdroper.sol\":1057:1419  function initialize(bytes memory _initData) external notInitialized returns(bool) {... */\n    tag_15:\n        /* \"contracts/ERC721Airdroper/ERC721Airdroper.sol\":1133:1137  bool */\n      0x00\n        /* \"contracts/ERC721Airdroper/ERC721Airdroper.sol\":509:520  initialized */\n      0x02\n      0x14\n      swap1\n      sload\n      swap1\n      0x0100\n      exp\n      swap1\n      div\n      0xff\n      and\n        /* \"contracts/ERC721Airdroper/ERC721Airdroper.sol\":508:520  !initialized */\n      iszero\n        /* \"contracts/ERC721Airdroper/ERC721Airdroper.sol\":500:543  require(!initialized, AlreadyInitialized()) */\n      tag_46\n      jumpi\n      mload(0x40)\n      0x0dc149f000000000000000000000000000000000000000000000000000000000\n      dup2\n      mstore\n      0x04\n      add\n      mload(0x40)\n      dup1\n      swap2\n      sub\n      swap1\n      revert\n    tag_46:\n        /* \"contracts/ERC721Airdroper/ERC721Airdroper.sol\":1151:1165  address _token */\n      0x00\n        /* \"contracts/ERC721Airdroper/ERC721Airdroper.sol\":1167:1184  address _treasury */\n      0x00\n        /* \"contracts/ERC721Airdroper/ERC721Airdroper.sol\":1186:1200  address _owner */\n      0x00\n        /* \"contracts/ERC721Airdroper/ERC721Airdroper.sol\":1215:1224  _initData */\n      dup5\n        /* \"contracts/ERC721Airdroper/ERC721Airdroper.sol\":1204:1254  abi.decode(_initData, (address, address, address)) */\n      dup1\n      0x20\n      add\n      swap1\n      mload\n      dup2\n      add\n      swap1\n      tag_48\n      swap2\n      swap1\n      tag_49\n      jump\t// in\n    tag_48:\n        /* \"contracts/ERC721Airdroper/ERC721Airdroper.sol\":1150:1254  (address _token, address _treasury, address _owner) = abi.decode(_initData, (address, address, address)) */\n      swap3\n      pop\n      swap3\n      pop\n      swap3\n      pop\n        /* \"contracts/ERC721Airdroper/ERC721Airdroper.sol\":1281:1287  _token */\n      dup3\n        /* \"contracts/ERC721Airdroper/ERC721Airdroper.sol\":1265:1270  token */\n      0x01\n      0x00\n        /* \"contracts/ERC721Airdroper/ERC721Airdroper.sol\":1265:1288  token = IERC721(_token) */\n      0x0100\n      exp\n      dup2\n      sload\n      dup2\n      0xffffffffffffffffffffffffffffffffffffffff\n      mul\n      not\n      and\n      swap1\n      dup4\n      0xffffffffffffffffffffffffffffffffffffffff\n      and\n      mul\n      or\n      swap1\n      sstore\n      pop\n        /* \"contracts/ERC721Airdroper/ERC721Airdroper.sol\":1309:1318  _treasury */\n      dup2\n        /* \"contracts/ERC721Airdroper/ERC721Airdroper.sol\":1298:1306  treasury */\n      0x02\n      0x00\n        /* \"contracts/ERC721Airdroper/ERC721Airdroper.sol\":1298:1318  treasury = _treasury */\n      0x0100\n      exp\n      dup2\n      sload\n      dup2\n      0xffffffffffffffffffffffffffffffffffffffff\n      mul\n      not\n      and\n      swap1\n      dup4\n      0xffffffffffffffffffffffffffffffffffffffff\n      and\n      mul\n      or\n      swap1\n      sstore\n      pop\n        /* \"contracts/ERC721Airdroper/ERC721Airdroper.sol\":1329:1362  Ownable.transferOwnership(_owner) */\n      tag_50\n        /* \"contracts/ERC721Airdroper/ERC721Airdroper.sol\":1355:1361  _owner */\n      dup2\n        /* \"contracts/ERC721Airdroper/ERC721Airdroper.sol\":1329:1354  Ownable.transferOwnership */\n      tag_40\n        /* \"contracts/ERC721Airdroper/ERC721Airdroper.sol\":1329:1362  Ownable.transferOwnership(_owner) */\n      jump\t// in\n    tag_50:\n        /* \"contracts/ERC721Airdroper/ERC721Airdroper.sol\":1387:1391  true */\n      0x01\n        /* \"contracts/ERC721Airdroper/ERC721Airdroper.sol\":1373:1384  initialized */\n      0x02\n      0x14\n        /* \"contracts/ERC721Airdroper/ERC721Airdroper.sol\":1373:1391  initialized = true */\n      0x0100\n      exp\n      dup2\n      sload\n      dup2\n      0xff\n      mul\n      not\n      and\n      swap1\n      dup4\n      iszero\n      iszero\n      mul\n      or\n      swap1\n      sstore\n      pop\n        /* \"contracts/ERC721Airdroper/ERC721Airdroper.sol\":1408:1412  true */\n      0x01\n        /* \"contracts/ERC721Airdroper/ERC721Airdroper.sol\":1401:1412  return true */\n      swap4\n      pop\n      pop\n      pop\n      pop\n        /* \"contracts/ERC721Airdroper/ERC721Airdroper.sol\":1057:1419  function initialize(bytes memory _initData) external notInitialized returns(bool) {... */\n      swap2\n      swap1\n      pop\n      jump\t// out\n        /* \"contracts/ERC721Airdroper/ERC721Airdroper.sol\":334:357  address public treasury */\n    tag_19:\n      0x02\n      0x00\n      swap1\n      sload\n      swap1\n      0x0100\n      exp\n      swap1\n      div\n      0xffffffffffffffffffffffffffffffffffffffff\n      and\n      dup2\n      jump\t// out\n        /* \"contracts/ERC721Airdroper/ERC721Airdroper.sol\":598:1051  function airdrop(address[] calldata receivers, uint256[] calldata tokenId) external onlyOwner {... */\n    tag_25:\n        /* \"@openzeppelin/contracts/access/Ownable.sol\":1531:1544  _checkOwner() */\n      tag_52\n        /* \"@openzeppelin/contracts/access/Ownable.sol\":1531:1542  _checkOwner */\n      tag_53\n        /* \"@openzeppelin/contracts/access/Ownable.sol\":1531:1544  _checkOwner() */\n      jump\t// in\n    tag_52:\n        /* \"contracts/ERC721Airdroper/ERC721Airdroper.sol\":730:737  tokenId */\n      dup2\n      dup2\n        /* \"contracts/ERC721Airdroper/ERC721Airdroper.sol\":730:744  tokenId.length */\n      swap1\n      pop\n        /* \"contracts/ERC721Airdroper/ERC721Airdroper.sol\":710:719  receivers */\n      dup5\n      dup5\n        /* \"contracts/ERC721Airdroper/ERC721Airdroper.sol\":710:726  receivers.length */\n      swap1\n      pop\n        /* \"contracts/ERC721Airdroper/ERC721Airdroper.sol\":710:744  receivers.length == tokenId.length */\n      eq\n        /* \"contracts/ERC721Airdroper/ERC721Airdroper.sol\":702:769  require(receivers.length == tokenId.length, ArraysLengthMismatch()) */\n      tag_55\n      jumpi\n      mload(0x40)\n      0xfc23596000000000000000000000000000000000000000000000000000000000\n      dup2\n      mstore\n      0x04\n      add\n      mload(0x40)\n      dup1\n      swap2\n      sub\n      swap1\n      revert\n    tag_55:\n        /* \"contracts/ERC721Airdroper/ERC721Airdroper.sol\":787:792  token */\n      0x01\n      0x00\n      swap1\n      sload\n      swap1\n      0x0100\n      exp\n      swap1\n      div\n      0xffffffffffffffffffffffffffffffffffffffff\n      and\n        /* \"contracts/ERC721Airdroper/ERC721Airdroper.sol\":787:809  token.isApprovedForAll */\n      0xffffffffffffffffffffffffffffffffffffffff\n      and\n      0xe985e9c5\n        /* \"contracts/ERC721Airdroper/ERC721Airdroper.sol\":810:818  treasury */\n      0x02\n      0x00\n      swap1\n      sload\n      swap1\n      0x0100\n      exp\n      swap1\n      div\n      0xffffffffffffffffffffffffffffffffffffffff\n      and\n        /* \"contracts/ERC721Airdroper/ERC721Airdroper.sol\":828:832  this */\n      address\n        /* \"contracts/ERC721Airdroper/ERC721Airdroper.sol\":787:834  token.isApprovedForAll(treasury, address(this)) */\n      mload(0x40)\n      dup4\n      0xffffffff\n      and\n      0xe0\n      shl\n      dup2\n      mstore\n      0x04\n      add\n      tag_56\n      swap3\n      swap2\n      swap1\n      tag_57\n      jump\t// in\n    tag_56:\n      0x20\n      mload(0x40)\n      dup1\n      dup4\n      sub\n      dup2\n      dup7\n      gas\n      staticcall\n      iszero\n      dup1\n      iszero\n      tag_59\n      jumpi\n      returndatacopy(0x00, 0x00, returndatasize)\n      revert(0x00, returndatasize)\n    tag_59:\n      pop\n      pop\n      pop\n      pop\n      mload(0x40)\n      returndatasize\n      not(0x1f)\n      0x1f\n      dup3\n      add\n      and\n      dup3\n      add\n      dup1\n      0x40\n      mstore\n      pop\n      dup2\n      add\n      swap1\n      tag_60\n      swap2\n      swap1\n      tag_61\n      jump\t// in\n    tag_60:\n        /* \"contracts/ERC721Airdroper/ERC721Airdroper.sol\":779:858  require(token.isApprovedForAll(treasury, address(this)), NeedToApproveTokens()) */\n      tag_62\n      jumpi\n      mload(0x40)\n      0x9bacfd9a00000000000000000000000000000000000000000000000000000000\n      dup2\n      mstore\n      0x04\n      add\n      mload(0x40)\n      dup1\n      swap2\n      sub\n      swap1\n      revert\n    tag_62:\n        /* \"contracts/ERC721Airdroper/ERC721Airdroper.sol\":873:882  uint256 i */\n      0x00\n        /* \"contracts/ERC721Airdroper/ERC721Airdroper.sol\":885:886  0 */\n      0x00\n        /* \"contracts/ERC721Airdroper/ERC721Airdroper.sol\":873:886  uint256 i = 0 */\n      swap1\n      pop\n        /* \"contracts/ERC721Airdroper/ERC721Airdroper.sol\":869:1045  for(uint256 i = 0; i < tokenId.length; i++) {... */\n    tag_63:\n        /* \"contracts/ERC721Airdroper/ERC721Airdroper.sol\":892:899  tokenId */\n      dup3\n      dup3\n        /* \"contracts/ERC721Airdroper/ERC721Airdroper.sol\":892:906  tokenId.length */\n      swap1\n      pop\n        /* \"contracts/ERC721Airdroper/ERC721Airdroper.sol\":888:889  i */\n      dup2\n        /* \"contracts/ERC721Airdroper/ERC721Airdroper.sol\":888:906  i < tokenId.length */\n      lt\n        /* \"contracts/ERC721Airdroper/ERC721Airdroper.sol\":869:1045  for(uint256 i = 0; i < tokenId.length; i++) {... */\n      iszero\n      tag_64\n      jumpi\n        /* \"contracts/ERC721Airdroper/ERC721Airdroper.sol\":927:932  token */\n      0x01\n      0x00\n      swap1\n      sload\n      swap1\n      0x0100\n      exp\n      swap1\n      div\n      0xffffffffffffffffffffffffffffffffffffffff\n      and\n        /* \"contracts/ERC721Airdroper/ERC721Airdroper.sol\":927:949  token.safeTransferFrom */\n      0xffffffffffffffffffffffffffffffffffffffff\n      and\n      0x42842e0e\n        /* \"contracts/ERC721Airdroper/ERC721Airdroper.sol\":967:975  treasury */\n      0x02\n      0x00\n      swap1\n      sload\n      swap1\n      0x0100\n      exp\n      swap1\n      div\n      0xffffffffffffffffffffffffffffffffffffffff\n      and\n        /* \"contracts/ERC721Airdroper/ERC721Airdroper.sol\":993:1002  receivers */\n      dup8\n      dup8\n        /* \"contracts/ERC721Airdroper/ERC721Airdroper.sol\":1003:1004  i */\n      dup6\n        /* \"contracts/ERC721Airdroper/ERC721Airdroper.sol\":993:1005  receivers[i] */\n      dup2\n      dup2\n      lt\n      tag_66\n      jumpi\n      tag_67\n      tag_68\n      jump\t// in\n    tag_67:\n    tag_66:\n      swap1\n      pop\n      0x20\n      mul\n      add\n      0x20\n      dup2\n      add\n      swap1\n      tag_69\n      swap2\n      swap1\n      tag_39\n      jump\t// in\n    tag_69:\n        /* \"contracts/ERC721Airdroper/ERC721Airdroper.sol\":1023:1030  tokenId */\n      dup7\n      dup7\n        /* \"contracts/ERC721Airdroper/ERC721Airdroper.sol\":1031:1032  i */\n      dup7\n        /* \"contracts/ERC721Airdroper/ERC721Airdroper.sol\":1023:1033  tokenId[i] */\n      dup2\n      dup2\n      lt\n      tag_70\n      jumpi\n      tag_71\n      tag_68\n      jump\t// in\n    tag_71:\n    tag_70:\n      swap1\n      pop\n      0x20\n      mul\n      add\n      calldataload\n        /* \"contracts/ERC721Airdroper/ERC721Airdroper.sol\":927:1034  token.safeTransferFrom(... */\n      mload(0x40)\n      dup5\n      0xffffffff\n      and\n      0xe0\n      shl\n      dup2\n      mstore\n      0x04\n      add\n      tag_72\n      swap4\n      swap3\n      swap2\n      swap1\n      tag_73\n      jump\t// in\n    tag_72:\n      0x00\n      mload(0x40)\n      dup1\n      dup4\n      sub\n      dup2\n      0x00\n      dup8\n      dup1\n      extcodesize\n      iszero\n      dup1\n      iszero\n      tag_74\n      jumpi\n      revert(0x00, 0x00)\n    tag_74:\n      pop\n      gas\n      call\n      iszero\n      dup1\n      iszero\n      tag_76\n      jumpi\n      returndatacopy(0x00, 0x00, returndatasize)\n      revert(0x00, returndatasize)\n    tag_76:\n      pop\n      pop\n      pop\n      pop\n        /* \"contracts/ERC721Airdroper/ERC721Airdroper.sol\":908:911  i++ */\n      dup1\n      dup1\n      0x01\n      add\n      swap2\n      pop\n      pop\n        /* \"contracts/ERC721Airdroper/ERC721Airdroper.sol\":869:1045  for(uint256 i = 0; i < tokenId.length; i++) {... */\n      jump(tag_63)\n    tag_64:\n      pop\n        /* \"contracts/ERC721Airdroper/ERC721Airdroper.sol\":598:1051  function airdrop(address[] calldata receivers, uint256[] calldata tokenId) external onlyOwner {... */\n      pop\n      pop\n      pop\n      pop\n      jump\t// out\n        /* \"@openzeppelin/contracts/access/Ownable.sol\":2293:2394  function renounceOwnership() public virtual onlyOwner {... */\n    tag_27:\n        /* \"@openzeppelin/contracts/access/Ownable.sol\":1531:1544  _checkOwner() */\n      tag_78\n        /* \"@openzeppelin/contracts/access/Ownable.sol\":1531:1542  _checkOwner */\n      tag_53\n        /* \"@openzeppelin/contracts/access/Ownable.sol\":1531:1544  _checkOwner() */\n      jump\t// in\n    tag_78:\n        /* \"@openzeppelin/contracts/access/Ownable.sol\":2357:2387  _transferOwnership(address(0)) */\n      tag_80\n        /* \"@openzeppelin/contracts/access/Ownable.sol\":2384:2385  0 */\n      0x00\n        /* \"@openzeppelin/contracts/access/Ownable.sol\":2357:2375  _transferOwnership */\n      tag_81\n        /* \"@openzeppelin/contracts/access/Ownable.sol\":2357:2387  _transferOwnership(address(0)) */\n      jump\t// in\n    tag_80:\n        /* \"@openzeppelin/contracts/access/Ownable.sol\":2293:2394  function renounceOwnership() public virtual onlyOwner {... */\n      jump\t// out\n        /* \"@openzeppelin/contracts/access/Ownable.sol\":1638:1723  function owner() public view virtual returns (address) {... */\n    tag_29:\n        /* \"@openzeppelin/contracts/access/Ownable.sol\":1684:1691  address */\n      0x00\n        /* \"@openzeppelin/contracts/access/Ownable.sol\":1710:1716  _owner */\n      0x00\n      0x00\n      swap1\n      sload\n      swap1\n      0x0100\n      exp\n      swap1\n      div\n      0xffffffffffffffffffffffffffffffffffffffff\n      and\n        /* \"@openzeppelin/contracts/access/Ownable.sol\":1703:1716  return _owner */\n      swap1\n      pop\n        /* \"@openzeppelin/contracts/access/Ownable.sol\":1638:1723  function owner() public view virtual returns (address) {... */\n      swap1\n      jump\t// out\n        /* \"contracts/ERC721Airdroper/ERC721Airdroper.sol\":1425:1594  function getInitData(address _token, address _treasury, address _owner) external pure returns(bytes memory) {... */\n    tag_34:\n        /* \"contracts/ERC721Airdroper/ERC721Airdroper.sol\":1519:1531  bytes memory */\n      0x60\n        /* \"contracts/ERC721Airdroper/ERC721Airdroper.sol\":1561:1567  _token */\n      dup4\n        /* \"contracts/ERC721Airdroper/ERC721Airdroper.sol\":1569:1578  _treasury */\n      dup4\n        /* \"contracts/ERC721Airdroper/ERC721Airdroper.sol\":1580:1586  _owner */\n      dup4\n        /* \"contracts/ERC721Airdroper/ERC721Airdroper.sol\":1550:1587  abi.encode(_token, _treasury, _owner) */\n      add(0x20, mload(0x40))\n      tag_84\n      swap4\n      swap3\n      swap2\n      swap1\n      tag_85\n      jump\t// in\n    tag_84:\n      mload(0x40)\n      0x20\n      dup2\n      dup4\n      sub\n      sub\n      dup2\n      mstore\n      swap1\n      0x40\n      mstore\n        /* \"contracts/ERC721Airdroper/ERC721Airdroper.sol\":1543:1587  return abi.encode(_token, _treasury, _owner) */\n      swap1\n      pop\n        /* \"contracts/ERC721Airdroper/ERC721Airdroper.sol\":1425:1594  function getInitData(address _token, address _treasury, address _owner) external pure returns(bytes memory) {... */\n      swap4\n      swap3\n      pop\n      pop\n      pop\n      jump\t// out\n        /* \"@openzeppelin/contracts/access/Ownable.sol\":2543:2758  function transferOwnership(address newOwner) public virtual onlyOwner {... */\n    tag_40:\n        /* \"@openzeppelin/contracts/access/Ownable.sol\":1531:1544  _checkOwner() */\n      tag_87\n        /* \"@openzeppelin/contracts/access/Ownable.sol\":1531:1542  _checkOwner */\n      tag_53\n        /* \"@openzeppelin/contracts/access/Ownable.sol\":1531:1544  _checkOwner() */\n      jump\t// in\n    tag_87:\n        /* \"@openzeppelin/contracts/access/Ownable.sol\":2647:2648  0 */\n      0x00\n        /* \"@openzeppelin/contracts/access/Ownable.sol\":2627:2649  newOwner == address(0) */\n      0xffffffffffffffffffffffffffffffffffffffff\n      and\n        /* \"@openzeppelin/contracts/access/Ownable.sol\":2627:2635  newOwner */\n      dup2\n        /* \"@openzeppelin/contracts/access/Ownable.sol\":2627:2649  newOwner == address(0) */\n      0xffffffffffffffffffffffffffffffffffffffff\n      and\n      sub\n        /* \"@openzeppelin/contracts/access/Ownable.sol\":2623:2714  if (newOwner == address(0)) {... */\n      tag_89\n      jumpi\n        /* \"@openzeppelin/contracts/access/Ownable.sol\":2700:2701  0 */\n      0x00\n        /* \"@openzeppelin/contracts/access/Ownable.sol\":2672:2703  OwnableInvalidOwner(address(0)) */\n      mload(0x40)\n      0x1e4fbdf700000000000000000000000000000000000000000000000000000000\n      dup2\n      mstore\n      0x04\n      add\n      tag_90\n      swap2\n      swap1\n      tag_21\n      jump\t// in\n    tag_90:\n      mload(0x40)\n      dup1\n      swap2\n      sub\n      swap1\n      revert\n        /* \"@openzeppelin/contracts/access/Ownable.sol\":2623:2714  if (newOwner == address(0)) {... */\n    tag_89:\n        /* \"@openzeppelin/contracts/access/Ownable.sol\":2723:2751  _transferOwnership(newOwner) */\n      tag_91\n        /* \"@openzeppelin/contracts/access/Ownable.sol\":2742:2750  newOwner */\n      dup2\n        /* \"@openzeppelin/contracts/access/Ownable.sol\":2723:2741  _transferOwnership */\n      tag_81\n        /* \"@openzeppelin/contracts/access/Ownable.sol\":2723:2751  _transferOwnership(newOwner) */\n      jump\t// in\n    tag_91:\n        /* \"@openzeppelin/contracts/access/Ownable.sol\":2543:2758  function transferOwnership(address newOwner) public virtual onlyOwner {... */\n      pop\n      jump\t// out\n        /* \"contracts/ERC721Airdroper/ERC721Airdroper.sol\":308:328  IERC721 public token */\n    tag_42:\n      0x01\n      0x00\n      swap1\n      sload\n      swap1\n      0x0100\n      exp\n      swap1\n      div\n      0xffffffffffffffffffffffffffffffffffffffff\n      and\n      dup2\n      jump\t// out\n        /* \"@openzeppelin/contracts/access/Ownable.sol\":1796:1958  function _checkOwner() internal view virtual {... */\n    tag_53:\n        /* \"@openzeppelin/contracts/access/Ownable.sol\":1866:1878  _msgSender() */\n      tag_93\n        /* \"@openzeppelin/contracts/access/Ownable.sol\":1866:1876  _msgSender */\n      tag_94\n        /* \"@openzeppelin/contracts/access/Ownable.sol\":1866:1878  _msgSender() */\n      jump\t// in\n    tag_93:\n        /* \"@openzeppelin/contracts/access/Ownable.sol\":1855:1878  owner() != _msgSender() */\n      0xffffffffffffffffffffffffffffffffffffffff\n      and\n        /* \"@openzeppelin/contracts/access/Ownable.sol\":1855:1862  owner() */\n      tag_95\n        /* \"@openzeppelin/contracts/access/Ownable.sol\":1855:1860  owner */\n      tag_29\n        /* \"@openzeppelin/contracts/access/Ownable.sol\":1855:1862  owner() */\n      jump\t// in\n    tag_95:\n        /* \"@openzeppelin/contracts/access/Ownable.sol\":1855:1878  owner() != _msgSender() */\n      0xffffffffffffffffffffffffffffffffffffffff\n      and\n      eq\n        /* \"@openzeppelin/contracts/access/Ownable.sol\":1851:1952  if (owner() != _msgSender()) {... */\n      tag_96\n      jumpi\n        /* \"@openzeppelin/contracts/access/Ownable.sol\":1928:1940  _msgSender() */\n      tag_97\n        /* \"@openzeppelin/contracts/access/Ownable.sol\":1928:1938  _msgSender */\n      tag_94\n        /* \"@openzeppelin/contracts/access/Ownable.sol\":1928:1940  _msgSender() */\n      jump\t// in\n    tag_97:\n        /* \"@openzeppelin/contracts/access/Ownable.sol\":1901:1941  OwnableUnauthorizedAccount(_msgSender()) */\n      mload(0x40)\n      0x118cdaa700000000000000000000000000000000000000000000000000000000\n      dup2\n      mstore\n      0x04\n      add\n      tag_98\n      swap2\n      swap1\n      tag_21\n      jump\t// in\n    tag_98:\n      mload(0x40)\n      dup1\n      swap2\n      sub\n      swap1\n      revert\n        /* \"@openzeppelin/contracts/access/Ownable.sol\":1851:1952  if (owner() != _msgSender()) {... */\n    tag_96:\n        /* \"@openzeppelin/contracts/access/Ownable.sol\":1796:1958  function _checkOwner() internal view virtual {... */\n      jump\t// out\n        /* \"@openzeppelin/contracts/access/Ownable.sol\":2912:3099  function _transferOwnership(address newOwner) internal virtual {... */\n    tag_81:\n        /* \"@openzeppelin/contracts/access/Ownable.sol\":2985:3001  address oldOwner */\n      0x00\n        /* \"@openzeppelin/contracts/access/Ownable.sol\":3004:3010  _owner */\n      0x00\n      0x00\n      swap1\n      sload\n      swap1\n      0x0100\n      exp\n      swap1\n      div\n      0xffffffffffffffffffffffffffffffffffffffff\n      and\n        /* \"@openzeppelin/contracts/access/Ownable.sol\":2985:3010  address oldOwner = _owner */\n      swap1\n      pop\n        /* \"@openzeppelin/contracts/access/Ownable.sol\":3029:3037  newOwner */\n      dup2\n        /* \"@openzeppelin/contracts/access/Ownable.sol\":3020:3026  _owner */\n      0x00\n      0x00\n        /* \"@openzeppelin/contracts/access/Ownable.sol\":3020:3037  _owner = newOwner */\n      0x0100\n      exp\n      dup2\n      sload\n      dup2\n      0xffffffffffffffffffffffffffffffffffffffff\n      mul\n      not\n      and\n      swap1\n      dup4\n      0xffffffffffffffffffffffffffffffffffffffff\n      and\n      mul\n      or\n      swap1\n      sstore\n      pop\n        /* \"@openzeppelin/contracts/access/Ownable.sol\":3083:3091  newOwner */\n      dup2\n        /* \"@openzeppelin/contracts/access/Ownable.sol\":3052:3092  OwnershipTransferred(oldOwner, newOwner) */\n      0xffffffffffffffffffffffffffffffffffffffff\n      and\n        /* \"@openzeppelin/contracts/access/Ownable.sol\":3073:3081  oldOwner */\n      dup2\n        /* \"@openzeppelin/contracts/access/Ownable.sol\":3052:3092  OwnershipTransferred(oldOwner, newOwner) */\n      0xffffffffffffffffffffffffffffffffffffffff\n      and\n      0x8be0079c531659141344cd1fd0a4f28419497f9722a3daafe3b4186f6b6457e0\n      mload(0x40)\n      mload(0x40)\n      dup1\n      swap2\n      sub\n      swap1\n      log3\n        /* \"@openzeppelin/contracts/access/Ownable.sol\":2975:3099  {... */\n      pop\n        /* \"@openzeppelin/contracts/access/Ownable.sol\":2912:3099  function _transferOwnership(address newOwner) internal virtual {... */\n      pop\n      jump\t// out\n        /* \"@openzeppelin/contracts/utils/Context.sol\":656:752  function _msgSender() internal view virtual returns (address) {... */\n    tag_94:\n        /* \"@openzeppelin/contracts/utils/Context.sol\":709:716  address */\n      0x00\n        /* \"@openzeppelin/contracts/utils/Context.sol\":735:745  msg.sender */\n      caller\n        /* \"@openzeppelin/contracts/utils/Context.sol\":728:745  return msg.sender */\n      swap1\n      pop\n        /* \"@openzeppelin/contracts/utils/Context.sol\":656:752  function _msgSender() internal view virtual returns (address) {... */\n      swap1\n      jump\t// out\n        /* \"#utility.yul\":7:82   */\n    tag_101:\n        /* \"#utility.yul\":40:46   */\n      0x00\n        /* \"#utility.yul\":73:75   */\n      0x40\n        /* \"#utility.yul\":67:76   */\n      mload\n        /* \"#utility.yul\":57:76   */\n      swap1\n      pop\n        /* \"#utility.yul\":7:82   */\n      swap1\n      jump\t// out\n        /* \"#utility.yul\":88:205   */\n    tag_102:\n        /* \"#utility.yul\":197:198   */\n      0x00\n        /* \"#utility.yul\":194:195   */\n      0x00\n        /* \"#utility.yul\":187:199   */\n      revert\n        /* \"#utility.yul\":211:328   */\n    tag_103:\n        /* \"#utility.yul\":320:321   */\n      0x00\n        /* \"#utility.yul\":317:318   */\n      0x00\n        /* \"#utility.yul\":310:322   */\n      revert\n        /* \"#utility.yul\":334:451   */\n    tag_104:\n        /* \"#utility.yul\":443:444   */\n      0x00\n        /* \"#utility.yul\":440:441   */\n      0x00\n        /* \"#utility.yul\":433:445   */\n      revert\n        /* \"#utility.yul\":457:574   */\n    tag_105:\n        /* \"#utility.yul\":566:567   */\n      0x00\n        /* \"#utility.yul\":563:564   */\n      0x00\n        /* \"#utility.yul\":556:568   */\n      revert\n        /* \"#utility.yul\":580:682   */\n    tag_106:\n        /* \"#utility.yul\":621:627   */\n      0x00\n        /* \"#utility.yul\":672:674   */\n      0x1f\n        /* \"#utility.yul\":668:675   */\n      not\n        /* \"#utility.yul\":663:665   */\n      0x1f\n        /* \"#utility.yul\":656:661   */\n      dup4\n        /* \"#utility.yul\":652:666   */\n      add\n        /* \"#utility.yul\":648:676   */\n      and\n        /* \"#utility.yul\":638:676   */\n      swap1\n      pop\n        /* \"#utility.yul\":580:682   */\n      swap2\n      swap1\n      pop\n      jump\t// out\n        /* \"#utility.yul\":688:868   */\n    tag_107:\n        /* \"#utility.yul\":736:813   */\n      0x4e487b7100000000000000000000000000000000000000000000000000000000\n        /* \"#utility.yul\":733:734   */\n      0x00\n        /* \"#utility.yul\":726:814   */\n      mstore\n        /* \"#utility.yul\":833:837   */\n      0x41\n        /* \"#utility.yul\":830:831   */\n      0x04\n        /* \"#utility.yul\":823:838   */\n      mstore\n        /* \"#utility.yul\":857:861   */\n      0x24\n        /* \"#utility.yul\":854:855   */\n      0x00\n        /* \"#utility.yul\":847:862   */\n      revert\n        /* \"#utility.yul\":874:1155   */\n    tag_108:\n        /* \"#utility.yul\":957:984   */\n      tag_150\n        /* \"#utility.yul\":979:983   */\n      dup3\n        /* \"#utility.yul\":957:984   */\n      tag_106\n      jump\t// in\n    tag_150:\n        /* \"#utility.yul\":949:955   */\n      dup2\n        /* \"#utility.yul\":945:985   */\n      add\n        /* \"#utility.yul\":1087:1093   */\n      dup2\n        /* \"#utility.yul\":1075:1085   */\n      dup2\n        /* \"#utility.yul\":1072:1094   */\n      lt\n        /* \"#utility.yul\":1051:1069   */\n      0xffffffffffffffff\n        /* \"#utility.yul\":1039:1049   */\n      dup3\n        /* \"#utility.yul\":1036:1070   */\n      gt\n        /* \"#utility.yul\":1033:1095   */\n      or\n        /* \"#utility.yul\":1030:1118   */\n      iszero\n      tag_151\n      jumpi\n        /* \"#utility.yul\":1098:1116   */\n      tag_152\n      tag_107\n      jump\t// in\n    tag_152:\n        /* \"#utility.yul\":1030:1118   */\n    tag_151:\n        /* \"#utility.yul\":1138:1148   */\n      dup1\n        /* \"#utility.yul\":1134:1136   */\n      0x40\n        /* \"#utility.yul\":1127:1149   */\n      mstore\n        /* \"#utility.yul\":917:1155   */\n      pop\n        /* \"#utility.yul\":874:1155   */\n      pop\n      pop\n      jump\t// out\n        /* \"#utility.yul\":1161:1290   */\n    tag_109:\n        /* \"#utility.yul\":1195:1201   */\n      0x00\n        /* \"#utility.yul\":1222:1242   */\n      tag_154\n      tag_101\n      jump\t// in\n    tag_154:\n        /* \"#utility.yul\":1212:1242   */\n      swap1\n      pop\n        /* \"#utility.yul\":1251:1284   */\n      tag_155\n        /* \"#utility.yul\":1279:1283   */\n      dup3\n        /* \"#utility.yul\":1271:1277   */\n      dup3\n        /* \"#utility.yul\":1251:1284   */\n      tag_108\n      jump\t// in\n    tag_155:\n        /* \"#utility.yul\":1161:1290   */\n      swap2\n      swap1\n      pop\n      jump\t// out\n        /* \"#utility.yul\":1296:1603   */\n    tag_110:\n        /* \"#utility.yul\":1357:1361   */\n      0x00\n        /* \"#utility.yul\":1447:1465   */\n      0xffffffffffffffff\n        /* \"#utility.yul\":1439:1445   */\n      dup3\n        /* \"#utility.yul\":1436:1466   */\n      gt\n        /* \"#utility.yul\":1433:1489   */\n      iszero\n      tag_157\n      jumpi\n        /* \"#utility.yul\":1469:1487   */\n      tag_158\n      tag_107\n      jump\t// in\n    tag_158:\n        /* \"#utility.yul\":1433:1489   */\n    tag_157:\n        /* \"#utility.yul\":1507:1536   */\n      tag_159\n        /* \"#utility.yul\":1529:1535   */\n      dup3\n        /* \"#utility.yul\":1507:1536   */\n      tag_106\n      jump\t// in\n    tag_159:\n        /* \"#utility.yul\":1499:1536   */\n      swap1\n      pop\n        /* \"#utility.yul\":1591:1595   */\n      0x20\n        /* \"#utility.yul\":1585:1589   */\n      dup2\n        /* \"#utility.yul\":1581:1596   */\n      add\n        /* \"#utility.yul\":1573:1596   */\n      swap1\n      pop\n        /* \"#utility.yul\":1296:1603   */\n      swap2\n      swap1\n      pop\n      jump\t// out\n        /* \"#utility.yul\":1609:1757   */\n    tag_111:\n        /* \"#utility.yul\":1707:1713   */\n      dup3\n        /* \"#utility.yul\":1702:1705   */\n      dup2\n        /* \"#utility.yul\":1697:1700   */\n      dup4\n        /* \"#utility.yul\":1684:1714   */\n      calldatacopy\n        /* \"#utility.yul\":1748:1749   */\n      0x00\n        /* \"#utility.yul\":1739:1745   */\n      dup4\n        /* \"#utility.yul\":1734:1737   */\n      dup4\n        /* \"#utility.yul\":1730:1746   */\n      add\n        /* \"#utility.yul\":1723:1750   */\n      mstore\n        /* \"#utility.yul\":1609:1757   */\n      pop\n      pop\n      pop\n      jump\t// out\n        /* \"#utility.yul\":1763:2186   */\n    tag_112:\n        /* \"#utility.yul\":1840:1845   */\n      0x00\n        /* \"#utility.yul\":1865:1930   */\n      tag_162\n        /* \"#utility.yul\":1881:1929   */\n      tag_163\n        /* \"#utility.yul\":1922:1928   */\n      dup5\n        /* \"#utility.yul\":1881:1929   */\n      tag_110\n      jump\t// in\n    tag_163:\n        /* \"#utility.yul\":1865:1930   */\n      tag_109\n      jump\t// in\n    tag_162:\n        /* \"#utility.yul\":1856:1930   */\n      swap1\n      pop\n        /* \"#utility.yul\":1953:1959   */\n      dup3\n        /* \"#utility.yul\":1946:1951   */\n      dup2\n        /* \"#utility.yul\":1939:1960   */\n      mstore\n        /* \"#utility.yul\":1991:1995   */\n      0x20\n        /* \"#utility.yul\":1984:1989   */\n      dup2\n        /* \"#utility.yul\":1980:1996   */\n      add\n        /* \"#utility.yul\":2029:2032   */\n      dup5\n        /* \"#utility.yul\":2020:2026   */\n      dup5\n        /* \"#utility.yul\":2015:2018   */\n      dup5\n        /* \"#utility.yul\":2011:2027   */\n      add\n        /* \"#utility.yul\":2008:2033   */\n      gt\n        /* \"#utility.yul\":2005:2117   */\n      iszero\n      tag_164\n      jumpi\n        /* \"#utility.yul\":2036:2115   */\n      tag_165\n      tag_105\n      jump\t// in\n    tag_165:\n        /* \"#utility.yul\":2005:2117   */\n    tag_164:\n        /* \"#utility.yul\":2126:2180   */\n      tag_166\n        /* \"#utility.yul\":2173:2179   */\n      dup5\n        /* \"#utility.yul\":2168:2171   */\n      dup3\n        /* \"#utility.yul\":2163:2166   */\n      dup6\n        /* \"#utility.yul\":2126:2180   */\n      tag_111\n      jump\t// in\n    tag_166:\n        /* \"#utility.yul\":1846:2186   */\n      pop\n        /* \"#utility.yul\":1763:2186   */\n      swap4\n      swap3\n      pop\n      pop\n      pop\n      jump\t// out\n        /* \"#utility.yul\":2205:2543   */\n    tag_113:\n        /* \"#utility.yul\":2260:2265   */\n      0x00\n        /* \"#utility.yul\":2309:2312   */\n      dup3\n        /* \"#utility.yul\":2302:2306   */\n      0x1f\n        /* \"#utility.yul\":2294:2300   */\n      dup4\n        /* \"#utility.yul\":2290:2307   */\n      add\n        /* \"#utility.yul\":2286:2313   */\n      slt\n        /* \"#utility.yul\":2276:2398   */\n      tag_168\n      jumpi\n        /* \"#utility.yul\":2317:2396   */\n      tag_169\n      tag_104\n      jump\t// in\n    tag_169:\n        /* \"#utility.yul\":2276:2398   */\n    tag_168:\n        /* \"#utility.yul\":2434:2440   */\n      dup2\n        /* \"#utility.yul\":2421:2441   */\n      calldataload\n        /* \"#utility.yul\":2459:2537   */\n      tag_170\n        /* \"#utility.yul\":2533:2536   */\n      dup5\n        /* \"#utility.yul\":2525:2531   */\n      dup3\n        /* \"#utility.yul\":2518:2522   */\n      0x20\n        /* \"#utility.yul\":2510:2516   */\n      dup7\n        /* \"#utility.yul\":2506:2523   */\n      add\n        /* \"#utility.yul\":2459:2537   */\n      tag_112\n      jump\t// in\n    tag_170:\n        /* \"#utility.yul\":2450:2537   */\n      swap2\n      pop\n        /* \"#utility.yul\":2266:2543   */\n      pop\n        /* \"#utility.yul\":2205:2543   */\n      swap3\n      swap2\n      pop\n      pop\n      jump\t// out\n        /* \"#utility.yul\":2549:3056   */\n    tag_14:\n        /* \"#utility.yul\":2617:2623   */\n      0x00\n        /* \"#utility.yul\":2666:2668   */\n      0x20\n        /* \"#utility.yul\":2654:2663   */\n      dup3\n        /* \"#utility.yul\":2645:2652   */\n      dup5\n        /* \"#utility.yul\":2641:2664   */\n      sub\n        /* \"#utility.yul\":2637:2669   */\n      slt\n        /* \"#utility.yul\":2634:2753   */\n      iszero\n      tag_172\n      jumpi\n        /* \"#utility.yul\":2672:2751   */\n      tag_173\n      tag_102\n      jump\t// in\n    tag_173:\n        /* \"#utility.yul\":2634:2753   */\n    tag_172:\n        /* \"#utility.yul\":2820:2821   */\n      0x00\n        /* \"#utility.yul\":2809:2818   */\n      dup3\n        /* \"#utility.yul\":2805:2822   */\n      add\n        /* \"#utility.yul\":2792:2823   */\n      calldataload\n        /* \"#utility.yul\":2850:2868   */\n      0xffffffffffffffff\n        /* \"#utility.yul\":2842:2848   */\n      dup2\n        /* \"#utility.yul\":2839:2869   */\n      gt\n        /* \"#utility.yul\":2836:2953   */\n      iszero\n      tag_174\n      jumpi\n        /* \"#utility.yul\":2872:2951   */\n      tag_175\n      tag_103\n      jump\t// in\n    tag_175:\n        /* \"#utility.yul\":2836:2953   */\n    tag_174:\n        /* \"#utility.yul\":2977:3039   */\n      tag_176\n        /* \"#utility.yul\":3031:3038   */\n      dup5\n        /* \"#utility.yul\":3022:3028   */\n      dup3\n        /* \"#utility.yul\":3011:3020   */\n      dup6\n        /* \"#utility.yul\":3007:3029   */\n      add\n        /* \"#utility.yul\":2977:3039   */\n      tag_113\n      jump\t// in\n    tag_176:\n        /* \"#utility.yul\":2967:3039   */\n      swap2\n      pop\n        /* \"#utility.yul\":2763:3049   */\n      pop\n        /* \"#utility.yul\":2549:3056   */\n      swap3\n      swap2\n      pop\n      pop\n      jump\t// out\n        /* \"#utility.yul\":3062:3152   */\n    tag_114:\n        /* \"#utility.yul\":3096:3103   */\n      0x00\n        /* \"#utility.yul\":3139:3144   */\n      dup2\n        /* \"#utility.yul\":3132:3145   */\n      iszero\n        /* \"#utility.yul\":3125:3146   */\n      iszero\n        /* \"#utility.yul\":3114:3146   */\n      swap1\n      pop\n        /* \"#utility.yul\":3062:3152   */\n      swap2\n      swap1\n      pop\n      jump\t// out\n        /* \"#utility.yul\":3158:3267   */\n    tag_115:\n        /* \"#utility.yul\":3239:3260   */\n      tag_179\n        /* \"#utility.yul\":3254:3259   */\n      dup2\n        /* \"#utility.yul\":3239:3260   */\n      tag_114\n      jump\t// in\n    tag_179:\n        /* \"#utility.yul\":3234:3237   */\n      dup3\n        /* \"#utility.yul\":3227:3261   */\n      mstore\n        /* \"#utility.yul\":3158:3267   */\n      pop\n      pop\n      jump\t// out\n        /* \"#utility.yul\":3273:3483   */\n    tag_17:\n        /* \"#utility.yul\":3360:3364   */\n      0x00\n        /* \"#utility.yul\":3398:3400   */\n      0x20\n        /* \"#utility.yul\":3387:3396   */\n      dup3\n        /* \"#utility.yul\":3383:3401   */\n      add\n        /* \"#utility.yul\":3375:3401   */\n      swap1\n      pop\n        /* \"#utility.yul\":3411:3476   */\n      tag_181\n        /* \"#utility.yul\":3473:3474   */\n      0x00\n        /* \"#utility.yul\":3462:3471   */\n      dup4\n        /* \"#utility.yul\":3458:3475   */\n      add\n        /* \"#utility.yul\":3449:3455   */\n      dup5\n        /* \"#utility.yul\":3411:3476   */\n      tag_115\n      jump\t// in\n    tag_181:\n        /* \"#utility.yul\":3273:3483   */\n      swap3\n      swap2\n      pop\n      pop\n      jump\t// out\n        /* \"#utility.yul\":3489:3615   */\n    tag_116:\n        /* \"#utility.yul\":3526:3533   */\n      0x00\n        /* \"#utility.yul\":3566:3608   */\n      0xffffffffffffffffffffffffffffffffffffffff\n        /* \"#utility.yul\":3559:3564   */\n      dup3\n        /* \"#utility.yul\":3555:3609   */\n      and\n        /* \"#utility.yul\":3544:3609   */\n      swap1\n      pop\n        /* \"#utility.yul\":3489:3615   */\n      swap2\n      swap1\n      pop\n      jump\t// out\n        /* \"#utility.yul\":3621:3717   */\n    tag_117:\n        /* \"#utility.yul\":3658:3665   */\n      0x00\n        /* \"#utility.yul\":3687:3711   */\n      tag_184\n        /* \"#utility.yul\":3705:3710   */\n      dup3\n        /* \"#utility.yul\":3687:3711   */\n      tag_116\n      jump\t// in\n    tag_184:\n        /* \"#utility.yul\":3676:3711   */\n      swap1\n      pop\n        /* \"#utility.yul\":3621:3717   */\n      swap2\n      swap1\n      pop\n      jump\t// out\n        /* \"#utility.yul\":3723:3841   */\n    tag_118:\n        /* \"#utility.yul\":3810:3834   */\n      tag_186\n        /* \"#utility.yul\":3828:3833   */\n      dup2\n        /* \"#utility.yul\":3810:3834   */\n      tag_117\n      jump\t// in\n    tag_186:\n        /* \"#utility.yul\":3805:3808   */\n      dup3\n        /* \"#utility.yul\":3798:3835   */\n      mstore\n        /* \"#utility.yul\":3723:3841   */\n      pop\n      pop\n      jump\t// out\n        /* \"#utility.yul\":3847:4069   */\n    tag_21:\n        /* \"#utility.yul\":3940:3944   */\n      0x00\n        /* \"#utility.yul\":3978:3980   */\n      0x20\n        /* \"#utility.yul\":3967:3976   */\n      dup3\n        /* \"#utility.yul\":3963:3981   */\n      add\n        /* \"#utility.yul\":3955:3981   */\n      swap1\n      pop\n        /* \"#utility.yul\":3991:4062   */\n      tag_188\n        /* \"#utility.yul\":4059:4060   */\n      0x00\n        /* \"#utility.yul\":4048:4057   */\n      dup4\n        /* \"#utility.yul\":4044:4061   */\n      add\n        /* \"#utility.yul\":4035:4041   */\n      dup5\n        /* \"#utility.yul\":3991:4062   */\n      tag_118\n      jump\t// in\n    tag_188:\n        /* \"#utility.yul\":3847:4069   */\n      swap3\n      swap2\n      pop\n      pop\n      jump\t// out\n        /* \"#utility.yul\":4075:4192   */\n    tag_119:\n        /* \"#utility.yul\":4184:4185   */\n      0x00\n        /* \"#utility.yul\":4181:4182   */\n      0x00\n        /* \"#utility.yul\":4174:4186   */\n      revert\n        /* \"#utility.yul\":4198:4315   */\n    tag_120:\n        /* \"#utility.yul\":4307:4308   */\n      0x00\n        /* \"#utility.yul\":4304:4305   */\n      0x00\n        /* \"#utility.yul\":4297:4309   */\n      revert\n        /* \"#utility.yul\":4338:4906   */\n    tag_121:\n        /* \"#utility.yul\":4411:4419   */\n      0x00\n        /* \"#utility.yul\":4421:4427   */\n      0x00\n        /* \"#utility.yul\":4471:4474   */\n      dup4\n        /* \"#utility.yul\":4464:4468   */\n      0x1f\n        /* \"#utility.yul\":4456:4462   */\n      dup5\n        /* \"#utility.yul\":4452:4469   */\n      add\n        /* \"#utility.yul\":4448:4475   */\n      slt\n        /* \"#utility.yul\":4438:4560   */\n      tag_192\n      jumpi\n        /* \"#utility.yul\":4479:4558   */\n      tag_193\n      tag_104\n      jump\t// in\n    tag_193:\n        /* \"#utility.yul\":4438:4560   */\n    tag_192:\n        /* \"#utility.yul\":4592:4598   */\n      dup3\n        /* \"#utility.yul\":4579:4599   */\n      calldataload\n        /* \"#utility.yul\":4569:4599   */\n      swap1\n      pop\n        /* \"#utility.yul\":4622:4640   */\n      0xffffffffffffffff\n        /* \"#utility.yul\":4614:4620   */\n      dup2\n        /* \"#utility.yul\":4611:4641   */\n      gt\n        /* \"#utility.yul\":4608:4725   */\n      iszero\n      tag_194\n      jumpi\n        /* \"#utility.yul\":4644:4723   */\n      tag_195\n      tag_119\n      jump\t// in\n    tag_195:\n        /* \"#utility.yul\":4608:4725   */\n    tag_194:\n        /* \"#utility.yul\":4758:4762   */\n      0x20\n        /* \"#utility.yul\":4750:4756   */\n      dup4\n        /* \"#utility.yul\":4746:4763   */\n      add\n        /* \"#utility.yul\":4734:4763   */\n      swap2\n      pop\n        /* \"#utility.yul\":4812:4815   */\n      dup4\n        /* \"#utility.yul\":4804:4808   */\n      0x20\n        /* \"#utility.yul\":4796:4802   */\n      dup3\n        /* \"#utility.yul\":4792:4809   */\n      mul\n        /* \"#utility.yul\":4782:4790   */\n      dup4\n        /* \"#utility.yul\":4778:4810   */\n      add\n        /* \"#utility.yul\":4775:4816   */\n      gt\n        /* \"#utility.yul\":4772:4900   */\n      iszero\n      tag_196\n      jumpi\n        /* \"#utility.yul\":4819:4898   */\n      tag_197\n      tag_120\n      jump\t// in\n    tag_197:\n        /* \"#utility.yul\":4772:4900   */\n    tag_196:\n        /* \"#utility.yul\":4338:4906   */\n      swap3\n      pop\n      swap3\n      swap1\n      pop\n      jump\t// out\n        /* \"#utility.yul\":4929:5497   */\n    tag_122:\n        /* \"#utility.yul\":5002:5010   */\n      0x00\n        /* \"#utility.yul\":5012:5018   */\n      0x00\n        /* \"#utility.yul\":5062:5065   */\n      dup4\n        /* \"#utility.yul\":5055:5059   */\n      0x1f\n        /* \"#utility.yul\":5047:5053   */\n      dup5\n        /* \"#utility.yul\":5043:5060   */\n      add\n        /* \"#utility.yul\":5039:5066   */\n      slt\n        /* \"#utility.yul\":5029:5151   */\n      tag_199\n      jumpi\n        /* \"#utility.yul\":5070:5149   */\n      tag_200\n      tag_104\n      jump\t// in\n    tag_200:\n        /* \"#utility.yul\":5029:5151   */\n    tag_199:\n        /* \"#utility.yul\":5183:5189   */\n      dup3\n        /* \"#utility.yul\":5170:5190   */\n      calldataload\n        /* \"#utility.yul\":5160:5190   */\n      swap1\n      pop\n        /* \"#utility.yul\":5213:5231   */\n      0xffffffffffffffff\n        /* \"#utility.yul\":5205:5211   */\n      dup2\n        /* \"#utility.yul\":5202:5232   */\n      gt\n        /* \"#utility.yul\":5199:5316   */\n      iszero\n      tag_201\n      jumpi\n        /* \"#utility.yul\":5235:5314   */\n      tag_202\n      tag_119\n      jump\t// in\n    tag_202:\n        /* \"#utility.yul\":5199:5316   */\n    tag_201:\n        /* \"#utility.yul\":5349:5353   */\n      0x20\n        /* \"#utility.yul\":5341:5347   */\n      dup4\n        /* \"#utility.yul\":5337:5354   */\n      add\n        /* \"#utility.yul\":5325:5354   */\n      swap2\n      pop\n        /* \"#utility.yul\":5403:5406   */\n      dup4\n        /* \"#utility.yul\":5395:5399   */\n      0x20\n        /* \"#utility.yul\":5387:5393   */\n      dup3\n        /* \"#utility.yul\":5383:5400   */\n      mul\n        /* \"#utility.yul\":5373:5381   */\n      dup4\n        /* \"#utility.yul\":5369:5401   */\n      add\n        /* \"#utility.yul\":5366:5407   */\n      gt\n        /* \"#utility.yul\":5363:5491   */\n      iszero\n      tag_203\n      jumpi\n        /* \"#utility.yul\":5410:5489   */\n      tag_204\n      tag_120\n      jump\t// in\n    tag_204:\n        /* \"#utility.yul\":5363:5491   */\n    tag_203:\n        /* \"#utility.yul\":4929:5497   */\n      swap3\n      pop\n      swap3\n      swap1\n      pop\n      jump\t// out\n        /* \"#utility.yul\":5503:6437   */\n    tag_24:\n        /* \"#utility.yul\":5625:5631   */\n      0x00\n        /* \"#utility.yul\":5633:5639   */\n      0x00\n        /* \"#utility.yul\":5641:5647   */\n      0x00\n        /* \"#utility.yul\":5649:5655   */\n      0x00\n        /* \"#utility.yul\":5698:5700   */\n      0x40\n        /* \"#utility.yul\":5686:5695   */\n      dup6\n        /* \"#utility.yul\":5677:5684   */\n      dup8\n        /* \"#utility.yul\":5673:5696   */\n      sub\n        /* \"#utility.yul\":5669:5701   */\n      slt\n        /* \"#utility.yul\":5666:5785   */\n      iszero\n      tag_206\n      jumpi\n        /* \"#utility.yul\":5704:5783   */\n      tag_207\n      tag_102\n      jump\t// in\n    tag_207:\n        /* \"#utility.yul\":5666:5785   */\n    tag_206:\n        /* \"#utility.yul\":5852:5853   */\n      0x00\n        /* \"#utility.yul\":5841:5850   */\n      dup6\n        /* \"#utility.yul\":5837:5854   */\n      add\n        /* \"#utility.yul\":5824:5855   */\n      calldataload\n        /* \"#utility.yul\":5882:5900   */\n      0xffffffffffffffff\n        /* \"#utility.yul\":5874:5880   */\n      dup2\n        /* \"#utility.yul\":5871:5901   */\n      gt\n        /* \"#utility.yul\":5868:5985   */\n      iszero\n      tag_208\n      jumpi\n        /* \"#utility.yul\":5904:5983   */\n      tag_209\n      tag_103\n      jump\t// in\n    tag_209:\n        /* \"#utility.yul\":5868:5985   */\n    tag_208:\n        /* \"#utility.yul\":6017:6097   */\n      tag_210\n        /* \"#utility.yul\":6089:6096   */\n      dup8\n        /* \"#utility.yul\":6080:6086   */\n      dup3\n        /* \"#utility.yul\":6069:6078   */\n      dup9\n        /* \"#utility.yul\":6065:6087   */\n      add\n        /* \"#utility.yul\":6017:6097   */\n      tag_121\n      jump\t// in\n    tag_210:\n        /* \"#utility.yul\":5999:6097   */\n      swap5\n      pop\n      swap5\n      pop\n        /* \"#utility.yul\":5795:6107   */\n      pop\n        /* \"#utility.yul\":6174:6176   */\n      0x20\n        /* \"#utility.yul\":6163:6172   */\n      dup6\n        /* \"#utility.yul\":6159:6177   */\n      add\n        /* \"#utility.yul\":6146:6178   */\n      calldataload\n        /* \"#utility.yul\":6205:6223   */\n      0xffffffffffffffff\n        /* \"#utility.yul\":6197:6203   */\n      dup2\n        /* \"#utility.yul\":6194:6224   */\n      gt\n        /* \"#utility.yul\":6191:6308   */\n      iszero\n      tag_211\n      jumpi\n        /* \"#utility.yul\":6227:6306   */\n      tag_212\n      tag_103\n      jump\t// in\n    tag_212:\n        /* \"#utility.yul\":6191:6308   */\n    tag_211:\n        /* \"#utility.yul\":6340:6420   */\n      tag_213\n        /* \"#utility.yul\":6412:6419   */\n      dup8\n        /* \"#utility.yul\":6403:6409   */\n      dup3\n        /* \"#utility.yul\":6392:6401   */\n      dup9\n        /* \"#utility.yul\":6388:6410   */\n      add\n        /* \"#utility.yul\":6340:6420   */\n      tag_122\n      jump\t// in\n    tag_213:\n        /* \"#utility.yul\":6322:6420   */\n      swap3\n      pop\n      swap3\n      pop\n        /* \"#utility.yul\":6117:6430   */\n      pop\n        /* \"#utility.yul\":5503:6437   */\n      swap3\n      swap6\n      swap2\n      swap5\n      pop\n      swap3\n      pop\n      jump\t// out\n        /* \"#utility.yul\":6443:6565   */\n    tag_123:\n        /* \"#utility.yul\":6516:6540   */\n      tag_215\n        /* \"#utility.yul\":6534:6539   */\n      dup2\n        /* \"#utility.yul\":6516:6540   */\n      tag_117\n      jump\t// in\n    tag_215:\n        /* \"#utility.yul\":6509:6514   */\n      dup2\n        /* \"#utility.yul\":6506:6541   */\n      eq\n        /* \"#utility.yul\":6496:6559   */\n      tag_216\n      jumpi\n        /* \"#utility.yul\":6555:6556   */\n      0x00\n        /* \"#utility.yul\":6552:6553   */\n      0x00\n        /* \"#utility.yul\":6545:6557   */\n      revert\n        /* \"#utility.yul\":6496:6559   */\n    tag_216:\n        /* \"#utility.yul\":6443:6565   */\n      pop\n      jump\t// out\n        /* \"#utility.yul\":6571:6710   */\n    tag_124:\n        /* \"#utility.yul\":6617:6622   */\n      0x00\n        /* \"#utility.yul\":6655:6661   */\n      dup2\n        /* \"#utility.yul\":6642:6662   */\n      calldataload\n        /* \"#utility.yul\":6633:6662   */\n      swap1\n      pop\n        /* \"#utility.yul\":6671:6704   */\n      tag_218\n        /* \"#utility.yul\":6698:6703   */\n      dup2\n        /* \"#utility.yul\":6671:6704   */\n      tag_123\n      jump\t// in\n    tag_218:\n        /* \"#utility.yul\":6571:6710   */\n      swap3\n      swap2\n      pop\n      pop\n      jump\t// out\n        /* \"#utility.yul\":6716:7335   */\n    tag_33:\n        /* \"#utility.yul\":6793:6799   */\n      0x00\n        /* \"#utility.yul\":6801:6807   */\n      0x00\n        /* \"#utility.yul\":6809:6815   */\n      0x00\n        /* \"#utility.yul\":6858:6860   */\n      0x60\n        /* \"#utility.yul\":6846:6855   */\n      dup5\n        /* \"#utility.yul\":6837:6844   */\n      dup7\n        /* \"#utility.yul\":6833:6856   */\n      sub\n        /* \"#utility.yul\":6829:6861   */\n      slt\n        /* \"#utility.yul\":6826:6945   */\n      iszero\n      tag_220\n      jumpi\n        /* \"#utility.yul\":6864:6943   */\n      tag_221\n      tag_102\n      jump\t// in\n    tag_221:\n        /* \"#utility.yul\":6826:6945   */\n    tag_220:\n        /* \"#utility.yul\":6984:6985   */\n      0x00\n        /* \"#utility.yul\":7009:7062   */\n      tag_222\n        /* \"#utility.yul\":7054:7061   */\n      dup7\n        /* \"#utility.yul\":7045:7051   */\n      dup3\n        /* \"#utility.yul\":7034:7043   */\n      dup8\n        /* \"#utility.yul\":7030:7052   */\n      add\n        /* \"#utility.yul\":7009:7062   */\n      tag_124\n      jump\t// in\n    tag_222:\n        /* \"#utility.yul\":6999:7062   */\n      swap4\n      pop\n        /* \"#utility.yul\":6955:7072   */\n      pop\n        /* \"#utility.yul\":7111:7113   */\n      0x20\n        /* \"#utility.yul\":7137:7190   */\n      tag_223\n        /* \"#utility.yul\":7182:7189   */\n      dup7\n        /* \"#utility.yul\":7173:7179   */\n      dup3\n        /* \"#utility.yul\":7162:7171   */\n      dup8\n        /* \"#utility.yul\":7158:7180   */\n      add\n        /* \"#utility.yul\":7137:7190   */\n      tag_124\n      jump\t// in\n    tag_223:\n        /* \"#utility.yul\":7127:7190   */\n      swap3\n      pop\n        /* \"#utility.yul\":7082:7200   */\n      pop\n        /* \"#utility.yul\":7239:7241   */\n      0x40\n        /* \"#utility.yul\":7265:7318   */\n      tag_224\n        /* \"#utility.yul\":7310:7317   */\n      dup7\n        /* \"#utility.yul\":7301:7307   */\n      dup3\n        /* \"#utility.yul\":7290:7299   */\n      dup8\n        /* \"#utility.yul\":7286:7308   */\n      add\n        /* \"#utility.yul\":7265:7318   */\n      tag_124\n      jump\t// in\n    tag_224:\n        /* \"#utility.yul\":7255:7318   */\n      swap2\n      pop\n        /* \"#utility.yul\":7210:7328   */\n      pop\n        /* \"#utility.yul\":6716:7335   */\n      swap3\n      pop\n      swap3\n      pop\n      swap3\n      jump\t// out\n        /* \"#utility.yul\":7341:7439   */\n    tag_125:\n        /* \"#utility.yul\":7392:7398   */\n      0x00\n        /* \"#utility.yul\":7426:7431   */\n      dup2\n        /* \"#utility.yul\":7420:7432   */\n      mload\n        /* \"#utility.yul\":7410:7432   */\n      swap1\n      pop\n        /* \"#utility.yul\":7341:7439   */\n      swap2\n      swap1\n      pop\n      jump\t// out\n        /* \"#utility.yul\":7445:7613   */\n    tag_126:\n        /* \"#utility.yul\":7528:7539   */\n      0x00\n        /* \"#utility.yul\":7562:7568   */\n      dup3\n        /* \"#utility.yul\":7557:7560   */\n      dup3\n        /* \"#utility.yul\":7550:7569   */\n      mstore\n        /* \"#utility.yul\":7602:7606   */\n      0x20\n        /* \"#utility.yul\":7597:7600   */\n      dup3\n        /* \"#utility.yul\":7593:7607   */\n      add\n        /* \"#utility.yul\":7578:7607   */\n      swap1\n      pop\n        /* \"#utility.yul\":7445:7613   */\n      swap3\n      swap2\n      pop\n      pop\n      jump\t// out\n        /* \"#utility.yul\":7619:7758   */\n    tag_127:\n        /* \"#utility.yul\":7708:7714   */\n      dup3\n        /* \"#utility.yul\":7703:7706   */\n      dup2\n        /* \"#utility.yul\":7698:7701   */\n      dup4\n        /* \"#utility.yul\":7692:7715   */\n      mcopy\n        /* \"#utility.yul\":7749:7750   */\n      0x00\n        /* \"#utility.yul\":7740:7746   */\n      dup4\n        /* \"#utility.yul\":7735:7738   */\n      dup4\n        /* \"#utility.yul\":7731:7747   */\n      add\n        /* \"#utility.yul\":7724:7751   */\n      mstore\n        /* \"#utility.yul\":7619:7758   */\n      pop\n      pop\n      pop\n      jump\t// out\n        /* \"#utility.yul\":7764:8137   */\n    tag_128:\n        /* \"#utility.yul\":7850:7853   */\n      0x00\n        /* \"#utility.yul\":7878:7916   */\n      tag_229\n        /* \"#utility.yul\":7910:7915   */\n      dup3\n        /* \"#utility.yul\":7878:7916   */\n      tag_125\n      jump\t// in\n    tag_229:\n        /* \"#utility.yul\":7932:8002   */\n      tag_230\n        /* \"#utility.yul\":7995:8001   */\n      dup2\n        /* \"#utility.yul\":7990:7993   */\n      dup6\n        /* \"#utility.yul\":7932:8002   */\n      tag_126\n      jump\t// in\n    tag_230:\n        /* \"#utility.yul\":7925:8002   */\n      swap4\n      pop\n        /* \"#utility.yul\":8011:8076   */\n      tag_231\n        /* \"#utility.yul\":8069:8075   */\n      dup2\n        /* \"#utility.yul\":8064:8067   */\n      dup6\n        /* \"#utility.yul\":8057:8061   */\n      0x20\n        /* \"#utility.yul\":8050:8055   */\n      dup7\n        /* \"#utility.yul\":8046:8062   */\n      add\n        /* \"#utility.yul\":8011:8076   */\n      tag_127\n      jump\t// in\n    tag_231:\n        /* \"#utility.yul\":8101:8130   */\n      tag_232\n        /* \"#utility.yul\":8123:8129   */\n      dup2\n        /* \"#utility.yul\":8101:8130   */\n      tag_106\n      jump\t// in\n    tag_232:\n        /* \"#utility.yul\":8096:8099   */\n      dup5\n        /* \"#utility.yul\":8092:8131   */\n      add\n        /* \"#utility.yul\":8085:8131   */\n      swap2\n      pop\n        /* \"#utility.yul\":7854:8137   */\n      pop\n        /* \"#utility.yul\":7764:8137   */\n      swap3\n      swap2\n      pop\n      pop\n      jump\t// out\n        /* \"#utility.yul\":8143:8452   */\n    tag_36:\n        /* \"#utility.yul\":8254:8258   */\n      0x00\n        /* \"#utility.yul\":8292:8294   */\n      0x20\n        /* \"#utility.yul\":8281:8290   */\n      dup3\n        /* \"#utility.yul\":8277:8295   */\n      add\n        /* \"#utility.yul\":8269:8295   */\n      swap1\n      pop\n        /* \"#utility.yul\":8341:8350   */\n      dup2\n        /* \"#utility.yul\":8335:8339   */\n      dup2\n        /* \"#utility.yul\":8331:8351   */\n      sub\n        /* \"#utility.yul\":8327:8328   */\n      0x00\n        /* \"#utility.yul\":8316:8325   */\n      dup4\n        /* \"#utility.yul\":8312:8329   */\n      add\n        /* \"#utility.yul\":8305:8352   */\n      mstore\n        /* \"#utility.yul\":8369:8445   */\n      tag_234\n        /* \"#utility.yul\":8440:8444   */\n      dup2\n        /* \"#utility.yul\":8431:8437   */\n      dup5\n        /* \"#utility.yul\":8369:8445   */\n      tag_128\n      jump\t// in\n    tag_234:\n        /* \"#utility.yul\":8361:8445   */\n      swap1\n      pop\n        /* \"#utility.yul\":8143:8452   */\n      swap3\n      swap2\n      pop\n      pop\n      jump\t// out\n        /* \"#utility.yul\":8458:8787   */\n    tag_39:\n        /* \"#utility.yul\":8517:8523   */\n      0x00\n        /* \"#utility.yul\":8566:8568   */\n      0x20\n        /* \"#utility.yul\":8554:8563   */\n      dup3\n        /* \"#utility.yul\":8545:8552   */\n      dup5\n        /* \"#utility.yul\":8541:8564   */\n      sub\n        /* \"#utility.yul\":8537:8569   */\n      slt\n        /* \"#utility.yul\":8534:8653   */\n      iszero\n      tag_236\n      jumpi\n        /* \"#utility.yul\":8572:8651   */\n      tag_237\n      tag_102\n      jump\t// in\n    tag_237:\n        /* \"#utility.yul\":8534:8653   */\n    tag_236:\n        /* \"#utility.yul\":8692:8693   */\n      0x00\n        /* \"#utility.yul\":8717:8770   */\n      tag_238\n        /* \"#utility.yul\":8762:8769   */\n      dup5\n        /* \"#utility.yul\":8753:8759   */\n      dup3\n        /* \"#utility.yul\":8742:8751   */\n      dup6\n        /* \"#utility.yul\":8738:8760   */\n      add\n        /* \"#utility.yul\":8717:8770   */\n      tag_124\n      jump\t// in\n    tag_238:\n        /* \"#utility.yul\":8707:8770   */\n      swap2\n      pop\n        /* \"#utility.yul\":8663:8780   */\n      pop\n        /* \"#utility.yul\":8458:8787   */\n      swap3\n      swap2\n      pop\n      pop\n      jump\t// out\n        /* \"#utility.yul\":8793:8853   */\n    tag_129:\n        /* \"#utility.yul\":8821:8824   */\n      0x00\n        /* \"#utility.yul\":8842:8847   */\n      dup2\n        /* \"#utility.yul\":8835:8847   */\n      swap1\n      pop\n        /* \"#utility.yul\":8793:8853   */\n      swap2\n      swap1\n      pop\n      jump\t// out\n        /* \"#utility.yul\":8859:9001   */\n    tag_130:\n        /* \"#utility.yul\":8909:8918   */\n      0x00\n        /* \"#utility.yul\":8942:8995   */\n      tag_241\n        /* \"#utility.yul\":8960:8994   */\n      tag_242\n        /* \"#utility.yul\":8969:8993   */\n      tag_243\n        /* \"#utility.yul\":8987:8992   */\n      dup5\n        /* \"#utility.yul\":8969:8993   */\n      tag_116\n      jump\t// in\n    tag_243:\n        /* \"#utility.yul\":8960:8994   */\n      tag_129\n      jump\t// in\n    tag_242:\n        /* \"#utility.yul\":8942:8995   */\n      tag_116\n      jump\t// in\n    tag_241:\n        /* \"#utility.yul\":8929:8995   */\n      swap1\n      pop\n        /* \"#utility.yul\":8859:9001   */\n      swap2\n      swap1\n      pop\n      jump\t// out\n        /* \"#utility.yul\":9007:9133   */\n    tag_131:\n        /* \"#utility.yul\":9057:9066   */\n      0x00\n        /* \"#utility.yul\":9090:9127   */\n      tag_245\n        /* \"#utility.yul\":9121:9126   */\n      dup3\n        /* \"#utility.yul\":9090:9127   */\n      tag_130\n      jump\t// in\n    tag_245:\n        /* \"#utility.yul\":9077:9127   */\n      swap1\n      pop\n        /* \"#utility.yul\":9007:9133   */\n      swap2\n      swap1\n      pop\n      jump\t// out\n        /* \"#utility.yul\":9139:9280   */\n    tag_132:\n        /* \"#utility.yul\":9204:9213   */\n      0x00\n        /* \"#utility.yul\":9237:9274   */\n      tag_247\n        /* \"#utility.yul\":9268:9273   */\n      dup3\n        /* \"#utility.yul\":9237:9274   */\n      tag_131\n      jump\t// in\n    tag_247:\n        /* \"#utility.yul\":9224:9274   */\n      swap1\n      pop\n        /* \"#utility.yul\":9139:9280   */\n      swap2\n      swap1\n      pop\n      jump\t// out\n        /* \"#utility.yul\":9286:9447   */\n    tag_133:\n        /* \"#utility.yul\":9388:9440   */\n      tag_249\n        /* \"#utility.yul\":9434:9439   */\n      dup2\n        /* \"#utility.yul\":9388:9440   */\n      tag_132\n      jump\t// in\n    tag_249:\n        /* \"#utility.yul\":9383:9386   */\n      dup3\n        /* \"#utility.yul\":9376:9441   */\n      mstore\n        /* \"#utility.yul\":9286:9447   */\n      pop\n      pop\n      jump\t// out\n        /* \"#utility.yul\":9453:9705   */\n    tag_44:\n        /* \"#utility.yul\":9561:9565   */\n      0x00\n        /* \"#utility.yul\":9599:9601   */\n      0x20\n        /* \"#utility.yul\":9588:9597   */\n      dup3\n        /* \"#utility.yul\":9584:9602   */\n      add\n        /* \"#utility.yul\":9576:9602   */\n      swap1\n      pop\n        /* \"#utility.yul\":9612:9698   */\n      tag_251\n        /* \"#utility.yul\":9695:9696   */\n      0x00\n        /* \"#utility.yul\":9684:9693   */\n      dup4\n        /* \"#utility.yul\":9680:9697   */\n      add\n        /* \"#utility.yul\":9671:9677   */\n      dup5\n        /* \"#utility.yul\":9612:9698   */\n      tag_133\n      jump\t// in\n    tag_251:\n        /* \"#utility.yul\":9453:9705   */\n      swap3\n      swap2\n      pop\n      pop\n      jump\t// out\n        /* \"#utility.yul\":9711:9815   */\n    tag_134:\n        /* \"#utility.yul\":9756:9763   */\n      0x00\n        /* \"#utility.yul\":9785:9809   */\n      tag_253\n        /* \"#utility.yul\":9803:9808   */\n      dup3\n        /* \"#utility.yul\":9785:9809   */\n      tag_116\n      jump\t// in\n    tag_253:\n        /* \"#utility.yul\":9774:9809   */\n      swap1\n      pop\n        /* \"#utility.yul\":9711:9815   */\n      swap2\n      swap1\n      pop\n      jump\t// out\n        /* \"#utility.yul\":9821:9959   */\n    tag_135:\n        /* \"#utility.yul\":9902:9934   */\n      tag_255\n        /* \"#utility.yul\":9928:9933   */\n      dup2\n        /* \"#utility.yul\":9902:9934   */\n      tag_134\n      jump\t// in\n    tag_255:\n        /* \"#utility.yul\":9895:9900   */\n      dup2\n        /* \"#utility.yul\":9892:9935   */\n      eq\n        /* \"#utility.yul\":9882:9953   */\n      tag_256\n      jumpi\n        /* \"#utility.yul\":9949:9950   */\n      0x00\n        /* \"#utility.yul\":9946:9947   */\n      0x00\n        /* \"#utility.yul\":9939:9951   */\n      revert\n        /* \"#utility.yul\":9882:9953   */\n    tag_256:\n        /* \"#utility.yul\":9821:9959   */\n      pop\n      jump\t// out\n        /* \"#utility.yul\":9965:10124   */\n    tag_136:\n        /* \"#utility.yul\":10030:10035   */\n      0x00\n        /* \"#utility.yul\":10061:10067   */\n      dup2\n        /* \"#utility.yul\":10055:10068   */\n      mload\n        /* \"#utility.yul\":10046:10068   */\n      swap1\n      pop\n        /* \"#utility.yul\":10077:10118   */\n      tag_258\n        /* \"#utility.yul\":10112:10117   */\n      dup2\n        /* \"#utility.yul\":10077:10118   */\n      tag_135\n      jump\t// in\n    tag_258:\n        /* \"#utility.yul\":9965:10124   */\n      swap3\n      swap2\n      pop\n      pop\n      jump\t// out\n        /* \"#utility.yul\":10130:10841   */\n    tag_49:\n        /* \"#utility.yul\":10242:10248   */\n      0x00\n        /* \"#utility.yul\":10250:10256   */\n      0x00\n        /* \"#utility.yul\":10258:10264   */\n      0x00\n        /* \"#utility.yul\":10307:10309   */\n      0x60\n        /* \"#utility.yul\":10295:10304   */\n      dup5\n        /* \"#utility.yul\":10286:10293   */\n      dup7\n        /* \"#utility.yul\":10282:10305   */\n      sub\n        /* \"#utility.yul\":10278:10310   */\n      slt\n        /* \"#utility.yul\":10275:10394   */\n      iszero\n      tag_260\n      jumpi\n        /* \"#utility.yul\":10313:10392   */\n      tag_261\n      tag_102\n      jump\t// in\n    tag_261:\n        /* \"#utility.yul\":10275:10394   */\n    tag_260:\n        /* \"#utility.yul\":10433:10434   */\n      0x00\n        /* \"#utility.yul\":10458:10530   */\n      tag_262\n        /* \"#utility.yul\":10522:10529   */\n      dup7\n        /* \"#utility.yul\":10513:10519   */\n      dup3\n        /* \"#utility.yul\":10502:10511   */\n      dup8\n        /* \"#utility.yul\":10498:10520   */\n      add\n        /* \"#utility.yul\":10458:10530   */\n      tag_136\n      jump\t// in\n    tag_262:\n        /* \"#utility.yul\":10448:10530   */\n      swap4\n      pop\n        /* \"#utility.yul\":10404:10540   */\n      pop\n        /* \"#utility.yul\":10579:10581   */\n      0x20\n        /* \"#utility.yul\":10605:10677   */\n      tag_263\n        /* \"#utility.yul\":10669:10676   */\n      dup7\n        /* \"#utility.yul\":10660:10666   */\n      dup3\n        /* \"#utility.yul\":10649:10658   */\n      dup8\n        /* \"#utility.yul\":10645:10667   */\n      add\n        /* \"#utility.yul\":10605:10677   */\n      tag_136\n      jump\t// in\n    tag_263:\n        /* \"#utility.yul\":10595:10677   */\n      swap3\n      pop\n        /* \"#utility.yul\":10550:10687   */\n      pop\n        /* \"#utility.yul\":10726:10728   */\n      0x40\n        /* \"#utility.yul\":10752:10824   */\n      tag_264\n        /* \"#utility.yul\":10816:10823   */\n      dup7\n        /* \"#utility.yul\":10807:10813   */\n      dup3\n        /* \"#utility.yul\":10796:10805   */\n      dup8\n        /* \"#utility.yul\":10792:10814   */\n      add\n        /* \"#utility.yul\":10752:10824   */\n      tag_136\n      jump\t// in\n    tag_264:\n        /* \"#utility.yul\":10742:10824   */\n      swap2\n      pop\n        /* \"#utility.yul\":10697:10834   */\n      pop\n        /* \"#utility.yul\":10130:10841   */\n      swap3\n      pop\n      swap3\n      pop\n      swap3\n      jump\t// out\n        /* \"#utility.yul\":10847:11179   */\n    tag_57:\n        /* \"#utility.yul\":10968:10972   */\n      0x00\n        /* \"#utility.yul\":11006:11008   */\n      0x40\n        /* \"#utility.yul\":10995:11004   */\n      dup3\n        /* \"#utility.yul\":10991:11009   */\n      add\n        /* \"#utility.yul\":10983:11009   */\n      swap1\n      pop\n        /* \"#utility.yul\":11019:11090   */\n      tag_266\n        /* \"#utility.yul\":11087:11088   */\n      0x00\n        /* \"#utility.yul\":11076:11085   */\n      dup4\n        /* \"#utility.yul\":11072:11089   */\n      add\n        /* \"#utility.yul\":11063:11069   */\n      dup6\n        /* \"#utility.yul\":11019:11090   */\n      tag_118\n      jump\t// in\n    tag_266:\n        /* \"#utility.yul\":11100:11172   */\n      tag_267\n        /* \"#utility.yul\":11168:11170   */\n      0x20\n        /* \"#utility.yul\":11157:11166   */\n      dup4\n        /* \"#utility.yul\":11153:11171   */\n      add\n        /* \"#utility.yul\":11144:11150   */\n      dup5\n        /* \"#utility.yul\":11100:11172   */\n      tag_118\n      jump\t// in\n    tag_267:\n        /* \"#utility.yul\":10847:11179   */\n      swap4\n      swap3\n      pop\n      pop\n      pop\n      jump\t// out\n        /* \"#utility.yul\":11185:11301   */\n    tag_137:\n        /* \"#utility.yul\":11255:11276   */\n      tag_269\n        /* \"#utility.yul\":11270:11275   */\n      dup2\n        /* \"#utility.yul\":11255:11276   */\n      tag_114\n      jump\t// in\n    tag_269:\n        /* \"#utility.yul\":11248:11253   */\n      dup2\n        /* \"#utility.yul\":11245:11277   */\n      eq\n        /* \"#utility.yul\":11235:11295   */\n      tag_270\n      jumpi\n        /* \"#utility.yul\":11291:11292   */\n      0x00\n        /* \"#utility.yul\":11288:11289   */\n      0x00\n        /* \"#utility.yul\":11281:11293   */\n      revert\n        /* \"#utility.yul\":11235:11295   */\n    tag_270:\n        /* \"#utility.yul\":11185:11301   */\n      pop\n      jump\t// out\n        /* \"#utility.yul\":11307:11444   */\n    tag_138:\n        /* \"#utility.yul\":11361:11366   */\n      0x00\n        /* \"#utility.yul\":11392:11398   */\n      dup2\n        /* \"#utility.yul\":11386:11399   */\n      mload\n        /* \"#utility.yul\":11377:11399   */\n      swap1\n      pop\n        /* \"#utility.yul\":11408:11438   */\n      tag_272\n        /* \"#utility.yul\":11432:11437   */\n      dup2\n        /* \"#utility.yul\":11408:11438   */\n      tag_137\n      jump\t// in\n    tag_272:\n        /* \"#utility.yul\":11307:11444   */\n      swap3\n      swap2\n      pop\n      pop\n      jump\t// out\n        /* \"#utility.yul\":11450:11795   */\n    tag_61:\n        /* \"#utility.yul\":11517:11523   */\n      0x00\n        /* \"#utility.yul\":11566:11568   */\n      0x20\n        /* \"#utility.yul\":11554:11563   */\n      dup3\n        /* \"#utility.yul\":11545:11552   */\n      dup5\n        /* \"#utility.yul\":11541:11564   */\n      sub\n        /* \"#utility.yul\":11537:11569   */\n      slt\n        /* \"#utility.yul\":11534:11653   */\n      iszero\n      tag_274\n      jumpi\n        /* \"#utility.yul\":11572:11651   */\n      tag_275\n      tag_102\n      jump\t// in\n    tag_275:\n        /* \"#utility.yul\":11534:11653   */\n    tag_274:\n        /* \"#utility.yul\":11692:11693   */\n      0x00\n        /* \"#utility.yul\":11717:11778   */\n      tag_276\n        /* \"#utility.yul\":11770:11777   */\n      dup5\n        /* \"#utility.yul\":11761:11767   */\n      dup3\n        /* \"#utility.yul\":11750:11759   */\n      dup6\n        /* \"#utility.yul\":11746:11768   */\n      add\n        /* \"#utility.yul\":11717:11778   */\n      tag_138\n      jump\t// in\n    tag_276:\n        /* \"#utility.yul\":11707:11778   */\n      swap2\n      pop\n        /* \"#utility.yul\":11663:11788   */\n      pop\n        /* \"#utility.yul\":11450:11795   */\n      swap3\n      swap2\n      pop\n      pop\n      jump\t// out\n        /* \"#utility.yul\":11801:11981   */\n    tag_68:\n        /* \"#utility.yul\":11849:11926   */\n      0x4e487b7100000000000000000000000000000000000000000000000000000000\n        /* \"#utility.yul\":11846:11847   */\n      0x00\n        /* \"#utility.yul\":11839:11927   */\n      mstore\n        /* \"#utility.yul\":11946:11950   */\n      0x32\n        /* \"#utility.yul\":11943:11944   */\n      0x04\n        /* \"#utility.yul\":11936:11951   */\n      mstore\n        /* \"#utility.yul\":11970:11974   */\n      0x24\n        /* \"#utility.yul\":11967:11968   */\n      0x00\n        /* \"#utility.yul\":11960:11975   */\n      revert\n        /* \"#utility.yul\":11987:12064   */\n    tag_139:\n        /* \"#utility.yul\":12024:12031   */\n      0x00\n        /* \"#utility.yul\":12053:12058   */\n      dup2\n        /* \"#utility.yul\":12042:12058   */\n      swap1\n      pop\n        /* \"#utility.yul\":11987:12064   */\n      swap2\n      swap1\n      pop\n      jump\t// out\n        /* \"#utility.yul\":12070:12188   */\n    tag_140:\n        /* \"#utility.yul\":12157:12181   */\n      tag_280\n        /* \"#utility.yul\":12175:12180   */\n      dup2\n        /* \"#utility.yul\":12157:12181   */\n      tag_139\n      jump\t// in\n    tag_280:\n        /* \"#utility.yul\":12152:12155   */\n      dup3\n        /* \"#utility.yul\":12145:12182   */\n      mstore\n        /* \"#utility.yul\":12070:12188   */\n      pop\n      pop\n      jump\t// out\n        /* \"#utility.yul\":12194:12636   */\n    tag_73:\n        /* \"#utility.yul\":12343:12347   */\n      0x00\n        /* \"#utility.yul\":12381:12383   */\n      0x60\n        /* \"#utility.yul\":12370:12379   */\n      dup3\n        /* \"#utility.yul\":12366:12384   */\n      add\n        /* \"#utility.yul\":12358:12384   */\n      swap1\n      pop\n        /* \"#utility.yul\":12394:12465   */\n      tag_282\n        /* \"#utility.yul\":12462:12463   */\n      0x00\n        /* \"#utility.yul\":12451:12460   */\n      dup4\n        /* \"#utility.yul\":12447:12464   */\n      add\n        /* \"#utility.yul\":12438:12444   */\n      dup7\n        /* \"#utility.yul\":12394:12465   */\n      tag_118\n      jump\t// in\n    tag_282:\n        /* \"#utility.yul\":12475:12547   */\n      tag_283\n        /* \"#utility.yul\":12543:12545   */\n      0x20\n        /* \"#utility.yul\":12532:12541   */\n      dup4\n        /* \"#utility.yul\":12528:12546   */\n      add\n        /* \"#utility.yul\":12519:12525   */\n      dup6\n        /* \"#utility.yul\":12475:12547   */\n      tag_118\n      jump\t// in\n    tag_283:\n        /* \"#utility.yul\":12557:12629   */\n      tag_284\n        /* \"#utility.yul\":12625:12627   */\n      0x40\n        /* \"#utility.yul\":12614:12623   */\n      dup4\n        /* \"#utility.yul\":12610:12628   */\n      add\n        /* \"#utility.yul\":12601:12607   */\n      dup5\n        /* \"#utility.yul\":12557:12629   */\n      tag_140\n      jump\t// in\n    tag_284:\n        /* \"#utility.yul\":12194:12636   */\n      swap5\n      swap4\n      pop\n      pop\n      pop\n      pop\n      jump\t// out\n        /* \"#utility.yul\":12642:13084   */\n    tag_85:\n        /* \"#utility.yul\":12791:12795   */\n      0x00\n        /* \"#utility.yul\":12829:12831   */\n      0x60\n        /* \"#utility.yul\":12818:12827   */\n      dup3\n        /* \"#utility.yul\":12814:12832   */\n      add\n        /* \"#utility.yul\":12806:12832   */\n      swap1\n      pop\n        /* \"#utility.yul\":12842:12913   */\n      tag_286\n        /* \"#utility.yul\":12910:12911   */\n      0x00\n        /* \"#utility.yul\":12899:12908   */\n      dup4\n        /* \"#utility.yul\":12895:12912   */\n      add\n        /* \"#utility.yul\":12886:12892   */\n      dup7\n        /* \"#utility.yul\":12842:12913   */\n      tag_118\n      jump\t// in\n    tag_286:\n        /* \"#utility.yul\":12923:12995   */\n      tag_287\n        /* \"#utility.yul\":12991:12993   */\n      0x20\n        /* \"#utility.yul\":12980:12989   */\n      dup4\n        /* \"#utility.yul\":12976:12994   */\n      add\n        /* \"#utility.yul\":12967:12973   */\n      dup6\n        /* \"#utility.yul\":12923:12995   */\n      tag_118\n      jump\t// in\n    tag_287:\n        /* \"#utility.yul\":13005:13077   */\n      tag_288\n        /* \"#utility.yul\":13073:13075   */\n      0x40\n        /* \"#utility.yul\":13062:13071   */\n      dup4\n        /* \"#utility.yul\":13058:13076   */\n      add\n        /* \"#utility.yul\":13049:13055   */\n      dup5\n        /* \"#utility.yul\":13005:13077   */\n      tag_118\n      jump\t// in\n    tag_288:\n        /* \"#utility.yul\":12642:13084   */\n      swap5\n      swap4\n      pop\n      pop\n      pop\n      pop\n      jump\t// out\n\n    auxdata: 0xa26469706673582212208c314868baa644f1d17be72066432661f3b0d4b86aed33a445a8a61bb54f323464736f6c634300081d0033\n}\n",
				"bytecode": {
					"linkReferences": {},
					"object": "608060405234801561000f575f5ffd5b50335f73ffffffffffffffffffffffffffffffffffffffff168173ffffffffffffffffffffffffffffffffffffffff1603610081575f6040517f1e4fbdf70000000000000000000000000000000000000000000000000000000081526004016100789190610196565b60405180910390fd5b6100908161009660201b60201c565b506101af565b5f5f5f9054906101000a900473ffffffffffffffffffffffffffffffffffffffff169050815f5f6101000a81548173ffffffffffffffffffffffffffffffffffffffff021916908373ffffffffffffffffffffffffffffffffffffffff1602179055508173ffffffffffffffffffffffffffffffffffffffff168173ffffffffffffffffffffffffffffffffffffffff167f8be0079c531659141344cd1fd0a4f28419497f9722a3daafe3b4186f6b6457e060405160405180910390a35050565b5f73ffffffffffffffffffffffffffffffffffffffff82169050919050565b5f61018082610157565b9050919050565b61019081610176565b82525050565b5f6020820190506101a95f830184610187565b92915050565b610e3e806101bc5f395ff3fe608060405234801561000f575f5ffd5b5060043610610086575f3560e01c80638da5cb5b116100595780638da5cb5b146100fe578063c475dda91461011c578063f2fde38b1461014c578063fc0c546a1461016857610086565b8063439fab911461008a57806361d027b3146100ba57806367243482146100d8578063715018a6146100f4575b5f5ffd5b6100a4600480360381019061009f91906108b7565b610186565b6040516100b19190610918565b60405180910390f35b6100c261029b565b6040516100cf9190610970565b60405180910390f35b6100f260048036038101906100ed9190610a3b565b6102c0565b005b6100fc610509565b005b61010661051c565b6040516101139190610970565b60405180910390f35b61013660048036038101906101319190610ae3565b610543565b6040516101439190610b93565b60405180910390f35b61016660048036038101906101619190610bb3565b610572565b005b6101706105f6565b60405161017d9190610c39565b60405180910390f35b5f600260149054906101000a900460ff16156101ce576040517f0dc149f000000000000000000000000000000000000000000000000000000000815260040160405180910390fd5b5f5f5f848060200190518101906101e59190610c8d565b9250925092508260015f6101000a81548173ffffffffffffffffffffffffffffffffffffffff021916908373ffffffffffffffffffffffffffffffffffffffff1602179055508160025f6101000a81548173ffffffffffffffffffffffffffffffffffffffff021916908373ffffffffffffffffffffffffffffffffffffffff16021790555061027481610572565b6001600260146101000a81548160ff02191690831515021790555060019350505050919050565b60025f9054906101000a900473ffffffffffffffffffffffffffffffffffffffff1681565b6102c861061b565b818190508484905014610307576040517ffc23596000000000000000000000000000000000000000000000000000000000815260040160405180910390fd5b60015f9054906101000a900473ffffffffffffffffffffffffffffffffffffffff1673ffffffffffffffffffffffffffffffffffffffff1663e985e9c560025f9054906101000a900473ffffffffffffffffffffffffffffffffffffffff16306040518363ffffffff1660e01b8152600401610384929190610cdd565b602060405180830381865afa15801561039f573d5f5f3e3d5ffd5b505050506040513d601f19601f820116820180604052508101906103c39190610d2e565b6103f9576040517f9bacfd9a00000000000000000000000000000000000000000000000000000000815260040160405180910390fd5b5f5f90505b828290508110156105025760015f9054906101000a900473ffffffffffffffffffffffffffffffffffffffff1673ffffffffffffffffffffffffffffffffffffffff166342842e0e60025f9054906101000a900473ffffffffffffffffffffffffffffffffffffffff1687878581811061047b5761047a610d59565b5b90506020020160208101906104909190610bb3565b8686868181106104a3576104a2610d59565b5b905060200201356040518463ffffffff1660e01b81526004016104c893929190610d9e565b5f604051808303815f87803b1580156104df575f5ffd5b505af11580156104f1573d5f5f3e3d5ffd5b5050505080806001019150506103fe565b5050505050565b61051161061b565b61051a5f6106a2565b565b5f5f5f9054906101000a900473ffffffffffffffffffffffffffffffffffffffff16905090565b606083838360405160200161055a93929190610dd3565b60405160208183030381529060405290509392505050565b61057a61061b565b5f73ffffffffffffffffffffffffffffffffffffffff168173ffffffffffffffffffffffffffffffffffffffff16036105ea575f6040517f1e4fbdf70000000000000000000000000000000000000000000000000000000081526004016105e19190610970565b60405180910390fd5b6105f3816106a2565b50565b60015f9054906101000a900473ffffffffffffffffffffffffffffffffffffffff1681565b610623610763565b73ffffffffffffffffffffffffffffffffffffffff1661064161051c565b73ffffffffffffffffffffffffffffffffffffffff16146106a057610664610763565b6040517f118cdaa70000000000000000000000000000000000000000000000000000000081526004016106979190610970565b60405180910390fd5b565b5f5f5f9054906101000a900473ffffffffffffffffffffffffffffffffffffffff169050815f5f6101000a81548173ffffffffffffffffffffffffffffffffffffffff021916908373ffffffffffffffffffffffffffffffffffffffff1602179055508173ffffffffffffffffffffffffffffffffffffffff168173ffffffffffffffffffffffffffffffffffffffff167f8be0079c531659141344cd1fd0a4f28419497f9722a3daafe3b4186f6b6457e060405160405180910390a35050565b5f33905090565b5f604051905090565b5f5ffd5b5f5ffd5b5f5ffd5b5f5ffd5b5f601f19601f8301169050919050565b7f4e487b71000000000000000000000000000000000000000000000000000000005f52604160045260245ffd5b6107c982610783565b810181811067ffffffffffffffff821117156107e8576107e7610793565b5b80604052505050565b5f6107fa61076a565b905061080682826107c0565b919050565b5f67ffffffffffffffff82111561082557610824610793565b5b61082e82610783565b9050602081019050919050565b828183375f83830152505050565b5f61085b6108568461080b565b6107f1565b9050828152602081018484840111156108775761087661077f565b5b61088284828561083b565b509392505050565b5f82601f83011261089e5761089d61077b565b5b81356108ae848260208601610849565b91505092915050565b5f602082840312156108cc576108cb610773565b5b5f82013567ffffffffffffffff8111156108e9576108e8610777565b5b6108f58482850161088a565b91505092915050565b5f8115159050919050565b610912816108fe565b82525050565b5f60208201905061092b5f830184610909565b92915050565b5f73ffffffffffffffffffffffffffffffffffffffff82169050919050565b5f61095a82610931565b9050919050565b61096a81610950565b82525050565b5f6020820190506109835f830184610961565b92915050565b5f5ffd5b5f5ffd5b5f5f83601f8401126109a6576109a561077b565b5b8235905067ffffffffffffffff8111156109c3576109c2610989565b5b6020830191508360208202830111156109df576109de61098d565b5b9250929050565b5f5f83601f8401126109fb576109fa61077b565b5b8235905067ffffffffffffffff811115610a1857610a17610989565b5b602083019150836020820283011115610a3457610a3361098d565b5b9250929050565b5f5f5f5f60408587031215610a5357610a52610773565b5b5f85013567ffffffffffffffff811115610a7057610a6f610777565b5b610a7c87828801610991565b9450945050602085013567ffffffffffffffff811115610a9f57610a9e610777565b5b610aab878288016109e6565b925092505092959194509250565b610ac281610950565b8114610acc575f5ffd5b50565b5f81359050610add81610ab9565b92915050565b5f5f5f60608486031215610afa57610af9610773565b5b5f610b0786828701610acf565b9350506020610b1886828701610acf565b9250506040610b2986828701610acf565b9150509250925092565b5f81519050919050565b5f82825260208201905092915050565b8281835e5f83830152505050565b5f610b6582610b33565b610b6f8185610b3d565b9350610b7f818560208601610b4d565b610b8881610783565b840191505092915050565b5f6020820190508181035f830152610bab8184610b5b565b905092915050565b5f60208284031215610bc857610bc7610773565b5b5f610bd584828501610acf565b91505092915050565b5f819050919050565b5f610c01610bfc610bf784610931565b610bde565b610931565b9050919050565b5f610c1282610be7565b9050919050565b5f610c2382610c08565b9050919050565b610c3381610c19565b82525050565b5f602082019050610c4c5f830184610c2a565b92915050565b5f610c5c82610931565b9050919050565b610c6c81610c52565b8114610c76575f5ffd5b50565b5f81519050610c8781610c63565b92915050565b5f5f5f60608486031215610ca457610ca3610773565b5b5f610cb186828701610c79565b9350506020610cc286828701610c79565b9250506040610cd386828701610c79565b9150509250925092565b5f604082019050610cf05f830185610961565b610cfd6020830184610961565b9392505050565b610d0d816108fe565b8114610d17575f5ffd5b50565b5f81519050610d2881610d04565b92915050565b5f60208284031215610d4357610d42610773565b5b5f610d5084828501610d1a565b91505092915050565b7f4e487b71000000000000000000000000000000000000000000000000000000005f52603260045260245ffd5b5f819050919050565b610d9881610d86565b82525050565b5f606082019050610db15f830186610961565b610dbe6020830185610961565b610dcb6040830184610d8f565b949350505050565b5f606082019050610de65f830186610961565b610df36020830185610961565b610e006040830184610961565b94935050505056fea26469706673582212208c314868baa644f1d17be72066432661f3b0d4b86aed33a445a8a61bb54f323464736f6c634300081d0033",
					"opcodes": "PUSH1 0x80 PUSH1 0x40 MSTORE CALLVALUE DUP1 ISZERO PUSH2 0xF JUMPI PUSH0 PUSH0 REVERT JUMPDEST POP CALLER PUSH0 PUSH20 0xFFFFFFFFFFFFFFFFFFFFFFFFFFFFFFFFFFFFFFFF AND DUP2 PUSH20 0xFFFFFFFFFFFFFFFFFFFFFFFFFFFFFFFFFFFFFFFF AND SUB PUSH2 0x81 JUMPI PUSH0 PUSH1 0x40 MLOAD PUSH32 0x1E4FBDF700000000000000000000000000000000000000000000000000000000 DUP2 MSTORE PUSH1 0x4 ADD PUSH2 0x78 SWAP2 SWAP1 PUSH2 0x196 JUMP JUMPDEST PUSH1 0x40 MLOAD DUP1 SWAP2 SUB SWAP1 REVERT JUMPDEST PUSH2 0x90 DUP2 PUSH2 0x96 PUSH1 0x20 SHL PUSH1 0x20 SHR JUMP JUMPDEST POP PUSH2 0x1AF JUMP JUMPDEST PUSH0 PUSH0 PUSH0 SWAP1 SLOAD SWAP1 PUSH2 0x100 EXP SWAP1 DIV PUSH20 0xFFFFFFFFFFFFFFFFFFFFFFFFFFFFFFFFFFFFFFFF AND SWAP1 POP DUP2 PUSH0 PUSH0 PUSH2 0x100 EXP DUP2 SLOAD DUP2 PUSH20 0xFFFFFFFFFFFFFFFFFFFFFFFFFFFFFFFFFFFFFFFF MUL NOT AND SWAP1 DUP4 PUSH20 0xFFFFFFFFFFFFFFFFFFFFFFFFFFFFFFFFFFFFFFFF AND MUL OR SWAP1 SSTORE POP DUP2 PUSH20 0xFFFFFFFFFFFFFFFFFFFFFFFFFFFFFFFFFFFFFFFF AND DUP2 PUSH20 0xFFFFFFFFFFFFFFFFFFFFFFFFFFFFFFFFFFFFFFFF AND PUSH32 0x8BE0079C531659141344CD1FD0A4F28419497F9722A3DAAFE3B4186F6B6457E0 PUSH1 0x40 MLOAD PUSH1 0x40 MLOAD DUP1 SWAP2 SUB SWAP1 LOG3 POP POP JUMP JUMPDEST PUSH0 PUSH20 0xFFFFFFFFFFFFFFFFFFFFFFFFFFFFFFFFFFFFFFFF DUP3 AND SWAP1 POP SWAP2 SWAP1 POP JUMP JUMPDEST PUSH0 PUSH2 0x180 DUP3 PUSH2 0x157 JUMP JUMPDEST SWAP1 POP SWAP2 SWAP1 POP JUMP JUMPDEST PUSH2 0x190 DUP2 PUSH2 0x176 JUMP JUMPDEST DUP3 MSTORE POP POP JUMP JUMPDEST PUSH0 PUSH1 0x20 DUP3 ADD SWAP1 POP PUSH2 0x1A9 PUSH0 DUP4 ADD DUP5 PUSH2 0x187 JUMP JUMPDEST SWAP3 SWAP2 POP POP JUMP JUMPDEST PUSH2 0xE3E DUP1 PUSH2 0x1BC PUSH0 CODECOPY PUSH0 RETURN INVALID PUSH1 0x80 PUSH1 0x40 MSTORE CALLVALUE DUP1 ISZERO PUSH2 0xF JUMPI PUSH0 PUSH0 REVERT JUMPDEST POP PUSH1 0x4 CALLDATASIZE LT PUSH2 0x86 JUMPI PUSH0 CALLDATALOAD PUSH1 0xE0 SHR DUP1 PUSH4 0x8DA5CB5B GT PUSH2 0x59 JUMPI DUP1 PUSH4 0x8DA5CB5B EQ PUSH2 0xFE JUMPI DUP1 PUSH4 0xC475DDA9 EQ PUSH2 0x11C JUMPI DUP1 PUSH4 0xF2FDE38B EQ PUSH2 0x14C JUMPI DUP1 PUSH4 0xFC0C546A EQ PUSH2 0x168 JUMPI PUSH2 0x86 JUMP JUMPDEST DUP1 PUSH4 0x439FAB91 EQ PUSH2 0x8A JUMPI DUP1 PUSH4 0x61D027B3 EQ PUSH2 0xBA JUMPI DUP1 PUSH4 0x67243482 EQ PUSH2 0xD8 JUMPI DUP1 PUSH4 0x715018A6 EQ PUSH2 0xF4 JUMPI JUMPDEST PUSH0 PUSH0 REVERT JUMPDEST PUSH2 0xA4 PUSH1 0x4 DUP1 CALLDATASIZE SUB DUP2 ADD SWAP1 PUSH2 0x9F SWAP2 SWAP1 PUSH2 0x8B7 JUMP JUMPDEST PUSH2 0x186 JUMP JUMPDEST PUSH1 0x40 MLOAD PUSH2 0xB1 SWAP2 SWAP1 PUSH2 0x918 JUMP JUMPDEST PUSH1 0x40 MLOAD DUP1 SWAP2 SUB SWAP1 RETURN JUMPDEST PUSH2 0xC2 PUSH2 0x29B JUMP JUMPDEST PUSH1 0x40 MLOAD PUSH2 0xCF SWAP2 SWAP1 PUSH2 0x970 JUMP JUMPDEST PUSH1 0x40 MLOAD DUP1 SWAP2 SUB SWAP1 RETURN JUMPDEST PUSH2 0xF2 PUSH1 0x4 DUP1 CALLDATASIZE SUB DUP2 ADD SWAP1 PUSH2 0xED SWAP2 SWAP1 PUSH2 0xA3B JUMP JUMPDEST PUSH2 0x2C0 JUMP JUMPDEST STOP JUMPDEST PUSH2 0xFC PUSH2 0x509 JUMP JUMPDEST STOP JUMPDEST PUSH2 0x106 PUSH2 0x51C JUMP JUMPDEST PUSH1 0x40 MLOAD PUSH2 0x113 SWAP2 SWAP1 PUSH2 0x970 JUMP JUMPDEST PUSH1 0x40 MLOAD DUP1 SWAP2 SUB SWAP1 RETURN JUMPDEST PUSH2 0x136 PUSH1 0x4 DUP1 CALLDATASIZE SUB DUP2 ADD SWAP1 PUSH2 0x131 SWAP2 SWAP1 PUSH2 0xAE3 JUMP JUMPDEST PUSH2 0x543 JUMP JUMPDEST PUSH1 0x40 MLOAD PUSH2 0x143 SWAP2 SWAP1 PUSH2 0xB93 JUMP JUMPDEST PUSH1 0x40 MLOAD DUP1 SWAP2 SUB SWAP1 RETURN JUMPDEST PUSH2 0x166 PUSH1 0x4 DUP1 CALLDATASIZE SUB DUP2 ADD SWAP1 PUSH2 0x161 SWAP2 SWAP1 PUSH2 0xBB3 JUMP JUMPDEST PUSH2 0x572 JUMP JUMPDEST STOP JUMPDEST PUSH2 0x170 PUSH2 0x5F6 JUMP JUMPDEST PUSH1 0x40 MLOAD PUSH2 0x17D SWAP2 SWAP1 PUSH2 0xC39 JUMP JUMPDEST PUSH1 0x40 MLOAD DUP1 SWAP2 SUB SWAP1 RETURN JUMPDEST PUSH0 PUSH1 0x2 PUSH1 0x14 SWAP1 SLOAD SWAP1 PUSH2 0x100 EXP SWAP1 DIV PUSH1 0xFF AND ISZERO PUSH2 0x1CE JUMPI PUSH1 0x40 MLOAD PUSH32 0xDC149F000000000000000000000000000000000000000000000000000000000 DUP2 MSTORE PUSH1 0x4 ADD PUSH1 0x40 MLOAD DUP1 SWAP2 SUB SWAP1 REVERT JUMPDEST PUSH0 PUSH0 PUSH0 DUP5 DUP1 PUSH1 0x20 ADD SWAP1 MLOAD DUP2 ADD SWAP1 PUSH2 0x1E5 SWAP2 SWAP1 PUSH2 0xC8D JUMP JUMPDEST SWAP3 POP SWAP3 POP SWAP3 POP DUP3 PUSH1 0x1 PUSH0 PUSH2 0x100 EXP DUP2 SLOAD DUP2 PUSH20 0xFFFFFFFFFFFFFFFFFFFFFFFFFFFFFFFFFFFFFFFF MUL NOT AND SWAP1 DUP4 PUSH20 0xFFFFFFFFFFFFFFFFFFFFFFFFFFFFFFFFFFFFFFFF AND MUL OR SWAP1 SSTORE POP DUP2 PUSH1 0x2 PUSH0 PUSH2 0x100 EXP DUP2 SLOAD DUP2 PUSH20 0xFFFFFFFFFFFFFFFFFFFFFFFFFFFFFFFFFFFFFFFF MUL NOT AND SWAP1 DUP4 PUSH20 0xFFFFFFFFFFFFFFFFFFFFFFFFFFFFFFFFFFFFFFFF AND MUL OR SWAP1 SSTORE POP PUSH2 0x274 DUP2 PUSH2 0x572 JUMP JUMPDEST PUSH1 0x1 PUSH1 0x2 PUSH1 0x14 PUSH2 0x100 EXP DUP2 SLOAD DUP2 PUSH1 0xFF MUL NOT AND SWAP1 DUP4 ISZERO ISZERO MUL OR SWAP1 SSTORE POP PUSH1 0x1 SWAP4 POP POP POP POP SWAP2 SWAP1 POP JUMP JUMPDEST PUSH1 0x2 PUSH0 SWAP1 SLOAD SWAP1 PUSH2 0x100 EXP SWAP1 DIV PUSH20 0xFFFFFFFFFFFFFFFFFFFFFFFFFFFFFFFFFFFFFFFF AND DUP2 JUMP JUMPDEST PUSH2 0x2C8 PUSH2 0x61B JUMP JUMPDEST DUP2 DUP2 SWAP1 POP DUP5 DUP5 SWAP1 POP EQ PUSH2 0x307 JUMPI PUSH1 0x40 MLOAD PUSH32 0xFC23596000000000000000000000000000000000000000000000000000000000 DUP2 MSTORE PUSH1 0x4 ADD PUSH1 0x40 MLOAD DUP1 SWAP2 SUB SWAP1 REVERT JUMPDEST PUSH1 0x1 PUSH0 SWAP1 SLOAD SWAP1 PUSH2 0x100 EXP SWAP1 DIV PUSH20 0xFFFFFFFFFFFFFFFFFFFFFFFFFFFFFFFFFFFFFFFF AND PUSH20 0xFFFFFFFFFFFFFFFFFFFFFFFFFFFFFFFFFFFFFFFF AND PUSH4 0xE985E9C5 PUSH1 0x2 PUSH0 SWAP1 SLOAD SWAP1 PUSH2 0x100 EXP SWAP1 DIV PUSH20 0xFFFFFFFFFFFFFFFFFFFFFFFFFFFFFFFFFFFFFFFF AND ADDRESS PUSH1 0x40 MLOAD DUP4 PUSH4 0xFFFFFFFF AND PUSH1 0xE0 SHL DUP2 MSTORE PUSH1 0x4 ADD PUSH2 0x384 SWAP3 SWAP2 SWAP1 PUSH2 0xCDD JUMP JUMPDEST PUSH1 0x20 PUSH1 0x40 MLOAD DUP1 DUP4 SUB DUP2 DUP7 GAS STATICCALL ISZERO DUP1 ISZERO PUSH2 0x39F JUMPI RETURNDATASIZE PUSH0 PUSH0 RETURNDATACOPY RETURNDATASIZE PUSH0 REVERT JUMPDEST POP POP POP POP PUSH1 0x40 MLOAD RETURNDATASIZE PUSH1 0x1F NOT PUSH1 0x1F DUP3 ADD AND DUP3 ADD DUP1 PUSH1 0x40 MSTORE POP DUP2 ADD SWAP1 PUSH2 0x3C3 SWAP2 SWAP1 PUSH2 0xD2E JUMP JUMPDEST PUSH2 0x3F9 JUMPI PUSH1 0x40 MLOAD PUSH32 0x9BACFD9A00000000000000000000000000000000000000000000000000000000 DUP2 MSTORE PUSH1 0x4 ADD PUSH1 0x40 MLOAD DUP1 SWAP2 SUB SWAP1 REVERT JUMPDEST PUSH0 PUSH0 SWAP1 POP JUMPDEST DUP3 DUP3 SWAP1 POP DUP2 LT ISZERO PUSH2 0x502 JUMPI PUSH1 0x1 PUSH0 SWAP1 SLOAD SWAP1 PUSH2 0x100 EXP SWAP1 DIV PUSH20 0xFFFFFFFFFFFFFFFFFFFFFFFFFFFFFFFFFFFFFFFF AND PUSH20 0xFFFFFFFFFFFFFFFFFFFFFFFFFFFFFFFFFFFFFFFF AND PUSH4 0x42842E0E PUSH1 0x2 PUSH0 SWAP1 SLOAD SWAP1 PUSH2 0x100 EXP SWAP1 DIV PUSH20 0xFFFFFFFFFFFFFFFFFFFFFFFFFFFFFFFFFFFFFFFF AND DUP8 DUP8 DUP6 DUP2 DUP2 LT PUSH2 0x47B JUMPI PUSH2 0x47A PUSH2 0xD59 JUMP JUMPDEST JUMPDEST SWAP1 POP PUSH1 0x20 MUL ADD PUSH1 0x20 DUP2 ADD SWAP1 PUSH2 0x490 SWAP2 SWAP1 PUSH2 0xBB3 JUMP JUMPDEST DUP7 DUP7 DUP7 DUP2 DUP2 LT PUSH2 0x4A3 JUMPI PUSH2 0x4A2 PUSH2 0xD59 JUMP JUMPDEST JUMPDEST SWAP1 POP PUSH1 0x20 MUL ADD CALLDATALOAD PUSH1 0x40 MLOAD DUP5 PUSH4 0xFFFFFFFF AND PUSH1 0xE0 SHL DUP2 MSTORE PUSH1 0x4 ADD PUSH2 0x4C8 SWAP4 SWAP3 SWAP2 SWAP1 PUSH2 0xD9E JUMP JUMPDEST PUSH0 PUSH1 0x40 MLOAD DUP1 DUP4 SUB DUP2 PUSH0 DUP8 DUP1 EXTCODESIZE ISZERO DUP1 ISZERO PUSH2 0x4DF JUMPI PUSH0 PUSH0 REVERT JUMPDEST POP GAS CALL ISZERO DUP1 ISZERO PUSH2 0x4F1 JUMPI RETURNDATASIZE PUSH0 PUSH0 RETURNDATACOPY RETURNDATASIZE PUSH0 REVERT JUMPDEST POP POP POP POP DUP1 DUP1 PUSH1 0x1 ADD SWAP2 POP POP PUSH2 0x3FE JUMP JUMPDEST POP POP POP POP POP JUMP JUMPDEST PUSH2 0x511 PUSH2 0x61B JUMP JUMPDEST PUSH2 0x51A PUSH0 PUSH2 0x6A2 JUMP JUMPDEST JUMP JUMPDEST PUSH0 PUSH0 PUSH0 SWAP1 SLOAD SWAP1 PUSH2 0x100 EXP SWAP1 DIV PUSH20 0xFFFFFFFFFFFFFFFFFFFFFFFFFFFFFFFFFFFFFFFF AND SWAP1 POP SWAP1 JUMP JUMPDEST PUSH1 0x60 DUP4 DUP4 DUP4 PUSH1 0x40 MLOAD PUSH1 0x20 ADD PUSH2 0x55A SWAP4 SWAP3 SWAP2 SWAP1 PUSH2 0xDD3 JUMP JUMPDEST PUSH1 0x40 MLOAD PUSH1 0x20 DUP2 DUP4 SUB SUB DUP2 MSTORE SWAP1 PUSH1 0x40 MSTORE SWAP1 POP SWAP4 SWAP3 POP POP POP JUMP JUMPDEST PUSH2 0x57A PUSH2 0x61B JUMP JUMPDEST PUSH0 PUSH20 0xFFFFFFFFFFFFFFFFFFFFFFFFFFFFFFFFFFFFFFFF AND DUP2 PUSH20 0xFFFFFFFFFFFFFFFFFFFFFFFFFFFFFFFFFFFFFFFF AND SUB PUSH2 0x5EA JUMPI PUSH0 PUSH1 0x40 MLOAD PUSH32 0x1E4FBDF700000000000000000000000000000000000000000000000000000000 DUP2 MSTORE PUSH1 0x4 ADD PUSH2 0x5E1 SWAP2 SWAP1 PUSH2 0x970 JUMP JUMPDEST PUSH1 0x40 MLOAD DUP1 SWAP2 SUB SWAP1 REVERT JUMPDEST PUSH2 0x5F3 DUP2 PUSH2 0x6A2 JUMP JUMPDEST POP JUMP JUMPDEST PUSH1 0x1 PUSH0 SWAP1 SLOAD SWAP1 PUSH2 0x100 EXP SWAP1 DIV PUSH20 0xFFFFFFFFFFFFFFFFFFFFFFFFFFFFFFFFFFFFFFFF AND DUP2 JUMP JUMPDEST PUSH2 0x623 PUSH2 0x763 JUMP JUMPDEST PUSH20 0xFFFFFFFFFFFFFFFFFFFFFFFFFFFFFFFFFFFFFFFF AND PUSH2 0x641 PUSH2 0x51C JUMP JUMPDEST PUSH20 0xFFFFFFFFFFFFFFFFFFFFFFFFFFFFFFFFFFFFFFFF AND EQ PUSH2 0x6A0 JUMPI PUSH2 0x664 PUSH2 0x763 JUMP JUMPDEST PUSH1 0x40 MLOAD PUSH32 0x118CDAA700000000000000000000000000000000000000000000000000000000 DUP2 MSTORE PUSH1 0x4 ADD PUSH2 0x697 SWAP2 SWAP1 PUSH2 0x970 JUMP JUMPDEST PUSH1 0x40 MLOAD DUP1 SWAP2 SUB SWAP1 REVERT JUMPDEST JUMP JUMPDEST PUSH0 PUSH0 PUSH0 SWAP1 SLOAD SWAP1 PUSH2 0x100 EXP SWAP1 DIV PUSH20 0xFFFFFFFFFFFFFFFFFFFFFFFFFFFFFFFFFFFFFFFF AND SWAP1 POP DUP2 PUSH0 PUSH0 PUSH2 0x100 EXP DUP2 SLOAD DUP2 PUSH20 0xFFFFFFFFFFFFFFFFFFFFFFFFFFFFFFFFFFFFFFFF MUL NOT AND SWAP1 DUP4 PUSH20 0xFFFFFFFFFFFFFFFFFFFFFFFFFFFFFFFFFFFFFFFF AND MUL OR SWAP1 SSTORE POP DUP2 PUSH20 0xFFFFFFFFFFFFFFFFFFFFFFFFFFFFFFFFFFFFFFFF AND DUP2 PUSH20 0xFFFFFFFFFFFFFFFFFFFFFFFFFFFFFFFFFFFFFFFF AND PUSH32 0x8BE0079C531659141344CD1FD0A4F28419497F9722A3DAAFE3B4186F6B6457E0 PUSH1 0x40 MLOAD PUSH1 0x40 MLOAD DUP1 SWAP2 SUB SWAP1 LOG3 POP POP JUMP JUMPDEST PUSH0 CALLER SWAP1 POP SWAP1 JUMP JUMPDEST PUSH0 PUSH1 0x40 MLOAD SWAP1 POP SWAP1 JUMP JUMPDEST PUSH0 PUSH0 REVERT JUMPDEST PUSH0 PUSH0 REVERT JUMPDEST PUSH0 PUSH0 REVERT JUMPDEST PUSH0 PUSH0 REVERT JUMPDEST PUSH0 PUSH1 0x1F NOT PUSH1 0x1F DUP4 ADD AND SWAP1 POP SWAP2 SWAP1 POP JUMP JUMPDEST PUSH32 0x4E487B7100000000000000000000000000000000000000000000000000000000 PUSH0 MSTORE PUSH1 0x41 PUSH1 0x4 MSTORE PUSH1 0x24 PUSH0 REVERT JUMPDEST PUSH2 0x7C9 DUP3 PUSH2 0x783 JUMP JUMPDEST DUP2 ADD DUP2 DUP2 LT PUSH8 0xFFFFFFFFFFFFFFFF DUP3 GT OR ISZERO PUSH2 0x7E8 JUMPI PUSH2 0x7E7 PUSH2 0x793 JUMP JUMPDEST JUMPDEST DUP1 PUSH1 0x40 MSTORE POP POP POP JUMP JUMPDEST PUSH0 PUSH2 0x7FA PUSH2 0x76A JUMP JUMPDEST SWAP1 POP PUSH2 0x806 DUP3 DUP3 PUSH2 0x7C0 JUMP JUMPDEST SWAP2 SWAP1 POP JUMP JUMPDEST PUSH0 PUSH8 0xFFFFFFFFFFFFFFFF DUP3 GT ISZERO PUSH2 0x825 JUMPI PUSH2 0x824 PUSH2 0x793 JUMP JUMPDEST JUMPDEST PUSH2 0x82E DUP3 PUSH2 0x783 JUMP JUMPDEST SWAP1 POP PUSH1 0x20 DUP2 ADD SWAP1 POP SWAP2 SWAP1 POP JUMP JUMPDEST DUP3 DUP2 DUP4 CALLDATACOPY PUSH0 DUP4 DUP4 ADD MSTORE POP POP POP JUMP JUMPDEST PUSH0 PUSH2 0x85B PUSH2 0x856 DUP5 PUSH2 0x80B JUMP JUMPDEST PUSH2 0x7F1 JUMP JUMPDEST SWAP1 POP DUP3 DUP2 MSTORE PUSH1 0x20 DUP2 ADD DUP5 DUP5 DUP5 ADD GT ISZERO PUSH2 0x877 JUMPI PUSH2 0x876 PUSH2 0x77F JUMP JUMPDEST JUMPDEST PUSH2 0x882 DUP5 DUP3 DUP6 PUSH2 0x83B JUMP JUMPDEST POP SWAP4 SWAP3 POP POP POP JUMP JUMPDEST PUSH0 DUP3 PUSH1 0x1F DUP4 ADD SLT PUSH2 0x89E JUMPI PUSH2 0x89D PUSH2 0x77B JUMP JUMPDEST JUMPDEST DUP2 CALLDATALOAD PUSH2 0x8AE DUP5 DUP3 PUSH1 0x20 DUP7 ADD PUSH2 0x849 JUMP JUMPDEST SWAP2 POP POP SWAP3 SWAP2 POP POP JUMP JUMPDEST PUSH0 PUSH1 0x20 DUP3 DUP5 SUB SLT ISZERO PUSH2 0x8CC JUMPI PUSH2 0x8CB PUSH2 0x773 JUMP JUMPDEST JUMPDEST PUSH0 DUP3 ADD CALLDATALOAD PUSH8 0xFFFFFFFFFFFFFFFF DUP2 GT ISZERO PUSH2 0x8E9 JUMPI PUSH2 0x8E8 PUSH2 0x777 JUMP JUMPDEST JUMPDEST PUSH2 0x8F5 DUP5 DUP3 DUP6 ADD PUSH2 0x88A JUMP JUMPDEST SWAP2 POP POP SWAP3 SWAP2 POP POP JUMP JUMPDEST PUSH0 DUP2 ISZERO ISZERO SWAP1 POP SWAP2 SWAP1 POP JUMP JUMPDEST PUSH2 0x912 DUP2 PUSH2 0x8FE JUMP JUMPDEST DUP3 MSTORE POP POP JUMP JUMPDEST PUSH0 PUSH1 0x20 DUP3 ADD SWAP1 POP PUSH2 0x92B PUSH0 DUP4 ADD DUP5 PUSH2 0x909 JUMP JUMPDEST SWAP3 SWAP2 POP POP JUMP JUMPDEST PUSH0 PUSH20 0xFFFFFFFFFFFFFFFFFFFFFFFFFFFFFFFFFFFFFFFF DUP3 AND SWAP1 POP SWAP2 SWAP1 POP JUMP JUMPDEST PUSH0 PUSH2 0x95A DUP3 PUSH2 0x931 JUMP JUMPDEST SWAP1 POP SWAP2 SWAP1 POP JUMP JUMPDEST PUSH2 0x96A DUP2 PUSH2 0x950 JUMP JUMPDEST DUP3 MSTORE POP POP JUMP JUMPDEST PUSH0 PUSH1 0x20 DUP3 ADD SWAP1 POP PUSH2 0x983 PUSH0 DUP4 ADD DUP5 PUSH2 0x961 JUMP JUMPDEST SWAP3 SWAP2 POP POP JUMP JUMPDEST PUSH0 PUSH0 REVERT JUMPDEST PUSH0 PUSH0 REVERT JUMPDEST PUSH0 PUSH0 DUP4 PUSH1 0x1F DUP5 ADD SLT PUSH2 0x9A6 JUMPI PUSH2 0x9A5 PUSH2 0x77B JUMP JUMPDEST JUMPDEST DUP3 CALLDATALOAD SWAP1 POP PUSH8 0xFFFFFFFFFFFFFFFF DUP2 GT ISZERO PUSH2 0x9C3 JUMPI PUSH2 0x9C2 PUSH2 0x989 JUMP JUMPDEST JUMPDEST PUSH1 0x20 DUP4 ADD SWAP2 POP DUP4 PUSH1 0x20 DUP3 MUL DUP4 ADD GT ISZERO PUSH2 0x9DF JUMPI PUSH2 0x9DE PUSH2 0x98D JUMP JUMPDEST JUMPDEST SWAP3 POP SWAP3 SWAP1 POP JUMP JUMPDEST PUSH0 PUSH0 DUP4 PUSH1 0x1F DUP5 ADD SLT PUSH2 0x9FB JUMPI PUSH2 0x9FA PUSH2 0x77B JUMP JUMPDEST JUMPDEST DUP3 CALLDATALOAD SWAP1 POP PUSH8 0xFFFFFFFFFFFFFFFF DUP2 GT ISZERO PUSH2 0xA18 JUMPI PUSH2 0xA17 PUSH2 0x989 JUMP JUMPDEST JUMPDEST PUSH1 0x20 DUP4 ADD SWAP2 POP DUP4 PUSH1 0x20 DUP3 MUL DUP4 ADD GT ISZERO PUSH2 0xA34 JUMPI PUSH2 0xA33 PUSH2 0x98D JUMP JUMPDEST JUMPDEST SWAP3 POP SWAP3 SWAP1 POP JUMP JUMPDEST PUSH0 PUSH0 PUSH0 PUSH0 PUSH1 0x40 DUP6 DUP8 SUB SLT ISZERO PUSH2 0xA53 JUMPI PUSH2 0xA52 PUSH2 0x773 JUMP JUMPDEST JUMPDEST PUSH0 DUP6 ADD CALLDATALOAD PUSH8 0xFFFFFFFFFFFFFFFF DUP2 GT ISZERO PUSH2 0xA70 JUMPI PUSH2 0xA6F PUSH2 0x777 JUMP JUMPDEST JUMPDEST PUSH2 0xA7C DUP8 DUP3 DUP9 ADD PUSH2 0x991 JUMP JUMPDEST SWAP5 POP SWAP5 POP POP PUSH1 0x20 DUP6 ADD CALLDATALOAD PUSH8 0xFFFFFFFFFFFFFFFF DUP2 GT ISZERO PUSH2 0xA9F JUMPI PUSH2 0xA9E PUSH2 0x777 JUMP JUMPDEST JUMPDEST PUSH2 0xAAB DUP8 DUP3 DUP9 ADD PUSH2 0x9E6 JUMP JUMPDEST SWAP3 POP SWAP3 POP POP SWAP3 SWAP6 SWAP2 SWAP5 POP SWAP3 POP JUMP JUMPDEST PUSH2 0xAC2 DUP2 PUSH2 0x950 JUMP JUMPDEST DUP2 EQ PUSH2 0xACC JUMPI PUSH0 PUSH0 REVERT JUMPDEST POP JUMP JUMPDEST PUSH0 DUP2 CALLDATALOAD SWAP1 POP PUSH2 0xADD DUP2 PUSH2 0xAB9 JUMP JUMPDEST SWAP3 SWAP2 POP POP JUMP JUMPDEST PUSH0 PUSH0 PUSH0 PUSH1 0x60 DUP5 DUP7 SUB SLT ISZERO PUSH2 0xAFA JUMPI PUSH2 0xAF9 PUSH2 0x773 JUMP JUMPDEST JUMPDEST PUSH0 PUSH2 0xB07 DUP7 DUP3 DUP8 ADD PUSH2 0xACF JUMP JUMPDEST SWAP4 POP POP PUSH1 0x20 PUSH2 0xB18 DUP7 DUP3 DUP8 ADD PUSH2 0xACF JUMP JUMPDEST SWAP3 POP POP PUSH1 0x40 PUSH2 0xB29 DUP7 DUP3 DUP8 ADD PUSH2 0xACF JUMP JUMPDEST SWAP2 POP POP SWAP3 POP SWAP3 POP SWAP3 JUMP JUMPDEST PUSH0 DUP2 MLOAD SWAP1 POP SWAP2 SWAP1 POP JUMP JUMPDEST PUSH0 DUP3 DUP3 MSTORE PUSH1 0x20 DUP3 ADD SWAP1 POP SWAP3 SWAP2 POP POP JUMP JUMPDEST DUP3 DUP2 DUP4 MCOPY PUSH0 DUP4 DUP4 ADD MSTORE POP POP POP JUMP JUMPDEST PUSH0 PUSH2 0xB65 DUP3 PUSH2 0xB33 JUMP JUMPDEST PUSH2 0xB6F DUP2 DUP6 PUSH2 0xB3D JUMP JUMPDEST SWAP4 POP PUSH2 0xB7F DUP2 DUP6 PUSH1 0x20 DUP7 ADD PUSH2 0xB4D JUMP JUMPDEST PUSH2 0xB88 DUP2 PUSH2 0x783 JUMP JUMPDEST DUP5 ADD SWAP2 POP POP SWAP3 SWAP2 POP POP JUMP JUMPDEST PUSH0 PUSH1 0x20 DUP3 ADD SWAP1 POP DUP2 DUP2 SUB PUSH0 DUP4 ADD MSTORE PUSH2 0xBAB DUP2 DUP5 PUSH2 0xB5B JUMP JUMPDEST SWAP1 POP SWAP3 SWAP2 POP POP JUMP JUMPDEST PUSH0 PUSH1 0x20 DUP3 DUP5 SUB SLT ISZERO PUSH2 0xBC8 JUMPI PUSH2 0xBC7 PUSH2 0x773 JUMP JUMPDEST JUMPDEST PUSH0 PUSH2 0xBD5 DUP5 DUP3 DUP6 ADD PUSH2 0xACF JUMP JUMPDEST SWAP2 POP POP SWAP3 SWAP2 POP POP JUMP JUMPDEST PUSH0 DUP2 SWAP1 POP SWAP2 SWAP1 POP JUMP JUMPDEST PUSH0 PUSH2 0xC01 PUSH2 0xBFC PUSH2 0xBF7 DUP5 PUSH2 0x931 JUMP JUMPDEST PUSH2 0xBDE JUMP JUMPDEST PUSH2 0x931 JUMP JUMPDEST SWAP1 POP SWAP2 SWAP1 POP JUMP JUMPDEST PUSH0 PUSH2 0xC12 DUP3 PUSH2 0xBE7 JUMP JUMPDEST SWAP1 POP SWAP2 SWAP1 POP JUMP JUMPDEST PUSH0 PUSH2 0xC23 DUP3 PUSH2 0xC08 JUMP JUMPDEST SWAP1 POP SWAP2 SWAP1 POP JUMP JUMPDEST PUSH2 0xC33 DUP2 PUSH2 0xC19 JUMP JUMPDEST DUP3 MSTORE POP POP JUMP JUMPDEST PUSH0 PUSH1 0x20 DUP3 ADD SWAP1 POP PUSH2 0xC4C PUSH0 DUP4 ADD DUP5 PUSH2 0xC2A JUMP JUMPDEST SWAP3 SWAP2 POP POP JUMP JUMPDEST PUSH0 PUSH2 0xC5C DUP3 PUSH2 0x931 JUMP JUMPDEST SWAP1 POP SWAP2 SWAP1 POP JUMP JUMPDEST PUSH2 0xC6C DUP2 PUSH2 0xC52 JUMP JUMPDEST DUP2 EQ PUSH2 0xC76 JUMPI PUSH0 PUSH0 REVERT JUMPDEST POP JUMP JUMPDEST PUSH0 DUP2 MLOAD SWAP1 POP PUSH2 0xC87 DUP2 PUSH2 0xC63 JUMP JUMPDEST SWAP3 SWAP2 POP POP JUMP JUMPDEST PUSH0 PUSH0 PUSH0 PUSH1 0x60 DUP5 DUP7 SUB SLT ISZERO PUSH2 0xCA4 JUMPI PUSH2 0xCA3 PUSH2 0x773 JUMP JUMPDEST JUMPDEST PUSH0 PUSH2 0xCB1 DUP7 DUP3 DUP8 ADD PUSH2 0xC79 JUMP JUMPDEST SWAP4 POP POP PUSH1 0x20 PUSH2 0xCC2 DUP7 DUP3 DUP8 ADD PUSH2 0xC79 JUMP JUMPDEST SWAP3 POP POP PUSH1 0x40 PUSH2 0xCD3 DUP7 DUP3 DUP8 ADD PUSH2 0xC79 JUMP JUMPDEST SWAP2 POP POP SWAP3 POP SWAP3 POP SWAP3 JUMP JUMPDEST PUSH0 PUSH1 0x40 DUP3 ADD SWAP1 POP PUSH2 0xCF0 PUSH0 DUP4 ADD DUP6 PUSH2 0x961 JUMP JUMPDEST PUSH2 0xCFD PUSH1 0x20 DUP4 ADD DUP5 PUSH2 0x961 JUMP JUMPDEST SWAP4 SWAP3 POP POP POP JUMP JUMPDEST PUSH2 0xD0D DUP2 PUSH2 0x8FE JUMP JUMPDEST DUP2 EQ PUSH2 0xD17 JUMPI PUSH0 PUSH0 REVERT JUMPDEST POP JUMP JUMPDEST PUSH0 DUP2 MLOAD SWAP1 POP PUSH2 0xD28 DUP2 PUSH2 0xD04 JUMP JUMPDEST SWAP3 SWAP2 POP POP JUMP JUMPDEST PUSH0 PUSH1 0x20 DUP3 DUP5 SUB SLT ISZERO PUSH2 0xD43 JUMPI PUSH2 0xD42 PUSH2 0x773 JUMP JUMPDEST JUMPDEST PUSH0 PUSH2 0xD50 DUP5 DUP3 DUP6 ADD PUSH2 0xD1A JUMP JUMPDEST SWAP2 POP POP SWAP3 SWAP2 POP POP JUMP JUMPDEST PUSH32 0x4E487B7100000000000000000000000000000000000000000000000000000000 PUSH0 MSTORE PUSH1 0x32 PUSH1 0x4 MSTORE PUSH1 0x24 PUSH0 REVERT JUMPDEST PUSH0 DUP2 SWAP1 POP SWAP2 SWAP1 POP JUMP JUMPDEST PUSH2 0xD98 DUP2 PUSH2 0xD86 JUMP JUMPDEST DUP3 MSTORE POP POP JUMP JUMPDEST PUSH0 PUSH1 0x60 DUP3 ADD SWAP1 POP PUSH2 0xDB1 PUSH0 DUP4 ADD DUP7 PUSH2 0x961 JUMP JUMPDEST PUSH2 0xDBE PUSH1 0x20 DUP4 ADD DUP6 PUSH2 0x961 JUMP JUMPDEST PUSH2 0xDCB PUSH1 0x40 DUP4 ADD DUP5 PUSH2 0xD8F JUMP JUMPDEST SWAP5 SWAP4 POP POP POP POP JUMP JUMPDEST PUSH0 PUSH1 0x60 DUP3 ADD SWAP1 POP PUSH2 0xDE6 PUSH0 DUP4 ADD DUP7 PUSH2 0x961 JUMP JUMPDEST PUSH2 0xDF3 PUSH1 0x20 DUP4 ADD DUP6 PUSH2 0x961 JUMP JUMPDEST PUSH2 0xE00 PUSH1 0x40 DUP4 ADD DUP5 PUSH2 0x961 JUMP JUMPDEST SWAP5 SWAP4 POP POP POP POP JUMP INVALID LOG2 PUSH5 0x6970667358 0x22 SLT KECCAK256 DUP13 BALANCE BASEFEE PUSH9 0xBAA644F1D17BE72066 NUMBER 0x26 PUSH2 0xF3B0 0xD4 0xB8 PUSH11 0xED33A445A8A61BB54F3234 PUSH5 0x736F6C6343 STOP ADDMOD SAR STOP CALLER "
				},
				"gasEstimates": {
					"creation": {
						"codeDepositCost": "729200",
						"executionCost": "infinite",
						"totalCost": "infinite"
					},
					"external": {
						"airdrop(address[],uint256[])": "infinite",
						"getInitData(address,address,address)": "infinite",
						"initialize(bytes)": "infinite",
						"owner()": "2514",
						"renounceOwnership()": "infinite",
						"token()": "infinite",
						"transferOwnership(address)": "infinite",
						"treasury()": "2531"
					}
				},
				"methodIdentifiers": {
					"airdrop(address[],uint256[])": "67243482",
					"getInitData(address,address,address)": "c475dda9",
					"initialize(bytes)": "439fab91",
					"owner()": "8da5cb5b",
					"renounceOwnership()": "715018a6",
					"token()": "fc0c546a",
					"transferOwnership(address)": "f2fde38b",
					"treasury()": "61d027b3"
				}
			},
			"storageLayout": {
				"storage": [
					{
						"astId": 8,
						"contract": "contracts/ERC721Airdroper/ERC721Airdroper.sol:ERC721Airdroper",
						"label": "_owner",
						"offset": 0,
						"slot": "0",
						"type": "t_address"
					},
					{
						"astId": 326,
						"contract": "contracts/ERC721Airdroper/ERC721Airdroper.sol:ERC721Airdroper",
						"label": "token",
						"offset": 0,
						"slot": "1",
						"type": "t_contract(IERC721)264"
					},
					{
						"astId": 328,
						"contract": "contracts/ERC721Airdroper/ERC721Airdroper.sol:ERC721Airdroper",
						"label": "treasury",
						"offset": 0,
						"slot": "2",
						"type": "t_address"
					},
					{
						"astId": 347,
						"contract": "contracts/ERC721Airdroper/ERC721Airdroper.sol:ERC721Airdroper",
						"label": "initialized",
						"offset": 20,
						"slot": "2",
						"type": "t_bool"
					}
				],
				"types": {
					"t_address": {
						"encoding": "inplace",
						"label": "address",
						"numberOfBytes": "20"
					},
					"t_bool": {
						"encoding": "inplace",
						"label": "bool",
						"numberOfBytes": "1"
					},
					"t_contract(IERC721)264": {
						"encoding": "inplace",
						"label": "contract IERC721",
						"numberOfBytes": "20"
					}
				}
			},
			"userdoc": {
				"kind": "user",
				"methods": {},
				"version": 1
			}
		}
	}
}