{
	"data": {
		"bytecode": {
			"linkReferences": {},
			"object": "608060405234801561000f575f5ffd5b50335f73ffffffffffffffffffffffffffffffffffffffff168173ffffffffffffffffffffffffffffffffffffffff1603610081575f6040517f1e4fbdf70000000000000000000000000000000000000000000000000000000081526004016100789190610196565b60405180910390fd5b6100908161009660201b60201c565b506101af565b5f5f5f9054906101000a900473ffffffffffffffffffffffffffffffffffffffff169050815f5f6101000a81548173ffffffffffffffffffffffffffffffffffffffff021916908373ffffffffffffffffffffffffffffffffffffffff1602179055508173ffffffffffffffffffffffffffffffffffffffff168173ffffffffffffffffffffffffffffffffffffffff167f8be0079c531659141344cd1fd0a4f28419497f9722a3daafe3b4186f6b6457e060405160405180910390a35050565b5f73ffffffffffffffffffffffffffffffffffffffff82169050919050565b5f61018082610157565b9050919050565b61019081610176565b82525050565b5f6020820190506101a95f830184610187565b92915050565b610ee2806101bc5f395ff3fe608060405234801561000f575f5ffd5b5060043610610086575f3560e01c80638da5cb5b116100595780638da5cb5b146100fe578063c475dda91461011c578063f2fde38b1461014c578063fc0c546a1461016857610086565b80631bf2907b1461008a578063439fab91146100a657806361d027b3146100d6578063715018a6146100f4575b5f5ffd5b6100a4600480360381019061009f919061085f565b610186565b005b6100c060048036038101906100bb9190610a47565b6103fd565b6040516100cd9190610aa8565b60405180910390f35b6100de610512565b6040516100eb9190610b00565b60405180910390f35b6100fc610537565b005b61010661054a565b6040516101139190610b00565b60405180910390f35b61013660048036038101906101319190610b43565b610571565b6040516101439190610bf3565b60405180910390f35b61016660048036038101906101619190610c13565b6105a0565b005b610170610624565b60405161017d9190610c99565b60405180910390f35b61018e610649565b83839050868690501480156101a857508181905086869050145b6101de576040517ffc23596000000000000000000000000000000000000000000000000000000000815260040160405180910390fd5b60015f9054906101000a900473ffffffffffffffffffffffffffffffffffffffff1673ffffffffffffffffffffffffffffffffffffffff1663e985e9c560025f9054906101000a900473ffffffffffffffffffffffffffffffffffffffff16306040518363ffffffff1660e01b815260040161025b929190610cb2565b602060405180830381865afa158015610276573d5f5f3e3d5ffd5b505050506040513d601f19601f8201168201806040525081019061029a9190610d03565b6102d0576040517f9bacfd9a00000000000000000000000000000000000000000000000000000000815260040160405180910390fd5b5f5f90505b848490508110156103f45760015f9054906101000a900473ffffffffffffffffffffffffffffffffffffffff1673ffffffffffffffffffffffffffffffffffffffff1663f242432a60025f9054906101000a900473ffffffffffffffffffffffffffffffffffffffff1689898581811061035257610351610d2e565b5b90506020020160208101906103679190610c13565b86868681811061037a57610379610d2e565b5b9050602002013589898781811061039457610393610d2e565b5b905060200201356040518563ffffffff1660e01b81526004016103ba9493929190610d96565b5f604051808303815f87803b1580156103d1575f5ffd5b505af11580156103e3573d5f5f3e3d5ffd5b5050505080806001019150506102d5565b50505050505050565b5f600260149054906101000a900460ff1615610445576040517f0dc149f000000000000000000000000000000000000000000000000000000000815260040160405180910390fd5b5f5f5f8480602001905181019061045c9190610e27565b9250925092508260015f6101000a81548173ffffffffffffffffffffffffffffffffffffffff021916908373ffffffffffffffffffffffffffffffffffffffff1602179055508160025f6101000a81548173ffffffffffffffffffffffffffffffffffffffff021916908373ffffffffffffffffffffffffffffffffffffffff1602179055506104eb816105a0565b6001600260146101000a81548160ff02191690831515021790555060019350505050919050565b60025f9054906101000a900473ffffffffffffffffffffffffffffffffffffffff1681565b61053f610649565b6105485f6106d0565b565b5f5f5f9054906101000a900473ffffffffffffffffffffffffffffffffffffffff16905090565b606083838360405160200161058893929190610e77565b60405160208183030381529060405290509392505050565b6105a8610649565b5f73ffffffffffffffffffffffffffffffffffffffff168173ffffffffffffffffffffffffffffffffffffffff1603610618575f6040517f1e4fbdf700000000000000000000000000000000000000000000000000000000815260040161060f9190610b00565b60405180910390fd5b610621816106d0565b50565b60015f9054906101000a900473ffffffffffffffffffffffffffffffffffffffff1681565b610651610791565b73ffffffffffffffffffffffffffffffffffffffff1661066f61054a565b73ffffffffffffffffffffffffffffffffffffffff16146106ce57610692610791565b6040517f118cdaa70000000000000000000000000000000000000000000000000000000081526004016106c59190610b00565b60405180910390fd5b565b5f5f5f9054906101000a900473ffffffffffffffffffffffffffffffffffffffff169050815f5f6101000a81548173ffffffffffffffffffffffffffffffffffffffff021916908373ffffffffffffffffffffffffffffffffffffffff1602179055508173ffffffffffffffffffffffffffffffffffffffff168173ffffffffffffffffffffffffffffffffffffffff167f8be0079c531659141344cd1fd0a4f28419497f9722a3daafe3b4186f6b6457e060405160405180910390a35050565b5f33905090565b5f604051905090565b5f5ffd5b5f5ffd5b5f5ffd5b5f5ffd5b5f5ffd5b5f5f83601f8401126107ca576107c96107a9565b5b8235905067ffffffffffffffff8111156107e7576107e66107ad565b5b602083019150836020820283011115610803576108026107b1565b5b9250929050565b5f5f83601f84011261081f5761081e6107a9565b5b8235905067ffffffffffffffff81111561083c5761083b6107ad565b5b602083019150836020820283011115610858576108576107b1565b5b9250929050565b5f5f5f5f5f5f60608789031215610879576108786107a1565b5b5f87013567ffffffffffffffff811115610896576108956107a5565b5b6108a289828a016107b5565b9650965050602087013567ffffffffffffffff8111156108c5576108c46107a5565b5b6108d189828a0161080a565b9450945050604087013567ffffffffffffffff8111156108f4576108f36107a5565b5b61090089828a0161080a565b92509250509295509295509295565b5f5ffd5b5f601f19601f8301169050919050565b7f4e487b71000000000000000000000000000000000000000000000000000000005f52604160045260245ffd5b61095982610913565b810181811067ffffffffffffffff8211171561097857610977610923565b5b80604052505050565b5f61098a610798565b90506109968282610950565b919050565b5f67ffffffffffffffff8211156109b5576109b4610923565b5b6109be82610913565b9050602081019050919050565b828183375f83830152505050565b5f6109eb6109e68461099b565b610981565b905082815260208101848484011115610a0757610a0661090f565b5b610a128482856109cb565b509392505050565b5f82601f830112610a2e57610a2d6107a9565b5b8135610a3e8482602086016109d9565b91505092915050565b5f60208284031215610a5c57610a5b6107a1565b5b5f82013567ffffffffffffffff811115610a7957610a786107a5565b5b610a8584828501610a1a565b91505092915050565b5f8115159050919050565b610aa281610a8e565b82525050565b5f602082019050610abb5f830184610a99565b92915050565b5f73ffffffffffffffffffffffffffffffffffffffff82169050919050565b5f610aea82610ac1565b9050919050565b610afa81610ae0565b82525050565b5f602082019050610b135f830184610af1565b92915050565b610b2281610ae0565b8114610b2c575f5ffd5b50565b5f81359050610b3d81610b19565b92915050565b5f5f5f60608486031215610b5a57610b596107a1565b5b5f610b6786828701610b2f565b9350506020610b7886828701610b2f565b9250506040610b8986828701610b2f565b9150509250925092565b5f81519050919050565b5f82825260208201905092915050565b8281835e5f83830152505050565b5f610bc582610b93565b610bcf8185610b9d565b9350610bdf818560208601610bad565b610be881610913565b840191505092915050565b5f6020820190508181035f830152610c0b8184610bbb565b905092915050565b5f60208284031215610c2857610c276107a1565b5b5f610c3584828501610b2f565b91505092915050565b5f819050919050565b5f610c61610c5c610c5784610ac1565b610c3e565b610ac1565b9050919050565b5f610c7282610c47565b9050919050565b5f610c8382610c68565b9050919050565b610c9381610c79565b82525050565b5f602082019050610cac5f830184610c8a565b92915050565b5f604082019050610cc55f830185610af1565b610cd26020830184610af1565b9392505050565b610ce281610a8e565b8114610cec575f5ffd5b50565b5f81519050610cfd81610cd9565b92915050565b5f60208284031215610d1857610d176107a1565b5b5f610d2584828501610cef565b91505092915050565b7f4e487b71000000000000000000000000000000000000000000000000000000005f52603260045260245ffd5b5f819050919050565b610d6d81610d5b565b82525050565b50565b5f610d815f83610b9d565b9150610d8c82610d73565b5f82019050919050565b5f60a082019050610da95f830187610af1565b610db66020830186610af1565b610dc36040830185610d64565b610dd06060830184610d64565b8181036080830152610de181610d76565b905095945050505050565b5f610df682610ac1565b9050919050565b610e0681610dec565b8114610e10575f5ffd5b50565b5f81519050610e2181610dfd565b92915050565b5f5f5f60608486031215610e3e57610e3d6107a1565b5b5f610e4b86828701610e13565b9350506020610e5c86828701610e13565b9250506040610e6d86828701610e13565b9150509250925092565b5f606082019050610e8a5f830186610af1565b610e976020830185610af1565b610ea46040830184610af1565b94935050505056fea2646970667358221220e7160fdd07a93dd935732cc2f3b93d6effdb2ccd16b3a029619c72ddcb7208c364736f6c634300081d0033",
			"opcodes": "PUSH1 0x80 PUSH1 0x40 MSTORE CALLVALUE DUP1 ISZERO PUSH2 0xF JUMPI PUSH0 PUSH0 REVERT JUMPDEST POP CALLER PUSH0 PUSH20 0xFFFFFFFFFFFFFFFFFFFFFFFFFFFFFFFFFFFFFFFF AND DUP2 PUSH20 0xFFFFFFFFFFFFFFFFFFFFFFFFFFFFFFFFFFFFFFFF AND SUB PUSH2 0x81 JUMPI PUSH0 PUSH1 0x40 MLOAD PUSH32 0x1E4FBDF700000000000000000000000000000000000000000000000000000000 DUP2 MSTORE PUSH1 0x4 ADD PUSH2 0x78 SWAP2 SWAP1 PUSH2 0x196 JUMP JUMPDEST PUSH1 0x40 MLOAD DUP1 SWAP2 SUB SWAP1 REVERT JUMPDEST PUSH2 0x90 DUP2 PUSH2 0x96 PUSH1 0x20 SHL PUSH1 0x20 SHR JUMP JUMPDEST POP PUSH2 0x1AF JUMP JUMPDEST PUSH0 PUSH0 PUSH0 SWAP1 SLOAD SWAP1 PUSH2 0x100 EXP SWAP1 DIV PUSH20 0xFFFFFFFFFFFFFFFFFFFFFFFFFFFFFFFFFFFFFFFF AND SWAP1 POP DUP2 PUSH0 PUSH0 PUSH2 0x100 EXP DUP2 SLOAD DUP2 PUSH20 0xFFFFFFFFFFFFFFFFFFFFFFFFFFFFFFFFFFFFFFFF MUL NOT AND SWAP1 DUP4 PUSH20 0xFFFFFFFFFFFFFFFFFFFFFFFFFFFFFFFFFFFFFFFF AND MUL OR SWAP1 SSTORE POP DUP2 PUSH20 0xFFFFFFFFFFFFFFFFFFFFFFFFFFFFFFFFFFFFFFFF AND DUP2 PUSH20 0xFFFFFFFFFFFFFFFFFFFFFFFFFFFFFFFFFFFFFFFF AND PUSH32 0x8BE0079C531659141344CD1FD0A4F28419497F9722A3DAAFE3B4186F6B6457E0 PUSH1 0x40 MLOAD PUSH1 0x40 MLOAD DUP1 SWAP2 SUB SWAP1 LOG3 POP POP JUMP JUMPDEST PUSH0 PUSH20 0xFFFFFFFFFFFFFFFFFFFFFFFFFFFFFFFFFFFFFFFF DUP3 AND SWAP1 POP SWAP2 SWAP1 POP JUMP JUMPDEST PUSH0 PUSH2 0x180 DUP3 PUSH2 0x157 JUMP JUMPDEST SWAP1 POP SWAP2 SWAP1 POP JUMP JUMPDEST PUSH2 0x190 DUP2 PUSH2 0x176 JUMP JUMPDEST DUP3 MSTORE POP POP JUMP JUMPDEST PUSH0 PUSH1 0x20 DUP3 ADD SWAP1 POP PUSH2 0x1A9 PUSH0 DUP4 ADD DUP5 PUSH2 0x187 JUMP JUMPDEST SWAP3 SWAP2 POP POP JUMP JUMPDEST PUSH2 0xEE2 DUP1 PUSH2 0x1BC PUSH0 CODECOPY PUSH0 RETURN INVALID PUSH1 0x80 PUSH1 0x40 MSTORE CALLVALUE DUP1 ISZERO PUSH2 0xF JUMPI PUSH0 PUSH0 REVERT JUMPDEST POP PUSH1 0x4 CALLDATASIZE LT PUSH2 0x86 JUMPI PUSH0 CALLDATALOAD PUSH1 0xE0 SHR DUP1 PUSH4 0x8DA5CB5B GT PUSH2 0x59 JUMPI DUP1 PUSH4 0x8DA5CB5B EQ PUSH2 0xFE JUMPI DUP1 PUSH4 0xC475DDA9 EQ PUSH2 0x11C JUMPI DUP1 PUSH4 0xF2FDE38B EQ PUSH2 0x14C JUMPI DUP1 PUSH4 0xFC0C546A EQ PUSH2 0x168 JUMPI PUSH2 0x86 JUMP JUMPDEST DUP1 PUSH4 0x1BF2907B EQ PUSH2 0x8A JUMPI DUP1 PUSH4 0x439FAB91 EQ PUSH2 0xA6 JUMPI DUP1 PUSH4 0x61D027B3 EQ PUSH2 0xD6 JUMPI DUP1 PUSH4 0x715018A6 EQ PUSH2 0xF4 JUMPI JUMPDEST PUSH0 PUSH0 REVERT JUMPDEST PUSH2 0xA4 PUSH1 0x4 DUP1 CALLDATASIZE SUB DUP2 ADD SWAP1 PUSH2 0x9F SWAP2 SWAP1 PUSH2 0x85F JUMP JUMPDEST PUSH2 0x186 JUMP JUMPDEST STOP JUMPDEST PUSH2 0xC0 PUSH1 0x4 DUP1 CALLDATASIZE SUB DUP2 ADD SWAP1 PUSH2 0xBB SWAP2 SWAP1 PUSH2 0xA47 JUMP JUMPDEST PUSH2 0x3FD JUMP JUMPDEST PUSH1 0x40 MLOAD PUSH2 0xCD SWAP2 SWAP1 PUSH2 0xAA8 JUMP JUMPDEST PUSH1 0x40 MLOAD DUP1 SWAP2 SUB SWAP1 RETURN JUMPDEST PUSH2 0xDE PUSH2 0x512 JUMP JUMPDEST PUSH1 0x40 MLOAD PUSH2 0xEB SWAP2 SWAP1 PUSH2 0xB00 JUMP JUMPDEST PUSH1 0x40 MLOAD DUP1 SWAP2 SUB SWAP1 RETURN JUMPDEST PUSH2 0xFC PUSH2 0x537 JUMP JUMPDEST STOP JUMPDEST PUSH2 0x106 PUSH2 0x54A JUMP JUMPDEST PUSH1 0x40 MLOAD PUSH2 0x113 SWAP2 SWAP1 PUSH2 0xB00 JUMP JUMPDEST PUSH1 0x40 MLOAD DUP1 SWAP2 SUB SWAP1 RETURN JUMPDEST PUSH2 0x136 PUSH1 0x4 DUP1 CALLDATASIZE SUB DUP2 ADD SWAP1 PUSH2 0x131 SWAP2 SWAP1 PUSH2 0xB43 JUMP JUMPDEST PUSH2 0x571 JUMP JUMPDEST PUSH1 0x40 MLOAD PUSH2 0x143 SWAP2 SWAP1 PUSH2 0xBF3 JUMP JUMPDEST PUSH1 0x40 MLOAD DUP1 SWAP2 SUB SWAP1 RETURN JUMPDEST PUSH2 0x166 PUSH1 0x4 DUP1 CALLDATASIZE SUB DUP2 ADD SWAP1 PUSH2 0x161 SWAP2 SWAP1 PUSH2 0xC13 JUMP JUMPDEST PUSH2 0x5A0 JUMP JUMPDEST STOP JUMPDEST PUSH2 0x170 PUSH2 0x624 JUMP JUMPDEST PUSH1 0x40 MLOAD PUSH2 0x17D SWAP2 SWAP1 PUSH2 0xC99 JUMP JUMPDEST PUSH1 0x40 MLOAD DUP1 SWAP2 SUB SWAP1 RETURN JUMPDEST PUSH2 0x18E PUSH2 0x649 JUMP JUMPDEST DUP4 DUP4 SWAP1 POP DUP7 DUP7 SWAP1 POP EQ DUP1 ISZERO PUSH2 0x1A8 JUMPI POP DUP2 DUP2 SWAP1 POP DUP7 DUP7 SWAP1 POP EQ JUMPDEST PUSH2 0x1DE JUMPI PUSH1 0x40 MLOAD PUSH32 0xFC23596000000000000000000000000000000000000000000000000000000000 DUP2 MSTORE PUSH1 0x4 ADD PUSH1 0x40 MLOAD DUP1 SWAP2 SUB SWAP1 REVERT JUMPDEST PUSH1 0x1 PUSH0 SWAP1 SLOAD SWAP1 PUSH2 0x100 EXP SWAP1 DIV PUSH20 0xFFFFFFFFFFFFFFFFFFFFFFFFFFFFFFFFFFFFFFFF AND PUSH20 0xFFFFFFFFFFFFFFFFFFFFFFFFFFFFFFFFFFFFFFFF AND PUSH4 0xE985E9C5 PUSH1 0x2 PUSH0 SWAP1 SLOAD SWAP1 PUSH2 0x100 EXP SWAP1 DIV PUSH20 0xFFFFFFFFFFFFFFFFFFFFFFFFFFFFFFFFFFFFFFFF AND ADDRESS PUSH1 0x40 MLOAD DUP4 PUSH4 0xFFFFFFFF AND PUSH1 0xE0 SHL DUP2 MSTORE PUSH1 0x4 ADD PUSH2 0x25B SWAP3 SWAP2 SWAP1 PUSH2 0xCB2 JUMP JUMPDEST PUSH1 0x20 PUSH1 0x40 MLOAD DUP1 DUP4 SUB DUP2 DUP7 GAS STATICCALL ISZERO DUP1 ISZERO PUSH2 0x276 JUMPI RETURNDATASIZE PUSH0 PUSH0 RETURNDATACOPY RETURNDATASIZE PUSH0 REVERT JUMPDEST POP POP POP POP PUSH1 0x40 MLOAD RETURNDATASIZE PUSH1 0x1F NOT PUSH1 0x1F DUP3 ADD AND DUP3 ADD DUP1 PUSH1 0x40 MSTORE POP DUP2 ADD SWAP1 PUSH2 0x29A SWAP2 SWAP1 PUSH2 0xD03 JUMP JUMPDEST PUSH2 0x2D0 JUMPI PUSH1 0x40 MLOAD PUSH32 0x9BACFD9A00000000000000000000000000000000000000000000000000000000 DUP2 MSTORE PUSH1 0x4 ADD PUSH1 0x40 MLOAD DUP1 SWAP2 SUB SWAP1 REVERT JUMPDEST PUSH0 PUSH0 SWAP1 POP JUMPDEST DUP5 DUP5 SWAP1 POP DUP2 LT ISZERO PUSH2 0x3F4 JUMPI PUSH1 0x1 PUSH0 SWAP1 SLOAD SWAP1 PUSH2 0x100 EXP SWAP1 DIV PUSH20 0xFFFFFFFFFFFFFFFFFFFFFFFFFFFFFFFFFFFFFFFF AND PUSH20 0xFFFFFFFFFFFFFFFFFFFFFFFFFFFFFFFFFFFFFFFF AND PUSH4 0xF242432A PUSH1 0x2 PUSH0 SWAP1 SLOAD SWAP1 PUSH2 0x100 EXP SWAP1 DIV PUSH20 0xFFFFFFFFFFFFFFFFFFFFFFFFFFFFFFFFFFFFFFFF AND DUP10 DUP10 DUP6 DUP2 DUP2 LT PUSH2 0x352 JUMPI PUSH2 0x351 PUSH2 0xD2E JUMP JUMPDEST JUMPDEST SWAP1 POP PUSH1 0x20 MUL ADD PUSH1 0x20 DUP2 ADD SWAP1 PUSH2 0x367 SWAP2 SWAP1 PUSH2 0xC13 JUMP JUMPDEST DUP7 DUP7 DUP7 DUP2 DUP2 LT PUSH2 0x37A JUMPI PUSH2 0x379 PUSH2 0xD2E JUMP JUMPDEST JUMPDEST SWAP1 POP PUSH1 0x20 MUL ADD CALLDATALOAD DUP10 DUP10 DUP8 DUP2 DUP2 LT PUSH2 0x394 JUMPI PUSH2 0x393 PUSH2 0xD2E JUMP JUMPDEST JUMPDEST SWAP1 POP PUSH1 0x20 MUL ADD CALLDATALOAD PUSH1 0x40 MLOAD DUP6 PUSH4 0xFFFFFFFF AND PUSH1 0xE0 SHL DUP2 MSTORE PUSH1 0x4 ADD PUSH2 0x3BA SWAP5 SWAP4 SWAP3 SWAP2 SWAP1 PUSH2 0xD96 JUMP JUMPDEST PUSH0 PUSH1 0x40 MLOAD DUP1 DUP4 SUB DUP2 PUSH0 DUP8 DUP1 EXTCODESIZE ISZERO DUP1 ISZERO PUSH2 0x3D1 JUMPI PUSH0 PUSH0 REVERT JUMPDEST POP GAS CALL ISZERO DUP1 ISZERO PUSH2 0x3E3 JUMPI RETURNDATASIZE PUSH0 PUSH0 RETURNDATACOPY RETURNDATASIZE PUSH0 REVERT JUMPDEST POP POP POP POP DUP1 DUP1 PUSH1 0x1 ADD SWAP2 POP POP PUSH2 0x2D5 JUMP JUMPDEST POP POP POP POP POP POP POP JUMP JUMPDEST PUSH0 PUSH1 0x2 PUSH1 0x14 SWAP1 SLOAD SWAP1 PUSH2 0x100 EXP SWAP1 DIV PUSH1 0xFF AND ISZERO PUSH2 0x445 JUMPI PUSH1 0x40 MLOAD PUSH32 0xDC149F000000000000000000000000000000000000000000000000000000000 DUP2 MSTORE PUSH1 0x4 ADD PUSH1 0x40 MLOAD DUP1 SWAP2 SUB SWAP1 REVERT JUMPDEST PUSH0 PUSH0 PUSH0 DUP5 DUP1 PUSH1 0x20 ADD SWAP1 MLOAD DUP2 ADD SWAP1 PUSH2 0x45C SWAP2 SWAP1 PUSH2 0xE27 JUMP JUMPDEST SWAP3 POP SWAP3 POP SWAP3 POP DUP3 PUSH1 0x1 PUSH0 PUSH2 0x100 EXP DUP2 SLOAD DUP2 PUSH20 0xFFFFFFFFFFFFFFFFFFFFFFFFFFFFFFFFFFFFFFFF MUL NOT AND SWAP1 DUP4 PUSH20 0xFFFFFFFFFFFFFFFFFFFFFFFFFFFFFFFFFFFFFFFF AND MUL OR SWAP1 SSTORE POP DUP2 PUSH1 0x2 PUSH0 PUSH2 0x100 EXP DUP2 SLOAD DUP2 PUSH20 0xFFFFFFFFFFFFFFFFFFFFFFFFFFFFFFFFFFFFFFFF MUL NOT AND SWAP1 DUP4 PUSH20 0xFFFFFFFFFFFFFFFFFFFFFFFFFFFFFFFFFFFFFFFF AND MUL OR SWAP1 SSTORE POP PUSH2 0x4EB DUP2 PUSH2 0x5A0 JUMP JUMPDEST PUSH1 0x1 PUSH1 0x2 PUSH1 0x14 PUSH2 0x100 EXP DUP2 SLOAD DUP2 PUSH1 0xFF MUL NOT AND SWAP1 DUP4 ISZERO ISZERO MUL OR SWAP1 SSTORE POP PUSH1 0x1 SWAP4 POP POP POP POP SWAP2 SWAP1 POP JUMP JUMPDEST PUSH1 0x2 PUSH0 SWAP1 SLOAD SWAP1 PUSH2 0x100 EXP SWAP1 DIV PUSH20 0xFFFFFFFFFFFFFFFFFFFFFFFFFFFFFFFFFFFFFFFF AND DUP2 JUMP JUMPDEST PUSH2 0x53F PUSH2 0x649 JUMP JUMPDEST PUSH2 0x548 PUSH0 PUSH2 0x6D0 JUMP JUMPDEST JUMP JUMPDEST PUSH0 PUSH0 PUSH0 SWAP1 SLOAD SWAP1 PUSH2 0x100 EXP SWAP1 DIV PUSH20 0xFFFFFFFFFFFFFFFFFFFFFFFFFFFFFFFFFFFFFFFF AND SWAP1 POP SWAP1 JUMP JUMPDEST PUSH1 0x60 DUP4 DUP4 DUP4 PUSH1 0x40 MLOAD PUSH1 0x20 ADD PUSH2 0x588 SWAP4 SWAP3 SWAP2 SWAP1 PUSH2 0xE77 JUMP JUMPDEST PUSH1 0x40 MLOAD PUSH1 0x20 DUP2 DUP4 SUB SUB DUP2 MSTORE SWAP1 PUSH1 0x40 MSTORE SWAP1 POP SWAP4 SWAP3 POP POP POP JUMP JUMPDEST PUSH2 0x5A8 PUSH2 0x649 JUMP JUMPDEST PUSH0 PUSH20 0xFFFFFFFFFFFFFFFFFFFFFFFFFFFFFFFFFFFFFFFF AND DUP2 PUSH20 0xFFFFFFFFFFFFFFFFFFFFFFFFFFFFFFFFFFFFFFFF AND SUB PUSH2 0x618 JUMPI PUSH0 PUSH1 0x40 MLOAD PUSH32 0x1E4FBDF700000000000000000000000000000000000000000000000000000000 DUP2 MSTORE PUSH1 0x4 ADD PUSH2 0x60F SWAP2 SWAP1 PUSH2 0xB00 JUMP JUMPDEST PUSH1 0x40 MLOAD DUP1 SWAP2 SUB SWAP1 REVERT JUMPDEST PUSH2 0x621 DUP2 PUSH2 0x6D0 JUMP JUMPDEST POP JUMP JUMPDEST PUSH1 0x1 PUSH0 SWAP1 SLOAD SWAP1 PUSH2 0x100 EXP SWAP1 DIV PUSH20 0xFFFFFFFFFFFFFFFFFFFFFFFFFFFFFFFFFFFFFFFF AND DUP2 JUMP JUMPDEST PUSH2 0x651 PUSH2 0x791 JUMP JUMPDEST PUSH20 0xFFFFFFFFFFFFFFFFFFFFFFFFFFFFFFFFFFFFFFFF AND PUSH2 0x66F PUSH2 0x54A JUMP JUMPDEST PUSH20 0xFFFFFFFFFFFFFFFFFFFFFFFFFFFFFFFFFFFFFFFF AND EQ PUSH2 0x6CE JUMPI PUSH2 0x692 PUSH2 0x791 JUMP JUMPDEST PUSH1 0x40 MLOAD PUSH32 0x118CDAA700000000000000000000000000000000000000000000000000000000 DUP2 MSTORE PUSH1 0x4 ADD PUSH2 0x6C5 SWAP2 SWAP1 PUSH2 0xB00 JUMP JUMPDEST PUSH1 0x40 MLOAD DUP1 SWAP2 SUB SWAP1 REVERT JUMPDEST JUMP JUMPDEST PUSH0 PUSH0 PUSH0 SWAP1 SLOAD SWAP1 PUSH2 0x100 EXP SWAP1 DIV PUSH20 0xFFFFFFFFFFFFFFFFFFFFFFFFFFFFFFFFFFFFFFFF AND SWAP1 POP DUP2 PUSH0 PUSH0 PUSH2 0x100 EXP DUP2 SLOAD DUP2 PUSH20 0xFFFFFFFFFFFFFFFFFFFFFFFFFFFFFFFFFFFFFFFF MUL NOT AND SWAP1 DUP4 PUSH20 0xFFFFFFFFFFFFFFFFFFFFFFFFFFFFFFFFFFFFFFFF AND MUL OR SWAP1 SSTORE POP DUP2 PUSH20 0xFFFFFFFFFFFFFFFFFFFFFFFFFFFFFFFFFFFFFFFF AND DUP2 PUSH20 0xFFFFFFFFFFFFFFFFFFFFFFFFFFFFFFFFFFFFFFFF AND PUSH32 0x8BE0079C531659141344CD1FD0A4F28419497F9722A3DAAFE3B4186F6B6457E0 PUSH1 0x40 MLOAD PUSH1 0x40 MLOAD DUP1 SWAP2 SUB SWAP1 LOG3 POP POP JUMP JUMPDEST PUSH0 CALLER SWAP1 POP SWAP1 JUMP JUMPDEST PUSH0 PUSH1 0x40 MLOAD SWAP1 POP SWAP1 JUMP JUMPDEST PUSH0 PUSH0 REVERT JUMPDEST PUSH0 PUSH0 REVERT JUMPDEST PUSH0 PUSH0 REVERT JUMPDEST PUSH0 PUSH0 REVERT JUMPDEST PUSH0 PUSH0 REVERT JUMPDEST PUSH0 PUSH0 DUP4 PUSH1 0x1F DUP5 ADD SLT PUSH2 0x7CA JUMPI PUSH2 0x7C9 PUSH2 0x7A9 JUMP JUMPDEST JUMPDEST DUP3 CALLDATALOAD SWAP1 POP PUSH8 0xFFFFFFFFFFFFFFFF DUP2 GT ISZERO PUSH2 0x7E7 JUMPI PUSH2 0x7E6 PUSH2 0x7AD JUMP JUMPDEST JUMPDEST PUSH1 0x20 DUP4 ADD SWAP2 POP DUP4 PUSH1 0x20 DUP3 MUL DUP4 ADD GT ISZERO PUSH2 0x803 JUMPI PUSH2 0x802 PUSH2 0x7B1 JUMP JUMPDEST JUMPDEST SWAP3 POP SWAP3 SWAP1 POP JUMP JUMPDEST PUSH0 PUSH0 DUP4 PUSH1 0x1F DUP5 ADD SLT PUSH2 0x81F JUMPI PUSH2 0x81E PUSH2 0x7A9 JUMP JUMPDEST JUMPDEST DUP3 CALLDATALOAD SWAP1 POP PUSH8 0xFFFFFFFFFFFFFFFF DUP2 GT ISZERO PUSH2 0x83C JUMPI PUSH2 0x83B PUSH2 0x7AD JUMP JUMPDEST JUMPDEST PUSH1 0x20 DUP4 ADD SWAP2 POP DUP4 PUSH1 0x20 DUP3 MUL DUP4 ADD GT ISZERO PUSH2 0x858 JUMPI PUSH2 0x857 PUSH2 0x7B1 JUMP JUMPDEST JUMPDEST SWAP3 POP SWAP3 SWAP1 POP JUMP JUMPDEST PUSH0 PUSH0 PUSH0 PUSH0 PUSH0 PUSH0 PUSH1 0x60 DUP8 DUP10 SUB SLT ISZERO PUSH2 0x879 JUMPI PUSH2 0x878 PUSH2 0x7A1 JUMP JUMPDEST JUMPDEST PUSH0 DUP8 ADD CALLDATALOAD PUSH8 0xFFFFFFFFFFFFFFFF DUP2 GT ISZERO PUSH2 0x896 JUMPI PUSH2 0x895 PUSH2 0x7A5 JUMP JUMPDEST JUMPDEST PUSH2 0x8A2 DUP10 DUP3 DUP11 ADD PUSH2 0x7B5 JUMP JUMPDEST SWAP7 POP SWAP7 POP POP PUSH1 0x20 DUP8 ADD CALLDATALOAD PUSH8 0xFFFFFFFFFFFFFFFF DUP2 GT ISZERO PUSH2 0x8C5 JUMPI PUSH2 0x8C4 PUSH2 0x7A5 JUMP JUMPDEST JUMPDEST PUSH2 0x8D1 DUP10 DUP3 DUP11 ADD PUSH2 0x80A JUMP JUMPDEST SWAP5 POP SWAP5 POP POP PUSH1 0x40 DUP8 ADD CALLDATALOAD PUSH8 0xFFFFFFFFFFFFFFFF DUP2 GT ISZERO PUSH2 0x8F4 JUMPI PUSH2 0x8F3 PUSH2 0x7A5 JUMP JUMPDEST JUMPDEST PUSH2 0x900 DUP10 DUP3 DUP11 ADD PUSH2 0x80A JUMP JUMPDEST SWAP3 POP SWAP3 POP POP SWAP3 SWAP6 POP SWAP3 SWAP6 POP SWAP3 SWAP6 JUMP JUMPDEST PUSH0 PUSH0 REVERT JUMPDEST PUSH0 PUSH1 0x1F NOT PUSH1 0x1F DUP4 ADD AND SWAP1 POP SWAP2 SWAP1 POP JUMP JUMPDEST PUSH32 0x4E487B7100000000000000000000000000000000000000000000000000000000 PUSH0 MSTORE PUSH1 0x41 PUSH1 0x4 MSTORE PUSH1 0x24 PUSH0 REVERT JUMPDEST PUSH2 0x959 DUP3 PUSH2 0x913 JUMP JUMPDEST DUP2 ADD DUP2 DUP2 LT PUSH8 0xFFFFFFFFFFFFFFFF DUP3 GT OR ISZERO PUSH2 0x978 JUMPI PUSH2 0x977 PUSH2 0x923 JUMP JUMPDEST JUMPDEST DUP1 PUSH1 0x40 MSTORE POP POP POP JUMP JUMPDEST PUSH0 PUSH2 0x98A PUSH2 0x798 JUMP JUMPDEST SWAP1 POP PUSH2 0x996 DUP3 DUP3 PUSH2 0x950 JUMP JUMPDEST SWAP2 SWAP1 POP JUMP JUMPDEST PUSH0 PUSH8 0xFFFFFFFFFFFFFFFF DUP3 GT ISZERO PUSH2 0x9B5 JUMPI PUSH2 0x9B4 PUSH2 0x923 JUMP JUMPDEST JUMPDEST PUSH2 0x9BE DUP3 PUSH2 0x913 JUMP JUMPDEST SWAP1 POP PUSH1 0x20 DUP2 ADD SWAP1 POP SWAP2 SWAP1 POP JUMP JUMPDEST DUP3 DUP2 DUP4 CALLDATACOPY PUSH0 DUP4 DUP4 ADD MSTORE POP POP POP JUMP JUMPDEST PUSH0 PUSH2 0x9EB PUSH2 0x9E6 DUP5 PUSH2 0x99B JUMP JUMPDEST PUSH2 0x981 JUMP JUMPDEST SWAP1 POP DUP3 DUP2 MSTORE PUSH1 0x20 DUP2 ADD DUP5 DUP5 DUP5 ADD GT ISZERO PUSH2 0xA07 JUMPI PUSH2 0xA06 PUSH2 0x90F JUMP JUMPDEST JUMPDEST PUSH2 0xA12 DUP5 DUP3 DUP6 PUSH2 0x9CB JUMP JUMPDEST POP SWAP4 SWAP3 POP POP POP JUMP JUMPDEST PUSH0 DUP3 PUSH1 0x1F DUP4 ADD SLT PUSH2 0xA2E JUMPI PUSH2 0xA2D PUSH2 0x7A9 JUMP JUMPDEST JUMPDEST DUP2 CALLDATALOAD PUSH2 0xA3E DUP5 DUP3 PUSH1 0x20 DUP7 ADD PUSH2 0x9D9 JUMP JUMPDEST SWAP2 POP POP SWAP3 SWAP2 POP POP JUMP JUMPDEST PUSH0 PUSH1 0x20 DUP3 DUP5 SUB SLT ISZERO PUSH2 0xA5C JUMPI PUSH2 0xA5B PUSH2 0x7A1 JUMP JUMPDEST JUMPDEST PUSH0 DUP3 ADD CALLDATALOAD PUSH8 0xFFFFFFFFFFFFFFFF DUP2 GT ISZERO PUSH2 0xA79 JUMPI PUSH2 0xA78 PUSH2 0x7A5 JUMP JUMPDEST JUMPDEST PUSH2 0xA85 DUP5 DUP3 DUP6 ADD PUSH2 0xA1A JUMP JUMPDEST SWAP2 POP POP SWAP3 SWAP2 POP POP JUMP JUMPDEST PUSH0 DUP2 ISZERO ISZERO SWAP1 POP SWAP2 SWAP1 POP JUMP JUMPDEST PUSH2 0xAA2 DUP2 PUSH2 0xA8E JUMP JUMPDEST DUP3 MSTORE POP POP JUMP JUMPDEST PUSH0 PUSH1 0x20 DUP3 ADD SWAP1 POP PUSH2 0xABB PUSH0 DUP4 ADD DUP5 PUSH2 0xA99 JUMP JUMPDEST SWAP3 SWAP2 POP POP JUMP JUMPDEST PUSH0 PUSH20 0xFFFFFFFFFFFFFFFFFFFFFFFFFFFFFFFFFFFFFFFF DUP3 AND SWAP1 POP SWAP2 SWAP1 POP JUMP JUMPDEST PUSH0 PUSH2 0xAEA DUP3 PUSH2 0xAC1 JUMP JUMPDEST SWAP1 POP SWAP2 SWAP1 POP JUMP JUMPDEST PUSH2 0xAFA DUP2 PUSH2 0xAE0 JUMP JUMPDEST DUP3 MSTORE POP POP JUMP JUMPDEST PUSH0 PUSH1 0x20 DUP3 ADD SWAP1 POP PUSH2 0xB13 PUSH0 DUP4 ADD DUP5 PUSH2 0xAF1 JUMP JUMPDEST SWAP3 SWAP2 POP POP JUMP JUMPDEST PUSH2 0xB22 DUP2 PUSH2 0xAE0 JUMP JUMPDEST DUP2 EQ PUSH2 0xB2C JUMPI PUSH0 PUSH0 REVERT JUMPDEST POP JUMP JUMPDEST PUSH0 DUP2 CALLDATALOAD SWAP1 POP PUSH2 0xB3D DUP2 PUSH2 0xB19 JUMP JUMPDEST SWAP3 SWAP2 POP POP JUMP JUMPDEST PUSH0 PUSH0 PUSH0 PUSH1 0x60 DUP5 DUP7 SUB SLT ISZERO PUSH2 0xB5A JUMPI PUSH2 0xB59 PUSH2 0x7A1 JUMP JUMPDEST JUMPDEST PUSH0 PUSH2 0xB67 DUP7 DUP3 DUP8 ADD PUSH2 0xB2F JUMP JUMPDEST SWAP4 POP POP PUSH1 0x20 PUSH2 0xB78 DUP7 DUP3 DUP8 ADD PUSH2 0xB2F JUMP JUMPDEST SWAP3 POP POP PUSH1 0x40 PUSH2 0xB89 DUP7 DUP3 DUP8 ADD PUSH2 0xB2F JUMP JUMPDEST SWAP2 POP POP SWAP3 POP SWAP3 POP SWAP3 JUMP JUMPDEST PUSH0 DUP2 MLOAD SWAP1 POP SWAP2 SWAP1 POP JUMP JUMPDEST PUSH0 DUP3 DUP3 MSTORE PUSH1 0x20 DUP3 ADD SWAP1 POP SWAP3 SWAP2 POP POP JUMP JUMPDEST DUP3 DUP2 DUP4 MCOPY PUSH0 DUP4 DUP4 ADD MSTORE POP POP POP JUMP JUMPDEST PUSH0 PUSH2 0xBC5 DUP3 PUSH2 0xB93 JUMP JUMPDEST PUSH2 0xBCF DUP2 DUP6 PUSH2 0xB9D JUMP JUMPDEST SWAP4 POP PUSH2 0xBDF DUP2 DUP6 PUSH1 0x20 DUP7 ADD PUSH2 0xBAD JUMP JUMPDEST PUSH2 0xBE8 DUP2 PUSH2 0x913 JUMP JUMPDEST DUP5 ADD SWAP2 POP POP SWAP3 SWAP2 POP POP JUMP JUMPDEST PUSH0 PUSH1 0x20 DUP3 ADD SWAP1 POP DUP2 DUP2 SUB PUSH0 DUP4 ADD MSTORE PUSH2 0xC0B DUP2 DUP5 PUSH2 0xBBB JUMP JUMPDEST SWAP1 POP SWAP3 SWAP2 POP POP JUMP JUMPDEST PUSH0 PUSH1 0x20 DUP3 DUP5 SUB SLT ISZERO PUSH2 0xC28 JUMPI PUSH2 0xC27 PUSH2 0x7A1 JUMP JUMPDEST JUMPDEST PUSH0 PUSH2 0xC35 DUP5 DUP3 DUP6 ADD PUSH2 0xB2F JUMP JUMPDEST SWAP2 POP POP SWAP3 SWAP2 POP POP JUMP JUMPDEST PUSH0 DUP2 SWAP1 POP SWAP2 SWAP1 POP JUMP JUMPDEST PUSH0 PUSH2 0xC61 PUSH2 0xC5C PUSH2 0xC57 DUP5 PUSH2 0xAC1 JUMP JUMPDEST PUSH2 0xC3E JUMP JUMPDEST PUSH2 0xAC1 JUMP JUMPDEST SWAP1 POP SWAP2 SWAP1 POP JUMP JUMPDEST PUSH0 PUSH2 0xC72 DUP3 PUSH2 0xC47 JUMP JUMPDEST SWAP1 POP SWAP2 SWAP1 POP JUMP JUMPDEST PUSH0 PUSH2 0xC83 DUP3 PUSH2 0xC68 JUMP JUMPDEST SWAP1 POP SWAP2 SWAP1 POP JUMP JUMPDEST PUSH2 0xC93 DUP2 PUSH2 0xC79 JUMP JUMPDEST DUP3 MSTORE POP POP JUMP JUMPDEST PUSH0 PUSH1 0x20 DUP3 ADD SWAP1 POP PUSH2 0xCAC PUSH0 DUP4 ADD DUP5 PUSH2 0xC8A JUMP JUMPDEST SWAP3 SWAP2 POP POP JUMP JUMPDEST PUSH0 PUSH1 0x40 DUP3 ADD SWAP1 POP PUSH2 0xCC5 PUSH0 DUP4 ADD DUP6 PUSH2 0xAF1 JUMP JUMPDEST PUSH2 0xCD2 PUSH1 0x20 DUP4 ADD DUP5 PUSH2 0xAF1 JUMP JUMPDEST SWAP4 SWAP3 POP POP POP JUMP JUMPDEST PUSH2 0xCE2 DUP2 PUSH2 0xA8E JUMP JUMPDEST DUP2 EQ PUSH2 0xCEC JUMPI PUSH0 PUSH0 REVERT JUMPDEST POP JUMP JUMPDEST PUSH0 DUP2 MLOAD SWAP1 POP PUSH2 0xCFD DUP2 PUSH2 0xCD9 JUMP JUMPDEST SWAP3 SWAP2 POP POP JUMP JUMPDEST PUSH0 PUSH1 0x20 DUP3 DUP5 SUB SLT ISZERO PUSH2 0xD18 JUMPI PUSH2 0xD17 PUSH2 0x7A1 JUMP JUMPDEST JUMPDEST PUSH0 PUSH2 0xD25 DUP5 DUP3 DUP6 ADD PUSH2 0xCEF JUMP JUMPDEST SWAP2 POP POP SWAP3 SWAP2 POP POP JUMP JUMPDEST PUSH32 0x4E487B7100000000000000000000000000000000000000000000000000000000 PUSH0 MSTORE PUSH1 0x32 PUSH1 0x4 MSTORE PUSH1 0x24 PUSH0 REVERT JUMPDEST PUSH0 DUP2 SWAP1 POP SWAP2 SWAP1 POP JUMP JUMPDEST PUSH2 0xD6D DUP2 PUSH2 0xD5B JUMP JUMPDEST DUP3 MSTORE POP POP JUMP JUMPDEST POP JUMP JUMPDEST PUSH0 PUSH2 0xD81 PUSH0 DUP4 PUSH2 0xB9D JUMP JUMPDEST SWAP2 POP PUSH2 0xD8C DUP3 PUSH2 0xD73 JUMP JUMPDEST PUSH0 DUP3 ADD SWAP1 POP SWAP2 SWAP1 POP JUMP JUMPDEST PUSH0 PUSH1 0xA0 DUP3 ADD SWAP1 POP PUSH2 0xDA9 PUSH0 DUP4 ADD DUP8 PUSH2 0xAF1 JUMP JUMPDEST PUSH2 0xDB6 PUSH1 0x20 DUP4 ADD DUP7 PUSH2 0xAF1 JUMP JUMPDEST PUSH2 0xDC3 PUSH1 0x40 DUP4 ADD DUP6 PUSH2 0xD64 JUMP JUMPDEST PUSH2 0xDD0 PUSH1 0x60 DUP4 ADD DUP5 PUSH2 0xD64 JUMP JUMPDEST DUP2 DUP2 SUB PUSH1 0x80 DUP4 ADD MSTORE PUSH2 0xDE1 DUP2 PUSH2 0xD76 JUMP JUMPDEST SWAP1 POP SWAP6 SWAP5 POP POP POP POP POP JUMP JUMPDEST PUSH0 PUSH2 0xDF6 DUP3 PUSH2 0xAC1 JUMP JUMPDEST SWAP1 POP SWAP2 SWAP1 POP JUMP JUMPDEST PUSH2 0xE06 DUP2 PUSH2 0xDEC JUMP JUMPDEST DUP2 EQ PUSH2 0xE10 JUMPI PUSH0 PUSH0 REVERT JUMPDEST POP JUMP JUMPDEST PUSH0 DUP2 MLOAD SWAP1 POP PUSH2 0xE21 DUP2 PUSH2 0xDFD JUMP JUMPDEST SWAP3 SWAP2 POP POP JUMP JUMPDEST PUSH0 PUSH0 PUSH0 PUSH1 0x60 DUP5 DUP7 SUB SLT ISZERO PUSH2 0xE3E JUMPI PUSH2 0xE3D PUSH2 0x7A1 JUMP JUMPDEST JUMPDEST PUSH0 PUSH2 0xE4B DUP7 DUP3 DUP8 ADD PUSH2 0xE13 JUMP JUMPDEST SWAP4 POP POP PUSH1 0x20 PUSH2 0xE5C DUP7 DUP3 DUP8 ADD PUSH2 0xE13 JUMP JUMPDEST SWAP3 POP POP PUSH1 0x40 PUSH2 0xE6D DUP7 DUP3 DUP8 ADD PUSH2 0xE13 JUMP JUMPDEST SWAP2 POP POP SWAP3 POP SWAP3 POP SWAP3 JUMP JUMPDEST PUSH0 PUSH1 0x60 DUP3 ADD SWAP1 POP PUSH2 0xE8A PUSH0 DUP4 ADD DUP7 PUSH2 0xAF1 JUMP JUMPDEST PUSH2 0xE97 PUSH1 0x20 DUP4 ADD DUP6 PUSH2 0xAF1 JUMP JUMPDEST PUSH2 0xEA4 PUSH1 0x40 DUP4 ADD DUP5 PUSH2 0xAF1 JUMP JUMPDEST SWAP5 SWAP4 POP POP POP POP JUMP INVALID LOG2 PUSH5 0x6970667358 0x22 SLT KECCAK256 SWAPN 0x16 0xF 0xDD SMOD 0xA9 RETURNDATASIZE 0xD9 CALLDATALOAD PUSH20 0x2CC2F3B93D6EFFDB2CCD16B3A029619C72DDCB72 ADDMOD 0xC3 PUSH5 0x736F6C6343 STOP ADDMOD SAR STOP CALLER "
		},
		"gasEstimates": {
			"creation": {
				"codeDepositCost": "762000",
				"executionCost": "infinite",
				"totalCost": "infinite"
			},
			"external": {
				"airdrop(address[],uint256[],uint256[])": "infinite",
				"getInitData(address,address,address)": "infinite",
				"initialize(bytes)": "infinite",
				"owner()": "2514",
				"renounceOwnership()": "infinite",
				"token()": "infinite",
				"transferOwnership(address)": "infinite",
				"treasury()": "2553"
			}
		},
		"methodIdentifiers": {
			"airdrop(address[],uint256[],uint256[])": "1bf2907b",
			"getInitData(address,address,address)": "c475dda9",
			"initialize(bytes)": "439fab91",
			"owner()": "8da5cb5b",
			"renounceOwnership()": "715018a6",
			"token()": "fc0c546a",
			"transferOwnership(address)": "f2fde38b",
			"treasury()": "61d027b3"
		}
	},
	"abi": [
		{
			"inputs": [],
			"stateMutability": "nonpayable",
			"type": "constructor"
		},
		{
			"inputs": [],
			"name": "AlreadyInitialized",
			"type": "error"
		},
		{
			"inputs": [],
			"name": "ArraysLengthMismatch",
			"type": "error"
		},
		{
			"inputs": [],
			"name": "NeedToApproveTokens",
			"type": "error"
		},
		{
			"inputs": [
				{
					"internalType": "address",
					"name": "owner",
					"type": "address"
				}
			],
			"name": "OwnableInvalidOwner",
			"type": "error"
		},
		{
			"inputs": [
				{
					"internalType": "address",
					"name": "account",
					"type": "address"
				}
			],
			"name": "OwnableUnauthorizedAccount",
			"type": "error"
		},
		{
			"anonymous": false,
			"inputs": [
				{
					"indexed": true,
					"internalType": "address",
					"name": "previousOwner",
					"type": "address"
				},
				{
					"indexed": true,
					"internalType": "address",
					"name": "newOwner",
					"type": "address"
				}
			],
			"name": "OwnershipTransferred",
			"type": "event"
		},
		{
			"inputs": [
				{
					"internalType": "address[]",
					"name": "receivers",
					"type": "address[]"
				},
				{
					"internalType": "uint256[]",
					"name": "amounts",
					"type": "uint256[]"
				},
				{
					"internalType": "uint256[]",
					"name": "tokenId",
					"type": "uint256[]"
				}
			],
			"name": "airdrop",
			"outputs": [],
			"stateMutability": "nonpayable",
			"type": "function"
		},
		{
			"inputs": [
				{
					"internalType": "address",
					"name": "_token",
					"type": "address"
				},
				{
					"internalType": "address",
					"name": "_treasury",
					"type": "address"
				},
				{
					"internalType": "address",
					"name": "_owner",
					"type": "address"
				}
			],
			"name": "getInitData",
			"outputs": [
				{
					"internalType": "bytes",
					"name": "",
					"type": "bytes"
				}
			],
			"stateMutability": "pure",
			"type": "function"
		},
		{
			"inputs": [
				{
					"internalType": "bytes",
					"name": "_initData",
					"type": "bytes"
				}
			],
			"name": "initialize",
			"outputs": [
				{
					"internalType": "bool",
					"name": "",
					"type": "bool"
				}
			],
			"stateMutability": "nonpayable",
			"type": "function"
		},
		{
			"inputs": [],
			"name": "owner",
			"outputs": [
				{
					"internalType": "address",
					"name": "",
					"type": "address"
				}
			],
			"stateMutability": "view",
			"type": "function"
		},
		{
			"inputs": [],
			"name": "renounceOwnership",
			"outputs": [],
			"stateMutability": "nonpayable",
			"type": "function"
		},
		{
			"inputs": [],
			"name": "token",
			"outputs": [
				{
					"internalType": "contract IERC1155",
					"name": "",
					"type": "address"
				}
			],
			"stateMutability": "view",
			"type": "function"
		},
		{
			"inputs": [
				{
					"internalType": "address",
					"name": "newOwner",
					"type": "address"
				}
			],
			"name": "transferOwnership",
			"outputs": [],
			"stateMutability": "nonpayable",
			"type": "function"
		},
		{
			"inputs": [],
			"name": "treasury",
			"outputs": [
				{
					"internalType": "address",
					"name": "",
					"type": "address"
				}
			],
			"stateMutability": "view",
			"type": "function"
		}
	]
}