{
	"contracts/ERC20Airdroper/ERC20Airdroper.sol": {
		"ERC20Airdroper": {
			"abi": [
				{
					"inputs": [],
					"stateMutability": "nonpayable",
					"type": "constructor"
				},
				{
					"inputs": [],
					"name": "AlreadyInitialized",
					"type": "error"
				},
				{
					"inputs": [],
					"name": "ArraysLengthMismatch",
					"type": "error"
				},
				{
					"inputs": [],
					"name": "NotEnoughApprovedTokens",
					"type": "error"
				},
				{
					"inputs": [
						{
							"internalType": "address",
							"name": "owner",
							"type": "address"
						}
					],
					"name": "OwnableInvalidOwner",
					"type": "error"
				},
				{
					"inputs": [
						{
							"internalType": "address",
							"name": "account",
							"type": "address"
						}
					],
					"name": "OwnableUnauthorizedAccount",
					"type": "error"
				},
				{
					"inputs": [],
					"name": "TransferFailed",
					"type": "error"
				},
				{
					"anonymous": false,
					"inputs": [
						{
							"indexed": true,
							"internalType": "address",
							"name": "previousOwner",
							"type": "address"
						},
						{
							"indexed": true,
							"internalType": "address",
							"name": "newOwner",
							"type": "address"
						}
					],
					"name": "OwnershipTransferred",
					"type": "event"
				},
				{
					"inputs": [
						{
							"internalType": "address[]",
							"name": "receivers",
							"type": "address[]"
						},
						{
							"internalType": "uint256[]",
							"name": "amounts",
							"type": "uint256[]"
						}
					],
					"name": "airdrop",
					"outputs": [],
					"stateMutability": "nonpayable",
					"type": "function"
				},
				{
					"inputs": [],
					"name": "amount",
					"outputs": [
						{
							"internalType": "uint256",
							"name": "",
							"type": "uint256"
						}
					],
					"stateMutability": "view",
					"type": "function"
				},
				{
					"inputs": [
						{
							"internalType": "address",
							"name": "_token",
							"type": "address"
						},
						{
							"internalType": "uint256",
							"name": "_amount",
							"type": "uint256"
						},
						{
							"internalType": "address",
							"name": "_treasury",
							"type": "address"
						},
						{
							"internalType": "address",
							"name": "_owner",
							"type": "address"
						}
					],
					"name": "getInitData",
					"outputs": [
						{
							"internalType": "bytes",
							"name": "",
							"type": "bytes"
						}
					],
					"stateMutability": "pure",
					"type": "function"
				},
				{
					"inputs": [
						{
							"internalType": "bytes",
							"name": "_initData",
							"type": "bytes"
						}
					],
					"name": "initialize",
					"outputs": [
						{
							"internalType": "bool",
							"name": "",
							"type": "bool"
						}
					],
					"stateMutability": "nonpayable",
					"type": "function"
				},
				{
					"inputs": [],
					"name": "owner",
					"outputs": [
						{
							"internalType": "address",
							"name": "",
							"type": "address"
						}
					],
					"stateMutability": "view",
					"type": "function"
				},
				{
					"inputs": [],
					"name": "renounceOwnership",
					"outputs": [],
					"stateMutability": "nonpayable",
					"type": "function"
				},
				{
					"inputs": [],
					"name": "token",
					"outputs": [
						{
							"internalType": "contract IERC20",
							"name": "",
							"type": "address"
						}
					],
					"stateMutability": "view",
					"type": "function"
				},
				{
					"inputs": [
						{
							"internalType": "address",
							"name": "newOwner",
							"type": "address"
						}
					],
					"name": "transferOwnership",
					"outputs": [],
					"stateMutability": "nonpayable",
					"type": "function"
				},
				{
					"inputs": [],
					"name": "treasury",
					"outputs": [
						{
							"internalType": "address",
							"name": "",
							"type": "address"
						}
					],
					"stateMutability": "view",
					"type": "function"
				}
			],
			"devdoc": {
				"errors": {
					"OwnableInvalidOwner(address)": [
						{
							"details": "The owner is not a valid owner account. (eg. `address(0)`)"
						}
					],
					"OwnableUnauthorizedAccount(address)": [
						{
							"details": "The caller account is not authorized to perform an operation."
						}
					]
				},
				"kind": "dev",
				"methods": {
					"owner()": {
						"details": "Returns the address of the current owner."
					},
					"renounceOwnership()": {
						"details": "Leaves the contract without owner. It will not be possible to call `onlyOwner` functions. Can only be called by the current owner. NOTE: Renouncing ownership will leave the contract without an owner, thereby disabling any functionality that is only available to the owner."
					},
					"transferOwnership(address)": {
						"details": "Transfers ownership of the contract to a new account (`newOwner`). Can only be called by the current owner."
					}
				},
				"version": 1
			},
			"evm": {
				"assembly": "    /* \"contracts/ERC20Airdroper/ERC20Airdroper.sol\":203:1719  contract ERC20Airdroper is IUtilityContract, Ownable {... */\n  mstore(0x40, 0x80)\n    /* \"contracts/ERC20Airdroper/ERC20Airdroper.sol\":263:299  constructor() Ownable(msg.sender) {} */\n  callvalue\n  dup1\n  iszero\n  tag_1\n  jumpi\n  revert(0x00, 0x00)\ntag_1:\n  pop\n    /* \"contracts/ERC20Airdroper/ERC20Airdroper.sol\":285:295  msg.sender */\n  caller\n    /* \"@openzeppelin/contracts/access/Ownable.sol\":1297:1298  0 */\n  0x00\n    /* \"@openzeppelin/contracts/access/Ownable.sol\":1273:1299  initialOwner == address(0) */\n  0xffffffffffffffffffffffffffffffffffffffff\n  and\n    /* \"@openzeppelin/contracts/access/Ownable.sol\":1273:1285  initialOwner */\n  dup2\n    /* \"@openzeppelin/contracts/access/Ownable.sol\":1273:1299  initialOwner == address(0) */\n  0xffffffffffffffffffffffffffffffffffffffff\n  and\n  sub\n    /* \"@openzeppelin/contracts/access/Ownable.sol\":1269:1364  if (initialOwner == address(0)) {... */\n  tag_5\n  jumpi\n    /* \"@openzeppelin/contracts/access/Ownable.sol\":1350:1351  0 */\n  0x00\n    /* \"@openzeppelin/contracts/access/Ownable.sol\":1322:1353  OwnableInvalidOwner(address(0)) */\n  mload(0x40)\n  0x1e4fbdf700000000000000000000000000000000000000000000000000000000\n  dup2\n  mstore\n  0x04\n  add\n  tag_6\n  swap2\n  swap1\n  tag_7\n  jump\t// in\ntag_6:\n  mload(0x40)\n  dup1\n  swap2\n  sub\n  swap1\n  revert\n    /* \"@openzeppelin/contracts/access/Ownable.sol\":1269:1364  if (initialOwner == address(0)) {... */\ntag_5:\n    /* \"@openzeppelin/contracts/access/Ownable.sol\":1373:1405  _transferOwnership(initialOwner) */\n  tag_8\n    /* \"@openzeppelin/contracts/access/Ownable.sol\":1392:1404  initialOwner */\n  dup2\n    /* \"@openzeppelin/contracts/access/Ownable.sol\":1373:1391  _transferOwnership */\n  shl(0x20, tag_9)\n    /* \"@openzeppelin/contracts/access/Ownable.sol\":1373:1405  _transferOwnership(initialOwner) */\n  0x20\n  shr\n  jump\t// in\ntag_8:\n    /* \"@openzeppelin/contracts/access/Ownable.sol\":1225:1412  constructor(address initialOwner) {... */\n  pop\n    /* \"contracts/ERC20Airdroper/ERC20Airdroper.sol\":203:1719  contract ERC20Airdroper is IUtilityContract, Ownable {... */\n  jump(tag_11)\n    /* \"@openzeppelin/contracts/access/Ownable.sol\":2912:3099  function _transferOwnership(address newOwner) internal virtual {... */\ntag_9:\n    /* \"@openzeppelin/contracts/access/Ownable.sol\":2985:3001  address oldOwner */\n  0x00\n    /* \"@openzeppelin/contracts/access/Ownable.sol\":3004:3010  _owner */\n  0x00\n  0x00\n  swap1\n  sload\n  swap1\n  0x0100\n  exp\n  swap1\n  div\n  0xffffffffffffffffffffffffffffffffffffffff\n  and\n    /* \"@openzeppelin/contracts/access/Ownable.sol\":2985:3010  address oldOwner = _owner */\n  swap1\n  pop\n    /* \"@openzeppelin/contracts/access/Ownable.sol\":3029:3037  newOwner */\n  dup2\n    /* \"@openzeppelin/contracts/access/Ownable.sol\":3020:3026  _owner */\n  0x00\n  0x00\n    /* \"@openzeppelin/contracts/access/Ownable.sol\":3020:3037  _owner = newOwner */\n  0x0100\n  exp\n  dup2\n  sload\n  dup2\n  0xffffffffffffffffffffffffffffffffffffffff\n  mul\n  not\n  and\n  swap1\n  dup4\n  0xffffffffffffffffffffffffffffffffffffffff\n  and\n  mul\n  or\n  swap1\n  sstore\n  pop\n    /* \"@openzeppelin/contracts/access/Ownable.sol\":3083:3091  newOwner */\n  dup2\n    /* \"@openzeppelin/contracts/access/Ownable.sol\":3052:3092  OwnershipTransferred(oldOwner, newOwner) */\n  0xffffffffffffffffffffffffffffffffffffffff\n  and\n    /* \"@openzeppelin/contracts/access/Ownable.sol\":3073:3081  oldOwner */\n  dup2\n    /* \"@openzeppelin/contracts/access/Ownable.sol\":3052:3092  OwnershipTransferred(oldOwner, newOwner) */\n  0xffffffffffffffffffffffffffffffffffffffff\n  and\n  0x8be0079c531659141344cd1fd0a4f28419497f9722a3daafe3b4186f6b6457e0\n  mload(0x40)\n  mload(0x40)\n  dup1\n  swap2\n  sub\n  swap1\n  log3\n    /* \"@openzeppelin/contracts/access/Ownable.sol\":2975:3099  {... */\n  pop\n    /* \"@openzeppelin/contracts/access/Ownable.sol\":2912:3099  function _transferOwnership(address newOwner) internal virtual {... */\n  pop\n  jump\t// out\n    /* \"#utility.yul\":7:133   */\ntag_13:\n    /* \"#utility.yul\":44:51   */\n  0x00\n    /* \"#utility.yul\":84:126   */\n  0xffffffffffffffffffffffffffffffffffffffff\n    /* \"#utility.yul\":77:82   */\n  dup3\n    /* \"#utility.yul\":73:127   */\n  and\n    /* \"#utility.yul\":62:127   */\n  swap1\n  pop\n    /* \"#utility.yul\":7:133   */\n  swap2\n  swap1\n  pop\n  jump\t// out\n    /* \"#utility.yul\":139:235   */\ntag_14:\n    /* \"#utility.yul\":176:183   */\n  0x00\n    /* \"#utility.yul\":205:229   */\n  tag_19\n    /* \"#utility.yul\":223:228   */\n  dup3\n    /* \"#utility.yul\":205:229   */\n  tag_13\n  jump\t// in\ntag_19:\n    /* \"#utility.yul\":194:229   */\n  swap1\n  pop\n    /* \"#utility.yul\":139:235   */\n  swap2\n  swap1\n  pop\n  jump\t// out\n    /* \"#utility.yul\":241:359   */\ntag_15:\n    /* \"#utility.yul\":328:352   */\n  tag_21\n    /* \"#utility.yul\":346:351   */\n  dup2\n    /* \"#utility.yul\":328:352   */\n  tag_14\n  jump\t// in\ntag_21:\n    /* \"#utility.yul\":323:326   */\n  dup3\n    /* \"#utility.yul\":316:353   */\n  mstore\n    /* \"#utility.yul\":241:359   */\n  pop\n  pop\n  jump\t// out\n    /* \"#utility.yul\":365:587   */\ntag_7:\n    /* \"#utility.yul\":458:462   */\n  0x00\n    /* \"#utility.yul\":496:498   */\n  0x20\n    /* \"#utility.yul\":485:494   */\n  dup3\n    /* \"#utility.yul\":481:499   */\n  add\n    /* \"#utility.yul\":473:499   */\n  swap1\n  pop\n    /* \"#utility.yul\":509:580   */\n  tag_23\n    /* \"#utility.yul\":577:578   */\n  0x00\n    /* \"#utility.yul\":566:575   */\n  dup4\n    /* \"#utility.yul\":562:579   */\n  add\n    /* \"#utility.yul\":553:559   */\n  dup5\n    /* \"#utility.yul\":509:580   */\n  tag_15\n  jump\t// in\ntag_23:\n    /* \"#utility.yul\":365:587   */\n  swap3\n  swap2\n  pop\n  pop\n  jump\t// out\n    /* \"contracts/ERC20Airdroper/ERC20Airdroper.sol\":203:1719  contract ERC20Airdroper is IUtilityContract, Ownable {... */\ntag_11:\n  dataSize(sub_0)\n  dup1\n  dataOffset(sub_0)\n  0x00\n  codecopy\n  0x00\n  return\nstop\n\nsub_0: assembly {\n        /* \"contracts/ERC20Airdroper/ERC20Airdroper.sol\":203:1719  contract ERC20Airdroper is IUtilityContract, Ownable {... */\n      mstore(0x40, 0x80)\n      callvalue\n      dup1\n      iszero\n      tag_1\n      jumpi\n      revert(0x00, 0x00)\n    tag_1:\n      pop\n      jumpi(tag_2, lt(calldatasize, 0x04))\n      shr(0xe0, calldataload(0x00))\n      dup1\n      0x715018a6\n      gt\n      tag_12\n      jumpi\n      dup1\n      0x715018a6\n      eq\n      tag_7\n      jumpi\n      dup1\n      0x8da5cb5b\n      eq\n      tag_8\n      jumpi\n      dup1\n      0xaa8c217c\n      eq\n      tag_9\n      jumpi\n      dup1\n      0xf2fde38b\n      eq\n      tag_10\n      jumpi\n      dup1\n      0xfc0c546a\n      eq\n      tag_11\n      jumpi\n      jump(tag_2)\n    tag_12:\n      dup1\n      0x2bfc9e2b\n      eq\n      tag_3\n      jumpi\n      dup1\n      0x439fab91\n      eq\n      tag_4\n      jumpi\n      dup1\n      0x61d027b3\n      eq\n      tag_5\n      jumpi\n      dup1\n      0x67243482\n      eq\n      tag_6\n      jumpi\n    tag_2:\n      revert(0x00, 0x00)\n        /* \"contracts/ERC20Airdroper/ERC20Airdroper.sol\":1516:1711  function getInitData(address _token, uint256 _amount, address _treasury, address _owner) external pure returns(bytes memory) {... */\n    tag_3:\n      tag_13\n      0x04\n      dup1\n      calldatasize\n      sub\n      dup2\n      add\n      swap1\n      tag_14\n      swap2\n      swap1\n      tag_15\n      jump\t// in\n    tag_14:\n      tag_16\n      jump\t// in\n    tag_13:\n      mload(0x40)\n      tag_17\n      swap2\n      swap1\n      tag_18\n      jump\t// in\n    tag_17:\n      mload(0x40)\n      dup1\n      swap2\n      sub\n      swap1\n      return\n        /* \"contracts/ERC20Airdroper/ERC20Airdroper.sol\":1097:1510  function initialize(bytes memory _initData) external notInitialized returns(bool) {... */\n    tag_4:\n      tag_19\n      0x04\n      dup1\n      calldatasize\n      sub\n      dup2\n      add\n      swap1\n      tag_20\n      swap2\n      swap1\n      tag_21\n      jump\t// in\n    tag_20:\n      tag_22\n      jump\t// in\n    tag_19:\n      mload(0x40)\n      tag_23\n      swap2\n      swap1\n      tag_24\n      jump\t// in\n    tag_23:\n      mload(0x40)\n      dup1\n      swap2\n      sub\n      swap1\n      return\n        /* \"contracts/ERC20Airdroper/ERC20Airdroper.sol\":357:380  address public treasury */\n    tag_5:\n      tag_25\n      tag_26\n      jump\t// in\n    tag_25:\n      mload(0x40)\n      tag_27\n      swap2\n      swap1\n      tag_28\n      jump\t// in\n    tag_27:\n      mload(0x40)\n      dup1\n      swap2\n      sub\n      swap1\n      return\n        /* \"contracts/ERC20Airdroper/ERC20Airdroper.sol\":653:1091  function airdrop(address[] calldata receivers, uint256[] calldata amounts) external onlyOwner {... */\n    tag_6:\n      tag_29\n      0x04\n      dup1\n      calldatasize\n      sub\n      dup2\n      add\n      swap1\n      tag_30\n      swap2\n      swap1\n      tag_31\n      jump\t// in\n    tag_30:\n      tag_32\n      jump\t// in\n    tag_29:\n      stop\n        /* \"@openzeppelin/contracts/access/Ownable.sol\":2293:2394  function renounceOwnership() public virtual onlyOwner {... */\n    tag_7:\n      tag_33\n      tag_34\n      jump\t// in\n    tag_33:\n      stop\n        /* \"@openzeppelin/contracts/access/Ownable.sol\":1638:1723  function owner() public view virtual returns (address) {... */\n    tag_8:\n      tag_35\n      tag_36\n      jump\t// in\n    tag_35:\n      mload(0x40)\n      tag_37\n      swap2\n      swap1\n      tag_28\n      jump\t// in\n    tag_37:\n      mload(0x40)\n      dup1\n      swap2\n      sub\n      swap1\n      return\n        /* \"contracts/ERC20Airdroper/ERC20Airdroper.sol\":330:351  uint256 public amount */\n    tag_9:\n      tag_38\n      tag_39\n      jump\t// in\n    tag_38:\n      mload(0x40)\n      tag_40\n      swap2\n      swap1\n      tag_41\n      jump\t// in\n    tag_40:\n      mload(0x40)\n      dup1\n      swap2\n      sub\n      swap1\n      return\n        /* \"@openzeppelin/contracts/access/Ownable.sol\":2543:2758  function transferOwnership(address newOwner) public virtual onlyOwner {... */\n    tag_10:\n      tag_42\n      0x04\n      dup1\n      calldatasize\n      sub\n      dup2\n      add\n      swap1\n      tag_43\n      swap2\n      swap1\n      tag_44\n      jump\t// in\n    tag_43:\n      tag_45\n      jump\t// in\n    tag_42:\n      stop\n        /* \"contracts/ERC20Airdroper/ERC20Airdroper.sol\":305:324  IERC20 public token */\n    tag_11:\n      tag_46\n      tag_47\n      jump\t// in\n    tag_46:\n      mload(0x40)\n      tag_48\n      swap2\n      swap1\n      tag_49\n      jump\t// in\n    tag_48:\n      mload(0x40)\n      dup1\n      swap2\n      sub\n      swap1\n      return\n        /* \"contracts/ERC20Airdroper/ERC20Airdroper.sol\":1516:1711  function getInitData(address _token, uint256 _amount, address _treasury, address _owner) external pure returns(bytes memory) {... */\n    tag_16:\n        /* \"contracts/ERC20Airdroper/ERC20Airdroper.sol\":1627:1639  bytes memory */\n      0x60\n        /* \"contracts/ERC20Airdroper/ERC20Airdroper.sol\":1669:1675  _token */\n      dup5\n        /* \"contracts/ERC20Airdroper/ERC20Airdroper.sol\":1677:1684  _amount */\n      dup5\n        /* \"contracts/ERC20Airdroper/ERC20Airdroper.sol\":1686:1695  _treasury */\n      dup5\n        /* \"contracts/ERC20Airdroper/ERC20Airdroper.sol\":1697:1703  _owner */\n      dup5\n        /* \"contracts/ERC20Airdroper/ERC20Airdroper.sol\":1658:1704  abi.encode(_token, _amount, _treasury, _owner) */\n      add(0x20, mload(0x40))\n      tag_51\n      swap5\n      swap4\n      swap3\n      swap2\n      swap1\n      tag_52\n      jump\t// in\n    tag_51:\n      mload(0x40)\n      0x20\n      dup2\n      dup4\n      sub\n      sub\n      dup2\n      mstore\n      swap1\n      0x40\n      mstore\n        /* \"contracts/ERC20Airdroper/ERC20Airdroper.sol\":1651:1704  return abi.encode(_token, _amount, _treasury, _owner) */\n      swap1\n      pop\n        /* \"contracts/ERC20Airdroper/ERC20Airdroper.sol\":1516:1711  function getInitData(address _token, uint256 _amount, address _treasury, address _owner) external pure returns(bytes memory) {... */\n      swap5\n      swap4\n      pop\n      pop\n      pop\n      pop\n      jump\t// out\n        /* \"contracts/ERC20Airdroper/ERC20Airdroper.sol\":1097:1510  function initialize(bytes memory _initData) external notInitialized returns(bool) {... */\n    tag_22:\n        /* \"contracts/ERC20Airdroper/ERC20Airdroper.sol\":1173:1177  bool */\n      0x00\n        /* \"contracts/ERC20Airdroper/ERC20Airdroper.sol\":564:575  initialized */\n      0x03\n      0x14\n      swap1\n      sload\n      swap1\n      0x0100\n      exp\n      swap1\n      div\n      0xff\n      and\n        /* \"contracts/ERC20Airdroper/ERC20Airdroper.sol\":563:575  !initialized */\n      iszero\n        /* \"contracts/ERC20Airdroper/ERC20Airdroper.sol\":555:598  require(!initialized, AlreadyInitialized()) */\n      tag_54\n      jumpi\n      mload(0x40)\n      0x0dc149f000000000000000000000000000000000000000000000000000000000\n      dup2\n      mstore\n      0x04\n      add\n      mload(0x40)\n      dup1\n      swap2\n      sub\n      swap1\n      revert\n    tag_54:\n        /* \"contracts/ERC20Airdroper/ERC20Airdroper.sol\":1191:1205  address _token */\n      0x00\n        /* \"contracts/ERC20Airdroper/ERC20Airdroper.sol\":1207:1222  uint256 _amount */\n      0x00\n        /* \"contracts/ERC20Airdroper/ERC20Airdroper.sol\":1224:1241  address _treasury */\n      0x00\n        /* \"contracts/ERC20Airdroper/ERC20Airdroper.sol\":1243:1257  address _owner */\n      0x00\n        /* \"contracts/ERC20Airdroper/ERC20Airdroper.sol\":1272:1281  _initData */\n      dup6\n        /* \"contracts/ERC20Airdroper/ERC20Airdroper.sol\":1261:1320  abi.decode(_initData, (address, uint256, address, address)) */\n      dup1\n      0x20\n      add\n      swap1\n      mload\n      dup2\n      add\n      swap1\n      tag_56\n      swap2\n      swap1\n      tag_57\n      jump\t// in\n    tag_56:\n        /* \"contracts/ERC20Airdroper/ERC20Airdroper.sol\":1190:1320  (address _token, uint256 _amount, address _treasury, address _owner) = abi.decode(_initData, (address, uint256, address, address)) */\n      swap4\n      pop\n      swap4\n      pop\n      swap4\n      pop\n      swap4\n      pop\n        /* \"contracts/ERC20Airdroper/ERC20Airdroper.sol\":1346:1352  _token */\n      dup4\n        /* \"contracts/ERC20Airdroper/ERC20Airdroper.sol\":1331:1336  token */\n      0x01\n      0x00\n        /* \"contracts/ERC20Airdroper/ERC20Airdroper.sol\":1331:1353  token = IERC20(_token) */\n      0x0100\n      exp\n      dup2\n      sload\n      dup2\n      0xffffffffffffffffffffffffffffffffffffffff\n      mul\n      not\n      and\n      swap1\n      dup4\n      0xffffffffffffffffffffffffffffffffffffffff\n      and\n      mul\n      or\n      swap1\n      sstore\n      pop\n        /* \"contracts/ERC20Airdroper/ERC20Airdroper.sol\":1372:1379  _amount */\n      dup3\n        /* \"contracts/ERC20Airdroper/ERC20Airdroper.sol\":1363:1369  amount */\n      0x02\n        /* \"contracts/ERC20Airdroper/ERC20Airdroper.sol\":1363:1379  amount = _amount */\n      dup2\n      swap1\n      sstore\n      pop\n        /* \"contracts/ERC20Airdroper/ERC20Airdroper.sol\":1400:1409  _treasury */\n      dup2\n        /* \"contracts/ERC20Airdroper/ERC20Airdroper.sol\":1389:1397  treasury */\n      0x03\n      0x00\n        /* \"contracts/ERC20Airdroper/ERC20Airdroper.sol\":1389:1409  treasury = _treasury */\n      0x0100\n      exp\n      dup2\n      sload\n      dup2\n      0xffffffffffffffffffffffffffffffffffffffff\n      mul\n      not\n      and\n      swap1\n      dup4\n      0xffffffffffffffffffffffffffffffffffffffff\n      and\n      mul\n      or\n      swap1\n      sstore\n      pop\n        /* \"contracts/ERC20Airdroper/ERC20Airdroper.sol\":1420:1453  Ownable.transferOwnership(_owner) */\n      tag_58\n        /* \"contracts/ERC20Airdroper/ERC20Airdroper.sol\":1446:1452  _owner */\n      dup2\n        /* \"contracts/ERC20Airdroper/ERC20Airdroper.sol\":1420:1445  Ownable.transferOwnership */\n      tag_45\n        /* \"contracts/ERC20Airdroper/ERC20Airdroper.sol\":1420:1453  Ownable.transferOwnership(_owner) */\n      jump\t// in\n    tag_58:\n        /* \"contracts/ERC20Airdroper/ERC20Airdroper.sol\":1478:1482  true */\n      0x01\n        /* \"contracts/ERC20Airdroper/ERC20Airdroper.sol\":1464:1475  initialized */\n      0x03\n      0x14\n        /* \"contracts/ERC20Airdroper/ERC20Airdroper.sol\":1464:1482  initialized = true */\n      0x0100\n      exp\n      dup2\n      sload\n      dup2\n      0xff\n      mul\n      not\n      and\n      swap1\n      dup4\n      iszero\n      iszero\n      mul\n      or\n      swap1\n      sstore\n      pop\n        /* \"contracts/ERC20Airdroper/ERC20Airdroper.sol\":1499:1503  true */\n      0x01\n        /* \"contracts/ERC20Airdroper/ERC20Airdroper.sol\":1492:1503  return true */\n      swap5\n      pop\n      pop\n      pop\n      pop\n      pop\n        /* \"contracts/ERC20Airdroper/ERC20Airdroper.sol\":1097:1510  function initialize(bytes memory _initData) external notInitialized returns(bool) {... */\n      swap2\n      swap1\n      pop\n      jump\t// out\n        /* \"contracts/ERC20Airdroper/ERC20Airdroper.sol\":357:380  address public treasury */\n    tag_26:\n      0x03\n      0x00\n      swap1\n      sload\n      swap1\n      0x0100\n      exp\n      swap1\n      div\n      0xffffffffffffffffffffffffffffffffffffffff\n      and\n      dup2\n      jump\t// out\n        /* \"contracts/ERC20Airdroper/ERC20Airdroper.sol\":653:1091  function airdrop(address[] calldata receivers, uint256[] calldata amounts) external onlyOwner {... */\n    tag_32:\n        /* \"@openzeppelin/contracts/access/Ownable.sol\":1531:1544  _checkOwner() */\n      tag_60\n        /* \"@openzeppelin/contracts/access/Ownable.sol\":1531:1542  _checkOwner */\n      tag_61\n        /* \"@openzeppelin/contracts/access/Ownable.sol\":1531:1544  _checkOwner() */\n      jump\t// in\n    tag_60:\n        /* \"contracts/ERC20Airdroper/ERC20Airdroper.sol\":785:792  amounts */\n      dup2\n      dup2\n        /* \"contracts/ERC20Airdroper/ERC20Airdroper.sol\":785:799  amounts.length */\n      swap1\n      pop\n        /* \"contracts/ERC20Airdroper/ERC20Airdroper.sol\":765:774  receivers */\n      dup5\n      dup5\n        /* \"contracts/ERC20Airdroper/ERC20Airdroper.sol\":765:781  receivers.length */\n      swap1\n      pop\n        /* \"contracts/ERC20Airdroper/ERC20Airdroper.sol\":765:799  receivers.length == amounts.length */\n      eq\n        /* \"contracts/ERC20Airdroper/ERC20Airdroper.sol\":757:824  require(receivers.length == amounts.length, ArraysLengthMismatch()) */\n      tag_63\n      jumpi\n      mload(0x40)\n      0xfc23596000000000000000000000000000000000000000000000000000000000\n      dup2\n      mstore\n      0x04\n      add\n      mload(0x40)\n      dup1\n      swap2\n      sub\n      swap1\n      revert\n    tag_63:\n        /* \"contracts/ERC20Airdroper/ERC20Airdroper.sol\":886:892  amount */\n      sload(0x02)\n        /* \"contracts/ERC20Airdroper/ERC20Airdroper.sol\":842:847  token */\n      0x01\n      0x00\n      swap1\n      sload\n      swap1\n      0x0100\n      exp\n      swap1\n      div\n      0xffffffffffffffffffffffffffffffffffffffff\n      and\n        /* \"contracts/ERC20Airdroper/ERC20Airdroper.sol\":842:857  token.allowance */\n      0xffffffffffffffffffffffffffffffffffffffff\n      and\n      0xdd62ed3e\n        /* \"contracts/ERC20Airdroper/ERC20Airdroper.sol\":858:866  treasury */\n      0x03\n      0x00\n      swap1\n      sload\n      swap1\n      0x0100\n      exp\n      swap1\n      div\n      0xffffffffffffffffffffffffffffffffffffffff\n      and\n        /* \"contracts/ERC20Airdroper/ERC20Airdroper.sol\":876:880  this */\n      address\n        /* \"contracts/ERC20Airdroper/ERC20Airdroper.sol\":842:882  token.allowance(treasury, address(this)) */\n      mload(0x40)\n      dup4\n      0xffffffff\n      and\n      0xe0\n      shl\n      dup2\n      mstore\n      0x04\n      add\n      tag_64\n      swap3\n      swap2\n      swap1\n      tag_65\n      jump\t// in\n    tag_64:\n      0x20\n      mload(0x40)\n      dup1\n      dup4\n      sub\n      dup2\n      dup7\n      gas\n      staticcall\n      iszero\n      dup1\n      iszero\n      tag_67\n      jumpi\n      returndatacopy(0x00, 0x00, returndatasize)\n      revert(0x00, returndatasize)\n    tag_67:\n      pop\n      pop\n      pop\n      pop\n      mload(0x40)\n      returndatasize\n      not(0x1f)\n      0x1f\n      dup3\n      add\n      and\n      dup3\n      add\n      dup1\n      0x40\n      mstore\n      pop\n      dup2\n      add\n      swap1\n      tag_68\n      swap2\n      swap1\n      tag_69\n      jump\t// in\n    tag_68:\n        /* \"contracts/ERC20Airdroper/ERC20Airdroper.sol\":842:892  token.allowance(treasury, address(this)) >= amount */\n      lt\n      iszero\n        /* \"contracts/ERC20Airdroper/ERC20Airdroper.sol\":834:920  require(token.allowance(treasury, address(this)) >= amount, NotEnoughApprovedTokens()) */\n      tag_70\n      jumpi\n      mload(0x40)\n      0xf9174a0400000000000000000000000000000000000000000000000000000000\n      dup2\n      mstore\n      0x04\n      add\n      mload(0x40)\n      dup1\n      swap2\n      sub\n      swap1\n      revert\n    tag_70:\n        /* \"contracts/ERC20Airdroper/ERC20Airdroper.sol\":936:945  uint256 i */\n      0x00\n        /* \"contracts/ERC20Airdroper/ERC20Airdroper.sol\":948:949  0 */\n      0x00\n        /* \"contracts/ERC20Airdroper/ERC20Airdroper.sol\":936:949  uint256 i = 0 */\n      swap1\n      pop\n        /* \"contracts/ERC20Airdroper/ERC20Airdroper.sol\":931:1084  for (uint256 i = 0; i < receivers.length; i++) {... */\n    tag_71:\n        /* \"contracts/ERC20Airdroper/ERC20Airdroper.sol\":955:964  receivers */\n      dup5\n      dup5\n        /* \"contracts/ERC20Airdroper/ERC20Airdroper.sol\":955:971  receivers.length */\n      swap1\n      pop\n        /* \"contracts/ERC20Airdroper/ERC20Airdroper.sol\":951:952  i */\n      dup2\n        /* \"contracts/ERC20Airdroper/ERC20Airdroper.sol\":951:971  i < receivers.length */\n      lt\n        /* \"contracts/ERC20Airdroper/ERC20Airdroper.sol\":931:1084  for (uint256 i = 0; i < receivers.length; i++) {... */\n      iszero\n      tag_72\n      jumpi\n        /* \"contracts/ERC20Airdroper/ERC20Airdroper.sol\":1000:1005  token */\n      0x01\n      0x00\n      swap1\n      sload\n      swap1\n      0x0100\n      exp\n      swap1\n      div\n      0xffffffffffffffffffffffffffffffffffffffff\n      and\n        /* \"contracts/ERC20Airdroper/ERC20Airdroper.sol\":1000:1018  token.transferFrom */\n      0xffffffffffffffffffffffffffffffffffffffff\n      and\n      0x23b872dd\n        /* \"contracts/ERC20Airdroper/ERC20Airdroper.sol\":1019:1027  treasury */\n      0x03\n      0x00\n      swap1\n      sload\n      swap1\n      0x0100\n      exp\n      swap1\n      div\n      0xffffffffffffffffffffffffffffffffffffffff\n      and\n        /* \"contracts/ERC20Airdroper/ERC20Airdroper.sol\":1029:1038  receivers */\n      dup8\n      dup8\n        /* \"contracts/ERC20Airdroper/ERC20Airdroper.sol\":1039:1040  i */\n      dup6\n        /* \"contracts/ERC20Airdroper/ERC20Airdroper.sol\":1029:1041  receivers[i] */\n      dup2\n      dup2\n      lt\n      tag_74\n      jumpi\n      tag_75\n      tag_76\n      jump\t// in\n    tag_75:\n    tag_74:\n      swap1\n      pop\n      0x20\n      mul\n      add\n      0x20\n      dup2\n      add\n      swap1\n      tag_77\n      swap2\n      swap1\n      tag_44\n      jump\t// in\n    tag_77:\n        /* \"contracts/ERC20Airdroper/ERC20Airdroper.sol\":1043:1050  amounts */\n      dup7\n      dup7\n        /* \"contracts/ERC20Airdroper/ERC20Airdroper.sol\":1051:1052  i */\n      dup7\n        /* \"contracts/ERC20Airdroper/ERC20Airdroper.sol\":1043:1053  amounts[i] */\n      dup2\n      dup2\n      lt\n      tag_78\n      jumpi\n      tag_79\n      tag_76\n      jump\t// in\n    tag_79:\n    tag_78:\n      swap1\n      pop\n      0x20\n      mul\n      add\n      calldataload\n        /* \"contracts/ERC20Airdroper/ERC20Airdroper.sol\":1000:1054  token.transferFrom(treasury, receivers[i], amounts[i]) */\n      mload(0x40)\n      dup5\n      0xffffffff\n      and\n      0xe0\n      shl\n      dup2\n      mstore\n      0x04\n      add\n      tag_80\n      swap4\n      swap3\n      swap2\n      swap1\n      tag_81\n      jump\t// in\n    tag_80:\n      0x20\n      mload(0x40)\n      dup1\n      dup4\n      sub\n      dup2\n      0x00\n      dup8\n      gas\n      call\n      iszero\n      dup1\n      iszero\n      tag_83\n      jumpi\n      returndatacopy(0x00, 0x00, returndatasize)\n      revert(0x00, returndatasize)\n    tag_83:\n      pop\n      pop\n      pop\n      pop\n      mload(0x40)\n      returndatasize\n      not(0x1f)\n      0x1f\n      dup3\n      add\n      and\n      dup3\n      add\n      dup1\n      0x40\n      mstore\n      pop\n      dup2\n      add\n      swap1\n      tag_84\n      swap2\n      swap1\n      tag_85\n      jump\t// in\n    tag_84:\n        /* \"contracts/ERC20Airdroper/ERC20Airdroper.sol\":992:1073  require(token.transferFrom(treasury, receivers[i], amounts[i]), TransferFailed()) */\n      tag_86\n      jumpi\n      mload(0x40)\n      0x90b8ec1800000000000000000000000000000000000000000000000000000000\n      dup2\n      mstore\n      0x04\n      add\n      mload(0x40)\n      dup1\n      swap2\n      sub\n      swap1\n      revert\n    tag_86:\n        /* \"contracts/ERC20Airdroper/ERC20Airdroper.sol\":973:976  i++ */\n      dup1\n      dup1\n      0x01\n      add\n      swap2\n      pop\n      pop\n        /* \"contracts/ERC20Airdroper/ERC20Airdroper.sol\":931:1084  for (uint256 i = 0; i < receivers.length; i++) {... */\n      jump(tag_71)\n    tag_72:\n      pop\n        /* \"contracts/ERC20Airdroper/ERC20Airdroper.sol\":653:1091  function airdrop(address[] calldata receivers, uint256[] calldata amounts) external onlyOwner {... */\n      pop\n      pop\n      pop\n      pop\n      jump\t// out\n        /* \"@openzeppelin/contracts/access/Ownable.sol\":2293:2394  function renounceOwnership() public virtual onlyOwner {... */\n    tag_34:\n        /* \"@openzeppelin/contracts/access/Ownable.sol\":1531:1544  _checkOwner() */\n      tag_88\n        /* \"@openzeppelin/contracts/access/Ownable.sol\":1531:1542  _checkOwner */\n      tag_61\n        /* \"@openzeppelin/contracts/access/Ownable.sol\":1531:1544  _checkOwner() */\n      jump\t// in\n    tag_88:\n        /* \"@openzeppelin/contracts/access/Ownable.sol\":2357:2387  _transferOwnership(address(0)) */\n      tag_90\n        /* \"@openzeppelin/contracts/access/Ownable.sol\":2384:2385  0 */\n      0x00\n        /* \"@openzeppelin/contracts/access/Ownable.sol\":2357:2375  _transferOwnership */\n      tag_91\n        /* \"@openzeppelin/contracts/access/Ownable.sol\":2357:2387  _transferOwnership(address(0)) */\n      jump\t// in\n    tag_90:\n        /* \"@openzeppelin/contracts/access/Ownable.sol\":2293:2394  function renounceOwnership() public virtual onlyOwner {... */\n      jump\t// out\n        /* \"@openzeppelin/contracts/access/Ownable.sol\":1638:1723  function owner() public view virtual returns (address) {... */\n    tag_36:\n        /* \"@openzeppelin/contracts/access/Ownable.sol\":1684:1691  address */\n      0x00\n        /* \"@openzeppelin/contracts/access/Ownable.sol\":1710:1716  _owner */\n      0x00\n      0x00\n      swap1\n      sload\n      swap1\n      0x0100\n      exp\n      swap1\n      div\n      0xffffffffffffffffffffffffffffffffffffffff\n      and\n        /* \"@openzeppelin/contracts/access/Ownable.sol\":1703:1716  return _owner */\n      swap1\n      pop\n        /* \"@openzeppelin/contracts/access/Ownable.sol\":1638:1723  function owner() public view virtual returns (address) {... */\n      swap1\n      jump\t// out\n        /* \"contracts/ERC20Airdroper/ERC20Airdroper.sol\":330:351  uint256 public amount */\n    tag_39:\n      sload(0x02)\n      dup2\n      jump\t// out\n        /* \"@openzeppelin/contracts/access/Ownable.sol\":2543:2758  function transferOwnership(address newOwner) public virtual onlyOwner {... */\n    tag_45:\n        /* \"@openzeppelin/contracts/access/Ownable.sol\":1531:1544  _checkOwner() */\n      tag_94\n        /* \"@openzeppelin/contracts/access/Ownable.sol\":1531:1542  _checkOwner */\n      tag_61\n        /* \"@openzeppelin/contracts/access/Ownable.sol\":1531:1544  _checkOwner() */\n      jump\t// in\n    tag_94:\n        /* \"@openzeppelin/contracts/access/Ownable.sol\":2647:2648  0 */\n      0x00\n        /* \"@openzeppelin/contracts/access/Ownable.sol\":2627:2649  newOwner == address(0) */\n      0xffffffffffffffffffffffffffffffffffffffff\n      and\n        /* \"@openzeppelin/contracts/access/Ownable.sol\":2627:2635  newOwner */\n      dup2\n        /* \"@openzeppelin/contracts/access/Ownable.sol\":2627:2649  newOwner == address(0) */\n      0xffffffffffffffffffffffffffffffffffffffff\n      and\n      sub\n        /* \"@openzeppelin/contracts/access/Ownable.sol\":2623:2714  if (newOwner == address(0)) {... */\n      tag_96\n      jumpi\n        /* \"@openzeppelin/contracts/access/Ownable.sol\":2700:2701  0 */\n      0x00\n        /* \"@openzeppelin/contracts/access/Ownable.sol\":2672:2703  OwnableInvalidOwner(address(0)) */\n      mload(0x40)\n      0x1e4fbdf700000000000000000000000000000000000000000000000000000000\n      dup2\n      mstore\n      0x04\n      add\n      tag_97\n      swap2\n      swap1\n      tag_28\n      jump\t// in\n    tag_97:\n      mload(0x40)\n      dup1\n      swap2\n      sub\n      swap1\n      revert\n        /* \"@openzeppelin/contracts/access/Ownable.sol\":2623:2714  if (newOwner == address(0)) {... */\n    tag_96:\n        /* \"@openzeppelin/contracts/access/Ownable.sol\":2723:2751  _transferOwnership(newOwner) */\n      tag_98\n        /* \"@openzeppelin/contracts/access/Ownable.sol\":2742:2750  newOwner */\n      dup2\n        /* \"@openzeppelin/contracts/access/Ownable.sol\":2723:2741  _transferOwnership */\n      tag_91\n        /* \"@openzeppelin/contracts/access/Ownable.sol\":2723:2751  _transferOwnership(newOwner) */\n      jump\t// in\n    tag_98:\n        /* \"@openzeppelin/contracts/access/Ownable.sol\":2543:2758  function transferOwnership(address newOwner) public virtual onlyOwner {... */\n      pop\n      jump\t// out\n        /* \"contracts/ERC20Airdroper/ERC20Airdroper.sol\":305:324  IERC20 public token */\n    tag_47:\n      0x01\n      0x00\n      swap1\n      sload\n      swap1\n      0x0100\n      exp\n      swap1\n      div\n      0xffffffffffffffffffffffffffffffffffffffff\n      and\n      dup2\n      jump\t// out\n        /* \"@openzeppelin/contracts/access/Ownable.sol\":1796:1958  function _checkOwner() internal view virtual {... */\n    tag_61:\n        /* \"@openzeppelin/contracts/access/Ownable.sol\":1866:1878  _msgSender() */\n      tag_100\n        /* \"@openzeppelin/contracts/access/Ownable.sol\":1866:1876  _msgSender */\n      tag_101\n        /* \"@openzeppelin/contracts/access/Ownable.sol\":1866:1878  _msgSender() */\n      jump\t// in\n    tag_100:\n        /* \"@openzeppelin/contracts/access/Ownable.sol\":1855:1878  owner() != _msgSender() */\n      0xffffffffffffffffffffffffffffffffffffffff\n      and\n        /* \"@openzeppelin/contracts/access/Ownable.sol\":1855:1862  owner() */\n      tag_102\n        /* \"@openzeppelin/contracts/access/Ownable.sol\":1855:1860  owner */\n      tag_36\n        /* \"@openzeppelin/contracts/access/Ownable.sol\":1855:1862  owner() */\n      jump\t// in\n    tag_102:\n        /* \"@openzeppelin/contracts/access/Ownable.sol\":1855:1878  owner() != _msgSender() */\n      0xffffffffffffffffffffffffffffffffffffffff\n      and\n      eq\n        /* \"@openzeppelin/contracts/access/Ownable.sol\":1851:1952  if (owner() != _msgSender()) {... */\n      tag_103\n      jumpi\n        /* \"@openzeppelin/contracts/access/Ownable.sol\":1928:1940  _msgSender() */\n      tag_104\n        /* \"@openzeppelin/contracts/access/Ownable.sol\":1928:1938  _msgSender */\n      tag_101\n        /* \"@openzeppelin/contracts/access/Ownable.sol\":1928:1940  _msgSender() */\n      jump\t// in\n    tag_104:\n        /* \"@openzeppelin/contracts/access/Ownable.sol\":1901:1941  OwnableUnauthorizedAccount(_msgSender()) */\n      mload(0x40)\n      0x118cdaa700000000000000000000000000000000000000000000000000000000\n      dup2\n      mstore\n      0x04\n      add\n      tag_105\n      swap2\n      swap1\n      tag_28\n      jump\t// in\n    tag_105:\n      mload(0x40)\n      dup1\n      swap2\n      sub\n      swap1\n      revert\n        /* \"@openzeppelin/contracts/access/Ownable.sol\":1851:1952  if (owner() != _msgSender()) {... */\n    tag_103:\n        /* \"@openzeppelin/contracts/access/Ownable.sol\":1796:1958  function _checkOwner() internal view virtual {... */\n      jump\t// out\n        /* \"@openzeppelin/contracts/access/Ownable.sol\":2912:3099  function _transferOwnership(address newOwner) internal virtual {... */\n    tag_91:\n        /* \"@openzeppelin/contracts/access/Ownable.sol\":2985:3001  address oldOwner */\n      0x00\n        /* \"@openzeppelin/contracts/access/Ownable.sol\":3004:3010  _owner */\n      0x00\n      0x00\n      swap1\n      sload\n      swap1\n      0x0100\n      exp\n      swap1\n      div\n      0xffffffffffffffffffffffffffffffffffffffff\n      and\n        /* \"@openzeppelin/contracts/access/Ownable.sol\":2985:3010  address oldOwner = _owner */\n      swap1\n      pop\n        /* \"@openzeppelin/contracts/access/Ownable.sol\":3029:3037  newOwner */\n      dup2\n        /* \"@openzeppelin/contracts/access/Ownable.sol\":3020:3026  _owner */\n      0x00\n      0x00\n        /* \"@openzeppelin/contracts/access/Ownable.sol\":3020:3037  _owner = newOwner */\n      0x0100\n      exp\n      dup2\n      sload\n      dup2\n      0xffffffffffffffffffffffffffffffffffffffff\n      mul\n      not\n      and\n      swap1\n      dup4\n      0xffffffffffffffffffffffffffffffffffffffff\n      and\n      mul\n      or\n      swap1\n      sstore\n      pop\n        /* \"@openzeppelin/contracts/access/Ownable.sol\":3083:3091  newOwner */\n      dup2\n        /* \"@openzeppelin/contracts/access/Ownable.sol\":3052:3092  OwnershipTransferred(oldOwner, newOwner) */\n      0xffffffffffffffffffffffffffffffffffffffff\n      and\n        /* \"@openzeppelin/contracts/access/Ownable.sol\":3073:3081  oldOwner */\n      dup2\n        /* \"@openzeppelin/contracts/access/Ownable.sol\":3052:3092  OwnershipTransferred(oldOwner, newOwner) */\n      0xffffffffffffffffffffffffffffffffffffffff\n      and\n      0x8be0079c531659141344cd1fd0a4f28419497f9722a3daafe3b4186f6b6457e0\n      mload(0x40)\n      mload(0x40)\n      dup1\n      swap2\n      sub\n      swap1\n      log3\n        /* \"@openzeppelin/contracts/access/Ownable.sol\":2975:3099  {... */\n      pop\n        /* \"@openzeppelin/contracts/access/Ownable.sol\":2912:3099  function _transferOwnership(address newOwner) internal virtual {... */\n      pop\n      jump\t// out\n        /* \"@openzeppelin/contracts/utils/Context.sol\":656:752  function _msgSender() internal view virtual returns (address) {... */\n    tag_101:\n        /* \"@openzeppelin/contracts/utils/Context.sol\":709:716  address */\n      0x00\n        /* \"@openzeppelin/contracts/utils/Context.sol\":735:745  msg.sender */\n      caller\n        /* \"@openzeppelin/contracts/utils/Context.sol\":728:745  return msg.sender */\n      swap1\n      pop\n        /* \"@openzeppelin/contracts/utils/Context.sol\":656:752  function _msgSender() internal view virtual returns (address) {... */\n      swap1\n      jump\t// out\n        /* \"#utility.yul\":7:82   */\n    tag_108:\n        /* \"#utility.yul\":40:46   */\n      0x00\n        /* \"#utility.yul\":73:75   */\n      0x40\n        /* \"#utility.yul\":67:76   */\n      mload\n        /* \"#utility.yul\":57:76   */\n      swap1\n      pop\n        /* \"#utility.yul\":7:82   */\n      swap1\n      jump\t// out\n        /* \"#utility.yul\":88:205   */\n    tag_109:\n        /* \"#utility.yul\":197:198   */\n      0x00\n        /* \"#utility.yul\":194:195   */\n      0x00\n        /* \"#utility.yul\":187:199   */\n      revert\n        /* \"#utility.yul\":211:328   */\n    tag_110:\n        /* \"#utility.yul\":320:321   */\n      0x00\n        /* \"#utility.yul\":317:318   */\n      0x00\n        /* \"#utility.yul\":310:322   */\n      revert\n        /* \"#utility.yul\":334:460   */\n    tag_111:\n        /* \"#utility.yul\":371:378   */\n      0x00\n        /* \"#utility.yul\":411:453   */\n      0xffffffffffffffffffffffffffffffffffffffff\n        /* \"#utility.yul\":404:409   */\n      dup3\n        /* \"#utility.yul\":400:454   */\n      and\n        /* \"#utility.yul\":389:454   */\n      swap1\n      pop\n        /* \"#utility.yul\":334:460   */\n      swap2\n      swap1\n      pop\n      jump\t// out\n        /* \"#utility.yul\":466:562   */\n    tag_112:\n        /* \"#utility.yul\":503:510   */\n      0x00\n        /* \"#utility.yul\":532:556   */\n      tag_157\n        /* \"#utility.yul\":550:555   */\n      dup3\n        /* \"#utility.yul\":532:556   */\n      tag_111\n      jump\t// in\n    tag_157:\n        /* \"#utility.yul\":521:556   */\n      swap1\n      pop\n        /* \"#utility.yul\":466:562   */\n      swap2\n      swap1\n      pop\n      jump\t// out\n        /* \"#utility.yul\":568:690   */\n    tag_113:\n        /* \"#utility.yul\":641:665   */\n      tag_159\n        /* \"#utility.yul\":659:664   */\n      dup2\n        /* \"#utility.yul\":641:665   */\n      tag_112\n      jump\t// in\n    tag_159:\n        /* \"#utility.yul\":634:639   */\n      dup2\n        /* \"#utility.yul\":631:666   */\n      eq\n        /* \"#utility.yul\":621:684   */\n      tag_160\n      jumpi\n        /* \"#utility.yul\":680:681   */\n      0x00\n        /* \"#utility.yul\":677:678   */\n      0x00\n        /* \"#utility.yul\":670:682   */\n      revert\n        /* \"#utility.yul\":621:684   */\n    tag_160:\n        /* \"#utility.yul\":568:690   */\n      pop\n      jump\t// out\n        /* \"#utility.yul\":696:835   */\n    tag_114:\n        /* \"#utility.yul\":742:747   */\n      0x00\n        /* \"#utility.yul\":780:786   */\n      dup2\n        /* \"#utility.yul\":767:787   */\n      calldataload\n        /* \"#utility.yul\":758:787   */\n      swap1\n      pop\n        /* \"#utility.yul\":796:829   */\n      tag_162\n        /* \"#utility.yul\":823:828   */\n      dup2\n        /* \"#utility.yul\":796:829   */\n      tag_113\n      jump\t// in\n    tag_162:\n        /* \"#utility.yul\":696:835   */\n      swap3\n      swap2\n      pop\n      pop\n      jump\t// out\n        /* \"#utility.yul\":841:918   */\n    tag_115:\n        /* \"#utility.yul\":878:885   */\n      0x00\n        /* \"#utility.yul\":907:912   */\n      dup2\n        /* \"#utility.yul\":896:912   */\n      swap1\n      pop\n        /* \"#utility.yul\":841:918   */\n      swap2\n      swap1\n      pop\n      jump\t// out\n        /* \"#utility.yul\":924:1046   */\n    tag_116:\n        /* \"#utility.yul\":997:1021   */\n      tag_165\n        /* \"#utility.yul\":1015:1020   */\n      dup2\n        /* \"#utility.yul\":997:1021   */\n      tag_115\n      jump\t// in\n    tag_165:\n        /* \"#utility.yul\":990:995   */\n      dup2\n        /* \"#utility.yul\":987:1022   */\n      eq\n        /* \"#utility.yul\":977:1040   */\n      tag_166\n      jumpi\n        /* \"#utility.yul\":1036:1037   */\n      0x00\n        /* \"#utility.yul\":1033:1034   */\n      0x00\n        /* \"#utility.yul\":1026:1038   */\n      revert\n        /* \"#utility.yul\":977:1040   */\n    tag_166:\n        /* \"#utility.yul\":924:1046   */\n      pop\n      jump\t// out\n        /* \"#utility.yul\":1052:1191   */\n    tag_117:\n        /* \"#utility.yul\":1098:1103   */\n      0x00\n        /* \"#utility.yul\":1136:1142   */\n      dup2\n        /* \"#utility.yul\":1123:1143   */\n      calldataload\n        /* \"#utility.yul\":1114:1143   */\n      swap1\n      pop\n        /* \"#utility.yul\":1152:1185   */\n      tag_168\n        /* \"#utility.yul\":1179:1184   */\n      dup2\n        /* \"#utility.yul\":1152:1185   */\n      tag_116\n      jump\t// in\n    tag_168:\n        /* \"#utility.yul\":1052:1191   */\n      swap3\n      swap2\n      pop\n      pop\n      jump\t// out\n        /* \"#utility.yul\":1197:1962   */\n    tag_15:\n        /* \"#utility.yul\":1283:1289   */\n      0x00\n        /* \"#utility.yul\":1291:1297   */\n      0x00\n        /* \"#utility.yul\":1299:1305   */\n      0x00\n        /* \"#utility.yul\":1307:1313   */\n      0x00\n        /* \"#utility.yul\":1356:1359   */\n      0x80\n        /* \"#utility.yul\":1344:1353   */\n      dup6\n        /* \"#utility.yul\":1335:1342   */\n      dup8\n        /* \"#utility.yul\":1331:1354   */\n      sub\n        /* \"#utility.yul\":1327:1360   */\n      slt\n        /* \"#utility.yul\":1324:1444   */\n      iszero\n      tag_170\n      jumpi\n        /* \"#utility.yul\":1363:1442   */\n      tag_171\n      tag_109\n      jump\t// in\n    tag_171:\n        /* \"#utility.yul\":1324:1444   */\n    tag_170:\n        /* \"#utility.yul\":1483:1484   */\n      0x00\n        /* \"#utility.yul\":1508:1561   */\n      tag_172\n        /* \"#utility.yul\":1553:1560   */\n      dup8\n        /* \"#utility.yul\":1544:1550   */\n      dup3\n        /* \"#utility.yul\":1533:1542   */\n      dup9\n        /* \"#utility.yul\":1529:1551   */\n      add\n        /* \"#utility.yul\":1508:1561   */\n      tag_114\n      jump\t// in\n    tag_172:\n        /* \"#utility.yul\":1498:1561   */\n      swap5\n      pop\n        /* \"#utility.yul\":1454:1571   */\n      pop\n        /* \"#utility.yul\":1610:1612   */\n      0x20\n        /* \"#utility.yul\":1636:1689   */\n      tag_173\n        /* \"#utility.yul\":1681:1688   */\n      dup8\n        /* \"#utility.yul\":1672:1678   */\n      dup3\n        /* \"#utility.yul\":1661:1670   */\n      dup9\n        /* \"#utility.yul\":1657:1679   */\n      add\n        /* \"#utility.yul\":1636:1689   */\n      tag_117\n      jump\t// in\n    tag_173:\n        /* \"#utility.yul\":1626:1689   */\n      swap4\n      pop\n        /* \"#utility.yul\":1581:1699   */\n      pop\n        /* \"#utility.yul\":1738:1740   */\n      0x40\n        /* \"#utility.yul\":1764:1817   */\n      tag_174\n        /* \"#utility.yul\":1809:1816   */\n      dup8\n        /* \"#utility.yul\":1800:1806   */\n      dup3\n        /* \"#utility.yul\":1789:1798   */\n      dup9\n        /* \"#utility.yul\":1785:1807   */\n      add\n        /* \"#utility.yul\":1764:1817   */\n      tag_114\n      jump\t// in\n    tag_174:\n        /* \"#utility.yul\":1754:1817   */\n      swap3\n      pop\n        /* \"#utility.yul\":1709:1827   */\n      pop\n        /* \"#utility.yul\":1866:1868   */\n      0x60\n        /* \"#utility.yul\":1892:1945   */\n      tag_175\n        /* \"#utility.yul\":1937:1944   */\n      dup8\n        /* \"#utility.yul\":1928:1934   */\n      dup3\n        /* \"#utility.yul\":1917:1926   */\n      dup9\n        /* \"#utility.yul\":1913:1935   */\n      add\n        /* \"#utility.yul\":1892:1945   */\n      tag_114\n      jump\t// in\n    tag_175:\n        /* \"#utility.yul\":1882:1945   */\n      swap2\n      pop\n        /* \"#utility.yul\":1837:1955   */\n      pop\n        /* \"#utility.yul\":1197:1962   */\n      swap3\n      swap6\n      swap2\n      swap5\n      pop\n      swap3\n      pop\n      jump\t// out\n        /* \"#utility.yul\":1968:2066   */\n    tag_118:\n        /* \"#utility.yul\":2019:2025   */\n      0x00\n        /* \"#utility.yul\":2053:2058   */\n      dup2\n        /* \"#utility.yul\":2047:2059   */\n      mload\n        /* \"#utility.yul\":2037:2059   */\n      swap1\n      pop\n        /* \"#utility.yul\":1968:2066   */\n      swap2\n      swap1\n      pop\n      jump\t// out\n        /* \"#utility.yul\":2072:2240   */\n    tag_119:\n        /* \"#utility.yul\":2155:2166   */\n      0x00\n        /* \"#utility.yul\":2189:2195   */\n      dup3\n        /* \"#utility.yul\":2184:2187   */\n      dup3\n        /* \"#utility.yul\":2177:2196   */\n      mstore\n        /* \"#utility.yul\":2229:2233   */\n      0x20\n        /* \"#utility.yul\":2224:2227   */\n      dup3\n        /* \"#utility.yul\":2220:2234   */\n      add\n        /* \"#utility.yul\":2205:2234   */\n      swap1\n      pop\n        /* \"#utility.yul\":2072:2240   */\n      swap3\n      swap2\n      pop\n      pop\n      jump\t// out\n        /* \"#utility.yul\":2246:2385   */\n    tag_120:\n        /* \"#utility.yul\":2335:2341   */\n      dup3\n        /* \"#utility.yul\":2330:2333   */\n      dup2\n        /* \"#utility.yul\":2325:2328   */\n      dup4\n        /* \"#utility.yul\":2319:2342   */\n      mcopy\n        /* \"#utility.yul\":2376:2377   */\n      0x00\n        /* \"#utility.yul\":2367:2373   */\n      dup4\n        /* \"#utility.yul\":2362:2365   */\n      dup4\n        /* \"#utility.yul\":2358:2374   */\n      add\n        /* \"#utility.yul\":2351:2378   */\n      mstore\n        /* \"#utility.yul\":2246:2385   */\n      pop\n      pop\n      pop\n      jump\t// out\n        /* \"#utility.yul\":2391:2493   */\n    tag_121:\n        /* \"#utility.yul\":2432:2438   */\n      0x00\n        /* \"#utility.yul\":2483:2485   */\n      0x1f\n        /* \"#utility.yul\":2479:2486   */\n      not\n        /* \"#utility.yul\":2474:2476   */\n      0x1f\n        /* \"#utility.yul\":2467:2472   */\n      dup4\n        /* \"#utility.yul\":2463:2477   */\n      add\n        /* \"#utility.yul\":2459:2487   */\n      and\n        /* \"#utility.yul\":2449:2487   */\n      swap1\n      pop\n        /* \"#utility.yul\":2391:2493   */\n      swap2\n      swap1\n      pop\n      jump\t// out\n        /* \"#utility.yul\":2499:2872   */\n    tag_122:\n        /* \"#utility.yul\":2585:2588   */\n      0x00\n        /* \"#utility.yul\":2613:2651   */\n      tag_181\n        /* \"#utility.yul\":2645:2650   */\n      dup3\n        /* \"#utility.yul\":2613:2651   */\n      tag_118\n      jump\t// in\n    tag_181:\n        /* \"#utility.yul\":2667:2737   */\n      tag_182\n        /* \"#utility.yul\":2730:2736   */\n      dup2\n        /* \"#utility.yul\":2725:2728   */\n      dup6\n        /* \"#utility.yul\":2667:2737   */\n      tag_119\n      jump\t// in\n    tag_182:\n        /* \"#utility.yul\":2660:2737   */\n      swap4\n      pop\n        /* \"#utility.yul\":2746:2811   */\n      tag_183\n        /* \"#utility.yul\":2804:2810   */\n      dup2\n        /* \"#utility.yul\":2799:2802   */\n      dup6\n        /* \"#utility.yul\":2792:2796   */\n      0x20\n        /* \"#utility.yul\":2785:2790   */\n      dup7\n        /* \"#utility.yul\":2781:2797   */\n      add\n        /* \"#utility.yul\":2746:2811   */\n      tag_120\n      jump\t// in\n    tag_183:\n        /* \"#utility.yul\":2836:2865   */\n      tag_184\n        /* \"#utility.yul\":2858:2864   */\n      dup2\n        /* \"#utility.yul\":2836:2865   */\n      tag_121\n      jump\t// in\n    tag_184:\n        /* \"#utility.yul\":2831:2834   */\n      dup5\n        /* \"#utility.yul\":2827:2866   */\n      add\n        /* \"#utility.yul\":2820:2866   */\n      swap2\n      pop\n        /* \"#utility.yul\":2589:2872   */\n      pop\n        /* \"#utility.yul\":2499:2872   */\n      swap3\n      swap2\n      pop\n      pop\n      jump\t// out\n        /* \"#utility.yul\":2878:3187   */\n    tag_18:\n        /* \"#utility.yul\":2989:2993   */\n      0x00\n        /* \"#utility.yul\":3027:3029   */\n      0x20\n        /* \"#utility.yul\":3016:3025   */\n      dup3\n        /* \"#utility.yul\":3012:3030   */\n      add\n        /* \"#utility.yul\":3004:3030   */\n      swap1\n      pop\n        /* \"#utility.yul\":3076:3085   */\n      dup2\n        /* \"#utility.yul\":3070:3074   */\n      dup2\n        /* \"#utility.yul\":3066:3086   */\n      sub\n        /* \"#utility.yul\":3062:3063   */\n      0x00\n        /* \"#utility.yul\":3051:3060   */\n      dup4\n        /* \"#utility.yul\":3047:3064   */\n      add\n        /* \"#utility.yul\":3040:3087   */\n      mstore\n        /* \"#utility.yul\":3104:3180   */\n      tag_186\n        /* \"#utility.yul\":3175:3179   */\n      dup2\n        /* \"#utility.yul\":3166:3172   */\n      dup5\n        /* \"#utility.yul\":3104:3180   */\n      tag_122\n      jump\t// in\n    tag_186:\n        /* \"#utility.yul\":3096:3180   */\n      swap1\n      pop\n        /* \"#utility.yul\":2878:3187   */\n      swap3\n      swap2\n      pop\n      pop\n      jump\t// out\n        /* \"#utility.yul\":3193:3310   */\n    tag_123:\n        /* \"#utility.yul\":3302:3303   */\n      0x00\n        /* \"#utility.yul\":3299:3300   */\n      0x00\n        /* \"#utility.yul\":3292:3304   */\n      revert\n        /* \"#utility.yul\":3316:3433   */\n    tag_124:\n        /* \"#utility.yul\":3425:3426   */\n      0x00\n        /* \"#utility.yul\":3422:3423   */\n      0x00\n        /* \"#utility.yul\":3415:3427   */\n      revert\n        /* \"#utility.yul\":3439:3619   */\n    tag_125:\n        /* \"#utility.yul\":3487:3564   */\n      0x4e487b7100000000000000000000000000000000000000000000000000000000\n        /* \"#utility.yul\":3484:3485   */\n      0x00\n        /* \"#utility.yul\":3477:3565   */\n      mstore\n        /* \"#utility.yul\":3584:3588   */\n      0x41\n        /* \"#utility.yul\":3581:3582   */\n      0x04\n        /* \"#utility.yul\":3574:3589   */\n      mstore\n        /* \"#utility.yul\":3608:3612   */\n      0x24\n        /* \"#utility.yul\":3605:3606   */\n      0x00\n        /* \"#utility.yul\":3598:3613   */\n      revert\n        /* \"#utility.yul\":3625:3906   */\n    tag_126:\n        /* \"#utility.yul\":3708:3735   */\n      tag_191\n        /* \"#utility.yul\":3730:3734   */\n      dup3\n        /* \"#utility.yul\":3708:3735   */\n      tag_121\n      jump\t// in\n    tag_191:\n        /* \"#utility.yul\":3700:3706   */\n      dup2\n        /* \"#utility.yul\":3696:3736   */\n      add\n        /* \"#utility.yul\":3838:3844   */\n      dup2\n        /* \"#utility.yul\":3826:3836   */\n      dup2\n        /* \"#utility.yul\":3823:3845   */\n      lt\n        /* \"#utility.yul\":3802:3820   */\n      0xffffffffffffffff\n        /* \"#utility.yul\":3790:3800   */\n      dup3\n        /* \"#utility.yul\":3787:3821   */\n      gt\n        /* \"#utility.yul\":3784:3846   */\n      or\n        /* \"#utility.yul\":3781:3869   */\n      iszero\n      tag_192\n      jumpi\n        /* \"#utility.yul\":3849:3867   */\n      tag_193\n      tag_125\n      jump\t// in\n    tag_193:\n        /* \"#utility.yul\":3781:3869   */\n    tag_192:\n        /* \"#utility.yul\":3889:3899   */\n      dup1\n        /* \"#utility.yul\":3885:3887   */\n      0x40\n        /* \"#utility.yul\":3878:3900   */\n      mstore\n        /* \"#utility.yul\":3668:3906   */\n      pop\n        /* \"#utility.yul\":3625:3906   */\n      pop\n      pop\n      jump\t// out\n        /* \"#utility.yul\":3912:4041   */\n    tag_127:\n        /* \"#utility.yul\":3946:3952   */\n      0x00\n        /* \"#utility.yul\":3973:3993   */\n      tag_195\n      tag_108\n      jump\t// in\n    tag_195:\n        /* \"#utility.yul\":3963:3993   */\n      swap1\n      pop\n        /* \"#utility.yul\":4002:4035   */\n      tag_196\n        /* \"#utility.yul\":4030:4034   */\n      dup3\n        /* \"#utility.yul\":4022:4028   */\n      dup3\n        /* \"#utility.yul\":4002:4035   */\n      tag_126\n      jump\t// in\n    tag_196:\n        /* \"#utility.yul\":3912:4041   */\n      swap2\n      swap1\n      pop\n      jump\t// out\n        /* \"#utility.yul\":4047:4354   */\n    tag_128:\n        /* \"#utility.yul\":4108:4112   */\n      0x00\n        /* \"#utility.yul\":4198:4216   */\n      0xffffffffffffffff\n        /* \"#utility.yul\":4190:4196   */\n      dup3\n        /* \"#utility.yul\":4187:4217   */\n      gt\n        /* \"#utility.yul\":4184:4240   */\n      iszero\n      tag_198\n      jumpi\n        /* \"#utility.yul\":4220:4238   */\n      tag_199\n      tag_125\n      jump\t// in\n    tag_199:\n        /* \"#utility.yul\":4184:4240   */\n    tag_198:\n        /* \"#utility.yul\":4258:4287   */\n      tag_200\n        /* \"#utility.yul\":4280:4286   */\n      dup3\n        /* \"#utility.yul\":4258:4287   */\n      tag_121\n      jump\t// in\n    tag_200:\n        /* \"#utility.yul\":4250:4287   */\n      swap1\n      pop\n        /* \"#utility.yul\":4342:4346   */\n      0x20\n        /* \"#utility.yul\":4336:4340   */\n      dup2\n        /* \"#utility.yul\":4332:4347   */\n      add\n        /* \"#utility.yul\":4324:4347   */\n      swap1\n      pop\n        /* \"#utility.yul\":4047:4354   */\n      swap2\n      swap1\n      pop\n      jump\t// out\n        /* \"#utility.yul\":4360:4508   */\n    tag_129:\n        /* \"#utility.yul\":4458:4464   */\n      dup3\n        /* \"#utility.yul\":4453:4456   */\n      dup2\n        /* \"#utility.yul\":4448:4451   */\n      dup4\n        /* \"#utility.yul\":4435:4465   */\n      calldatacopy\n        /* \"#utility.yul\":4499:4500   */\n      0x00\n        /* \"#utility.yul\":4490:4496   */\n      dup4\n        /* \"#utility.yul\":4485:4488   */\n      dup4\n        /* \"#utility.yul\":4481:4497   */\n      add\n        /* \"#utility.yul\":4474:4501   */\n      mstore\n        /* \"#utility.yul\":4360:4508   */\n      pop\n      pop\n      pop\n      jump\t// out\n        /* \"#utility.yul\":4514:4937   */\n    tag_130:\n        /* \"#utility.yul\":4591:4596   */\n      0x00\n        /* \"#utility.yul\":4616:4681   */\n      tag_203\n        /* \"#utility.yul\":4632:4680   */\n      tag_204\n        /* \"#utility.yul\":4673:4679   */\n      dup5\n        /* \"#utility.yul\":4632:4680   */\n      tag_128\n      jump\t// in\n    tag_204:\n        /* \"#utility.yul\":4616:4681   */\n      tag_127\n      jump\t// in\n    tag_203:\n        /* \"#utility.yul\":4607:4681   */\n      swap1\n      pop\n        /* \"#utility.yul\":4704:4710   */\n      dup3\n        /* \"#utility.yul\":4697:4702   */\n      dup2\n        /* \"#utility.yul\":4690:4711   */\n      mstore\n        /* \"#utility.yul\":4742:4746   */\n      0x20\n        /* \"#utility.yul\":4735:4740   */\n      dup2\n        /* \"#utility.yul\":4731:4747   */\n      add\n        /* \"#utility.yul\":4780:4783   */\n      dup5\n        /* \"#utility.yul\":4771:4777   */\n      dup5\n        /* \"#utility.yul\":4766:4769   */\n      dup5\n        /* \"#utility.yul\":4762:4778   */\n      add\n        /* \"#utility.yul\":4759:4784   */\n      gt\n        /* \"#utility.yul\":4756:4868   */\n      iszero\n      tag_205\n      jumpi\n        /* \"#utility.yul\":4787:4866   */\n      tag_206\n      tag_124\n      jump\t// in\n    tag_206:\n        /* \"#utility.yul\":4756:4868   */\n    tag_205:\n        /* \"#utility.yul\":4877:4931   */\n      tag_207\n        /* \"#utility.yul\":4924:4930   */\n      dup5\n        /* \"#utility.yul\":4919:4922   */\n      dup3\n        /* \"#utility.yul\":4914:4917   */\n      dup6\n        /* \"#utility.yul\":4877:4931   */\n      tag_129\n      jump\t// in\n    tag_207:\n        /* \"#utility.yul\":4597:4937   */\n      pop\n        /* \"#utility.yul\":4514:4937   */\n      swap4\n      swap3\n      pop\n      pop\n      pop\n      jump\t// out\n        /* \"#utility.yul\":4956:5294   */\n    tag_131:\n        /* \"#utility.yul\":5011:5016   */\n      0x00\n        /* \"#utility.yul\":5060:5063   */\n      dup3\n        /* \"#utility.yul\":5053:5057   */\n      0x1f\n        /* \"#utility.yul\":5045:5051   */\n      dup4\n        /* \"#utility.yul\":5041:5058   */\n      add\n        /* \"#utility.yul\":5037:5064   */\n      slt\n        /* \"#utility.yul\":5027:5149   */\n      tag_209\n      jumpi\n        /* \"#utility.yul\":5068:5147   */\n      tag_210\n      tag_123\n      jump\t// in\n    tag_210:\n        /* \"#utility.yul\":5027:5149   */\n    tag_209:\n        /* \"#utility.yul\":5185:5191   */\n      dup2\n        /* \"#utility.yul\":5172:5192   */\n      calldataload\n        /* \"#utility.yul\":5210:5288   */\n      tag_211\n        /* \"#utility.yul\":5284:5287   */\n      dup5\n        /* \"#utility.yul\":5276:5282   */\n      dup3\n        /* \"#utility.yul\":5269:5273   */\n      0x20\n        /* \"#utility.yul\":5261:5267   */\n      dup7\n        /* \"#utility.yul\":5257:5274   */\n      add\n        /* \"#utility.yul\":5210:5288   */\n      tag_130\n      jump\t// in\n    tag_211:\n        /* \"#utility.yul\":5201:5288   */\n      swap2\n      pop\n        /* \"#utility.yul\":5017:5294   */\n      pop\n        /* \"#utility.yul\":4956:5294   */\n      swap3\n      swap2\n      pop\n      pop\n      jump\t// out\n        /* \"#utility.yul\":5300:5807   */\n    tag_21:\n        /* \"#utility.yul\":5368:5374   */\n      0x00\n        /* \"#utility.yul\":5417:5419   */\n      0x20\n        /* \"#utility.yul\":5405:5414   */\n      dup3\n        /* \"#utility.yul\":5396:5403   */\n      dup5\n        /* \"#utility.yul\":5392:5415   */\n      sub\n        /* \"#utility.yul\":5388:5420   */\n      slt\n        /* \"#utility.yul\":5385:5504   */\n      iszero\n      tag_213\n      jumpi\n        /* \"#utility.yul\":5423:5502   */\n      tag_214\n      tag_109\n      jump\t// in\n    tag_214:\n        /* \"#utility.yul\":5385:5504   */\n    tag_213:\n        /* \"#utility.yul\":5571:5572   */\n      0x00\n        /* \"#utility.yul\":5560:5569   */\n      dup3\n        /* \"#utility.yul\":5556:5573   */\n      add\n        /* \"#utility.yul\":5543:5574   */\n      calldataload\n        /* \"#utility.yul\":5601:5619   */\n      0xffffffffffffffff\n        /* \"#utility.yul\":5593:5599   */\n      dup2\n        /* \"#utility.yul\":5590:5620   */\n      gt\n        /* \"#utility.yul\":5587:5704   */\n      iszero\n      tag_215\n      jumpi\n        /* \"#utility.yul\":5623:5702   */\n      tag_216\n      tag_110\n      jump\t// in\n    tag_216:\n        /* \"#utility.yul\":5587:5704   */\n    tag_215:\n        /* \"#utility.yul\":5728:5790   */\n      tag_217\n        /* \"#utility.yul\":5782:5789   */\n      dup5\n        /* \"#utility.yul\":5773:5779   */\n      dup3\n        /* \"#utility.yul\":5762:5771   */\n      dup6\n        /* \"#utility.yul\":5758:5780   */\n      add\n        /* \"#utility.yul\":5728:5790   */\n      tag_131\n      jump\t// in\n    tag_217:\n        /* \"#utility.yul\":5718:5790   */\n      swap2\n      pop\n        /* \"#utility.yul\":5514:5800   */\n      pop\n        /* \"#utility.yul\":5300:5807   */\n      swap3\n      swap2\n      pop\n      pop\n      jump\t// out\n        /* \"#utility.yul\":5813:5903   */\n    tag_132:\n        /* \"#utility.yul\":5847:5854   */\n      0x00\n        /* \"#utility.yul\":5890:5895   */\n      dup2\n        /* \"#utility.yul\":5883:5896   */\n      iszero\n        /* \"#utility.yul\":5876:5897   */\n      iszero\n        /* \"#utility.yul\":5865:5897   */\n      swap1\n      pop\n        /* \"#utility.yul\":5813:5903   */\n      swap2\n      swap1\n      pop\n      jump\t// out\n        /* \"#utility.yul\":5909:6018   */\n    tag_133:\n        /* \"#utility.yul\":5990:6011   */\n      tag_220\n        /* \"#utility.yul\":6005:6010   */\n      dup2\n        /* \"#utility.yul\":5990:6011   */\n      tag_132\n      jump\t// in\n    tag_220:\n        /* \"#utility.yul\":5985:5988   */\n      dup3\n        /* \"#utility.yul\":5978:6012   */\n      mstore\n        /* \"#utility.yul\":5909:6018   */\n      pop\n      pop\n      jump\t// out\n        /* \"#utility.yul\":6024:6234   */\n    tag_24:\n        /* \"#utility.yul\":6111:6115   */\n      0x00\n        /* \"#utility.yul\":6149:6151   */\n      0x20\n        /* \"#utility.yul\":6138:6147   */\n      dup3\n        /* \"#utility.yul\":6134:6152   */\n      add\n        /* \"#utility.yul\":6126:6152   */\n      swap1\n      pop\n        /* \"#utility.yul\":6162:6227   */\n      tag_222\n        /* \"#utility.yul\":6224:6225   */\n      0x00\n        /* \"#utility.yul\":6213:6222   */\n      dup4\n        /* \"#utility.yul\":6209:6226   */\n      add\n        /* \"#utility.yul\":6200:6206   */\n      dup5\n        /* \"#utility.yul\":6162:6227   */\n      tag_133\n      jump\t// in\n    tag_222:\n        /* \"#utility.yul\":6024:6234   */\n      swap3\n      swap2\n      pop\n      pop\n      jump\t// out\n        /* \"#utility.yul\":6240:6358   */\n    tag_134:\n        /* \"#utility.yul\":6327:6351   */\n      tag_224\n        /* \"#utility.yul\":6345:6350   */\n      dup2\n        /* \"#utility.yul\":6327:6351   */\n      tag_112\n      jump\t// in\n    tag_224:\n        /* \"#utility.yul\":6322:6325   */\n      dup3\n        /* \"#utility.yul\":6315:6352   */\n      mstore\n        /* \"#utility.yul\":6240:6358   */\n      pop\n      pop\n      jump\t// out\n        /* \"#utility.yul\":6364:6586   */\n    tag_28:\n        /* \"#utility.yul\":6457:6461   */\n      0x00\n        /* \"#utility.yul\":6495:6497   */\n      0x20\n        /* \"#utility.yul\":6484:6493   */\n      dup3\n        /* \"#utility.yul\":6480:6498   */\n      add\n        /* \"#utility.yul\":6472:6498   */\n      swap1\n      pop\n        /* \"#utility.yul\":6508:6579   */\n      tag_226\n        /* \"#utility.yul\":6576:6577   */\n      0x00\n        /* \"#utility.yul\":6565:6574   */\n      dup4\n        /* \"#utility.yul\":6561:6578   */\n      add\n        /* \"#utility.yul\":6552:6558   */\n      dup5\n        /* \"#utility.yul\":6508:6579   */\n      tag_134\n      jump\t// in\n    tag_226:\n        /* \"#utility.yul\":6364:6586   */\n      swap3\n      swap2\n      pop\n      pop\n      jump\t// out\n        /* \"#utility.yul\":6592:6709   */\n    tag_135:\n        /* \"#utility.yul\":6701:6702   */\n      0x00\n        /* \"#utility.yul\":6698:6699   */\n      0x00\n        /* \"#utility.yul\":6691:6703   */\n      revert\n        /* \"#utility.yul\":6715:6832   */\n    tag_136:\n        /* \"#utility.yul\":6824:6825   */\n      0x00\n        /* \"#utility.yul\":6821:6822   */\n      0x00\n        /* \"#utility.yul\":6814:6826   */\n      revert\n        /* \"#utility.yul\":6855:7423   */\n    tag_137:\n        /* \"#utility.yul\":6928:6936   */\n      0x00\n        /* \"#utility.yul\":6938:6944   */\n      0x00\n        /* \"#utility.yul\":6988:6991   */\n      dup4\n        /* \"#utility.yul\":6981:6985   */\n      0x1f\n        /* \"#utility.yul\":6973:6979   */\n      dup5\n        /* \"#utility.yul\":6969:6986   */\n      add\n        /* \"#utility.yul\":6965:6992   */\n      slt\n        /* \"#utility.yul\":6955:7077   */\n      tag_230\n      jumpi\n        /* \"#utility.yul\":6996:7075   */\n      tag_231\n      tag_123\n      jump\t// in\n    tag_231:\n        /* \"#utility.yul\":6955:7077   */\n    tag_230:\n        /* \"#utility.yul\":7109:7115   */\n      dup3\n        /* \"#utility.yul\":7096:7116   */\n      calldataload\n        /* \"#utility.yul\":7086:7116   */\n      swap1\n      pop\n        /* \"#utility.yul\":7139:7157   */\n      0xffffffffffffffff\n        /* \"#utility.yul\":7131:7137   */\n      dup2\n        /* \"#utility.yul\":7128:7158   */\n      gt\n        /* \"#utility.yul\":7125:7242   */\n      iszero\n      tag_232\n      jumpi\n        /* \"#utility.yul\":7161:7240   */\n      tag_233\n      tag_135\n      jump\t// in\n    tag_233:\n        /* \"#utility.yul\":7125:7242   */\n    tag_232:\n        /* \"#utility.yul\":7275:7279   */\n      0x20\n        /* \"#utility.yul\":7267:7273   */\n      dup4\n        /* \"#utility.yul\":7263:7280   */\n      add\n        /* \"#utility.yul\":7251:7280   */\n      swap2\n      pop\n        /* \"#utility.yul\":7329:7332   */\n      dup4\n        /* \"#utility.yul\":7321:7325   */\n      0x20\n        /* \"#utility.yul\":7313:7319   */\n      dup3\n        /* \"#utility.yul\":7309:7326   */\n      mul\n        /* \"#utility.yul\":7299:7307   */\n      dup4\n        /* \"#utility.yul\":7295:7327   */\n      add\n        /* \"#utility.yul\":7292:7333   */\n      gt\n        /* \"#utility.yul\":7289:7417   */\n      iszero\n      tag_234\n      jumpi\n        /* \"#utility.yul\":7336:7415   */\n      tag_235\n      tag_136\n      jump\t// in\n    tag_235:\n        /* \"#utility.yul\":7289:7417   */\n    tag_234:\n        /* \"#utility.yul\":6855:7423   */\n      swap3\n      pop\n      swap3\n      swap1\n      pop\n      jump\t// out\n        /* \"#utility.yul\":7446:8014   */\n    tag_138:\n        /* \"#utility.yul\":7519:7527   */\n      0x00\n        /* \"#utility.yul\":7529:7535   */\n      0x00\n        /* \"#utility.yul\":7579:7582   */\n      dup4\n        /* \"#utility.yul\":7572:7576   */\n      0x1f\n        /* \"#utility.yul\":7564:7570   */\n      dup5\n        /* \"#utility.yul\":7560:7577   */\n      add\n        /* \"#utility.yul\":7556:7583   */\n      slt\n        /* \"#utility.yul\":7546:7668   */\n      tag_237\n      jumpi\n        /* \"#utility.yul\":7587:7666   */\n      tag_238\n      tag_123\n      jump\t// in\n    tag_238:\n        /* \"#utility.yul\":7546:7668   */\n    tag_237:\n        /* \"#utility.yul\":7700:7706   */\n      dup3\n        /* \"#utility.yul\":7687:7707   */\n      calldataload\n        /* \"#utility.yul\":7677:7707   */\n      swap1\n      pop\n        /* \"#utility.yul\":7730:7748   */\n      0xffffffffffffffff\n        /* \"#utility.yul\":7722:7728   */\n      dup2\n        /* \"#utility.yul\":7719:7749   */\n      gt\n        /* \"#utility.yul\":7716:7833   */\n      iszero\n      tag_239\n      jumpi\n        /* \"#utility.yul\":7752:7831   */\n      tag_240\n      tag_135\n      jump\t// in\n    tag_240:\n        /* \"#utility.yul\":7716:7833   */\n    tag_239:\n        /* \"#utility.yul\":7866:7870   */\n      0x20\n        /* \"#utility.yul\":7858:7864   */\n      dup4\n        /* \"#utility.yul\":7854:7871   */\n      add\n        /* \"#utility.yul\":7842:7871   */\n      swap2\n      pop\n        /* \"#utility.yul\":7920:7923   */\n      dup4\n        /* \"#utility.yul\":7912:7916   */\n      0x20\n        /* \"#utility.yul\":7904:7910   */\n      dup3\n        /* \"#utility.yul\":7900:7917   */\n      mul\n        /* \"#utility.yul\":7890:7898   */\n      dup4\n        /* \"#utility.yul\":7886:7918   */\n      add\n        /* \"#utility.yul\":7883:7924   */\n      gt\n        /* \"#utility.yul\":7880:8008   */\n      iszero\n      tag_241\n      jumpi\n        /* \"#utility.yul\":7927:8006   */\n      tag_242\n      tag_136\n      jump\t// in\n    tag_242:\n        /* \"#utility.yul\":7880:8008   */\n    tag_241:\n        /* \"#utility.yul\":7446:8014   */\n      swap3\n      pop\n      swap3\n      swap1\n      pop\n      jump\t// out\n        /* \"#utility.yul\":8020:8954   */\n    tag_31:\n        /* \"#utility.yul\":8142:8148   */\n      0x00\n        /* \"#utility.yul\":8150:8156   */\n      0x00\n        /* \"#utility.yul\":8158:8164   */\n      0x00\n        /* \"#utility.yul\":8166:8172   */\n      0x00\n        /* \"#utility.yul\":8215:8217   */\n      0x40\n        /* \"#utility.yul\":8203:8212   */\n      dup6\n        /* \"#utility.yul\":8194:8201   */\n      dup8\n        /* \"#utility.yul\":8190:8213   */\n      sub\n        /* \"#utility.yul\":8186:8218   */\n      slt\n        /* \"#utility.yul\":8183:8302   */\n      iszero\n      tag_244\n      jumpi\n        /* \"#utility.yul\":8221:8300   */\n      tag_245\n      tag_109\n      jump\t// in\n    tag_245:\n        /* \"#utility.yul\":8183:8302   */\n    tag_244:\n        /* \"#utility.yul\":8369:8370   */\n      0x00\n        /* \"#utility.yul\":8358:8367   */\n      dup6\n        /* \"#utility.yul\":8354:8371   */\n      add\n        /* \"#utility.yul\":8341:8372   */\n      calldataload\n        /* \"#utility.yul\":8399:8417   */\n      0xffffffffffffffff\n        /* \"#utility.yul\":8391:8397   */\n      dup2\n        /* \"#utility.yul\":8388:8418   */\n      gt\n        /* \"#utility.yul\":8385:8502   */\n      iszero\n      tag_246\n      jumpi\n        /* \"#utility.yul\":8421:8500   */\n      tag_247\n      tag_110\n      jump\t// in\n    tag_247:\n        /* \"#utility.yul\":8385:8502   */\n    tag_246:\n        /* \"#utility.yul\":8534:8614   */\n      tag_248\n        /* \"#utility.yul\":8606:8613   */\n      dup8\n        /* \"#utility.yul\":8597:8603   */\n      dup3\n        /* \"#utility.yul\":8586:8595   */\n      dup9\n        /* \"#utility.yul\":8582:8604   */\n      add\n        /* \"#utility.yul\":8534:8614   */\n      tag_137\n      jump\t// in\n    tag_248:\n        /* \"#utility.yul\":8516:8614   */\n      swap5\n      pop\n      swap5\n      pop\n        /* \"#utility.yul\":8312:8624   */\n      pop\n        /* \"#utility.yul\":8691:8693   */\n      0x20\n        /* \"#utility.yul\":8680:8689   */\n      dup6\n        /* \"#utility.yul\":8676:8694   */\n      add\n        /* \"#utility.yul\":8663:8695   */\n      calldataload\n        /* \"#utility.yul\":8722:8740   */\n      0xffffffffffffffff\n        /* \"#utility.yul\":8714:8720   */\n      dup2\n        /* \"#utility.yul\":8711:8741   */\n      gt\n        /* \"#utility.yul\":8708:8825   */\n      iszero\n      tag_249\n      jumpi\n        /* \"#utility.yul\":8744:8823   */\n      tag_250\n      tag_110\n      jump\t// in\n    tag_250:\n        /* \"#utility.yul\":8708:8825   */\n    tag_249:\n        /* \"#utility.yul\":8857:8937   */\n      tag_251\n        /* \"#utility.yul\":8929:8936   */\n      dup8\n        /* \"#utility.yul\":8920:8926   */\n      dup3\n        /* \"#utility.yul\":8909:8918   */\n      dup9\n        /* \"#utility.yul\":8905:8927   */\n      add\n        /* \"#utility.yul\":8857:8937   */\n      tag_138\n      jump\t// in\n    tag_251:\n        /* \"#utility.yul\":8839:8937   */\n      swap3\n      pop\n      swap3\n      pop\n        /* \"#utility.yul\":8634:8947   */\n      pop\n        /* \"#utility.yul\":8020:8954   */\n      swap3\n      swap6\n      swap2\n      swap5\n      pop\n      swap3\n      pop\n      jump\t// out\n        /* \"#utility.yul\":8960:9078   */\n    tag_139:\n        /* \"#utility.yul\":9047:9071   */\n      tag_253\n        /* \"#utility.yul\":9065:9070   */\n      dup2\n        /* \"#utility.yul\":9047:9071   */\n      tag_115\n      jump\t// in\n    tag_253:\n        /* \"#utility.yul\":9042:9045   */\n      dup3\n        /* \"#utility.yul\":9035:9072   */\n      mstore\n        /* \"#utility.yul\":8960:9078   */\n      pop\n      pop\n      jump\t// out\n        /* \"#utility.yul\":9084:9306   */\n    tag_41:\n        /* \"#utility.yul\":9177:9181   */\n      0x00\n        /* \"#utility.yul\":9215:9217   */\n      0x20\n        /* \"#utility.yul\":9204:9213   */\n      dup3\n        /* \"#utility.yul\":9200:9218   */\n      add\n        /* \"#utility.yul\":9192:9218   */\n      swap1\n      pop\n        /* \"#utility.yul\":9228:9299   */\n      tag_255\n        /* \"#utility.yul\":9296:9297   */\n      0x00\n        /* \"#utility.yul\":9285:9294   */\n      dup4\n        /* \"#utility.yul\":9281:9298   */\n      add\n        /* \"#utility.yul\":9272:9278   */\n      dup5\n        /* \"#utility.yul\":9228:9299   */\n      tag_139\n      jump\t// in\n    tag_255:\n        /* \"#utility.yul\":9084:9306   */\n      swap3\n      swap2\n      pop\n      pop\n      jump\t// out\n        /* \"#utility.yul\":9312:9641   */\n    tag_44:\n        /* \"#utility.yul\":9371:9377   */\n      0x00\n        /* \"#utility.yul\":9420:9422   */\n      0x20\n        /* \"#utility.yul\":9408:9417   */\n      dup3\n        /* \"#utility.yul\":9399:9406   */\n      dup5\n        /* \"#utility.yul\":9395:9418   */\n      sub\n        /* \"#utility.yul\":9391:9423   */\n      slt\n        /* \"#utility.yul\":9388:9507   */\n      iszero\n      tag_257\n      jumpi\n        /* \"#utility.yul\":9426:9505   */\n      tag_258\n      tag_109\n      jump\t// in\n    tag_258:\n        /* \"#utility.yul\":9388:9507   */\n    tag_257:\n        /* \"#utility.yul\":9546:9547   */\n      0x00\n        /* \"#utility.yul\":9571:9624   */\n      tag_259\n        /* \"#utility.yul\":9616:9623   */\n      dup5\n        /* \"#utility.yul\":9607:9613   */\n      dup3\n        /* \"#utility.yul\":9596:9605   */\n      dup6\n        /* \"#utility.yul\":9592:9614   */\n      add\n        /* \"#utility.yul\":9571:9624   */\n      tag_114\n      jump\t// in\n    tag_259:\n        /* \"#utility.yul\":9561:9624   */\n      swap2\n      pop\n        /* \"#utility.yul\":9517:9634   */\n      pop\n        /* \"#utility.yul\":9312:9641   */\n      swap3\n      swap2\n      pop\n      pop\n      jump\t// out\n        /* \"#utility.yul\":9647:9707   */\n    tag_140:\n        /* \"#utility.yul\":9675:9678   */\n      0x00\n        /* \"#utility.yul\":9696:9701   */\n      dup2\n        /* \"#utility.yul\":9689:9701   */\n      swap1\n      pop\n        /* \"#utility.yul\":9647:9707   */\n      swap2\n      swap1\n      pop\n      jump\t// out\n        /* \"#utility.yul\":9713:9855   */\n    tag_141:\n        /* \"#utility.yul\":9763:9772   */\n      0x00\n        /* \"#utility.yul\":9796:9849   */\n      tag_262\n        /* \"#utility.yul\":9814:9848   */\n      tag_263\n        /* \"#utility.yul\":9823:9847   */\n      tag_264\n        /* \"#utility.yul\":9841:9846   */\n      dup5\n        /* \"#utility.yul\":9823:9847   */\n      tag_111\n      jump\t// in\n    tag_264:\n        /* \"#utility.yul\":9814:9848   */\n      tag_140\n      jump\t// in\n    tag_263:\n        /* \"#utility.yul\":9796:9849   */\n      tag_111\n      jump\t// in\n    tag_262:\n        /* \"#utility.yul\":9783:9849   */\n      swap1\n      pop\n        /* \"#utility.yul\":9713:9855   */\n      swap2\n      swap1\n      pop\n      jump\t// out\n        /* \"#utility.yul\":9861:9987   */\n    tag_142:\n        /* \"#utility.yul\":9911:9920   */\n      0x00\n        /* \"#utility.yul\":9944:9981   */\n      tag_266\n        /* \"#utility.yul\":9975:9980   */\n      dup3\n        /* \"#utility.yul\":9944:9981   */\n      tag_141\n      jump\t// in\n    tag_266:\n        /* \"#utility.yul\":9931:9981   */\n      swap1\n      pop\n        /* \"#utility.yul\":9861:9987   */\n      swap2\n      swap1\n      pop\n      jump\t// out\n        /* \"#utility.yul\":9993:10133   */\n    tag_143:\n        /* \"#utility.yul\":10057:10066   */\n      0x00\n        /* \"#utility.yul\":10090:10127   */\n      tag_268\n        /* \"#utility.yul\":10121:10126   */\n      dup3\n        /* \"#utility.yul\":10090:10127   */\n      tag_142\n      jump\t// in\n    tag_268:\n        /* \"#utility.yul\":10077:10127   */\n      swap1\n      pop\n        /* \"#utility.yul\":9993:10133   */\n      swap2\n      swap1\n      pop\n      jump\t// out\n        /* \"#utility.yul\":10139:10298   */\n    tag_144:\n        /* \"#utility.yul\":10240:10291   */\n      tag_270\n        /* \"#utility.yul\":10285:10290   */\n      dup2\n        /* \"#utility.yul\":10240:10291   */\n      tag_143\n      jump\t// in\n    tag_270:\n        /* \"#utility.yul\":10235:10238   */\n      dup3\n        /* \"#utility.yul\":10228:10292   */\n      mstore\n        /* \"#utility.yul\":10139:10298   */\n      pop\n      pop\n      jump\t// out\n        /* \"#utility.yul\":10304:10554   */\n    tag_49:\n        /* \"#utility.yul\":10411:10415   */\n      0x00\n        /* \"#utility.yul\":10449:10451   */\n      0x20\n        /* \"#utility.yul\":10438:10447   */\n      dup3\n        /* \"#utility.yul\":10434:10452   */\n      add\n        /* \"#utility.yul\":10426:10452   */\n      swap1\n      pop\n        /* \"#utility.yul\":10462:10547   */\n      tag_272\n        /* \"#utility.yul\":10544:10545   */\n      0x00\n        /* \"#utility.yul\":10533:10542   */\n      dup4\n        /* \"#utility.yul\":10529:10546   */\n      add\n        /* \"#utility.yul\":10520:10526   */\n      dup5\n        /* \"#utility.yul\":10462:10547   */\n      tag_144\n      jump\t// in\n    tag_272:\n        /* \"#utility.yul\":10304:10554   */\n      swap3\n      swap2\n      pop\n      pop\n      jump\t// out\n        /* \"#utility.yul\":10560:11113   */\n    tag_52:\n        /* \"#utility.yul\":10737:10741   */\n      0x00\n        /* \"#utility.yul\":10775:10778   */\n      0x80\n        /* \"#utility.yul\":10764:10773   */\n      dup3\n        /* \"#utility.yul\":10760:10779   */\n      add\n        /* \"#utility.yul\":10752:10779   */\n      swap1\n      pop\n        /* \"#utility.yul\":10789:10860   */\n      tag_274\n        /* \"#utility.yul\":10857:10858   */\n      0x00\n        /* \"#utility.yul\":10846:10855   */\n      dup4\n        /* \"#utility.yul\":10842:10859   */\n      add\n        /* \"#utility.yul\":10833:10839   */\n      dup8\n        /* \"#utility.yul\":10789:10860   */\n      tag_134\n      jump\t// in\n    tag_274:\n        /* \"#utility.yul\":10870:10942   */\n      tag_275\n        /* \"#utility.yul\":10938:10940   */\n      0x20\n        /* \"#utility.yul\":10927:10936   */\n      dup4\n        /* \"#utility.yul\":10923:10941   */\n      add\n        /* \"#utility.yul\":10914:10920   */\n      dup7\n        /* \"#utility.yul\":10870:10942   */\n      tag_139\n      jump\t// in\n    tag_275:\n        /* \"#utility.yul\":10952:11024   */\n      tag_276\n        /* \"#utility.yul\":11020:11022   */\n      0x40\n        /* \"#utility.yul\":11009:11018   */\n      dup4\n        /* \"#utility.yul\":11005:11023   */\n      add\n        /* \"#utility.yul\":10996:11002   */\n      dup6\n        /* \"#utility.yul\":10952:11024   */\n      tag_134\n      jump\t// in\n    tag_276:\n        /* \"#utility.yul\":11034:11106   */\n      tag_277\n        /* \"#utility.yul\":11102:11104   */\n      0x60\n        /* \"#utility.yul\":11091:11100   */\n      dup4\n        /* \"#utility.yul\":11087:11105   */\n      add\n        /* \"#utility.yul\":11078:11084   */\n      dup5\n        /* \"#utility.yul\":11034:11106   */\n      tag_134\n      jump\t// in\n    tag_277:\n        /* \"#utility.yul\":10560:11113   */\n      swap6\n      swap5\n      pop\n      pop\n      pop\n      pop\n      pop\n      jump\t// out\n        /* \"#utility.yul\":11119:11223   */\n    tag_145:\n        /* \"#utility.yul\":11164:11171   */\n      0x00\n        /* \"#utility.yul\":11193:11217   */\n      tag_279\n        /* \"#utility.yul\":11211:11216   */\n      dup3\n        /* \"#utility.yul\":11193:11217   */\n      tag_111\n      jump\t// in\n    tag_279:\n        /* \"#utility.yul\":11182:11217   */\n      swap1\n      pop\n        /* \"#utility.yul\":11119:11223   */\n      swap2\n      swap1\n      pop\n      jump\t// out\n        /* \"#utility.yul\":11229:11367   */\n    tag_146:\n        /* \"#utility.yul\":11310:11342   */\n      tag_281\n        /* \"#utility.yul\":11336:11341   */\n      dup2\n        /* \"#utility.yul\":11310:11342   */\n      tag_145\n      jump\t// in\n    tag_281:\n        /* \"#utility.yul\":11303:11308   */\n      dup2\n        /* \"#utility.yul\":11300:11343   */\n      eq\n        /* \"#utility.yul\":11290:11361   */\n      tag_282\n      jumpi\n        /* \"#utility.yul\":11357:11358   */\n      0x00\n        /* \"#utility.yul\":11354:11355   */\n      0x00\n        /* \"#utility.yul\":11347:11359   */\n      revert\n        /* \"#utility.yul\":11290:11361   */\n    tag_282:\n        /* \"#utility.yul\":11229:11367   */\n      pop\n      jump\t// out\n        /* \"#utility.yul\":11373:11532   */\n    tag_147:\n        /* \"#utility.yul\":11438:11443   */\n      0x00\n        /* \"#utility.yul\":11469:11475   */\n      dup2\n        /* \"#utility.yul\":11463:11476   */\n      mload\n        /* \"#utility.yul\":11454:11476   */\n      swap1\n      pop\n        /* \"#utility.yul\":11485:11526   */\n      tag_284\n        /* \"#utility.yul\":11520:11525   */\n      dup2\n        /* \"#utility.yul\":11485:11526   */\n      tag_146\n      jump\t// in\n    tag_284:\n        /* \"#utility.yul\":11373:11532   */\n      swap3\n      swap2\n      pop\n      pop\n      jump\t// out\n        /* \"#utility.yul\":11538:11681   */\n    tag_148:\n        /* \"#utility.yul\":11595:11600   */\n      0x00\n        /* \"#utility.yul\":11626:11632   */\n      dup2\n        /* \"#utility.yul\":11620:11633   */\n      mload\n        /* \"#utility.yul\":11611:11633   */\n      swap1\n      pop\n        /* \"#utility.yul\":11642:11675   */\n      tag_286\n        /* \"#utility.yul\":11669:11674   */\n      dup2\n        /* \"#utility.yul\":11642:11675   */\n      tag_116\n      jump\t// in\n    tag_286:\n        /* \"#utility.yul\":11538:11681   */\n      swap3\n      swap2\n      pop\n      pop\n      jump\t// out\n        /* \"#utility.yul\":11687:12555   */\n    tag_57:\n        /* \"#utility.yul\":11808:11814   */\n      0x00\n        /* \"#utility.yul\":11816:11822   */\n      0x00\n        /* \"#utility.yul\":11824:11830   */\n      0x00\n        /* \"#utility.yul\":11832:11838   */\n      0x00\n        /* \"#utility.yul\":11881:11884   */\n      0x80\n        /* \"#utility.yul\":11869:11878   */\n      dup6\n        /* \"#utility.yul\":11860:11867   */\n      dup8\n        /* \"#utility.yul\":11856:11879   */\n      sub\n        /* \"#utility.yul\":11852:11885   */\n      slt\n        /* \"#utility.yul\":11849:11969   */\n      iszero\n      tag_288\n      jumpi\n        /* \"#utility.yul\":11888:11967   */\n      tag_289\n      tag_109\n      jump\t// in\n    tag_289:\n        /* \"#utility.yul\":11849:11969   */\n    tag_288:\n        /* \"#utility.yul\":12008:12009   */\n      0x00\n        /* \"#utility.yul\":12033:12105   */\n      tag_290\n        /* \"#utility.yul\":12097:12104   */\n      dup8\n        /* \"#utility.yul\":12088:12094   */\n      dup3\n        /* \"#utility.yul\":12077:12086   */\n      dup9\n        /* \"#utility.yul\":12073:12095   */\n      add\n        /* \"#utility.yul\":12033:12105   */\n      tag_147\n      jump\t// in\n    tag_290:\n        /* \"#utility.yul\":12023:12105   */\n      swap5\n      pop\n        /* \"#utility.yul\":11979:12115   */\n      pop\n        /* \"#utility.yul\":12154:12156   */\n      0x20\n        /* \"#utility.yul\":12180:12244   */\n      tag_291\n        /* \"#utility.yul\":12236:12243   */\n      dup8\n        /* \"#utility.yul\":12227:12233   */\n      dup3\n        /* \"#utility.yul\":12216:12225   */\n      dup9\n        /* \"#utility.yul\":12212:12234   */\n      add\n        /* \"#utility.yul\":12180:12244   */\n      tag_148\n      jump\t// in\n    tag_291:\n        /* \"#utility.yul\":12170:12244   */\n      swap4\n      pop\n        /* \"#utility.yul\":12125:12254   */\n      pop\n        /* \"#utility.yul\":12293:12295   */\n      0x40\n        /* \"#utility.yul\":12319:12391   */\n      tag_292\n        /* \"#utility.yul\":12383:12390   */\n      dup8\n        /* \"#utility.yul\":12374:12380   */\n      dup3\n        /* \"#utility.yul\":12363:12372   */\n      dup9\n        /* \"#utility.yul\":12359:12381   */\n      add\n        /* \"#utility.yul\":12319:12391   */\n      tag_147\n      jump\t// in\n    tag_292:\n        /* \"#utility.yul\":12309:12391   */\n      swap3\n      pop\n        /* \"#utility.yul\":12264:12401   */\n      pop\n        /* \"#utility.yul\":12440:12442   */\n      0x60\n        /* \"#utility.yul\":12466:12538   */\n      tag_293\n        /* \"#utility.yul\":12530:12537   */\n      dup8\n        /* \"#utility.yul\":12521:12527   */\n      dup3\n        /* \"#utility.yul\":12510:12519   */\n      dup9\n        /* \"#utility.yul\":12506:12528   */\n      add\n        /* \"#utility.yul\":12466:12538   */\n      tag_147\n      jump\t// in\n    tag_293:\n        /* \"#utility.yul\":12456:12538   */\n      swap2\n      pop\n        /* \"#utility.yul\":12411:12548   */\n      pop\n        /* \"#utility.yul\":11687:12555   */\n      swap3\n      swap6\n      swap2\n      swap5\n      pop\n      swap3\n      pop\n      jump\t// out\n        /* \"#utility.yul\":12561:12893   */\n    tag_65:\n        /* \"#utility.yul\":12682:12686   */\n      0x00\n        /* \"#utility.yul\":12720:12722   */\n      0x40\n        /* \"#utility.yul\":12709:12718   */\n      dup3\n        /* \"#utility.yul\":12705:12723   */\n      add\n        /* \"#utility.yul\":12697:12723   */\n      swap1\n      pop\n        /* \"#utility.yul\":12733:12804   */\n      tag_295\n        /* \"#utility.yul\":12801:12802   */\n      0x00\n        /* \"#utility.yul\":12790:12799   */\n      dup4\n        /* \"#utility.yul\":12786:12803   */\n      add\n        /* \"#utility.yul\":12777:12783   */\n      dup6\n        /* \"#utility.yul\":12733:12804   */\n      tag_134\n      jump\t// in\n    tag_295:\n        /* \"#utility.yul\":12814:12886   */\n      tag_296\n        /* \"#utility.yul\":12882:12884   */\n      0x20\n        /* \"#utility.yul\":12871:12880   */\n      dup4\n        /* \"#utility.yul\":12867:12885   */\n      add\n        /* \"#utility.yul\":12858:12864   */\n      dup5\n        /* \"#utility.yul\":12814:12886   */\n      tag_134\n      jump\t// in\n    tag_296:\n        /* \"#utility.yul\":12561:12893   */\n      swap4\n      swap3\n      pop\n      pop\n      pop\n      jump\t// out\n        /* \"#utility.yul\":12899:13250   */\n    tag_69:\n        /* \"#utility.yul\":12969:12975   */\n      0x00\n        /* \"#utility.yul\":13018:13020   */\n      0x20\n        /* \"#utility.yul\":13006:13015   */\n      dup3\n        /* \"#utility.yul\":12997:13004   */\n      dup5\n        /* \"#utility.yul\":12993:13016   */\n      sub\n        /* \"#utility.yul\":12989:13021   */\n      slt\n        /* \"#utility.yul\":12986:13105   */\n      iszero\n      tag_298\n      jumpi\n        /* \"#utility.yul\":13024:13103   */\n      tag_299\n      tag_109\n      jump\t// in\n    tag_299:\n        /* \"#utility.yul\":12986:13105   */\n    tag_298:\n        /* \"#utility.yul\":13144:13145   */\n      0x00\n        /* \"#utility.yul\":13169:13233   */\n      tag_300\n        /* \"#utility.yul\":13225:13232   */\n      dup5\n        /* \"#utility.yul\":13216:13222   */\n      dup3\n        /* \"#utility.yul\":13205:13214   */\n      dup6\n        /* \"#utility.yul\":13201:13223   */\n      add\n        /* \"#utility.yul\":13169:13233   */\n      tag_148\n      jump\t// in\n    tag_300:\n        /* \"#utility.yul\":13159:13233   */\n      swap2\n      pop\n        /* \"#utility.yul\":13115:13243   */\n      pop\n        /* \"#utility.yul\":12899:13250   */\n      swap3\n      swap2\n      pop\n      pop\n      jump\t// out\n        /* \"#utility.yul\":13256:13436   */\n    tag_76:\n        /* \"#utility.yul\":13304:13381   */\n      0x4e487b7100000000000000000000000000000000000000000000000000000000\n        /* \"#utility.yul\":13301:13302   */\n      0x00\n        /* \"#utility.yul\":13294:13382   */\n      mstore\n        /* \"#utility.yul\":13401:13405   */\n      0x32\n        /* \"#utility.yul\":13398:13399   */\n      0x04\n        /* \"#utility.yul\":13391:13406   */\n      mstore\n        /* \"#utility.yul\":13425:13429   */\n      0x24\n        /* \"#utility.yul\":13422:13423   */\n      0x00\n        /* \"#utility.yul\":13415:13430   */\n      revert\n        /* \"#utility.yul\":13442:13884   */\n    tag_81:\n        /* \"#utility.yul\":13591:13595   */\n      0x00\n        /* \"#utility.yul\":13629:13631   */\n      0x60\n        /* \"#utility.yul\":13618:13627   */\n      dup3\n        /* \"#utility.yul\":13614:13632   */\n      add\n        /* \"#utility.yul\":13606:13632   */\n      swap1\n      pop\n        /* \"#utility.yul\":13642:13713   */\n      tag_303\n        /* \"#utility.yul\":13710:13711   */\n      0x00\n        /* \"#utility.yul\":13699:13708   */\n      dup4\n        /* \"#utility.yul\":13695:13712   */\n      add\n        /* \"#utility.yul\":13686:13692   */\n      dup7\n        /* \"#utility.yul\":13642:13713   */\n      tag_134\n      jump\t// in\n    tag_303:\n        /* \"#utility.yul\":13723:13795   */\n      tag_304\n        /* \"#utility.yul\":13791:13793   */\n      0x20\n        /* \"#utility.yul\":13780:13789   */\n      dup4\n        /* \"#utility.yul\":13776:13794   */\n      add\n        /* \"#utility.yul\":13767:13773   */\n      dup6\n        /* \"#utility.yul\":13723:13795   */\n      tag_134\n      jump\t// in\n    tag_304:\n        /* \"#utility.yul\":13805:13877   */\n      tag_305\n        /* \"#utility.yul\":13873:13875   */\n      0x40\n        /* \"#utility.yul\":13862:13871   */\n      dup4\n        /* \"#utility.yul\":13858:13876   */\n      add\n        /* \"#utility.yul\":13849:13855   */\n      dup5\n        /* \"#utility.yul\":13805:13877   */\n      tag_139\n      jump\t// in\n    tag_305:\n        /* \"#utility.yul\":13442:13884   */\n      swap5\n      swap4\n      pop\n      pop\n      pop\n      pop\n      jump\t// out\n        /* \"#utility.yul\":13890:14006   */\n    tag_149:\n        /* \"#utility.yul\":13960:13981   */\n      tag_307\n        /* \"#utility.yul\":13975:13980   */\n      dup2\n        /* \"#utility.yul\":13960:13981   */\n      tag_132\n      jump\t// in\n    tag_307:\n        /* \"#utility.yul\":13953:13958   */\n      dup2\n        /* \"#utility.yul\":13950:13982   */\n      eq\n        /* \"#utility.yul\":13940:14000   */\n      tag_308\n      jumpi\n        /* \"#utility.yul\":13996:13997   */\n      0x00\n        /* \"#utility.yul\":13993:13994   */\n      0x00\n        /* \"#utility.yul\":13986:13998   */\n      revert\n        /* \"#utility.yul\":13940:14000   */\n    tag_308:\n        /* \"#utility.yul\":13890:14006   */\n      pop\n      jump\t// out\n        /* \"#utility.yul\":14012:14149   */\n    tag_150:\n        /* \"#utility.yul\":14066:14071   */\n      0x00\n        /* \"#utility.yul\":14097:14103   */\n      dup2\n        /* \"#utility.yul\":14091:14104   */\n      mload\n        /* \"#utility.yul\":14082:14104   */\n      swap1\n      pop\n        /* \"#utility.yul\":14113:14143   */\n      tag_310\n        /* \"#utility.yul\":14137:14142   */\n      dup2\n        /* \"#utility.yul\":14113:14143   */\n      tag_149\n      jump\t// in\n    tag_310:\n        /* \"#utility.yul\":14012:14149   */\n      swap3\n      swap2\n      pop\n      pop\n      jump\t// out\n        /* \"#utility.yul\":14155:14500   */\n    tag_85:\n        /* \"#utility.yul\":14222:14228   */\n      0x00\n        /* \"#utility.yul\":14271:14273   */\n      0x20\n        /* \"#utility.yul\":14259:14268   */\n      dup3\n        /* \"#utility.yul\":14250:14257   */\n      dup5\n        /* \"#utility.yul\":14246:14269   */\n      sub\n        /* \"#utility.yul\":14242:14274   */\n      slt\n        /* \"#utility.yul\":14239:14358   */\n      iszero\n      tag_312\n      jumpi\n        /* \"#utility.yul\":14277:14356   */\n      tag_313\n      tag_109\n      jump\t// in\n    tag_313:\n        /* \"#utility.yul\":14239:14358   */\n    tag_312:\n        /* \"#utility.yul\":14397:14398   */\n      0x00\n        /* \"#utility.yul\":14422:14483   */\n      tag_314\n        /* \"#utility.yul\":14475:14482   */\n      dup5\n        /* \"#utility.yul\":14466:14472   */\n      dup3\n        /* \"#utility.yul\":14455:14464   */\n      dup6\n        /* \"#utility.yul\":14451:14473   */\n      add\n        /* \"#utility.yul\":14422:14483   */\n      tag_150\n      jump\t// in\n    tag_314:\n        /* \"#utility.yul\":14412:14483   */\n      swap2\n      pop\n        /* \"#utility.yul\":14368:14493   */\n      pop\n        /* \"#utility.yul\":14155:14500   */\n      swap3\n      swap2\n      pop\n      pop\n      jump\t// out\n\n    auxdata: 0xa2646970667358221220120de1bd3625653c6c030c6b50558fbe4d2fea90412f291f59479afa30f398f464736f6c634300081d0033\n}\n",
				"bytecode": {
					"linkReferences": {},
					"object": "608060405234801561000f575f5ffd5b50335f73ffffffffffffffffffffffffffffffffffffffff168173ffffffffffffffffffffffffffffffffffffffff1603610081575f6040517f1e4fbdf70000000000000000000000000000000000000000000000000000000081526004016100789190610196565b60405180910390fd5b6100908161009660201b60201c565b506101af565b5f5f5f9054906101000a900473ffffffffffffffffffffffffffffffffffffffff169050815f5f6101000a81548173ffffffffffffffffffffffffffffffffffffffff021916908373ffffffffffffffffffffffffffffffffffffffff1602179055508173ffffffffffffffffffffffffffffffffffffffff168173ffffffffffffffffffffffffffffffffffffffff167f8be0079c531659141344cd1fd0a4f28419497f9722a3daafe3b4186f6b6457e060405160405180910390a35050565b5f73ffffffffffffffffffffffffffffffffffffffff82169050919050565b5f61018082610157565b9050919050565b61019081610176565b82525050565b5f6020820190506101a95f830184610187565b92915050565b610f81806101bc5f395ff3fe608060405234801561000f575f5ffd5b5060043610610091575f3560e01c8063715018a611610064578063715018a61461012f5780638da5cb5b14610139578063aa8c217c14610157578063f2fde38b14610175578063fc0c546a1461019157610091565b80632bfc9e2b14610095578063439fab91146100c557806361d027b3146100f55780636724348214610113575b5f5ffd5b6100af60048036038101906100aa9190610893565b6101af565b6040516100bc9190610967565b60405180910390f35b6100df60048036038101906100da9190610ab3565b6101e1565b6040516100ec9190610b14565b60405180910390f35b6100fd610301565b60405161010a9190610b3c565b60405180910390f35b61012d60048036038101906101289190610c07565b610326565b005b6101376105bd565b005b6101416105d0565b60405161014e9190610b3c565b60405180910390f35b61015f6105f7565b60405161016c9190610c94565b60405180910390f35b61018f600480360381019061018a9190610cad565b6105fd565b005b610199610681565b6040516101a69190610d33565b60405180910390f35b6060848484846040516020016101c89493929190610d4c565b6040516020818303038152906040529050949350505050565b5f600360149054906101000a900460ff1615610229576040517f0dc149f000000000000000000000000000000000000000000000000000000000815260040160405180910390fd5b5f5f5f5f858060200190518101906102419190610dde565b93509350935093508360015f6101000a81548173ffffffffffffffffffffffffffffffffffffffff021916908373ffffffffffffffffffffffffffffffffffffffff160217905550826002819055508160035f6101000a81548173ffffffffffffffffffffffffffffffffffffffff021916908373ffffffffffffffffffffffffffffffffffffffff1602179055506102d9816105fd565b6001600360146101000a81548160ff0219169083151502179055506001945050505050919050565b60035f9054906101000a900473ffffffffffffffffffffffffffffffffffffffff1681565b61032e6106a6565b81819050848490501461036d576040517ffc23596000000000000000000000000000000000000000000000000000000000815260040160405180910390fd5b60025460015f9054906101000a900473ffffffffffffffffffffffffffffffffffffffff1673ffffffffffffffffffffffffffffffffffffffff1663dd62ed3e60035f9054906101000a900473ffffffffffffffffffffffffffffffffffffffff16306040518363ffffffff1660e01b81526004016103ed929190610e42565b602060405180830381865afa158015610408573d5f5f3e3d5ffd5b505050506040513d601f19601f8201168201806040525081019061042c9190610e69565b1015610464576040517ff9174a0400000000000000000000000000000000000000000000000000000000815260040160405180910390fd5b5f5f90505b848490508110156105b65760015f9054906101000a900473ffffffffffffffffffffffffffffffffffffffff1673ffffffffffffffffffffffffffffffffffffffff166323b872dd60035f9054906101000a900473ffffffffffffffffffffffffffffffffffffffff168787858181106104e6576104e5610e94565b5b90506020020160208101906104fb9190610cad565b86868681811061050e5761050d610e94565b5b905060200201356040518463ffffffff1660e01b815260040161053393929190610ec1565b6020604051808303815f875af115801561054f573d5f5f3e3d5ffd5b505050506040513d601f19601f820116820180604052508101906105739190610f20565b6105a9576040517f90b8ec1800000000000000000000000000000000000000000000000000000000815260040160405180910390fd5b8080600101915050610469565b5050505050565b6105c56106a6565b6105ce5f61072d565b565b5f5f5f9054906101000a900473ffffffffffffffffffffffffffffffffffffffff16905090565b60025481565b6106056106a6565b5f73ffffffffffffffffffffffffffffffffffffffff168173ffffffffffffffffffffffffffffffffffffffff1603610675575f6040517f1e4fbdf700000000000000000000000000000000000000000000000000000000815260040161066c9190610b3c565b60405180910390fd5b61067e8161072d565b50565b60015f9054906101000a900473ffffffffffffffffffffffffffffffffffffffff1681565b6106ae6107ee565b73ffffffffffffffffffffffffffffffffffffffff166106cc6105d0565b73ffffffffffffffffffffffffffffffffffffffff161461072b576106ef6107ee565b6040517f118cdaa70000000000000000000000000000000000000000000000000000000081526004016107229190610b3c565b60405180910390fd5b565b5f5f5f9054906101000a900473ffffffffffffffffffffffffffffffffffffffff169050815f5f6101000a81548173ffffffffffffffffffffffffffffffffffffffff021916908373ffffffffffffffffffffffffffffffffffffffff1602179055508173ffffffffffffffffffffffffffffffffffffffff168173ffffffffffffffffffffffffffffffffffffffff167f8be0079c531659141344cd1fd0a4f28419497f9722a3daafe3b4186f6b6457e060405160405180910390a35050565b5f33905090565b5f604051905090565b5f5ffd5b5f5ffd5b5f73ffffffffffffffffffffffffffffffffffffffff82169050919050565b5f61082f82610806565b9050919050565b61083f81610825565b8114610849575f5ffd5b50565b5f8135905061085a81610836565b92915050565b5f819050919050565b61087281610860565b811461087c575f5ffd5b50565b5f8135905061088d81610869565b92915050565b5f5f5f5f608085870312156108ab576108aa6107fe565b5b5f6108b88782880161084c565b94505060206108c98782880161087f565b93505060406108da8782880161084c565b92505060606108eb8782880161084c565b91505092959194509250565b5f81519050919050565b5f82825260208201905092915050565b8281835e5f83830152505050565b5f601f19601f8301169050919050565b5f610939826108f7565b6109438185610901565b9350610953818560208601610911565b61095c8161091f565b840191505092915050565b5f6020820190508181035f83015261097f818461092f565b905092915050565b5f5ffd5b5f5ffd5b7f4e487b71000000000000000000000000000000000000000000000000000000005f52604160045260245ffd5b6109c58261091f565b810181811067ffffffffffffffff821117156109e4576109e361098f565b5b80604052505050565b5f6109f66107f5565b9050610a0282826109bc565b919050565b5f67ffffffffffffffff821115610a2157610a2061098f565b5b610a2a8261091f565b9050602081019050919050565b828183375f83830152505050565b5f610a57610a5284610a07565b6109ed565b905082815260208101848484011115610a7357610a7261098b565b5b610a7e848285610a37565b509392505050565b5f82601f830112610a9a57610a99610987565b5b8135610aaa848260208601610a45565b91505092915050565b5f60208284031215610ac857610ac76107fe565b5b5f82013567ffffffffffffffff811115610ae557610ae4610802565b5b610af184828501610a86565b91505092915050565b5f8115159050919050565b610b0e81610afa565b82525050565b5f602082019050610b275f830184610b05565b92915050565b610b3681610825565b82525050565b5f602082019050610b4f5f830184610b2d565b92915050565b5f5ffd5b5f5ffd5b5f5f83601f840112610b7257610b71610987565b5b8235905067ffffffffffffffff811115610b8f57610b8e610b55565b5b602083019150836020820283011115610bab57610baa610b59565b5b9250929050565b5f5f83601f840112610bc757610bc6610987565b5b8235905067ffffffffffffffff811115610be457610be3610b55565b5b602083019150836020820283011115610c0057610bff610b59565b5b9250929050565b5f5f5f5f60408587031215610c1f57610c1e6107fe565b5b5f85013567ffffffffffffffff811115610c3c57610c3b610802565b5b610c4887828801610b5d565b9450945050602085013567ffffffffffffffff811115610c6b57610c6a610802565b5b610c7787828801610bb2565b925092505092959194509250565b610c8e81610860565b82525050565b5f602082019050610ca75f830184610c85565b92915050565b5f60208284031215610cc257610cc16107fe565b5b5f610ccf8482850161084c565b91505092915050565b5f819050919050565b5f610cfb610cf6610cf184610806565b610cd8565b610806565b9050919050565b5f610d0c82610ce1565b9050919050565b5f610d1d82610d02565b9050919050565b610d2d81610d13565b82525050565b5f602082019050610d465f830184610d24565b92915050565b5f608082019050610d5f5f830187610b2d565b610d6c6020830186610c85565b610d796040830185610b2d565b610d866060830184610b2d565b95945050505050565b5f610d9982610806565b9050919050565b610da981610d8f565b8114610db3575f5ffd5b50565b5f81519050610dc481610da0565b92915050565b5f81519050610dd881610869565b92915050565b5f5f5f5f60808587031215610df657610df56107fe565b5b5f610e0387828801610db6565b9450506020610e1487828801610dca565b9350506040610e2587828801610db6565b9250506060610e3687828801610db6565b91505092959194509250565b5f604082019050610e555f830185610b2d565b610e626020830184610b2d565b9392505050565b5f60208284031215610e7e57610e7d6107fe565b5b5f610e8b84828501610dca565b91505092915050565b7f4e487b71000000000000000000000000000000000000000000000000000000005f52603260045260245ffd5b5f606082019050610ed45f830186610b2d565b610ee16020830185610b2d565b610eee6040830184610c85565b949350505050565b610eff81610afa565b8114610f09575f5ffd5b50565b5f81519050610f1a81610ef6565b92915050565b5f60208284031215610f3557610f346107fe565b5b5f610f4284828501610f0c565b9150509291505056fea2646970667358221220120de1bd3625653c6c030c6b50558fbe4d2fea90412f291f59479afa30f398f464736f6c634300081d0033",
					"opcodes": "PUSH1 0x80 PUSH1 0x40 MSTORE CALLVALUE DUP1 ISZERO PUSH2 0xF JUMPI PUSH0 PUSH0 REVERT JUMPDEST POP CALLER PUSH0 PUSH20 0xFFFFFFFFFFFFFFFFFFFFFFFFFFFFFFFFFFFFFFFF AND DUP2 PUSH20 0xFFFFFFFFFFFFFFFFFFFFFFFFFFFFFFFFFFFFFFFF AND SUB PUSH2 0x81 JUMPI PUSH0 PUSH1 0x40 MLOAD PUSH32 0x1E4FBDF700000000000000000000000000000000000000000000000000000000 DUP2 MSTORE PUSH1 0x4 ADD PUSH2 0x78 SWAP2 SWAP1 PUSH2 0x196 JUMP JUMPDEST PUSH1 0x40 MLOAD DUP1 SWAP2 SUB SWAP1 REVERT JUMPDEST PUSH2 0x90 DUP2 PUSH2 0x96 PUSH1 0x20 SHL PUSH1 0x20 SHR JUMP JUMPDEST POP PUSH2 0x1AF JUMP JUMPDEST PUSH0 PUSH0 PUSH0 SWAP1 SLOAD SWAP1 PUSH2 0x100 EXP SWAP1 DIV PUSH20 0xFFFFFFFFFFFFFFFFFFFFFFFFFFFFFFFFFFFFFFFF AND SWAP1 POP DUP2 PUSH0 PUSH0 PUSH2 0x100 EXP DUP2 SLOAD DUP2 PUSH20 0xFFFFFFFFFFFFFFFFFFFFFFFFFFFFFFFFFFFFFFFF MUL NOT AND SWAP1 DUP4 PUSH20 0xFFFFFFFFFFFFFFFFFFFFFFFFFFFFFFFFFFFFFFFF AND MUL OR SWAP1 SSTORE POP DUP2 PUSH20 0xFFFFFFFFFFFFFFFFFFFFFFFFFFFFFFFFFFFFFFFF AND DUP2 PUSH20 0xFFFFFFFFFFFFFFFFFFFFFFFFFFFFFFFFFFFFFFFF AND PUSH32 0x8BE0079C531659141344CD1FD0A4F28419497F9722A3DAAFE3B4186F6B6457E0 PUSH1 0x40 MLOAD PUSH1 0x40 MLOAD DUP1 SWAP2 SUB SWAP1 LOG3 POP POP JUMP JUMPDEST PUSH0 PUSH20 0xFFFFFFFFFFFFFFFFFFFFFFFFFFFFFFFFFFFFFFFF DUP3 AND SWAP1 POP SWAP2 SWAP1 POP JUMP JUMPDEST PUSH0 PUSH2 0x180 DUP3 PUSH2 0x157 JUMP JUMPDEST SWAP1 POP SWAP2 SWAP1 POP JUMP JUMPDEST PUSH2 0x190 DUP2 PUSH2 0x176 JUMP JUMPDEST DUP3 MSTORE POP POP JUMP JUMPDEST PUSH0 PUSH1 0x20 DUP3 ADD SWAP1 POP PUSH2 0x1A9 PUSH0 DUP4 ADD DUP5 PUSH2 0x187 JUMP JUMPDEST SWAP3 SWAP2 POP POP JUMP JUMPDEST PUSH2 0xF81 DUP1 PUSH2 0x1BC PUSH0 CODECOPY PUSH0 RETURN INVALID PUSH1 0x80 PUSH1 0x40 MSTORE CALLVALUE DUP1 ISZERO PUSH2 0xF JUMPI PUSH0 PUSH0 REVERT JUMPDEST POP PUSH1 0x4 CALLDATASIZE LT PUSH2 0x91 JUMPI PUSH0 CALLDATALOAD PUSH1 0xE0 SHR DUP1 PUSH4 0x715018A6 GT PUSH2 0x64 JUMPI DUP1 PUSH4 0x715018A6 EQ PUSH2 0x12F JUMPI DUP1 PUSH4 0x8DA5CB5B EQ PUSH2 0x139 JUMPI DUP1 PUSH4 0xAA8C217C EQ PUSH2 0x157 JUMPI DUP1 PUSH4 0xF2FDE38B EQ PUSH2 0x175 JUMPI DUP1 PUSH4 0xFC0C546A EQ PUSH2 0x191 JUMPI PUSH2 0x91 JUMP JUMPDEST DUP1 PUSH4 0x2BFC9E2B EQ PUSH2 0x95 JUMPI DUP1 PUSH4 0x439FAB91 EQ PUSH2 0xC5 JUMPI DUP1 PUSH4 0x61D027B3 EQ PUSH2 0xF5 JUMPI DUP1 PUSH4 0x67243482 EQ PUSH2 0x113 JUMPI JUMPDEST PUSH0 PUSH0 REVERT JUMPDEST PUSH2 0xAF PUSH1 0x4 DUP1 CALLDATASIZE SUB DUP2 ADD SWAP1 PUSH2 0xAA SWAP2 SWAP1 PUSH2 0x893 JUMP JUMPDEST PUSH2 0x1AF JUMP JUMPDEST PUSH1 0x40 MLOAD PUSH2 0xBC SWAP2 SWAP1 PUSH2 0x967 JUMP JUMPDEST PUSH1 0x40 MLOAD DUP1 SWAP2 SUB SWAP1 RETURN JUMPDEST PUSH2 0xDF PUSH1 0x4 DUP1 CALLDATASIZE SUB DUP2 ADD SWAP1 PUSH2 0xDA SWAP2 SWAP1 PUSH2 0xAB3 JUMP JUMPDEST PUSH2 0x1E1 JUMP JUMPDEST PUSH1 0x40 MLOAD PUSH2 0xEC SWAP2 SWAP1 PUSH2 0xB14 JUMP JUMPDEST PUSH1 0x40 MLOAD DUP1 SWAP2 SUB SWAP1 RETURN JUMPDEST PUSH2 0xFD PUSH2 0x301 JUMP JUMPDEST PUSH1 0x40 MLOAD PUSH2 0x10A SWAP2 SWAP1 PUSH2 0xB3C JUMP JUMPDEST PUSH1 0x40 MLOAD DUP1 SWAP2 SUB SWAP1 RETURN JUMPDEST PUSH2 0x12D PUSH1 0x4 DUP1 CALLDATASIZE SUB DUP2 ADD SWAP1 PUSH2 0x128 SWAP2 SWAP1 PUSH2 0xC07 JUMP JUMPDEST PUSH2 0x326 JUMP JUMPDEST STOP JUMPDEST PUSH2 0x137 PUSH2 0x5BD JUMP JUMPDEST STOP JUMPDEST PUSH2 0x141 PUSH2 0x5D0 JUMP JUMPDEST PUSH1 0x40 MLOAD PUSH2 0x14E SWAP2 SWAP1 PUSH2 0xB3C JUMP JUMPDEST PUSH1 0x40 MLOAD DUP1 SWAP2 SUB SWAP1 RETURN JUMPDEST PUSH2 0x15F PUSH2 0x5F7 JUMP JUMPDEST PUSH1 0x40 MLOAD PUSH2 0x16C SWAP2 SWAP1 PUSH2 0xC94 JUMP JUMPDEST PUSH1 0x40 MLOAD DUP1 SWAP2 SUB SWAP1 RETURN JUMPDEST PUSH2 0x18F PUSH1 0x4 DUP1 CALLDATASIZE SUB DUP2 ADD SWAP1 PUSH2 0x18A SWAP2 SWAP1 PUSH2 0xCAD JUMP JUMPDEST PUSH2 0x5FD JUMP JUMPDEST STOP JUMPDEST PUSH2 0x199 PUSH2 0x681 JUMP JUMPDEST PUSH1 0x40 MLOAD PUSH2 0x1A6 SWAP2 SWAP1 PUSH2 0xD33 JUMP JUMPDEST PUSH1 0x40 MLOAD DUP1 SWAP2 SUB SWAP1 RETURN JUMPDEST PUSH1 0x60 DUP5 DUP5 DUP5 DUP5 PUSH1 0x40 MLOAD PUSH1 0x20 ADD PUSH2 0x1C8 SWAP5 SWAP4 SWAP3 SWAP2 SWAP1 PUSH2 0xD4C JUMP JUMPDEST PUSH1 0x40 MLOAD PUSH1 0x20 DUP2 DUP4 SUB SUB DUP2 MSTORE SWAP1 PUSH1 0x40 MSTORE SWAP1 POP SWAP5 SWAP4 POP POP POP POP JUMP JUMPDEST PUSH0 PUSH1 0x3 PUSH1 0x14 SWAP1 SLOAD SWAP1 PUSH2 0x100 EXP SWAP1 DIV PUSH1 0xFF AND ISZERO PUSH2 0x229 JUMPI PUSH1 0x40 MLOAD PUSH32 0xDC149F000000000000000000000000000000000000000000000000000000000 DUP2 MSTORE PUSH1 0x4 ADD PUSH1 0x40 MLOAD DUP1 SWAP2 SUB SWAP1 REVERT JUMPDEST PUSH0 PUSH0 PUSH0 PUSH0 DUP6 DUP1 PUSH1 0x20 ADD SWAP1 MLOAD DUP2 ADD SWAP1 PUSH2 0x241 SWAP2 SWAP1 PUSH2 0xDDE JUMP JUMPDEST SWAP4 POP SWAP4 POP SWAP4 POP SWAP4 POP DUP4 PUSH1 0x1 PUSH0 PUSH2 0x100 EXP DUP2 SLOAD DUP2 PUSH20 0xFFFFFFFFFFFFFFFFFFFFFFFFFFFFFFFFFFFFFFFF MUL NOT AND SWAP1 DUP4 PUSH20 0xFFFFFFFFFFFFFFFFFFFFFFFFFFFFFFFFFFFFFFFF AND MUL OR SWAP1 SSTORE POP DUP3 PUSH1 0x2 DUP2 SWAP1 SSTORE POP DUP2 PUSH1 0x3 PUSH0 PUSH2 0x100 EXP DUP2 SLOAD DUP2 PUSH20 0xFFFFFFFFFFFFFFFFFFFFFFFFFFFFFFFFFFFFFFFF MUL NOT AND SWAP1 DUP4 PUSH20 0xFFFFFFFFFFFFFFFFFFFFFFFFFFFFFFFFFFFFFFFF AND MUL OR SWAP1 SSTORE POP PUSH2 0x2D9 DUP2 PUSH2 0x5FD JUMP JUMPDEST PUSH1 0x1 PUSH1 0x3 PUSH1 0x14 PUSH2 0x100 EXP DUP2 SLOAD DUP2 PUSH1 0xFF MUL NOT AND SWAP1 DUP4 ISZERO ISZERO MUL OR SWAP1 SSTORE POP PUSH1 0x1 SWAP5 POP POP POP POP POP SWAP2 SWAP1 POP JUMP JUMPDEST PUSH1 0x3 PUSH0 SWAP1 SLOAD SWAP1 PUSH2 0x100 EXP SWAP1 DIV PUSH20 0xFFFFFFFFFFFFFFFFFFFFFFFFFFFFFFFFFFFFFFFF AND DUP2 JUMP JUMPDEST PUSH2 0x32E PUSH2 0x6A6 JUMP JUMPDEST DUP2 DUP2 SWAP1 POP DUP5 DUP5 SWAP1 POP EQ PUSH2 0x36D JUMPI PUSH1 0x40 MLOAD PUSH32 0xFC23596000000000000000000000000000000000000000000000000000000000 DUP2 MSTORE PUSH1 0x4 ADD PUSH1 0x40 MLOAD DUP1 SWAP2 SUB SWAP1 REVERT JUMPDEST PUSH1 0x2 SLOAD PUSH1 0x1 PUSH0 SWAP1 SLOAD SWAP1 PUSH2 0x100 EXP SWAP1 DIV PUSH20 0xFFFFFFFFFFFFFFFFFFFFFFFFFFFFFFFFFFFFFFFF AND PUSH20 0xFFFFFFFFFFFFFFFFFFFFFFFFFFFFFFFFFFFFFFFF AND PUSH4 0xDD62ED3E PUSH1 0x3 PUSH0 SWAP1 SLOAD SWAP1 PUSH2 0x100 EXP SWAP1 DIV PUSH20 0xFFFFFFFFFFFFFFFFFFFFFFFFFFFFFFFFFFFFFFFF AND ADDRESS PUSH1 0x40 MLOAD DUP4 PUSH4 0xFFFFFFFF AND PUSH1 0xE0 SHL DUP2 MSTORE PUSH1 0x4 ADD PUSH2 0x3ED SWAP3 SWAP2 SWAP1 PUSH2 0xE42 JUMP JUMPDEST PUSH1 0x20 PUSH1 0x40 MLOAD DUP1 DUP4 SUB DUP2 DUP7 GAS STATICCALL ISZERO DUP1 ISZERO PUSH2 0x408 JUMPI RETURNDATASIZE PUSH0 PUSH0 RETURNDATACOPY RETURNDATASIZE PUSH0 REVERT JUMPDEST POP POP POP POP PUSH1 0x40 MLOAD RETURNDATASIZE PUSH1 0x1F NOT PUSH1 0x1F DUP3 ADD AND DUP3 ADD DUP1 PUSH1 0x40 MSTORE POP DUP2 ADD SWAP1 PUSH2 0x42C SWAP2 SWAP1 PUSH2 0xE69 JUMP JUMPDEST LT ISZERO PUSH2 0x464 JUMPI PUSH1 0x40 MLOAD PUSH32 0xF9174A0400000000000000000000000000000000000000000000000000000000 DUP2 MSTORE PUSH1 0x4 ADD PUSH1 0x40 MLOAD DUP1 SWAP2 SUB SWAP1 REVERT JUMPDEST PUSH0 PUSH0 SWAP1 POP JUMPDEST DUP5 DUP5 SWAP1 POP DUP2 LT ISZERO PUSH2 0x5B6 JUMPI PUSH1 0x1 PUSH0 SWAP1 SLOAD SWAP1 PUSH2 0x100 EXP SWAP1 DIV PUSH20 0xFFFFFFFFFFFFFFFFFFFFFFFFFFFFFFFFFFFFFFFF AND PUSH20 0xFFFFFFFFFFFFFFFFFFFFFFFFFFFFFFFFFFFFFFFF AND PUSH4 0x23B872DD PUSH1 0x3 PUSH0 SWAP1 SLOAD SWAP1 PUSH2 0x100 EXP SWAP1 DIV PUSH20 0xFFFFFFFFFFFFFFFFFFFFFFFFFFFFFFFFFFFFFFFF AND DUP8 DUP8 DUP6 DUP2 DUP2 LT PUSH2 0x4E6 JUMPI PUSH2 0x4E5 PUSH2 0xE94 JUMP JUMPDEST JUMPDEST SWAP1 POP PUSH1 0x20 MUL ADD PUSH1 0x20 DUP2 ADD SWAP1 PUSH2 0x4FB SWAP2 SWAP1 PUSH2 0xCAD JUMP JUMPDEST DUP7 DUP7 DUP7 DUP2 DUP2 LT PUSH2 0x50E JUMPI PUSH2 0x50D PUSH2 0xE94 JUMP JUMPDEST JUMPDEST SWAP1 POP PUSH1 0x20 MUL ADD CALLDATALOAD PUSH1 0x40 MLOAD DUP5 PUSH4 0xFFFFFFFF AND PUSH1 0xE0 SHL DUP2 MSTORE PUSH1 0x4 ADD PUSH2 0x533 SWAP4 SWAP3 SWAP2 SWAP1 PUSH2 0xEC1 JUMP JUMPDEST PUSH1 0x20 PUSH1 0x40 MLOAD DUP1 DUP4 SUB DUP2 PUSH0 DUP8 GAS CALL ISZERO DUP1 ISZERO PUSH2 0x54F JUMPI RETURNDATASIZE PUSH0 PUSH0 RETURNDATACOPY RETURNDATASIZE PUSH0 REVERT JUMPDEST POP POP POP POP PUSH1 0x40 MLOAD RETURNDATASIZE PUSH1 0x1F NOT PUSH1 0x1F DUP3 ADD AND DUP3 ADD DUP1 PUSH1 0x40 MSTORE POP DUP2 ADD SWAP1 PUSH2 0x573 SWAP2 SWAP1 PUSH2 0xF20 JUMP JUMPDEST PUSH2 0x5A9 JUMPI PUSH1 0x40 MLOAD PUSH32 0x90B8EC1800000000000000000000000000000000000000000000000000000000 DUP2 MSTORE PUSH1 0x4 ADD PUSH1 0x40 MLOAD DUP1 SWAP2 SUB SWAP1 REVERT JUMPDEST DUP1 DUP1 PUSH1 0x1 ADD SWAP2 POP POP PUSH2 0x469 JUMP JUMPDEST POP POP POP POP POP JUMP JUMPDEST PUSH2 0x5C5 PUSH2 0x6A6 JUMP JUMPDEST PUSH2 0x5CE PUSH0 PUSH2 0x72D JUMP JUMPDEST JUMP JUMPDEST PUSH0 PUSH0 PUSH0 SWAP1 SLOAD SWAP1 PUSH2 0x100 EXP SWAP1 DIV PUSH20 0xFFFFFFFFFFFFFFFFFFFFFFFFFFFFFFFFFFFFFFFF AND SWAP1 POP SWAP1 JUMP JUMPDEST PUSH1 0x2 SLOAD DUP2 JUMP JUMPDEST PUSH2 0x605 PUSH2 0x6A6 JUMP JUMPDEST PUSH0 PUSH20 0xFFFFFFFFFFFFFFFFFFFFFFFFFFFFFFFFFFFFFFFF AND DUP2 PUSH20 0xFFFFFFFFFFFFFFFFFFFFFFFFFFFFFFFFFFFFFFFF AND SUB PUSH2 0x675 JUMPI PUSH0 PUSH1 0x40 MLOAD PUSH32 0x1E4FBDF700000000000000000000000000000000000000000000000000000000 DUP2 MSTORE PUSH1 0x4 ADD PUSH2 0x66C SWAP2 SWAP1 PUSH2 0xB3C JUMP JUMPDEST PUSH1 0x40 MLOAD DUP1 SWAP2 SUB SWAP1 REVERT JUMPDEST PUSH2 0x67E DUP2 PUSH2 0x72D JUMP JUMPDEST POP JUMP JUMPDEST PUSH1 0x1 PUSH0 SWAP1 SLOAD SWAP1 PUSH2 0x100 EXP SWAP1 DIV PUSH20 0xFFFFFFFFFFFFFFFFFFFFFFFFFFFFFFFFFFFFFFFF AND DUP2 JUMP JUMPDEST PUSH2 0x6AE PUSH2 0x7EE JUMP JUMPDEST PUSH20 0xFFFFFFFFFFFFFFFFFFFFFFFFFFFFFFFFFFFFFFFF AND PUSH2 0x6CC PUSH2 0x5D0 JUMP JUMPDEST PUSH20 0xFFFFFFFFFFFFFFFFFFFFFFFFFFFFFFFFFFFFFFFF AND EQ PUSH2 0x72B JUMPI PUSH2 0x6EF PUSH2 0x7EE JUMP JUMPDEST PUSH1 0x40 MLOAD PUSH32 0x118CDAA700000000000000000000000000000000000000000000000000000000 DUP2 MSTORE PUSH1 0x4 ADD PUSH2 0x722 SWAP2 SWAP1 PUSH2 0xB3C JUMP JUMPDEST PUSH1 0x40 MLOAD DUP1 SWAP2 SUB SWAP1 REVERT JUMPDEST JUMP JUMPDEST PUSH0 PUSH0 PUSH0 SWAP1 SLOAD SWAP1 PUSH2 0x100 EXP SWAP1 DIV PUSH20 0xFFFFFFFFFFFFFFFFFFFFFFFFFFFFFFFFFFFFFFFF AND SWAP1 POP DUP2 PUSH0 PUSH0 PUSH2 0x100 EXP DUP2 SLOAD DUP2 PUSH20 0xFFFFFFFFFFFFFFFFFFFFFFFFFFFFFFFFFFFFFFFF MUL NOT AND SWAP1 DUP4 PUSH20 0xFFFFFFFFFFFFFFFFFFFFFFFFFFFFFFFFFFFFFFFF AND MUL OR SWAP1 SSTORE POP DUP2 PUSH20 0xFFFFFFFFFFFFFFFFFFFFFFFFFFFFFFFFFFFFFFFF AND DUP2 PUSH20 0xFFFFFFFFFFFFFFFFFFFFFFFFFFFFFFFFFFFFFFFF AND PUSH32 0x8BE0079C531659141344CD1FD0A4F28419497F9722A3DAAFE3B4186F6B6457E0 PUSH1 0x40 MLOAD PUSH1 0x40 MLOAD DUP1 SWAP2 SUB SWAP1 LOG3 POP POP JUMP JUMPDEST PUSH0 CALLER SWAP1 POP SWAP1 JUMP JUMPDEST PUSH0 PUSH1 0x40 MLOAD SWAP1 POP SWAP1 JUMP JUMPDEST PUSH0 PUSH0 REVERT JUMPDEST PUSH0 PUSH0 REVERT JUMPDEST PUSH0 PUSH20 0xFFFFFFFFFFFFFFFFFFFFFFFFFFFFFFFFFFFFFFFF DUP3 AND SWAP1 POP SWAP2 SWAP1 POP JUMP JUMPDEST PUSH0 PUSH2 0x82F DUP3 PUSH2 0x806 JUMP JUMPDEST SWAP1 POP SWAP2 SWAP1 POP JUMP JUMPDEST PUSH2 0x83F DUP2 PUSH2 0x825 JUMP JUMPDEST DUP2 EQ PUSH2 0x849 JUMPI PUSH0 PUSH0 REVERT JUMPDEST POP JUMP JUMPDEST PUSH0 DUP2 CALLDATALOAD SWAP1 POP PUSH2 0x85A DUP2 PUSH2 0x836 JUMP JUMPDEST SWAP3 SWAP2 POP POP JUMP JUMPDEST PUSH0 DUP2 SWAP1 POP SWAP2 SWAP1 POP JUMP JUMPDEST PUSH2 0x872 DUP2 PUSH2 0x860 JUMP JUMPDEST DUP2 EQ PUSH2 0x87C JUMPI PUSH0 PUSH0 REVERT JUMPDEST POP JUMP JUMPDEST PUSH0 DUP2 CALLDATALOAD SWAP1 POP PUSH2 0x88D DUP2 PUSH2 0x869 JUMP JUMPDEST SWAP3 SWAP2 POP POP JUMP JUMPDEST PUSH0 PUSH0 PUSH0 PUSH0 PUSH1 0x80 DUP6 DUP8 SUB SLT ISZERO PUSH2 0x8AB JUMPI PUSH2 0x8AA PUSH2 0x7FE JUMP JUMPDEST JUMPDEST PUSH0 PUSH2 0x8B8 DUP8 DUP3 DUP9 ADD PUSH2 0x84C JUMP JUMPDEST SWAP5 POP POP PUSH1 0x20 PUSH2 0x8C9 DUP8 DUP3 DUP9 ADD PUSH2 0x87F JUMP JUMPDEST SWAP4 POP POP PUSH1 0x40 PUSH2 0x8DA DUP8 DUP3 DUP9 ADD PUSH2 0x84C JUMP JUMPDEST SWAP3 POP POP PUSH1 0x60 PUSH2 0x8EB DUP8 DUP3 DUP9 ADD PUSH2 0x84C JUMP JUMPDEST SWAP2 POP POP SWAP3 SWAP6 SWAP2 SWAP5 POP SWAP3 POP JUMP JUMPDEST PUSH0 DUP2 MLOAD SWAP1 POP SWAP2 SWAP1 POP JUMP JUMPDEST PUSH0 DUP3 DUP3 MSTORE PUSH1 0x20 DUP3 ADD SWAP1 POP SWAP3 SWAP2 POP POP JUMP JUMPDEST DUP3 DUP2 DUP4 MCOPY PUSH0 DUP4 DUP4 ADD MSTORE POP POP POP JUMP JUMPDEST PUSH0 PUSH1 0x1F NOT PUSH1 0x1F DUP4 ADD AND SWAP1 POP SWAP2 SWAP1 POP JUMP JUMPDEST PUSH0 PUSH2 0x939 DUP3 PUSH2 0x8F7 JUMP JUMPDEST PUSH2 0x943 DUP2 DUP6 PUSH2 0x901 JUMP JUMPDEST SWAP4 POP PUSH2 0x953 DUP2 DUP6 PUSH1 0x20 DUP7 ADD PUSH2 0x911 JUMP JUMPDEST PUSH2 0x95C DUP2 PUSH2 0x91F JUMP JUMPDEST DUP5 ADD SWAP2 POP POP SWAP3 SWAP2 POP POP JUMP JUMPDEST PUSH0 PUSH1 0x20 DUP3 ADD SWAP1 POP DUP2 DUP2 SUB PUSH0 DUP4 ADD MSTORE PUSH2 0x97F DUP2 DUP5 PUSH2 0x92F JUMP JUMPDEST SWAP1 POP SWAP3 SWAP2 POP POP JUMP JUMPDEST PUSH0 PUSH0 REVERT JUMPDEST PUSH0 PUSH0 REVERT JUMPDEST PUSH32 0x4E487B7100000000000000000000000000000000000000000000000000000000 PUSH0 MSTORE PUSH1 0x41 PUSH1 0x4 MSTORE PUSH1 0x24 PUSH0 REVERT JUMPDEST PUSH2 0x9C5 DUP3 PUSH2 0x91F JUMP JUMPDEST DUP2 ADD DUP2 DUP2 LT PUSH8 0xFFFFFFFFFFFFFFFF DUP3 GT OR ISZERO PUSH2 0x9E4 JUMPI PUSH2 0x9E3 PUSH2 0x98F JUMP JUMPDEST JUMPDEST DUP1 PUSH1 0x40 MSTORE POP POP POP JUMP JUMPDEST PUSH0 PUSH2 0x9F6 PUSH2 0x7F5 JUMP JUMPDEST SWAP1 POP PUSH2 0xA02 DUP3 DUP3 PUSH2 0x9BC JUMP JUMPDEST SWAP2 SWAP1 POP JUMP JUMPDEST PUSH0 PUSH8 0xFFFFFFFFFFFFFFFF DUP3 GT ISZERO PUSH2 0xA21 JUMPI PUSH2 0xA20 PUSH2 0x98F JUMP JUMPDEST JUMPDEST PUSH2 0xA2A DUP3 PUSH2 0x91F JUMP JUMPDEST SWAP1 POP PUSH1 0x20 DUP2 ADD SWAP1 POP SWAP2 SWAP1 POP JUMP JUMPDEST DUP3 DUP2 DUP4 CALLDATACOPY PUSH0 DUP4 DUP4 ADD MSTORE POP POP POP JUMP JUMPDEST PUSH0 PUSH2 0xA57 PUSH2 0xA52 DUP5 PUSH2 0xA07 JUMP JUMPDEST PUSH2 0x9ED JUMP JUMPDEST SWAP1 POP DUP3 DUP2 MSTORE PUSH1 0x20 DUP2 ADD DUP5 DUP5 DUP5 ADD GT ISZERO PUSH2 0xA73 JUMPI PUSH2 0xA72 PUSH2 0x98B JUMP JUMPDEST JUMPDEST PUSH2 0xA7E DUP5 DUP3 DUP6 PUSH2 0xA37 JUMP JUMPDEST POP SWAP4 SWAP3 POP POP POP JUMP JUMPDEST PUSH0 DUP3 PUSH1 0x1F DUP4 ADD SLT PUSH2 0xA9A JUMPI PUSH2 0xA99 PUSH2 0x987 JUMP JUMPDEST JUMPDEST DUP2 CALLDATALOAD PUSH2 0xAAA DUP5 DUP3 PUSH1 0x20 DUP7 ADD PUSH2 0xA45 JUMP JUMPDEST SWAP2 POP POP SWAP3 SWAP2 POP POP JUMP JUMPDEST PUSH0 PUSH1 0x20 DUP3 DUP5 SUB SLT ISZERO PUSH2 0xAC8 JUMPI PUSH2 0xAC7 PUSH2 0x7FE JUMP JUMPDEST JUMPDEST PUSH0 DUP3 ADD CALLDATALOAD PUSH8 0xFFFFFFFFFFFFFFFF DUP2 GT ISZERO PUSH2 0xAE5 JUMPI PUSH2 0xAE4 PUSH2 0x802 JUMP JUMPDEST JUMPDEST PUSH2 0xAF1 DUP5 DUP3 DUP6 ADD PUSH2 0xA86 JUMP JUMPDEST SWAP2 POP POP SWAP3 SWAP2 POP POP JUMP JUMPDEST PUSH0 DUP2 ISZERO ISZERO SWAP1 POP SWAP2 SWAP1 POP JUMP JUMPDEST PUSH2 0xB0E DUP2 PUSH2 0xAFA JUMP JUMPDEST DUP3 MSTORE POP POP JUMP JUMPDEST PUSH0 PUSH1 0x20 DUP3 ADD SWAP1 POP PUSH2 0xB27 PUSH0 DUP4 ADD DUP5 PUSH2 0xB05 JUMP JUMPDEST SWAP3 SWAP2 POP POP JUMP JUMPDEST PUSH2 0xB36 DUP2 PUSH2 0x825 JUMP JUMPDEST DUP3 MSTORE POP POP JUMP JUMPDEST PUSH0 PUSH1 0x20 DUP3 ADD SWAP1 POP PUSH2 0xB4F PUSH0 DUP4 ADD DUP5 PUSH2 0xB2D JUMP JUMPDEST SWAP3 SWAP2 POP POP JUMP JUMPDEST PUSH0 PUSH0 REVERT JUMPDEST PUSH0 PUSH0 REVERT JUMPDEST PUSH0 PUSH0 DUP4 PUSH1 0x1F DUP5 ADD SLT PUSH2 0xB72 JUMPI PUSH2 0xB71 PUSH2 0x987 JUMP JUMPDEST JUMPDEST DUP3 CALLDATALOAD SWAP1 POP PUSH8 0xFFFFFFFFFFFFFFFF DUP2 GT ISZERO PUSH2 0xB8F JUMPI PUSH2 0xB8E PUSH2 0xB55 JUMP JUMPDEST JUMPDEST PUSH1 0x20 DUP4 ADD SWAP2 POP DUP4 PUSH1 0x20 DUP3 MUL DUP4 ADD GT ISZERO PUSH2 0xBAB JUMPI PUSH2 0xBAA PUSH2 0xB59 JUMP JUMPDEST JUMPDEST SWAP3 POP SWAP3 SWAP1 POP JUMP JUMPDEST PUSH0 PUSH0 DUP4 PUSH1 0x1F DUP5 ADD SLT PUSH2 0xBC7 JUMPI PUSH2 0xBC6 PUSH2 0x987 JUMP JUMPDEST JUMPDEST DUP3 CALLDATALOAD SWAP1 POP PUSH8 0xFFFFFFFFFFFFFFFF DUP2 GT ISZERO PUSH2 0xBE4 JUMPI PUSH2 0xBE3 PUSH2 0xB55 JUMP JUMPDEST JUMPDEST PUSH1 0x20 DUP4 ADD SWAP2 POP DUP4 PUSH1 0x20 DUP3 MUL DUP4 ADD GT ISZERO PUSH2 0xC00 JUMPI PUSH2 0xBFF PUSH2 0xB59 JUMP JUMPDEST JUMPDEST SWAP3 POP SWAP3 SWAP1 POP JUMP JUMPDEST PUSH0 PUSH0 PUSH0 PUSH0 PUSH1 0x40 DUP6 DUP8 SUB SLT ISZERO PUSH2 0xC1F JUMPI PUSH2 0xC1E PUSH2 0x7FE JUMP JUMPDEST JUMPDEST PUSH0 DUP6 ADD CALLDATALOAD PUSH8 0xFFFFFFFFFFFFFFFF DUP2 GT ISZERO PUSH2 0xC3C JUMPI PUSH2 0xC3B PUSH2 0x802 JUMP JUMPDEST JUMPDEST PUSH2 0xC48 DUP8 DUP3 DUP9 ADD PUSH2 0xB5D JUMP JUMPDEST SWAP5 POP SWAP5 POP POP PUSH1 0x20 DUP6 ADD CALLDATALOAD PUSH8 0xFFFFFFFFFFFFFFFF DUP2 GT ISZERO PUSH2 0xC6B JUMPI PUSH2 0xC6A PUSH2 0x802 JUMP JUMPDEST JUMPDEST PUSH2 0xC77 DUP8 DUP3 DUP9 ADD PUSH2 0xBB2 JUMP JUMPDEST SWAP3 POP SWAP3 POP POP SWAP3 SWAP6 SWAP2 SWAP5 POP SWAP3 POP JUMP JUMPDEST PUSH2 0xC8E DUP2 PUSH2 0x860 JUMP JUMPDEST DUP3 MSTORE POP POP JUMP JUMPDEST PUSH0 PUSH1 0x20 DUP3 ADD SWAP1 POP PUSH2 0xCA7 PUSH0 DUP4 ADD DUP5 PUSH2 0xC85 JUMP JUMPDEST SWAP3 SWAP2 POP POP JUMP JUMPDEST PUSH0 PUSH1 0x20 DUP3 DUP5 SUB SLT ISZERO PUSH2 0xCC2 JUMPI PUSH2 0xCC1 PUSH2 0x7FE JUMP JUMPDEST JUMPDEST PUSH0 PUSH2 0xCCF DUP5 DUP3 DUP6 ADD PUSH2 0x84C JUMP JUMPDEST SWAP2 POP POP SWAP3 SWAP2 POP POP JUMP JUMPDEST PUSH0 DUP2 SWAP1 POP SWAP2 SWAP1 POP JUMP JUMPDEST PUSH0 PUSH2 0xCFB PUSH2 0xCF6 PUSH2 0xCF1 DUP5 PUSH2 0x806 JUMP JUMPDEST PUSH2 0xCD8 JUMP JUMPDEST PUSH2 0x806 JUMP JUMPDEST SWAP1 POP SWAP2 SWAP1 POP JUMP JUMPDEST PUSH0 PUSH2 0xD0C DUP3 PUSH2 0xCE1 JUMP JUMPDEST SWAP1 POP SWAP2 SWAP1 POP JUMP JUMPDEST PUSH0 PUSH2 0xD1D DUP3 PUSH2 0xD02 JUMP JUMPDEST SWAP1 POP SWAP2 SWAP1 POP JUMP JUMPDEST PUSH2 0xD2D DUP2 PUSH2 0xD13 JUMP JUMPDEST DUP3 MSTORE POP POP JUMP JUMPDEST PUSH0 PUSH1 0x20 DUP3 ADD SWAP1 POP PUSH2 0xD46 PUSH0 DUP4 ADD DUP5 PUSH2 0xD24 JUMP JUMPDEST SWAP3 SWAP2 POP POP JUMP JUMPDEST PUSH0 PUSH1 0x80 DUP3 ADD SWAP1 POP PUSH2 0xD5F PUSH0 DUP4 ADD DUP8 PUSH2 0xB2D JUMP JUMPDEST PUSH2 0xD6C PUSH1 0x20 DUP4 ADD DUP7 PUSH2 0xC85 JUMP JUMPDEST PUSH2 0xD79 PUSH1 0x40 DUP4 ADD DUP6 PUSH2 0xB2D JUMP JUMPDEST PUSH2 0xD86 PUSH1 0x60 DUP4 ADD DUP5 PUSH2 0xB2D JUMP JUMPDEST SWAP6 SWAP5 POP POP POP POP POP JUMP JUMPDEST PUSH0 PUSH2 0xD99 DUP3 PUSH2 0x806 JUMP JUMPDEST SWAP1 POP SWAP2 SWAP1 POP JUMP JUMPDEST PUSH2 0xDA9 DUP2 PUSH2 0xD8F JUMP JUMPDEST DUP2 EQ PUSH2 0xDB3 JUMPI PUSH0 PUSH0 REVERT JUMPDEST POP JUMP JUMPDEST PUSH0 DUP2 MLOAD SWAP1 POP PUSH2 0xDC4 DUP2 PUSH2 0xDA0 JUMP JUMPDEST SWAP3 SWAP2 POP POP JUMP JUMPDEST PUSH0 DUP2 MLOAD SWAP1 POP PUSH2 0xDD8 DUP2 PUSH2 0x869 JUMP JUMPDEST SWAP3 SWAP2 POP POP JUMP JUMPDEST PUSH0 PUSH0 PUSH0 PUSH0 PUSH1 0x80 DUP6 DUP8 SUB SLT ISZERO PUSH2 0xDF6 JUMPI PUSH2 0xDF5 PUSH2 0x7FE JUMP JUMPDEST JUMPDEST PUSH0 PUSH2 0xE03 DUP8 DUP3 DUP9 ADD PUSH2 0xDB6 JUMP JUMPDEST SWAP5 POP POP PUSH1 0x20 PUSH2 0xE14 DUP8 DUP3 DUP9 ADD PUSH2 0xDCA JUMP JUMPDEST SWAP4 POP POP PUSH1 0x40 PUSH2 0xE25 DUP8 DUP3 DUP9 ADD PUSH2 0xDB6 JUMP JUMPDEST SWAP3 POP POP PUSH1 0x60 PUSH2 0xE36 DUP8 DUP3 DUP9 ADD PUSH2 0xDB6 JUMP JUMPDEST SWAP2 POP POP SWAP3 SWAP6 SWAP2 SWAP5 POP SWAP3 POP JUMP JUMPDEST PUSH0 PUSH1 0x40 DUP3 ADD SWAP1 POP PUSH2 0xE55 PUSH0 DUP4 ADD DUP6 PUSH2 0xB2D JUMP JUMPDEST PUSH2 0xE62 PUSH1 0x20 DUP4 ADD DUP5 PUSH2 0xB2D JUMP JUMPDEST SWAP4 SWAP3 POP POP POP JUMP JUMPDEST PUSH0 PUSH1 0x20 DUP3 DUP5 SUB SLT ISZERO PUSH2 0xE7E JUMPI PUSH2 0xE7D PUSH2 0x7FE JUMP JUMPDEST JUMPDEST PUSH0 PUSH2 0xE8B DUP5 DUP3 DUP6 ADD PUSH2 0xDCA JUMP JUMPDEST SWAP2 POP POP SWAP3 SWAP2 POP POP JUMP JUMPDEST PUSH32 0x4E487B7100000000000000000000000000000000000000000000000000000000 PUSH0 MSTORE PUSH1 0x32 PUSH1 0x4 MSTORE PUSH1 0x24 PUSH0 REVERT JUMPDEST PUSH0 PUSH1 0x60 DUP3 ADD SWAP1 POP PUSH2 0xED4 PUSH0 DUP4 ADD DUP7 PUSH2 0xB2D JUMP JUMPDEST PUSH2 0xEE1 PUSH1 0x20 DUP4 ADD DUP6 PUSH2 0xB2D JUMP JUMPDEST PUSH2 0xEEE PUSH1 0x40 DUP4 ADD DUP5 PUSH2 0xC85 JUMP JUMPDEST SWAP5 SWAP4 POP POP POP POP JUMP JUMPDEST PUSH2 0xEFF DUP2 PUSH2 0xAFA JUMP JUMPDEST DUP2 EQ PUSH2 0xF09 JUMPI PUSH0 PUSH0 REVERT JUMPDEST POP JUMP JUMPDEST PUSH0 DUP2 MLOAD SWAP1 POP PUSH2 0xF1A DUP2 PUSH2 0xEF6 JUMP JUMPDEST SWAP3 SWAP2 POP POP JUMP JUMPDEST PUSH0 PUSH1 0x20 DUP3 DUP5 SUB SLT ISZERO PUSH2 0xF35 JUMPI PUSH2 0xF34 PUSH2 0x7FE JUMP JUMPDEST JUMPDEST PUSH0 PUSH2 0xF42 DUP5 DUP3 DUP6 ADD PUSH2 0xF0C JUMP JUMPDEST SWAP2 POP POP SWAP3 SWAP2 POP POP JUMP INVALID LOG2 PUSH5 0x6970667358 0x22 SLT KECCAK256 SLT 0xD RJUMPI 0xBD36 0x25 PUSH6 0x3C6C030C6B50 SSTORE DUP16 0xBE 0x4D 0x2F 0xEA SWAP1 COINBASE 0x2F 0x29 0x1F MSIZE SELFBALANCE SWAP11 STATICCALL ADDRESS RETURN SWAP9 DELEGATECALL PUSH5 0x736F6C6343 STOP ADDMOD SAR STOP CALLER "
				},
				"gasEstimates": {
					"creation": {
						"codeDepositCost": "793800",
						"executionCost": "infinite",
						"totalCost": "infinite"
					},
					"external": {
						"airdrop(address[],uint256[])": "infinite",
						"amount()": "2469",
						"getInitData(address,uint256,address,address)": "infinite",
						"initialize(bytes)": "infinite",
						"owner()": "2536",
						"renounceOwnership()": "infinite",
						"token()": "infinite",
						"transferOwnership(address)": "infinite",
						"treasury()": "2553"
					}
				},
				"methodIdentifiers": {
					"airdrop(address[],uint256[])": "67243482",
					"amount()": "aa8c217c",
					"getInitData(address,uint256,address,address)": "2bfc9e2b",
					"initialize(bytes)": "439fab91",
					"owner()": "8da5cb5b",
					"renounceOwnership()": "715018a6",
					"token()": "fc0c546a",
					"transferOwnership(address)": "f2fde38b",
					"treasury()": "61d027b3"
				}
			},
			"storageLayout": {
				"storage": [
					{
						"astId": 8,
						"contract": "contracts/ERC20Airdroper/ERC20Airdroper.sol:ERC20Airdroper",
						"label": "_owner",
						"offset": 0,
						"slot": "0",
						"type": "t_address"
					},
					{
						"astId": 275,
						"contract": "contracts/ERC20Airdroper/ERC20Airdroper.sol:ERC20Airdroper",
						"label": "token",
						"offset": 0,
						"slot": "1",
						"type": "t_contract(IERC20)225"
					},
					{
						"astId": 277,
						"contract": "contracts/ERC20Airdroper/ERC20Airdroper.sol:ERC20Airdroper",
						"label": "amount",
						"offset": 0,
						"slot": "2",
						"type": "t_uint256"
					},
					{
						"astId": 279,
						"contract": "contracts/ERC20Airdroper/ERC20Airdroper.sol:ERC20Airdroper",
						"label": "treasury",
						"offset": 0,
						"slot": "3",
						"type": "t_address"
					},
					{
						"astId": 300,
						"contract": "contracts/ERC20Airdroper/ERC20Airdroper.sol:ERC20Airdroper",
						"label": "initialized",
						"offset": 20,
						"slot": "3",
						"type": "t_bool"
					}
				],
				"types": {
					"t_address": {
						"encoding": "inplace",
						"label": "address",
						"numberOfBytes": "20"
					},
					"t_bool": {
						"encoding": "inplace",
						"label": "bool",
						"numberOfBytes": "1"
					},
					"t_contract(IERC20)225": {
						"encoding": "inplace",
						"label": "contract IERC20",
						"numberOfBytes": "20"
					},
					"t_uint256": {
						"encoding": "inplace",
						"label": "uint256",
						"numberOfBytes": "32"
					}
				}
			},
			"userdoc": {
				"kind": "user",
				"methods": {},
				"version": 1
			}
		}
	}
}